:1000000000000320D1010000CDEC0100D1EB010084
:10001000D1EB0100D1EB0100D1EB0100D1EB0100EC
:10002000D1EB0100D1EB0100D1EB0100CDEC0100DF
:10003000CDEC0100D1EB01006D510200F54F020043
:10004000CDEC0100CDEC0100CDEC0100CDEC0100C8
:10005000CDEC0100CDEC0100CDEC0100CDEC0100B8
:10006000CDEC0100CDEC0100CDEC0100CDEC0100A8
:10007000CDEC0100CDEC0100CDEC0100CDEC010098
:10008000CDEC0100CDEC0100CDEC0100CDEC010088
:10009000CDEC0100CDEC0100CDEC0100CDEC010078
:1000A000C5940100B9940100CDEC0100CDEC010034
:1000B000CDEC0100CDEC0100CDEC01006D50010054
:1000C000CDEC01008D4F0100CDEC0100ED4E0100A3
:1000D000CDEC0100114E0100CDEC0100CDEC010092
:1000E000CDEC0100CDEC0100CDEC0100CDEC010028
:1000F000CDEC0100CDEC0100CDEC0100CDEC010018
:100100007DF7010069F7010055F7010041F7010093
:10011000CDEC01004D510100CDEC0100CDEC010012
:10012000CDEC0100CDEC0100CDEC0100CDEC0100E7
:10013000CDEC0100CDEC0100CDEC0100CDEC0100D7
:10014000A5510200CDEC0100714D0100CDEC010084
:10015000CDEC0100CDEC0100CDEC0100CDEC0100B7
:10016000CDEC0100CDEC0100AD940100CDEC01001F
:10017000CDEC0100CDEC0100CDEC0100CDEC010097
:10018000CDEC0100CDEC0100CDEC0100CDEC010087
:10019000CDEC0100CDEC0100C54C0100CDEC01001F
:1001A000CDEC0100CDEC0100CDEC0100CDEC010067
:1001B000CDEC0100CDEC0100CDEC0100CDEC010057
:1001C000CDEC0100CDEC0100CDEC0100CDEC010047
:1001D00008B5624B4CF220521A804DF628121A8054
:1001E00000BF00BF102223F80E2CA3F51F43DE3BF7
:1001F0004FF030621A605A4A9A605A4ADA605A4B93
:100200004FF470021A60594B594A1A60594B1A78C8
:10021000120703D51A7842F008021A70564B574954
:10022000AA221A70564A574B8B4204D252F8040F36
:1002300043F8040BF8E7544B544900228B4202D296
:1002400043F8042BFAE75249524A002352F823009C
:1002500041F823000133742BF8D14F4B4F4A8021D2
:1002600003F8011B9342FBD14D4B494A1A604D4B99
:100270008A221A70A3F5805324225A70A0221A7081
:100280009A799507FCD59A79D406FCD4464A937995
:1002900003F00C03082BFAD1444B60221A7002338E
:1002A0001A78802AFCD1404B00221A714E225A71D2
:1002B0009A799006FCD599793B4A4906FBD53C4B87
:1002C0003C4919600821596020231370937903F089
:1002D0000C030C2BFAD1384B384A1A60384A394C87
:1002E000136813F4807303D123604FF4A853136091
:1002F000354B364A1A60002507225D6043F8042C0E
:10030000334AC3F80C2D62B61EF0E4FC22682D4B74
:10031000D2070CD52F4A30491D60156042F8041CE5
:1003200010221A6003F5805308332C4A1A602C4BB4
:100330001B785B060ED52B4A284B1168994209D1D0
:1003400024492548002323600B6041F8040C102148
:100350002160136025F08CFF06F0D6FF0E200540CB
:10036000823F04000100002B88ED00E0002008E03F
:100370000300008502D0074000E00740704EFF1FD9
:10038000600D0400703DFF1F0050FF1F4C36002021
:100390000002FF1F0000000000E400E064E400E051
:1003A00008ED00E0005006400040064001E0074034
:1003B000448004400000070304800440C01005008E
:1003C00010D0034014D0034014E000E07FA90300E4
:1003D0000000202004D0034084D2BB5EA5C3945A01
:1003E00000F007401CE00340FFFFFFFFFFFFFFFF9F
:1003F000FFFFFFFFFFFFFFFFFFFFFFFFFFFFFFFF0D
:10040000FFFFFFFFFFFFFFFFFFFFFFFFDEF9FFFF23
:1004100010B5054C237833B9044B13B10448AFF33E
:1004200000800123237010BD0050FF1F000000005A
:10043000640D0400084B10B51BB108490848AFF320
:1004400000800848036803B910BD074B002BFBD0A0
:10045000BDE81040184700BF000000000450FF1F17
:10046000640D0400704EFF1F000000002DE980485D
:10047000484B9BB01B680993099A00E021DF454B6C
:100480001B680893089B9B1AB3F5FA6FF6DBDFF83D
:1004900018B1DFED419A9FED418ADFED418A414B72
:1004A0001B68092B01F25680DFE813F040020405B7
:1004B0008A0013000A00F203EE02A704D001D00163
:1004C00014F0B6FA9BF86820002AE8D024F086F9E8
:1004D000E1E7BBF90C20009200221146BBF90A307B
:1004E00001923148314D324C09F002FD4FF6E07275
:1004F000012305203521CBF81C50ABF81420ABF8B4
:1005000012208BF816308BF81730ABF80E00ABF8D2
:100510001010254D14F8011B28461EF0C9FD254B6F
:100520009C42F6D10D2128461EF0C2FD0A21284624
:100530001EF0BEFD204C05225A23EA812B821A4D63
:1005400014F8011B28461EF0B3FD1C4B9C42F6D14B
:100550000D2128461EF0ACFD0A2128461EF0A8FDFC
:1005600095F868201AB124F039F995F86820094BFC
:100570001B680B930B9900E021DF064B1B680A9365
:100580000A9B5B1AB3F57A7FF6DB064900230B6002
:100590009AE700BF380D002017B7D1380000C842D5
:1005A0000000BC42E419002004FDFF1F54D30200E8
:1005B000B0F20200BDF20200C0F20200CDF2020071
:1005C000BBF90C20009200221146BBF90A300192BF
:1005D0009448954D954C09F08BFC4FF6E072012341
:1005E00005203521CBF81C50ABF80E00ABF81010ED
:1005F000ABF81420ABF812208BF816308BF81730BC
:10060000884D14F8011B28461EF052FD884B9C4271
:10061000F6D10D2128461EF04BFD0A2128461EF07A
:1006200047FD6A89143A12B24FF478433C210A20FC
:1006300024F006F87F4B1A887F4BEB61931E99B22A
:100640004E204FF6E07300248A422882EC81AB8270
:100650006B827A4841F26D84794B1A68131A794A91
:100660009B1002FB0313784A83FB02455919DA17E2
:10067000C2EB612240F2E73101FB123303EB83034B
:1006800000EB8301043150F823300C930DA81FF0C8
:1006900013FC0C9A002AC1F2588442F007803023E0
:1006A0008DF86530212111AB5D180ED02229C1F1E2
:1006B00021060AD02C4614F8011B5A481EF0F8FCFB
:1006C000C4F101033344DD42F5D10D2155481EF03C
:1006D000EFFC0A2153481EF0EBFC0D982CF05CFD5A
:1006E000544B56481A88931E99B22323ABF80E3008
:1006F0004E23ABF810308A424FF6FF73ABF814303C
:10070000ABF8123041F20B844D4B1A68131A4D4A64
:100710009B1002FB03134C4A83FB02455919DA175D
:10072000C2EB612240F2E73101FB123303EB83039A
:1007300000EB8301043150F823300C930DA81FF017
:10074000BBFBDDF83C90B9F1000F00F015874FF0CE
:1007500000084C46A045C246324E60D2C8EB0404A5
:10076000202C0D9928BF20242246414411A82CF0AA
:10077000BDFD1AAB1C4404F824AC4F46202F28BF03
:10078000202711ABB844C7EB09091D461F44BD42E1
:100790003ED0DBF81C0015F8013B002800F0B184C6
:1007A0000A2B00F05D840D2BF1D0047AA342EED326
:1007B000427A9A42EBD342681C1BE4B202EBC404B7
:1007C000A278D2B1E178C1B1717E002940F0F885FC
:1007D000B6F90E200492F07DB6F9102096F816C0F6
:1007E0000499BBF814E00390BBF81200CDF808C0E0
:1007F0008DE801400B4823F07DF82179BBF80E30DD
:100800009BF81620BD4201FB0233ABF80E30C0D17D
:10081000B9F1000F00F0B0860F9CA0459ED38DF873
:1008200044A0AAE704FDFF1F60D30200A8F2020063
:10083000ADF20200BCFAFF1FC0FC0200A8ACFF1F13
:10084000B4FAFF1FCDCCCCCC210534830024BBF9F6
:100850000C20BBF90A3000922146224601948248BE
:1008600009F046FB814BABF80E401D68804CCBF87D
:100870001C404FF6E072012335212846ABF81420C6
:10088000ABF812208BF816308BF81730ABF810103D
:1008900029F096FA044630B115F8011B72481EF093
:1008A00007FC013CF8D1704C0D2120461EF000FCE5
:1008B00020460A211EF0FCFB6E4B1B68082B01F042
:1008C000CC86BBF80A20143A12B24FF478433E218A
:1008D0000A2023F0B5FE684B1D6805214FF6FF7313
:1008E0005A222846ABF81430ABF81230ABF80E1091
:1008F000ABF8102029F064FA044630B115F8011B5A
:1009000059481EF0D5FB013CF8D1574C0D2120462B
:100910001EF0CEFB20460A211EF0CAFB554B1B6879
:10092000092B01F0408694F86820CDE5534B544ADA
:100930001B680793079B12689B1AB3F52F7F3FF63E
:10094000BFAD0024BBF90C20BBF90A300092214650
:1009500022464548019409F0CBFA4A4B4448D3F863
:100960000890ABF80E404FF6E07201233521CBF82A
:100970001C00ABF81010ABF81420ABF812208BF869
:1009800016308BF81730B9F1000F01F06A84A046D9
:10099000A2464C46A045344F62D23A4BC8EB040401
:1009A0001968202C28BF20242246414411A82CF08D
:1009B0009DFC1AAB1C4404F824AC4E46202E28BFE4
:1009C000202611ABB044C6EB09091D461E44B542B2
:1009D0003ED0DBF81C0015F8013B002800F05B84DA
:1009E0000A2B00F04E840D2BF1D0027A9342EED305
:1009F000417A9942EBD39A1A4168D2B201EBC20410
:100A0000A278D2B1E178C1B1797E002941F0698242
:100A1000B7F90E200492F87DB7F9102097F816C0A8
:100A20000499BBF814E00390BBF81200CDF808C09D
:100A30008DE801400C4822F05DFF2179BBF80E30B3
:100A40009BF81620B54201FB0233ABF80E30C0D143
:100A5000B9F1000F01F005840A4B9C68A0459CD3B6
:100A60008DF844A0A9E700BF04FDFF1FB044FF1F9D
:100A700054D30200B844FF1FB444FF1F380D0020B8
:100A8000EC1900208CFDFF1FBBF90C200092002206
:100A90001146BBF90A3001927748784D784C09F03D
:100AA00027FA4FF6E072012305203521CBF81C50C0
:100AB000ABF80E00ABF81010ABF81420ABF8122016
:100AC0008BF816308BF817306B4D14F8011B284645
:100AD0001EF0EEFA6B4B9C42F6D10D2128461EF01B
:100AE000E7FA0A2128461EF0E3FA6A89143A12B29C
:100AF0004FF478433C210A2023F0A2FD624B196891
:100B0000624BEB6151F8043B0C934E224FF6E073BD
:100B100000242A820DA8EC81AB826B821FF0CCF9F5
:100B20000C9AA242C1F2748241F0888530238DF87C
:100B30006530212111AB5D180ED02229C1F12106AB
:100B40000AD02C4614F8011B4B481EF0B1FAC4F130
:100B500001033344DD42F5D10D2147481EF0A8FAC8
:100B60000A2145481EF0A4FA0D982CF015FB464BBF
:100B7000196851F8043B0C9323234E22ABF80E3036
:100B80000DA84FF6FF73ABF81020ABF81430ABF89C
:100B900012301FF091F9DDF83C90B9F1000F01F02F
:100BA00021804FF000084C46A045C246324E60D22C
:100BB000C8EB0404202C0D9928BF20242246414470
:100BC00011A82CF093FB1AAB1C4404F824AC4F463C
:100BD000202F28BF202711ABB844C7EB09091D46B9
:100BE0001F44AF423ED0DBF81C0015F8013B002843
:100BF00000F0F8820A2B00F02A820D2BF1D0047A43
:100C0000A342EED3427A9A42EBD342681C1BE4B271
:100C100002EBC404A278D2B1E178C1B1717E00299F
:100C200040F08C83B6F90E200492F07DB6F91020C6
:100C300096F816C00499BBF814E00390BBF81200B4
:100C4000CDF808C08DE801400B4822F053FE217911
:100C5000BBF80E309BF81620AF4201FB0233ABF815
:100C60000E30C0D1B9F1000F00F0BC870F9CA04539
:100C70009ED38DF844A0AAE704FDFF1F60D30200B5
:100C8000E0F20200E7F20200B8FAFF1FC0FC020027
:100C90000025BBF90C20BBF90A30009229462A46F0
:100CA0007B48019509F024F97A4C7B48ABF80E504B
:100CB0004FF6E07201233521CBF81C00ABF814206D
:100CC000ABF812208BF816308BF81730ABF81010F9
:100CD0006F4E14F8011B30461EF0EAF96F4B9C4230
:100CE000F6D10D2130461EF0E3F90A2130461EF000
:100CF000DFF97289143A12B24FF478433E210A2088
:100D000023F09EFC664BD3F8089005214FF6FF7345
:100D10005A22B3827382F1813282B9F1000F00F05E
:100D200055874FF000084C46A045C24662D25C4B46
:100D3000C8EB04041968202C28BF20242246414413
:100D400011A82CF0D3FA1AAB1C4404F824AC4F467B
:100D5000202F28BF202711ABB844C7EB09091D4637
:100D60001F44BD423ED0DBF81C0015F8013B0028B3
:100D700000F092810A2B00F086810D2BF1D0047ACD
:100D8000A342EED3427A9A42EBD342681C1BE4B2F0
:100D900002EBC404A278D2B1E178C1B1717E00291E
:100DA00040F0F882B6F90E200492F07DB6F91020DA
:100DB00096F816C00499BBF814E00390BBF8120033
:100DC000CDF808C08DE80140314822F093FD21792B
:100DD000BBF80E309BF81620BD4201FB0233ABF886
:100DE0000E30C0D1B9F1000F00F0F0862C4B9C689A
:100DF000A0459CD38DF844A0A9E7BBF90C20009234
:100E000000221146BBF90A3001922148224D254C9F
:100E100009F06EF84FF6E072012302203521CBF87D
:100E20001C50ABF80E00ABF81010ABF81420ABF868
:100E300012208BF816308BF81730154D14F8011B63
:100E400028461EF035F9184B9C42F6D10D21284654
:100E50001EF02EF90A2128461EF02AF9134C0A2208
:100E60005A23EA812B820A4D14F8011B28461EF0F2
:100E70001FF90F4B9C42F6D10D2128461EF018F9A0
:100E80000A2128461EF014F995F86820FFF71CBBCC
:100E900004FDFF1FD0F2020054D30200DCF2020076
:100EA000CCFDFF1FE8F20200F3F20200F4F20200B0
:100EB000FBF202000024BBF90C20BBF90A300092BF
:100EC00021462246C448019409F012F8C34BABF8FE
:100ED0000E401968C24B51F8042BCBF81C302D255D
:100EE0004FF6E0730DA80C92ABF81050ABF814302D
:100EF000ABF812301EF0E0FF0C9AA242C1F257800C
:100F000041F0C68330238DF86530212111AB5D1887
:100F10000ED02229C1F121060AD02C4614F8011B5B
:100F2000AD481EF0C5F8C4F101033344DD42F5D1EC
:100F30000D21A9481EF0BCF80A21A7481EF0B8F8F8
:100F40000D982CF029F9A54B196851F8043B0C9326
:100F500023232D22ABF80E300DA84FF6FF73ABF80C
:100F60001020ABF81430ABF812301EF0A5FFDDF8FE
:100F70003C90B9F1000F00F055844FF000084C464A
:100F8000A045C246944E5FD2C8EB0404202C0D99B4
:100F900028BF20242246414411A82CF0A7F91AABFF
:100FA0001C4404F824AC4F46202F28BF202711AB47
:100FB000B844C7EB09091D461F44BD423DD0DBF8CC
:100FC0001C0015F8013B002800F0D1800A2B51D0FD
:100FD0000D2BF2D0047AA342EFD3427A9A42ECD39B
:100FE00042681C1BE4B202EBC404A278D2B1E178DF
:100FF000C1B1717E002940F0B781B6F90E2004928C
:10100000F07DB6F9102096F816C00499BBF814E0EC
:101010000390BBF81200CDF808C08DE801406E487F
:1010200022F068FC2179BBF80E309BF81620BD42F7
:1010300001FB0233ABF80E30C1D1B9F1000F00F063
:10104000F1830F9CA0459FD38DF844A0ABE7A6F891
:101050000EA0827A338AF17D01FB02333382C0E530
:10106000A6F80EA0827A338AF17D01FB0233338227
:10107000FFF78DBBA6F80EA0827A338AF17D01FBC3
:101080000233338299E7A6F80EA0827A338AF17D83
:1010900001FB0233338264E60A2B00F048810D2BFA
:1010A0003FF45FAE727EB6F90E10002A00F0D480D5
:1010B00096F816E0B6F90A40062212FB0E12A2427A
:1010C00040F3A481328A96F817C0F08102EBCC027B
:1010D00012B201463282BBF81200BBF81440CDF8C0
:1010E0000CC08DE811403C4822F004FC9BF81630FF
:1010F000BBF80E2003EB430302EB4303ABF80E30C7
:101100002FE60A2B00F00B810D2B3FF440AB727ED3
:10111000B6F90E10002A00F0988096F816E0B6F99D
:101120000A40062212FB0E12A24240F36081328A6C
:1011300096F817C0F08102EBCC0212B2014632825F
:10114000BBF81200BBF81440CDF80CC08DE811407C
:10115000214822F0CFFB9BF81630BBF80E2003EBA2
:10116000430302EB4303ABF80E30FFF710BB0A2B2F
:1011700000F0CE800D2B3FF420AF727EB6F90E103A
:10118000002A77D096F816E0B6F90A40062212FB3C
:101190000E12A24240F33081328A96F817C0F081D5
:1011A00002EBCC0212B201463282BBF81200BBF84D
:1011B0001440CDF80CC08DE81140074822F09AFB8E
:1011C0009BF81630BBF80E2003EB430302EB4303FE
:1011D000ABF80E30F1E600BF04FDFF1FB8FAFF1FA9
:1011E000C0FC02000A2B00F08C800D2B3FF4F9AC00
:1011F000727EB6F90E10B2B396F816E0B6F90A4050
:10120000062212FB0E12A24240F3FB80328A96F8AD
:1012100017C0F08102EBCC0212B201463282BBF859
:101220001200BBF81440CDF80CC08DE81140CB483B
:1012300022F060FB9BF81630BBF80E2003EB430353
:1012400002EB4303ABF80E30CBE4B6F9102096F86E
:1012500017C096F816E073E7B6F9102096F817C095
:1012600096F816E037E7B6F9102096F817C096F80A
:1012700016E0D4E7B6F9102096F817C096F816E0F5
:1012800093E7A7F80EA0827A3B8AF97D01FB02332F
:101290003B82FFF79CBB0A2B00F01B860D2B3FF413
:1012A00096AB7A7EB7F90E10002A00F0EF8597F81A
:1012B00016E0B7F90A40062212FB0E12A24240F3D2
:1012C00028863A8A97F817C0F88102EBCC0212B24E
:1012D00001463A82BBF81200BBF81440CDF80CC0AE
:1012E0008DE811409D4822F005FB9BF81630BBF8B5
:1012F0000E2003EB430302EB4303ABF80E30FFF782
:1013000066BB338AF27DF08103EBC203338268E46B
:10131000338AF27DF08103EBC20333824DE6338AD8
:10132000F27DF08103EBC2033382FFF730BA338AD8
:10133000F27DF08103EBC203338212E594F90510CC
:101340000591B6F90E100491059996F816C0B6F9F4
:101350000AE00A4404990CFB021272457ADC9BF8FD
:101360001700BBF9102066E494F905100591B6F951
:101370000E100491059996F816C0B6F90AE00A44D1
:1013800004990CFB0212724555DC9BF81700BBF95F
:1013900010203BE694F905100591B6F90E10049162
:1013A000059996F816C0B6F90AE00A4404990CFBB0
:1013B000021272455EDC9BF81700BBF91020FAE4BC
:1013C00094F905100591B6F90E100491059996F857
:1013D00016C0B6F90AE00A4404990CFB02127245E1
:1013E00019DC9BF81700BBF91020FFF7FAB9B6F922
:1013F000102096F817C0A3E6B6F9102096F817C08B
:10140000D3E6B6F9102096F817C008E7B6F9102011
:1014100096F817C05FE6ABF80EA0827ABBF8101002
:101420009BF8170002FB001212B20021ABF810204B
:101430000491FFF7D6B9ABF80EA0827ABBF8101072
:101440009BF8170002FB001212B20021ABF810202B
:101450000491DBE5ABF80EA0827ABBF810109BF884
:10146000170002FB001212B20021ABF81020049109
:10147000FFF7E1BBABF80EA0827ABBF810109BF827
:10148000170002FB001212B20021ABF810200491E9
:1014900091E4334B93ED009A324B29EE299AF2EE08
:1014A0000EAAF0EE487AE9EE2A7A5E21642093EDE6
:1014B00000AA2D4BFDEEE77AD3ED00BACDED047A0C
:1014C000BDF91040294B224693ED00BA4A231BF088
:1014D00067FEABEEA99A20464A21F3EE047AB0EEFD
:1014E000687AABEE677AF0EE487AE9EE2A7ABDEEDA
:1014F000C77AFDEEE77A8DED057ACDED047ABDF978
:101500001440BDF9105023462A461BF049FEDFED7A
:10151000187AE9EE6A7A2846214640F2FF73FDEE1A
:10152000E77A2AEE29AACDED047ABDF9102023F03E
:1015300087F8DFED107AB2EE0A7AEAEE077A2146F2
:101540005E238B20FDEEE77ACDED047ABDF9102005
:101550001BF026FE9BF86820FEF7B6BF04FDFF1FB8
:10156000E042FF1FEC42FF1FE442FF1FE842FF1F63
:101570000000204200000B430D21A8481DF098FDFB
:101580000A21A6481DF094FD0D982BF005FE1721A9
:101590004FF420428DE80600BBF90A309F485522DF
:1015A000002108F0A5FC9E4B196851F8043B0C93F0
:1015B00062224FF6E07300240DA8ABF81020ABF8C0
:1015C0000E40ABF81430ABF812301EF075FC0C9ADC
:1015D000A242C0F2808541F0038030238DF865304F
:1015E000212111AB5D180ED02229C1F121060AD0AC
:1015F0002C4614F8011B89481DF05AFDC4F1010363
:101600003344DD42F5D10D2184481DF051FD0A21FE
:1016100082481DF04DFD0D982BF0BEFD804B1968E2
:1016200051F8043B0C9323236222ABF80E300DA833
:101630004FF6FF73ABF81430ABF81230ABF8102054
:101640001EF03AFC0F9B002B00F0CA804FF00009FF
:101650001C46A1459846CA46704E5CD2C9EB0404AC
:10166000202C0D9928BF20242246494411A82BF094
:101670003DFE1AAB1C4404F824AC4746202F28BF7B
:10168000202711ABB944C7EB08081D461F44BD42D3
:101690003BD0DBF81C0015F8013B002847D00A2B93
:1016A0003CD00D2BF3D0047AA342F0D3427A9A4275
:1016B000EDD342681C1BE4B202EBC404A278CAB1A9
:1016C000E178B9B1717E00296FD1B6F90E2004928C
:1016D000F07DB6F9102096F816C00499BBF814E016
:1016E0000390BBF81200CDF808C08DE801404B48CC
:1016F00022F000F92179BBF80E309BF81620BD428C
:1017000001FB0233ABF80E30C3D1B8F1000F67D044
:101710000F9CA145A2D38DF844A0AEE7A6F80EA079
:10172000827A338AF17D01FB02333382AFE70A2BE1
:1017300034D00D2BABD0727EB6F90E103AB396F8BA
:1017400016E0B6F90A40062212FB0E12A24242DD52
:10175000328A96F817C0F08102EBCC0212B2014631
:101760003282BBF81200BBF81440CDF80CC08DE8F3
:1017700011402A4822F0BEF89BF81630BBF80E2024
:1017800003EB430302EB4303ABF80E307FE7B6F9FC
:10179000102096F817C096F816E0E2E7338AF27D3B
:1017A000F08103EBC203338271E794F905100591D0
:1017B000B6F90E100491059996F816C0B6F90AE02C
:1017C0000A4404990CFB0212724518DC9BF81700BE
:1017D000BBF9102082E7B6F9102096F817C0C0E7D1
:1017E0000D210E481DF064FC0A210C481DF060FC20
:1017F0000D982BF0D1FC9BF86820FEF765BEABF886
:101800000EA0827ABBF810109BF8170002FB0012A2
:1018100012B20021ABF8102004915FE704FDFF1F16
:10182000B8FAFF1F0D21A6481DF042FC0A21A4486A
:101830001DF03EFC0D982BF0AFFC17214FF4204219
:101840008DE80600BBF90A309D483822002108F0D7
:101850004FFB9C4B196851F8043B0C9348224FF600
:10186000E07300240DA8ABF81020ABF80E40ABF8E5
:101870001430ABF812301EF01FFB0C9AA242C0F2DB
:10188000678440F0BD8630238DF86530212111AB8F
:101890005D180ED02229C1F121060AD02C4614F879
:1018A000011B87481DF004FCC4F101033344DD42F1
:1018B000F5D10D2182481DF0FBFB0A2180481DF067
:1018C000F7FB0D982BF068FC7E4B1B681A680C9296
:1018D0002322ABF80E204FF6FF72ABF81420ABF8C2
:1018E00012200CAA002448219342ABF810100D944A
:1018F0000E940F948DF8404000F0E680DA68596845
:101900000DA81EF027FADDF83C90B9F1000F00F0A9
:10191000DB80A046A2464C46A045694E5CD2C8EB8F
:101920000404202C0D9928BF20242246414411A8EC
:101930002BF0DCFC1AAB1C4404F824AC4F46202FDF
:1019400028BF202711ABB844C7EB09091D461F4427
:10195000BD423BD0DBF81C0015F8013B002847D006
:101960000A2B3CD00D2BF3D0047AA342F0D3427A59
:101970009A42EDD342681C1BE4B202EBC404A27885
:10198000CAB1E178B9B1717E00296FD1B6F90E20E4
:101990000492F07DB6F9102096F816C00499BBF8B1
:1019A00014E00390BBF81200CDF808C08DE80140A8
:1019B000434821F09FFF2179BBF80E309BF8162099
:1019C000BD4201FB0233ABF80E30C3D1B9F1000FB9
:1019D0007AD00F9CA045A2D38DF844A0AEE7A6F81C
:1019E0000EA0827A338AF17D01FB02333382AFE7A6
:1019F0000A2B34D00D2BABD0727EB6F90E103AB351
:101A000096F816E0B6F90A40062212FB0E12A24220
:101A100042DD328A96F817C0F08102EBCC0212B296
:101A200001463282BBF81200BBF81440CDF80CC05E
:101A30008DE81140224821F05DFF9BF81630BBF87D
:101A40000E2003EB430302EB4303ABF80E307FE7BA
:101A5000B6F9102096F817C096F816E0E2E7338A38
:101A6000F27DF08103EBC203338271E794F9051034
:101A70000591B6F90E100491059996F816C0B6F9BD
:101A80000AE00A4404990CFB0212724509DC9BF837
:101A90001700BBF9102082E7B6F9102096F817C09E
:101AA000C0E7ABF80EA0827ABBF810109BF81700C5
:101AB00002FB001212B20021ABF8102004916EE775
:101AC00004FDFF1FB4FAFF1F0D21B5481DF0F0FA09
:101AD0000A21B3481DF0ECFA0D982BF05DFBB14BD9
:101AE000B1481A8862230024ABF81030012A4FF65F
:101AF000E073ABF80E40ABF81430ABF8123040F2A4
:101B00005983AA4BAA4A1B681B1A9B1002FB03F3BA
:101B1000A84A013383FB0267D919DA17C2EB6122A5
:101B200040F2E73101FB123303EB830300EB830147
:101B3000043150F823300C930DA81EF0BDF90C9A17
:101B4000A242C0F2568340F0BF8530238DF8653045
:101B500000260DF165052C4614F8011B90481DF078
:101B6000A7FAC4F101033344DD42F5D10D218C48BD
:101B70001DF09EFA0A218A481DF09AFA0D982BF062
:101B80000BFB884B864C1A8887482323ABF80E3012
:101B90006223ABF81030012A4FF6FF73ABF8143014
:101BA000ABF8123000F27A81834B196851F8043B8C
:101BB000119312A81EF080F912A81FF09DFF129831
:101BC0002BF0EAFA94F86820FEF77EBC0D217448E9
:101BD0001DF06EFA0A2172481DF06AFA9BF868201F
:101BE000FEF772BC0D216E481DF062FA0A216C48A6
:101BF0001DF05EFA0D982BF0CFFA17214FF420421A
:101C00008DE80600BBF90A3065485522002108F02E
:101C10006FF9664B196851F8043B0C9362224FF63A
:101C2000E07300240DA8ABF81020ABF80E40ABF821
:101C30001430ABF812301EF03FF90C9AA242C0F2F9
:101C4000198240F0EC8430238DF86530212111ABEE
:101C50005D180ED02229C1F121060AD02C4614F8B5
:101C6000011B4F481DF024FAC4F101033344DD4247
:101C7000F5D10D214A481DF01BFA0A2148481DF0F4
:101C800017FA0D982BF088FA484B196851F8043B65
:101C90000C9323236222ABF80E300DA84FF6FF738E
:101CA000ABF81020ABF81430ABF812301EF004F98A
:101CB000DDF83C90B9F1000F3FF492AD4FF0000811
:101CC0004C46A045C246364E5DD2C8EB0404202CDB
:101CD0000D9928BF20242246414411A82BF006FB71
:101CE0001AAB1C4404F824AC4F46202F28BF2027F1
:101CF00011ABB844C7EB09091D461F44BD423BD098
:101D0000DBF81C0015F8013B002857D00A2B3DD00A
:101D10000D2BF3D0047AA342F0D3427A9A42EDD34A
:101D200042681C1BE4B202EBC404A278CAB1E17899
:101D3000B9B1717E00297FD1B6F90E200492F07DF1
:101D4000B6F9102096F816C00499BBF814E0039079
:101D5000BBF81200CDF808C08DE80140104821F012
:101D6000C9FD2179BBF80E309BF81620BD4201FB5E
:101D70000233ABF80E30C3D1B9F1000F3FF430ADF0
:101D80000F9CA045A1D38DF844A0ADE7A6F80EA006
:101D9000827A338AF17D01FB02333382AEE700BFE2
:101DA00004FDFF1FBCFAFF1FA8ACFF1FB4FAFF1F02
:101DB000CDCCCCCC21053483B8FAFF1F0A2B34D00C
:101DC0000D2B9BD0727EB6F90E103AB396F816E042
:101DD000B6F90A40062212FB0E12A24242DD328AF6
:101DE00096F817C0F08102EBCC0212B201463282A3
:101DF000BBF81200BBF81440CDF80CC08DE81140C0
:101E0000BE4821F077FD9BF81630BBF80E2003EB9F
:101E1000430302EB4303ABF80E306FE7B6F9102033
:101E200096F817C096F816E0E2E7338AF27DF08163
:101E300003EBC203338261E794F905100591B6F90B
:101E40000E100491059996F816C0B6F90AE00A44F6
:101E500004990CFB0212724509DC9BF81700BBF9D0
:101E6000102072E7B6F9102096F817C0C0E7ABF85B
:101E70000EA0827ABBF810109BF8170002FB00122C
:101E800012B20021ABF8102004915EE7B7F91020E0
:101E900097F817C097F816E0FFF71CBA984B994AC5
:101EA0001B681B1A9B1002FB03F3974A013383FB49
:101EB0000267D919DA17C2EB612240F2E73101FB60
:101EC000123303EB830300EB8301043150F823301A
:101ED0006EE63B8AFA7DF88103EBC2033B82FEF794
:101EE00076BD94F905100591B7F90E100491059986
:101EF00097F816C0B7F90AE00A4404990CFB0212DD
:101F0000724500F366819BF81700BBF91020FEF7BD
:101F100088BDB7F9102097F817C0FFF7DBB97B4BE6
:101F200019680DA851F8043B0C931DF0C5FFFEF78E
:101F300008BC764B19680DA851F8043B0C931DF0B2
:101F4000BBFF0C9A002ABEF6A8AB6E4B5242A3FB15
:101F50000213DB0803EB8301A2EB410230328DF860
:101F60006520002B00F0D5832D25212400E00C46B0
:101F7000644AA2FB0312D20802EB8200611EA3EBAB
:101F80004003C9B21AA80844303300F8243C134671
:101F9000002AECD1002D3EF486ABA31EDBB219461D
:101FA0001AAA13442D2203F8242CFEF77CBB554BB0
:101FB0005242A3FB0213DB0803EB8301A2EB4102B5
:101FC00030328DF86520002B00F0AC83212400E036
:101FD0000C464C4AA2FB0312D20802EB8200611E9F
:101FE000A3EB4003C9B21AA80844303300F8243CDC
:101FF0001346002AECD1002D3EF488AFA31EDBB2BD
:1020000019461AAA13442D2203F8242CFEF77EBF8A
:102010003C4B5242A3FB0213DB0803EB8301A2EB10
:10202000410230328DF86520002B00F06F832D25A2
:10203000212400E00C46334AA2FB0312D20802EB33
:102040008200611EA3EB4003C9B21AA808443033D2
:1020500000F8243C1346002AECD1002D3EF46AAD72
:10206000A31EDBB219461AAA13442D2203F8242C0E
:10207000FEF760BD234B5242A3FB0213DB0803EBC8
:102080008301A2EB410230328DF86520002B00F075
:102090004F832D25212400E00C461A4AA2FB03128F
:1020A000D20802EB8200611EA3EB4003C9B21AA85A
:1020B0000844303300F8243C1346002AECD1002DAC
:1020C0003FF4C5ADA31EDBB219461AAA13442D2254
:1020D00003F8242CBBE50B4B5242A3FB0213DB0895
:1020E00003EB8301A2EB410230328DF86520002B17
:1020F00000F0FA822D2521240BE000BF04FDFF1F14
:10210000B4FAFF1FCDCCCCCC21053483B8FAFF1F25
:102110000C46BE4AA2FB0312D20802EB8200611EEB
:10212000A3EB4003C9B21AA80844303300F8243C9A
:102130001346002AECD1002D3FF453AAA31EDBB2B4
:1021400019461AAA13442D2203F8242CFFF749BA82
:10215000AE4B5242A3FB0213DB0803EB8301A2EB5D
:10216000410230328DF86520002B00F0D8822D25F9
:10217000212400E00C46A54AA2FB0312D20802EB80
:102180008200611EA3EB4003C9B21AA80844303391
:1021900000F8243C1346002AECD1002D3FF477AB25
:1021A000A31EDBB219461AAA13442D2203F8242CCD
:1021B000FFF76DBB964B196812A851F8043B1193B9
:1021C0001DF07AFE119821F079FD12982AF0E4FFB3
:1021D000D7E4ABF80EA0827ABBF810109BF817007A
:1021E00002FB001212B20021ABF810200491FEF79E
:1021F00018BC864B5242A3FB0213DB0803EB83019E
:10220000A2EB410230328DF86520002B00F08D8268
:102210002D25212400E00C467C4AA2FB0312D208A3
:1022200002EB8200611EA3EB4003C9B21AA8084466
:10223000303300F8243C1346002AECD13DB1A31EF4
:10224000DBB219461AAA13442D2203F8242C11AB31
:102250005D183FF48BAC2229C1F121067FF47BACE1
:1022600084E40D216B481CF023FF0A2169481CF00F
:102270001FFFBBF80A20143A12B24FF478433E21F4
:102280000A2022F0DDF9644B9B684FF6FF720120B3
:102290005A21ABF80E00ABF81010ABF81420ABF8D5
:1022A0001220002B00F0E4804FF000081C46A045EF
:1022B0009946C246574F5FD2574BC8EB0404196882
:1022C000202C28BF20242246414411A82BF00EF8D0
:1022D0001AAB1C4404F824AC4E46202E28BF2026FE
:1022E00011ABB044C6EB09091D461E44B5423BD0B4
:1022F000DBF81C0015F8013B002849D00A2B3ED022
:102300000D2BF3D0027A9342F0D3417A9942EDD368
:102310009A1A4168D2B201EBC204A278CAB1E1783C
:10232000B9B1797E002979D1B7F90E200492F87DF0
:10233000B7F9102097F816C00499BBF814E0039081
:10234000BBF81200CDF808C08DE80140314821F0FB
:10235000D1FA2179BBF80E309BF81620B54201FB6B
:102360000233ABF80E30C3D1B9F1000F00F080801A
:10237000294B9C68A0459FD38DF844A0ACE7A7F8F3
:102380000EA0827A3B8AF97D01FB02333B82ADE7E6
:102390000A2B34D00D2BA9D07A7EB7F90E103AB3A0
:1023A00097F816E0B7F90A40062212FB0E12A24275
:1023B0004ADD3A8A97F817C0F88102EBCC0212B2D4
:1023C00001463A82BBF81200BBF81440CDF80CC0AD
:1023D0008DE811400F4821F08DFA9BF81630BBF8BC
:1023E0000E2003EB430302EB4303ABF80E307DE713
:1023F000B7F9102097F817C097F816E0E2E73B8A84
:10240000FA7DF88103EBC2033B826FE7CDCCCCCCE5
:10241000B8FAFF1F04FDFF1F9CFDFF1F94F9051074
:102420000591B7F90E100491059997F816C0B7F900
:102430000AE00A4404990CFB0212724509DC9BF87D
:102440001700BBF9102078E7B7F9102097F817C0EC
:10245000B8E7ABF80EA0827ABBF810109BF8170013
:1024600002FB001212B20021ABF81020049164E7C5
:102470000D21B1481CF01CFE0A21AF481CF018FECB
:10248000AE4B1B68013B032B3FF664A801A252F838
:1024900023F000BF13250000D5240000A524000070
:1024A00093140000A64BD3ED001AA64BD3ED000AFF
:1024B000A54B93ED000AA54B61EEA91A93ED001A06
:1024C00060EEA90A20EE290A12F048FA9BF868206B
:1024D000FDF7FABF9E4BDFED9F7AD3ED006AB2EEB7
:1024E0000A7AE6EE877A4A235E216E20FDEEE77ACD
:1024F000CDED047ABDF9104022461AF051FE882233
:1025000020465E234A211AF04BFE9BF86820FDF717
:10251000DBBF8F4B884C93ED009AB2EE0AAAF2EE25
:102520000E7AE9EE0A7A40F2FF734A216C20FDEE42
:10253000E77A1D46CDED047ABDF9102022F080F82F
:10254000DFED847A0095E9EE0A7A204614234A22C8
:10255000FDEEE77ACDED047ABDF91060314607F063
:1025600099FEF3EE007AE9EE4A7A5E2130462B4678
:10257000FDEEE77ACDED047ABDF9102022F060F887
:10258000B5EEC09AF1EE10FA4FF04A0200954FF006
:1025900015034CBF6C218A21204607F07BFE94F87E
:1025A0006820FDF791BF8C2550264FF6FF789C27B9
:1025B0000196CDF80880009728463146482394229A
:1025C000E58126821AF024FE5421CDF80880009778
:1025D000284601915C2394221AF01AFEFEF7A3B953
:1025E0005D4BA3FB0213DB0803EB8301A2EB41026B
:1025F00030328DF86520002B00F08E8025467AE57C
:10260000554BA3FB0213DB0803EB8301A2EB410252
:1026100030328DF86520002B6FD02546A8E54E4B53
:10262000A3FB0213DB0803EB8301A2EB4102303270
:102630008DF86520002B5DD025462BE5464BA3FB8E
:102640000213DB0803EB8301A2EB410230328DF869
:102650006520002B54D02546EAE48C252A224FF62B
:10266000E0779C2601920297009628461146228226
:102670002223E58194221AF0CBFD2E2102970096A9
:1026800028460191362394221AF0C2FDFEF719B9AB
:10269000314BA3FB0213DB0803EB8301A2EB4102E6
:1026A00030328DF8652073B325468FE42A4BA3FBA7
:1026B0000213DB0803EB8301A2EB410230328DF8F9
:1026C0006520A3B1002550E4234BA3FB0213DB08D4
:1026D00003EB8301A2EB410230328DF86520002B21
:1026E0003FF436AA254694E520210B4629E5212111
:1026F000FDF7D9BF2121FFF7AABA2121FFF7C7B8FB
:102700002121FEF717BA2121FEF700BC20210B463C
:10271000A9E420210B4643E42121FEF762BF2021DA
:102720000B4640E520210B466BE420210B4689E552
:1027300020210B46C9E400BF04FDFF1FE81900205B
:10274000DC42FF1FD442FF1FD042FF1FD842FF1FB1
:102750001C50FF1F0000F642CDCCCCCC2DE9F04F31
:102760002DED048BDFF8FC93D54AD6499FEDD69A20
:10277000DFEDD68A85B00024802348460A264FF430
:10278000205789F80430C9F8004023F045FD4FF484
:1027900080632146202209F12000C9F80830C9F8D9
:1027A0001440C9F81840C9F81C40C9F80C70C9F8A1
:1027B000106023F09FFDC0202AF0E6FC2146C022D5
:1027C000054623F097FDC24BC5F8B440D96AC14A0B
:1027D000C9F85C1005F10C03C9F844300123C5F8B1
:1027E000B430C9F84830C9F85830B94BBA48DB6B37
:1027F000C5F8BC60914208BFC9F85C40934208BF6D
:1028000000232F606860C9F82050C9F84050B04DCF
:10281000C9F84C40AE48C9F86030B04CB04BEC63DE
:102820004FF0020A0025AF49C9F86430AE4BC9F831
:102830009430C162C9F85060A14AAC4989F86A5025
:10284000032689F88C5089F8985089F89A50C9F86D
:102850006CA0A748C9F8546023F0DEFC984AA3494D
:10286000A448A54C23F0D8FC954AA049A34823F0DE
:10287000D3FC934A9D49A24823F0CEFC904A9B4941
:10288000A04823F0C9FC8E4A98499F4823F0C4FC15
:102890008B4A96499D4823F0BFFC894A93499C483E
:1028A00023F0BAFC864A91499A4823F0B5FC844A41
:1028B0008E49994823F0B0FC814A8C49974823F00F
:1028C000ABFC7F4A8949964823F0A6FC7C4A87499D
:1028D000944823F0A1FC7A4A8449934823F09CFC55
:1028E000774A8249914823F097FC754A7F4990487E
:1028F00023F092FC2A4629468E4808F0CBF87A4A03
:102900008D4889F8545102F1180729462A46C9F81A
:102910005851C9F83C7108F0BDF8B9F99421874BBA
:102920008748C9F8885102F1010C134407F10C08DB
:102930002A46294640F6CC46A9F894C189F88C511C
:10294000C9F86481C9F87C31C9F88061C9F884612B
:1029500008F0A0F87B4AB9F8B831C9F8B051013392
:1029600007F11806A2F12800042106F10C08A9F8C5
:10297000B831C9F8B431C9F898614FF4803608F01D
:1029800089F87148C9F8D461C9F8D861C9F8DC611F
:10299000C9F8E061C9F8BC8121F062FD2A462946E8
:1029A0006A4808F077F82A4629466948C9F82C721F
:1029B00089F84452C9F8485208F06CF8654AC9F8D9
:1029C0005472A2F11800012189F86C52C9F87052B2
:1029D00008F060F84FF03A0EA9F8A6E24FF00E0E9C
:1029E0005D4AA9F8A8E207F130034FF0C10E4FF09D
:1029F0001C0BC9F87C32A9F8AAE24FF0005340F250
:102A0000776EA2F118000121A9F8A452C9F8AC32DE
:102A1000A9F8B0E2A9F8B2B289F8985208F03AF8E9
:102A20004FF03A0EA9F8DEE24FF00E0E4B4AA9F82D
:102A3000E0E24FF0C10E07F130014FF00053A9F86A
:102A4000E2E240F2776EC9F8B412A2F11800012157
:102A5000A9F8DC52C9F8E432A9F8E8E2A9F8EAB228
:102A600089F8D05208F016F84FF03A0EA9F816E39C
:102A70004FF00E0E3A4AA9F818E34FF0C10E07F1D5
:102A800030014FF00053A9F81AE340F2776EC9F80D
:102A9000EC12A2F118000121A9F81453C9F81C3353
:102AA000A9F820E3A9F822B389F8085307F0F2FF48
:102AB0004FF03A0EA9F84EE34FF00E0E54E000BF6F
:102AC0004C3EFF1F49340200390F8C3B08132F3D49
:102AD0000002FF1FCDEC010000D802207D2B020078
:102AE00003200038352B020004F30200B1890100F5
:102AF000DC50FF1FE450FF1F1072FF1FEC50FF1F40
:102B0000F450FF1FFC50FF1F0451FF1F0C51FF1F0B
:102B10001451FF1F1C51FF1F2451FF1F2C51FF1F79
:102B20003451FF1F3C51FF1F4451FF1F4C51FF1FE9
:102B30005451FF1F5C51FF1F8451FF1FF541ED5E93
:102B4000B851FF1F0452FF1F1452FF1F4C52FF1FAA
:102B50007452FF1FB452FF1FEC52FF1F2453FF1F7C
:102B60005C53FF1F2050FF1FED4AA9F850E34FF0C0
:102B7000C10E07F130014FF00053A9F852E340F2C3
:102B8000776EC9F82413A2F118000121A9F84C535B
:102B9000C9F85433A9F858E3A9F85AB389F840534F
:102BA00007F078FF4FF03A0EA9F886E34FF00E0ECB
:102BB000DC4AA9F888E34FF0C10E07F130014FF06D
:102BC0000053A9F88AE340F2776EC9F85C13A2F1CA
:102BD00018000121A9F88453C9F88C33A9F890E3AF
:102BE000A9F892B389F8785307F054FF4FF03A0EE2
:102BF000A9F8BEE34FF00E0ECB4AA9F8C0E34FF0A0
:102C0000C10E4FF0005307F13001A9F8C2E340F2C2
:102C1000776EC9F8C433A9F8C8E3C9F89413A2F1D0
:102C200028000421A9F8BC53A9F8CAB389F8B05305
:102C300007F030FFBD4AC9F8E463A2F1280004217F
:102C4000C9F8E863C9F8EC63C9F8F063C9F8CC8344
:102C500007F020FFB64AC9F81C64A2F1280004213D
:102C6000C9F82064C9F82464C9F82864C9F8048440
:102C700007F010FFAF4AC9F85464A2F128000421FC
:102C8000C9F85864C9F85C64C9F86064C9F83C8440
:102C900007F000FFA84AC9F88C64A2F128000421BB
:102CA000C9F89064C9F89464C9F89864C9F8748440
:102CB00007F0F0FEA14AC9F8C464A2F1280004217B
:102CC000C9F8C864C9F8CC64C9F8D064C9F8AC8440
:102CD00007F0E0FE9A4AC9F8FC64A2F1280004213A
:102CE000C9F80065C9F80465C9F80865C9F8E4843D
:102CF00007F0D0FE934AC9F83465A2F128000421F8
:102D0000C9F83865C9F83C65C9F84065C9F81C853B
:102D100007F0C0FE8C4AC9F86C65A2F128000421B6
:102D2000C9F87065C9F87465C9F87865C9F854853B
:102D300007F0B0FE854AC9F8A465A2F12800042175
:102D4000C9F8A865C9F8AC65C9F8B065C9F88C853B
:102D500007F0A0FE7E4AC9F8DC65A2F12800042134
:102D6000C9F8E065C9F8E465C9F8E865C9F8C4853B
:102D700007F090FE774AC9F81466A2F128000421F2
:102D8000C9F81866C9F81C66C9F82066C9F8FC8538
:102D900007F080FE7048C9F84C66C9F85066C9F85B
:102DA0005466C9F85866C9F8348621F059FB2A469A
:102DB00029466A4807F06EFE2A4629466848C9F83F
:102DC000A47689F8BC56C9F8C05607F063FE2A46B7
:102DD00029466448C9F8CC7689F8E456C9F8E8561B
:102DE00007F058FE2A4629465F48C9F8F47689F864
:102DF0000C57C9F8105707F04DFE2A4629465B4884
:102E0000C9F81C7789F83457C9F8385707F042FEDB
:102E10002A4629465648C9F8447789F85C57C9F8C4
:102E2000605707F037FE2A4629465248C9F86C77A2
:102E300089F88457C9F8885707F02CFE4E48C9F81E
:102E4000947789F8AC57C9F8B05721F009FB2A46A6
:102E500029464A4807F01EFE2A4629464848C9F82E
:102E6000F47789F80C58C9F8105807F013FE2A4671
:102E700029464448C9F81C7889F83458C9F83858A4
:102E800007F008FE2A4629463F48C9F8447889F8E1
:102E90005C58C9F8605807F0FDFD2A4629463B48B2
:102EA000C9F86C7889F88458C9F8885807F0F2FD99
:102EB0002A4629463648C9F8947889F8AC58C9F8A2
:102EC000B05807F0E7FD334AC9F8BC78A2F12800F2
:102ED000042189F8D458C9F8D85807F0DBFD2E4AE8
:102EE000C9F8FC68A2F128000421C9F80069C9F8F2
:102EF0000469C9F80869C9F8E48807F0CBFD274AD6
:102F0000C9F83469A2F128000421C9F83869C9F860
:102F10003C69C9F84069C9F81C8907F0BBFD3FE06E
:102F20009453FF1FCC53FF1F1454FF1F4C54FF1F1B
:102F30008454FF1FBC54FF1FF454FF1F2C55FF1F68
:102F40006455FF1F9C55FF1FD455FF1F0C56FF1FD4
:102F50004456FF1F7C56FF1F8C56FF1FC456FF1F91
:102F6000EC56FF1F1457FF1F3C57FF1F6457FF1FEE
:102F70008C57FF1FB457FF1FDC57FF1F1458FF1F4C
:102F80003C58FF1F6458FF1F8C58FF1FB458FF1F89
:102F9000DC58FF1F2C59FF1F6459FF1F9C59FF1F4E
:102FA000F44AC9F86C69A2F128000421C9F87069D3
:102FB000C9F87469C9F87869C9F8548907F06AFDD5
:102FC000ED4AC9F8A469A2F128000421C9F8A8694A
:102FD000C9F8AC69C9F8B069C9F88C8907F05AFD1D
:102FE000E64AC9F8DC69A2F128000421C9F8E069C1
:102FF000C9F8E469C9F8E869C9F8C48907F04AFD65
:10300000DF4AC9F8146AA2F128000421C9F8186A35
:10301000C9F81C6AC9F8206AC9F8FC8907F03AFDAA
:10302000D84AC9F84C6AA2F128000421C9F8506AAC
:10303000C9F8546AC9F8586AC9F8348A07F02AFDF1
:10304000D14AC9F8846AA2F128000421C9F8886A23
:10305000C9F88C6AC9F8906AC9F86C8A07F01AFD39
:10306000CA4AC9F8BC6AA2F128000421C9F8C06A9A
:10307000C9F8C46AC9F8C86AC9F8A48A07F00AFD81
:10308000C34AC9F8F46AA2F128000421C9F8F86A11
:10309000C9F8FC6AC9F8006BC9F8DC8A07F0FAFCC9
:1030A000BC4AC9F82C6BA2F128000421C9F8306B86
:1030B000C9F8346BC9F8386BC9F8148B07F0EAFC0F
:1030C000B54AC9F8646BA2F128000421C9F8686BFD
:1030D000C9F86C6BC9F8706BC9F84C8B07F0DAFC57
:1030E000AE48C9F89C6BC9F8A06BC9F8A46BC9F8C5
:1030F000A86BC9F8848B21F0CDF9A94821F0CAF951
:10310000A84821F0C7F9A84821F0C4F9A74821F040
:10311000C1F9A74821F0BEF9A64821F0BBF9A6489D
:1031200021F0B8F9A54821F0B5F9A54821F0B2F988
:1031300004F1240021F0AEF904F5187021F0AAF989
:10314000514604F5976204F29C4007F0A3FC3C371B
:10315000514604F2DC4204F59860A4F8B454C4F873
:103160009C7407F097FC514604F5A06204F2E44019
:10317000C4F8C074A4F8D85407F08CFC514604F28B
:10318000245204F5A160C4F8E474A4F8FC5407F0D8
:1031900081FC514604F5A96204F22C50C4F808756C
:1031A000A4F8205507F076FC514604F26C5204F561
:1031B000AA60C4F82C75A4F8445507F06BFC04F21F
:1031C0009C52042104F27450C4F85075A4F8685558
:1031D00007F060FC04F2D452042104F2AC50C4F8AD
:1031E0008C65C4F89065C4F89465C4F89865C4F813
:1031F000748507F04FFC04F20C62042104F2E450E1
:10320000C4F8C465C4F8C865C4F8CC65C4F8D06512
:10321000C4F8AC8507F03EFC04F24462042104F2D9
:103220001C60C4F8FC65C4F80066C4F80466C4F801
:103230000866C4F8E48507F02DFC04F27C620421E2
:1032400004F25460C4F83466C4F83866C4F83C66C6
:10325000C4F84066C4F81C8607F01CFC04F2B46293
:10326000042104F28C60C4F86C66C4F87066C4F87B
:103270007466C4F87866C4F8548607F00BFC04F250
:10328000EC62042104F2C460C4F8A466C4F8A86621
:10329000C4F8AC66C4F8B066C4F88C8607F0FAFBD4
:1032A00004F22472042104F2FC60C4F8DC66C4F861
:1032B000E066C4F8E466C4F8E866C4F8C48607F0BB
:1032C000E9FB04F25C72042104F23470C4F8146760
:1032D000C4F81867C4F81C67C4F82067C4F8FC86F3
:1032E00007F0D8FB04F29472042104F26C70C4F865
:1032F0004C67C4F85067C4F85467C4F85867C4F8FA
:10330000348707F0C7FB04F2CC72042104F2A470E6
:10331000C4F88467C4F88867C4F88C67C4F89067F9
:10332000C4F86C8707F0B6FB04F60402042104F22B
:10333000DC70C4F8BC67C4F8C067C4F8C467C4F8DC
:10334000C867C4F8A48707F0A5FB514604F64802F5
:1033500004F61400C4F8F467C4F8F867C4F8FC670E
:10336000C4F80068C4F8DC8707F094FB08F1240374
:1033700028E000BFD459FF1F0C5AFF1F445AFF1FFB
:103380007C5AFF1FB45AFF1FEC5AFF1F245BFF1F1C
:103390005C5BFF1F945BFF1FCC5BFF1FDC5BFF1FB1
:1033A000185EFF1F5460FF1F9062FF1FCC64FF1F59
:1033B0000867FF1F4469FF1F806BFF1FBC6DFF1F65
:1033C000F86FFF1FC4F81438F84BC4F82C38A3F575
:1033D0007C53183B4FF48057C4F83038F44BC4F892
:1033E0003478514604F68402C4F8383804F5056090
:1033F000C4F83C58C4F84058C4F8445807F04AFB95
:1034000008F12403C4F85038E84BC4F86838A3F531
:103410007C53183BC4F86C38E54BC4F870785146BF
:1034200004F50C62C4F8743804F68C00C4F87858BB
:10343000C4F87C58C4F8805807F02CFB08F124032A
:10344000C4F88C38D94BC4F8A438A3F57C53183B86
:10345000C4F8A838D64BC4F8AC78514604F6FC0240
:10346000C4F8B03804F6C800C4F8B458C4F8B85862
:10347000C4F8BC5807F00EFB08F12403C4F8C838A0
:10348000CA4BC4F8E038A3F57C53183BC4F8E438C1
:10349000C74BC4F8E878514604F63812C4F8EC3843
:1034A00004F60410C4F8F058C4F8F458C4F8F858F6
:1034B00007F0F0FA08F12403C4F80439BB4BC4F850
:1034C0001C39A3F57C53183BC4F82039B84BC4F819
:1034D0002479514604F67412C4F8283904F51460AE
:1034E000C4F82C59C4F83059C4F8345907F0D2FA4A
:1034F00008F12403C4F84039AC4BC4F85839A3F59B
:103500007C53183BC4F85C39A94BC4F8643904F601
:10351000A4120421C4F8607904F67C10C4F8685938
:10352000C4F86C59C4F8705907F0B4FA04F6DC1208
:10353000042104F6B410C4F89469C4F89869C4F876
:103540009C69C4F8A069C4F87C8907F0A3FA04F662
:103550001422042104F6EC10C4F8CC69C4F8D06934
:10356000C4F8D469C4F8D869C4F8B48907F092FAE9
:1035700004F64C22042104F62420C4F8046AC4F89A
:10358000086AC4F80C6AC4F8106AC4F8EC8907F039
:1035900081FA04F68422042104F65C20C4F83C6A13
:1035A000C4F8406AC4F8446AC4F8486AC4F8248A73
:1035B00007F070FA04F6BC22042104F69420C4F843
:1035C000746AC4F8786AC4F87C6AC4F8806AC4F87B
:1035D0005C8A07F05FFA04F6E422012104F6CC20AD
:1035E000C4F8AC6AC4F8B06AC4F8B46AC4F8B86A7B
:1035F000C4F8948A07F04EFA40F2776EA4F800EB14
:103600004FF0C10EA4F8FAEA4FF00E0E4FF000533F
:10361000A4F8F8EA4FF03A0E04F61C320121A4F89F
:1036200002BBC4F8FC3AA4F8F6EA08F10C03A4F8CB
:10363000F45A04F60430C4F8CC3A84F8E85A07F097
:1036400029FA4FF03A0EA4F82EEB4FF00E0E08F1C7
:103650000C03A4F830EB4FF0C10EC4F8043BA4F8FF
:1036600032EB4FF0005340F2776E04F654320121F2
:10367000A4F82C5BC4F8343BA4F838EBA4F83ABBAC
:1036800004F63C3084F8205B07F004FA4FF03A0E61
:10369000A4F866EB4FF00E0E08F10C03A4F868EBEB
:1036A0004FF0C10EC4F83C3BA4F86AEB4FF0005356
:1036B00040F2776E04F68C320121A4F8645BC4F802
:1036C0006C3BA4F870EBA4F872BB04F6743084F879
:1036D000585B07F0DFF94FF03A0EA4F89EEB4FF07D
:1036E0000E0E08F10C03A4F8A0EB4FF0C10EC4F8C5
:1036F000743BA4F8A2EB4FF0005340F2776E04F64F
:10370000C4320121A4F89C5BC4F8A43BA4F8A8EB44
:10371000A4F8AABB04F6AC3084F8905B07F0BAF9C1
:103720004FF03A0EA4F8D6EB4FF00E0E08F10C0352
:10373000A4F8D8EB4FF0C10EC4F8AC3BA4F8DAEB18
:103740004FF0005340F2776E04F6FC320121A4F8EA
:10375000D45BC4F8DC3BA4F8E0EBA4F8E2BB04F6CD
:10376000E43084F8C85B07F095F94FF03A0EA4F8FE
:103770000EEC4FF00E0E08F10C03A4F810EC4FF015
:10378000C10EC4F8E43BA4F812EC4FF0005340F231
:10379000776EA4F818ECC4F8143C04F644420421F3
:1037A000A4F80C5CA4F81ABC04E000BF00B28E04BC
:1037B00080F9855A04F61C4084F8005C07F06AF929
:1037C00004F67C42042104F65440C4F8346CC4F876
:1037D000386CC4F83C6CC4F8406CC4F81C8C07F01E
:1037E00059F904F6B442042104F68C40C4F86C6C18
:1037F000C4F8706CC4F8746CC4F8786CC4F8548C59
:1038000007F048F9514604F6F842C4F8A46CC4F82D
:10381000A86CC4F8AC6CC4F8B06C04F6C44008F1F1
:103820002406C4F88C8C07F035F9C4F8C46C674ED4
:10383000C4F8DC6CA6F57C56183EC4F8E06C644E07
:10384000C4F8E47C04F618520121C4F8E86C04F5CD
:10385000506042F2BC06C4F8EC5CC4F8F05CC4F8FA
:10386000F45CC82707F016F908F130032946C4F8BC
:10387000003DA7514FF4006204F61C5022F03AFDBF
:10388000294640F67C32534822F034FD42F29C0235
:103890004FF40073A35242F29E0242F2A20CA352D2
:1038A0004FF0F50224F80C2042F2A00242F29A01F5
:1038B000A55242F2A60242F2A40EA55242F2A8027A
:1038C0006352A55242F2AA024FF4F573A55242F296
:1038D000AC0242F29807A55242F2B00242F2AE06A2
:1038E000A55242F2B40042F2B60124F80E3042F280
:1038F000B20242F2B8034FF0000A4FF0000BE5535A
:10390000A553A55225526552E552019556465F468C
:10391000314D2CE03046394622F04AF827F0FCFBC6
:10392000019B25F8020F01339BB240F2BE511AB23F
:103930008B42019258D007EE902AB8EEE78A68EEE3
:10394000097A17EE900A22F091F941EC100B27F05A
:103950000BFC68EE287A57EC106B17EE900A22F0F9
:1039600085F941EC100B27F0FFFB5BEC10AB304608
:1039700039460022194B22F01DFA0022184B22F082
:1039800019FA002206460F46144B5046594622F0BB
:1039900011FA0022134B22F037FB02460B46304649
:1039A000394622F005F80022002306460F4627F08C
:1039B00089FB00220A4B0028ACD10022084B30467C
:1039C000394621F0F3FF27F0A7FBA9E700B28E04E8
:1039D00080F9855A2C87FF1F2A87FF1F00805B40D4
:1039E0000000E03F00000840C84EC94D42F2BA0353
:1039F00040F2BE51E15206F57F6206F6C87004211E
:103A000007F048F84FF48034A5F1D0020421A5F165
:103A1000F800C6F8E04FC6F8E44FC6F8E84FC6F81D
:103A2000EC4FC6F8C88F07F035F8BA4E45F8E04CB1
:103A3000A5F1A8020221A5F1C00045F8DC4C45F82B
:103A4000D84C45F8D44C45F8F88C002407F022F8FF
:103A5000A5F180020221A5F1980045F8C06C45F857
:103A6000A04C45F89C4C0C3607F014F80121AA48EC
:103A700045F8986C21F026FEA84BA9491A6845F82C
:103A8000784C42F400421A600A6845F8744C42F0DF
:103A900002020A601A68A34842F002021A60036830
:103AA000A34240DBA04B1B68A3423CDB9F4A4FF084
:103AB000804313601368002BFCDB9D4C9D48DFF8AE
:103AC000E8E29D499D4B9E4A9E4E9F4F41F2540C09
:103AD000C4F800C0002404600120CEF80000DFF824
:103AE000CCE2C1F800E04FF480311960974B1360CD
:103AF000974A32603C60974C3067DFF8B4E200F1DF
:103B00008E40206004F5DF34CEF8001004F5C07458
:103B10009148924947F8503C4FF4C063C6F8802062
:103B2000236003600B608E4AD9F8E4308D498E48DB
:103B30004FF4C0641460022219609A8099F8E8106A
:103B4000186101F1804101F5043140F20110A4F542
:103B50000064D880DC609A604FF4807000228D246D
:103B60000626D8829A82D8839A619E837F480A70FB
:103B70000C7099F8E8406B4B15F8701C04704FF00E
:103B800080747B481C601860614B39B979487A4968
:103B90000122D024047003F8702C0A6099F8E81010
:103BA000DFF810A205F86F2C4B119B0003F1604366
:103BB000012601F1100003F5614301F01F026F4976
:103BC0006F4C41F8204006FA02F24FF0000B1A60E9
:103BD0006C4845F86CAC0AF5167345F8683C05F876
:103BE00064BC05F863BC45F860BC05F85CBC13F028
:103BF00089FF654A65496348DFF8BC9122F00CFBF8
:103C00000AF50873624845F8543C45F858AC05F885
:103C100050BC05F84FBC45F84CBC05F848BC13F047
:103C200071FF594A59495A4822F0F6FA0AF5D873F1
:103C3000584845F8403C45F844AC05F83CBC05F80C
:103C40003BBC45F838BC05F834BC13F05BFF4E4A6A
:103C50004E49504822F0E0FA0AF5F4734E4845F810
:103C60002C3C45F830AC05F828BC05F827BC45F8D5
:103C700024BC05F820BC13F045FF434A434946489D
:103C800022F0CAFA0AF1B803444845F81C3C0AF588
:103C900024730AF5327445F8183C05F814BC05F88D
:103CA00013BC45F810BC05F80CBC13F02BFF364ACA
:103CB00036493A4822F0B0FAA4F50473384845F87A
:103CC000083C45F8044C85F800B085F801B0C5F80B
:103CD00004B085F808B013F015FF2B4A2B49304883
:103CE00022F09AFAA4F504732E48EB6004F1A803BD
:103CF0002B6185F814B085F815B0C5F818B085F8B3
:103D00001CB013F0FFFE204A204957E00883FF1F34
:103D10000094FF1F7CF302000451FF1F3C8004400D
:103D20004080044000F0024080F0024000F1024078
:103D300004F1024060F0024008F002400CF0024042
:103D400010F0024014F00240E0F002401B1F01009E
:103D5000001F1F1F88F002400CB0044018B0044040
:103D600004B00440E003FF1F22F002401B8000402B
:103D70000100009040E400E008E100E00002FF1FC5
:103D8000318701009493FF1F4C3EFF1F699600008E
:103D9000A893FF1FBC93FF1FD093FF1FE493FF1F47
:103DA000F893FF1F0C94FF1F04F00240010000076E
:103DB0008CF002405C51FF1F607AFF1FD34822F055
:103DC0002BFAA4F50473D2482B6204F1E0036B6272
:103DD00085F828B085F829B0C5F82CB085F830B042
:103DE00013F090FECB4ACC49C94822F015FAA4F54D
:103DF0000473CA486B6304F58C73AB6385F83CB0FD
:103E000085F83DB0C5F840B085F844B013F07AFEAF
:103E1000C04AC149C14822F0FFF9A4F50473C04863
:103E2000AB6404F5A873EB6485F850B085F851B025
:103E3000C5F854B085F858B013F064FEB54AB649D9
:103E4000B74822F0E9F90AF54E77A4F50473B548AE
:103E5000EB652F6685F864B085F865B0C5F868B085
:103E600085F86CB013F04EFEAA4AAB49AD4822F07B
:103E7000D3F9A4F50473AC482B6704F138036B67DE
:103E800085F878B085F879B0C5F87CB085F880B051
:103E900013F038FE9F4AA049A34822F0BDF9A4F1CF
:103EA0003803A248C5F88830A4F5EC73C5F884300F
:103EB00085F88CB085F88D60C5F890B085F894B021
:103EC00013F020FE934A9449984822F0A5F9A4F5EE
:103ED000EC739748C5F8983004F1A803C5F89C30F6
:103EE00085F8A0B085F8A160C5F8A4B085F8A8B0A1
:103EF00013F008FE874A88498D4822F08DF9A4F511
:103F0000EC738C48C5F8AC3004F58C73C5F8B03050
:103F100085F8B4B085F8B560C5F8B8B085F8BCB020
:103F200013F0F0FD7B4A7C49824822F075F9A4F534
:103F3000EC738148C5F8C030C5F8C47085F8C8B0C6
:103F400085F8C960C5F8CCB085F8D0B013F0DAFDBB
:103F5000704A7149784822F05FF9A4F5D873774820
:103F6000C5F8D430C5F8D84085F8DCB085F8DD60F8
:103F7000C5F8E0B085F8E4B013F0C4FD654A6649C1
:103F80006E4822F049F9A4F5D8736D48C5F8E830B9
:103F900004F1E003C5F8EC3085F8F0B085F8F16085
:103FA000C5F8F4B085F8F8B013F0ACFD594A5A4999
:103FB000634822F031F9A4F5D8736248C5F8FC30A3
:103FC00004F5A873C5F8003185F804B185F80561DA
:103FD000C5F808B185F80CB113F094FD4D4A4E496F
:103FE000584822F019F9A4F5D8735748C5F810318C
:103FF00004F13803C5F8143185F818B185F8196152
:10400000C5F81CB185F820B113F07CFD4249414A46
:104010004D4822F001F90AF5F5630AF5A6624B480E
:10402000C5F82831C5F8242185F82CB185F82D6113
:10403000C5F830B185F834B113F064FD3649354A1E
:10404000424822F0E9F80AF5F5630AF5CB624048E8
:10405000C5F83C31C5F8382185F840B185F841B143
:10406000C5F844B185F848B113F04CFD294A2A49F6
:10407000374822F0D1F804F56E733648C5F84C3154
:10408000A9F5C673C5F8503185F854B185F8556166
:10409000C5F858B185F85CB113F034FD1D4A1E49CE
:1040A0002C4822F0B9F804F56E732B48C5F860313E
:1040B000A9F5AA73C5F8643185F868B185F8696116
:1040C000C5F86CB185F870B113F01CFD114A1249A6
:1040D000214822F0A1F804F56E732048C5F8743128
:1040E000A9F58E73C5F8783185F87CB185F87D61C6
:1040F000C5F880B185F884B113F004FD054A06497E
:10410000164822F089F804F56E7329E00C94FF1F1D
:104110002094FF1F4C3EFF1F699600003494FF1F40
:104120004894FF1F5C94FF1F7094FF1F8494FF1F2F
:104130009894FF1FAC94FF1FC094FF1FD494FF1FDF
:10414000E894FF1FFC94FF1F1095FF1F2495FF1F8D
:104150003895FF1F4C95FF1F6095FF1F7495FF1F3B
:10416000D948C5F88831A9F1E403C5F88C3185F840
:1041700090B185F89161C5F894B185F898B113F0C4
:10418000C1FCD249D24AD0484FF0020822F044F88C
:10419000A9F5C6730AF5D762CE48C5F8A031C5F8AF
:1041A0009C2185F8A58185F8A4B1C5F8A8B185F84A
:1041B000ACB113F0A7FCC549C54AC64822F02CF89B
:1041C000A9F5AA730AF5DC62C348C5F8B43185F8CD
:1041D000B981C5F8B02185F8B8B1C5F8BCB185F88A
:1041E000C0B113F08FFCB949B94ABB4822F014F8AA
:1041F000A9F58E730AF5E162B848C5F8C83185F8AB
:10420000CD81C5F8C42185F8CCB1C5F8D0B185F809
:10421000D4B113F077FCAD49AD4AB04821F0FCFFB2
:10422000A9F1E4030AF5E662AD48C5F8DC3185F88A
:10423000E181C5F8D82185F8E0B1C5F8E4B185F889
:10424000E8B113F05FFCA24AA049A54821F0E4FFC1
:10425000A4F51273A348C5F8EC31A9F53773C5F876
:10426000F03185F8F58185F8F4B1C5F8F8B185F835
:10427000FCB113F047FC964A94499A4821F0CCFFD0
:10428000A4F512739848C5F80032A9F52973C5F84A
:10429000043285F8098285F808B2C5F80CB285F8B1
:1042A00010B213F02FFC8A4A88498F4821F0B4FFDE
:1042B000A4F512738D48C5F81432A9F51B73C5F81F
:1042C000183285F81D8285F81CB2C5F820B285F831
:1042D00024B213F017FC7E4A7C49844821F09CFFED
:1042E000A4F512738248C5F82832A9F50D73C5F8F4
:1042F0002C3285F8318285F830B2C5F834B285F8B1
:1043000038B213F0FFFB724A7049794821F084FFFC
:10431000A4F138037748C5F83C3204F6F413C5F825
:10432000403285F844B285F84562C5F848B285F850
:104330004CB213F0E7FB664A64496E4821F06CFF0B
:1043400004F5F7636C48C5F85432C5F8504285F857
:1043500058B285F85962C5F85CB285F860B213F0BE
:10436000D1FB5B4A5949644821F056FF634B6448CE
:10437000C5F86832C5F8644285F86CB285F86D629C
:10438000C5F870B285F874B213F0BCFB504A4F49BF
:104390005B4821F041FF04F59C635A48C5F8783228
:1043A00004F5A363C5F87C3285F880B285F881B244
:1043B000C5F884B285F888B213F0A4FB444A434997
:1043C000504821F029FF04F59C634F48C5F88C3212
:1043D00004F5AA63C5F8903285F894B285F895B2D1
:1043E000C5F898B285F89CB213F08CFB384A37496F
:1043F000454821F011FF04F59C634448C5F8A032FC
:1044000004F5B163C5F8A43285F8A8B285F8A9B25D
:10441000C5F8ACB285F8B0B213F074FB2C4A2B4946
:104420003A4821F0F9FE04F59C633948C5F8B432E6
:1044300004F5B863C5F8B83285F8BCB285F8BDB2EA
:10444000C5F8C0B285F8C4B213F05CFB204A1F491E
:104450002F4821F0E1FE04F59C632E48C5F8C832D0
:1044600004F5BF63C5F8CC3285F8D0B285F8D1B277
:10447000C5F8D4B285F8D8B213F044FB144A1349F6
:10448000244821F0C9FE04F59C632348C5F8DC32BA
:1044900004F5C663C5F8E03285F8E4B285F8E5B204
:1044A000C5F8E8B285F8ECB213F02CFB084A0749CE
:1044B000194821F0B1FE04F59C631848C5F8F032A4
:1044C00004F5CD632CE000BF8895FF1F69960000BE
:1044D0004C3EFF1F9C95FF1FB095FF1FC495FF1F0B
:1044E000D895FF1FEC95FF1F0096FF1F1496FF1F26
:1044F0002896FF1F3C96FF1F5096FF1F806BFF1FE3
:104500006496FF1F7896FF1F8C96FF1FA096FF1FD3
:10451000B496FF1FC896FF1FDC96FF1FF096FF1F83
:10452000C5F8F43285F8F8B285F8F9B2C5F8FCB2EE
:1045300085F800B313F0E6FAD14AD249D24821F007
:104540006BFE04F59C63D148C5F8043304F5D463CD
:10455000C5F8083385F80CB385F80DB3C5F810B36A
:1045600085F814B313F0CEFAC54AC649C74821F0FE
:1045700053FEC74BC748C5F81C3304F13803C5F8D0
:10458000183385F820B385F82163C5F824B385F87E
:1045900028B313F0B7FABA4ABA49BE4821F03CFE34
:1045A000BD4BBE48C5F83033C5F82C7385F834B31D
:1045B00085F83563C5F838B385F83CB313F0A2FA33
:1045C000AF4AB049B54821F027FEB54BB548C5F80C
:1045D000443304F1A803C5F8403385F848B385F89F
:1045E0004963C5F84CB385F850B313F08BFAA44A6D
:1045F000A449AC4821F010FEAB4BAC48C5F8583389
:1046000004F1E003C5F8543385F864B3C5F860B32A
:1046100085F85D6385F85CB313F074FA984A99499C
:10462000A24821F0F9FDA24BA248C5F86C3304F56D
:104630008C73C5F8683385F870B385F87163C5F875
:1046400074B385F878B313F05DFA8D4A8D499948B3
:1046500021F0E2FD04F5F7639748C5F87C33A9F52E
:104660003773C5F8803385F884B385F88563C5F85A
:1046700088B385F88CB313F045FA814A81498E4896
:1046800021F0CAFD04F5F7638C48C5F89033A9F50D
:104690006D73C5F8943385F898B385F89963C5F8B8
:1046A0009CB385F8A0B313F02DFA754A7549834879
:1046B00021F0B2FD04F6F4138148C5F8A433A9F53E
:1046C0003773C5F8A83385F8ACB385F8ADB3C5F832
:1046D000B0B385F8B4B313F015FA694A694978485C
:1046E00021F09AFD04F6F4137648C5F8B833A9F51D
:1046F0006D73C5F8BC3385F8C0B385F8C1B3C5F890
:10470000C4B385F8C8B313F0FDF95D4A5D496D483F
:1047100021F082FD644B6C48C5F8CC33A9F52973B0
:10472000C5F8D03385F8D4B385F8D563C5F8D8B3C8
:1047300085F8DCB313F0E6F9514A5249624821F09A
:104740006BFD594B6148C5F8E033A9F56473C5F8B2
:10475000E43385F8E8B385F8E963C5F8ECB385F888
:10476000F0B313F0CFF9464A4649584821F054FDBA
:10477000494B5748C5F8F433A9F50D73C5F8F8331C
:1047800085F8FCB385F8FDB3C5F800B485F804B42A
:1047900013F0B8F93A4A3B494D4821F03DFD3E4BF4
:1047A0004C48C5F80834A9F55B73C5F80C3485F896
:1047B00010B485F811B4C5F814B485F818B413F022
:1047C000A1F92F4A2F49434821F026FD344B424896
:1047D000C5F81C34A9F52973C5F8203485F824B42C
:1047E00085F825B4C5F828B485F82CB413F08AF9F7
:1047F000234A2449384821F00FFD294B3748C5F892
:104800003034A9F56473C5F8343485F838B485F8C4
:1048100039B4C5F83CB485F840B413F073F9184ABC
:1048200018492E4821F0F8FC194B2D48C5F844349E
:10483000A9F50D73C5F8483485F84CB485F84D6476
:10484000C5F850B485F854B413F05CF90C4A0D491E
:10485000234821F0E1FC0E4B2248C5F85834A9F555
:104860005B73C5F85C3485F860B485F86164C5F89D
:1048700064B485F868B413F045F9014A014933E09E
:104880004C3EFF1F69960000F096FF1F0497FF1F24
:104890000867FF1F1897FF1F9062FF1F2C97FF1FCD
:1048A000CC64FF1F4097FF1F5460FF1F5497FF1FEA
:1048B0004469FF1F6897FF1F7C97FF1F9097FF1F9A
:1048C000A497FF1FB897FF1FCC97FF1FE097FF1F0C
:1048D000F497FF1F0898FF1F1C98FF1F3098FF1FB9
:1048E0004498FF1F5898FF1FE24821F095FCE24BC7
:1048F000E248C5F86C34A9F55273C5F8703485F8F0
:1049000074B485F875B4C5F878B485F87CB413F040
:10491000F9F8DB4ADB49D94821F07EFCD64BDA486E
:10492000C5F88034A9F51B73C5F8843485F888B4BC
:1049300085F889B4C5F88CB485F890B413F0E2F822
:10494000CF4AD049D04821F067FCA9F55273CF482F
:10495000C5F89834CE4BC5F8943485F8A4B4C5F89E
:10496000A0B485F89D6485F89CB413F0CBF8C44AD4
:10497000C449C64821F050FCA9F51B73C548C5F8C9
:10498000AC34C34BC5F8A83485F8B0B485F8B1642D
:10499000C5F8B4B485F8B8B413F0B4F8B84AB94956
:1049A000BC4821F039FCA9F1E403BB48C5F8C03488
:1049B000A4F58C73C5F8BC3485F8C4B485F8C5B4C7
:1049C000C5F8C8B485F8CCB413F09CF8AC4AAD492E
:1049D000B14821F021FCA4F58C73B048C5F8D0345F
:1049E00085F8D984C5F8D47485F8D8B4C5F8DCB492
:1049F00085F8E0B413F086F8A848A14AA149A0F5CB
:104A0000B96721F009FCA4F58C7307F2DC50C5F8F6
:104A1000E43404F13803C5F8E83485F8ED8485F80A
:104A2000ECB4C5F8F0B485F8F4B413F06BF8944A1C
:104A3000944907F2DC5021F0EFFBA9F5C67307F5A6
:104A4000BE60C5F8FC34A4F1E003C5F8F83485F87D
:104A500000B585F801B5C5F804B585F808B513F0BB
:104A600051F8874A874907F5BE6021F0D5FBA4F1CC
:104A7000E00307F20460C5F80C35A4F13803C5F86B
:104A8000103585F8158585F814B5C5F818B585F87D
:104A90001CB513F037F87A4A7A4907F2046021F01E
:104AA000BBFBA4F1E00307F5C360C5F8203585F82A
:104AB0002985C5F8244585F828B5C5F82CB585F8AD
:104AC00030B513F01FF86E4A6E4907F5C36021F048
:104AD000A3FBA9F58E7307F22C60C5F83835A4F155
:104AE000A803C5F8343585F83CB585F83DB5C5F85B
:104AF00040B585F844B513F005F8614A614907F2FD
:104B00002C6021F089FBA4F1A80307F5C860C5F863
:104B1000483504F58C73C5F84C3585F8518585F812
:104B200050B5C5F854B585F858B512F0EBFF544AA6
:104B3000544907F5C86021F06FFB04F5A87307F22C
:104B40005460C5F86035A4F1A803C5F85C3585F854
:104B5000658585F864B5C5F868B585F86CB512F05B
:104B6000D1FF474A474907F2546021F055FBA4F1B1
:104B7000700307F5CD60C5F87035A9F5AA73C5F8BF
:104B8000743585F878B585F879B5C5F87CB585F8BC
:104B900080B512F0B7FF3A4A3A4907F5CD6021F0E7
:104BA0003BFB04F1A80307F27C60C5F88835A4F14B
:104BB0007003C5F8843585F88D8585F88CB5C5F802
:104BC00090B585F894B512F09DFF2D4A2D4907F256
:104BD0007C6021F021FB04F1E00307F5D260C5F809
:104BE0009C35A4F17003C5F8983585F8A18585F842
:104BF000A0B5C5F8A4B585F8A8B512F083FF204A82
:104C00002049274C07F5D26021F006FBA9F56D730A
:104C1000C5F8AC35A9F5377307F2A460C5F8B0350F
:104C20004FF0030385F8B53585F8B4B5C5F8B8B5C8
:104C300085F8BCB512F066FF114A124907F2A4606C
:104C400021F0EAFAA9F56473C5F8C035A9F529730E
:104C500007F5D760C5F8C4354FF0030385F8C935AB
:104C600085F8C8B5C5F8CCB585F8D0B512F04AFFBF
:104C7000034A17E05898FF1F4469FF1F6C98FF1FF5
:104C80004C3EFF1F699600008098FF1F9498FF1FFD
:104C9000806BFF1FA898FF1FBC98FF1FD098FF1FB5
:104CA000F8A4FF1FEB4907F5D76021F0B5FAA9F585
:104CB0005B73C5F8D435A9F50D7307F2CC60C5F860
:104CC000D8354FF0030385F8DD3585F8DCB5C5F838
:104CD000E0B585F8E4B512F015FFDF4ADD4907F2CB
:104CE000CC6021F099FAA9F55273C5F8E835A9F519
:104CF0001B7307F5DC60C5F8EC354FF0030385F84E
:104D0000F13585F8F0B5C5F8F4B585F8F8B512F0C9
:104D1000F9FED14ACF4907F5DC6021F07DFAA9F50B
:104D2000377307F2F460C5F8FC35C5F8009685F8CE
:104D300004B685F805B6C5F808B685F80CB612F0C5
:104D4000E1FEC54AC34907F2F46021F065FAA9F50E
:104D5000297307F5E160C5F81036A9F13C03C5F8E1
:104D6000143685F818B685F819B6C5F81CB685F856
:104D700020B612F0C7FEB84AB64907F5E16021F047
:104D80004BFAA9F5C67307F21C70C5F82436C5F8AE
:104D9000289685F82CB685F82D66C5F830B685F8C6
:104DA00034B612F0AFFEAC4AAA4907F21C7021F0EB
:104DB00033FAA9F51B7307F5E660C5F8383609F133
:104DC0003C03C5F83C3685F840B685F841B6C5F8D1
:104DD00044B685F848B612F095FE9F4A9D4907F5FE
:104DE000E66021F019FAA9F5AA7307F24470C5F834
:104DF0004C36A9F13C03C5F8503685F854B685F811
:104E00005566C5F858B685F85CB612F07BFE924A36
:104E1000904907F2447021F0FFF9A9F58E7307F568
:104E2000EB60C5F8603609F13C03C5F8643685F8D7
:104E300068B685F86966C5F86CB685F870B612F084
:104E400061FE854A834907F5EB6021F0E5F9A9F594
:104E50000D7307F26C70C5F8743609F17803C5F864
:104E6000783685F87CB685F87DB6C5F880B685F8C5
:104E700084B612F047FE784A764907F26C7021F04A
:104E8000CBF9A9F1E40307F5F060C5F8883609F11C
:104E90007803C5F88C3685F890B685F89166C5F824
:104EA00094B685F898B612F02DFE6B4A694907F55D
:104EB000F06021F0B1F9A9F13C0307F29470C5F854
:104EC0009C3609F59673C5F8A03685F8A4B685F822
:104ED000A5B6C5F8A8B685F8ACB612F013FE5E4AC2
:104EE0005C4907F2947021F097F9A9F13C0307F5AA
:104EF000F560C5F8B03609F59673C5F8B43685F88F
:104F0000B86685F8B966C5F8BCB685F8C0B612F0C3
:104F1000F9FD514A4F4907F5F56021F07DF9A9F1F6
:104F20003C0307F2BC70C5F8C43609F59673C5F8A2
:104F3000C83685F8CC8685F8CD86C5F8D0B685F814
:104F4000D4B612F0DFFD444A424907F2BC7021F0AA
:104F500063F909F5CE7307F5FA60C5F8DC36C5F8D4
:104F6000D89685F8E0B685F8E1B6C5F8E4B685F8D8
:104F7000E8B612F0C7FD384A364907F5FA6021F065
:104F80004BF909F5CE7307F2E470C5F8F036C5F8B1
:104F9000EC9685F8F46685F8F566C5F8F8B685F8F8
:104FA000FCB612F0AFFD2C4A2A4907F2E47021F05A
:104FB00033F909F5CE7307F5FF60C5F80437C5F876
:104FC000009785F8088785F80987C5F80CB785F834
:104FD00010B712F097FD204A1E4907F5FF6021F037
:104FE0001BF909F13C0307F60C00C5F8143709F565
:104FF000B273C5F8183785F81CB785F81DB7C5F822
:1050000020B785F824B712F07DFD134A114907F641
:105010000C0021F001F909F13C0307F50260C5F825
:10502000283709F5B273C5F82C3785F8306785F84D
:105030003167C5F834B785F838B712F063FD064A12
:10504000044907F5026021F0E7F809F13C0307F68F
:10505000340003E0699600004C3EFF1FC5F83C3762
:1050600009F5B273C5F8403785F8448785F8458758
:10507000C5F848B785F84CB712F044FDEA4AEB4949
:1050800007F6340021F0C8F809F1780307F6480064
:10509000C5F8503709F5EA73C5F8543785F858B79D
:1050A00085F859B7C5F85CB785F860B712F02AFDE6
:1050B000DD4ADE4907F6480021F0AEF809F1780331
:1050C00007F65C00C5F8643709F5EA73C5F8683778
:1050D00085F86C6785F86D67C5F870B785F874B7A3
:1050E00012F010FDD04AD14907F65C0021F094F887
:1050F00009F1780307F50760C5F8783709F5EA7311
:10510000C5F87C3785F8808785F88187C5F884B72E
:1051100085F888B712F0F6FCC34AC44907F5076062
:1051200021F07AF809F1B40307F68400C5F88C374A
:1051300009F50373C5F8903785F894B785F895B7E6
:10514000C5F898B785F89CB712F0DCFCB64AB749A9
:1051500007F6840021F060F809F1B40307F698001F
:10516000C5F8A03709F50373C5F8A43785F8A86713
:1051700085F8A967C5F8ACB785F8B0B712F0C2FCDE
:10518000A94AAA4907F6980021F046F809F1B403A4
:1051900007F6AC00C5F8B43709F50373C5F8B8379E
:1051A00085F8BC8785F8BD87C5F8C0B785F8C4B752
:1051B00012F0A8FC9C4A9D4907F6AC0021F02CF89F
:1051C00009F1F00307F50C60C5F8C83709F511734C
:1051D000C5F8CC3785F8D0B785F8D1B7C5F8D4B7BE
:1051E00085F8D8B712F08EFC8F4A904907F50C600D
:1051F00021F012F809F1F00307F6D400C5F8DC3706
:1052000009F51173C5F8E03785F8E46785F8E567B7
:10521000C5F8E8B785F8ECB712F074FC824A834908
:1052200007F6D40020F0F8FF09F1F00307F6E800D4
:10523000C5F8F03709F51173C5F8F43785F8F88724
:1052400085F8F987C5F8FCB785F800B812F05AFC64
:10525000754A764907F6E80020F0DEFF09F59673F7
:1052600007F6FC00C5F8043809F51F73C5F80838BF
:1052700085F80CB885F80DB8C5F810B885F814B8DD
:1052800012F040FC684A694907F6FC0020F0C4FFB0
:1052900009F5B27307F51160C5F8183809F52D73D3
:1052A000C5F81C3885F828B8C5F824B885F821B8A1
:1052B00085F820B812F026FC5B4A5C4907F51160BE
:1052C00020F0AAFF09F5CE7307F62410C5F82C3894
:1052D00009F54973C5F8303885F83CB8C5F838B8D1
:1052E00085F835B885F834B812F00CFC4E4A4F49B1
:1052F00007F6241020F090FF09F5EA7307F638103E
:10530000C5F8403809F53B73C5F8443885F850B8FE
:10531000C5F84CB885F849B885F848B812F0F2FBE2
:10532000414A424907F6381020F076FF09F5037329
:1053300007F64C10C5F8543809F55773C5F85838B6
:1053400085F864B8C5F860B885F85DB885F85CB8CC
:1053500012F0D8FB3549344A07F64C1020F05CFFB8
:1053600009F5657309F5117207F51660C5F86C3813
:105370000193C5F8682885F878B8C5F874B885F839
:1053800071B885F870B812F0BDFB274A274907F5B8
:10539000166020F041FF09F51F7307F67410C5F879
:1053A0007C3809F57373C5F8803885F88CB8C5F872
:1053B00088B885F8856885F884B812F0A3FB1A4A86
:1053C0001A4907F6741020F027FF09F52D7307F628
:1053D0008810C5F8903809F57373C5F8943885F8C6
:1053E000998885F8A0B8C5F89CB885F898B812F0E7
:1053F00089FB0D4A0D4907F6881020F00DFF09F5CD
:105400003B7307F69C10C5F8A43809F20443C5F8AD
:10541000A83885F8B4B8C5F8B0B885F8ADB885F83F
:10542000ACB812F06FFB03E04C3EFF1F6996000022
:10543000E54AE64907F69C1020F0EEFE09F54973AF
:1054400007F51B60C5F8B83809F57373C5F8BC38A3
:1054500085F8C8B8C5F8C4B885F8C1B885F8C0B82B
:1054600012F050FBD84AD94907F51B6020F0D4FE52
:1054700009F5577307F6C410C5F8CC3809F2044390
:10548000C5F8D03885F8DCB8C5F8D8B885F8D5683F
:1054900085F8D4B812F036FBCB4ACC4907F6C410D5
:1054A00020F0BAFE019BC5F8E03807F6D81009F2E3
:1054B0000443C5F8E43885F8E98885F8F0B8C5F8FC
:1054C000ECB885F8E8B812F01DFBBF4ABF4907F6F3
:1054D000D81020F0A1FE09F2744307F6EC1009F58C
:1054E0009669C5F8F43885F8FC88C5F8F89885F809
:1054F00004B9C5F800B985F8FDB812F003FBB24A4B
:10550000B24907F6EC1020F087FE07F52060C5F8D9
:105510000899C5F80C7985F818B9C5F814B985F853
:10552000116985F810B912F0EDFAA74AA74907F5F5
:10553000206020F071FEA64BC5F8203907F6142034
:10554000C5F81C9985F82CB9C5F828B985F82569DE
:1055500085F8246912F0D6FA9B4A9C4907F6142074
:1055600020F05AFEA9F13C0307F62820C5F830398F
:10557000C5F8347985F8388985F840B9C5F83CB95B
:1055800085F839B912F0BEFA8F4A904907F62820FB
:1055900020F042FEA9F13C0307F63C20C5F844394F
:1055A0008B4BC5F8483985F84C8985F854B9C5F84E
:1055B00050B985F84DB912F0A5FA834A834907F628
:1055C0003C2020F029FE07F13809814BC5F85839F5
:1055D00007F52560C5F85C9985F868B9C5F864B920
:1055E00085F8616985F860B912F08CFA7749764AD6
:1055F00007F5256020F010FE07F1600307F6642030
:10560000734AC5F870390193C5F86C2985F87CB9DF
:10561000C5F878B985F8756985F874B912F072FA29
:10562000694A6A4907F6642020F0F6FD019BC5F837
:10563000843907F67820C5F8807985F888B985F827
:1056400089B9C5F88CB985F890B912F05BFA5E4A51
:105650005E4907F6782020F0DFFD07F68C20C5F8BC
:105660009899C5F8947985F89CB985F89DB9C5F8DD
:10567000A0B985F8A4B912F045FA534A534907F680
:105680008C2020F0C9FD0AF6BC4307F52A60C5F856
:10569000AC390AF5FC63C5F8A83985F8B0B985F8C6
:1056A000B1B9C5F8B4B985F8B8B912F02BFA464AC1
:1056B000464907F52A6020F0AFFD0AF5286307F692
:1056C000B420C5F8C0390AF61803C5F8BC3985F806
:1056D000C4B985F8C5B9C5F8C8B985F8CCB912F010
:1056E00011FA394A394907F6B42020F095FD394BB3
:1056F000C5F8D43907F6C8200AF50563C5F8D039CE
:1057000085F8D8B985F8D9B9C5F8DCB985F8E0B914
:1057100012F0F8F92C4A2D4907F6C82020F07CFD3C
:105720002D4BC5F8E83907F6DC200AF68803C5F8E2
:10573000E43985F8ECB985F8EDB9C5F8F0B985F824
:10574000F4B912F0DFF9204A204907F6DC2020F0F6
:1057500063FD224BC5F8FC3907F52F600AF50C6391
:10576000C5F8F83985F800BA85F801BAC5F804BA61
:1057700085F808BA12F0C6F9134A144907F52F60E4
:1057800020F04AFD164BC5F8103A07F604300AF629
:10579000F803C5F80C3A85F814BA85F815BAC5F8B7
:1057A00018BA85F81CBA12F0ADF9074A074907F68E
:1057B000043020F031FD0B4BC5F8243A07F61830C1
:1057C0000AF5136310E000BF4C3EFF1F699600000E
:1057D000D092FF1FCC64FF1F5460FF1F4469FF1F5E
:1057E000806BFF1F9062FF1FC5F8203A85F828BA2A
:1057F00085F829BAC5F82CBA85F830BA12F082F9C2
:10580000EA4AEB4907F6183020F006FDE94BC5F8E7
:10581000383A07F62C300AF66813C5F8343A85F89A
:105820003CBA85F83DBAC5F840BA85F844BA12F0DA
:1058300069F9DE4ADE4907F62C3020F0EDFC0AF566
:10584000F47307F53460C5F8483A0AF5FC63C5F807
:105850004C3A85F850BA85F8516AC5F854BA85F8BB
:1058600058BA12F04FF9D14AD14907F5346020F007
:10587000D3FC0AF5F47307F65430C5F85C3A0AF61F
:105880001803C5F8603A85F864BA85F8656AC5F802
:1058900068BA85F86CBA12F035F9C44AC44907F6FB
:1058A000543020F0B9FC0AF5167307F66830C5F8D5
:1058B000703A0AF50563C5F8743A85F878BA85F840
:1058C000796AC5F87CBA85F880BA12F01BF9B74A34
:1058D000B74907F6683020F09FFC0AF5167307F603
:1058E0007C30C5F8843A0AF68803C5F8883A85F80A
:1058F0008CBA85F88D6AC5F890BA85F894BA12F01A
:1059000001F9AA4AAA4907F67C3020F085FC0AF57D
:10591000087307F53960C5F8983A0AF50C63C5F8BD
:105920009C3A85F8A0BA85F8A16AC5F8A4BA85F8AA
:10593000A8BA12F0E7F89D4A9D4907F5396020F0B2
:105940006BFC0AF5087307F6A430C5F8AC3A0AF602
:10595000F803C5F8B03A85F8B4BA85F8B56AC5F861
:10596000B8BA85F8BCBA12F0CDF8904A904907F65B
:10597000A43020F051FC0AF5D87307F6B830C5F80A
:10598000C03A0AF51363C5F8C43A85F8C8BA85F871
:10599000C96AC5F8CCBA85F8D0BA12F0B3F8834A10
:1059A000834907F6B83020F037FC0AF5D87307F6BC
:1059B000CC30C5F8D43A0AF66813C5F8D83A85F859
:1059C000DCBA85F8DD6AC5F8E0BA85F8E4BA12F009
:1059D00099F8764A764907F6CC3020F01DFC0AF596
:1059E000FC6307F53E60C5F8EC3A0AF5AD63C5F80F
:1059F000E83A85F8F18A85F8F0BAC5F8F4BA85F87E
:105A0000F8BA12F07FF8694A694907F53E6020F05C
:105A100003FC0AF6180307F6F430C5F8003B0AF554
:105A2000AD63C5F8FC3A85F8058B85F804BBC5F86D
:105A300008BB85F80CBB12F065F85C4A5C4907F6B8
:105A4000F43020F0E9FB0AF5B2690AF5056307F6C0
:105A50000840C5F8143B85F8198BC5F8109B85F8EC
:105A600018BBC5F81CBB85F820BB12F04BF84F4A99
:105A70004F4907F6084020F0CFFB09F53E7307F6C3
:105A80001C40C5F8283BC5F8249B85F82D8B85F86C
:105A90002CBBC5F830BB85F834BB12F033F8434A51
:105AA000434907F61C4020F0B7FBA9F1280303F592
:105AB000567309F1280907F54360C5F83C3BC5F862
:105AC000389B85F8418B85F840BBC5F844BB85F809
:105AD00048BB12F017F8354A354907F5436020F006
