:1000000000000320D10100005DED010061EC010062
:1000100061EC010061EC010061EC010061EC0100A8
:1000200061EC010061EC010061EC01005DED01009B
:100030005DED010061EC0100FD5102008550020000
:100040005DED01005DED01005DED01005DED010084
:100050005DED01005DED01005DED01005DED010074
:100060005DED01005DED01005DED01005DED010064
:100070005DED01005DED01005DED01005DED010054
:100080005DED01005DED01005DED01005DED010044
:100090005DED01005DED01005DED01005DED010034
:1000A0005D950100519501005DED01005DED0100E0
:1000B0005DED01005DED01005DED0100B14301006A
:1000C0005DED0100D14201005DED01003142010012
:1000D0005DED0100554101005DED01005DED0100A8
:1000E0005DED01005DED01005DED01005DED0100E4
:1000F0005DED01005DED01005DED01005DED0100D4
:100100000DF80100F9F70100E5F70100D1F7010052
:100110005DED0100914401005DED01005DED010028
:100120005DED01005DED01005DED01005DED0100A3
:100130005DED01005DED01005DED01005DED010093
:10014000355202005DED0100B54001005DED01009A
:100150005DED01005DED01005DED01005DED010073
:100160005DED01005DED0100459501005DED0100D3
:100170005DED01005DED01005DED01005DED010053
:100180005DED01005DED01005DED01005DED010043
:100190005DED01005DED0100094001005DED010034
:1001A0005DED01005DED01005DED01005DED010023
:1001B0005DED01005DED01005DED01005DED010013
:1001C0005DED01005DED01005DED01005DED010003
:1001D00008B5624B4CF220521A804DF628121A8054
:1001E00000BF00BF102223F80E2CA3F51F43DE3BF7
:1001F0004FF030621A605A4A9A605A4ADA605A4B93
:100200004FF470021A60594B594A1A60594B1A78C8
:10021000120703D51A7842F008021A70564B574954
:10022000AA221A70564A574B8B4204D252F8040F36
:1002300043F8040BF8E7544B544900228B4202D296
:1002400043F8042BFAE75249524A002352F823009C
:1002500041F823000133742BF8D14F4B4F4A8021D2
:1002600003F8011B9342FBD14D4B494A1A604D4B99
:100270008A221A70A3F5805324225A70A0221A7081
:100280009A799507FCD59A79D406FCD4464A937995
:1002900003F00C03082BFAD1444B60221A7002338E
:1002A0001A78802AFCD1404B00221A7150225A71D0
:1002B0009A799006FCD599793B4A4906FBD53C4B87
:1002C0003C4919600021596020231370937903F091
:1002D0000C030C2BFAD1384B384A1A60384A394C87
:1002E000136813F4807303D123604FF4A853136091
:1002F000354B364A1A60002507225D6043F8042C0E
:10030000334AC3F80C2D62B61EF02CFD22682D4B2B
:10031000D2070CD52F4A30491D60156042F8041CE5
:1003200010221A6003F5805308332C4A1A602C4BB4
:100330001B785B060ED52B4A284B1168994209D1D0
:1003400024492548002323600B6041F8040C102148
:100350002160136025F0D4FF06F0F8FF0E20054061
:10036000823F04000100002B88ED00E0002008E03F
:100370000300008502D0074000E00740704EFF1FD9
:10038000E00D0400703DFF1F0050FF1F4C360020A1
:100390000002FF1F0000000000E400E064E400E051
:1003A00008ED00E0005006400040064001E0074034
:1003B000448004400000070304800440C01007008C
:1003C00010D0034014D0034014E000E0FFE7030026
:1003D0000000202004D00340A4AAC55EA5C3945AFF
:1003E00000F007401CE00340FFFFFFFFFFFFFFFF9F
:1003F000FFFFFFFFFFFFFFFFFFFFFFFFFFFFFFFF0D
:10040000FFFFFFFFFFFFFFFFFFFFFFFFDEF9FFFF23
:1004100010B5054C237833B9044B13B10448AFF33E
:1004200000800123237010BD0050FF1F000000005A
:10043000E40D0400084B10B51BB108490848AFF3A0
:1004400000800848036803B910BD074B002BFBD0A0
:10045000BDE81040184700BF000000000450FF1F17
:10046000E40D0400704EFF1F000000002DE98048DD
:10047000484B9BB01B680993099A00E021DF454B6C
:100480001B680893089B9B1AB3F5FA6FF6DBDFF83D
:1004900018B1DFED419A9FED418ADFED418A414B72
:1004A0001B68092B01F25480DFE813F040020405B9
:1004B0008A0013000A00F203EE02A604D001D00164
:1004C00015F0DEFD9BF86820002AE8D024F0CEF974
:1004D000E1E7BBF90C20009200221146BBF90A307B
:1004E00001923148314D324C09F022FD4FF6E07255
:1004F000012305203521CBF81C50ABF81420ABF8B4
:1005000012208BF816308BF81730ABF80E00ABF8D2
:100510001010254D14F8011B28461EF011FE254B26
:100520009C42F6D10D2128461EF00AFE0A212846DB
:100530001EF006FE204C05225A23EA812B821A4D1A
:1005400014F8011B28461EF0FBFD1C4B9C42F6D103
:100550000D2128461EF0F4FD0A2128461EF0F0FD6C
:1005600095F868201AB124F081F995F86820094BB4
:100570001B680B930B9900E021DF064B1B680A9365
:100580000A9B5B1AB3F57A7FF6DB064900230B6002
:100590009AE700BF580D002017B7D1380000C842B5
:1005A0000000BC42041A002014FDFF1FD4D3020037
:1005B00030F302003DF3020040F302004DF302006D
:1005C000BBF90C20009200221146BBF90A300192BF
:1005D0009448954D954C09F0ABFC4FF6E072012321
:1005E00005203521CBF81C50ABF80E00ABF81010ED
:1005F000ABF81420ABF812208BF816308BF81730BC
:10060000884D14F8011B28461EF09AFD884B9C4229
:10061000F6D10D2128461EF093FD0A2128461EF032
:100620008FFD6A89143A12B24FF478433C210A20B4
:1006300024F04EF87F4B1A887F4BEB61931E99B2E2
:100640004E204FF6E07300248A422882EC81AB8270
:100650006B827A4841F26984794B1A68131A794A95
:100660009B1002FB0313784A83FB02455919DA17E2
:10067000C2EB612240F2E73101FB123303EB83034B
:1006800000EB8301043150F823300C930DA81FF0C8
:100690005BFC0C9A002AC1F2548442F003803023A0
:1006A0008DF86530212111AB5D180ED02229C1F1E2
:1006B00021060AD02C4614F8011B5A481EF040FDB2
:1006C000C4F101033344DD42F5D10D2155481EF03C
:1006D00037FD0A2153481EF033FD0D982CF09CFD88
:1006E000544B56481A88931E99B22323ABF80E3008
:1006F0004E23ABF810308A424FF6FF73ABF814303C
:10070000ABF8123041F207844D4B1A68131A4D4A68
:100710009B1002FB03134C4A83FB02455919DA175D
:10072000C2EB612240F2E73101FB123303EB83039A
:1007300000EB8301043150F823300C930DA81FF017
:1007400003FC0F9B002B00F015874FF000091C469F
:10075000A1459846CA46334E60D2C9EB0404202C0A
:100760000D9928BF20242246494411A82CF0FEFDF3
:100770001AAB1C4404F824AC4746202F28BF20277E
:1007800011ABB944C7EB08081D461F44BD423ED01B
:10079000DBF81C0015F8013B002800F0B1840A2B9F
:1007A00000F05D840D2BF1D0047AA342EED3427A9F
:1007B0009A42EBD342681C1BE4B202EBC404A27859
:1007C000D2B1E178C1B1717E002940F0F785B6F968
:1007D0000E200492F07DB6F9102096F816C0049908
:1007E000BBF814E00390BBF81200CDF808C08DE808
:1007F00001400C4823F0C6F82179BBF80E309BF875
:100800001620BD4201FB0233ABF80E30C0D1B8F167
:10081000000F00F0AF860F9CA1459ED38DF844A039
:10082000AAE700BF14FDFF1FE0D3020028F3020077
:100830002DF30200CCFAFF1F40FD0200B8ACFF1FF1
:10084000C4FAFF1FCDCCCCCC210534830024BBF9E6
:100850000C20BBF90A3000922146224601948248BE
:1008600009F066FB814BABF80E401D68804CCBF85D
:100870001C404FF6E072012335212846ABF81420C6
:10088000ABF812208BF816308BF81730ABF810103D
:1008900029F0D6FA044630B115F8011B72481EF053
:1008A0004FFC013CF8D1704C0D2120461EF048FC55
:1008B00020460A211EF044FC6E4B1B68082B01F0F9
:1008C000C886BBF80A20143A12B24FF478433E218E
:1008D0000A2023F0FDFE684B1D6805214FF6FF73CB
:1008E0005A222846ABF81430ABF81230ABF80E1091
:1008F000ABF8102029F0A4FA044630B115F8011B1A
:1009000059481EF01DFC013CF8D1574C0D212046E2
:100910001EF016FC20460A211EF012FC554B1B68E7
:10092000092B01F03C8694F86820CDE5534B544ADE
:100930001B680793079B12689B1AB3F52F7F3FF63E
:10094000BFAD0024BBF90C20BBF90A300092214650
:1009500022464548019409F0EBFA4A4B4448D3F843
:100960000890ABF80E404FF6E07201233521CBF82A
:100970001C00ABF81010ABF81420ABF812208BF869
:1009800016308BF81730B9F1000F01F06684A046DD
:10099000A2464C46A045344F62D23A4BC8EB040401
:1009A0001968202C28BF20242246414411A82CF08D
:1009B000DDFC1AAB1C4404F824AC4E46202E28BFA4
:1009C000202611ABB044C6EB09091D461E44B542B2
:1009D0003ED0DBF81C0015F8013B002800F05984DC
:1009E0000A2B00F04C840D2BF1D0027A9342EED307
:1009F000417A9942EBD39A1A4168D2B201EBC20410
:100A0000A278D2B1E178C1B1797E002941F0658246
:100A1000B7F90E200492F87DB7F9102097F816C0A8
:100A20000499BBF814E00390BBF81200CDF808C09D
:100A30008DE801400C4822F0A5FF2179BBF80E306B
:100A40009BF81620B54201FB0233ABF80E30C0D143
:100A5000B9F1000F01F001840A4B9C68A0459CD3BA
:100A60008DF844A0A9E700BF14FDFF1FB044FF1F8D
:100A7000D4D30200B844FF1FB444FF1F580D002018
:100A80000C1A00209CFDFF1FBBF90C2000920022D5
:100A90001146BBF90A3001927748784D784C09F03D
:100AA00047FA4FF6E072012305203521CBF81C50A0
:100AB000ABF80E00ABF81010ABF81420ABF8122016
:100AC0008BF816308BF817306B4D14F8011B284645
:100AD0001EF036FB6B4B9C42F6D10D2128461EF0D2
:100AE0002FFB0A2128461EF02BFB6A89143A12B20A
:100AF0004FF478433C210A2023F0EAFD624B196849
:100B0000624BEB6151F8043B0C934E224FF6E073BD
:100B100000242A820DA8EC81AB826B821FF014FAAC
:100B20000C9AA242C1F2708241F0848530238DF884
:100B30006530212111AB5D180ED02229C1F12106AB
:100B40000AD02C4614F8011B4B481EF0F9FAC4F1E8
:100B500001033344DD42F5D10D2147481EF0F0FA80
:100B60000A2145481EF0ECFA0D982CF055FB464B37
:100B7000196851F8043B0C9323234E22ABF80E3036
:100B80000DA84FF6FF73ABF81020ABF81430ABF89C
:100B900012301FF0D9F9DDF83C90B9F1000F01F0E7
:100BA0001F804FF000084C46A045C246324E60D22E
:100BB000C8EB0404202C0D9928BF20242246414470
:100BC00011A82CF0D3FB1AAB1C4404F824AC4F46FC
:100BD000202F28BF202711ABB844C7EB09091D46B9
:100BE0001F44AF423ED0DBF81C0015F8013B002843
:100BF00000F0F6820A2B00F029820D2BF1D0047A46
:100C0000A342EED3427A9A42EBD342681C1BE4B271
:100C100002EBC404A278D2B1E178C1B1717E00299F
:100C200040F08A83B6F90E200492F07DB6F91020C8
:100C300096F816C00499BBF814E00390BBF81200B4
:100C4000CDF808C08DE801400B4822F09BFE2179C9
:100C5000BBF80E309BF81620AF4201FB0233ABF815
:100C60000E30C0D1B9F1000F00F0BA870F9CA0453B
:100C70009ED38DF844A0AAE714FDFF1FE0D3020025
:100C800060F3020067F30200C8FAFF1F40FD020094
:100C90000025BBF90C20BBF90A30009229462A46F0
:100CA0007B48019509F044F97A4C7B48ABF80E502B
:100CB0004FF6E07201233521CBF81C00ABF814206D
:100CC000ABF812208BF816308BF81730ABF81010F9
:100CD0006F4E14F8011B30461EF032FA6F4B9C42E7
:100CE000F6D10D2130461EF02BFA0A2130461EF0B7
:100CF00027FA7289143A12B24FF478433E210A203F
:100D000023F0E6FC664B9B684FF6FF7205205A21E4
:100D1000B2827282F0813182002B00F055874FF051
:100D200000091C46A1459846CA4662D25C4BC9EBF5
:100D300004041968202C28BF20242246494411A805
:100D40002CF014FB1AAB1C4404F824AC4746202FAB
:100D500028BF202711ABB944C7EB08081D461F4424
:100D6000BD423ED0DBF81C0015F8013B002800F026
:100D700092810A2B00F086810D2BF1D0047AA342D8
:100D8000EED3427A9A42EBD342681C1BE4B202EBE8
:100D9000C404A278D2B1E178C1B1717E002940F0DB
:100DA000F782B6F90E200492F07DB6F9102096F87D
:100DB00016C00499BBF814E00390BBF81200CDF8FC
:100DC00008C08DE80140324822F0DCFD2179BBF8F3
:100DD0000E309BF81620BD4201FB0233ABF80E30FB
:100DE000C0D1B8F1000F00F0EF862D4B9C68A145F3
:100DF0009CD38DF844A0A9E7BBF90C2000920022F7
:100E00001146BBF90A3001922148234D254C09F0C7
:100E10008FF84FF6E072012302203521CBF81C50E9
:100E2000ABF80E00ABF81010ABF81420ABF81220A2
:100E30008BF816308BF81730154D14F8011B284627
:100E40001EF07EF9184B9C42F6D10D2128461EF06B
:100E500077F90A2128461EF073F9144C0A225A2306
:100E6000EA812B820A4D14F8011B28461EF068F90E
:100E70000F4B9C42F6D10D2128461EF061F90A2144
:100E800028461EF05DF995F86820FFF71DBB00BFEE
:100E900014FDFF1F50F30200D4D302005CF30200E4
:100EA000DCFDFF1F68F3020073F3020074F302001D
:100EB0007BF302000024BBF90C20BBF90A3000923E
:100EC00021462246C348019409F032F8C24BABF8E0
:100ED0000E401968C14B51F8042BCBF81C302D255E
:100EE0004FF6E0730DA80C92ABF81050ABF814302D
:100EF000ABF812301FF028F80C9AA242C1F25380CE
:100F000041F0C28330238DF86530212111AB5D188B
:100F10000ED02229C1F121060AD02C4614F8011B5B
:100F2000AC481EF00DF9C4F101033344DD42F5D1A4
:100F30000D21A8481EF004F90A21A6481EF000F968
:100F40000D982CF069F9A44B196851F8043B0C93E7
:100F500023232D22ABF80E300DA84FF6FF73ABF80C
:100F60001430ABF81230ABF810201EF0EDFF0F9BE1
:100F7000002B00F05F844FF000091C46A145984605
:100F8000CA46944E5FD2C9EB0404202C0D9928BFA9
:100F900020242246494411A82CF0E8F91AAB1C443D
:100FA00004F824AC4746202F28BF202711ABB944B2
:100FB000C7EB08081D461F44BD423DD0DBF81C00AE
:100FC00015F8013B002800F0D1800A2B51D00D2BE1
:100FD000F2D0047AA342EFD3427A9A42ECD3426829
:100FE0001C1BE4B202EBC404A278D2B1E178C1B117
:100FF000717E002940F0B681B6F90E200492F07D92
:10100000B6F9102096F816C00499BBF814E00390C6
:10101000BBF81200CDF808C08DE801406D4822F001
:10102000B1FC2179BBF80E309BF81620BD4201FBC4
:101030000233ABF80E30C1D1B8F1000F00F0FA83E3
:101040000F9CA1459FD38DF844A0ABE7A6F80EA056
:10105000827A338AF17D01FB02333382C1E5A6F83F
:101060000EA0827A338AF17D01FB02333382FFF7CF
:101070008DBBA6F80EA0827A338AF17D01FB023384
:10108000338299E7A6F80EA0827A338AF17D01FBBC
:101090000233338264E60A2B00F047810D2B3FF4C4
:1010A0005FAE727EB6F90E10002A00F0D38096F87B
:1010B00016E0B6F90A40062212FB0E12A24240F3D5
:1010C000A381328A96F817C0F08102EBCC0212B2EB
:1010D00001463282BBF81200BBF81440CDF80CC0B8
:1010E0008DE811403B4822F04DFC9BF81630BBF8D0
:1010F0000E2003EB430302EB4303ABF80E302FE665
:101100000A2B00F00A810D2B3FF440AB727EB6F93A
:101110000E10002A00F0978096F816E0B6F90A4003
:10112000062212FB0E12A24240F35F81328A96F829
:1011300017C0F08102EBCC0212B201463282BBF83A
:101140001200BBF81440CDF80CC08DE811402148C6
:1011500022F018FC9BF81630BBF80E2003EB43037B
:1011600002EB4303ABF80E30FFF710BB0A2B00F085
:10117000CD800D2B3FF420AF727EB6F90E10002A01
:1011800076D096F816E0B6F90A40062212FB0E1247
:10119000A24240F32F81328A96F817C0F08102EB09
:1011A000CC0212B201463282BBF81200BBF81440E6
:1011B000CDF80CC08DE81140064822F0E3FB9BF807
:1011C0001630BBF80E2003EB430302EB4303ABF8EE
:1011D0000E30F1E614FDFF1FC8FAFF1F40FD0200AC
:1011E0000A2B00F08C800D2B3FF4FBAC727EB6F91D
:1011F0000E10B2B396F816E0B6F90A40062212FBBA
:101200000E12A24240F3FB80328A96F817C0F0819A
:1012100002EBCC0212B201463282BBF81200BBF8DC
:101220001440CDF80CC08DE81140CB4822F0AAFB49
:101230009BF81630BBF80E2003EB430302EB43038D
:10124000ABF80E30CDE4B6F9102096F817C096F83A
:1012500016E074E7B6F9102096F817C096F816E075
:1012600038E7B6F9102096F817C096F816E0D4E7DC
:10127000B6F9102096F817C096F816E094E7A7F88C
:101280000EA0827A3B8AF97D01FB02333B82FFF795
:101290009EBB0A2B00F019860D2B3FF498AB7A7E8B
:1012A000B7F90E10002A00F0ED8597F816E0B7F9AF
:1012B0000A40062212FB0E12A24240F326863A8A08
:1012C00097F817C0F88102EBCC0212B201463A82BD
:1012D000BBF81200BBF81440CDF80CC08DE81140EB
:1012E0009D4822F04FFB9BF81630BBF80E2003EB15
:1012F000430302EB4303ABF80E30FFF768BB338ABE
:10130000F27DF08103EBC20333826AE4338AF27D1B
:10131000F08103EBC20333824EE6338AF27DF08123
:1013200003EBC2033382FFF731BA338AF27DF081D7
:1013300003EBC203338213E594F905100591B6F966
:101340000E100491059996F816C0B6F90AE00A4401
:1013500004990CFB021272457ADC9BF81700BBF96A
:10136000102068E494F905100591B6F90E10049167
:10137000059996F816C0B6F90AE00A4404990CFBE0
:101380000212724555DC9BF81700BBF910203CE6B1
:1013900094F905100591B6F90E100491059996F887
:1013A00016C0B6F90AE00A4404990CFB0212724511
:1013B0005EDC9BF81700BBF91020FBE494F90510E4
:1013C0000591B6F90E100491059996F816C0B6F974
:1013D0000AE00A4404990CFB0212724519DC9BF8DE
:1013E0001700BBF91020FFF7FBB9B6F9102096F8EB
:1013F00017C0A4E6B6F9102096F817C0D4E6B6F9DF
:10140000102096F817C008E7B6F9102096F817C014
:1014100060E6ABF80EA0827ABBF810109BF81700BC
:1014200002FB001212B20021ABF810200491FFF76A
:10143000D7B9ABF80EA0827ABBF810109BF8170052
:1014400002FB001212B20021ABF810200491DCE57F
:10145000ABF80EA0827ABBF810109BF8170002FBC5
:10146000001212B20021ABF810200491FFF7E3BB89
:10147000ABF80EA0827ABBF810109BF8170002FBA5
:10148000001212B20021ABF81020049192E4334B09
:1014900093ED009A324B29EE299AF2EE0EAAF0EE65
:1014A000487AE9EE2A7A5E21642093ED00AA2D4B5A
:1014B000FDEEE77AD3ED00BACDED047ABDF9104028
:1014C000294B224693ED00BA4A231BF0B1FEABEE46
:1014D000A99A20464A21F3EE047AB0EE687AABEE80
:1014E000677AF0EE487AE9EE2A7ABDEEC77AFDEE29
:1014F000E77A8DED057ACDED047ABDF91440BDF99A
:10150000105023462A461BF093FEDFED187AE9EED1
:101510006A7A2846214640F2FF73FDEEE77A2AEE0A
:1015200029AACDED047ABDF9102023F0D1F8DFED22
:10153000107AB2EE0A7AEAEE077A21465E238B2011
:10154000FDEEE77ACDED047ABDF910201BF070FEB8
:101550009BF86820FEF7B8BF14FDFF1FE042FF1F95
:10156000EC42FF1FE442FF1FE842FF1F0000204241
:1015700000000B430D21AD481DF0E2FD0A21AB48F0
:101580001DF0DEFD0D982BF047FE17214FF4204291
:101590008DE80600BBF90A30A4485522002108F066
:1015A000C7FCA34B196800230A68ABF80E300D93F3
:1015B0000E930F938DF840300CAB4FF6E070622421
:1015C00099420C92ABF81040ABF81400ABF8120043
:1015D00005D0CA6849680DA81EF004FC0C9A002AC0
:1015E000C0F2758540F0F88730238DF865302121F1
:1015F00011AB5D180ED02229C1F121060AD02C466C
:1016000014F8011B89481DF09BFDC4F1010333440C
:10161000DD42F5D10D2185481DF092FD0A21834858
:101620001DF08EFD0D982BF0F7FD814B196851F8D8
:10163000043B0C9323236222ABF80E300DA84FF627
:10164000FF73ABF81020ABF81430ABF812301EF07B
:101650007BFCDDF83C90B9F1000F00F0C9804FF041
:1016600000084C46A045C246704E5CD2C8EB04044C
:10167000202C0D9928BF20242246414411A82BF08C
:1016800075FE1AAB1C4404F824AC4F46202F28BF2B
:10169000202711ABB844C7EB09091D461F44BD42C2
:1016A0003BD0DBF81C0015F8013B002847D00A2B83
:1016B0003CD00D2BF3D0047AA342F0D3427A9A4265
:1016C000EDD342681C1BE4B202EBC404A278CAB199
:1016D000E178B9B1717E00296FD1B6F90E2004927C
:1016E000F07DB6F9102096F816C00499BBF814E006
:1016F0000390BBF81200CDF808C08DE801404B48BC
:1017000022F040F92179BBF80E309BF81620BD423B
:1017100001FB0233ABF80E30C3D1B9F1000F67D033
:101720000F9CA045A2D38DF844A0AEE7A6F80EA06A
:10173000827A338AF17D01FB02333382AFE70A2BD1
:1017400034D00D2BABD0727EB6F90E103AB396F8AA
:1017500016E0B6F90A40062212FB0E12A24242DD42
:10176000328A96F817C0F08102EBCC0212B2014621
:101770003282BBF81200BBF81440CDF80CC08DE8E3
:1017800011402A4822F0FEF89BF81630BBF80E20D4
:1017900003EB430302EB4303ABF80E307FE7B6F9EC
:1017A000102096F817C096F816E0E2E7338AF27D2B
:1017B000F08103EBC203338271E794F905100591C0
:1017C000B6F90E100491059996F816C0B6F90AE01C
:1017D0000A4404990CFB0212724518DC9BF81700AE
:1017E000BBF9102082E7B6F9102096F817C0C0E7C1
:1017F0000D210E481DF0A4FC0A210C481DF0A0FC90
:101800000D982BF009FD9BF86820FEF75DBEABF844
:101810000EA0827ABBF810109BF8170002FB001292
:1018200012B20021ABF8102004915FE714FDFF1FF6
:10183000C8FAFF1F0D21A1481DF082FC0A219F4814
:101840001DF07EFC0D982BF0E7FC17214FF4204291
:101850008DE80600BBF90A3098483822002108F0CC
:1018600067FB974B196851F8043B0C9348224FF6DD
:10187000E07300240DA8ABF81020ABF80E40ABF8D5
:101880001430ABF812301EF05FFB0C9AA242C0F28B
:101890005B8440F0B18630238DF86530212111AB97
:1018A0005D180ED02229C1F121060AD02C4614F869
:1018B000011B82481DF044FCC4F101033344DD42A6
:1018C000F5D10D217D481DF03BFC0A217B481DF020
:1018D00037FC0D982BF0A0FC794B196851F8043BAC
:1018E0000C9323234822ABF80E300DA84FF6FF735C
:1018F000ABF81020ABF81430ABF812301EF024FB1C
:10190000DDF83C90B9F1000F00F0DC804FF00008EA
:101910004C46A045C246694E5CD2C8EB0404202C5C
:101920000D9928BF20242246414411A82BF01EFD0A
:101930001AAB1C4404F824AC4F46202F28BF2027A4
:1019400011ABB844C7EB09091D461F44BD423BD04B
:10195000DBF81C0015F8013B002847D00A2B3CD0CF
:101960000D2BF3D0047AA342F0D3427A9A42EDD3FE
:1019700042681C1BE4B202EBC404A278CAB1E1784D
:10198000B9B1717E00296FD1B6F90E200492F07DB5
:10199000B6F9102096F816C00499BBF814E003902D
:1019A000BBF81200CDF808C08DE80140434821F093
:1019B000E9FF2179BBF80E309BF81620BD4201FBF0
:1019C0000233ABF80E30C3D1B9F1000F7AD00F9CBF
:1019D000A045A2D38DF844A0AEE7A6F80EA0827A67
:1019E000338AF17D01FB02333382AFE70A2B34D017
:1019F0000D2BABD0727EB6F90E103AB396F816E006
:101A0000B6F90A40062212FB0E12A24242DD328AC9
:101A100096F817C0F08102EBCC0212B20146328276
:101A2000BBF81200BBF81440CDF80CC08DE8114093
:101A3000224821F0A7FF9BF81630BBF80E2003EBDD
:101A4000430302EB4303ABF80E307FE7B6F91020F7
:101A500096F817C096F816E0E2E7338AF27DF08137
:101A600003EBC203338271E794F905100591B6F9CF
:101A70000E100491059996F816C0B6F90AE00A44CA
:101A800004990CFB0212724509DC9BF81700BBF9A4
:101A9000102082E7B6F9102096F817C0C0E7ABF81F
:101AA0000EA0827ABBF810109BF8170002FB001200
:101AB00012B20021ABF8102004916EE714FDFF1F55
:101AC000C4FAFF1F0D21B4481DF03AFB0A21B248A9
:101AD0001DF036FB0D982BF09FFBB04BB0481A88D9
:101AE00062230024ABF81030012A4FF6E073ABF804
:101AF0000E40ABF81430ABF8123040F25783A94BCC
:101B0000A94A1B681B1A9B1002FB03F3A74A013367
:101B100083FB0267D919DA17C2EB612240F2E73181
:101B200001FB123303EB830300EB8301043150F814
:101B300023300C930DA81EF007FA0C9AA242C0F2B3
:101B4000548340F0BD8530238DF8653000260DF1BB
:101B500065052C4614F8011B8F481DF0F1FAC4F1FD
:101B600001033344DD42F5D10D218B481DF0E8FA25
:101B70000A2189481DF0E4FA0D982BF04DFB874BA4
:101B8000854C1A8886482323ABF80E306223ABF8C5
:101B90001030012A4FF6FF73ABF81430ABF8123057
:101BA00000F27881824B196851F8043B119312A816
:101BB0001EF0CAF912A81FF0E7FF12982BF02CFBB9
:101BC00094F86820FEF780BC0D2173481DF0B8FA28
:101BD0000A2171481DF0B4FA9BF86820FEF774BC26
:101BE0000D216D481DF0ACFA0A216B481DF0A8FAD2
:101BF0000D982BF011FB17214FF420428DE80600C1
:101C0000BBF90A3064485522002108F091F9654B70
:101C1000196851F8043B0C9362224FF6E0730024DC
:101C20000DA8ABF81020ABF80E40ABF81430ABF8B1
:101C300012301EF089F90C9AA242C0F2178240F0CD
:101C4000EA8430238DF86530212111AB5D180ED068
:101C50002229C1F121060AD02C4614F8011B4E4856
:101C60001DF06EFAC4F101033344DD42F5D10D21BC
:101C700049481DF065FA0A2147481DF061FA0D98A0
:101C80002BF0CAFA474B196851F8043B0C932323F5
:101C90006222ABF80E300DA84FF6FF73ABF814308C
:101CA000ABF81230ABF810201EF04EF90F9B002B52
:101CB0003FF49EAD4FF000091C46A1459846CA4628
:101CC000354E5DD2C9EB0404202C0D9928BF202489
:101CD0002246494411A82BF049FB1AAB1C4404F8D6
:101CE00024AC4746202F28BF202711ABB944C7EBAF
:101CF00008081D461F44BD423BD0DBF81C0015F808
:101D0000013B002856D00A2B3DD00D2BF3D0047A8E
:101D1000A342F0D3427A9A42EDD342681C1BE4B24C
:101D200002EBC404A278CAB1E178B9B1717E00298E
:101D30007ED1B6F90E200492F07DB6F9102096F807
:101D400016C00499BBF814E00390BBF81200CDF85C
:101D500008C08DE80140104821F014FE2179BBF83D
:101D60000E309BF81620BD4201FB0233ABF80E305B
:101D7000C3D1B8F1000F3FF43BAD0F9CA145A1D3F7
:101D80008DF844A0ADE7A6F80EA0827A338AF17DE3
:101D900001FB02333382AEE714FDFF1FCCFAFF1FB5
:101DA000B8ACFF1FC4FAFF1FCDCCCCCC21053483C7
:101DB000C8FAFF1F0A2B34D00D2B9CD0727EB6F9C7
:101DC0000E103AB396F816E0B6F90A40062212FB56
:101DD0000E12A24242DD328A96F817C0F08102EB61
:101DE000CC0212B201463282BBF81200BBF814409A
:101DF000CDF80CC08DE81140BE4821F0C3FD9BF822
:101E00001630BBF80E2003EB430302EB4303ABF8A1
:101E10000E3070E7B6F9102096F817C096F816E065
:101E2000E2E7338AF27DF08103EBC203338262E79B
:101E300094F905100591B6F90E100491059996F8DC
:101E400016C0B6F90AE00A4404990CFB0212724566
:101E500009DC9BF81700BBF9102073E7B6F91020D6
:101E600096F817C0C0E7ABF80EA0827ABBF8101046
:101E70009BF8170002FB001212B20021ABF81020F1
:101E800004915FE7B7F9102097F817C097F816E0AC
:101E9000FFF71EBA984B994A1B681B1A9B1002FB4E
:101EA00003F3974A013383FB0267D919DA17C2EBB0
:101EB000612240F2E73101FB123303EB830300EBB5
:101EC0008301043150F8233070E63B8AFA7DF881B3
:101ED00003EBC2033B82FEF77ABD94F9051005912E
:101EE000B7F90E100491059997F816C0B7F90AE0F2
:101EF0000A4404990CFB0212724500F366819BF8B8
:101F00001700BBF91020FEF78CBDB7F9102097F829
:101F100017C0FFF7DDB97B4B19680DA851F8043BDA
:101F20000C931EF011F8FEF70CBC764B19680DA847
:101F300051F8043B0C931EF007F80C9A002ABEF6E9
:101F4000ACAB6E4B5242A3FB0213DB0803EB8301E5
:101F5000A2EB410230328DF86520002B00F0D583D2
:101F60002D25212400E00C46644AA2FB0312D2086E
:101F700002EB8200611EA3EB4003C9B21AA8084419
:101F8000303300F8243C1346002AECD1002D3EF4F7
:101F90008AABA31EDBB219461AAA13442D2203F8FA
:101FA000242CFEF780BB554B5242A3FB0213DB08E7
:101FB00003EB8301A2EB410230328DF86520002B48
:101FC00000F0AC83212400E00C464C4AA2FB031233
:101FD000D20802EB8200611EA3EB4003C9B21AA82B
:101FE0000844303300F8243C1346002AECD1002D7D
:101FF0003EF48CAFA31EDBB219461AAA13442D225D
:1020000003F8242CFEF782BF3C4B5242A3FB021381
:10201000DB0803EB8301A2EB410230328DF865202F
:10202000002B00F06F832D25212400E00C46334A5D
:10203000A2FB0312D20802EB8200611EA3EB400355
:10204000C9B21AA80844303300F8243C1346002AC9
:10205000ECD1002D3EF46EADA31EDBB219461AAAD8
:1020600013442D2203F8242CFEF764BD234B524267
:10207000A3FB0213DB0803EB8301A2EB4102303226
:102080008DF86520002B00F04F832D25212400E0E2
:102090000C461A4AA2FB0312D20802EB8200611E10
:1020A000A3EB4003C9B21AA80844303300F8243C1B
:1020B0001346002AECD1002D3FF4C7ADA31EDBB2BE
:1020C00019461AAA13442D2203F8242CBDE50B4B04
:1020D0005242A3FB0213DB0803EB8301A2EB410294
:1020E00030328DF86520002B00F0FA822D25212456
:1020F0000BE000BF14FDFF1FC4FAFF1FCDCCCCCCFA
:1021000021053483C8FAFF1F0C46BE4AA2FB031206
:10211000D20802EB8200611EA3EB4003C9B21AA8E9
:102120000844303300F8243C1346002AECD1002D3B
:102130003FF45EAAA31EDBB219461AAA13442D224D
:1021400003F8242CFFF754BAAE4B5242A3FB021300
:10215000DB0803EB8301A2EB410230328DF86520EE
:10216000002B00F0D8822D25212400E00C46A54A42
:10217000A2FB0312D20802EB8200611EA3EB400314
:10218000C9B21AA80844303300F8243C1346002A88
:10219000ECD1002D3FF483ABA31EDBB219461AAA83
:1021A00013442D2203F8242CFFF779BB964B1968B2
:1021B00012A851F8043B11931DF0C6FE119821F0AE
:1021C000C5FD12982BF028F8D9E4ABF80EA0827A5E
:1021D000BBF810109BF8170002FB001212B200218E
:1021E000ABF810200491FEF71CBC864B5242A3FBB7
:1021F0000213DB0803EB8301A2EB410230328DF8BE
:102200006520002B00F08D822D25212400E00C4656
:102210007C4AA2FB0312D20802EB8200611EA3EBF0
:102220004003C9B21AA80844303300F8243C1346CE
:10223000002AECD13DB1A31EDBB219461AAA134401
:102240002D2203F8242C11AB5D183FF48DAC22290C
:10225000C1F121067FF47DAC86E40D216B481CF0B2
:102260006FFF0A2169481CF06BFFBBF80A20143A83
:1022700012B24FF478433E210A2022F029FA644B2F
:102280009B684FF6FF7201205A21ABF80E00ABF8A5
:102290001010ABF81420ABF81220002B00F0E480F3
:1022A0004FF000081C46A0459946C246574F5FD2E2
:1022B000574BC8EB04041968202C28BF2024224661
:1022C000414411A82BF052F81AAB1C4404F824AC7A
:1022D0004E46202E28BF202611ABB044C6EB09097C
:1022E0001D461E44B5423BD0DBF81C0015F8013BEF
:1022F000002849D00A2B3ED00D2BF3D0027A93420E
:10230000F0D3417A9942EDD39A1A4168D2B201EBE7
:10231000C204A278CAB1E178B9B1797E002979D135
:10232000B7F90E200492F87DB7F9102097F816C07F
:102330000499BBF814E00390BBF81200CDF808C074
:102340008DE80140314821F01DFB2179BBF80E30AA
:102350009BF81620B54201FB0233ABF80E30C3D117
:10236000B9F1000F00F08080294B9C68A0459FD3F5
:102370008DF844A0ACE7A7F80EA0827A3B8AF97DDD
:1023800001FB02333B82ADE70A2B34D00D2BA9D0E1
:102390007A7EB7F90E103AB397F816E0B7F90A400B
:1023A000062212FB0E12A2424ADD3A8A97F817C0A3
:1023B000F88102EBCC0212B201463A82BBF812005D
:1023C000BBF81440CDF80CC08DE811400F4821F047
:1023D000D9FA9BF81630BBF80E2003EB430302EB4F
:1023E0004303ABF80E307DE7B7F9102097F817C01C
:1023F00097F816E0E2E73B8AFA7DF88103EBC20327
:102400003B826FE7CDCCCCCCC8FAFF1F14FDFF1F79
:10241000ACFDFF1F94F905100591B7F90E1004915A
:10242000059997F816C0B7F90AE00A4404990CFB1D
:102430000212724509DC9BF81700BBF9102078E7FF
:10244000B7F9102097F817C0B8E7ABF80EA0827A5A
:10245000BBF810109BF8170002FB001212B200210B
:10246000ABF81020049164E70D21B1481CF068FE20
:102470000A21AF481CF064FEAE4B1B68013B032BE6
:102480003FF666A801A252F823F000BF0B2500001A
:10249000CD2400009D2400008F140000A64BD3ED36
:1024A000001AA64BD3ED000AA54B93ED000AA54BED
:1024B00061EEA91A93ED001A60EEA90A20EE290A2E
:1024C00013F074FD9BF86820FDF7FEBF9E4BDFED17
:1024D0009F7AD3ED006AB2EE0A7AE6EE877A4A2353
:1024E0005E216E20FDEEE77ACDED047ABDF9104055
:1024F00022461AF09DFE882220465E234A211AF0C9
:1025000097FE9BF86820FDF7DFBF8F4B884C93ED5B
:10251000009AB2EE0AAAF2EE0E7AE9EE0A7A40F2D8
:10252000FF734A216C20FDEEE77A1D46CDED047A5B
:10253000BDF9102022F0CCF8DFED847A0095E9EEA9
:102540000A7A204614234A22FDEEE77ACDED047A7A
:10255000BDF91060314607F0BDFEF3EE007AE9EEFA
:102560004A7A5E2130462B46FDEEE77ACDED047ABD
:10257000BDF9102022F0ACF8B5EEC09AF1EE10FAD9
:102580004FF04A0200954FF015034CBF6C218A2191
:10259000204607F09FFE94F86820FDF795BF8C2534
:1025A00050264FF6FF789C270196CDF808800097BB
:1025B0002846314648239422E58126821AF070FE8F
:1025C0005421CDF808800097284601915C2394227D
:1025D0001AF066FEFEF7A7B95D4BA3FB0213DB08FA
:1025E00003EB8301A2EB410230328DF86520002B12
:1025F00000F08E8000257AE5554BA3FB0213DB0823
:1026000003EB8301A2EB410230328DF86520002BF1
:102610006FD02546A8E54E4BA3FB0213DB0803EB66
:102620008301A2EB410230328DF86520002B5DD092
:1026300025462BE5464BA3FB0213DB0803EB830186
:10264000A2EB410230328DF86520002B54D0254694
:10265000EAE48C252A224FF6E0779C260192029725
:1026600000962846114622822223E58194221AF000
:1026700017FE2E21029700962846019136239422B8
:102680001AF00EFEFEF71DB9314BA3FB0213DB0857
:1026900003EB8301A2EB410230328DF8652073B366
:1026A00025468FE42A4BA3FB0213DB0803EB8301CF
:1026B000A2EB410230328DF86520A3B1002550E431
:1026C000234BA3FB0213DB0803EB8301A2EB4102C4
:1026D00030328DF86520002B3FF438AA254694E56A
:1026E00020210B4629E52121FDF7DDBF2121FFF740
:1026F000ACBA2121FFF7D3B82121FEF71BBA212163
:10270000FEF704BC20210B46A9E420210B4643E43C
:102710002121FEF76DBF20210B4640E520210B460D
:102720006BE420210B4689E520210B46C9E400BF5C
:1027300014FDFF1F081A0020DC42FF1FD442FF1FB8
:10274000D042FF1FD842FF1F1C50FF1F0000F6425F
:10275000CDCCCCCCFFFFFFFF2DE9F04F2DED048B4E
:10276000DFF8F0A3D14AD249DFF8EC939FEDD19A7C
:10277000DFEDD18A85B00024802350460A264FF42D
:1027800020578AF80430CAF8004023F08DFD4FF43A
:102790008063214620220AF12000CAF80830CAF8D6
:1027A0001440CAF81840CAF81C40CAF80C70CAF89D
:1027B000106023F0E7FDC0202AF026FD2146C0224C
:1027C000054623F0DFFDBD4BC5F8B440D96ABC4ACD
:1027D000CAF85C1005F10C03CAF844300123C5F8AF
:1027E000B430CAF84830CAF85830B44BB548DB6B3F
:1027F000C5F8BC60914208BFCAF85C40934208BF6C
:1028000000232F606860CAF82050CAF84050AB4DD2
:10281000CAF84C40A948CAF86030AB4CAB4BEC63EB
:10282000AB49CAF864300024AA4BCAF89430022598
:10283000C162CAF850609D4AA749CAF86C50032685
:10284000A6488AF86A408AF88C408AF898408AF844
:102850009A40CAF8546023F027FD944A9E49A04844
:1028600023F022FD914A9C499E4823F01DFD8F4A8A
:1028700099499D4823F018FD8C4A97499B4823F0BD
:1028800013FD8A4A94499A4823F00EFD874A9249DB
:10289000984823F009FD854A8F49974823F004FDA5
:1028A000824A8D49954823F0FFFC804A8A49944822
:1028B00023F0FAFC7D4A8849924823F0F5FC7B4AD4
:1028C0008549914823F0F0FC784A83498F4823F0EA
:1028D000EBFC764A80498E4823F0E6FC734A7E4939
:1028E0008C4823F0E1FC714A7B498B4823F0DCFCE7
:1028F0006E4A7949894823F0D7FC6C4A7649884862
:1029000023F0D2FC22462146864808F0E3F8714BBA
:1029100085488AF8644103F1180722462146CAF81F
:102920004C71CAF8684108F0D5F8BAF9A4217F4B78
:102930007F48CAF8984107F10C0C02F1010E1344CC
:1029400040F6CC4622462146CAF874C1AAF8A4E152
:10295000CAF88C31CAF89061CAF894618AF89C412F
:1029600008F0B8F8734ABAF8C831CAF8C041013360
:1029700007F11806A2F12800042106F10C08AAF8B4
:10298000C831CAF8C431CAF8A8614FF4803608F0DB
:10299000A1F86948CAF8E461CAF8E861CAF8EC61CC
:1029A000CAF8F061CAF8CC8121F0A2FD2246214686
:1029B000624808F08FF8224621466148CAF83C7206
:1029C0008AF85442CAF8584208F084F85D4ACAF8B6
:1029D0006472A2F1180001218AF87C42CAF8804290
:1029E00008F078F807F13003CAF88C324FF03A0358
:1029F000AAF8B6324FF00E03AAF8B8324FF0C1036E
:102A0000514AAAF8BA324FF000534FF01C0BCAF8E3
:102A1000BC3240F27763A2F118000121AAF8C0325B
:102A2000AAF8C2B2AAF8B4428AF8A84208F052F84A
:102A300007F13003CAF8C4324FF03A03AAF8EE3275
:102A40004FF00E03AAF8F0324FF0C1033F4AAAF844
:102A5000F2324FF00053CAF8F43240F27763A2F139
:102A600018000121AAF8F832AAF8FAB2AAF8EC4242
:102A70008AF8E04208F02EF807F13003CAF8FC3279
:102A80004FF03A03AAF826334FF00E03AAF8283382
:102A90004FF0C1032E4AAAF82A334FF00053CAF868
:102AA0002C3340F27763A2F1180057E04C3EFF1F31
:102AB000D9340200390F8C3B08132F3D0002FF1F51
:102AC0005DED010000D802200D2C0200032000382B
:102AD000C52B020084F30200498A0100DC50FF1F6D
:102AE000E450FF1FEC50FF1FF450FF1FFC50FF1F6E
:102AF0000451FF1F0C51FF1F1451FF1F1C51FF1FDA
:102B00002451FF1F2C51FF1F3451FF1F3C51FF1F49
:102B10004451FF1F4C51FF1F5451FF1F5C51FF1FB9
:102B20006451FF1F6C51FF1F9451FF1FF541ED5E73
:102B3000C851FF1F1452FF1F2452FF1F5C52FF1F7A
:102B40008452FF1FC452FF1FFC52FF1F3453FF1F4C
:102B50006C53FF1F2050FF1F1072FF1F0121AAF8A6
:102B60003033AAF832B3AAF824438AF8184307F09E
:102B7000B1FF07F13003CAF834334FF03A03AAF833
:102B80005E334FF00E03AAF860334FF0C103ED4AF5
:102B9000AAF862334FF00053CAF8643340F2776307
:102BA000A2F118000121AAF86833AAF86AB3AAF8BA
:102BB0005C438AF8504307F08DFF07F13003CAF8F1
:102BC0006C334FF03A03AAF896334FF00E03AAF88D
:102BD00098334FF0C103DC4AAAF89A334FF0005300
:102BE000CAF89C3340F27763A2F118000121AAF8D9
:102BF000A033AAF8A2B3AAF894438AF8884307F04E
:102C000069FF07F13003CAF8A4334FF03A03AAF87A
:102C1000CE334FF00E03AAF8D0334FF0C103CB4AA6
:102C2000AAF8D2334FF00053CAF8D43340F2776396
:102C3000AAF8D833A2F128000421AAF8DAB3AAF836
:102C4000CC438AF8C04307F045FFC14ACAF8F46391
:102C5000A2F128000421CAF8F863CAF8FC63CAF894
:102C60000064CAF8DC8307F035FFBA4ACAF82C645E
:102C7000A2F128000421CAF83064CAF83464CAF802
:102C80003864CAF8148407F025FFB34ACAF86464AC
:102C9000A2F128000421CAF86864CAF86C64CAF872
:102CA0007064CAF84C8407F015FFAC4ACAF89C64FB
:102CB000A2F128000421CAF8A064CAF8A464CAF8E2
:102CC000A864CAF8848407F005FFA54ACAF8D4644A
:102CD000A2F128000421CAF8D864CAF8DC64CAF852
:102CE000E064CAF8BC8407F0F5FE9E4ACAF80C6599
:102CF000A2F128000421CAF81065CAF81465CAF8C0
:102D00001865CAF8F48407F0E5FE974ACAF84465E6
:102D1000A2F128000421CAF84865CAF84C65CAF82F
:102D20005065CAF82C8507F0D5FE904ACAF87C6534
:102D3000A2F128000421CAF88065CAF88465CAF89F
:102D40008865CAF8648507F0C5FE894ACAF8B46583
:102D5000A2F128000421CAF8B865CAF8BC65CAF80F
:102D6000C065CAF89C8507F0B5FE824ACAF8EC65D2
:102D7000A2F128000421CAF8F065CAF8F465CAF87F
:102D8000F865CAF8D48507F0A5FE7B4ACAF8246620
:102D9000A2F128000421CAF82866CAF82C66CAF8ED
:102DA0003066CAF80C8607F095FE7448CAF85C666F
:102DB000CAF86066CAF86466CAF86866CAF84486E3
:102DC00021F096FB224621466D4807F083FE2246FD
:102DD00021466C48CAF8B4768AF8CC46CAF8D04680
:102DE00007F078FE224621466748CAF8DC768AF862
:102DF000F446CAF8F84607F06DFE224621466348BD
:102E0000CAF804778AF81C47CAF8204707F062FE20
:102E1000224621465E48CAF82C778AF84447CAF809
:102E2000484707F057FE224621465A48CAF85477C9
:102E30008AF86C47CAF8704707F04CFE22462146D4
:102E40005548CAF87C778AF89447CAF8984707F03B
:102E500041FE5248CAF8A4778AF8BC47CAF8C0476E
:102E600021F046FB224621464D4807F033FE22461C
:102E700021464C48CAF804788AF81C48CAF8204809
:102E800007F028FE224621464748CAF82C788AF8DF
:102E90004448CAF8484807F01DFE224621464348E8
:102EA000CAF854788AF86C48CAF8704807F012FEDD
:102EB000224621463E48CAF87C788AF89448CAF8E7
:102EC000984807F007FE224621463A48CAF8A478F7
:102ED0008AF8BC48CAF8C04807F0FCFD364ACAF870
:102EE000CC78A2F1280004218AF8E448CAF8E8481E
:102EF00007F0F0FD314ACAF80C69A2F1280004215C
:102F0000CAF81069CAF81469CAF81869CAF8F488C6
:102F100007F0E0FD2A4ACAF84469A2F1280004211A
:102F2000CAF84869CAF84C69CAF85069CAF82C89C5
:102F300007F0D0FD234ACAF87C69A2F128000421D9
:102F400042E000BFA453FF1FDC53FF1F2454FF1FA8
:102F50005C54FF1F9454FF1FCC54FF1F0455FF1FE8
:102F60003C55FF1F7455FF1FAC55FF1FE455FF1F55
:102F70001C56FF1F5456FF1F8C56FF1F9C56FF1FE9
:102F8000D456FF1FFC56FF1F2457FF1F4C57FF1F2F
:102F90007457FF1F9C57FF1FC457FF1FEC57FF1F9D
:102FA0002458FF1F4C58FF1F7458FF1F9C58FF1FC9
:102FB000C458FF1FEC58FF1F3C59FF1F7459FF1FD7
:102FC000AC59FF1FE459FF1FCAF88069CAF8846929
:102FD000CAF88869CAF8648907F07CFDF24ACAF821
:102FE000B469A2F128000421CAF8B869CAF8BC691A
:102FF000CAF8C069CAF89C8907F06CFDEB4ACAF8A8
:10300000EC69A2F128000421CAF8F069CAF8F46951
:10301000CAF8F869CAF8D48907F05CFDE44ACAF82E
:10302000246AA2F128000421CAF8286ACAF82C6A86
:10303000CAF8306ACAF80C8A07F04CFDDD4ACAF8B3
:103040005C6AA2F128000421CAF8606ACAF8646ABE
:10305000CAF8686ACAF8448A07F03CFDD64ACAF83A
:10306000946AA2F128000421CAF8986ACAF89C6AF6
:10307000CAF8A06ACAF87C8A07F02CFDCF4ACAF8C1
:10308000CC6AA2F128000421CAF8D06ACAF8D46A2E
:10309000CAF8D86ACAF8B48A07F01CFDC84ACAF848
:1030A000046BA2F128000421CAF8086BCAF80C6B63
:1030B000CAF8106BCAF8EC8A07F00CFDC14ACAF8CE
:1030C0003C6BA2F128000421CAF8406BCAF8446B9B
:1030D000CAF8486BCAF8248B07F0FCFCBA4ACAF855
:1030E000746BA2F128000421CAF8786BCAF87C6BD3
:1030F000CAF8806BCAF85C8B07F0ECFCB348CAF8DE
:10310000AC6BCAF8B06BCAF8B46BCAF8B86BCAF843
:10311000948B21F007FAAE4821F004FAAD4821F073
:1031200001FAAD4821F0FEF9AC4821F0FBF9AC48BA
:1031300021F0F8F9AB4821F0F5F9AB4821F0F2F9AC
:10314000AA4821F0EFF9AA4821F0ECF909F134007E
:1031500021F0E8F909F51C7021F0E4F9294609F598
:10316000996209F2AC4007F0B5FC3C37294609F2F8
:10317000EC4209F59A60C9F8AC74A9F8C44407F0A8
:10318000A9FC294609F5A26209F2F440C9F8D074F5
:10319000A9F8E84407F09EFC294609F2345209F5E3
:1031A000A360C9F8F474A9F80C4507F093FC29460C
:1031B00009F5AB6209F23C50C9F81875A9F8304519
:1031C00007F088FC294609F27C5209F5AC60C9F881
:1031D0003C75A9F8544507F07DFC09F2AC52042176
:1031E00009F28450C9F86075A9F8784507F072FCB7
:1031F00009F2E452042109F2BC50C9F89C65C9F8EF
:10320000A065C9F8A465C9F8A865C9F8848507F060
:1032100061FC09F21C62042109F2F450C9F8D4657A
:10322000C9F8D865C9F8DC65C9F8E065C9F8BC8596
:1032300007F050FC09F25462042109F22C60C9F82D
:103240000C66C9F81066C9F81466C9F81866C9F89A
:10325000F48507F03FFC09F28C62042109F26460F6
:10326000C9F84466C9F84866C9F84C66C9F850669A
:10327000C9F82C8607F02EFC09F2C462042109F279
:103280009C60C9F87C66C9F88066C9F88466C9F88C
:103290008866C9F8648607F01DFC09F2FC62042107
:1032A00009F2D460C9F8B466C9F8B866C9F8BC6652
:1032B000C9F8C066C9F89C8607F00CFC09F23472A4
:1032C000042109F20C70C9F8EC66C9F8F066C9F877
:1032D000F466C9F8F866C9F8D48607F0FBFB09F272
:1032E0006C72042109F24470C9F82467C9F8286790
:1032F000C9F82C67C9F83067C9F80C8707F0EAFBF2
:1033000009F2A472042109F27C70C9F85C67C9F85B
:103310006067C9F86467C9F86867C9F8448707F047
:10332000D9FB09F2DC72042109F2B470C9F8946780
:10333000C9F89867C9F89C67C9F8A067C9F87C877D
:1033400007F0C8FB09F61402042109F2EC70C9F871
:10335000CC67C9F8D067C9F8D467C9F8D867C9F885
:10336000B48707F0B7FB294609F6580209F624008E
:10337000C9F80468C9F80868C9F80C68C9F8106881
:10338000C9F8EC8707F0A6FB08F12403C9F8243834
:10339000184BC9F83C38A3F57C53183B4FF48057C1
:1033A000C9F8403828E000BF1C5AFF1F545AFF1FBD
:1033B0008C5AFF1FC45AFF1FFC5AFF1F345BFF1FAC
:1033C0006C5BFF1FA45BFF1FDC5BFF1FEC5BFF1F41
:1033D000285EFF1F6460FF1FA062FF1FDC64FF1FE9
:1033E0001867FF1F5469FF1F906BFF1FCC6DFF1FF5
:1033F0000870FF1F00B28E04F74BC9F844782946C5
:1034000009F69402C9F8483809F50660C9F84C482D
:10341000C9F85048C9F8544807F05CFB08F1240388
:10342000C9F86038ED4BC9F87838A3F57C53183BE0
:10343000C9F87C38E84BC9F88078294609F50D624F
:10344000C9F8843809F69C00C9F88848C9F88C483E
:10345000C9F8904807F03EFB08F12403C9F89C38EE
:10346000DE4BC9F8B438A3F57C53183BC9F8B8381B
:10347000D94BC9F8BC78294609F60C12C9F8C038EE
:1034800009F6D800C9F8C448C9F8C848C9F8CC48F2
:1034900007F020FB08F12403C9F8D838CF4BC9F84E
:1034A000F038A3F57C53183BC9F8F438CA4BC9F877
:1034B000F878294609F64812C9F8FC3809F61410BC
:1034C000C9F80049C9F80449C9F8084907F002FBDE
:1034D00008F12403C9F81439C04BC9F82C39A3F5F5
:1034E0007C53183BC9F83039BB4BC9F834792946AD
:1034F00009F68412C9F8383909F51560C9F83C494C
:10350000C9F84049C9F8444907F0E4FA08F124032E
:10351000C9F85039B14BC9F86839A3F57C53183B49
:10352000C9F86C39AC4BC9F8743909F6B4120421E6
:10353000C9F8707909F68C10C9F87849C9F87C493E
:10354000C9F8804907F0C6FA09F6EC12042109F619
:10355000C410C9F8A469C9F8A869C9F8AC69C9F860
:10356000B069C9F88C8907F0B5FA09F6242204215C
:1035700009F6FC10C9F8DC69C9F8E069C9F8E46922
:10358000C9F8E869C9F8C48907F0A4FA09F65C2209
:10359000042109F63420C9F8146AC9F8186AC9F870
:1035A0001C6AC9F8206AC9F8FC8907F093FA09F681
:1035B0009422042109F66C20C9F84C6AC9F8506AB3
:1035C000C9F8546AC9F8586AC9F8348A07F082FA07
:1035D00009F6CC22042109F6A420C9F8846AC9F8A6
:1035E000886AC9F88C6AC9F8906AC9F86C8A07F0C9
:1035F00071FA09F6F422012109F6DC20C9F8BC6A47
:10360000C9F8C06AC9F8C46AC9F8C86AC9F8A48AFE
:1036100007F060FA40F27763A9F8103B4FF00053CF
:10362000C9F80C3B4FF0C103A9F80A3B4FF00E0359
:10363000A9F8083B4FF03A0309F62C320121A9F80A
:1036400012BBA9F8063B09F6143008F10C03A9F8DF
:10365000044BC9F8DC3A89F8F84A07F03BFA08F15C
:103660000C03C9F8143B4FF03A03A9F83E3B4FF066
:103670000E03A9F8403B4FF0C103A9F8423B4FF0BD
:103680000053C9F8443B40F2776309F664320121E4
:10369000A9F8483BA9F84ABB09F64C30A9F83C4BBD
:1036A00089F8304B07F016FA08F10C03C9F84C3BC7
:1036B0004FF03A03A9F8763B4FF00E03A9F8783B98
:1036C0004FF0C103A9F87A3B4FF00053C9F87C3B97
:1036D00040F2776309F69C320121A9F8803BA9F8F2
:1036E00082BB09F68430A9F8744B89F8684B07F05F
:1036F000F1F908F10C03C9F8843B4FF03A03A9F83B
:10370000AE3B4FF00E03A9F8B03B4FF0C103A9F850
:10371000B23B4FF00053C9F8B43B40F2776309F66F
:10372000D4320121A9F8B83BA9F8BABB09F6BC30DC
:10373000A9F8AC4B89F8A04B07F0CCF908F10C03C1
:10374000C9F8BC3B4FF03A03A9F8E63B4FF00E0333
:10375000A9F8E83B4FF0C103A9F8EA3B4FF000534A
:10376000C9F8EC3B40F2776309F60C420121A9F855
:10377000F03BA9F8F2BB09F6F430A9F8E44B89F85C
:10378000D84B07F0A7F908F10C03C9F8F43B4FF048
:103790003A03A9F81E3C4FF00E03A9F8203C4FF065
:1037A000C103A9F8223C4FF00053C9F8243C40F271
:1037B0007763A9F8283C09F654420421A9F82ABCE9
:1037C00009F62C40A9F81C4C89F8104C07F082F936
:1037D00009F68C42042103E080F9855A00B28E0478
:1037E00009F66440C9F8446CC9F8486CC9F84C6CD7
:1037F000C9F8506CC9F82C8C07F06CF909F6C44272
:10380000042109F69C40C9F87C6CC9F8806CC9F8A1
:10381000846CC9F8886CC9F8648C07F05BF9294698
:1038200009F6085209F6D440C9F8B46CC9F8B86C66
:10383000C9F8BC6CC9F8C06CC9F89C8C07F04AF98F
:1038400008F12403C9F8D43C6F4BC9F8EC3CA3F54C
:103850007C53183BC9F8F03C6C4BC9F8F47C09F672
:1038600028520121C9F8F83C09F5516042F2CC0513
:10387000C9F8FC4CC9F8004DC9F8044D07F02AF905
:103880009FED5F7B08F13003C826C9F8103D49F869
:10389000056021464FF4006209F62C508DED007B47
:1038A00022F070FD214640F67C32594822F06AFD34
:1038B00042F2AC0742F2AA0C42F2AE054FF400739A
:1038C00029F80C3029F8073029F8053042F2A8030E
:1038D00042F2B40629F8034042F2B60342F2B00BBA
:1038E00029F8034042F2B80309F5035529F80340CB
:1038F00042F2BA0342F2B20E29F8034042F2BC038C
:1039000042F2C40029F8034042F2BE0342F2C6016B
:1039100029F8034042F2C80242F2C2034FF4F5779D
:103920004FF0F50C29F8067029F80B402C8029F887
:103930000EC029F8034029F8004029F8014029F871
:10394000024000260027A5F6963540F2BE5B28E02F
:103950003046394622F074F827F01EFC0134A3B239
:103960005B4525F8020F1CB25AD007EE904AB8EE1C
:10397000E78A68EE097A17EE900A22F0BFF941EC67
:10398000100B27F031FC68EE287A57EC106B17EE1D
:10399000900A22F0B3F941EC100B27F025FC8DEDD5
:1039A000000B3046394600221A4B22F04BFA002217
:1039B000194B22F047FA002206460F46154BDDE967
:1039C000000122F03FFA0022144B22F065FB024670
:1039D0000B463046394622F033F8002200230646D3
:1039E0000F4627F0AFFB00220B4B0028B0D100227E
:1039F000094B3046394622F021F827F0CDFBADE7E0
:103A0000000000000000000000B28E0480F9855A1A
:103A10003C87FF1F00805B400000E03F0000084043
:103A2000C74EC84C42F2CA0306F5805229F803B0CB
:103A300006F6D870042107F04DF84FF48035A4F154
:103A4000C0020421A4F1E800C6F8F05FC6F8F45FF4
:103A5000C6F8F85FC6F8FC5FC6F8D88F07F03AF8EA
:103A6000B94E44F8D05CA4F198020221A4F1B00050
:103A700044F8CC5C44F8C85C44F8C45C44F8E88C76
:103A8000002507F027F8A4F170020221A4F18800B4
:103A900044F8B06C44F8905C44F88C5C0C3607F049
:103AA00019F80121A94844F8886C21F053FEA84B6D
:103AB000A8491A6844F8685C42F400421A600A682F
:103AC00044F8645C42F002020A601A68A24842F0BC
:103AD00002021A600368AB4240DBA04B1B68AB429A
:103AE0003CDB9F4A4FF0824313601368002BFCDBE2
:103AF0009C4D9D48DFF8E4E29C499D4B9D4A9E4EBB
:103B00009E4F4BF2100CC5F800C000250560012047
:103B1000CEF80000DFF8C8E2C1F800E04FF48031D1
:103B20001960974B1360974A32603D60964D30673D
:103B3000DFF8B0E200F18E40286005F5DF35CEF801
:103B4000001005F5C0759148914947F8503C4FF475
:103B5000C063C6F880202B6003600B608D4ADAF8E2
:103B6000E4308D498D484FF4C0651560022219601C
:103B70009A809AF8E810186101F1804101F504314A
:103B800040F20110A5F50065D880DD609A604FF421
:103B9000807000228D250626D8829A82D8839A6169
:103BA0009E837F480A700D709AF8E8506A4B14F8AB
:103BB000601C05704FF080757A481D601860614B7D
:103BC00039B9794879490122D025057003F8602C6C
:103BD0000A609AF8E81004F85F2C4B119B0003F17F
:103BE00060430126DFF800A2714DDFF8009201F179
:103BF000100003F5614301F01F026E4906FA02F25C
:103C00004FF0000B41F820501A606B4844F85CAC50
:103C10000AF5167344F8583C04F854BC04F853BC35
:103C200044F850BC04F84CBC13F0B8FF634A644934
:103C3000614822F039FB0AF50873624844F8443CB5
:103C400044F848AC04F840BC04F83FBC44F83CBC21
:103C500004F838BC13F0A2FF584A5949594822F0D9
:103C600023FB0AF5D873584844F8303C44F834AC88
:103C700004F82CBC04F82BBC44F828BC04F824BC81
:103C800013F08CFF4D4A4E494F4822F00DFB0AF5C8
:103C9000F4734E4844F81C3C44F820AC04F818BCBB
:103CA00004F817BC44F814BC04F810BC13F076FFF9
:103CB000424A4349454822F0F7FA0AF1B80344481A
:103CC00044F80C3C0AF524730AF5327544F8083CB4
:103CD00004F804BC04F803BCC4F800B084F804B0D1
:103CE00013F05CFF354A3649394822F0DDFAA5F574
:103CF00004733848A360E56084F810B084F811B00C
:103D0000C4F814B084F818B013F048FF2B4A2C49BB
:103D1000304822F0C9FAA5F504732F48E36105F194
:103D2000A803236284F824B084F825B0C4F828B02E
:103D300084F82CB013F032FF204A214958E000BF2C
:103D40000883FF1F0094FF1FFCF302000451FF1FB4
:103D50003C8004404080044000F0024080F002407B
:103D600000F1024004F1024060F0024008F002401D
:103D70000CF0024010F0024014F00240E0F002406B
:103D80001B1F0100001F1F1F88F002400CB00440E1
:103D900018B0044004B00440E003FF1F22F00240CA
:103DA0001B8000400100009040E400E008E100E0DA
:103DB000C98701000002FF1FA493FF1F4C3EFF1F95
:103DC000A9960000B893FF1FCC93FF1FE093FF1F3D
:103DD000F493FF1F0894FF1F1C94FF1F04F0024080
:103DE000010000078CF002406C51FF1F707AFF1F2A
:103DF000D44822F059FAA5F50473D348236305F19A
:103E0000E003636384F838B084F839B0C4F83CB098
:103E100084F840B013F0C2FECC4ACD49CA4822F023
:103E200043FAA5F50473CB48636405F58C73A3646A
:103E300084F84CB084F84DB0C4F850B084F854B055
:103E400013F0ACFEC14AC249C24822F02DFAA5F5D2
:103E50000473C148A36505F5A873E36584F860B0F1
:103E600084F861B0C4F864B084F868B013F096FECA
:103E7000B64AB749B84822F017FA0AF54E77A5F5C1
:103E80000473B648E366276784F874B084F875B0A5
:103E9000C4F878B084F87CB013F080FEAB4AAC492B
:103EA000AE4822F001FAA5F50473AD48C4F880309D
:103EB00005F13803C4F8843084F888B084F889B0F8
:103EC000C4F88CB084F890B013F068FE9F4AA04903
:103ED000A34822F0E9F9A5F13803A248C4F89830C4
:103EE000A5F5EC73C4F8943084F89CB084F89D6018
:103EF000C4F8A0B084F8A4B013F050FE934A9449DB
:103F0000984822F0D1F9A5F5EC739748C4F8A83089
:103F100005F1A803C4F8AC3084F8B0B084F8B160FF
:103F2000C4F8B4B084F8B8B013F038FE874A8849B2
:103F30008D4822F0B9F9A5F5EC738C48C4F8BC3073
:103F400005F58C73C4F8C03084F8C4B084F8C5603B
:103F5000C4F8C8B084F8CCB013F020FE7B4A7C498A
:103F6000824822F0A1F9A5F5EC738148C4F8D0305D
:103F7000C4F8D47084F8D8B084F8D960C4F8DCB040
:103F800084F8E0B013F00AFE704A7149784822F0D4
:103F90008BF9A5F5D8737748C4F8E430C4F8E85035
:103FA00084F8ECB084F8ED60C4F8F0B084F8F4B0B4
:103FB00013F0F4FD654A66496E4822F075F9A5F5DF
:103FC000D8736D48C4F8F83005F1E003C4F8FC304C
:103FD00084F800B184F80161C4F804B184F808B130
:103FE00013F0DCFD594A5A49634822F05DF9A5F502
:103FF000D8736248C4F80C3105F5A873C4F81031C1
:1040000084F814B184F81561C4F818B184F81CB1AF
:1040100013F0C4FD4D4A4E49584822F045F9A5F524
:10402000D8735748C4F8203105F13803C4F8243157
:1040300084F828B184F82961C4F82CB184F830B12F
:1040400013F0ACFD4249414A4D4822F02DF90AF5E2
:10405000F5630AF5A6624B48C4F83831C4F8342138
:1040600084F83CB184F83D61C4F840B184F844B1AF
:1040700013F094FD3649354A424822F015F90AF505
:10408000F5630AF5CB624048C4F84C31C4F84821C6
:1040900084F850B184F851B1C4F854B184F858B1DF
:1040A00013F07CFD294A2A49374822F0FDF805F52E
:1040B0006E733648C4F85C31A9F5C673C4F8603134
:1040C00084F864B184F86561C4F868B184F86CB1AF
:1040D00013F064FD1D4A1E492C4822F0E5F805F551
:1040E0006E732B48C4F87031A9F5AA73C4F8743103
:1040F00084F878B184F87961C4F87CB184F880B12F
:1041000013F04CFD114A1249214822F0CDF805F573
:104110006E732048C4F88431A9F58E73C4F88831D1
:1041200084F88CB184F88D61C4F890B184F894B1AE
:1041300013F034FD054A0649164822F0B5F805F596
:104140006E7329E01C94FF1F3094FF1F4C3EFF1F2D
:10415000A99600004494FF1F5894FF1F6C94FF1F02
:104160008094FF1F9494FF1FA894FF1FBC94FF1F0F
:10417000D094FF1FE494FF1FF894FF1F0C95FF1FBE
:104180002095FF1F3495FF1F4895FF1F5C95FF1F6B
:104190007095FF1F8495FF1FD848C4F89831A9F186
:1041A000E403C4F89C3184F8A0B184F8A161C4F898
:1041B000A4B184F8A8B113F0F1FCD149D14ACF4899
:1041C0004FF0020822F070F8A9F5C6730AF5D7621D
:1041D000CD48C4F8B031C4F8AC2184F8B58184F876
:1041E000B4B1C4F8B8B184F8BCB113F0D7FCC44979
:1041F000C44AC54822F058F8A9F5AA730AF5DC624A
:10420000C248C4F8C43184F8C981C4F8C02184F814
:10421000C8B1C4F8CCB184F8D0B113F0BFFCB84930
:10422000B84ABA4822F040F8A9F58E730AF5E1625F
:10423000B748C4F8D83184F8DD81C4F8D42184F8B3
:10424000DCB1C4F8E0B184F8E4B113F0A7FCAC49E8
:10425000AC4AAF4822F028F8A9F1E4030AF5E66277
:10426000AC48C4F8EC3184F8F181C4F8E82184F852
:10427000F0B1C4F8F4B184F8F8B113F08FFCA14A9E
:104280009F49A44822F010F8A5F51273A248C4F87B
:10429000FC31A9F53773C4F8003284F8058284F83C
:1042A00004B2C4F808B284F80CB213F077FC954A53
:1042B0009349994821F0F8FFA5F512739748C4F87F
:1042C0001032A9F52973C4F8143284F8198284F8DD
:1042D00018B2C4F81CB284F820B213F05FFC894A0B
:1042E00087498E4821F0E0FFA5F512738C48C4F889
:1042F0002432A9F51B73C4F8283284F82D8284F87F
:104300002CB2C4F830B284F834B213F047FC7D4AC2
:104310007B49834821F0C8FFA5F512738148C4F892
:104320003832A9F50D73C4F83C3284F8418284F820
:1043300040B2C4F844B284F848B213F02FFC714A7A
:104340006F49784821F0B0FFA5F138037648C4F8EA
:104350004C3205F6F413C4F8503284F854B284F8A1
:104360005562C4F858B284F85CB213F017FC654A81
:1043700063496D4821F098FF05F5F7636B48C4F871
:104380006432C4F8605284F868B284F86962C4F890
:104390006CB284F870B213F001FC5A4A5849634871
:1043A00021F082FF624B6348C4F87832C4F874523B
:1043B00084F87CB284F87D62C4F880B284F884B258
:1043C00013F0ECFB4F4A4E495A4821F06DFF05F5BA
:1043D0009C635948C4F8883205F5A363C4F88C324D
:1043E00084F890B284F891B2C4F894B284F898B288
:1043F00013F0D4FB434A42494F4821F055FF05F5DD
:104400009C634E48C4F89C3205F5AA63C4F8A032F8
:1044100084F8A4B284F8A5B2C4F8A8B284F8ACB207
:1044200013F0BCFB374A3649444821F03DFF05F5FF
:104430009C634348C4F8B03205F5B163C4F8B432A4
:1044400084F8B8B284F8B9B2C4F8BCB284F8C0B287
:1044500013F0A4FB2B4A2A49394821F025FF05F522
:104460009C633848C4F8C43205F5B863C4F8C83250
:1044700084F8CCB284F8CDB2C4F8D0B284F8D4B207
:1044800013F08CFB1F4A1E492E4821F00DFF05F545
:104490009C632D48C4F8D83205F5BF63C4F8DC32FC
:1044A00084F8E0B284F8E1B2C4F8E4B284F8E8B287
:1044B00013F074FB134A1249234821F0F5FE05F569
:1044C0009C632248C4F8EC3205F5C663C4F8F032A8
:1044D00084F8F4B284F8F5B2C4F8F8B284F8FCB207
:1044E00013F05CFB074A0649184821F0DDFE05F58C
:1044F0009C631748C4F800332CE000BF9895FF1F59
:10450000A99600004C3EFF1FAC95FF1FC095FF1FF2
:10451000D495FF1FE895FF1FFC95FF1F1096FF1F06
:104520002496FF1F3896FF1F4C96FF1F6096FF1FB3
:10453000906BFF1F7496FF1F8896FF1F9C96FF1FAE
:10454000B096FF1FC496FF1FD896FF1FEC96FF1F63
:104550000097FF1F05F5CD63C4F8043384F808B352
:1045600084F809B3C4F80CB384F810B313F016FB45
:10457000D14AD249D24821F097FE05F59C63D14833
:10458000C4F8143305F5D463C4F8183384F81CB3A5
:1045900084F81DB3C4F820B384F824B313F0FEFAF2
:1045A000C54AC649C74821F07FFEC74BC748C4F873
:1045B0002C3305F13803C4F8283384F830B384F879
:1045C0003163C4F834B384F838B313F0E7FABA4A65
:1045D000BA49BE4821F068FEBD4BBE48C4F840331E
:1045E000C4F83C7384F844B384F84563C4F848B312
:1045F00084F84CB313F0D2FAAF4AB049B54821F071
:1046000053FEB54BB548C4F8543305F1A803C4F8BC
:10461000503384F858B384F85963C4F85CB384F811
:1046200060B313F0BBFAA44AA449AC4821F03CFEA5
:10463000AB4BAC48C4F8683305F1E003C4F864330D
:1046400084F874B3C4F870B384F86D6384F86CB301
:1046500013F0A4FA984A9949A24821F025FEA24BEA
:10466000A248C4F87C3305F58C73C4F8783384F819
:1046700080B384F88163C4F884B384F888B313F0FA
:104680008DFA8D4A8D49994821F00EFE05F5F763A4
:104690009748C4F88C33A9F53773C4F8903384F87D
:1046A00094B384F89563C4F898B384F89CB313F07A
:1046B00075FA814A81498E4821F0F6FD05F5F763C8
:1046C0008C48C4F8A033A9F56D73C4F8A43384F8FA
:1046D000A8B384F8A963C4F8ACB384F8B0B313F0FA
:1046E0005DFA754A7549834821F0DEFD05F6F4133D
:1046F0008148C4F8B433A9F53773C4F8B83384F8E3
:10470000BCB384F8BDB3C4F8C0B384F8C4B313F029
:1047100045FA694A6949784821F0C6FD05F6F4135F
:104720007648C4F8C833A9F56D73C4F8CC3384F85F
:10473000D0B384F8D1B3C4F8D4B384F8D8B313F0A9
:104740002DFA5D4A5D496D4821F0AEFD644B6C4821
:10475000C4F8DC33A9F52973C4F8E03384F8E4B372
:1047600084F8E563C4F8E8B384F8ECB313F016FA00
:10477000514A5249624821F097FD594B6148C4F8AB
:10478000F033A9F56473C4F8F43384F8F8B384F80B
:10479000F963C4F8FCB384F800B413F0FFF9464A97
:1047A0004649584821F080FD494B5748C4F8043425
:1047B000A9F50D73C4F8083484F80CB484F80DB46A
:1047C000C4F810B484F814B413F0E8F93A4A3B4939
:1047D0004D4821F069FD3E4B4C48C4F81834A9F50A
:1047E0005B73C4F81C3484F820B484F821B4C4F892
:1047F00024B484F828B413F0D1F92F4A2F49434840
:1048000021F052FD344B4248C4F82C34A9F52973E9
:10481000C4F8303484F834B484F835B4C4F838B407
:1048200084F83CB413F0BAF9234A2449384821F0FB
:104830003BFD294B3748C4F84034A9F56473C4F8EC
:10484000443484F848B484F849B4C4F84CB484F8C7
:1048500050B413F0A3F9184A18492E4821F024FD4A
:10486000194B2D48C4F85434A9F50D73C4F85834C5
:1048700084F85CB484F85D64C4F860B484F864B40B
:1048800013F08CF90C4A0D49234821F00DFD0E4B15
:104890002248C4F86834A9F55B73C4F86C3484F812
:1048A00070B484F87164C4F874B484F878B413F004
:1048B00075F9014A34E000BF4C3EFF1FA996000085
:1048C0000097FF1F1497FF1F1867FF1F2897FF1FF0
:1048D000A062FF1F3C97FF1FDC64FF1F5097FF1F64
:1048E0006460FF1F6497FF1F5469FF1F7897FF1FC5
:1048F0008C97FF1FA097FF1FB497FF1FC897FF1F3C
:10490000DC97FF1FF097FF1F0498FF1F1898FF1FE9
:104910002C98FF1F4098FF1F5498FF1F6898FF1F97
:10492000E249E34821F0C0FCE24BE348C4F87C34A0
:10493000A9F55273C4F8803484F884B484F885B43B
:10494000C4F888B484F88CB413F028F9DB4AD7494A
:10495000D94821F0A9FCD74BD948C4F89034A9F51F
:104960001B73C4F8943484F898B484F899B4C4F8E8
:104970009CB484F8A0B413F011F9D04ACB49D048C4
:1049800021F092FCA9F55273CE48C4F8A834CE4B5E
:10499000C4F8A43484F8B4B4C4F8B0B484F8AD64F2
:1049A00084F8ACB413F0FAF8C44AC049C54821F001
:1049B0007BFCA9F51B73C548C4F8BC34C24BC4F8D2
:1049C000B83484F8C0B484F8C164C4F8C4B484F8BA
:1049D000C8B413F0E3F8B94AB449BC4821F064FC08
:1049E000A9F1E403BA48C4F8D034A5F58C73C4F82F
:1049F000CC3484F8D4B484F8D5B4C4F8D8B484F8EA
:104A0000DCB413F0CBF8AD4AA849B14821F04CFC16
:104A1000A5F58C73AF48C4F8E03484F8E984C4F891
:104A2000E47484F8E8B4C4F8ECB484F8F0B413F097
:104A3000B5F8A848A14A9D49A0F5B96721F034FC12
:104A4000A5F58C7307F2DC50C4F8F43405F1380393
:104A5000C4F8F83484F8FD8484F8FCB4C4F800B5D4
:104A600084F804B513F09AF8944A904907F2DC50A0
:104A700021F01AFCA9F5C67307F5BE60C4F80C3521
:104A8000A5F1E003C4F8083584F810B584F811B531
:104A9000C4F814B584F818B513F080F8874A834930
:104AA00007F5BE6021F000FCA5F1E00307F2046009
:104AB000C4F81C35A5F13803C4F8203584F82585E1
:104AC00084F824B5C4F828B584F82CB513F066F83A
:104AD0007A4A764907F2046021F0E6FBA5F1E0038B
:104AE00007F5C360C4F8303584F83985C4F8345507
:104AF00084F838B5C4F83CB584F840B513F04EF8E6
:104B00006E4A6A4907F5C36021F0CEFBA9F58E73A2
:104B100007F22C60C4F84835A5F1A803C4F8443561
:104B200084F84CB584F84DB5C4F850B584F854B544
:104B300013F034F8614A5D4907F22C6021F0B4FBB0
:104B4000A5F1A80307F5C860C4F8583505F58C73BE
:104B5000C4F85C3584F8618584F860B5C4F864B540
:104B600084F868B513F01AF8544A504907F5C8603C
:104B700021F09AFB05F5A87307F25460C4F870356C
:104B8000A5F1A803C4F86C3584F8758584F874B56C
:104B9000C4F878B584F87CB513F000F8474A434967
:104BA00007F2546021F080FBA5F1700307F5CD609A
:104BB000C4F88035A9F5AA73C4F8843584F888B59B
:104BC00084F889B5C4F88CB584F890B512F0E6FF86
:104BD0003A4A364907F5CD6021F066FB05F1A80396
:104BE00007F27C60C4F89835A5F17003C4F89435D9
:104BF00084F89D8584F89CB5C4F8A0B584F8A4B564
:104C000012F0CCFF2D4A294907F27C6021F04CFBC1
:104C100005F1E00307F5D260C4F8AC35A5F17003E7
:104C2000C4F8A83584F8B18584F8B0B5C4F8B4B533
:104C300084F8B8B512F0B2FF204A1C49264D07F59A
:104C4000D26021F031FBA9F56D73C4F8BC35A9F52C
:104C5000377307F2A460C4F8C0354FF0030384F83B
:104C6000C53584F8C4B5C4F8C8B584F8CCB512F01D
:104C700095FF124A0D4907F2A46021F015FBA9F532
:104C80006473C4F8D035A9F5297307F5D760C4F863
:104C9000D4354FF0030384F8D93584F8D8B5C4F877
:104CA000DCB584F8E0B512F079FF17E0A9960000B2
:104CB0006898FF1F5469FF1F7C98FF1F4C3EFF1F21
:104CC0009098FF1FA498FF1F906BFF1FB898FF1FBD
:104CD000CC98FF1FE098FF1FF8A4FF1FEA4AEB499A
:104CE00007F5D76021F0E0FAA9F55B73C4F8E43565
:104CF000A9F50D7307F2CC60C4F8E8354FF0030353
:104D000084F8ED3584F8ECB5C4F8F0B584F8F4B562
:104D100012F044FFDC4ADD4907F2CC6021F0C4FA0E
:104D2000A9F55273C4F8F835A9F51B7307F5DC60D3
:104D3000C4F8FC354FF0030384F8013684F800B65C
:104D4000C4F804B684F808B612F028FFCE4ACF495A
:104D500007F5DC6021F0A8FAA9F5377307F2F460D3
:104D6000C4F80C36C4F8109684F814B684F815B656
:104D7000C4F818B684F81CB612F010FFC24AC34932
:104D800007F2F46021F090FAA9F5297307F5E160C4
:104D9000C4F82036A9F13C03C4F8243684F828B6B8
:104DA00084F829B6C4F82CB684F830B612F0F6FEB2
:104DB000B54AB64907F5E16021F076FAA9F5C67360
:104DC00007F21C70C4F83436C4F8389684F83CB640
:104DD00084F83D66C4F840B684F844B612F0DEFEAE
:104DE000A94AAA4907F21C7021F05EFAA9F51B73C3
:104DF00007F5E660C4F8483609F13C03C4F84C36C0
:104E000084F850B684F851B6C4F854B684F858B64D
:104E100012F0C4FE9C4A9D4907F5E66021F044FA71
:104E2000A9F5AA7307F24470C4F85C36A9F13C03F3
:104E3000C4F8603684F864B684F86566C4F868B669
:104E400084F86CB612F0AAFE8F4A904907F24470BB
:104E500021F02AFAA9F58E7307F5EB60C4F87036D5
:104E600009F13C03C4F8743684F878B684F879669E
:104E7000C4F87CB684F880B612F090FE824A83496A
:104E800007F5EB6021F010FAA9F50D7307F26C70CD
:104E9000C4F8843609F17803C4F8883684F88CB6EF
:104EA00084F88DB6C4F890B684F894B612F076FE05
:104EB000754A764907F26C7021F0F6F9A9F1E4031E
:104EC00007F5F060C4F8983609F17803C4F89C3609
:104ED00084F8A0B684F8A166C4F8A4B684F8A8B68D
:104EE00012F05CFE684A694907F5F06021F0DCF9D0
:104EF000A9F13C0307F29470C4F8AC3609F5967337
:104F0000C4F8B03684F8B4B684F8B5B6C4F8B8B608
:104F100084F8BCB612F042FE5B4A5C4907F294701A
:104F200021F0C2F9A9F13C0307F5F560C4F8C036D9
:104F300009F59673C4F8C43684F8C86684F8C9665F
:104F4000C4F8CCB684F8D0B612F028FE4E4A4F49C9
:104F500007F5F56021F0A8F9A9F13C0307F2BC7050
:104F6000C4F8D43609F59673C4F8D83684F8DC86CC
:104F700084F8DD86C4F8E0B684F8E4B612F00EFEDC
:104F8000414A424907F2BC7021F08EF909F5CE730F
:104F900007F5FA60C4F8EC36C4F8E89684F8F0B681
:104FA00084F8F1B6C4F8F4B684F8F8B612F0F6FD59
:104FB000354A364907F5FA6021F076F909F5CE73DE
:104FC00007F2E470C4F80037C4F8FC9684F804676C
:104FD00084F80567C4F808B784F80CB712F0DEFD52
:104FE000294A2A4907F2E47021F05EF909F5CE73E7
:104FF00007F5FF60C4F81437C4F8109784F81887D1
:1050000084F81987C4F81CB784F820B712F0C6FDDD
:105010001D4A1E4907F5FF6021F046F909F13C03DE
:1050200007F60C00C4F8243709F5B273C4F8283722
:1050300084F82CB784F82DB7C4F830B784F834B7A7
:1050400012F0ACFD104A114907F60C0021F02CF9C2
:1050500009F13C0307F50260C4F8383709F5B2736B
:10506000C4F83C3784F8406784F84167C4F844B713
:1050700084F848B712F092FD034A044907F502602C
:1050800021F012F904E000BF4C3EFF1FA99600007A
:1050900009F13C0307F63400C4F84C3709F5B27344
:1050A000C4F8503784F8548784F85587C4F858B743
:1050B00084F85CB712F072FDEA4AEB4907F6340057
:1050C00021F0F2F809F1780307F64800C4F86037D8
:1050D00009F5EA73C4F8643784F868B784F869B7E7
:1050E000C4F86CB784F870B712F058FDDD4ADE4999
:1050F00007F6480021F0D8F809F1780307F65C00BC
:10510000C4F8743709F5EA73C4F8783784F87C6713
:1051100084F87D67C4F880B784F884B712F03EFD48
:10512000D04AD14907F65C0021F0BEF809F17803B6
:1051300007F50760C4F8883709F5EA73C4F88C37B7
:1051400084F8908784F89187C4F894B784F898B766
:1051500012F024FDC34AC44907F5076021F0A4F802
:1051600009F1B40307F68400C4F89C3709F503730A
:10517000C4F8A03784F8A4B784F8A5B7C4F8A8B7D2
:1051800084F8ACB712F00AFDB64AB74907F68400B6
:1051900021F08AF809F1B40307F69800C4F8B03793
:1051A00009F50373C4F8B43784F8B86784F8B967AD
:1051B000C4F8BCB784F8C0B712F0F0FCA94AAA49F9
:1051C00007F6980021F070F809F1B40307F6AC0077
:1051D000C4F8C43709F50373C4F8C83784F8CC871A
:1051E00084F8CD87C4F8D0B784F8D4B712F0D6FCD1
:1051F0009C4A9D4907F6AC0021F056F809F1F003EE
:1052000007F50C60C4F8D83709F51173C4F8DC371A
:1052100084F8E0B784F8E1B7C4F8E4B784F8E8B7F5
:1052200012F0BCFC8F4A904907F50C6021F03CF865
:1052300009F1F00307F6D400C4F8EC3709F511734F
:10524000C4F8F03784F8F46784F8F567C4F8F8B761
:1052500084F8FCB712F0A2FC824A834907F6D40016
:1052600021F022F809F1F00307F6E800C4F800384D
:1052700009F51173C4F8043884F8088884F809889B
:10528000C4F80CB884F810B812F088FC754A764956
:1052900007F6E80021F008F809F5967307F6FC0018
:1052A000C4F8143809F51F73C4F8183884F81CB80A
:1052B00084F81DB8C4F820B884F824B812F06EFC45
:1052C000684A694907F6FC0020F0EEFF09F5B27361
:1052D00007F51160C4F8283809F52D73C4F82C3887
:1052E00084F838B8C4F834B884F831B884F830B8E1
:1052F00012F054FC5B4A5C4907F5116020F0D4FFC2
:1053000009F5CE7307F62410C4F83C3809F5497343
:10531000C4F8403884F84CB8C4F848B884F845B8A4
:1053200084F844B812F03AFC4E4A4F4907F624106C
:1053300020F0BAFF09F5EA7307F63810C4F85038C0
:1053400009F53B73C4F8543884F860B8C4F85CB805
:1053500084F859B884F858B812F020FC414A424900
:1053600007F6381020F0A0FF09F5037307F64C107C
:10537000C4F8643809F55773C4F8683884F874B809
:10538000C4F870B884F86DB884F86CB812F006FCF4
:105390003549344A07F64C1020F086FF09F565734D
:1053A00009F5117207F51660C4F87C380093C4F84B
:1053B000782884F888B8C4F884B884F881B884F868
:1053C00080B812F0EBFB274A274907F5166020F05A
:1053D0006BFF09F51F7307F67410C4F88C3809F5D4
:1053E0007373C4F8903884F89CB8C4F898B884F8FB
:1053F000956884F894B812F0D1FB1A4A1A4907F656
:10540000741020F051FF09F52D7307F68810C4F8C9
:10541000A03809F57373C4F8A43884F8A98884F80F
:10542000B0B8C4F8ACB884F8A8B812F0B7FB0D4A0D
:105430000D4907F6881020F037FF09F53B7307F692
:105440009C10C4F8B43809F20443C4F8B83884F89E
:10545000C4B8C4F8C0B884F8BDB884F8BCB812F0B9
:105460009DFB03E04C3EFF1FA9960000E44AE5497E
:1054700007F69C1020F018FF09F5497307F51B602B
:10548000C4F8C83809F57373C4F8CC3884F8D8B8B0
:10549000C4F8D4B884F8D1B884F8D0B812F07EFB40
:1054A000D74AD84907F51B6020F0FEFE09F557736F
:1054B00007F6C410C4F8DC3809F20443C4F8E03835
:1054C00084F8ECB8C4F8E8B884F8E56884F8E4B87F
:1054D00012F064FBCA4ACB4907F6C41020F0E4FE80
:1054E000009BC4F8F03807F6D81009F20443C4F85A
:1054F000F43884F8F98884F800B9C4F8FCB884F862
:10550000F8B812F04BFBBE4ABE4907F6D81020F09F
:10551000CBFE09F2744307F6EC1009F59669C4F85E
:10552000043984F80C89C4F8089984F814B9C4F8CB
:1055300010B984F80DB912F031FBB14AB14907F640
:10554000EC1020F0B1FE07F52060C4F81899C4F8FB
:105550001C7984F828B9C4F824B984F8216984F83E
:1055600020B912F01BFBA64AA64907F5206020F0DF
:105570009BFEA54BC4F8303907F61420C4F82C99CB
:1055800084F83CB9C4F838B984F8356984F83469CA
:1055900012F004FB9A4A9B4907F6142020F084FE7F
:1055A000A9F13C0307F62820C4F84039C4F844792F
:1055B00084F8488984F850B9C4F84CB984F849B9DA
:1055C00012F0ECFA8E4A8F4907F6282020F06CFE84
:1055D000A9F13C0307F63C20C4F854398A4BC4F8BF
:1055E000583984F85C8984F864B9C4F860B984F8DF
:1055F0005DB912F0D3FA824A824907F63C2020F0C6
:1056000053FE07F13809804BC4F8683907F5256067
:10561000C4F86C9984F878B9C4F874B984F87169DD
:1056200084F870B912F0BAFA7649754A07F5256020
:1056300020F03AFE07F1600307F66420724AC4F8CE
:1056400080390093C4F87C2984F88CB9C4F888B9EF
:1056500084F8856984F884B912F0A0FA684A694927
:1056600007F6642020F020FE009BC4F8943907F66A
:105670007820C4F8907984F898B984F899B9C4F876
:105680009CB984F8A0B912F089FA5D4A5D4907F621
:10569000782020F009FE07F68C20C4F8A899C4F8F9
:1056A000A47984F8ACB984F8ADB9C4F8B0B984F879
:1056B000B4B912F073FA524A524907F68C2020F01E
:1056C000F3FD0AF6BC4307F52A60C4F8BC390AF5B5
:1056D000FC63C4F8B83984F8C0B984F8C1B9C4F817
:1056E000C4B984F8C8B912F059FA454A454907F5D2
:1056F0002A6020F0D9FD0AF5286307F6B420C4F823
:10570000D0390AF61803C4F8CC3984F8D4B984F82F
:10571000D5B9C4F8D8B984F8DCB912F03FFA384AE0
:10572000384907F6B42020F0BFFD384BC4F8E439FF
:1057300007F6C8200AF50563C4F8E03984F8E8B92B
:1057400084F8E9B9C4F8ECB984F8F0B912F026FA93
:105750002B4A2C4907F6C82020F0A6FD2C4BC4F894
:10576000F83907F6DC200AF68803C4F8F43984F81F
:10577000FCB984F8FDB9C4F800BA84F804BA12F090
:105780000DFA1F4A1F4907F6DC2020F08DFD214B42
:10579000C4F80C3A07F52F600AF50C63C4F8083A10
:1057A00084F810BA84F811BAC4F814BA84F818BA94
:1057B00012F0F4F9124A134907F52F6020F074FD36
:1057C000154BC4F8203A07F604300AF6F803C4F87B
:1057D0001C3A84F824BA84F825BAC4F828BA84F8A4
:1057E0002CBA12F0DBF9064A064907F6043020F01D
:1057F0005BFD0A4BC4F8343A07F6183010E000BFDE
:105800004C3EFF1FA9960000E092FF1FDC64FF1FC3
:105810006460FF1F5469FF1F906BFF1FA062FF1F92
:105820000AF51363C4F8303A84F838BA84F839BA00
:10583000C4F83CBA84F840BA12F0B0F9E94AEA492F
:1058400007F6183020F030FDE84BC4F8483A07F668
:105850002C300AF66813C4F8443A84F84CBA84F839
:105860004DBAC4F850BA84F854BA12F097F9DD4A28
:10587000DD4907F62C3020F017FD0AF5F47307F523
:105880003460C4F8583A0AF5FC63C4F85C3A84F80A
:1058900060BA84F8616AC4F864BA84F868BA12F02D
:1058A0007DF9D04AD04907F5346020F0FDFC0AF5B7
:1058B000F47307F65430C4F86C3A0AF61803C4F8C7
:1058C000703A84F874BA84F8756AC4F878BA84F8BF
:1058D0007CBA12F063F9C34AC34907F6543020F08A
:1058E000E3FC0AF5167307F66830C4F8803A0AF547
:1058F0000563C4F8843A84F888BA84F8896AC4F8DD
:105900008CBA84F890BA12F049F9B64AB64907F64B
:10591000683020F0C9FC0AF5167307F67C30C4F82D
:10592000943A0AF68803C4F8983A84F89CBA84F842
:105930009D6AC4F8A0BA84F8A4BA12F02FF9A94A53
:10594000A94907F67C3020F0AFFC0AF5087307F58B
:105950003960C4F8A83A0AF50C63C4F8AC3A84F884
:10596000B0BA84F8B16AC4F8B4BA84F8B8BA12F01C
:1059700015F99C4A9C4907F5396020F095FC0AF519
:10598000087307F6A430C4F8BC3A0AF6F803C4F862
:10599000C03A84F8C4BA84F8C56AC4F8C8BA84F8AE
:1059A000CCBA12F0FBF88F4A8F4907F6A43020F0EA
:1059B0007BFC0AF5D87307F6B830C4F8D03A0AF57C
:1059C0001363C4F8D43A84F8D8BA84F8D96AC4F80E
:1059D000DCBA84F8E0BA12F0E1F8824A824907F6AC
:1059E000B83020F061FC0AF5D87307F6CC30C4F863
:1059F000E43A0AF66813C4F8E83A84F8ECBA84F892
:105A0000ED6AC4F8F0BA84F8F4BA12F0C7F8754A2F
:105A1000754907F6CC3020F047FC0AF5FC6307F522
:105A20003E60C4F8FC3A0AF5AD63C4F8F83A84F86D
:105A3000018B84F800BBC4F804BB84F808BB12F0E7
:105A4000ADF8684A684907F53E6020F02DFC0AF67B
:105A5000180307F6F430C4F8103B0AF5AD63C4F838
:105A60000C3B84F8158B84F814BBC4F818BB84F87D
:105A70001CBB12F093F85B4A5B4907F6F43020F048
:105A800013FC0AF5B2690AF5056307F60840C4F885
:105A9000243B84F8298BC4F8209B84F828BBC4F8E5
:105AA0002CBB84F830BB12F079F84E4A4E4907F609
:105AB000084020F0F9FB09F53E7307F61C40C4F8D6
:105AC000383BC4F8349B84F83D8B84F83CBBC4F865
:105AD00040BB84F844BB12F061F8424A424907F6E1
