:1000000000000320D101000071ED010075EC01003A
:1000100075EC010075EC010075EC010075EC010058
:1000200075EC010075EC010075EC010071ED01004B
:1000300071ED010075EC01001152020099500200AF
:1000400071ED010071ED010071ED010071ED010034
:1000500071ED010071ED010071ED010071ED010024
:1000600071ED010071ED010071ED010071ED010014
:1000700071ED010071ED010071ED010071ED010004
:1000800071ED010071ED010071ED010071ED0100F4
:1000900071ED010071ED010071ED010071ED0100E4
:1000A000719501006595010071ED010071ED010090
:1000B00071ED010071ED010071ED0100C54301001A
:1000C00071ED0100E542010071ED010045420100C2
:1000D00071ED01006941010071ED010071ED010058
:1000E00071ED010071ED010071ED010071ED010094
:1000F00071ED010071ED010071ED010071ED010084
:1001000021F801000DF80100F9F70100E5F7010001
:1001100071ED0100A544010071ED010071ED0100D8
:1001200071ED010071ED010071ED010071ED010053
:1001300071ED010071ED010071ED010071ED010043
:100140004952020071ED0100C940010071ED01004A
:1001500071ED010071ED010071ED010071ED010023
:1001600071ED010071ED01005995010071ED010083
:1001700071ED010071ED010071ED010071ED010003
:1001800071ED010071ED010071ED010071ED0100F3
:1001900071ED010071ED01001D40010071ED0100E4
:1001A00071ED010071ED010071ED010071ED0100D3
:1001B00071ED010071ED010071ED010071ED0100C3
:1001C00071ED010071ED010071ED010071ED0100B3
:1001D00008B5624B4CF220521A804DF628121A8054
:1001E00000BF00BF102223F80E2CA3F51F43DE3BF7
:1001F0004FF030621A605A4A9A605A4ADA605A4B93
:100200004FF470021A60594B594A1A60594B1A78C8
:10021000120703D51A7842F008021A70564B574954
:10022000AA221A70564A574B8B4204D252F8040F36
:1002300043F8040BF8E7544B544900228B4202D296
:1002400043F8042BFAE75249524A002352F823009C
:1002500041F823000133742BF8D14F4B4F4A8021D2
:1002600003F8011B9342FBD14D4B494A1A604D4B99
:100270008A221A70A3F5805324225A70A0221A7081
:100280009A799507FCD59A79D406FCD4464A937995
:1002900003F00C03082BFAD1444B60221A7002338E
:1002A0001A78802AFCD1404B00221A7150225A71D0
:1002B0009A799006FCD599793B4A4906FBD53C4B87
:1002C0003C4919600021596020231370937903F091
:1002D0000C030C2BFAD1384B384A1A60384A394C87
:1002E000136813F4807303D123604FF4A853136091
:1002F000354B364A1A60002507225D6043F8042C0E
:10030000334AC3F80C2D62B61EF036FD22682D4B21
:10031000D2070CD52F4A30491D60156042F8041CE5
:1003200010221A6003F5805308332C4A1A602C4BB4
:100330001B785B060ED52B4A284B1168994209D1D0
:1003400024492548002323600B6041F8040C102148
:100350002160136025F0DEFF06F0FEFF0E20054051
:10036000823F04000100002B88ED00E0002008E03F
:100370000300008502D0074000E00740704EFF1FD9
:10038000200E0400703DFF1F0050FF1F4C36002060
:100390000002FF1F0000000000E400E064E400E051
:1003A00008ED00E0005006400040064001E0074034
:1003B000448004400000070304800440C01007008C
:1003C00010D0034014D0034014E000E0FFE7030026
:1003D0000000202004D003403DFFD75EA5C3945AFF
:1003E00000F007401CE00340FFFFFFFFFFFFFFFF9F
:1003F000FFFFFFFFFFFFFFFFFFFFFFFFFFFFFFFF0D
:10040000FFFFFFFFFFFFFFFFFFFFFFFFDEF9FFFF23
:1004100010B5054C237833B9044B13B10448AFF33E
:1004200000800123237010BD0050FF1F000000005A
:10043000240E0400084B10B51BB108490848AFF35F
:1004400000800848036803B910BD074B002BFBD0A0
:10045000BDE81040184700BF000000000450FF1F17
:10046000240E0400704EFF1F000000002DE980489C
:10047000484B9BB01B680993099A00E021DF454B6C
:100480001B680893089B9B1AB3F5FA6FF6DBDFF83D
:1004900018B1DFED419A9FED418ADFED418A414B72
:1004A0001B68092B01F25480DFE813F040020405B9
:1004B0008A0013000A00F203EE02A604D001D00164
:1004C00015F0E8FD9BF86820002AE8D024F0D8F960
:1004D000E1E7BBF90C20009200221146BBF90A307B
:1004E00001923148314D324C09F028FD4FF6E0724F
:1004F000012305203521CBF81C50ABF81420ABF8B4
:1005000012208BF816308BF81730ABF80E00ABF8D2
:100510001010254D14F8011B28461EF01BFE254B1C
:100520009C42F6D10D2128461EF014FE0A212846D1
:100530001EF010FE204C05225A23EA812B821A4D10
:1005400014F8011B28461EF005FE1C4B9C42F6D1F8
:100550000D2128461EF0FEFD0A2128461EF0FAFD58
:1005600095F868201AB124F08BF995F86820094BAA
:100570001B680B930B9900E021DF064B1B680A9365
:100580000A9B5B1AB3F57A7FF6DB064900230B6002
:100590009AE700BF580D002017B7D1380000C842B5
:1005A0000000BC42041A002014FDFF1F14D40200F6
:1005B00070F302007DF3020080F302008DF302006D
:1005C000BBF90C20009200221146BBF90A300192BF
:1005D0009448954D954C09F0B1FC4FF6E07201231B
:1005E00005203521CBF81C50ABF80E00ABF81010ED
:1005F000ABF81420ABF812208BF816308BF81730BC
:10060000884D14F8011B28461EF0A4FD884B9C421F
:10061000F6D10D2128461EF09DFD0A2128461EF028
:1006200099FD6A89143A12B24FF478433C210A20AA
:1006300024F058F87F4B1A887F4BEB61931E99B2D8
:100640004E204FF6E07300248A422882EC81AB8270
:100650006B827A4841F26984794B1A68131A794A95
:100660009B1002FB0313784A83FB02455919DA17E2
:10067000C2EB612240F2E73101FB123303EB83034B
:1006800000EB8301043150F823300C930DA81FF0C8
:1006900065FC0C9A002AC1F2548442F00380302396
:1006A0008DF86530212111AB5D180ED02229C1F1E2
:1006B00021060AD02C4614F8011B5A481EF04AFDA8
:1006C000C4F101033344DD42F5D10D2155481EF03C
:1006D00041FD0A2153481EF03DFD0D982CF0BCFD54
:1006E000544B56481A88931E99B22323ABF80E3008
:1006F0004E23ABF810308A424FF6FF73ABF814303C
:10070000ABF8123041F207844D4B1A68131A4D4A68
:100710009B1002FB03134C4A83FB02455919DA175D
:10072000C2EB612240F2E73101FB123303EB83039A
:1007300000EB8301043150F823300C930DA81FF017
:100740000DFC0F9B002B00F015874FF000091C4695
:10075000A1459846CA46334E60D2C9EB0404202C0A
:100760000D9928BF20242246494411A82CF01EFED2
:100770001AAB1C4404F824AC4746202F28BF20277E
:1007800011ABB944C7EB08081D461F44BD423ED01B
:10079000DBF81C0015F8013B002800F0B1840A2B9F
:1007A00000F05D840D2BF1D0047AA342EED3427A9F
:1007B0009A42EBD342681C1BE4B202EBC404A27859
:1007C000D2B1E178C1B1717E002940F0F785B6F968
:1007D0000E200492F07DB6F9102096F816C0049908
:1007E000BBF814E00390BBF81200CDF808C08DE808
:1007F00001400C4823F0D0F82179BBF80E309BF86B
:100800001620BD4201FB0233ABF80E30C0D1B8F167
:10081000000F00F0AF860F9CA1459ED38DF844A039
:10082000AAE700BF14FDFF1F20D4020068F30200F6
:100830006DF30200CCFAFF1F80FD0200B8ACFF1F71
:10084000C4FAFF1FCDCCCCCC210534830024BBF9E6
:100850000C20BBF90A3000922146224601948248BE
:1008600009F06CFB814BABF80E401D68804CCBF857
:100870001C404FF6E072012335212846ABF81420C6
:10088000ABF812208BF816308BF81730ABF810103D
:1008900029F0F6FA044630B115F8011B72481EF033
:1008A00059FC013CF8D1704C0D2120461EF052FC41
:1008B00020460A211EF04EFC6E4B1B68082B01F0EF
:1008C000C886BBF80A20143A12B24FF478433E218E
:1008D0000A2023F007FF684B1D6805214FF6FF73C0
:1008E0005A222846ABF81430ABF81230ABF80E1091
:1008F000ABF8102029F0C4FA044630B115F8011BFA
:1009000059481EF027FC013CF8D1574C0D212046D8
:100910001EF020FC20460A211EF01CFC554B1B68D3
:10092000092B01F03C8694F86820CDE5534B544ADE
:100930001B680793079B12689B1AB3F52F7F3FF63E
:10094000BFAD0024BBF90C20BBF90A300092214650
:1009500022464548019409F0F1FA4A4B4448D3F83D
:100960000890ABF80E404FF6E07201233521CBF82A
:100970001C00ABF81010ABF81420ABF812208BF869
:1009800016308BF81730B9F1000F01F06684A046DD
:10099000A2464C46A045344F62D23A4BC8EB040401
:1009A0001968202C28BF20242246414411A82CF08D
:1009B000FDFC1AAB1C4404F824AC4E46202E28BF84
:1009C000202611ABB044C6EB09091D461E44B542B2
:1009D0003ED0DBF81C0015F8013B002800F05984DC
:1009E0000A2B00F04C840D2BF1D0027A9342EED307
:1009F000417A9942EBD39A1A4168D2B201EBC20410
:100A0000A278D2B1E178C1B1797E002941F0658246
:100A1000B7F90E200492F87DB7F9102097F816C0A8
:100A20000499BBF814E00390BBF81200CDF808C09D
:100A30008DE801400C4822F0AFFF2179BBF80E3061
:100A40009BF81620B54201FB0233ABF80E30C0D143
:100A5000B9F1000F01F001840A4B9C68A0459CD3BA
:100A60008DF844A0A9E700BF14FDFF1FB044FF1F8D
:100A700014D40200B844FF1FB444FF1F580D0020D7
:100A80000C1A00209CFDFF1FBBF90C2000920022D5
:100A90001146BBF90A3001927748784D784C09F03D
:100AA0004DFA4FF6E072012305203521CBF81C509A
:100AB000ABF80E00ABF81010ABF81420ABF8122016
:100AC0008BF816308BF817306B4D14F8011B284645
:100AD0001EF040FB6B4B9C42F6D10D2128461EF0C8
:100AE00039FB0A2128461EF035FB6A89143A12B2F6
:100AF0004FF478433C210A2023F0F4FD624B19683F
:100B0000624BEB6151F8043B0C934E224FF6E073BD
:100B100000242A820DA8EC81AB826B821FF01EFAA2
:100B20000C9AA242C1F2708241F0848530238DF884
:100B30006530212111AB5D180ED02229C1F12106AB
:100B40000AD02C4614F8011B4B481EF003FBC4F1DD
:100B500001033344DD42F5D10D2147481EF0FAFA76
:100B60000A2145481EF0F6FA0D982CF075FB464B0D
:100B7000196851F8043B0C9323234E22ABF80E3036
:100B80000DA84FF6FF73ABF81020ABF81430ABF89C
:100B900012301FF0E3F9DDF83C90B9F1000F01F0DD
:100BA0001F804FF000084C46A045C246324E60D22E
:100BB000C8EB0404202C0D9928BF20242246414470
:100BC00011A82CF0F3FB1AAB1C4404F824AC4F46DC
:100BD000202F28BF202711ABB844C7EB09091D46B9
:100BE0001F44AF423ED0DBF81C0015F8013B002843
:100BF00000F0F6820A2B00F029820D2BF1D0047A46
:100C0000A342EED3427A9A42EBD342681C1BE4B271
:100C100002EBC404A278D2B1E178C1B1717E00299F
:100C200040F08A83B6F90E200492F07DB6F91020C8
:100C300096F816C00499BBF814E00390BBF81200B4
:100C4000CDF808C08DE801400B4822F0A5FE2179BF
:100C5000BBF80E309BF81620AF4201FB0233ABF815
:100C60000E30C0D1B9F1000F00F0BA870F9CA0453B
:100C70009ED38DF844A0AAE714FDFF1F20D40200E4
:100C8000A0F30200A7F30200C8FAFF1F80FD0200D4
:100C90000025BBF90C20BBF90A30009229462A46F0
:100CA0007B48019509F04AF97A4C7B48ABF80E5025
:100CB0004FF6E07201233521CBF81C00ABF814206D
:100CC000ABF812208BF816308BF81730ABF81010F9
:100CD0006F4E14F8011B30461EF03CFA6F4B9C42DD
:100CE000F6D10D2130461EF035FA0A2130461EF0AD
:100CF00031FA7289143A12B24FF478433E210A2035
:100D000023F0F0FC664B9B684FF6FF7205205A21DA
:100D1000B2827282F0813182002B00F055874FF051
:100D200000091C46A1459846CA4662D25C4BC9EBF5
:100D300004041968202C28BF20242246494411A805
:100D40002CF034FB1AAB1C4404F824AC4746202F8B
:100D500028BF202711ABB944C7EB08081D461F4424
:100D6000BD423ED0DBF81C0015F8013B002800F026
:100D700092810A2B00F086810D2BF1D0047AA342D8
:100D8000EED3427A9A42EBD342681C1BE4B202EBE8
:100D9000C404A278D2B1E178C1B1717E002940F0DB
:100DA000F782B6F90E200492F07DB6F9102096F87D
:100DB00016C00499BBF814E00390BBF81200CDF8FC
:100DC00008C08DE80140324822F0E6FD2179BBF8E9
:100DD0000E309BF81620BD4201FB0233ABF80E30FB
:100DE000C0D1B8F1000F00F0EF862D4B9C68A145F3
:100DF0009CD38DF844A0A9E7BBF90C2000920022F7
:100E00001146BBF90A3001922148234D254C09F0C7
:100E100095F84FF6E072012302203521CBF81C50E3
:100E2000ABF80E00ABF81010ABF81420ABF81220A2
:100E30008BF816308BF81730154D14F8011B284627
:100E40001EF088F9184B9C42F6D10D2128461EF061
:100E500081F90A2128461EF07DF9144C0A225A23F2
:100E6000EA812B820A4D14F8011B28461EF072F904
:100E70000F4B9C42F6D10D2128461EF06BF90A213A
:100E800028461EF067F995F86820FFF71DBB00BFE4
:100E900014FDFF1F90F3020014D402009CF3020023
:100EA000DCFDFF1FA8F30200B3F30200B4F302005D
:100EB000BBF302000024BBF90C20BBF90A300092FE
:100EC00021462246C348019409F038F8C24BABF8DA
:100ED0000E401968C14B51F8042BCBF81C302D255E
:100EE0004FF6E0730DA80C92ABF81050ABF814302D
:100EF000ABF812301FF032F80C9AA242C1F25380C4
:100F000041F0C28330238DF86530212111AB5D188B
:100F10000ED02229C1F121060AD02C4614F8011B5B
:100F2000AC481EF017F9C4F101033344DD42F5D19A
:100F30000D21A8481EF00EF90A21A6481EF00AF954
:100F40000D982CF089F9A44B196851F8043B0C93C7
:100F500023232D22ABF80E300DA84FF6FF73ABF80C
:100F60001430ABF81230ABF810201EF0F7FF0F9BD7
:100F7000002B00F05F844FF000091C46A145984605
:100F8000CA46944E5FD2C9EB0404202C0D9928BFA9
:100F900020242246494411A82CF008FA1AAB1C441C
:100FA00004F824AC4746202F28BF202711ABB944B2
:100FB000C7EB08081D461F44BD423DD0DBF81C00AE
:100FC00015F8013B002800F0D1800A2B51D00D2BE1
:100FD000F2D0047AA342EFD3427A9A42ECD3426829
:100FE0001C1BE4B202EBC404A278D2B1E178C1B117
:100FF000717E002940F0B681B6F90E200492F07D92
:10100000B6F9102096F816C00499BBF814E00390C6
:10101000BBF81200CDF808C08DE801406D4822F001
:10102000BBFC2179BBF80E309BF81620BD4201FBBA
:101030000233ABF80E30C1D1B8F1000F00F0FA83E3
:101040000F9CA1459FD38DF844A0ABE7A6F80EA056
:10105000827A338AF17D01FB02333382C1E5A6F83F
:101060000EA0827A338AF17D01FB02333382FFF7CF
:101070008DBBA6F80EA0827A338AF17D01FB023384
:10108000338299E7A6F80EA0827A338AF17D01FBBC
:101090000233338264E60A2B00F047810D2B3FF4C4
:1010A0005FAE727EB6F90E10002A00F0D38096F87B
:1010B00016E0B6F90A40062212FB0E12A24240F3D5
:1010C000A381328A96F817C0F08102EBCC0212B2EB
:1010D00001463282BBF81200BBF81440CDF80CC0B8
:1010E0008DE811403B4822F057FC9BF81630BBF8C6
:1010F0000E2003EB430302EB4303ABF80E302FE665
:101100000A2B00F00A810D2B3FF440AB727EB6F93A
:101110000E10002A00F0978096F816E0B6F90A4003
:10112000062212FB0E12A24240F35F81328A96F829
:1011300017C0F08102EBCC0212B201463282BBF83A
:101140001200BBF81440CDF80CC08DE811402148C6
:1011500022F022FC9BF81630BBF80E2003EB430371
:1011600002EB4303ABF80E30FFF710BB0A2B00F085
:10117000CD800D2B3FF420AF727EB6F90E10002A01
:1011800076D096F816E0B6F90A40062212FB0E1247
:10119000A24240F32F81328A96F817C0F08102EB09
:1011A000CC0212B201463282BBF81200BBF81440E6
:1011B000CDF80CC08DE81140064822F0EDFB9BF8FD
:1011C0001630BBF80E2003EB430302EB4303ABF8EE
:1011D0000E30F1E614FDFF1FC8FAFF1F80FD02006C
:1011E0000A2B00F08C800D2B3FF4FBAC727EB6F91D
:1011F0000E10B2B396F816E0B6F90A40062212FBBA
:101200000E12A24240F3FB80328A96F817C0F0819A
:1012100002EBCC0212B201463282BBF81200BBF8DC
:101220001440CDF80CC08DE81140CB4822F0B4FB3F
:101230009BF81630BBF80E2003EB430302EB43038D
:10124000ABF80E30CDE4B6F9102096F817C096F83A
:1012500016E074E7B6F9102096F817C096F816E075
:1012600038E7B6F9102096F817C096F816E0D4E7DC
:10127000B6F9102096F817C096F816E094E7A7F88C
:101280000EA0827A3B8AF97D01FB02333B82FFF795
:101290009EBB0A2B00F019860D2B3FF498AB7A7E8B
:1012A000B7F90E10002A00F0ED8597F816E0B7F9AF
:1012B0000A40062212FB0E12A24240F326863A8A08
:1012C00097F817C0F88102EBCC0212B201463A82BD
:1012D000BBF81200BBF81440CDF80CC08DE81140EB
:1012E0009D4822F059FB9BF81630BBF80E2003EB0B
:1012F000430302EB4303ABF80E30FFF768BB338ABE
:10130000F27DF08103EBC20333826AE4338AF27D1B
:10131000F08103EBC20333824EE6338AF27DF08123
:1013200003EBC2033382FFF731BA338AF27DF081D7
:1013300003EBC203338213E594F905100591B6F966
:101340000E100491059996F816C0B6F90AE00A4401
:1013500004990CFB021272457ADC9BF81700BBF96A
:10136000102068E494F905100591B6F90E10049167
:10137000059996F816C0B6F90AE00A4404990CFBE0
:101380000212724555DC9BF81700BBF910203CE6B1
:1013900094F905100591B6F90E100491059996F887
:1013A00016C0B6F90AE00A4404990CFB0212724511
:1013B0005EDC9BF81700BBF91020FBE494F90510E4
:1013C0000591B6F90E100491059996F816C0B6F974
:1013D0000AE00A4404990CFB0212724519DC9BF8DE
:1013E0001700BBF91020FFF7FBB9B6F9102096F8EB
:1013F00017C0A4E6B6F9102096F817C0D4E6B6F9DF
:10140000102096F817C008E7B6F9102096F817C014
:1014100060E6ABF80EA0827ABBF810109BF81700BC
:1014200002FB001212B20021ABF810200491FFF76A
:10143000D7B9ABF80EA0827ABBF810109BF8170052
:1014400002FB001212B20021ABF810200491DCE57F
:10145000ABF80EA0827ABBF810109BF8170002FBC5
:10146000001212B20021ABF810200491FFF7E3BB89
:10147000ABF80EA0827ABBF810109BF8170002FBA5
:10148000001212B20021ABF81020049192E4334B09
:1014900093ED009A324B29EE299AF2EE0EAAF0EE65
:1014A000487AE9EE2A7A5E21642093ED00AA2D4B5A
:1014B000FDEEE77AD3ED00BACDED047ABDF9104028
:1014C000294B224693ED00BA4A231BF0BBFEABEE3C
:1014D000A99A20464A21F3EE047AB0EE687AABEE80
:1014E000677AF0EE487AE9EE2A7ABDEEC77AFDEE29
:1014F000E77A8DED057ACDED047ABDF91440BDF99A
:10150000105023462A461BF09DFEDFED187AE9EEC7
:101510006A7A2846214640F2FF73FDEEE77A2AEE0A
:1015200029AACDED047ABDF9102023F0DBF8DFED18
:10153000107AB2EE0A7AEAEE077A21465E238B2011
:10154000FDEEE77ACDED047ABDF910201BF07AFEAE
:101550009BF86820FEF7B8BF14FDFF1FE042FF1F95
:10156000EC42FF1FE442FF1FE842FF1F0000204241
:1015700000000B430D21AD481DF0ECFD0A21AB48E6
:101580001DF0E8FD0D982BF067FE17214FF4204267
:101590008DE80600BBF90A30A4485522002108F066
:1015A000CDFCA34B196800230A68ABF80E300D93ED
:1015B0000E930F938DF840300CAB4FF6E070622421
:1015C00099420C92ABF81040ABF81400ABF8120043
:1015D00005D0CA6849680DA81EF00EFC0C9A002AB6
:1015E000C0F2758540F0F88730238DF865302121F1
:1015F00011AB5D180ED02229C1F121060AD02C466C
:1016000014F8011B89481DF0A5FDC4F10103334402
:10161000DD42F5D10D2185481DF09CFD0A2183484E
:101620001DF098FD0D982BF017FE814B196851F8AD
:10163000043B0C9323236222ABF80E300DA84FF627
:10164000FF73ABF81020ABF81430ABF812301EF07B
:1016500085FCDDF83C90B9F1000F00F0C9804FF037
:1016600000084C46A045C246704E5CD2C8EB04044C
:10167000202C0D9928BF20242246414411A82BF08C
:1016800095FE1AAB1C4404F824AC4F46202F28BF0B
:10169000202711ABB844C7EB09091D461F44BD42C2
:1016A0003BD0DBF81C0015F8013B002847D00A2B83
:1016B0003CD00D2BF3D0047AA342F0D3427A9A4265
:1016C000EDD342681C1BE4B202EBC404A278CAB199
:1016D000E178B9B1717E00296FD1B6F90E2004927C
:1016E000F07DB6F9102096F816C00499BBF814E006
:1016F0000390BBF81200CDF808C08DE801404B48BC
:1017000022F04AF92179BBF80E309BF81620BD4231
:1017100001FB0233ABF80E30C3D1B9F1000F67D033
:101720000F9CA045A2D38DF844A0AEE7A6F80EA06A
:10173000827A338AF17D01FB02333382AFE70A2BD1
:1017400034D00D2BABD0727EB6F90E103AB396F8AA
:1017500016E0B6F90A40062212FB0E12A24242DD42
:10176000328A96F817C0F08102EBCC0212B2014621
:101770003282BBF81200BBF81440CDF80CC08DE8E3
:1017800011402A4822F008F99BF81630BBF80E20C9
:1017900003EB430302EB4303ABF80E307FE7B6F9EC
:1017A000102096F817C096F816E0E2E7338AF27D2B
:1017B000F08103EBC203338271E794F905100591C0
:1017C000B6F90E100491059996F816C0B6F90AE01C
:1017D0000A4404990CFB0212724518DC9BF81700AE
:1017E000BBF9102082E7B6F9102096F817C0C0E7C1
:1017F0000D210E481DF0AEFC0A210C481DF0AAFC7C
:101800000D982BF029FD9BF86820FEF75DBEABF824
:101810000EA0827ABBF810109BF8170002FB001292
:1018200012B20021ABF8102004915FE714FDFF1FF6
:10183000C8FAFF1F0D21A1481DF08CFC0A219F480A
:101840001DF088FC0D982BF007FD17214FF4204266
:101850008DE80600BBF90A3098483822002108F0CC
:101860006DFB974B196851F8043B0C9348224FF6D7
:10187000E07300240DA8ABF81020ABF80E40ABF8D5
:101880001430ABF812301EF069FB0C9AA242C0F281
:101890005B8440F0B18630238DF86530212111AB97
:1018A0005D180ED02229C1F121060AD02C4614F869
:1018B000011B82481DF04EFCC4F101033344DD429C
:1018C000F5D10D217D481DF045FC0A217B481DF016
:1018D00041FC0D982BF0C0FC794B196851F8043B82
:1018E0000C9323234822ABF80E300DA84FF6FF735C
:1018F000ABF81020ABF81430ABF812301EF02EFB12
:10190000DDF83C90B9F1000F00F0DC804FF00008EA
:101910004C46A045C246694E5CD2C8EB0404202C5C
:101920000D9928BF20242246414411A82BF03EFDEA
:101930001AAB1C4404F824AC4F46202F28BF2027A4
:1019400011ABB844C7EB09091D461F44BD423BD04B
:10195000DBF81C0015F8013B002847D00A2B3CD0CF
:101960000D2BF3D0047AA342F0D3427A9A42EDD3FE
:1019700042681C1BE4B202EBC404A278CAB1E1784D
:10198000B9B1717E00296FD1B6F90E200492F07DB5
:10199000B6F9102096F816C00499BBF814E003902D
:1019A000BBF81200CDF808C08DE80140434821F093
:1019B000F3FF2179BBF80E309BF81620BD4201FBE6
:1019C0000233ABF80E30C3D1B9F1000F7AD00F9CBF
:1019D000A045A2D38DF844A0AEE7A6F80EA0827A67
:1019E000338AF17D01FB02333382AFE70A2B34D017
:1019F0000D2BABD0727EB6F90E103AB396F816E006
:101A0000B6F90A40062212FB0E12A24242DD328AC9
:101A100096F817C0F08102EBCC0212B20146328276
:101A2000BBF81200BBF81440CDF80CC08DE8114093
:101A3000224821F0B1FF9BF81630BBF80E2003EBD3
:101A4000430302EB4303ABF80E307FE7B6F91020F7
:101A500096F817C096F816E0E2E7338AF27DF08137
:101A600003EBC203338271E794F905100591B6F9CF
:101A70000E100491059996F816C0B6F90AE00A44CA
:101A800004990CFB0212724509DC9BF81700BBF9A4
:101A9000102082E7B6F9102096F817C0C0E7ABF81F
:101AA0000EA0827ABBF810109BF8170002FB001200
:101AB00012B20021ABF8102004916EE714FDFF1F55
:101AC000C4FAFF1F0D21B4481DF044FB0A21B2489F
:101AD0001DF040FB0D982BF0BFFBB04BB0481A88AF
:101AE00062230024ABF81030012A4FF6E073ABF804
:101AF0000E40ABF81430ABF8123040F25783A94BCC
:101B0000A94A1B681B1A9B1002FB03F3A74A013367
:101B100083FB0267D919DA17C2EB612240F2E73181
:101B200001FB123303EB830300EB8301043150F814
:101B300023300C930DA81EF011FA0C9AA242C0F2A9
:101B4000548340F0BD8530238DF8653000260DF1BB
:101B500065052C4614F8011B8F481DF0FBFAC4F1F3
:101B600001033344DD42F5D10D218B481DF0F2FA1B
:101B70000A2189481DF0EEFA0D982BF06DFB874B7A
:101B8000854C1A8886482323ABF80E306223ABF8C5
:101B90001030012A4FF6FF73ABF81430ABF8123057
:101BA00000F27881824B196851F8043B119312A816
:101BB0001EF0D4F912A81FF0F1FF12982BF04CFB85
:101BC00094F86820FEF780BC0D2173481DF0C2FA1E
:101BD0000A2171481DF0BEFA9BF86820FEF774BC1C
:101BE0000D216D481DF0B6FA0A216B481DF0B2FABE
:101BF0000D982BF031FB17214FF420428DE80600A1
:101C0000BBF90A3064485522002108F097F9654B6A
:101C1000196851F8043B0C9362224FF6E0730024DC
:101C20000DA8ABF81020ABF80E40ABF81430ABF8B1
:101C300012301EF093F90C9AA242C0F2178240F0C3
:101C4000EA8430238DF86530212111AB5D180ED068
:101C50002229C1F121060AD02C4614F8011B4E4856
:101C60001DF078FAC4F101033344DD42F5D10D21B2
:101C700049481DF06FFA0A2147481DF06BFA0D988C
:101C80002BF0EAFA474B196851F8043B0C932323D5
:101C90006222ABF80E300DA84FF6FF73ABF814308C
:101CA000ABF81230ABF810201EF058F90F9B002B48
:101CB0003FF49EAD4FF000091C46A1459846CA4628
:101CC000354E5DD2C9EB0404202C0D9928BF202489
:101CD0002246494411A82BF069FB1AAB1C4404F8B6
:101CE00024AC4746202F28BF202711ABB944C7EBAF
:101CF00008081D461F44BD423BD0DBF81C0015F808
:101D0000013B002856D00A2B3DD00D2BF3D0047A8E
:101D1000A342F0D3427A9A42EDD342681C1BE4B24C
:101D200002EBC404A278CAB1E178B9B1717E00298E
:101D30007ED1B6F90E200492F07DB6F9102096F807
:101D400016C00499BBF814E00390BBF81200CDF85C
:101D500008C08DE80140104821F01EFE2179BBF833
:101D60000E309BF81620BD4201FB0233ABF80E305B
:101D7000C3D1B8F1000F3FF43BAD0F9CA145A1D3F7
:101D80008DF844A0ADE7A6F80EA0827A338AF17DE3
:101D900001FB02333382AEE714FDFF1FCCFAFF1FB5
:101DA000B8ACFF1FC4FAFF1FCDCCCCCC21053483C7
:101DB000C8FAFF1F0A2B34D00D2B9CD0727EB6F9C7
:101DC0000E103AB396F816E0B6F90A40062212FB56
:101DD0000E12A24242DD328A96F817C0F08102EB61
:101DE000CC0212B201463282BBF81200BBF814409A
:101DF000CDF80CC08DE81140BE4821F0CDFD9BF818
:101E00001630BBF80E2003EB430302EB4303ABF8A1
:101E10000E3070E7B6F9102096F817C096F816E065
:101E2000E2E7338AF27DF08103EBC203338262E79B
:101E300094F905100591B6F90E100491059996F8DC
:101E400016C0B6F90AE00A4404990CFB0212724566
:101E500009DC9BF81700BBF9102073E7B6F91020D6
:101E600096F817C0C0E7ABF80EA0827ABBF8101046
:101E70009BF8170002FB001212B20021ABF81020F1
:101E800004915FE7B7F9102097F817C097F816E0AC
:101E9000FFF71EBA984B994A1B681B1A9B1002FB4E
:101EA00003F3974A013383FB0267D919DA17C2EBB0
:101EB000612240F2E73101FB123303EB830300EBB5
:101EC0008301043150F8233070E63B8AFA7DF881B3
:101ED00003EBC2033B82FEF77ABD94F9051005912E
:101EE000B7F90E100491059997F816C0B7F90AE0F2
:101EF0000A4404990CFB0212724500F366819BF8B8
:101F00001700BBF91020FEF78CBDB7F9102097F829
:101F100017C0FFF7DDB97B4B19680DA851F8043BDA
:101F20000C931EF01BF8FEF70CBC764B19680DA83D
:101F300051F8043B0C931EF011F80C9A002ABEF6DF
:101F4000ACAB6E4B5242A3FB0213DB0803EB8301E5
:101F5000A2EB410230328DF86520002B00F0D583D2
:101F60002D25212400E00C46644AA2FB0312D2086E
:101F700002EB8200611EA3EB4003C9B21AA8084419
:101F8000303300F8243C1346002AECD1002D3EF4F7
:101F90008AABA31EDBB219461AAA13442D2203F8FA
:101FA000242CFEF780BB554B5242A3FB0213DB08E7
:101FB00003EB8301A2EB410230328DF86520002B48
:101FC00000F0AC83212400E00C464C4AA2FB031233
:101FD000D20802EB8200611EA3EB4003C9B21AA82B
:101FE0000844303300F8243C1346002AECD1002D7D
:101FF0003EF48CAFA31EDBB219461AAA13442D225D
:1020000003F8242CFEF782BF3C4B5242A3FB021381
:10201000DB0803EB8301A2EB410230328DF865202F
:10202000002B00F06F832D25212400E00C46334A5D
:10203000A2FB0312D20802EB8200611EA3EB400355
:10204000C9B21AA80844303300F8243C1346002AC9
:10205000ECD1002D3EF46EADA31EDBB219461AAAD8
:1020600013442D2203F8242CFEF764BD234B524267
:10207000A3FB0213DB0803EB8301A2EB4102303226
:102080008DF86520002B00F04F832D25212400E0E2
:102090000C461A4AA2FB0312D20802EB8200611E10
:1020A000A3EB4003C9B21AA80844303300F8243C1B
:1020B0001346002AECD1002D3FF4C7ADA31EDBB2BE
:1020C00019461AAA13442D2203F8242CBDE50B4B04
:1020D0005242A3FB0213DB0803EB8301A2EB410294
:1020E00030328DF86520002B00F0FA822D25212456
:1020F0000BE000BF14FDFF1FC4FAFF1FCDCCCCCCFA
:1021000021053483C8FAFF1F0C46BE4AA2FB031206
:10211000D20802EB8200611EA3EB4003C9B21AA8E9
:102120000844303300F8243C1346002AECD1002D3B
:102130003FF45EAAA31EDBB219461AAA13442D224D
:1021400003F8242CFFF754BAAE4B5242A3FB021300
:10215000DB0803EB8301A2EB410230328DF86520EE
:10216000002B00F0D8822D25212400E00C46A54A42
:10217000A2FB0312D20802EB8200611EA3EB400314
:10218000C9B21AA80844303300F8243C1346002A88
:10219000ECD1002D3FF483ABA31EDBB219461AAA83
:1021A00013442D2203F8242CFFF779BB964B1968B2
:1021B00012A851F8043B11931DF0D0FE119821F0A4
:1021C000CFFD12982BF048F8D9E4ABF80EA0827A34
:1021D000BBF810109BF8170002FB001212B200218E
:1021E000ABF810200491FEF71CBC864B5242A3FBB7
:1021F0000213DB0803EB8301A2EB410230328DF8BE
:102200006520002B00F08D822D25212400E00C4656
:102210007C4AA2FB0312D20802EB8200611EA3EBF0
:102220004003C9B21AA80844303300F8243C1346CE
:10223000002AECD13DB1A31EDBB219461AAA134401
:102240002D2203F8242C11AB5D183FF48DAC22290C
:10225000C1F121067FF47DAC86E40D216B481CF0B2
:1022600079FF0A2169481CF075FFBBF80A20143A6F
:1022700012B24FF478433E210A2022F033FA644B25
:102280009B684FF6FF7201205A21ABF80E00ABF8A5
:102290001010ABF81420ABF81220002B00F0E480F3
:1022A0004FF000081C46A0459946C246574F5FD2E2
:1022B000574BC8EB04041968202C28BF2024224661
:1022C000414411A82BF072F81AAB1C4404F824AC5A
:1022D0004E46202E28BF202611ABB044C6EB09097C
:1022E0001D461E44B5423BD0DBF81C0015F8013BEF
:1022F000002849D00A2B3ED00D2BF3D0027A93420E
:10230000F0D3417A9942EDD39A1A4168D2B201EBE7
:10231000C204A278CAB1E178B9B1797E002979D135
:10232000B7F90E200492F87DB7F9102097F816C07F
:102330000499BBF814E00390BBF81200CDF808C074
:102340008DE80140314821F027FB2179BBF80E30A0
:102350009BF81620B54201FB0233ABF80E30C3D117
:10236000B9F1000F00F08080294B9C68A0459FD3F5
:102370008DF844A0ACE7A7F80EA0827A3B8AF97DDD
:1023800001FB02333B82ADE70A2B34D00D2BA9D0E1
:102390007A7EB7F90E103AB397F816E0B7F90A400B
:1023A000062212FB0E12A2424ADD3A8A97F817C0A3
:1023B000F88102EBCC0212B201463A82BBF812005D
:1023C000BBF81440CDF80CC08DE811400F4821F047
:1023D000E3FA9BF81630BBF80E2003EB430302EB45
:1023E0004303ABF80E307DE7B7F9102097F817C01C
:1023F00097F816E0E2E73B8AFA7DF88103EBC20327
:102400003B826FE7CDCCCCCCC8FAFF1F14FDFF1F79
:10241000ACFDFF1F94F905100591B7F90E1004915A
:10242000059997F816C0B7F90AE00A4404990CFB1D
:102430000212724509DC9BF81700BBF9102078E7FF
:10244000B7F9102097F817C0B8E7ABF80EA0827A5A
:10245000BBF810109BF8170002FB001212B200210B
:10246000ABF81020049164E70D21B1481CF072FE16
:102470000A21AF481CF06EFEAE4B1B68013B032BDC
:102480003FF666A801A252F823F000BF0B2500001A
:10249000CD2400009D2400008F140000A64BD3ED36
:1024A000001AA64BD3ED000AA54B93ED000AA54BED
:1024B00061EEA91A93ED001A60EEA90A20EE290A2E
:1024C00013F07EFD9BF86820FDF7FEBF9E4BDFED0D
:1024D0009F7AD3ED006AB2EE0A7AE6EE877A4A2353
:1024E0005E216E20FDEEE77ACDED047ABDF9104055
:1024F00022461AF0A7FE882220465E234A211AF0BF
:10250000A1FE9BF86820FDF7DFBF8F4B884C93ED51
:10251000009AB2EE0AAAF2EE0E7AE9EE0A7A40F2D8
:10252000FF734A216C20FDEEE77A1D46CDED047A5B
:10253000BDF9102022F0D6F8DFED847A0095E9EE9F
:102540000A7A204614234A22FDEEE77ACDED047A7A
:10255000BDF91060314607F0C3FEF3EE007AE9EEF4
:102560004A7A5E2130462B46FDEEE77ACDED047ABD
:10257000BDF9102022F0B6F8B5EEC09AF1EE10FACF
:102580004FF04A0200954FF015034CBF6C218A2191
:10259000204607F0A5FE94F86820FDF795BF8C252E
:1025A00050264FF6FF789C270196CDF808800097BB
:1025B0002846314648239422E58126821AF07AFE85
:1025C0005421CDF808800097284601915C2394227D
:1025D0001AF070FEFEF7A7B95D4BA3FB0213DB08F0
:1025E00003EB8301A2EB410230328DF86520002B12
:1025F00000F08E8000257AE5554BA3FB0213DB0823
:1026000003EB8301A2EB410230328DF86520002BF1
:102610006FD02546A8E54E4BA3FB0213DB0803EB66
:102620008301A2EB410230328DF86520002B5DD092
:1026300025462BE5464BA3FB0213DB0803EB830186
:10264000A2EB410230328DF86520002B54D0254694
:10265000EAE48C252A224FF6E0779C260192029725
:1026600000962846114622822223E58194221AF000
:1026700021FE2E21029700962846019136239422AE
:102680001AF018FEFEF71DB9314BA3FB0213DB084D
:1026900003EB8301A2EB410230328DF8652073B366
:1026A00025468FE42A4BA3FB0213DB0803EB8301CF
:1026B000A2EB410230328DF86520A3B1002550E431
:1026C000234BA3FB0213DB0803EB8301A2EB4102C4
:1026D00030328DF86520002B3FF438AA254694E56A
:1026E00020210B4629E52121FDF7DDBF2121FFF740
:1026F000ACBA2121FFF7D3B82121FEF71BBA212163
:10270000FEF704BC20210B46A9E420210B4643E43C
:102710002121FEF76DBF20210B4640E520210B460D
:102720006BE420210B4689E520210B46C9E400BF5C
:1027300014FDFF1F081A0020DC42FF1FD442FF1FB8
:10274000D042FF1FD842FF1F1C50FF1F0000F6425F
:10275000CDCCCCCCFFFFFFFF2DE9F04F2DED048B4E
:10276000DFF8F0A3D14AD249DFF8EC939FEDD19A7C
:10277000DFEDD18A85B00024802350460A264FF42D
:1027800020578AF80430CAF8004023F097FD4FF430
:102790008063214620220AF12000CAF80830CAF8D6
:1027A0001440CAF81840CAF81C40CAF80C70CAF89D
:1027B000106023F0F1FDC0202AF046FD2146C02222
:1027C000054623F0E9FDBD4BC5F8B440D96ABC4AC3
:1027D000CAF85C1005F10C03CAF844300123C5F8AF
:1027E000B430CAF84830CAF85830B44BB548DB6B3F
:1027F000C5F8BC60914208BFCAF85C40934208BF6C
:1028000000232F606860CAF82050CAF84050AB4DD2
:10281000CAF84C40A948CAF86030AB4CAB4BEC63EB
:10282000AB49CAF864300024AA4BCAF89430022598
:10283000C162CAF850609D4AA749CAF86C50032685
:10284000A6488AF86A408AF88C408AF898408AF844
:102850009A40CAF8546023F031FD944A9E49A0483A
:1028600023F02CFD914A9C499E4823F027FD8F4A76
:1028700099499D4823F022FD8C4A97499B4823F0B3
:102880001DFD8A4A94499A4823F018FD874A9249C7
:10289000984823F013FD854A8F49974823F00EFD91
:1028A000824A8D49954823F009FD804A8A49944817
:1028B00023F004FD7D4A8849924823F0FFFC7B4ABF
:1028C0008549914823F0FAFC784A83498F4823F0E0
:1028D000F5FC764A80498E4823F0F0FC734A7E4925
:1028E0008C4823F0EBFC714A7B498B4823F0E6FCD3
:1028F0006E4A7949894823F0E1FC6C4A7649884858
:1029000023F0DCFC22462146864808F0E9F8714BAA
:1029100085488AF8644103F1180722462146CAF81F
:102920004C71CAF8684108F0DBF8BAF9A4217F4B72
:102930007F48CAF8984107F10C0C02F1010E1344CC
:1029400040F6CC4622462146CAF874C1AAF8A4E152
:10295000CAF88C31CAF89061CAF894618AF89C412F
:1029600008F0BEF8734ABAF8C831CAF8C04101335A
:1029700007F11806A2F12800042106F10C08AAF8B4
:10298000C831CAF8C431CAF8A8614FF4803608F0DB
:10299000A7F86948CAF8E461CAF8E861CAF8EC61C6
:1029A000CAF8F061CAF8CC8121F0ACFD224621467C
:1029B000624808F095F8224621466148CAF83C7200
:1029C0008AF85442CAF8584208F08AF85D4ACAF8B0
:1029D0006472A2F1180001218AF87C42CAF8804290
:1029E00008F07EF807F13003CAF88C324FF03A0352
:1029F000AAF8B6324FF00E03AAF8B8324FF0C1036E
:102A0000514AAAF8BA324FF000534FF01C0BCAF8E3
:102A1000BC3240F27763A2F118000121AAF8C0325B
:102A2000AAF8C2B2AAF8B4428AF8A84208F058F844
:102A300007F13003CAF8C4324FF03A03AAF8EE3275
:102A40004FF00E03AAF8F0324FF0C1033F4AAAF844
:102A5000F2324FF00053CAF8F43240F27763A2F139
:102A600018000121AAF8F832AAF8FAB2AAF8EC4242
:102A70008AF8E04208F034F807F13003CAF8FC3273
:102A80004FF03A03AAF826334FF00E03AAF8283382
:102A90004FF0C1032E4AAAF82A334FF00053CAF868
:102AA0002C3340F27763A2F1180057E04C3EFF1F31
:102AB000ED340200390F8C3B08132F3D0002FF1F3D
:102AC00071ED010000D80220212C02000320003803
:102AD000D92B0200C4F302005D8A0100DC50FF1F05
:102AE000E450FF1FEC50FF1FF450FF1FFC50FF1F6E
:102AF0000451FF1F0C51FF1F1451FF1F1C51FF1FDA
:102B00002451FF1F2C51FF1F3451FF1F3C51FF1F49
:102B10004451FF1F4C51FF1F5451FF1F5C51FF1FB9
:102B20006451FF1F6C51FF1F9451FF1FF541ED5E73
:102B3000C851FF1F1452FF1F2452FF1F5C52FF1F7A
:102B40008452FF1FC452FF1FFC52FF1F3453FF1F4C
:102B50006C53FF1F2050FF1F1072FF1F0121AAF8A6
:102B60003033AAF832B3AAF824438AF8184307F09E
:102B7000B7FF07F13003CAF834334FF03A03AAF82D
:102B80005E334FF00E03AAF860334FF0C103ED4AF5
:102B9000AAF862334FF00053CAF8643340F2776307
:102BA000A2F118000121AAF86833AAF86AB3AAF8BA
:102BB0005C438AF8504307F093FF07F13003CAF8EB
:102BC0006C334FF03A03AAF896334FF00E03AAF88D
:102BD00098334FF0C103DC4AAAF89A334FF0005300
:102BE000CAF89C3340F27763A2F118000121AAF8D9
:102BF000A033AAF8A2B3AAF894438AF8884307F04E
:102C00006FFF07F13003CAF8A4334FF03A03AAF874
:102C1000CE334FF00E03AAF8D0334FF0C103CB4AA6
:102C2000AAF8D2334FF00053CAF8D43340F2776396
:102C3000AAF8D833A2F128000421AAF8DAB3AAF836
:102C4000CC438AF8C04307F04BFFC14ACAF8F4638B
:102C5000A2F128000421CAF8F863CAF8FC63CAF894
:102C60000064CAF8DC8307F03BFFBA4ACAF82C6458
:102C7000A2F128000421CAF83064CAF83464CAF802
:102C80003864CAF8148407F02BFFB34ACAF86464A6
:102C9000A2F128000421CAF86864CAF86C64CAF872
:102CA0007064CAF84C8407F01BFFAC4ACAF89C64F5
:102CB000A2F128000421CAF8A064CAF8A464CAF8E2
:102CC000A864CAF8848407F00BFFA54ACAF8D46444
:102CD000A2F128000421CAF8D864CAF8DC64CAF852
:102CE000E064CAF8BC8407F0FBFE9E4ACAF80C6593
:102CF000A2F128000421CAF81065CAF81465CAF8C0
:102D00001865CAF8F48407F0EBFE974ACAF84465E0
:102D1000A2F128000421CAF84865CAF84C65CAF82F
:102D20005065CAF82C8507F0DBFE904ACAF87C652E
:102D3000A2F128000421CAF88065CAF88465CAF89F
:102D40008865CAF8648507F0CBFE894ACAF8B4657D
:102D5000A2F128000421CAF8B865CAF8BC65CAF80F
:102D6000C065CAF89C8507F0BBFE824ACAF8EC65CC
:102D7000A2F128000421CAF8F065CAF8F465CAF87F
:102D8000F865CAF8D48507F0ABFE7B4ACAF824661A
:102D9000A2F128000421CAF82866CAF82C66CAF8ED
:102DA0003066CAF80C8607F09BFE7448CAF85C6669
:102DB000CAF86066CAF86466CAF86866CAF84486E3
:102DC00021F0A0FB224621466D4807F089FE2246ED
:102DD00021466C48CAF8B4768AF8CC46CAF8D04680
:102DE00007F07EFE224621466748CAF8DC768AF85C
:102DF000F446CAF8F84607F073FE224621466348B7
:102E0000CAF804778AF81C47CAF8204707F068FE1A
:102E1000224621465E48CAF82C778AF84447CAF809
:102E2000484707F05DFE224621465A48CAF85477C3
:102E30008AF86C47CAF8704707F052FE22462146CE
:102E40005548CAF87C778AF89447CAF8984707F03B
:102E500047FE5248CAF8A4778AF8BC47CAF8C04768
:102E600021F050FB224621464D4807F039FE22460C
:102E700021464C48CAF804788AF81C48CAF8204809
:102E800007F02EFE224621464748CAF82C788AF8D9
:102E90004448CAF8484807F023FE224621464348E2
:102EA000CAF854788AF86C48CAF8704807F018FED7
:102EB000224621463E48CAF87C788AF89448CAF8E7
:102EC000984807F00DFE224621463A48CAF8A478F1
:102ED0008AF8BC48CAF8C04807F002FE364ACAF869
:102EE000CC78A2F1280004218AF8E448CAF8E8481E
:102EF00007F0F6FD314ACAF80C69A2F12800042156
:102F0000CAF81069CAF81469CAF81869CAF8F488C6
:102F100007F0E6FD2A4ACAF84469A2F12800042114
:102F2000CAF84869CAF84C69CAF85069CAF82C89C5
:102F300007F0D6FD234ACAF87C69A2F128000421D3
:102F400042E000BFA453FF1FDC53FF1F2454FF1FA8
:102F50005C54FF1F9454FF1FCC54FF1F0455FF1FE8
:102F60003C55FF1F7455FF1FAC55FF1FE455FF1F55
:102F70001C56FF1F5456FF1F8C56FF1F9C56FF1FE9
:102F8000D456FF1FFC56FF1F2457FF1F4C57FF1F2F
:102F90007457FF1F9C57FF1FC457FF1FEC57FF1F9D
:102FA0002458FF1F4C58FF1F7458FF1F9C58FF1FC9
:102FB000C458FF1FEC58FF1F3C59FF1F7459FF1FD7
:102FC000AC59FF1FE459FF1FCAF88069CAF8846929
:102FD000CAF88869CAF8648907F082FDF24ACAF81B
:102FE000B469A2F128000421CAF8B869CAF8BC691A
:102FF000CAF8C069CAF89C8907F072FDEB4ACAF8A2
:10300000EC69A2F128000421CAF8F069CAF8F46951
:10301000CAF8F869CAF8D48907F062FDE44ACAF828
:10302000246AA2F128000421CAF8286ACAF82C6A86
:10303000CAF8306ACAF80C8A07F052FDDD4ACAF8AD
:103040005C6AA2F128000421CAF8606ACAF8646ABE
:10305000CAF8686ACAF8448A07F042FDD64ACAF834
:10306000946AA2F128000421CAF8986ACAF89C6AF6
:10307000CAF8A06ACAF87C8A07F032FDCF4ACAF8BB
:10308000CC6AA2F128000421CAF8D06ACAF8D46A2E
:10309000CAF8D86ACAF8B48A07F022FDC84ACAF842
:1030A000046BA2F128000421CAF8086BCAF80C6B63
:1030B000CAF8106BCAF8EC8A07F012FDC14ACAF8C8
:1030C0003C6BA2F128000421CAF8406BCAF8446B9B
:1030D000CAF8486BCAF8248B07F002FDBA4ACAF84E
:1030E000746BA2F128000421CAF8786BCAF87C6BD3
:1030F000CAF8806BCAF85C8B07F0F2FCB348CAF8D8
:10310000AC6BCAF8B06BCAF8B46BCAF8B86BCAF843
:10311000948B21F011FAAE4821F00EFAAD4821F05F
:103120000BFAAD4821F008FAAC4821F005FAAC489A
:1031300021F002FAAB4821F0FFF9AB4821F0FCF98D
:10314000AA4821F0F9F9AA4821F0F6F909F134006A
:1031500021F0F2F909F51C7021F0EEF9294609F584
:10316000996209F2AC4007F0BBFC3C37294609F2F2
:10317000EC4209F59A60C9F8AC74A9F8C44407F0A8
:10318000AFFC294609F5A26209F2F440C9F8D074EF
:10319000A9F8E84407F0A4FC294609F2345209F5DD
:1031A000A360C9F8F474A9F80C4507F099FC294606
:1031B00009F5AB6209F23C50C9F81875A9F8304519
:1031C00007F08EFC294609F27C5209F5AC60C9F87B
:1031D0003C75A9F8544507F083FC09F2AC52042170
:1031E00009F28450C9F86075A9F8784507F078FCB1
:1031F00009F2E452042109F2BC50C9F89C65C9F8EF
:10320000A065C9F8A465C9F8A865C9F8848507F060
:1032100067FC09F21C62042109F2F450C9F8D46574
:10322000C9F8D865C9F8DC65C9F8E065C9F8BC8596
:1032300007F056FC09F25462042109F22C60C9F827
:103240000C66C9F81066C9F81466C9F81866C9F89A
:10325000F48507F045FC09F28C62042109F26460F0
:10326000C9F84466C9F84866C9F84C66C9F850669A
:10327000C9F82C8607F034FC09F2C462042109F273
:103280009C60C9F87C66C9F88066C9F88466C9F88C
:103290008866C9F8648607F023FC09F2FC62042101
:1032A00009F2D460C9F8B466C9F8B866C9F8BC6652
:1032B000C9F8C066C9F89C8607F012FC09F234729E
:1032C000042109F20C70C9F8EC66C9F8F066C9F877
:1032D000F466C9F8F866C9F8D48607F001FC09F26B
:1032E0006C72042109F24470C9F82467C9F8286790
:1032F000C9F82C67C9F83067C9F80C8707F0F0FBEC
:1033000009F2A472042109F27C70C9F85C67C9F85B
:103310006067C9F86467C9F86867C9F8448707F047
:10332000DFFB09F2DC72042109F2B470C9F894677A
:10333000C9F89867C9F89C67C9F8A067C9F87C877D
:1033400007F0CEFB09F61402042109F2EC70C9F86B
:10335000CC67C9F8D067C9F8D467C9F8D867C9F885
:10336000B48707F0BDFB294609F6580209F6240088
:10337000C9F80468C9F80868C9F80C68C9F8106881
:10338000C9F8EC8707F0ACFB08F12403C9F824382E
:10339000184BC9F83C38A3F57C53183B4FF48057C1
:1033A000C9F8403828E000BF1C5AFF1F545AFF1FBD
:1033B0008C5AFF1FC45AFF1FFC5AFF1F345BFF1FAC
:1033C0006C5BFF1FA45BFF1FDC5BFF1FEC5BFF1F41
:1033D000285EFF1F6460FF1FA062FF1FDC64FF1FE9
:1033E0001867FF1F5469FF1F906BFF1FCC6DFF1FF5
:1033F0000870FF1F00B28E04F74BC9F844782946C5
:1034000009F69402C9F8483809F50660C9F84C482D
:10341000C9F85048C9F8544807F062FB08F1240382
:10342000C9F86038ED4BC9F87838A3F57C53183BE0
:10343000C9F87C38E84BC9F88078294609F50D624F
:10344000C9F8843809F69C00C9F88848C9F88C483E
:10345000C9F8904807F044FB08F12403C9F89C38E8
:10346000DE4BC9F8B438A3F57C53183BC9F8B8381B
:10347000D94BC9F8BC78294609F60C12C9F8C038EE
:1034800009F6D800C9F8C448C9F8C848C9F8CC48F2
:1034900007F026FB08F12403C9F8D838CF4BC9F848
:1034A000F038A3F57C53183BC9F8F438CA4BC9F877
:1034B000F878294609F64812C9F8FC3809F61410BC
:1034C000C9F80049C9F80449C9F8084907F008FBD8
:1034D00008F12403C9F81439C04BC9F82C39A3F5F5
:1034E0007C53183BC9F83039BB4BC9F834792946AD
:1034F00009F68412C9F8383909F51560C9F83C494C
:10350000C9F84049C9F8444907F0EAFA08F1240328
:10351000C9F85039B14BC9F86839A3F57C53183B49
:10352000C9F86C39AC4BC9F8743909F6B4120421E6
:10353000C9F8707909F68C10C9F87849C9F87C493E
:10354000C9F8804907F0CCFA09F6EC12042109F613
:10355000C410C9F8A469C9F8A869C9F8AC69C9F860
:10356000B069C9F88C8907F0BBFA09F62422042156
:1035700009F6FC10C9F8DC69C9F8E069C9F8E46922
:10358000C9F8E869C9F8C48907F0AAFA09F65C2203
:10359000042109F63420C9F8146AC9F8186AC9F870
:1035A0001C6AC9F8206AC9F8FC8907F099FA09F67B
:1035B0009422042109F66C20C9F84C6AC9F8506AB3
:1035C000C9F8546AC9F8586AC9F8348A07F088FA01
:1035D00009F6CC22042109F6A420C9F8846AC9F8A6
:1035E000886AC9F88C6AC9F8906AC9F86C8A07F0C9
:1035F00077FA09F6F422012109F6DC20C9F8BC6A41
:10360000C9F8C06AC9F8C46AC9F8C86AC9F8A48AFE
:1036100007F066FA40F27763A9F8103B4FF00053C9
:10362000C9F80C3B4FF0C103A9F80A3B4FF00E0359
:10363000A9F8083B4FF03A0309F62C320121A9F80A
:1036400012BBA9F8063B09F6143008F10C03A9F8DF
:10365000044BC9F8DC3A89F8F84A07F041FA08F156
:103660000C03C9F8143B4FF03A03A9F83E3B4FF066
:103670000E03A9F8403B4FF0C103A9F8423B4FF0BD
:103680000053C9F8443B40F2776309F664320121E4
:10369000A9F8483BA9F84ABB09F64C30A9F83C4BBD
:1036A00089F8304B07F01CFA08F10C03C9F84C3BC1
:1036B0004FF03A03A9F8763B4FF00E03A9F8783B98
:1036C0004FF0C103A9F87A3B4FF00053C9F87C3B97
:1036D00040F2776309F69C320121A9F8803BA9F8F2
:1036E00082BB09F68430A9F8744B89F8684B07F05F
:1036F000F7F908F10C03C9F8843B4FF03A03A9F835
:10370000AE3B4FF00E03A9F8B03B4FF0C103A9F850
:10371000B23B4FF00053C9F8B43B40F2776309F66F
:10372000D4320121A9F8B83BA9F8BABB09F6BC30DC
:10373000A9F8AC4B89F8A04B07F0D2F908F10C03BB
:10374000C9F8BC3B4FF03A03A9F8E63B4FF00E0333
:10375000A9F8E83B4FF0C103A9F8EA3B4FF000534A
:10376000C9F8EC3B40F2776309F60C420121A9F855
:10377000F03BA9F8F2BB09F6F430A9F8E44B89F85C
:10378000D84B07F0ADF908F10C03C9F8F43B4FF042
:103790003A03A9F81E3C4FF00E03A9F8203C4FF065
:1037A000C103A9F8223C4FF00053C9F8243C40F271
:1037B0007763A9F8283C09F654420421A9F82ABCE9
:1037C00009F62C40A9F81C4C89F8104C07F088F930
:1037D00009F68C42042103E080F9855A00B28E0478
:1037E00009F66440C9F8446CC9F8486CC9F84C6CD7
:1037F000C9F8506CC9F82C8C07F072F909F6C4426C
:10380000042109F69C40C9F87C6CC9F8806CC9F8A1
:10381000846CC9F8886CC9F8648C07F061F9294692
:1038200009F6085209F6D440C9F8B46CC9F8B86C66
:10383000C9F8BC6CC9F8C06CC9F89C8C07F050F989
:1038400008F12403C9F8D43C6F4BC9F8EC3CA3F54C
:103850007C53183BC9F8F03C6C4BC9F8F47C09F672
:1038600028520121C9F8F83C09F5516042F2CC0513
:10387000C9F8FC4CC9F8004DC9F8044D07F030F9FF
:103880009FED5F7B08F13003C826C9F8103D49F869
:10389000056021464FF4006209F62C508DED007B47
:1038A00022F07AFD214640F67C32594822F074FD20
:1038B00042F2AC0742F2AA0C42F2AE054FF400739A
:1038C00029F80C3029F8073029F8053042F2A8030E
:1038D00042F2B40629F8034042F2B60342F2B00BBA
:1038E00029F8034042F2B80309F5035529F80340CB
:1038F00042F2BA0342F2B20E29F8034042F2BC038C
:1039000042F2C40029F8034042F2BE0342F2C6016B
:1039100029F8034042F2C80242F2C2034FF4F5779D
:103920004FF0F50C29F8067029F80B402C8029F887
:103930000EC029F8034029F8004029F8014029F871
:10394000024000260027A5F6963540F2BE5B28E02F
:103950003046394622F07EF827F03EFC0134A3B20F
:103960005B4525F8020F1CB25AD007EE904AB8EE1C
:10397000E78A68EE097A17EE900A22F0C9F941EC5D
:10398000100B27F051FC68EE287A57EC106B17EEFD
:10399000900A22F0BDF941EC100B27F045FC8DEDAB
:1039A000000B3046394600221A4B22F055FA00220D
:1039B000194B22F051FA002206460F46154BDDE95D
:1039C000000122F049FA0022144B22F06FFB02465C
:1039D0000B463046394622F03DF8002200230646C9
:1039E0000F4627F0CFFB00220B4B0028B0D100225E
:1039F000094B3046394622F02BF827F0EDFBADE7B6
:103A0000000000000000000000B28E0480F9855A1A
:103A10003C87FF1F00805B400000E03F0000084043
:103A2000C74EC84C42F2CA0306F5805229F803B0CB
:103A300006F6D870042107F053F84FF48035A4F14E
:103A4000C0020421A4F1E800C6F8F05FC6F8F45FF4
:103A5000C6F8F85FC6F8FC5FC6F8D88F07F040F8E4
:103A6000B94E44F8D05CA4F198020221A4F1B00050
:103A700044F8CC5C44F8C85C44F8C45C44F8E88C76
:103A8000002507F02DF8A4F170020221A4F18800AE
:103A900044F8B06C44F8905C44F88C5C0C3607F049
:103AA0001FF80121A94844F8886C21F05DFEA84B5D
:103AB000A8491A6844F8685C42F400421A600A682F
:103AC00044F8645C42F002020A601A68A24842F0BC
:103AD00002021A600368AB4240DBA04B1B68AB429A
:103AE0003CDB9F4A4FF0824313601368002BFCDBE2
:103AF0009C4D9D48DFF8E4E29C499D4B9D4A9E4EBB
:103B00009E4F4BF2100CC5F800C000250560012047
:103B1000CEF80000DFF8C8E2C1F800E04FF48031D1
:103B20001960974B1360974A32603D60964D30673D
:103B3000DFF8B0E200F18E40286005F5DF35CEF801
:103B4000001005F5C0759148914947F8503C4FF475
:103B5000C063C6F880202B6003600B608D4ADAF8E2
:103B6000E4308D498D484FF4C0651560022219601C
:103B70009A809AF8E810186101F1804101F504314A
:103B800040F20110A5F50065D880DD609A604FF421
:103B9000807000228D250626D8829A82D8839A6169
:103BA0009E837F480A700D709AF8E8506A4B14F8AB
:103BB000601C05704FF080757A481D601860614B7D
:103BC00039B9794879490122D025057003F8602C6C
:103BD0000A609AF8E81004F85F2C4B119B0003F17F
:103BE00060430126DFF800A2714DDFF8009201F179
:103BF000100003F5614301F01F026E4906FA02F25C
:103C00004FF0000B41F820501A606B4844F85CAC50
:103C10000AF5167344F8583C04F854BC04F853BC35
:103C200044F850BC04F84CBC13F0C2FF634A64492A
:103C3000614822F043FB0AF50873624844F8443CAB
:103C400044F848AC04F840BC04F83FBC44F83CBC21
:103C500004F838BC13F0ACFF584A5949594822F0CF
:103C60002DFB0AF5D873584844F8303C44F834AC7E
:103C700004F82CBC04F82BBC44F828BC04F824BC81
:103C800013F096FF4D4A4E494F4822F017FB0AF5B4
:103C9000F4734E4844F81C3C44F820AC04F818BCBB
:103CA00004F817BC44F814BC04F810BC13F080FFEF
:103CB000424A4349454822F001FB0AF1B80344480F
:103CC00044F80C3C0AF5247344F8083C04F804BC9E
:103CD00004F803BCC4F800B084F804B013F068FF23
:103CE000364A37493A4822F0E9FA0AF1B803394826
:103CF000A3600AF53273E36084F810B084F811B061
:103D0000C4F814B084F818B013F052FF2B4A2C49B1
:103D1000304822F0D3FA0AF1B8032F48E3610AF5DC
:103D20005C73236284F824B084F825B0C4F828B00A
:103D300084F82CB013F03CFF204A214958E000BF22
:103D40000883FF1F0094FF1F3CF402000451FF1F73
:103D50003C8004404080044000F0024080F002407B
:103D600000F1024004F1024060F0024008F002401D
:103D70000CF0024010F0024014F00240E0F002406B
:103D80001B1F0100001F1F1F88F002400CB00440E1
:103D900018B0044004B00440E003FF1F22F00240CA
:103DA0001B8000400100009040E400E008E100E0DA
:103DB000DD8701000002FF1FA493FF1F4C3EFF1F81
:103DC000B5960000B893FF1FCC93FF1FE093FF1F31
:103DD000F493FF1F0894FF1F1C94FF1F04F0024080
:103DE000010000078CF002406C51FF1F707AFF1F2A
:103DF000D44822F063FA0AF1B803D34823630AF5E2
:103E00006A73636384F838B084F839B0C4F83CB09E
:103E100084F840B013F0CCFECC4ACD49CA4822F019
:103E20004DFA0AF1B803CB4863640AF57873A364CA
:103E300084F84CB084F84DB0C4F850B084F854B055
:103E400013F0B6FEC14AC249C24822F037FA0AF15D
:103E5000B803C148A3650AF583630AF54E75E365A7
:103E600084F860B084F861B0C4F864B084F868B0D5
:103E700013F09EFEB54AB649B74822F01FFAA5F5E1
:103E80002073B648E366256784F874B084F875B08B
:103E9000C4F878B084F87CB013F08AFEAB4AAC4921
:103EA000AE4822F00BFAA5F52073AD48C4F8803077
:103EB000A5F13803C4F8843084F888B084F889B058
:103EC000C4F88CB084F890B013F072FE9F4AA049F9
:103ED000A34822F0F3F9A5F1A803A248C4F898304A
:103EE000A5F51273C4F8943084F89CB084F89D60F2
:103EF000C4F8A0B084F8A4B013F05AFE934A9449D1
:103F0000984822F0DBF9A5F512739748C4F8A83059
:103F100005F13803C4F8AC3084F8B0B084F8B1606F
:103F2000C4F8B4B084F8B8B013F042FE874A8849A8
:103F30008D4822F0C3F9A5F512738C48C4F8BC3043
:103F400005F1A803C4F8C03084F8C4B084F8C56093
:103F5000C4F8C8B084F8CCB013F02AFE7B4A7C4980
:103F6000824822F0ABF9A5F512738148C4F8D0302D
:103F7000C4F8D45084F8D8B084F8D960C4F8DCB060
:103F800084F8E0B013F014FE704A7149784822F0CA
:103F900095F9A5F170037748C4F8E830A5F50873E2
:103FA000C4F8E43084F8ECB084F8ED60C4F8F0B004
:103FB00084F8F4B013F0FCFD644A65496D4822F0C2
:103FC0007DF9A5F508736C48C4F8F83005F1700365
:103FD000C4F8FC3084F800B184F80161C4F804B17D
:103FE00084F808B113F0E4FD584A5949624822F0B8
:103FF00065F9A5F508736148C4F80C3105F1E003D3
:10400000C4F8103184F814B184F81561C4F818B1FB
:1040100084F81CB113F0CCFD4C4A4D49574822F0AE
:104020004DF9A5F508735648C4F82031A5F13803B9
:10403000C4F8243184F828B184F82961C4F82CB17B
:1040400084F830B113F0B4FD4149404A4C4822F0A5
:1040500035F90AF5F5630AF5A6624A48C4F838311D
:10406000C4F8342184F83CB184F83D61C4F840B10F
:1040700084F844B113F09CFD3549344A414822F09C
:104080001DF905F58E630AF5CB623F48C4F84C3143
:10409000C4F8482184F850B184F851B1C4F854B13F
:1040A00084F858B113F084FD284A2949364822F093
:1040B00005F905F552733548C4F85C31A9F5C673A6
:1040C000C4F8603184F864B184F86561C4F868B1FB
:1040D00084F86CB113F06CFD1C4A1D492B4822F08A
:1040E000EDF805F552732A48C4F87031A9F5AA73A2
:1040F000C4F8743184F878B184F87961C4F87CB17B
:1041000084F880B113F054FD104A1149204822F080
:10411000D5F805F552731F48C4F88431A9F58E739C
:10412000C4F8883184F88CB184F88D61C4F890B1FA
:1041300084F894B113F03CFD044A0549154822F077
:10414000BDF829E01C94FF1F3094FF1F4C3EFF1F59
:10415000B59600004494FF1F5894FF1F6C94FF1FF6
:104160008094FF1F9494FF1FA894FF1FBC94FF1F0F
:10417000D094FF1FE494FF1FF894FF1F0C95FF1FBE
:104180002095FF1F3495FF1F4895FF1F5C95FF1F6B
:104190007095FF1F8495FF1F05F55273D848C4F82A
:1041A0009831A9F1E403C4F89C3184F8A0B184F8F3
:1041B000A161C4F8A4B184F8A8B113F0F9FCD14905
:1041C000D14ACF484FF0020822F078F8A9F5C6731B
:1041D0000AF5D762CD48C4F8B031C4F8AC2184F8F0
:1041E000B58184F8B4B1C4F8B8B184F8BCB113F0A7
:1041F000DFFCC449C44AC54822F060F8A9F5AA7397
:104200000AF5DC62C248C4F8C43184F8C981C4F834
:10421000C02184F8C8B1C4F8CCB184F8D0B113F08F
:10422000C7FCB849B84ABA4822F048F8A9F58E73D5
:104230000AF5E162B748C4F8D83184F8DD81C4F8E2
:10424000D42184F8DCB1C4F8E0B184F8E4B113F00F
:10425000AFFCAC49AC4AAF4822F030F8A9F1E40316
:104260000AF5E662AC48C4F8EC3184F8F181C4F890
:10427000E82184F8F0B1C4F8F4B184F8F8B113F08F
:1042800097FCA14A9F49A44822F018F8A9F5377372
:10429000A248C4F80032A5F52E73C4F8FC3184F8A6
:1042A000058284F804B2C4F808B284F80CB213F0A2
:1042B0007FFC954A9349994822F000F8A5F52E73A2
:1042C0009748C4F81032A9F52973C4F8143284F859
:1042D000198284F818B2C4F81CB284F820B213F022
:1042E00067FC894A87498E4821F0E8FFA5F52E73BF
:1042F0008C48C4F82432A9F51B73C4F8283284F81A
:104300002D8284F82CB2C4F830B284F834B213F0A1
:104310004FFC7D4A7B49834821F0D0FFA5F52E73E1
:104320008148C4F83832A9F50D73C4F83C3284F8DA
:10433000418284F840B2C4F844B284F848B213F021
:1043400037FC714A6F49784821F0B8FFA5F1A803FE
:104350007648C4F84C3205F68413C4F8503284F819
:1043600054B284F85562C4F858B284F85CB213F0C1
:104370001FFC654A63496D4821F0A0FFA5F1700359
:104380006B48C4F8603205F5E963C4F8643284F818
:1043900068B284F86962C4F86CB284F870B213F041
:1043A00007FC594A5749624821F088FF05F1E003AC
:1043B0006048C4F87432604BC4F8783284F87CB238
:1043C00084F87D62C4F880B284F884B213F0F0FB04
:1043D0004D4A4C49574821F071FF05F58E63574807
:1043E000C4F8883205F59563C4F88C3284F890B22D
:1043F00084F891B2C4F894B284F898B213F0D8FB60
:10440000414A40494D4821F059FF05F58E634C481B
:10441000C4F89C3205F59C63C4F8A03284F8A4B2B9
:1044200084F8A5B2C4F8A8B284F8ACB213F0C0FB0B
:10443000354A3449424821F041FF05F58E63414831
:10444000C4F8B03205F5A363C4F8B43284F8B8B246
:1044500084F8B9B2C4F8BCB284F8C0B213F0A8FBB7
:10446000294A2849374821F029FF05F58E63364847
:10447000C4F8C43205F5AA63C4F8C83284F8CCB2D3
:1044800084F8CDB2C4F8D0B284F8D4B213F090FB63
:104490001D4A1C492C4821F011FF05F58E632B485D
:1044A000C4F8D83205F5B163C4F8DC3284F8E0B260
:1044B00084F8E1B2C4F8E4B284F8E8B213F078FB0F
:1044C000114A1049214821F0F9FE05F58E63204874
:1044D000C4F8EC3205F5B863C4F8F03284F8F4B2ED
:1044E00084F8F5B2C4F8F8B284F8FCB213F060FBBB
:1044F000054A0449164821F0E1FE05F58E6329E0DE
:104500009895FF1FB59600004C3EFF1FAC95FF1F0E
:10451000C095FF1FD495FF1FE895FF1FFC95FF1F57
:104520001096FF1F2496FF1F3896FF1F4C96FF1F03
:104530006096FF1F7496FF1F906BFF1F8896FF1FEA
:104540009C96FF1FB096FF1FC496FF1FD896FF1FB3
:10455000EC96FF1FD248C4F8003305F5BF63C4F8DA
:10456000043384F808B384F809B3C4F80CB384F8AE
:1045700010B313F01DFBCB4ACB49C94821F09EFE76
:1045800005F58E63C948C4F8143305F5C663C4F84D
:10459000183384F81CB384F81DB3C4F820B384F82E
:1045A00024B313F005FBBF4ABF49C04821F086FE83
:1045B000A5F13803BE48C4F82833BE4BC4F82C33E9
:1045C00084F830B384F83163C4F834B384F838B372
:1045D00013F0EEFAB34AB449B54821F06FFEB64B7A
:1045E000B648C4F84033C4F83C5384F844B384F864
:1045F0004563C4F848B384F84CB313F0D9FAA94A18
:10460000A949AE4821F05AFE05F13803AC48C4F878
:104610005033AC4BC4F8543384F858B384F859631E
:10462000C4F85CB384F860B313F0C2FA9D4A9E49A3
:10463000A34821F043FE05F17003A348C4F8643396
:10464000A24BC4F8683384F86CB384F86D63C4F883
:1046500070B384F874B313F0ABFA924A92499A4853
:1046600021F02CFE05F1A8039948C4F87833994B42
:10467000C4F87C3384F880B384F88163C4F884B3CD
:1046800084F888B313F094FA864A8749904821F059
:1046900015FE05F5E9639048C4F88C33A9F5377326
:1046A000C4F8903384F894B384F89563C4F898B34D
:1046B00084F89CB313F07CFA7A4A7B49864821F04F
:1046C000FDFD05F5E9638548C4F8A033A9F56D73D0
:1046D000C4F8A43384F8A8B384F8A963C4F8ACB3CD
:1046E00084F8B0B313F064FA6E4A6F497B4821F046
:1046F000E5FD05F684137A48C4F8B433A9F5377399
:10470000C4F8B83384F8BCB384F8BDB3C4F8C0B3FC
:1047100084F8C4B313F04CFA624A6349704821F03C
:10472000CDFD05F684136F48C4F8C833A9F56D7341
:10473000C4F8CC3384F8D0B384F8D1B3C4F8D4B37C
:1047400084F8D8B313F034FA564A5749654821F033
:10475000B5FD5E4B6448C4F8DC33A9F52973C4F891
:10476000E03384F8E4B384F8E563C4F8E8B384F88C
:10477000ECB313F01DFA4B4A4B495B4821F09EFD08
:10478000524B5A48C4F8F033A9F56473C4F8F433B3
:1047900084F8F8B384F8F963C4F8FCB384F800B47F
:1047A00013F006FA3F4A4049504821F087FD424B3A
:1047B0004F48C4F80434A9F50D73C4F8083484F8DC
:1047C0000CB484F80DB4C4F810B484F814B413F025
:1047D000EFF9344A3449464821F070FD364B4548DC
:1047E000C4F81834A9F55B73C4F81C3484F820B4F9
:1047F00084F821B4C4F824B484F828B413F0D8F9A8
:10480000284A29493B4821F059FD2E4B3A48C4F823
:104810002C34A9F52973C4F8303484F834B484F8FE
:1048200035B4C4F838B484F83CB413F0C1F91D4A67
:104830001D49314821F042FD224B3048C4F8403434
:10484000A9F56473C4F8443484F848B484F849B4CE
:10485000C4F84CB484F850B413F0AAF9114A1249C0
:10486000264821F02BFD134B2548C4F85434A9F5F4
:104870000D73C4F8583484F85CB484F85D64C4F8EB
:1048800060B484F864B413F093F9064A06491C48EE
:1048900021F014FD074B1B48C4F8683434E000BF16
:1048A0000097FF1F4C3EFF1FB59600001497FF1F97
:1048B0002897FF1F1867FF1FA062FF1F3C97FF1F6D
:1048C0005097FF1FDC64FF1F6497FF1F6460FF1F8A
:1048D0007897FF1F5469FF1F8C97FF1FA097FF1F3A
:1048E000B497FF1FC897FF1FDC97FF1FF097FF1FAC
:1048F0000498FF1F1898FF1F2C98FF1F4098FF1F58
:104900005498FF1F6898FF1FA9F55B73C4F86C34B7
:1049100084F870B484F87164C4F874B484F878B41A
:1049200013F046F9E24AE349E34821F0C7FCE34BC0
:10493000E348C4F87C34A9F55273C4F8803484F891
:1049400084B484F885B4C4F888B484F88CB413F0C3
:104950002FF9D74AD749DA4821F0B0FCD74BD948CC
:10496000C4F89034A9F51B73C4F8943484F898B44F
:1049700084F899B4C4F89CB484F8A0B413F018F97E
:10498000CB4ACC49CF4821F099FCA9F55273CE48C7
:10499000C4F8A834CD4BC4F8A43484F8ACB484F87B
:1049A000AD64C4F8B0B484F8B4B413F001F9C04AEB
:1049B000C049C54821F082FCA9F51B73C448C4F85E
:1049C000BC34C24BC4F8B83484F8C0B484F8C164B1
:1049D000C4F8C4B484F8C8B413F0EAF8B44AB549CA
:1049E000BB4821F06BFCA5F5C473BA48C4F8CC34BD
:1049F000A9F1E403C4F8D03484F8D4B484F8D5B46D
:104A0000C4F8D8B484F8DCB413F0D2F8A84AA949A1
:104A1000B04821F053FCA5F5C473AF48C4F8E034A6
:104A2000C4F8E45484F8E98484F8E8B4C4F8ECB435
:104A300084F8F0B413F0BCF8A7489D4A9D49A0F54E
:104A4000B96721F03BFCA5F1380307F2DC50C4F84C
:104A5000F834A5F5C473C4F8F43484F8FD8484F8FC
:104A6000FCB4C4F800B584F804B513F0A1F8904A7A
:104A7000904907F2DC5021F021FCA5F5A87307F559
:104A8000BE60C4F80835A9F5C673C4F80C3584F8BF
:104A900010B584F811B5C4F814B584F818B513F03E
:104AA00087F8834A834907F5BE6021F007FCA5F12A
:104AB000A80307F20460C4F82035A5F5A873C4F86C
:104AC0001C3584F8258584F824B5C4F828B584F805
:104AD0002CB513F06DF8764A764907F2046021F0A0
:104AE000EDFBA5F1700307F5C360C4F83435A5F5F7
:104AF000A873C4F8303584F8398584F838B5C4F81B
:104B00003CB584F840B513F053F8694A694907F594
:104B1000C36021F0D3FBA5F58C7307F22C60C4F8B9
:104B20004435A9F58E73C4F8483584F84CB584F83B
:104B30004DB5C4F850B584F854B513F039F85C4A53
:104B40005C4907F22C6021F0B9FB05F1A80307F5D9
:104B5000C860C4F85C35A5F58C73C4F8583584F882
:104B6000618584F860B5C4F864B584F868B513F05D
:104B70001FF84F4A4F4907F5C86021F09FFB05F128
:104B8000E00307F25460C4F87035A5F58C73C4F8DF
:104B90006C3584F8758584F874B5C4F878B584F8F4
:104BA0007CB513F005F8424A424907F2546021F0FF
:104BB00085FBA5F1E00307F5CD60C4F88035A9F5C4
:104BC000AA73C4F8843584F888B584F889B5C4F824
:104BD0008CB584F890B512F0EBFF354A354907F5EE
:104BE000CD6021F06BFB05F1380307F27C60C4F85F
:104BF0009835A5F1E003C4F8943584F89D8584F8D0
:104C00009CB5C4F8A0B584F8A4B512F0D1FF284A29
:104C1000284907F27C6021F051FB05F1700307F58C
:104C2000D260C4F8AC35A5F1E003C4F8A83584F827
:104C3000B18584F8B0B5C4F8B4B584F8B8B512F04D
:104C4000B7FF1B4A1B49254D07F5D26021F036FB03
:104C5000A9F56D73C4F8BC35A9F5377307F2A460E4
:104C6000C4F8C0354FF0030384F8C53584F8C4B5E3
:104C7000C4F8C8B584F8CCB512F09AFF0C4A0D49B7
:104C800007F2A46021F01AFBA9F56473C4F8D035CB
:104C90004FF0030307F5D76084F8D935A9F52973D8
:104CA000C4F8D43584F8D8B5C4F8DCB518E000BF32
:104CB0004C3EFF1FB59600006898FF1F5469FF1F08
:104CC0007C98FF1F9098FF1FA498FF1F906BFF1FF9
:104CD000B898FF1FCC98FF1FE098FF1FF8A4FF1F94
:104CE00084F8E0B512F064FFEA4AEB4907F5D760B3
:104CF00021F0E4FAA9F55B73C4F8E4354FF003033F
:104D000007F2CC6084F8ED35A9F50D73C4F8E835E9
:104D100084F8ECB5C4F8F0B584F8F4B512F048FFA7
:104D2000DC4ADD4907F2CC6021F0C8FAA9F55273DC
:104D3000C4F8F8354FF0030307F5DC6084F801365A
:104D4000A9F51B73C4F8FC3584F800B6C4F804B6A2
:104D500084F808B612F02CFFCE4ACF4907F5DC6084
:104D600021F0ACFAA9F5377307F2F460C4F80C36F9
:104D7000C4F8109684F814B684F815B6C4F818B6BA
:104D800084F81CB612F014FFC24AC34907F2F4605B
:104D900021F094FAA9F5297307F5E160C4F82036EB
:104DA000A9F13C03C4F8243684F828B684F829B65F
:104DB000C4F82CB684F830B612F0FAFEB54AB649FB
:104DC00007F5E16021F07AFAA9F5C67307F21C70C5
:104DD000C4F83436C4F8389684F83CB684F83D6696
:104DE000C4F840B684F844B612F0E2FEA94AAA49D3
:104DF00007F21C7021F062FAA9F51B7307F5E66053
:104E0000C4F8483609F13C03C4F84C3684F850B66F
:104E100084F851B6C4F854B684F858B612F0C8FEF7
:104E20009C4A9D4907F5E66021F048FAA9F5AA7366
:104E300007F24470C4F85C36A9F13C03C4F860364C
:104E400084F864B684F86566C4F868B684F86CB60D
:104E500012F0AEFE8F4A904907F2447021F02EFA0C
:104E6000A9F58E7307F5EB60C4F8703609F13C03C1
:104E7000C4F8743684F878B684F87966C4F87CB6D9
:104E800084F880B612F094FE824A834907F5EB60FD
:104E900021F014FAA9F50D7307F26C70C4F884368A
:104EA00009F17803C4F8883684F88CB684F88DB696
:104EB000C4F890B684F894B612F07AFE754A764932
:104EC00007F26C7021F0FAF9A9F1E40307F5F0603C
:104ED000C4F8983609F17803C4F89C3684F8A0B673
:104EE00084F8A166C4F8A4B684F8A8B612F060FEEF
:104EF000684A694907F5F06021F0E0F9A9F13C033F
:104F000007F29470C4F8AC3609F59673C4F8B0365D
:104F100084F8B4B684F8B5B6C4F8B8B684F8BCB6AC
:104F200012F046FE5B4A5C4907F2947021F0C6F924
:104F3000A9F13C0307F5F560C4F8C03609F596738E
:104F4000C4F8C43684F8C86684F8C966C4F8CCB618
:104F500084F8D0B612F02CFE4E4A4F4907F5F560A2
:104F600021F0ACF9A9F13C0307F2BC70C4F8D436C7
:104F700009F59673C4F8D83684F8DC8684F8DD86A3
:104F8000C4F8E0B684F8E4B612F012FE414A424991
:104F900007F2BC7021F092F909F5CE7307F5FA60BB
:104FA000C4F8EC36C4F8E89684F8F0B684F8F1B6A4
:104FB000C4F8F4B684F8F8B612F0FAFD354A36496A
:104FC00007F5FA6021F07AF909F5CE7307F2E4707B
:104FD000C4F80037C4F8FC9684F8046784F80567C1
:104FE000C4F808B784F80CB712F0E2FD294A2A4940
:104FF00007F2E47021F062F909F5CE7307F5FF605E
:10500000C4F81437C4F8109784F8188784F81987FF
:10501000C4F81CB784F820B712F0CAFD1D4A1E4917
:1050200007F5FF6021F04AF909F13C0307F60C008F
:10503000C4F8243709F5B273C4F8283784F82CB7BC
:1050400084F82DB7C4F830B784F834B712F0B0FD47
:10505000104A114907F60C0021F030F909F13C0320
:1050600007F50260C4F8383709F5B273C4F83C3765
:1050700084F8406784F84167C4F844B784F848B7B7
:1050800012F096FD034A044907F5026021F016F973
:1050900004E000BF4C3EFF1FB596000009F13C0341
:1050A00007F63400C4F84C3709F5B273C4F850372A
:1050B00084F8548784F85587C4F858B784F85CB7E7
:1050C00012F076FDEA4AEB4907F6340021F0F6F8D3
:1050D00009F1780307F64800C4F8603709F5EA7368
:1050E000C4F8643784F868B784F869B7C4F86CB753
:1050F00084F870B712F05CFDDD4ADE4907F648001F
:1051000021F0DCF809F1780307F65C00C4F8743785
:1051100009F5EA73C4F8783784F87C6784F87D670A
:10512000C4F880B784F884B712F042FDD04AD14960
:1051300007F65C0021F0C2F809F1780307F5076073
:10514000C4F8883709F5EA73C4F88C3784F8908777
:1051500084F89187C4F894B784F898B712F028FDC2
:10516000C34AC44907F5076021F0A8F809F1B40360
:1051700007F68400C4F89C3709F50373C4F8A03718
:1051800084F8A4B784F8A5B7C4F8A8B784F8ACB776
:1051900012F00EFDB64AB74907F6840021F08EF8EA
:1051A00009F1B40307F69800C4F8B03709F50373A2
:1051B000C4F8B43784F8B86784F8B967C4F8BCB7E2
:1051C00084F8C0B712F0F4FCA94AAA4907F698007F
:1051D00021F074F809F1B40307F6AC00C4F8C43741
:1051E00009F50373C4F8C83784F8CC8784F8CD87F1
:1051F000C4F8D0B784F8D4B712F0DAFC9C4A9D49C1
:1052000007F6AC0021F05AF809F1F00307F50C603D
:10521000C4F8D83709F51173C4F8DC3784F8E0B75F
:1052200084F8E1B7C4F8E4B784F8E8B712F0C0FC3A
:105230008F4A904907F50C6021F040F809F1F0031E
:1052400007F6D400C4F8EC3709F51173C4F8F03749
:1052500084F8F46784F8F567C4F8F8B784F8FCB705
:1052600012F0A6FC824A834907F6D40021F026F802
:1052700009F1F00307F6E800C4F8003809F51173E6
:10528000C4F8043884F8088884F80988C4F80CB88D
:1052900084F810B812F08CFC754A764907F6E800DD
:1052A00021F00CF809F5967307F6FC00C4F81438E1
:1052B00009F51F73C4F8183884F824B8C4F820B866
:1052C00084F81DB884F81CB812F072FC684A694969
:1052D00007F6FC0020F0F2FF09F5B27307F5116044
:1052E000C4F8283809F52D73C4F82C3884F838B878
:1052F000C4F834B884F831B884F830B812F058FCE7
:105300005B4A5C4907F5116020F0D8FF09F5CE73C0
:1053100007F62410C4F83C3809F54973C4F840383E
:1053200084F84CB8C4F848B884F845B884F844B850
:1053300012F03EFC4E4A4F4907F6241020F0BEFF03
:1053400009F5EA7307F63810C4F8503809F53B73CD
:10535000C4F8543884F860B8C4F85CB884F859B814
:1053600084F858B812F024FC414A424907F6381034
:1053700020F0A4FF09F5037307F64C10C4F8643855
:1053800009F55773C4F8683884F874B8C4F870B86D
:1053900084F86DB884F86CB812F00AFC3549344AC8
:1053A00007F64C1020F08AFF09F5657309F51172B4
:1053B00007F51660C4F87C380093C4F8782884F8A0
:1053C00088B8C4F884B884F881B884F880B812F03A
:1053D000EFFB274A274907F5166020F06FFF09F514
:1053E0001F7307F67410C4F88C3809F57373C4F88A
:1053F000903884F89CB8C4F898B884F8956884F814
:1054000094B812F0D5FB1A4A1A4907F6741020F026
:1054100055FF09F52D7307F68810C4F8A03809F573
:105420007373C4F8A43884F8A98884F8B0B8C4F8B1
:10543000ACB884F8A8B812F0BBFB0D4A0D4907F6CA
:10544000881020F03BFF09F53B7307F69C10C4F869
:10545000B43809F20443C4F8B83884F8C4B8C4F8BE
:10546000C0B884F8BDB884F8BCB812F0A1FB03E062
:105470004C3EFF1FB5960000E44AE54907F69C1034
:1054800020F01CFF09F5497307F51B60C4F8C83804
:1054900009F57373C4F8CC3884F8D8B8C4F8D4B814
:1054A00084F8D1B884F8D0B812F082FBD74AD84932
:1054B00007F51B6020F002FF09F5577307F6C410CB
:1054C000C4F8DC3809F20443C4F8E03884F8ECB8D6
:1054D000C4F8E8B884F8E56884F8E4B812F068FB2A
:1054E000CA4ACB4907F6C41020F0E8FE009BC4F876
:1054F000F03807F6D81009F20443C4F8F43884F8F9
:10550000F98884F800B9C4F8FCB884F8F8B812F047
:105510004FFBBE4ABE4907F6D81020F0CFFE09F275
:10552000744307F6EC1009F59669C4F80439C4F819
:10553000089984F80C8984F814B9C4F810B984F86F
:105540000DB912F035FBB14AB14907F6EC1020F065
:10555000B5FE07F52060C4F81899C4F81C7984F8E2
:1055600028B9C4F824B984F8216984F820B912F064
:105570001FFBA64AA64907F5206020F09FFEA54B19
:10558000C4F8303907F61420C4F82C9984F83CB9D3
:10559000C4F838B984F8356984F8346912F008FB26
:1055A0009A4A9B4907F6142020F088FEA9F13C0393
:1055B00007F62820C4F84039C4F8447984F84889AB
:1055C00084F850B9C4F84CB984F849B912F0F0FA2B
:1055D0008E4A8F4907F6282020F070FEA9F13C037F
:1055E00007F63C20C4F854398A4BC4F8583984F87B
:1055F0005C8984F864B9C4F860B984F85DB912F0C4
:10560000D7FA824A824907F63C2020F057FE07F17C
:105610003809804BC4F8683907F52560C4F86C99DF
:1056200084F878B9C4F874B984F8716984F870B9E9
:1056300012F0BEFA7649754A07F5256020F03EFE65
:1056400007F1600307F66420724AC4F880390093BA
:10565000C4F87C2984F88CB9C4F888B984F88569C1
:1056600084F884B912F0A4FA684A694907F66420FC
:1056700020F024FE009BC4F8943907F67820C4F883
:10568000907984F898B984F899B9C4F89CB984F8E9
:10569000A0B912F08DFA5D4A5D4907F6782020F036
:1056A0000DFE07F68C20C4F8A899C4F8A47984F8F4
:1056B000ACB984F8ADB9C4F8B0B984F8B4B912F093
:1056C00077FA524A524907F68C2020F0F7FD0AF685
:1056D000BC4307F52A60C4F8BC390AF5FC63C4F87A
:1056E000B83984F8C0B984F8C1B9C4F8C4B984F829
:1056F000C8B912F05DFA454A454907F52A6020F01D
:10570000DDFD0AF5286307F6B420C4F8D0390AF69F
:105710001803C4F8CC3984F8D4B984F8D5B9C4F8DE
:10572000D8B984F8DCB912F043FA384A384907F698
:10573000B42020F0C3FD384BC4F8E43907F6C82084
:105740000AF50563C4F8E03984F8E8B984F8E9B9E2
:10575000C4F8ECB984F8F0B912F02AFA2B4A2C49B3
:1057600007F6C82020F0AAFD2C4BC4F8F83907F63C
:10577000DC200AF68803C4F8F43984F8FCB984F80C
:10578000FDB9C4F800BA84F804BA12F011FA1F4A3D
:105790001F4907F6DC2020F091FD214BC4F80C3A9C
:1057A00007F52F600AF50C63C4F8083A84F810BABC
:1057B00084F811BAC4F814BA84F818BA12F0F8F9D7
:1057C000124A134907F52F6020F078FD154BC4F8F5
:1057D000203A07F604300AF6F803C4F81C3A84F8B5
:1057E00024BA84F825BAC4F828BA84F82CBA12F07E
:1057F000DFF9064A064907F6043020F05FFD0A4B40
:10580000C4F8343A07F6183010E000BF4C3EFF1FD2
:10581000B5960000E092FF1FDC64FF1F6460FF1F6D
:105820005469FF1F906BFF1FA062FF1F0AF51363EF
:10583000C4F8303A84F838BA84F839BAC4F83CBAB3
:1058400084F840BA12F0B4F9E94AEA4907F6183088
:1058500020F034FDE84BC4F8483A07F62C300AF63D
:105860006813C4F8443A84F84CBA84F84DBAC4F8C2
:1058700050BA84F854BA12F09BF9DD4ADD4907F6B4
:105880002C3020F01BFD0AF5F47307F53460C4F8E2
:10589000583A0AF5FC63C4F85C3A84F860BA84F8B4
:1058A000616AC4F864BA84F868BA12F081F9D04A1F
:1058B000D04907F5346020F001FD0AF5F47307F6CE
:1058C0005430C4F86C3A0AF61803C4F8703A84F8F5
:1058D00074BA84F8756AC4F878BA84F87CBA12F09D
:1058E00067F9C34AC34907F6543020F0E7FC0AF5CC
:1058F000167307F66830C4F8803A0AF50563C4F8F1
:10590000843A84F888BA84F8896AC4F88CBA84F82E
:1059100090BA12F04DF9B64AB64907F6683020F051
:10592000CDFC0AF5167307F67C30C4F8943A0AF6F3
:105930008803C4F8983A84F89CBA84F89D6AC4F83D
:10594000A0BA84F8A4BA12F033F9A94AA94907F613
:105950007C3020F0B3FC0AF5087307F53960C4F811
:10596000A83A0AF50C63C4F8AC3A84F8B0BA84F8E3
:10597000B16AC4F8B4BA84F8B8BA12F019F99C4AFA
:105980009C4907F5396020F099FC0AF5087307F681
:10599000A430C4F8BC3A0AF6F803C4F8C03A84F854
:1059A000C4BA84F8C56AC4F8C8BA84F8CCBA12F08C
:1059B000FFF88F4A8F4907F6A43020F07FFC0AF5E4
:1059C000D87307F6B830C4F8D03A0AF51363C4F8B0
:1059D000D43A84F8D8BA84F8D96AC4F8DCBA84F81E
:1059E000E0BA12F0E5F8824A824907F6B83020F0B2
:1059F00065FC0AF5D87307F6CC30C4F8E43A0AF629
:105A00006813C4F8E83A84F8ECBA84F8ED6AC4F88C
:105A1000F0BA84F8F4BA12F0CBF8754A754907F673
:105A2000CC3020F04BFC0AF5FC6307F53E60C4F86F
:105A3000FC3A0AF5AD63C4F8F83A84F8018B84F8AF
:105A400000BBC4F804BB84F808BB12F0B1F8684A84
:105A5000684907F53E6020F031FC0AF6180307F6A6
:105A6000F430C4F8103B0AF5AD63C4F80C3B84F87D
:105A7000158B84F814BBC4F818BB84F81CBB12F057
:105A800097F85B4A5B4907F6F43020F017FC0AF5FB
:105A9000B2690AF5056307F60840C4F8243B84F8A8
:105AA000298BC4F8209B84F828BBC4F82CBB84F84D
:105AB00030BB12F07DF84E4A4E4907F6084020F000
:105AC000FDFB09F53E7307F61C40C4F8383BC4F8EB
:105AD000349B84F83D8B84F83CBBC4F840BB84F80D
