:1000000000000320D101000049D8010001D80100FF
:1000100001D8010001D8010001D8010001D8010078
:1000200001D8010001D8010001D8010049D8010020
:1000300049D8010001D801003DFC010041FC01004C
:1000400049D8010049D8010049D8010049D8010028
:1000500049D8010049D8010049D8010049D8010018
:1000600049D8010049D8010049D8010049D8010008
:1000700049D8010049D8010049D8010049D80100F8
:1000800049D8010049D8010049D8010049D80100E8
:1000900049D8010049D8010049D8010049D80100D8
:1000A000256F0100316F010049D8010049D80100D6
:1000B00049D8010049D8010049D8010049D80100B8
:1000C00049D8010049D8010049D8010049D80100A8
:1000D00049D80100C10E020049D8010049D80100E9
:1000E00049D8010049D8010049D8010049D8010088
:1000F00049D8010049D8010049D8010049D8010078
:10010000F9FD01000DFE010021FE010035FE010098
:1001100049D80100F5E2010049D8010049D80100A1
:1001200049D8010049D8010049D8010049D8010047
:1001300049D8010049D8010049D8010049D8010037
:10014000F1F9010049D8010049D8010049D801005E
:1001500049D8010049D8010049D8010049D8010017
:1001600049D8010049D801003D6F010049D801007C
:1001700049D8010049D8010049D8010049D80100F7
:1001800049D8010049D8010049D8010049D80100E7
:1001900049D8010049D8010049D8010049D80100D7
:1001A00049D8010049D8010049D8010049D80100C7
:1001B00049D8010049D8010049D8010049D80100B7
:1001C00049D8010049D8010049D8010049D80100A7
:1001D0005C4B4CF2205210B51A804DF628121A8052
:1001E00000BF00BF1DF034FB574B4FF030621A6068
:1001F000564A9A60564ADA60564B4FF470021A60BB
:10020000554B564A1A60564B1A78110703D51A787F
:1002100042F008021A70534B5349AA221A70534AEB
:10022000534B8B4204D252F8040F43F8040BF8E707
:10023000504B514900228B4202D243F8042BFAE77B
:100240004E494F4A002352F8230041F8230001335E
:10025000742BF8D14B4B4C4A802103F8011B93427D
:10026000FBD14A4B454A1A60494B8A221A70A3F5C2
:10027000805324225A70A0221A709A799207FCD5D2
:100280009A79D406FCD4434A937903F00C03082BE3
:10029000FAD1414B60221A7002331A78802AFCD1BD
:1002A0003C4B01221A715D225A719A799006FCD555
:1002B0009979384A4906FBD5384B394919600021EC
:1002C000596020231370937903F00C030C2BFAD19F
:1002D000344B354A1A60354A354C136813F4807331
:1002E00003D123604FF4A8531360324B324A1A6093
:1002F00000225A60072243F8042C304AC3F80C2D20
:1003000062B61DF083FE2368DA0705D52C481DF080
:10031000DBFD2C4B2C4A1A602C4B1B785B0609D555
:10032000284C294B22689A4204D125481DF0CCFD67
:100330000023236023F0FEFB1DF090FA20F024F848
:10034000FEE700BF0E20054030800440823F0400DD
:100350000100002B88ED00E0002008E0030000858C
:1003600002D0074000E00740F84EFF1FE0C3030043
:10037000B03DFF1F0050FF1F882B00200032FF1FE1
:100380000000000000E400E064E400E008ED00E0AC
:10039000005006400040064001E007404480044011
:1003A0000000060204800440C010070010D0034083
:1003B00014D0034014E000E01FBF02000000202022
:1003C00070562D5F1CE00340A5C3945A00F007400F
:1003D000FFFFFFFFFFFFFFFFFFFFFFFFFFFFFFFF2D
:1003E000FFFFFFFFFFFFFFFFFFFFFFFFFFFFFFFF1D
:1003F000FFFFFFFFFFFFFFFFFFFFFFFFFFFFFFFF0D
:10040000FFFFFFFFFFFFFFFFFFFFFFFFDEF9FFFF23
:1004100010B5054C237833B9044B13B10448AFF33E
:1004200000800123237010BD0050FF1F000000005A
:10043000DCC30300084B10B51BB108490848AFF3F3
:1004400000800848036803B910BD074B002BFBD0A0
:10045000BDE81040184700BF000000000450FF1F17
:10046000DCC30300F84EFF1F0000000000207047AF
:10047000704700BF10B582B0B0F90C20019101683F
:10048000009200220C6CB0F90A301146A04702B06D
:1004900010BD00BFC36C01221A70036D5BB11A68F6
:1004A00041F080514FF00043D3625163D36A002B77
:1004B000FCDA936B7047F0B54FEA112E08248025C3
:1004C0001EEA050F066C14BF012700273770466C23
:1004D0003270466C013C4FEA55053370F0D1036D24
:1004E000C9B24BB11A684FF00043D3625163D36A6B
:1004F000002BFCDA936BF0BD082280230127194200
:10050000056C14BF012600262E70456C2F70456CBB
:10051000013A4FEA53032C70F1D1F0BD2DE9F047B9
:100520000446894690468021A02200251F469DF85A
:1005300020609DF824A01CF027FB144A1449216078
:10054000226304F17C0084F8349084F8358084F8C8
:1005500036A084F8377084F8386084F82150256517
:1005600084F85450A565E565256629461FF082FA92
:10057000A022802384F8685084F874506566E5668C
:10058000A285E3852046BDE8F08700BF0320003840
:10059000FC88020090F8213063B190F83A30826D07
:1005A000006E41EA03415163D36A03F4704383420E
:1005B000FAD87047C26C1370036D4BB11A684FF0D4
:1005C0000043D3625163D36A002BFCDA936B70470C
:1005D000F0B408221C46012780231942056C14BF81
:1005E000012600262E70456C2F70456C013A4FEAAB
:1005F00053032C70F1D1F0BC704700BF90F821304C
:10060000FBB190F83A30826D41EA034343F0006356
:100610001168536302E013F0F00F10D1D36AD800D1
:10062000F9D54FF08053D3621160D36A13F0F00F05
:1006300029D0936BD36A13F0F00FFAD17047936B04
:10064000ECE7C26C1370036D4BB11A684FF00043B6
:10065000D3625163D36A002BFCDA936B7047F0B41A
:1006600008221C46012780231942056C14BF01266D
:1006700000262E70456C2F70456C013A4FEA5303EB
:100680002C70F1D1F0BC7047036D70B504467BB19E
:10069000D87A226B002836D11B68D868904207D0E0
:1006A0002C4D1D602C48DA6042F080451D611860B9
:1006B000A36C0BB100221A7000290CBF202121214C
:1006C0002046FFF79BFFA36C0BB101221A70236D2C
:1006D000C3B1DA7AB2B1D40703D5204AD96911601F
:1006E000DA7A900703D51E4A196A1160DA7A51073F
:1006F00003D51C4A596A1160DA7A120702D51A4AE0
:100700009B6A136070BD72B6D87AC60706D5174DBE
:10071000D8682E683040D8612860D87A850706D519
:10072000134D18692E68304018622860D87A460741
:1007300006D5104D58692E68304058622860D87A26
:10074000050705D50C4D98692E68304098622860E1
:1007500062B6A1E701403F0000003F8000E100E0F9
:1007600004E100E008E100E00CE100E080E100E0ED
:1007700084E100E088E100E08CE100E090F82130C5
:1007800063B190F83930826D006E41EA03415163E4
:10079000D36A03F470438342FAD87047C36C0122D2
:1007A0001A70036D4BB11A684FF00043D362516366
:1007B000D36A002BFCDA936B7047F0B415461C46E5
:1007C000082280231942066C14BF012700273770C6
:1007D000466C3570466C013A4FEA53033470F1D1E0
:1007E000F0BC704790F82130FBB190F83930826D41
:1007F00041EA034343F000631168536302E013F0DE
:10080000F00F10D1D36AD800F9D54FF08053D362DE
:100810001160D36A13F0F00F2AD0936BD36A13F0F0
:10082000F00FFAD17047936BECE7C36C01221A709A
:10083000036D4BB11A684FF00043D3625163D36A22
:10084000002BFCDA936B7047F0B415461C46082267
:1008500080231942066C14BF012700273770466CAD
:100860003570466C013A4FEA53033470F1D1F0BC55
:10087000704700BF036D70B504460D467BB1D97A51
:10088000026B002931D11B68D968914207D06448B6
:1008900018606449DA6042F0804018611960A36C06
:1008A0000BB100221A7036212046FFF773FE05F0C7
:1008B00003010229217694F8203065D003294CD019
:1008C000012939D0022B00F09780052B00F094808D
:1008D000C8212046FFF786FFE08DA18D628CA38C96
:1008E0006081A181E284238564E072B6D97AC80769
:1008F00006D54D48D96806683140D9610160D97A7A
:100900008E0706D5494819690668314019620160A9
:10091000D97A480706D54648596906683140596270
:100920000160D97A0E0705D54248996906683140B9
:100930009962016062B6A6E7022B6CD0052B6AD0E3
:10094000A8212046FFF74EFFE08DA18D628CA38C7D
:10095000A08161812285E3842CE0022B56D0052BF7
:1009600054D068212046FFF73DFFA38CA08DE18D78
:10097000628C608123F020039BB2003318BF0123F7
:10098000E384A181228515E0022B3AD0052B38D0D3
:1009900008212046FFF726FFA38CE08DA18D628CF5
:1009A000608123F020039BB2003318BF012323850D
:1009B000A181E284A36C227E62850BB101221A70B0
:1009C000236DC3B1DA7AB2B1D40703D51A4AD96913
:1009D0001160DA7A900703D5184A196A1160DA7A39
:1009E000510703D5164A596A1160DA7A120702D5FF
:1009F000144A9B6A136070BDC0212046FFF7F2FEC7
:100A00006AE700212046FFF7EDFEC5E7602120469A
:100A1000FFF7E8FEA9E7A0212046FFF7E3FE93E7F2
:100A200001403F0000003F8080E100E084E100E001
:100A300088E100E08CE100E000E100E004E100E09A
:100A400008E100E00CE100E090F8212092B110B440
:100A50000B4690F83910826D006E43EA014343F073
:100A600080535363D36A03F470439842FAD35DF81A
:100A7000044B7047FFF70EBD10B490F8214014B33B
:100A80000B4690F83910826D43EA014343F0C0539E
:100A90001168536302E013F0F00F12D1D36AD8004B
:100AA000F9D54FF08053D3621160D36A13F0F00F81
:100AB00004D0936BD36A13F0F00FFAD15DF8044BB6
:100AC0007047936BEAE75DF8044BFFF7E3BC00BFA8
:100AD0002DE9F0410C46B0F90A10BDF81860A142AA
:100AE00040F3AE801F46B0F90C309342054640F308
:100AF000A780D0199842C4BF9B1A1FB295F86830DE
:100B0000002B40F09F802B6D002B3DD0D87AD5F87C
:100B100030C048B372B6D87AC10709D5DFF874E19E
:100B2000D968DEF800000840D861CEF80000D87A15
:100B3000810709D5DFF860E11969DEF80000084097
:100B40001862CEF80000D87A410709D5DFF84CE1E9
:100B50005969DEF8000008405862CEF80000D87AE3
:100B6000010700F1838062B61B68D86860450BD02E
:100B7000DFF82CE1C3F800E04148C3F80CC04CF0AA
:100B8000804EC3F810E01860AB6C0BB100211970F7
:100B90002A2128461FFA84F894B2FFF7FBFCE98C5F
:100BA000414489B22846FFF74FFFE98C414489B29E
:100BB0002846FFF749FF2B212846FFF7EBFC298D3C
:100BC000214489B22846FFF73FFF2A8D013A22448B
:100BD000BCB2A11889B22846FFF736FF2C2128465F
:100BE000FFF7D8FC012F08DD013C31462846A4B2AE
:100BF000FFF72AFF23B2012BF6DC31462846FFF728
:100C00003BFFAB6C0BB101221A702B6DC3B1DA7ACA
:100C1000B2B1D40703D51B4AD9691160DA7A9007BB
:100C200003D5194A196A1160DA7A510703D5174AB0
:100C3000596A1160DA7A120702D5154A9B6A136065
:100C4000BDE8F081686E02FB0142791E00EB4202B2
:100C500009B2002FF4D016800139B5F90A3009B273
:100C6000481C02EB4302F6D1BDE8F081DFF834E026
:100C70009969DEF8000008409862CEF8000072E73B
:100C800000003F8000E100E004E100E008E100E056
:100C90000CE100E080E100E084E100E088E100E0B8
:100CA00001403F008CE100E02DE9F843B0F90A4033
:100CB000BDF820608C4240F3AB801F46B0F90C3089
:100CC0009342054640F3A480CB19A3421FFA81F951
:100CD00090F86830C4BFC9EB04073FB2002B40F066
:100CE0009980036D002B38D0D87A296B48B372B63F
:100CF000D87AC40709D5DFF8A0E1DC68DEF8000087
:100D00002040D861CEF80000D87A840709D5DFF8F2
:100D10008CE11C69DEF8000020401862CEF800006B
:100D2000D87A440709D5DFF878E15C69DEF800007D
:100D300020405862CEF80000D87A000700F1968073
:100D400062B61B68D868884207D04D4C1C604D487D
:100D5000D96041F080441C611860AB6C0BB100217C
:100D600019702A2128461FFA82F8FFF713FCE98C34
:100D7000494489B22846FFF767FEE98C01394944A6
:100D8000BCB2214489B22846FFF75EFE2B212846DB
:100D9000FFF700FC298D414489B22846FFF754FE35
:100DA000298D414489B22846FFF74EFE2C21284662
:100DB000FFF7F0FB012F08DD013C31462846A4B2C5
:100DC000FFF742FE23B2012BF6DC31462846FFF73F
:100DD00053FEAB6C0BB101221A702B6DC3B1DA7AE2
:100DE000B2B1D40703D5284AD9691160DA7A9007DD
:100DF00003D5264A196A1160DA7A510703D5244AC5
:100E0000596A1160DA7A120702D5224A9B6A136086
:100E1000BDE8F8831FFA87FE49EA0E0919F0010FB1
:100E200010D1436E04FB021103EB410146EA064672
:100E3000002FEDD0023F3FB241F8046B002FF9D1F3
:100E4000BDE8F883406E04FB02110EF1FF3E00EB9B
:100E500041021FFA8EFE002FDAD002EB4E01931EE4
:100E600023F8026F9942FBD1BDE8F883DFF834E044
:100E70009C69DEF8000020409862CEF800005FE731
:100E800001403F0000003F8000E100E004E100E09D
:100E900008E100E00CE100E080E100E084E100E036
:100EA00088E100E08CE100E02DE9F8430646B0F966
:100EB0000A00BDF92040BDF82450884240F3C480A8
:100EC0001F46B6F90C30934240F3BE8001EB070E8B
:100ED00086451FFA81F8C8BFC8EB000702EB040E75
:100EE000C8BF3FB29E45C4BF9B1A1CB296F868307B
:100EF000002B40F0AB80336D002B3DD0D97AD6F873
:100F000030C049B372B6D97AC80709D5DFF8E8E12D
:100F1000D868DEF800100140D961CEF80010D97A07
:100F2000880709D5DFF8D4E11869DEF80010014020
:100F30001962CEF80010D97A480709D5DFF8C0E168
:100F40005869DEF8001001405962CEF80010D97AD5
:100F5000090700F1BC8062B61B68D96861450BD0F7
:100F6000DFF8A0E1C3F800E05E49C3F80CC04CF024
:100F7000804EC3F810E01960B36C0BB100211970FA
:100F80002A2130461FFA82F9FFF704FBF18C414415
:100F900089B23046FFF758FDF18C0139414439449C
:100FA00089B23046FFF750FD2B213046FFF7F2FAA9
:100FB000318D494489B23046FFF746FD318D013904
:100FC0004944214489B23046FFF73EFD2C2130468A
:100FD000FFF7E0FA002CC8BFA04616DD012FC8BFFE
:100FE0003C4607DD013C2946304624B2FFF72CFD84
:100FF000012CF7D108F1FF3429463046A4B2FFF79F
:101000003BFD0FFA84F8002CE8D1B36C0BB1012240
:101010001A70336DC3B1DA7AB2B1D40703D5324A4C
:10102000D9691160DA7A900703D5304A196A1160DC
:10103000DA7A510703D52E4A596A1160DA7A120713
:1010400002D52C4A9B6A1360BDE8F88348EA07087A
:1010500018F0010F736E00FB02111ED107EBD7775A
:10106000002C03EB410E4FEA670645EA0545EBDD30
:1010700000EBD07149108900002E06DD7246002376
:101080000133B34242F8045BFAD1013CA3B28E446F
:101090001CB2002BF0D1BDE8F883002C03EB41011A
:1010A000D2DD4FEA470E002F08DD01EB0E020B46A2
:1010B00023F8025B9342FBD1B6F90A00013CA3B2CC
:1010C00001EB40011CB2002BEDD1BDE8F883DFF845
:1010D00038E09869DEF8001001409962CEF80010FF
:1010E00039E700BF00003F8000E100E004E100E0DC
:1010F00008E100E00CE100E080E100E084E100E0D4
:1011000088E100E001403F008CE100E00029C0F2EE
:10111000A680F8B5B0F90A40A14280F29980002A71
:10112000C0F29680B0F90C50954240F3918090F84F
:101130006850002D40F08D80046D002C37D0E67A89
:10114000056B46B372B6E67AF70709D5DFF83CE1DE
:10115000E768DEF800603E40E661CEF80060E67ABF
:10116000B70709D5DFF828E12769DEF800603E40BF
:101170002662CEF80060E67A770709D5DFF814E139
:101180006769DEF800603E406662CEF80060E67A8D
:10119000360765D462B62468E668AE4207D0354F9C
:1011A0002760354EE56045F0804727612660846CF6
:1011B0000CB10025257004460E462A211F4695B223
:1011C000FFF7E8F9E18CB6B2314489B22046FFF767
:1011D0003BFCE18C0131314489B22046FFF734FCFD
:1011E0002B212046FFF7D6F9218D294489B22046CC
:1011F000FFF72AFC218D0131294489B22046FFF7EF
:1012000023FC2C212046FFF7C5F939462046FFF77D
:1012100033FCA36C0BB101221A70236DC3B1DA7ACF
:10122000B2B1D40703D5154AD9691160DA7A9007AB
:1012300003D5134A196A1160DA7A510703D5114AA6
:10124000596A1160DA7A120702D50F4A9B6A136055
:10125000F8BD02FB0412416E21F81230F8BD704750
:10126000DFF834E0A769DEF800603E40A662CEF801
:1012700000608FE701403F0000003F8000E100E098
:1012800004E100E008E100E00CE100E080E100E0C2
:1012900084E100E088E100E08CE100E02DE9F84F16
:1012A000036D044683B1D87A226B002840F0D280C7
:1012B0001B68D868904207D07A4D1D607A48DA6082
:1012C00042F080451D611860A36C0BB100221A70BA
:1012D00091F800A04FF000094E1CCA45354600F0B9
:1012E00093802F46204617F8021BFFF787F96E7888
:1012F00026F07F0806F07F06012E5FFA88F840F29C
:10130000A480023EF6B2013507EB060B15F8011F6B
:101310002046FFF733FAAB45F8D101363744397828
:1013200020467D1CFFF75EFAB8F1000F67D02878E1
:10133000A36CFF2808BF4FF4FA7001350BB10122EE
:101340001A70236DC3B1DA7AB2B1D70703D5574A01
:10135000D9691160DA7A960703D5554A196A11607E
:10136000DA7A510703D553495A6A0A60DA7A1707BD
:1013700002D5514A9B6A13601CF0F6FD236D002BC9
:1013800039D0D97A226B002929D072B6D97ACE0702
:1013900007D54A490868D96801404848D9610160C1
:1013A000D97A880707D54649086819690140444831
:1013B00019620160D97A4F0707D54249086859690F
:1013C0000140404859620160D97A0E0706D53E496E
:1013D0000868996901403C489962016062B61B68DF
:1013E000D968914207D02F4818602F49DA6042F03F
:1013F000804018611960A36C0BB100221A7009F1CA
:101400000109CA457FF46DAFA36C0BB101221A70BC
:10141000236DC3B1DA7AB2B1D40703D5234AD969AF
:101420001160DA7A900703D5214A196A1160DA7AD5
:10143000510703D51F4A596A1160DA7A120702D59B
:101440001D4A9B6A1360BDE8F88F3D46002E3FF4AD
:101450006BAF64E772B6D87AC70706D5174DD86860
:101460002E683040D8612860D87A860706D5144D9A
:1014700018692E68304018622860D87A450706D56A
:10148000104D58692E68304058622860D87A00079D
:1014900005D50D4D98692E6830409862286062B677
:1014A00006E700BF01403F0000003F8000E100E090
:1014B00004E100E008E100E00CE100E080E100E090
:1014C00084E100E088E100E08CE100E0F8B504464A
:1014D00090F83700A84D0023FF28A3846384E38499
:1014E000238594F8383004BF0B2084F83700FF2B95
:1014F00008BF0D230F4608BF84F838300146284640
:10150000164615F07FFF002840F084809B4D94F82C
:101510003710284615F076FF002840F01081984DCE
:1015200094F83710284615F06DFF002840F0198117
:1015300094F834100023FF29236584F8213056D015
:10154000904A94F8355052F83100A06452F8355062
:1015500094F83810E56452F8315094F83710656407
:1015600052F83120226401210170E26C1370626C28
:101570001370226C137094F83400FF2801D01CF013
:10158000C9FC012194F835001CF0C4FC012194F839
:1015900038001CF0BFFC012194F837001CF0BAFCA5
:1015A00094F83600FF281AD001211CF0B3FC012169
:1015B00094F836001CF09AFC64201CF0D5FC002145
:1015C00094F836001CF092FC64201CF0CDFC94F8DA
:1015D000360001211CF08AFCC8201CF0C5FC2FB18C
:1015E00039462046BDE8F840FFF758BEF8BD94F8EC
:1015F0003510644AA36452F8310094F83810E0645E
:1016000052F8310094F83710606452F831202264A7
:101610001B70FFDE94F83810284615F001FF0028F3
:101620003FF474AF0021584A25654FF440532846D3
:1016300084F85410A2652366012384F8213094F8BD
:10164000371015F01FFF94F83810206D15F06CFF5F
:10165000206D15F055FE16F0080F14BF4FF07053B3
:101660004FF06053720701D543F0007343F000431D
:1016700043F48033236394F8342094F83510206DBC
:1016800015F092FE0546A8B194F83410206D15F0BF
:10169000D9FE94F8351084F839000546206D15F010
:1016A000D1FE0023284384F83A00A364236D5B68CD
:1016B000E36575E794F83510206D15F05FFEB8B955
:1016C00094F8343084F83900FF2B84F83A0029D19B
:1016D0002C4D94F8350001211CF01CFC94F8353099
:1016E00055F83320E2640023137084F82130DDE7DD
:1016F00084F8395094F83510206D15F0A3FE94F855
:10170000343084F83A00FF2BD0D0184601211CF069
:1017100001FC94F834201B4B53F83230A3640122AF
:101720001A70C3E7184601211CF0F4FB154D94F81C
:10173000343055F83330A36401221A70C9E794F8A5
:101740003810284615F06CFE00283FF4E8AE0F4A2A
:10175000012100232565284684F85410A2652366DC
:101760006AE794F83810284615F05AFE00283FF42E
:10177000DFAE0221064AECE7F440FF1F3441FF1FB1
:101780007441FF1F18B7030000C0024000D00240A0
:1017900000C00A4070B500220D462F490446FFF7ED
:1017A00095FE8DB3012D3CD0042D49D0052D12D0CE
:1017B0002A492046FFF772FD29492046FFF76EFDB2
:1017C000022D18D0236884F8205020461B6B00217E
:1017D000BDE870401847A0225023A285E385214927
:1017E0002046FFF75BFD182200236284A3841C4976
:1017F0002046FFF753FD20463621FEF7CBFEC021E1
:101800002046FEF7EFFFDDE720461749FFF746FDCC
:10181000022201236284A38411492046FFF73EFD82
:10182000D0E78023A38511492046FFF737FD022228
:1018300003236284A3840A492046FFF72FFDC1E7F2
:101840008023A38509492046FFF728FD0022202395
:101850006284A384EFE700BF6C8902004C89020018
:10186000A8890200E48802005C890200D488020092
:1018700041B170B5456E044645B1012184F8681048
:10188000084670BD80F8681008467047B0F90A3005
:10189000B0F90C20102603FB0266760003FB02F36E
:1018A0000367304622F08CF9E06650B100F1200366
:1018B00023F01F006066A6F12002294622F0F4FC06
:1018C000DBE770BDF8B590F86830002B00F0908031
:1018D000036D002B2ED0D97A026BF9B172B6D97A8A
:1018E000CC0706D5494CD96825682940D9612160C3
:1018F000D97A8F0706D5464C19692568294019629F
:101900002160D97A4E0706D5424C5969256829408D
:1019100059622160D97A0D0770D462B61B68D96804
:10192000914207D03C4C1C603C49DA6042F0804454
:101930001C611960836C0BB100221A7004462A21C5
:1019400046898589FEF726FEE18C2046FFF77CF864
:10195000E18C0139314489B22046FFF775F82B211B
:101960002046FEF717FE218D2046FFF76DF8218DEA
:101970000139294489B22046FFF766F82C21204618
:10198000FEF708FE266F676E06F10046013E07EB84
:101990004606B7420DD23D4635F8021B2046FFF7FA
:1019A00053F8AE42F8D8FB431E4426F00106023637
:1019B000374439882046FFF75FF8A36C0BB101224A
:1019C0001A70236DA3B1DA7A92B1D40703D5144A01
:1019D000D9691160DA7A900703D5124A196A116041
:1019E000DA7A510705D4120702D50F4A9B6A1360B1
:1019F000F8BD0E4A596A1160DA7AF4E70C4C99691D
:101A0000256829409962216087E700BF80E100E0F6
:101A100084E100E088E100E001403F0000003F80F9
:101A200000E100E004E100E00CE100E008E100E09A
:101A30008CE100E00B4B10B403F5407403F140005F
:101A400003F1800103F1C00218621966C3F8A020F7
:101A500043F8203C03F58073A342EFD15DF8044BBB
:101A6000704700BF4050FF1F704700BF704700BF66
:101A7000704700BF00680B68C01A7047194BDFED54
:101A80001A7A93ED007ADFED195A06EE901AB8EE45
:101A9000C77AFAEEEF6AB7EE006A26EE877A67EE4B
:101AA000277A67EEA57AF4EEC67AF1EE10FA07DD32
:101AB0000F4B72B60F4A0021D361117662B67047A0
:101AC000BFEE007AF4EEC77AF1EE10FA08D49FED7B
:101AD0000A7A67EE877AFDEEE77A17EE903AE8E742
:101AE000064BE6E7503FFF1FABAAAA3D00000039B6
:101AF0000000FF7F28CFFF1F00FEFF4E0000018087
:101B0000074B084A1B6801218B42117004BF064A2B
:101B1000D386064B1B68012B04BF054AD38670474A
:101B20006054FF1F70F8FF1F08F7FF1F680B0020AD
:101B3000BCF3FF1F014B00221A70704770F8FF1FA3
:101B4000474B484A196801290AD0474B1B68012BAB
:101B500006D01368172B00DD704701331360704700
:101B60001368172BF9DD70B4404B414C1B68D4ED62
:101B7000007ADFED406A4048404E414D83B0012974
:101B800001939DED017A0378B8EE477A83F0010363
:101B900077EE677A84ED007A86EEA77A0370C6ED59
:101BA000007A85ED007A08D02F4B1B68012B19D0E5
:101BB0000123136003B070BC7047324BD3ED007A41
:101BC00067EE277AF5EEC07AF1EE10FA1FD4DFED5A
:101BD0002E6AF4EEE67AF1EE10FA32DD2B492C4B48
:101BE000CB61E1E7274BD3ED007A27EE277AB5EEFC
:101BF000C07AF1EE10FA11D4DFED237AB4EEE77A71
:101C0000F1EE10FA0EDD2349214BCB61D0E7164BE4
:101C10001E491B680020012BC861C9D11D4B002142
:101C2000D961C5E7DFED1C7A19481A4927EE277AF2
:101C3000FCEEC77A17EE903A8342C1ED077AB7D926
:101C4000E2E7DFED156A1248104967EEA67AFCEE6E
:101C5000E77A17EE903A8342C1ED077AA4D9BEE73E
:101C60006054FF1F54CFFF1F680B0020F826002090
:101C700014EFFF1F00007A4470F8FF1F90FEFF1F53
:101C8000703FFF1F9C3FFF1FA655AC4608F7FF1F84
:101C90000000FE7FBCF3FF1F4B24BE47704700BF10
:101CA00038B5054CA4F500652046103C1EF0AEF991
:101CB000AC42F9D138BD00BF5C63FF1F38B50546A3
:101CC00040B100F59C440C34143C201D1EF09EF9DC
:101CD000A542F9D1284638BD08B500201BF048FDC3
:101CE000102888BF002008BD08B502201BF040FD69
:101CF000431EDBB20B2B84BF014B1868013808BDB3
:101D0000503FFF1F08B503201BF032FD431EDBB21E
:101D1000092B12D807EE900AF8EEE77AB2EE047AB1
:101D2000C7EE876AB2EE047AFFEE007AE6EE877AB3
:101D3000FDEEE77A17EE900A08BD024BD3ED006A7C
:101D4000F0E700BFF03EFF1F08B504201BF010FDB8
:101D500001289ABF00F0010080F00100002008BDBA
:101D600030B51B491B4C83B0054623F02DF808B94C
:101D7000002323601849284623F026F810B94FF0B5
:101D80007C5323602846154923F01EF878B94FF09C
:101D90007E53012023601BF0EBFC0224A04215D0EF
:101DA0002146012003B0BDE830401BF0FBBCD4ED60
:101DB000007A77EEA77A0120FCEEE77ACDED017A82
:101DC0001BF0D6FC9DF80440A042E9D103B030BD21
:101DD000CC9E0300A43FFF1FD49E0300DC9E0300A3
:101DE00010B5044B044640F87C3B1DF0A9FE20468C
:101DF00010BD00BFFC88020010B504461DF0A2FD16
:101E0000204610BD044A054B126882B00192019A27
:101E10001A6002B0704700BFF82600200C54FF1F64
:101E2000F0B5DFF8A4E0254F254CDEF80050D7F8D8
:101E300000C0002083B0234606460246197A31B915
:101E40005968A94203DA01200D460646944601323C
:101E5000062A03F10C03F1D166BB40BB3868431C72
:101E600002D0013003B0F0BD164B1B680193002572
:101E70000199CEF800102E462B4662688A42BCBFFC
:101E80000125184603F10103ACBF0A462E46062B76
:101E900004F10C041146F0D126B935B93868013087
:101EA00003B0F0BDCEF80020F7E73860F6E7C7F8DA
:101EB00000C0D3E7CEF80050CFE700BF003FFF1FC0
:101EC000083FFF1FF826002044C1FF1F10B521F076
:101ED000DBFD084B01460220CCB219601BF048FC28
:101EE000844205D021460220BDE810401BF05ABCB8
:101EF00010BD00BF503FFF1F10B582B021F0C4FDE0
:101F000007EE900AF8EEE76AF2EE047A86EEA77A18
:101F10000C4B032067EE277A83ED007AFCEEE77A1C
:101F2000CDED017A1BF024FC9DF80440844206D0DC
:101F30002146032002B0BDE810401BF033BC02B0C4
:101F400010BD00BFF03EFF1F10B50D4922F03CFF51
:101F50000C4B60B9012404201C701BF009FC844266
:101F60000CD021460420BDE810401BF01BBC00240F
:101F700004201C701BF0FCFB8442F2D110BD00BF9A
:101F8000E49E0300E03EFF1F10B50F49044622F017
:101F90001BFF68B90D4B0446187000201BF0E8FBCE
:101FA000844210D021460020BDE810401BF0FABB4F
:101FB000204621F069FD054BC4B200201C701BF0C7
:101FC000D7FB8442EED110BDEC9E0300685BFF1F7F
:101FD000214B10B4D3F8E8201368506819780478BE
:101FE000507A137A044201EA03011BD0937A03F07A
:101FF000030309B143F0040343F008039910013BC4
:1020000091720D2B0BD8DFE803F021071B070A158F
:102010002121150A071B0721D368013BD3605DF816
:10202000044B7047937A03F003030029E6D043F092
:102030000403E3E7D3685DF8044B023BD3607047C9
:10204000D3685DF8044B0233D3607047D3685DF802
:10205000044B0133D360704788250020214B10B416
:10206000D3F8EC201368506819780478507A137A02
:10207000044201EA03011BD0937A03F0030309B180
:1020800043F0040343F008039910013B91720D2BB8
:102090000BD8DFE803F021071B070A152121150AD9
:1020A000071B0721D368013BD3605DF8044B7047E1
:1020B000937A03F003030029E6D043F00403E3E737
:1020C000D3685DF8044B023BD3607047D3685DF87A
:1020D000044B0233D3607047D3685DF8044B01337F
:1020E000D360704788250020214B10B41A6813680C
:1020F000506819780478507A137A044201EA03018F
:102100001BD0937A03F0030309B143F0040343F0B7
:1021100008039910013B91720D2B0BD8DFE803F0F7
:1021200021071B070A152121150A071B0721D36860
:10213000013BD3605DF8044B7047937A03F00303CF
:102140000029E6D043F00403E3E7D3685DF8044BCD
:10215000023BD3607047D3685DF8044B0233D36011
:102160007047D3685DF8044B0133D360704700BFFC
:1021700088250020214B10B45A68136850681978DC
:102180000478507A137A044201EA03011BD0937A4F
:1021900003F0030309B143F0040343F0080399106B
:1021A000013B91720D2B0BD8DFE803F021071B07D1
:1021B0000A152121150A071B0721D368013BD360AB
:1021C0005DF8044B7047937A03F003030029E6D0CF
:1021D00043F00403E3E7D3685DF8044B023BD360AC
:1021E0007047D3685DF8044B0233D3607047D368FF
:1021F0005DF8044B0133D360704700BF8825002091
:10220000214B10B49A681368506819780478507A92
:10221000137A044201EA03011BD0937A03F003030B
:1022200009B143F0040343F008039910013B917294
:102230000D2B0BD8DFE803F021071B070A1521211E
:10224000150A071B0721D368013BD3605DF8044BD7
:102250007047937A03F003030029E6D043F00403A8
:10226000E3E7D3685DF8044B023BD3607047D36863
:102270005DF8044B0233D3607047D3685DF8044BBC
:102280000133D360704700BF88250020214B10B474
:10229000DA681368506819780478507A137A04421F
:1022A00001EA03011BD0937A03F0030309B143F061
:1022B000040343F008039910013B91720D2B0BD8D6
:1022C000DFE803F021071B070A152121150A071B68
:1022D0000721D368013BD3605DF8044B7047937AC4
:1022E00003F003030029E6D043F00403E3E7D368D7
:1022F0005DF8044B023BD3607047D3685DF8044B34
:102300000233D3607047D3685DF8044B0133D36068
:10231000704700BF88250020214B10B41A6913684C
:10232000506819780478507A137A044201EA03015C
:102330001BD0937A03F0030309B143F0040343F085
:1023400008039910013B91720D2B0BD8DFE803F0C5
:1023500021071B070A152121150A071B0721D3682E
:10236000013BD3605DF8044B7047937A03F003039D
:102370000029E6D043F00403E3E7D3685DF8044B9B
:10238000023BD3607047D3685DF8044B0233D360DF
:102390007047D3685DF8044B0133D360704700BFCA
:1023A00088250020214B10B45A69136850681978A9
:1023B0000478507A137A044201EA03011BD0937A1D
:1023C00003F0030309B143F0040343F00803991039
:1023D000013B91720D2B0BD8DFE803F021071B079F
:1023E0000A152121150A071B0721D368013BD36079
:1023F0005DF8044B7047937A03F003030029E6D09D
:1024000043F00403E3E7D3685DF8044B023BD36079
:102410007047D3685DF8044B0233D3607047D368CC
:102420005DF8044B0133D360704700BF882500205E
:10243000214B10B4D3F8D820136850681978047869
:10244000507A137A044201EA03011BD0937A03F015
:10245000030309B143F0040343F008039910013B5F
:1024600091720D2B0BD8DFE803F021071B070A152B
:102470002121150A071B0721D368013BD3605DF8B2
:10248000044B7047937A03F003030029E6D043F02E
:102490000403E3E7D3685DF8044B023BD360704765
:1024A000D3685DF8044B0233D3607047D3685DF89E
:1024B000044B0133D360704788250020214B10B4B2
:1024C000D3F8DC201368506819780478507A137AAE
:1024D000044201EA03011BD0937A03F0030309B11C
:1024E00043F0040343F008039910013B91720D2B54
:1024F0000BD8DFE803F021071B070A152121150A75
:10250000071B0721D368013BD3605DF8044B70477C
:10251000937A03F003030029E6D043F00403E3E7D2
:10252000D3685DF8044B023BD3607047D3685DF815
:10253000044B0233D3607047D3685DF8044B01331A
:10254000D360704788250020214B10B4D3F8E020D9
:102550001368506819780478507A137A044201EAB3
:1025600003011BD0937A03F0030309B143F0040382
:1025700043F008039910013B91720D2B0BD8DFE853
:1025800003F021071B070A152121150A071B072144
:10259000D368013BD3605DF8044B7047937A03F036
:1025A00003030029E6D043F00403E3E7D3685DF8B2
:1025B000044B023BD3607047D3685DF8044B023391
:1025C000D3607047D3685DF8044B0133D360704724
:1025D00088250020214B10B4D3F8E42013685068FC
:1025E00019780478507A137A044201EA03011BD067
:1025F000937A03F0030309B143F0040343F00803A3
:102600009910013B91720D2B0BD8DFE803F02107E5
:102610001B070A152121150A071B0721D368013B57
:10262000D3605DF8044B7047937A03F003030029ED
:10263000E6D043F00403E3E7D3685DF8044B023BC4
:10264000D3607047D3685DF8044B0233D3607047A2
:10265000D3685DF8044B0133D360704788250020B0
:10266000214B10B49A691368506819780478507A2D
:10267000137A044201EA03011BD0937A03F00303A7
:1026800009B143F0040343F008039910013B917230
:102690000D2B0BD8DFE803F021071B070A152121BA
:1026A000150A071B0721D368013BD3605DF8044B73
:1026B0007047937A03F003030029E6D043F0040344
:1026C000E3E7D3685DF8044B023BD3607047D368FF
:1026D0005DF8044B0233D3607047D3685DF8044B58
:1026E0000133D360704700BF88250020214B10B410
:1026F000DA691368506819780478507A137A0442BA
:1027000001EA03011BD0937A03F0030309B143F0FC
:10271000040343F008039910013B91720D2B0BD871
:10272000DFE803F021071B070A152121150A071B03
:102730000721D368013BD3605DF8044B7047937A5F
:1027400003F003030029E6D043F00403E3E7D36872
:102750005DF8044B023BD3607047D3685DF8044BCF
:102760000233D3607047D3685DF8044B0133D36004
:10277000704700BF88250020214B10B41A6A1368E7
:10278000506819780478507A137A044201EA0301F8
:102790001BD0937A03F0030309B143F0040343F021
:1027A00008039910013B91720D2B0BD8DFE803F061
:1027B00021071B070A152121150A071B0721D368CA
:1027C000013BD3605DF8044B7047937A03F0030339
:1027D0000029E6D043F00403E3E7D3685DF8044B37
:1027E000023BD3607047D3685DF8044B0233D3607B
:1027F0007047D3685DF8044B0133D360704700BF66
:1028000088250020214B10B45A6A13685068197843
:102810000478507A137A044201EA03011BD0937AB8
:1028200003F0030309B143F0040343F008039910D4
:10283000013B91720D2B0BD8DFE803F021071B073A
:102840000A152121150A071B0721D368013BD36014
:102850005DF8044B7047937A03F003030029E6D038
:1028600043F00403E3E7D3685DF8044B023BD36015
:102870007047D3685DF8044B0233D3607047D36868
:102880005DF8044B0133D360704700BF88250020FA
:10289000214B10B49A6A1368506819780478507AFA
:1028A000137A044201EA03011BD0937A03F0030375
:1028B00009B143F0040343F008039910013B9172FE
:1028C0000D2B0BD8DFE803F021071B070A15212188
:1028D000150A071B0721D368013BD3605DF8044B41
:1028E0007047937A03F003030029E6D043F0040312
:1028F000E3E7D3685DF8044B023BD3607047D368CD
:102900005DF8044B0233D3607047D3685DF8044B25
:102910000133D360704700BF88250020214B10B4DD
:10292000DA6A1368506819780478507A137A044286
:1029300001EA03011BD0937A03F0030309B143F0CA
:10294000040343F008039910013B91720D2B0BD83F
:10295000DFE803F021071B070A152121150A071BD1
:102960000721D368013BD3605DF8044B7047937A2D
:1029700003F003030029E6D043F00403E3E7D36840
:102980005DF8044B023BD3607047D3685DF8044B9D
:102990000233D3607047D3685DF8044B0133D360D2
:1029A000704700BF88250020214B10B41A6B1368B4
:1029B000506819780478507A137A044201EA0301C6
:1029C0001BD0937A03F0030309B143F0040343F0EF
:1029D00008039910013B91720D2B0BD8DFE803F02F
:1029E00021071B070A152121150A071B0721D36898
:1029F000013BD3605DF8044B7047937A03F0030307
:102A00000029E6D043F00403E3E7D3685DF8044B04
:102A1000023BD3607047D3685DF8044B0233D36048
:102A20007047D3685DF8044B0133D360704700BF33
:102A300088250020214B10B45A6B13685068197810
:102A40000478507A137A044201EA03011BD0937A86
:102A500003F0030309B143F0040343F008039910A2
:102A6000013B91720D2B0BD8DFE803F021071B0708
:102A70000A152121150A071B0721D368013BD360E2
:102A80005DF8044B7047937A03F003030029E6D006
:102A900043F00403E3E7D3685DF8044B023BD360E3
:102AA0007047D3685DF8044B0233D3607047D36836
:102AB0005DF8044B0133D360704700BF88250020C8
:102AC000214B10B49A6B1368506819780478507AC7
:102AD000137A044201EA03011BD0937A03F0030343
:102AE00009B143F0040343F008039910013B9172CC
:102AF0000D2B0BD8DFE803F021071B070A15212156
:102B0000150A071B0721D368013BD3605DF8044B0E
:102B10007047937A03F003030029E6D043F00403DF
:102B2000E3E7D3685DF8044B023BD3607047D3689A
:102B30005DF8044B0233D3607047D3685DF8044BF3
:102B40000133D360704700BF88250020214B10B4AB
:102B5000DA6B1368506819780478507A137A044253
:102B600001EA03011BD0937A03F0030309B143F098
:102B7000040343F008039910013B91720D2B0BD80D
:102B8000DFE803F021071B070A152121150A071B9F
:102B90000721D368013BD3605DF8044B7047937AFB
:102BA00003F003030029E6D043F00403E3E7D3680E
:102BB0005DF8044B023BD3607047D3685DF8044B6B
:102BC0000233D3607047D3685DF8044B0133D360A0
:102BD000704700BF88250020214B10B41A6C136881
:102BE000506819780478507A137A044201EA030194
:102BF0001BD0937A03F0030309B143F0040343F0BD
:102C000008039910013B91720D2B0BD8DFE803F0FC
:102C100021071B070A152121150A071B0721D36865
:102C2000013BD3605DF8044B7047937A03F00303D4
:102C30000029E6D043F00403E3E7D3685DF8044BD2
:102C4000023BD3607047D3685DF8044B0233D36016
:102C50007047D3685DF8044B0133D360704700BF01
:102C600088250020214B10B45A6C136850681978DD
:102C70000478507A137A044201EA03011BD0937A54
:102C800003F0030309B143F0040343F00803991070
:102C9000013B91720D2B0BD8DFE803F021071B07D6
:102CA0000A152121150A071B0721D368013BD360B0
:102CB0005DF8044B7047937A03F003030029E6D0D4
:102CC00043F00403E3E7D3685DF8044B023BD360B1
:102CD0007047D3685DF8044B0233D3607047D36804
:102CE0005DF8044B0133D360704700BF8825002096
:102CF000214B10B49A6C1368506819780478507A94
:102D0000137A044201EA03011BD0937A03F0030310
:102D100009B143F0040343F008039910013B917299
:102D20000D2B0BD8DFE803F021071B070A15212123
:102D3000150A071B0721D368013BD3605DF8044BDC
:102D40007047937A03F003030029E6D043F00403AD
:102D5000E3E7D3685DF8044B023BD3607047D36868
:102D60005DF8044B0233D3607047D3685DF8044BC1
:102D70000133D360704700BF88250020214B10B479
:102D8000DA6C1368506819780478507A137A044220
:102D900001EA03011BD0937A03F0030309B143F066
:102DA000040343F008039910013B91720D2B0BD8DB
:102DB000DFE803F021071B070A152121150A071B6D
:102DC0000721D368013BD3605DF8044B7047937AC9
:102DD00003F003030029E6D043F00403E3E7D368DC
:102DE0005DF8044B023BD3607047D3685DF8044B39
:102DF0000233D3607047D3685DF8044B0133D3606E
:102E0000704700BF88250020214B10B41A6D13684D
:102E1000506819780478507A137A044201EA030161
:102E20001BD0937A03F0030309B143F0040343F08A
:102E300008039910013B91720D2B0BD8DFE803F0CA
:102E400021071B070A152121150A071B0721D36833
:102E5000013BD3605DF8044B7047937A03F00303A2
:102E60000029E6D043F00403E3E7D3685DF8044BA0
:102E7000023BD3607047D3685DF8044B0233D360E4
:102E80007047D3685DF8044B0133D360704700BFCF
:102E900088250020214B10B45A6D136850681978AA
:102EA0000478507A137A044201EA03011BD0937A22
:102EB00003F0030309B143F0040343F0080399103E
:102EC000013B91720D2B0BD8DFE803F021071B07A4
:102ED0000A152121150A071B0721D368013BD3607E
:102EE0005DF8044B7047937A03F003030029E6D0A2
:102EF00043F00403E3E7D3685DF8044B023BD3607F
:102F00007047D3685DF8044B0233D3607047D368D1
:102F10005DF8044B0133D360704700BF8825002063
:102F2000214B10B49A6D1368506819780478507A60
:102F3000137A044201EA03011BD0937A03F00303DE
:102F400009B143F0040343F008039910013B917267
:102F50000D2B0BD8DFE803F021071B070A152121F1
:102F6000150A071B0721D368013BD3605DF8044BAA
:102F70007047937A03F003030029E6D043F004037B
:102F8000E3E7D3685DF8044B023BD3607047D36836
:102F90005DF8044B0233D3607047D3685DF8044B8F
:102FA0000133D360704700BF88250020214B10B447
:102FB000DA6D1368506819780478507A137A0442ED
:102FC00001EA03011BD0937A03F0030309B143F034
:102FD000040343F008039910013B91720D2B0BD8A9
:102FE000DFE803F021071B070A152121150A071B3B
:102FF0000721D368013BD3605DF8044B7047937A97
:1030000003F003030029E6D043F00403E3E7D368A9
:103010005DF8044B023BD3607047D3685DF8044B06
:103020000233D3607047D3685DF8044B0133D3603B
:10303000704700BF88250020214B10B41A6E13681A
:10304000506819780478507A137A044201EA03012F
:103050001BD0937A03F0030309B143F0040343F058
:1030600008039910013B91720D2B0BD8DFE803F098
:1030700021071B070A152121150A071B0721D36801
:10308000013BD3605DF8044B7047937A03F0030370
:103090000029E6D043F00403E3E7D3685DF8044B6E
:1030A000023BD3607047D3685DF8044B0233D360B2
:1030B0007047D3685DF8044B0133D360704700BF9D
:1030C00088250020214B10B45A6E13685068197877
:1030D0000478507A137A044201EA03011BD0937AF0
:1030E00003F0030309B143F0040343F0080399100C
:1030F000013B91720D2B0BD8DFE803F021071B0772
:103100000A152121150A071B0721D368013BD3604B
:103110005DF8044B7047937A03F003030029E6D06F
:1031200043F00403E3E7D3685DF8044B023BD3604C
:103130007047D3685DF8044B0233D3607047D3689F
:103140005DF8044B0133D360704700BF8825002031
:10315000214B10B49A6E1368506819780478507A2D
:10316000137A044201EA03011BD0937A03F00303AC
:1031700009B143F0040343F008039910013B917235
:103180000D2B0BD8DFE803F021071B070A152121BF
:10319000150A071B0721D368013BD3605DF8044B78
:1031A0007047937A03F003030029E6D043F0040349
:1031B000E3E7D3685DF8044B023BD3607047D36804
:1031C0005DF8044B0233D3607047D3685DF8044B5D
:1031D0000133D360704700BF88250020214B10B415
:1031E000DA6E1368506819780478507A137A0442BA
:1031F00001EA03011BD0937A03F0030309B143F002
:10320000040343F008039910013B91720D2B0BD876
:10321000DFE803F021071B070A152121150A071B08
:103220000721D368013BD3605DF8044B7047937A64
:1032300003F003030029E6D043F00403E3E7D36877
:103240005DF8044B023BD3607047D3685DF8044BD4
:103250000233D3607047D3685DF8044B0133D36009
:10326000704700BF88250020214B10B41A6F1368E7
:10327000506819780478507A137A044201EA0301FD
:103280001BD0937A03F0030309B143F0040343F026
:1032900008039910013B91720D2B0BD8DFE803F066
:1032A00021071B070A152121150A071B0721D368CF
:1032B000013BD3605DF8044B7047937A03F003033E
:1032C0000029E6D043F00403E3E7D3685DF8044B3C
:1032D000023BD3607047D3685DF8044B0233D36080
:1032E0007047D3685DF8044B0133D360704700BF6B
:1032F00088250020214B10B45A6F13685068197844
:103300000478507A137A044201EA03011BD0937ABD
:1033100003F0030309B143F0040343F008039910D9
:10332000013B91720D2B0BD8DFE803F021071B073F
:103330000A152121150A071B0721D368013BD36019
:103340005DF8044B7047937A03F003030029E6D03D
:1033500043F00403E3E7D3685DF8044B023BD3601A
:103360007047D3685DF8044B0233D3607047D3686D
:103370005DF8044B0133D360704700BF88250020FF
:10338000214B10B49A6F1368506819780478507AFA
:10339000137A044201EA03011BD0937A03F003037A
:1033A00009B143F0040343F008039910013B917203
:1033B0000D2B0BD8DFE803F021071B070A1521218D
:1033C000150A071B0721D368013BD3605DF8044B46
:1033D0007047937A03F003030029E6D043F0040317
:1033E000E3E7D3685DF8044B023BD3607047D368D2
:1033F0005DF8044B0233D3607047D3685DF8044B2B
:103400000133D360704700BF88250020214B10B4E2
:10341000DA6F1368506819780478507A137A044286
:1034200001EA03011BD0937A03F0030309B143F0CF
:10343000040343F008039910013B91720D2B0BD844
:10344000DFE803F021071B070A152121150A071BD6
:103450000721D368013BD3605DF8044B7047937A32
:1034600003F003030029E6D043F00403E3E7D36845
:103470005DF8044B023BD3607047D3685DF8044BA2
:103480000233D3607047D3685DF8044B0133D360D7
:10349000704700BF88250020214B10B4D3F880204E
:1034A0001368506819780478507A137A044201EA54
:1034B00003011BD0937A03F0030309B143F0040323
:1034C00043F008039910013B91720D2B0BD8DFE8F4
:1034D00003F021071B070A152121150A071B0721E5
:1034E000D368013BD3605DF8044B7047937A03F0D7
:1034F00003030029E6D043F00403E3E7D3685DF853
:10350000044B023BD3607047D3685DF8044B023331
:10351000D3607047D3685DF8044B0133D3607047C4
:1035200088250020214B10B4D3F8842013685068FC
:1035300019780478507A137A044201EA03011BD007
:10354000937A03F0030309B143F0040343F0080343
:103550009910013B91720D2B0BD8DFE803F0210786
:103560001B070A152121150A071B0721D368013BF8
:10357000D3605DF8044B7047937A03F0030300298E
:10358000E6D043F00403E3E7D3685DF8044B023B65
:10359000D3607047D3685DF8044B0233D360704743
:1035A000D3685DF8044B0133D36070478825002051
:1035B000214B10B4D3F88820136850681978047828
:1035C000507A137A044201EA03011BD0937A03F084
:1035D000030309B143F0040343F008039910013BCE
:1035E00091720D2B0BD8DFE803F021071B070A159A
:1035F0002121150A071B0721D368013BD3605DF821
:10360000044B7047937A03F003030029E6D043F09C
:103610000403E3E7D3685DF8044B023BD3607047D3
:10362000D3685DF8044B0233D3607047D3685DF80C
:10363000044B0133D360704788250020214B10B420
:10364000D3F88C201368506819780478507A137A6C
:10365000044201EA03011BD0937A03F0030309B18A
:1036600043F0040343F008039910013B91720D2BC2
:103670000BD8DFE803F021071B070A152121150AE3
:10368000071B0721D368013BD3605DF8044B7047EB
:10369000937A03F003030029E6D043F00403E3E741
:1036A000D3685DF8044B023BD3607047D3685DF884
:1036B000044B0233D3607047D3685DF8044B013389
:1036C000D360704788250020214B10B4D3F8902098
:1036D0001368506819780478507A137A044201EA22
:1036E00003011BD0937A03F0030309B143F00403F1
:1036F00043F008039910013B91720D2B0BD8DFE8C2
:1037000003F021071B070A152121150A071B0721B2
:10371000D368013BD3605DF8044B7047937A03F0A4
:1037200003030029E6D043F00403E3E7D3685DF820
:10373000044B023BD3607047D3685DF8044B0233FF
:10374000D3607047D3685DF8044B0133D360704792
:1037500088250020214B10B4D3F8942013685068BA
:1037600019780478507A137A044201EA03011BD0D5
:10377000937A03F0030309B143F0040343F0080311
:103780009910013B91720D2B0BD8DFE803F0210754
:103790001B070A152121150A071B0721D368013BC6
:1037A000D3605DF8044B7047937A03F0030300295C
:1037B000E6D043F00403E3E7D3685DF8044B023B33
:1037C000D3607047D3685DF8044B0233D360704711
:1037D000D3685DF8044B0133D3607047882500201F
:1037E000214B10B4D3F898201368506819780478E6
:1037F000507A137A044201EA03011BD0937A03F052
:10380000030309B143F0040343F008039910013B9B
:1038100091720D2B0BD8DFE803F021071B070A1567
:103820002121150A071B0721D368013BD3605DF8EE
:10383000044B7047937A03F003030029E6D043F06A
:103840000403E3E7D3685DF8044B023BD3607047A1
:10385000D3685DF8044B0233D3607047D3685DF8DA
:10386000044B0133D360704788250020214B10B4EE
:10387000D3F89C201368506819780478507A137A2A
:10388000044201EA03011BD0937A03F0030309B158
:1038900043F0040343F008039910013B91720D2B90
:1038A0000BD8DFE803F021071B070A152121150AB1
:1038B000071B0721D368013BD3605DF8044B7047B9
:1038C000937A03F003030029E6D043F00403E3E70F
:1038D000D3685DF8044B023BD3607047D3685DF852
:1038E000044B0233D3607047D3685DF8044B013357
:1038F000D360704788250020214B10B4D3F8A02056
:103900001368506819780478507A137A044201EAEF
:1039100003011BD0937A03F0030309B143F00403BE
:1039200043F008039910013B91720D2B0BD8DFE88F
:1039300003F021071B070A152121150A071B072180
:10394000D368013BD3605DF8044B7047937A03F072
:1039500003030029E6D043F00403E3E7D3685DF8EE
:10396000044B023BD3607047D3685DF8044B0233CD
:10397000D3607047D3685DF8044B0133D360704760
:1039800088250020214B10B4D3F8A4201368506878
:1039900019780478507A137A044201EA03011BD0A3
:1039A000937A03F0030309B143F0040343F00803DF
:1039B0009910013B91720D2B0BD8DFE803F0210722
:1039C0001B070A152121150A071B0721D368013B94
:1039D000D3605DF8044B7047937A03F0030300292A
:1039E000E6D043F00403E3E7D3685DF8044B023B01
:1039F000D3607047D3685DF8044B0233D3607047DF
:103A0000D3685DF8044B0133D360704788250020EC
:103A1000214B10B4D3F8A8201368506819780478A3
:103A2000507A137A044201EA03011BD0937A03F01F
:103A3000030309B143F0040343F008039910013B69
:103A400091720D2B0BD8DFE803F021071B070A1535
:103A50002121150A071B0721D368013BD3605DF8BC
:103A6000044B7047937A03F003030029E6D043F038
:103A70000403E3E7D3685DF8044B023BD36070476F
:103A8000D3685DF8044B0233D3607047D3685DF8A8
:103A9000044B0133D360704788250020214B10B4BC
:103AA000D3F8AC201368506819780478507A137AE8
:103AB000044201EA03011BD0937A03F0030309B126
:103AC00043F0040343F008039910013B91720D2B5E
:103AD0000BD8DFE803F021071B070A152121150A7F
:103AE000071B0721D368013BD3605DF8044B704787
:103AF000937A03F003030029E6D043F00403E3E7DD
:103B0000D3685DF8044B023BD3607047D3685DF81F
:103B1000044B0233D3607047D3685DF8044B013324
:103B2000D360704788250020214B10B4D3F8B02013
:103B30001368506819780478507A137A044201EABD
:103B400003011BD0937A03F0030309B143F004038C
:103B500043F008039910013B91720D2B0BD8DFE85D
:103B600003F021071B070A152121150A071B07214E
:103B7000D368013BD3605DF8044B7047937A03F040
:103B800003030029E6D043F00403E3E7D3685DF8BC
:103B9000044B023BD3607047D3685DF8044B02339B
:103BA000D3607047D3685DF8044B0133D36070472E
:103BB00088250020214B10B4D3F8B4201368506836
:103BC00019780478507A137A044201EA03011BD071
:103BD000937A03F0030309B143F0040343F00803AD
:103BE0009910013B91720D2B0BD8DFE803F02107F0
:103BF0001B070A152121150A071B0721D368013B62
:103C0000D3605DF8044B7047937A03F003030029F7
:103C1000E6D043F00403E3E7D3685DF8044B023BCE
:103C2000D3607047D3685DF8044B0233D3607047AC
:103C3000D3685DF8044B0133D360704788250020BA
:103C4000214B10B4D3F8B820136850681978047861
:103C5000507A137A044201EA03011BD0937A03F0ED
:103C6000030309B143F0040343F008039910013B37
:103C700091720D2B0BD8DFE803F021071B070A1503
:103C80002121150A071B0721D368013BD3605DF88A
:103C9000044B7047937A03F003030029E6D043F006
:103CA0000403E3E7D3685DF8044B023BD36070473D
:103CB000D3685DF8044B0233D3607047D3685DF876
:103CC000044B0133D360704788250020214B10B48A
:103CD000D3F8BC201368506819780478507A137AA6
:103CE000044201EA03011BD0937A03F0030309B1F4
:103CF00043F0040343F008039910013B91720D2B2C
:103D00000BD8DFE803F021071B070A152121150A4C
:103D1000071B0721D368013BD3605DF8044B704754
:103D2000937A03F003030029E6D043F00403E3E7AA
:103D3000D3685DF8044B023BD3607047D3685DF8ED
:103D4000044B0233D3607047D3685DF8044B0133F2
:103D5000D360704788250020214B10B4D3F8C020D1
:103D60001368506819780478507A137A044201EA8B
:103D700003011BD0937A03F0030309B143F004035A
:103D800043F008039910013B91720D2B0BD8DFE82B
:103D900003F021071B070A152121150A071B07211C
:103DA000D368013BD3605DF8044B7047937A03F00E
:103DB00003030029E6D043F00403E3E7D3685DF88A
:103DC000044B023BD3607047D3685DF8044B023369
:103DD000D3607047D3685DF8044B0133D3607047FC
:103DE00088250020214B10B4D3F8C42013685068F4
:103DF00019780478507A137A044201EA03011BD03F
:103E0000937A03F0030309B143F0040343F008037A
:103E10009910013B91720D2B0BD8DFE803F02107BD
:103E20001B070A152121150A071B0721D368013B2F
:103E3000D3605DF8044B7047937A03F003030029C5
:103E4000E6D043F00403E3E7D3685DF8044B023B9C
:103E5000D3607047D3685DF8044B0233D36070477A
:103E6000D3685DF8044B0133D36070478825002088
:103E7000214B10B4D3F8C82013685068197804781F
:103E8000507A137A044201EA03011BD0937A03F0BB
:103E9000030309B143F0040343F008039910013B05
:103EA00091720D2B0BD8DFE803F021071B070A15D1
:103EB0002121150A071B0721D368013BD3605DF858
:103EC000044B7047937A03F003030029E6D043F0D4
:103ED0000403E3E7D3685DF8044B023BD36070470B
:103EE000D3685DF8044B0233D3607047D3685DF844
:103EF000044B0133D360704788250020214B10B458
:103F0000D3F8CC201368506819780478507A137A63
:103F1000044201EA03011BD0937A03F0030309B1C1
:103F200043F0040343F008039910013B91720D2BF9
:103F30000BD8DFE803F021071B070A152121150A1A
:103F4000071B0721D368013BD3605DF8044B704722
:103F5000937A03F003030029E6D043F00403E3E778
:103F6000D3685DF8044B023BD3607047D3685DF8BB
:103F7000044B0233D3607047D3685DF8044B0133C0
:103F8000D360704788250020002310B4114C417283
:103F9000026104600372C36041B1194600E0026926
:103FA00042F82310427A01339A42F8DC0A4B1A682D
:103FB0000AB90CE01A465369002BFBD1506100236B
:103FC00043618380C38083725DF8044B704718603F
:103FD000F5E700BFDC8902009828002014490A6830
:103FE000002310B4134C0460437203610372C36076
:103FF0000AB91AE01A465369002BFBD1506100231D
:104000000D4943614FF080428380C3808372836196
:10401000C36103624362C362038643868386C386A9
:10402000016082625DF8044B70470860E7E700BFFB
:1040300098280020DC890200E8A8030000211C4B1E
:10404000036010B400F1180202240B4644720261AE
:104050000172C16000E0026942F82310427A013324
:104060009A42F8DC134B1A680AB91FE01A465369E2
:10407000002BFBD1506100230F4943614FF40042F4
:104080008380C380837203624362C3620363A0F8C8
:104090003432A0F8363280F8383280F83932A0F85D
:1040A0003A32016082625DF8044B70471860E2E7C3
:1040B000DC89020098280020F4A80300F5EEC00A6D
:1040C000F1EE10FAF7EE007AB4EEE70A3FD9F1EE1E
:1040D00010FA1FDD444ADFED457A60EEA70AFDEED7
:1040E000E07A17EE903A63B372B6C1690262914208
:1040F00059D030B481FAA2F4EFF300852D0130D409
:1041000094FBF3F3002B37D043620123037662B6AE
:1041100030BC7047BFEE007AB4EEC70AF1EE10FA79
:1041200045D4DFED326A60EEA60AFDEEE06A16EED7
:10413000903A002B46D1B4EEE70AF1EE10FA38DDE2
:10414000294A72B60023C261037662B67047F1EE67
:1041500010FA18DD244B72B60022C361027662B6F3
:1041600070475D1C022D91BF234692FBF3F491FB37
:10417000F3F3E31A002BC7D19142ACBF4FF0FF32EB
:1041800001224262C1E7FFEE007AB4EEE70AF1EEE7
:1041900010FA15D4DFED167A20EE270AFDEEC07A6C
:1041A00017EE903AD7E70023037662B67047114ABC
:1041B00091E7B4EEC70AF1EE10FA0CD50D4AC0E74C
:1041C0000C4BC8E7DFED0A7A20EE270AFDEEC07A35
:1041D00017EE902A88E7DFED067A20EE270AFDEE3B
:1041E000C07A17EE902AACE70000FF7F7978304262
:1041F00000FEFF4E000001802DE9F047884682B0A6
:10420000064615469A4601F1FF3900277C1CA54257
:1042100006D80023384608F8073002B0BDE8F0871A
:1042200001220DF10701304613F082FA0128F0D186
:104230009DF807100D29EAD009F8011F504620F01B
:1042400055FD27460028E1D0E3E700BF2DE9F04106
:10425000DFF880801D4F8AB00C46054601F53C769C
:10426000284613F0C5F910B90AB0BDE8F081142250
:10427000A642174B0DEB02012846F5D0FFF7BCFF15
:104280000AAA431E134400210028EDD013F8142C71
:104290002C2A18D00A2A284615D013F0A9F907218C
:1042A000002814BF404638461BF018F905A901A89C
:1042B0001BF0ECFE01A920461BF094FF01A81BF0A7
:1042C000A5FE1034CCE703F8141CEFE7F89E0300BA
:1042D000009F0300F09E030030B5044689B00D46F0
:1042E0001A48214613F00AFC58BB6846132322469D
:1042F000164913F08FFB684613F02EFA90B9192176
:1043000013481BF0EBF8204620F03AFF0146204608
:104310001BF0E4F80F481BF0D3FD684613F0FCF9DE
:1043200009B030BD294668461BF0A4FD68461BF065
:10433000C7FD684613F002FA684613F0EDF909B0BC
:1043400030BD2146014813F0E7FBCEE710110020F5
:10435000049F0300B043FF1F70B588B0064668464F
:104360000D461BF0A7FE05F1100405F53C756946E6
:1043700004A81BF09FFE104904A81BF0B1FF2146C2
:104380001BF0A6FF014668461BF024FF103404A86A
:104390001BF03CFEAC42EAD1694604A81BF08AFE41
:1043A00004A93046FFF798FF04A81BF02FFE6846CB
:1043B0001BF02CFE08B070BD209F030010B5014615
:1043C0000446054813F09AFB00B910BD2146024887
:1043D000BDE8104013F0A0BB1011002010B403681A
:1043E00041681A780C78417A037A0C4202EA030297
:1043F0001BD0837A03F003030AB143F0040343F0B4
:1044000008039A10013B82720D2B0BD8DFE803F0F2
:1044100021071B070A152121150A071B0721C3685D
:10442000013BC3605DF8044B7047837A03F00303DC
:10443000002AE6D043F00403E3E7C3685DF8044BC9
:10444000023BC3607047C3685DF8044B0233C3602E
:104450007047C3685DF8044B0133C360704700BF09
:1044600008B5034BD3F8D400FFF7B8FF08BD00BF71
:104470008825002008B5034BD3F8D000FFF7AEFF26
:1044800008BD00BF8825002008B50B463B2800F278
:10449000C682DFE810F0BB02B202A902A0029702B6
:1044A0008E0285027C0273026A02610258024F0288
:1044B00046023D0234022B022202190210020702B8
:1044C000AE01A5019C0193018A01810178016F0170
:1044D00066015D0154014A01400136012C012201AF
:1044E00018010E010401FA00F000E600DC00D20021
:1044F000C800BE00B400AA00A00096008C00820094
:1045000078006E0064005A00500046003C00BD4A2E
:10451000BD49C2F8EC303B20042219F059FC0120BF
:1045200008BDB84AB949C2F8E8303A20042219F067
:104530004FFC012008BDB34AB549C2F8E430392028
:10454000042219F045FC012008BDAE4AB149C2F869
:10455000E0303820042219F03BFC012008BDA94AB4
:10456000AD49C2F8DC303720042219F031FC0120BB
:1045700008BDA44AA949C2F8D8303620042219F04F
:1045800027FC012008BD9F4AA549C2F8D430352038
:10459000042219F01DFC012008BD9A4AA149C2F865
:1045A000D0303420042219F013FC012008BD954AB4
:1045B0009D49C2F8CC303320042219F009FC0120B7
:1045C00008BD904A9949C2F8C8303220042219F037
:1045D000FFFB012008BD8B4A9549C2F8C430312049
:1045E000042219F0F5FB012008BD864A9149C2F862
:1045F000C0303020042219F0EBFB012008BD814AB5
:104600008D49C2F8BC302F20042219F0E1FB0120B3
:1046100008BD7C4A8949C2F8B8302E20042219F01E
:10462000D7FB012008BD774A8549C2F8B4302D2058
:10463000042219F0CDFB012008BD724A8149C2F85D
:10464000B0302C20042219F0C3FB012008BD6D4AB4
:104650007D49C2F8AC302B20042219F0B9FB0120AF
:1046600008BD684A7949C2F8A8302A20042219F006
:10467000AFFB012008BD634A7549C2F8A430292068
:10468000042219F0A5FB012008BD5E4A7149C2F859
:10469000A0302820042219F09BFB012008BD594AB4
:1046A0006D49C2F89C302720042219F091FB0120AB
:1046B00008BD544A6949C2F898302620042219F0EE
:1046C00087FB012008BD4F4A6549C2F89430252078
:1046D000042219F07DFB012008BD4A4A6149C2F855
:1046E00090302420042219F073FB012008BD454AB4
:1046F0005D49C2F88C302320042219F069FB0120A7
:1047000008BD404A5949C2F888302220042219F0D5
:104710005FFB012008BD3B4A5549C2F88430212087
:10472000042219F055FB012008BD364A5149C2F850
:1047300080302020042219F04BFB012008BD314AB3
:104740004D49D3671F20042219F042FB012008BD08
:104750002C4A4A4993671E20042219F039FB012094
:1047600008BD284A464953671D20042219F030FB32
:10477000012008BD234A434913671C20042219F075
:1047800027FB012008BD1F4A3F49D3661B20042296
:1047900019F01EFB012008BD1A4A3C4993661A20F5
:1047A000042219F015FB012008BD164A384953664A
:1047B0001920042219F00CFB012008BD114A3549CB
:1047C00013661820042219F003FB012008BD0D4ACE
:1047D0003149D3651720042219F0FAFA012008BDE7
:1047E000084A2E4993651620042219F0F1FA012097
:1047F00008BD044A2A4953651520042219F0E8FA35
:10480000012008BD882500205D200000D11F000088
:10481000D525000049250000BD24000031240000FA
:104820006144000075440000FD3E0000713E000040
:10483000E53D0000593D0000CD3C0000413C00003A
:10484000B53B0000293B00009D3A0000113A0000F2
:1048500085390000F93800006D380000E1370000AC
:1048600055370000C93600003D360000B135000064
:1048700025350000993400000D340000813300001C
:10488000F532000069320000DD31000051310000D6
:10489000C530000039300000AD2F0000212F00008E
:1048A000952E00005F4A604913651420042219F018
:1048B0008FFA012008BD5B4A5C49D36413200422AF
:1048C00019F086FA012008BD564A5949936412200E
:1048D000042219F07DFA012008BD524A554953645B
:1048E0001120042219F074FA012008BD4D4A5249E2
:1048F00013641020042219F06BFA012008BD494A04
:104900004E49D3630F20042219F062FA012008BD3A
:10491000444A4B4993630E20042219F059FA0120AE
:1049200008BD404A474953630D20042219F050FA4C
:10493000012008BD3B4A444913630C20042219F0AE
:1049400047FA012008BD374A4049D3620B200422B0
:1049500019F03EFA012008BD324A3D4993620A200F
:10496000042219F035FA012008BD2E4A3949536254
:104970000920042219F02CFA012008BD294A3649E1
:1049800013620820042219F023FA012008BD254AE9
:104990003249D3610720042219F01AFA012008BD18
:1049A000204A2F4993610620042219F011FA0120B0
:1049B00008BD1C4A2B4953610520042219F008FA4E
:1049C000012008BD174A284913610422104619F036
:1049D000FFF9012008BD134A2449D36003200422B3
:1049E00019F0F6F9012008BD0E4A21499360022012
:1049F000042219F0EDF9012008BD0A4A1D4953604F
:104A00000120042219F0E4F9012008BD054A1A49E1
:104A100013600020042219F0DBF9012008BD0020FA
:104A200008BD00BF88250020092E00007D2D000054
:104A3000F12C0000652C0000D92B00004D2B00004C
:104A4000C12A0000352A0000A92900001D29000004
:104A5000912800000528000079270000ED260000BD
:104A600061260000A5230000192300008D2200000C
:104A70000122000075210000E920000008B5012195
:104A80001C2019F047FA01211B2019F043FA0121DB
:104A90001A2019F03FFA0121192019F03BFA0221DE
:104AA000272019F037FA02211E2019F033FA0221CB
:104AB000242019F02FFA0221102019F02BFA0221DC
:104AC000112019F027FA0221182019F023FA0221E7
:104AD0000C2019F01FFA02210A2019F01BFA0121FB
:104AE000222019F017FA0121232019F013FA0121CD
:104AF000252019F00FFA01210E20BDE8084019F019
:104B000009BA00BF08B5012018F032FE38B10128FB
:104B100008D0022809D0064B93ED000A08BD9FED8E
:104B2000050A08BDB6EE000A08BDB7EE000A08BDCA
:104B3000A43FFF1F0000000008B5FFF7E3FFB5EE3C
:104B4000400AF1EE10FA12D0F6EE007AB4EE670ADF
:104B5000F1EE10FA09D0F7EE007AB4EE670AF1EE42
:104B600010FA14BF0020022008BD012008BD00205B
:104B700008BD00BF70B5394C82B04FF6FF752046B6
:104B80000B260021FBF776FC2046019500962E238C
:104B90001E222A2117F0A8FF0195009620463D23EA
:104BA0001E225821FCF780F91F232D2220462C4974
:104BB0002382E28118F054FB2046012118F048FBC3
:104BC00007222849A582204665821BF03DF9204630
:104BD0001BF076F95B26002309222349A3822525B1
:104BE000204663822582E6811BF02EF920461BF0C9
:104BF00067F94FF6E07320461C49A382638218F0E0
:104C00002FFB46230522204601212382E28118F052
:104C10001FFB0622164920461BF016F920461BF002
:104C20004FF94FF4784320461249A382638218F06B
:104C300017FB114B1D686E225F232846E2812382F9
:104C400020F09EFA2946024620461BF0FDF8204639
:104C500002B0BDE870401BF033B900BFACF8FF1FD5
:104C600050900200249F03002C9F0300B892030081
:104C7000389F0300AC920300743FFF1F2DE9F04101
:104C8000984C82B000212046FBF7F4FB2046964961
:104C900018F0E6FA05254FF6E0733522204601218B
:104CA0002282A3826382E58118F0D2FA8F492046DE
:104CB0001BF0E0F820461BF003F9002320468C4946
:104CC000A382638218F0CCFA8A4B1B78002B40F049
:104CD000F180844EDFF844820C251F2730462B4696
:104CE0001C2273218DE8A00017F0FEFE2B463046F3
:104CF0001C2282218DE8A00017F0F6FE2B463046DC
:104D00001C2291218DE8A00017F0EEFE2B463046C4
:104D10002B2273218DE8A00017F0E6FE2B463046CB
:104D20002B2282218DE8A00017F0DEFE2B468DE8B5
:104D3000A00030462B22912117F0D6FE98F80830BB
:104D4000002B40F0A28098F81430002B40F08780B0
:104D500098F82030002B6CD198F82C30002B52D1D1
:104D600098F83830002B38D198F84430A3B10C2390
:104D70001F22019200932B2291215A48FCF794F8AC
:104D80009425332301225C495648E58123821BF098
:104D90005BF854481BF094F8638952484FF478420A
:104DA000143B1BB200920A213E22FBF77DFF5349C0
:104DB0004C4818F055FA01254FF6FF735A22504916
:104DC0004848E5812282A38263821BF053F845485C
:104DD00002B0BDE8F0411BF073B80C231F22019212
:104DE00000932B2282213F48FCF75EF88525332370
:104DF000012244493B48E58123821BF025F83948CC
:104E00001BF05EF8B0E70C231F22019200932B22C7
:104E100073213448FCF748F87625332301223A49B8
:104E20003048E58123821BF00FF82E481BF048F82C
:104E300096E70C231F22019200931C2291212948FE
:104E4000FCF732F894252423012230492548E581D6
:104E500023821AF0F9FF23481BF032F87CE70C2379
:104E60001F22019200931C2282211E48FCF71CF88D
:104E700085252423012226491A48E58123821AF038
:104E8000E3FF18481BF01CF862E72B4630468DE81C
:104E9000A0001C227321FCF707F878202423F0815E
:104EA00001221C49338230461AF0CEFF30461BF0F7
:104EB00007F848E707224FF47C438DE80C002046B2
:104EC00013231C225D21FBF7EFFF5E202123E081ED
:104ED00003221149238220461AF0B6FF20461AF019
:104EE000EFFFF6E6ACF8FF1F5C9202006C71FF1F4B
:104EF0005090020070F8FF1F549F0300B08C030015
:104F0000A8050020CCA50300509F03004C9F030080
:104F1000489F0300449F0300409F0300083FFF1F7A
:104F200030B5F2EE0E7A2DED028BF2EE0A8AE0EE4B
:104F3000287A85B040F2FF750095FDEEE77A4A22A7
:104F4000CDED037ABDF90C301C486C21B0EE408ADF
:104F5000FBF7AAFEDFED1A7A0095E8EE287A142313
:104F60004A221648FDEEE77ACDED037ABDF90C40F2
:104F70002146FBF7ADFDF3EE007AE8EE687A2146B4
:104F800000955E22FDEEE77A0C48CDED037ABDF97F
:104F90000C30FBF789FEB5EEC08AF1EE10FA0095F1
:104FA0004FF015034FF04A024CBF6C218A21034891
:104FB000FBF78EFD05B0BDEC028B30BDACF8FF1FDA
:104FC0000000F642DFED127AB2EE0A7AF0B5E0EEBA
:104FD000077A85B00F4DFDEEE77A40F2FF77CDED11
:104FE000037ABDF90C4001974A26284623460096CD
:104FF0005E226E2117F028FD5E2300932146019763
:1050000032462846882317F01FFD05B0F0BD00BFCB
:105010000000F642ACF8FF1FF0B52DED068BDFED7A
:10502000348A344DB2EE0E9AF0EE687AE0EE097AE8
:1050300085B040F2FF764A27FDEEE77AB0EE408A6F
:10504000CDED027ABDF908400097F0EE60AA28463F
:10505000234601965E226421B0EE41AAF0EE619AE9
:1050600017F0F2FC38EE2A8ADFED237A0196B3EED0
:10507000047AE8EE098A3A462146EAEE477A28465B
:10508000BDEEE87AFDEEE77A8DED027ACDED037A9A
:10509000BDF90870BDF90C4000943B4617F0D4FCF4
:1050A000DFED167A0096E8EE497A39462246284620
:1050B000FDEEE77ACDED027ABDF90830FBF7F4FD9D
:1050C000DFED0F7A0196B2EE0A7AE9EE877A5E2377
:1050D00000932246FDEEE77A2846CDED027ABDF92F
:1050E00008308B2117F0B0FC05B0BDEC068BF0BD8D
:1050F0000000C842ACF8FF1F0000BC420000204284
:1051000000000B4330B53C4C83B000212046FBF738
:10511000B1F92046394918F0A3F800254FF6E0739D
:105120003522204601212282A3826382E58118F084
:105130008FF8334920461AF09DFE20461AF0C0FE33
:1051400063894FF47842143B1BB2204600920A2137
:105150003E22FBF7A9FD01254FF6FF735A2229498C
:10516000A382204663822282E5811AF083FE2046D4
:105170001AF0A6FE244B1B68013B032B39D8DFE84D
:1051800003F030281B02214B2149224A93ED000AEB
:10519000D1ED001ADFED207AD2ED000A1F4B93ED1E
:1051A000001A61EEA71A60EEA70A20EE270A03B0E4
:1051B000BDE83040FFF730BF194B1A491A4A93ED4A
:1051C000000AD1ED001ADFED147AD2ED000A174B78
:1051D000E5E7174B93ED000A03B0BDE83040FFF759
:1051E000F1BE134B93ED000A03B0BDE83040FFF76A
:1051F00097BE03B030BD00BFACF8FF1FB08C0300FA
:105200008C6DFF1F90F4FF1F7CF9FF1F883FFF1F6D
:10521000D03EFF1FD83EFF1F17B7D138903FFF1F6A
:10522000983FFF1FDC3EFF1FF43EFF1FC43EFF1FE1
:10523000A40B00202DE9F047544C554F88B0204670
:105240000021FBF717F92046524918F009F84FF6EC
:10525000E07535230522204601212382E281A582C3
:10526000658217F0F5FF07224B4920461AF0ECFD46
:1052700020461AF025FE63894FF47842143B1BB296
:105280002046009244F610693C220A21FBF70CFDEF
:105290002046424917F0E4FF57F80910A58251F85B
:1052A000043B03934FF000084E2604A8A4F80E8098
:1052B000268265821AF0FEFE039920461AF050FEFF
:1052C00020461AF0FDFD04A81AF0A0FE57F80910B8
:1052D000268251F8043B03934FF6FF764FF02309E3
:1052E00004A8A4F80E90A68266821AF0E3FE04A930
:1052F00020461AF0BFFD20461AF0E2FD04A81AF07D
:1053000085FE44F60C6A4FF4204E1722CDF804E0D7
:10531000B4F90A300092414655222046FBF7C4FDFD
:1053200057F80A10A4F80E8051F8043B03934FF08D
:10533000620804A8A5826582A4F810801AF0BAFE5B
:10534000039920461AF00CFE20461AF0B9FD04A875
:105350001AF05CFE57F80A10A4F80E9051F8043BBE
:10536000039304A8A4F81080A68266821AF0A2FE15
:1053700004A920461AF07EFD20461AF0A1FD04A8DB
:105380001AF044FE08B0BDE8F08700BFACF8FF1F7C
:105390007872FF1F5C920200589F0300AC920300DA
:1053A00038B5154C00212046FBF764F82046134918
:1053B00017F056FF02254FF6E073352220460121F3
:1053C000A3826382E581228217F042FF0B220C49FF
:1053D00020461AF039FD20461AF072FD0A255A239C
:1053E000204607220749E58123821AF02DFD204639
:1053F000BDE838401AF064BDACF8FF1FB08C030064
:10540000609F03006C9F030038B5154C00212046B7
:10541000FBF730F82046134917F022FF4FF6E073F0
:1054200020460121A3826382052517F011FF352351
:105430000D220D4923822046E5811AF005FD204604
:105440001AF03EFD5A2320460D220849E5812382A9
:105450001AF0FAFC2046BDE838401AF031BD00BF12
:10546000ACF8FF1FB08C0300749F0300849F0300FF
:1054700030B51D4C83B020460021FAF7FBFF2046D3
:105480001A4917F0EDFE4FF6E07320460121A38282
:105490006382002517F0DCFE35230C221449238299
:1054A0002046E5811AF0D0FC20461AF009FD6389F8
:1054B0004FF47842143B204600921BB23E220A2150
:1054C000FBF7F2FB05254FF6FF735A2220460949E8
:1054D000E5812282A38263821AF0CCFC204603B0CD
:1054E000BDE830401AF0ECBCACF8FF1FB08C0300F4
:1054F000949F03003070FF1F2DE9F043A1F10803D2
:1055000085B0174E00F1080700F110080FFA81FE70
:1055100005B291463FB20FFA88F81AB20C463B46E4
:105520008DE8040129467246CDF808E03046CDF8F2
:105530000C90A6F810E0F58117F040FB221D0C340A
:1055400012B224B2CDF804803B462946CDF80C9027
:1055500030460292009417F031FB05B0BDE8F083AD
:10556000ACF8FF1FF0B52D4C2D4E83B02046002126
:10557000FAF780FF20462B4917F072FE4FF6E075D0
:1055800001212046A582658217F062FE264B1F6826
:105590000022352338462382E2811FF0F1FD39468F
:1055A000024620461AF050FC20461AF089FC336867
:1055B000082B2CD0638919484FF47842143B0A21F8
:1055C0001BB200923E22FBF76FFB184B1F680522AF
:1055D0005A234FF6FF7538462382E281A582658201
:1055E0001FF0CEFD394602460C481AF02DFC0B4840
:1055F0001AF066FC3368092B01D003B0F0BD2A46CF
:1056000050218C2003B0BDE8F040FFF775BF2A465B
:105610002A218C20FFF770FFCCE700BFACF8FF1FFA
:10562000A03FFF1FB08C0300CC3EFF1F543FFF1F65
:1056300010B52DED028B0C4684B0B0EE408A0146C9
:105640000E481AF0D7FDB0EE480A022168461AF05B
:1056500077FD69460A481AF0C5FD68461AF0D6FC7F
:10566000084B0949094A1B6881ED008A14600BB98F
:10567000FCF7C8FB04B0BDEC028B10BD8C6DFF1FA6
:1056800090F4FF1F1054FF1FA40B00207CF9FF1F94
:1056900070B50D4C2368083B012B98BF00230E46C4
:1056A00001460A4898BF236015461AF0A3FD31460B
:1056B00007481AF08FFD074923680D6003B170BDDC
:1056C000BDE87040FCF79EBB1054FF1F8C6DFF1FA0
:1056D00090F4FF1F7CF9FF1F10B584B004466846A4
:1056E0001AF0E8FC204669460022FFF7D1FF684621
:1056F0001AF08CFC04B010BD10B5104C82B0012122
:105700002046FCF7B5F820460021FCF743F8204678
:105710000321FBF7AFF820460121FAF7B5FFFFF7A9
:1057200029FA2046FCF7CEF8002200924FF0FF3312
:105730000349044816F07CFF02B010BDACF8FF1F0F
:1057400095DE0000B026002008B5184810F006FAD3
:10575000174810F003FA174810F000FA164810F036
:10576000FDF9164810F0FAF9154810F0F7F9154848
:1057700010F0F4F9144810F0F1F9144810F0EEF9B3
:10578000134810F0EBF9134810F0E8F9124810F044
:10579000E5F9124B00221A721A7583F8202083F85B
:1057A0002C2083F8382083F8442008BDE06EFF1FCA
:1057B000E4D8FF1F186FFF1F1CD9FF1F506FFF1F7A
:1057C00054D9FF1F886FFF1F8CD9FF1FF8F3FF1FED
:1057D000C4D9FF1FF86FFF1FFCD9FF1F083FFF1F31
:1057E00000B5134B134A1B6883B001930199124B08
:1057F00011604FF0FF3290421A6013D00F4A00231D
:1058000004E00133062B02F10C0207D01168884234
:10581000F7D1117A0029F4D0581C00E0012003B020
:105820005DF804FBFCF7FCFA03B05DF804FB00BF75
:10583000F826002044C1FF1F003FFF1F083FFF1F45
:1058400000B5374B1B6883B043B1364B1B688B42A6
:105850000FD0354B196003B05DF804FB0846FFF725
:10586000BFFF01380528F6D8DFE800F01623303EE8
:105870004C080191FFF768FF0199EAE72B4810F007
:105880006DF92B4810F06AF9264B274AD96B116045
:10589000002283F84420DEE7264810F05FF926480E
:1058A00010F05CF91F4B204A1968116000221A722F
:1058B000D1E7224810F052F9214810F04FF9194B66
:1058C000194AD968116000221A75C4E71D4810F002
:1058D00045F91D4810F042F9124B134A99691160BD
:1058E000002283F82020B6E7184810F037F918484E
:1058F00010F034F90B4B0C4A596A1160002283F8FE
:105900002C20A8E7134810F029F9134810F026F9C5
:10591000044B054A196B1160002283F838209AE77E
:105920006CF4FF1F083FFF1FAC3FFF1FF86FFF1F06
:10593000FCD9FF1FE06EFF1FE4D8FF1F186FFF1F89
:105940001CD9FF1F506FFF1F54D9FF1F886FFF1F07
:105950008CD9FF1FF8F3FF1FC4D9FF1F7F4B1A68B4
:10596000652AF0B500F09E807D4B1868652800F030
:10597000B980662A7B4B7C4A1B68116800F0CC809A
:105980007A4D7B4C7B4E0B4466280DD132687A48A9
:105990007A4F0A4480FB02E0A0EBE272013202EB94
:1059A000022207EB42022263754800EB8303D3ED2A
:1059B000007AF5EEC07AF1EE10FA00F18D809FEDDD
:1059C000717AF4EEC77AF1EE10FA38DC9FED6E7A58
:1059D0006E4A67EE877AFCEEE77A17EE903A9342CA
:1059E000C5ED097A2BD86A4B1B68012B2DD0326884
:1059F000684D8B1800EB8303D3ED007A95ED007AA8
:105A000067EE877AF5EEC07AF1EE10FA67D49FED73
:105A10005D7AF4EEC77AF1EE10FA0DDC9FED5A7A5A
:105A20005A4A67EE877AFCEEE77A17EE903A93428D
:105A3000C4ED097A40F28180544B6362F0BD534B50
:105A40006B62534B1B68012BD1D1524A3368D2EDA4
:105A5000007ADFED516AB7EE007A37EE677A0B44D1
:105A6000E7EE267A00EB830393ED007A67EE877A00
:105A7000F5EEC07AF1EE10FA31D49FED427AF4EEF1
:105A8000C77AF1EE10FAD7DC9FED3F7A3F4A67EE16
:105A9000877AFCEEE77A17EE903A9342C4ED097AE2
:105AA000CAD8F0BD304A2F4B11681B682C4A324FC0
:105AB0001068DFF8E8E02D4D0B4487FB0342A2EBB2
:105AC000E372013202EB02220EEB420265282A63E6
:105AD00034D0274C274E57E700236B6283E700231F
