:1000000000000320D101000075D401002DD40100AF
:100010002DD401002DD401002DD401002DD40100D8
:100020002DD401002DD401002DD4010075D4010080
:1000300075D401002DD401003DF8010041F9010003
:1000400075D4010075D4010075D4010075D4010088
:1000500075D4010075D4010075D4010075D4010078
:1000600075D4010075D4010075D4010075D4010068
:1000700075D4010075D4010075D4010075D4010058
:1000800075D4010075D4010075D4010075D4010048
:1000900075D4010075D4010075D4010075D4010038
:1000A000FD9401000995010075D4010075D401008B
:1000B00075D4010075D4010075D401005106020009
:1000C00075D401007D07020075D40100A908020063
:1000D00075D40100D50E020075D4010075D401005D
:1000E00075D4010075D4010075D4010075D40100E8
:1000F00075D4010075D4010075D4010075D40100D8
:10010000E5FA0100F9FA01000DFB010021FB0100F5
:1001100075D4010021DF010075D4010075D4010000
:1001200075D4010075D4010075D4010075D40100A7
:1001300075D4010075D4010075D4010075D4010097
:10014000F1F5010075D40100CD0F020075D4010056
:1001500075D4010075D4010075D4010075D4010077
:1001600075D4010075D401001595010075D4010006
:1001700075D4010075D4010075D4010075D4010057
:1001800075D4010075D4010075D4010075D4010047
:1001900075D4010075D40100C510020075D40100AA
:1001A00075D4010075D4010075D4010075D4010027
:1001B00075D4010075D4010075D4010075D4010017
:1001C00075D4010075D4010075D4010075D4010007
:1001D0005C4B4CF2205210B51A804DF628121A8052
:1001E00000BF00BF1DF04AF9574B4FF030621A6054
:1001F000564A9A60564ADA60564B4FF470021A60BB
:10020000554B564A1A60564B1A78110703D51A787F
:1002100042F008021A70534B5349AA221A70534AEB
:10022000534B8B4204D252F8040F43F8040BF8E707
:10023000504B514900228B4202D243F8042BFAE77B
:100240004E494F4A002352F8230041F8230001335E
:10025000742BF8D14B4B4C4A802103F8011B93427D
:10026000FBD14A4B454A1A60494B8A221A70A3F5C2
:10027000805324225A70A0221A709A799207FCD5D2
:100280009A79D406FCD4434A937903F00C03082BE3
:10029000FAD1414B60221A7002331A78802AFCD1BD
:1002A0003C4B01221A715D225A719A799006FCD555
:1002B0009979384A4906FBD5384B394919600021EC
:1002C000596020231370937903F00C030C2BFAD19F
:1002D000344B354A1A60354A354C136813F4807331
:1002E00003D123604FF4A8531360324B324A1A6093
:1002F00000225A60072243F8042C304AC3F80C2D20
:1003000062B61DF099FC2368DA0705D52C481DF06C
:10031000F1FB2C4B2C4A1A602C4B1B785B0609D541
:10032000284C294B22689A4204D125481DF0E2FB53
:100330000023236023F0F6FC1DF0A6F81FF09AFEC0
:10034000FEE700BF0E20054030800440823F0400DD
:100350000100002B88ED00E0002008E0030000858C
:1003600002D0074000E00740D852FF1FD0C503006D
:10037000B041FF1F0060FF1FF83D00200036FF1F47
:100380000000000000E400E064E400E008ED00E0AC
:10039000005006400040064001E007404480044011
:1003A0000000060204800440C010070010D0034083
:1003B00014D0034014E000E01FBF02000000202022
:1003C0004C37A85E1CE00340A5C3945A00F00740D8
:1003D000FFFFFFFFFFFFFFFFFFFFFFFFFFFFFFFF2D
:1003E000FFFFFFFFFFFFFFFFFFFFFFFFFFFFFFFF1D
:1003F000FFFFFFFFFFFFFFFFFFFFFFFFFFFFFFFF0D
:10040000FFFFFFFFFFFFFFFFFFFFFFFFDEF9FFFF23
:1004100010B5054C237833B9044B13B10448AFF33E
:1004200000800123237010BD0060FF1F000000004A
:10043000D4C50300084B10B51BB108490848AFF3F9
:1004400000800848036803B910BD074B002BFBD0A0
:10045000BDE81040184700BF000000000460FF1F07
:10046000D4C50300D852FF1F0000000000207047D1
:10047000704700BF10B582B0B0F90C20019101683F
:10048000009200220C6CB0F90A301146A04702B06D
:1004900010BD00BFC36C01221A70036D5BB11A68F6
:1004A00041F080514FF00043D3625163D36A002B77
:1004B000FCDA936B7047F0B54FEA112E08248025C3
:1004C0001EEA050F066C14BF012700273770466C23
:1004D0003270466C013C4FEA55053370F0D1036D24
:1004E000C9B24BB11A684FF00043D3625163D36A6B
:1004F000002BFCDA936BF0BD082280230127194200
:10050000056C14BF012600262E70456C2F70456CBB
:10051000013A4FEA53032C70F1D1F0BD2DE9F047B9
:100520000446894690468021A02200251F469DF85A
:1005300020609DF824A01CF03DF9144A1449216064
:10054000226304F17C0084F8349084F8358084F8C8
:1005500036A084F8377084F8386084F82150256517
:1005600084F85450A565E565256629461FF082F894
:10057000A022802384F8685084F874506566E5668C
:10058000A285E3852046BDE8F08700BF0320003840
:10059000FC8A020090F8213063B190F83A30826D05
:1005A000006E41EA03415163D36A03F4704383420E
:1005B000FAD87047C26C1370036D4BB11A684FF0D4
:1005C0000043D3625163D36A002BFCDA936B70470C
:1005D000F0B408221C46012780231942056C14BF81
:1005E000012600262E70456C2F70456C013A4FEAAB
:1005F00053032C70F1D1F0BC704700BF90F821304C
:10060000FBB190F83A30826D41EA034343F0006356
:100610001168536302E013F0F00F10D1D36AD800D1
:10062000F9D54FF08053D3621160D36A13F0F00F05
:1006300029D0936BD36A13F0F00FFAD17047936B04
:10064000ECE7C26C1370036D4BB11A684FF00043B6
:10065000D3625163D36A002BFCDA936B7047F0B41A
:1006600008221C46012780231942056C14BF01266D
:1006700000262E70456C2F70456C013A4FEA5303EB
:100680002C70F1D1F0BC7047036D70B504467BB19E
:10069000D87A226B002836D11B68D868904207D0E0
:1006A0002C4D1D602C48DA6042F080451D611860B9
:1006B000A36C0BB100221A7000290CBF202121214C
:1006C0002046FFF79BFFA36C0BB101221A70236D2C
:1006D000C3B1DA7AB2B1D40703D5204AD96911601F
:1006E000DA7A900703D51E4A196A1160DA7A51073F
:1006F00003D51C4A596A1160DA7A120702D51A4AE0
:100700009B6A136070BD72B6D87AC60706D5174DBE
:10071000D8682E683040D8612860D87A850706D519
:10072000134D18692E68304018622860D87A460741
:1007300006D5104D58692E68304058622860D87A26
:10074000050705D50C4D98692E68304098622860E1
:1007500062B6A1E701403F0000003F8000E100E0F9
:1007600004E100E008E100E00CE100E080E100E0ED
:1007700084E100E088E100E08CE100E090F82130C5
:1007800063B190F83930826D006E41EA03415163E4
:10079000D36A03F470438342FAD87047C36C0122D2
:1007A0001A70036D4BB11A684FF00043D362516366
:1007B000D36A002BFCDA936B7047F0B415461C46E5
:1007C000082280231942066C14BF012700273770C6
:1007D000466C3570466C013A4FEA53033470F1D1E0
:1007E000F0BC704790F82130FBB190F83930826D41
:1007F00041EA034343F000631168536302E013F0DE
:10080000F00F10D1D36AD800F9D54FF08053D362DE
:100810001160D36A13F0F00F2AD0936BD36A13F0F0
:10082000F00FFAD17047936BECE7C36C01221A709A
:10083000036D4BB11A684FF00043D3625163D36A22
:10084000002BFCDA936B7047F0B415461C46082267
:1008500080231942066C14BF012700273770466CAD
:100860003570466C013A4FEA53033470F1D1F0BC55
:10087000704700BF036D70B504460D467BB1D97A51
:10088000026B002931D11B68D968914207D06448B6
:1008900018606449DA6042F0804018611960A36C06
:1008A0000BB100221A7036212046FFF773FE05F0C7
:1008B00003010229217694F8203065D003294CD019
:1008C000012939D0022B00F09780052B00F094808D
:1008D000C8212046FFF786FFE08DA18D628CA38C96
:1008E0006081A181E284238564E072B6D97AC80769
:1008F00006D54D48D96806683140D9610160D97A7A
:100900008E0706D5494819690668314019620160A9
:10091000D97A480706D54648596906683140596270
:100920000160D97A0E0705D54248996906683140B9
:100930009962016062B6A6E7022B6CD0052B6AD0E3
:10094000A8212046FFF74EFFE08DA18D628CA38C7D
:10095000A08161812285E3842CE0022B56D0052BF7
:1009600054D068212046FFF73DFFA38CA08DE18D78
:10097000628C608123F020039BB2003318BF0123F7
:10098000E384A181228515E0022B3AD0052B38D0D3
:1009900008212046FFF726FFA38CE08DA18D628CF5
:1009A000608123F020039BB2003318BF012323850D
:1009B000A181E284A36C227E62850BB101221A70B0
:1009C000236DC3B1DA7AB2B1D40703D51A4AD96913
:1009D0001160DA7A900703D5184A196A1160DA7A39
:1009E000510703D5164A596A1160DA7A120702D5FF
:1009F000144A9B6A136070BDC0212046FFF7F2FEC7
:100A00006AE700212046FFF7EDFEC5E7602120469A
:100A1000FFF7E8FEA9E7A0212046FFF7E3FE93E7F2
:100A200001403F0000003F8080E100E084E100E001
:100A300088E100E08CE100E000E100E004E100E09A
:100A400008E100E00CE100E090F8212092B110B440
:100A50000B4690F83910826D006E43EA014343F073
:100A600080535363D36A03F470439842FAD35DF81A
:100A7000044B7047FFF70EBD10B490F8214014B33B
:100A80000B4690F83910826D43EA014343F0C0539E
:100A90001168536302E013F0F00F12D1D36AD8004B
:100AA000F9D54FF08053D3621160D36A13F0F00F81
:100AB00004D0936BD36A13F0F00FFAD15DF8044BB6
:100AC0007047936BEAE75DF8044BFFF7E3BC00BFA8
:100AD0002DE9F0410C46B0F90A10BDF81860A142AA
:100AE00040F3AE801F46B0F90C309342054640F308
:100AF000A780D0199842C4BF9B1A1FB295F86830DE
:100B0000002B40F09F802B6D002B3DD0D87AD5F87C
:100B100030C048B372B6D87AC10709D5DFF874E19E
:100B2000D968DEF800000840D861CEF80000D87A15
:100B3000810709D5DFF860E11969DEF80000084097
:100B40001862CEF80000D87A410709D5DFF84CE1E9
:100B50005969DEF8000008405862CEF80000D87AE3
:100B6000010700F1838062B61B68D86860450BD02E
:100B7000DFF82CE1C3F800E04148C3F80CC04CF0AA
:100B8000804EC3F810E01860AB6C0BB100211970F7
:100B90002A2128461FFA84F894B2FFF7FBFCE98C5F
:100BA000414489B22846FFF74FFFE98C414489B29E
:100BB0002846FFF749FF2B212846FFF7EBFC298D3C
:100BC000214489B22846FFF73FFF2A8D013A22448B
:100BD000BCB2A11889B22846FFF736FF2C2128465F
:100BE000FFF7D8FC012F08DD013C31462846A4B2AE
:100BF000FFF72AFF23B2012BF6DC31462846FFF728
:100C00003BFFAB6C0BB101221A702B6DC3B1DA7ACA
:100C1000B2B1D40703D51B4AD9691160DA7A9007BB
:100C200003D5194A196A1160DA7A510703D5174AB0
:100C3000596A1160DA7A120702D5154A9B6A136065
:100C4000BDE8F081686E02FB0142791E00EB4202B2
:100C500009B2002FF4D016800139B5F90A3009B273
:100C6000481C02EB4302F6D1BDE8F081DFF834E026
:100C70009969DEF8000008409862CEF8000072E73B
:100C800000003F8000E100E004E100E008E100E056
:100C90000CE100E080E100E084E100E088E100E0B8
:100CA00001403F008CE100E02DE9F843B0F90A4033
:100CB000BDF820608C4240F3AB801F46B0F90C3089
:100CC0009342054640F3A480CB19A3421FFA81F951
:100CD00090F86830C4BFC9EB04073FB2002B40F066
:100CE0009980036D002B38D0D87A296B48B372B63F
:100CF000D87AC40709D5DFF8A0E1DC68DEF8000087
:100D00002040D861CEF80000D87A840709D5DFF8F2
:100D10008CE11C69DEF8000020401862CEF800006B
:100D2000D87A440709D5DFF878E15C69DEF800007D
:100D300020405862CEF80000D87A000700F1968073
:100D400062B61B68D868884207D04D4C1C604D487D
:100D5000D96041F080441C611860AB6C0BB100217C
:100D600019702A2128461FFA82F8FFF713FCE98C34
:100D7000494489B22846FFF767FEE98C01394944A6
:100D8000BCB2214489B22846FFF75EFE2B212846DB
:100D9000FFF700FC298D414489B22846FFF754FE35
:100DA000298D414489B22846FFF74EFE2C21284662
:100DB000FFF7F0FB012F08DD013C31462846A4B2C5
:100DC000FFF742FE23B2012BF6DC31462846FFF73F
:100DD00053FEAB6C0BB101221A702B6DC3B1DA7AE2
:100DE000B2B1D40703D5284AD9691160DA7A9007DD
:100DF00003D5264A196A1160DA7A510703D5244AC5
:100E0000596A1160DA7A120702D5224A9B6A136086
:100E1000BDE8F8831FFA87FE49EA0E0919F0010FB1
:100E200010D1436E04FB021103EB410146EA064672
:100E3000002FEDD0023F3FB241F8046B002FF9D1F3
:100E4000BDE8F883406E04FB02110EF1FF3E00EB9B
:100E500041021FFA8EFE002FDAD002EB4E01931EE4
:100E600023F8026F9942FBD1BDE8F883DFF834E044
:100E70009C69DEF8000020409862CEF800005FE731
:100E800001403F0000003F8000E100E004E100E09D
:100E900008E100E00CE100E080E100E084E100E036
:100EA00088E100E08CE100E02DE9F8430646B0F966
:100EB0000A00BDF92040BDF82450884240F3C480A8
:100EC0001F46B6F90C30934240F3BE8001EB070E8B
:100ED00086451FFA81F8C8BFC8EB000702EB040E75
:100EE000C8BF3FB29E45C4BF9B1A1CB296F868307B
:100EF000002B40F0AB80336D002B3DD0D97AD6F873
:100F000030C049B372B6D97AC80709D5DFF8E8E12D
:100F1000D868DEF800100140D961CEF80010D97A07
:100F2000880709D5DFF8D4E11869DEF80010014020
:100F30001962CEF80010D97A480709D5DFF8C0E168
:100F40005869DEF8001001405962CEF80010D97AD5
:100F5000090700F1BC8062B61B68D96861450BD0F7
:100F6000DFF8A0E1C3F800E05E49C3F80CC04CF024
:100F7000804EC3F810E01960B36C0BB100211970FA
:100F80002A2130461FFA82F9FFF704FBF18C414415
:100F900089B23046FFF758FDF18C0139414439449C
:100FA00089B23046FFF750FD2B213046FFF7F2FAA9
:100FB000318D494489B23046FFF746FD318D013904
:100FC0004944214489B23046FFF73EFD2C2130468A
:100FD000FFF7E0FA002CC8BFA04616DD012FC8BFFE
:100FE0003C4607DD013C2946304624B2FFF72CFD84
:100FF000012CF7D108F1FF3429463046A4B2FFF79F
:101000003BFD0FFA84F8002CE8D1B36C0BB1012240
:101010001A70336DC3B1DA7AB2B1D40703D5324A4C
:10102000D9691160DA7A900703D5304A196A1160DC
:10103000DA7A510703D52E4A596A1160DA7A120713
:1010400002D52C4A9B6A1360BDE8F88348EA07087A
:1010500018F0010F736E00FB02111ED107EBD7775A
:10106000002C03EB410E4FEA670645EA0545EBDD30
:1010700000EBD07149108900002E06DD7246002376
:101080000133B34242F8045BFAD1013CA3B28E446F
:101090001CB2002BF0D1BDE8F883002C03EB41011A
:1010A000D2DD4FEA470E002F08DD01EB0E020B46A2
:1010B00023F8025B9342FBD1B6F90A00013CA3B2CC
:1010C00001EB40011CB2002BEDD1BDE8F883DFF845
:1010D00038E09869DEF8001001409962CEF80010FF
:1010E00039E700BF00003F8000E100E004E100E0DC
:1010F00008E100E00CE100E080E100E084E100E0D4
:1011000088E100E001403F008CE100E00029C0F2EE
:10111000A680F8B5B0F90A40A14280F29980002A71
:10112000C0F29680B0F90C50954240F3918090F84F
:101130006850002D40F08D80046D002C37D0E67A89
:10114000056B46B372B6E67AF70709D5DFF83CE1DE
:10115000E768DEF800603E40E661CEF80060E67ABF
:10116000B70709D5DFF828E12769DEF800603E40BF
:101170002662CEF80060E67A770709D5DFF814E139
:101180006769DEF800603E406662CEF80060E67A8D
:10119000360765D462B62468E668AE4207D0354F9C
:1011A0002760354EE56045F0804727612660846CF6
:1011B0000CB10025257004460E462A211F4695B223
:1011C000FFF7E8F9E18CB6B2314489B22046FFF767
:1011D0003BFCE18C0131314489B22046FFF734FCFD
:1011E0002B212046FFF7D6F9218D294489B22046CC
:1011F000FFF72AFC218D0131294489B22046FFF7EF
:1012000023FC2C212046FFF7C5F939462046FFF77D
:1012100033FCA36C0BB101221A70236DC3B1DA7ACF
:10122000B2B1D40703D5154AD9691160DA7A9007AB
:1012300003D5134A196A1160DA7A510703D5114AA6
:10124000596A1160DA7A120702D50F4A9B6A136055
:10125000F8BD02FB0412416E21F81230F8BD704750
:10126000DFF834E0A769DEF800603E40A662CEF801
:1012700000608FE701403F0000003F8000E100E098
:1012800004E100E008E100E00CE100E080E100E0C2
:1012900084E100E088E100E08CE100E02DE9F84F16
:1012A000036D044683B1D87A226B002840F0D280C7
:1012B0001B68D868904207D07A4D1D607A48DA6082
:1012C00042F080451D611860A36C0BB100221A70BA
:1012D00091F800A04FF000094E1CCA45354600F0B9
:1012E00093802F46204617F8021BFFF787F96E7888
:1012F00026F07F0806F07F06012E5FFA88F840F29C
:10130000A480023EF6B2013507EB060B15F8011F6B
:101310002046FFF733FAAB45F8D101363744397828
:1013200020467D1CFFF75EFAB8F1000F67D02878E1
:10133000A36CFF2808BF4FF4FA7001350BB10122EE
:101340001A70236DC3B1DA7AB2B1D70703D5574A01
:10135000D9691160DA7A960703D5554A196A11607E
:10136000DA7A510703D553495A6A0A60DA7A1707BD
:1013700002D5514A9B6A13601CF00CFC236D002BB4
:1013800039D0D97A226B002929D072B6D97ACE0702
:1013900007D54A490868D96801404848D9610160C1
:1013A000D97A880707D54649086819690140444831
:1013B00019620160D97A4F0707D54249086859690F
:1013C0000140404859620160D97A0E0706D53E496E
:1013D0000868996901403C489962016062B61B68DF
:1013E000D968914207D02F4818602F49DA6042F03F
:1013F000804018611960A36C0BB100221A7009F1CA
:101400000109CA457FF46DAFA36C0BB101221A70BC
:10141000236DC3B1DA7AB2B1D40703D5234AD969AF
:101420001160DA7A900703D5214A196A1160DA7AD5
:10143000510703D51F4A596A1160DA7A120702D59B
:101440001D4A9B6A1360BDE8F88F3D46002E3FF4AD
:101450006BAF64E772B6D87AC70706D5174DD86860
:101460002E683040D8612860D87A860706D5144D9A
:1014700018692E68304018622860D87A450706D56A
:10148000104D58692E68304058622860D87A00079D
:1014900005D50D4D98692E6830409862286062B677
:1014A00006E700BF01403F0000003F8000E100E090
:1014B00004E100E008E100E00CE100E080E100E090
:1014C00084E100E088E100E08CE100E0F8B504464A
:1014D00090F83700A84D0023FF28A3846384E38499
:1014E000238594F8383004BF0B2084F83700FF2B95
:1014F00008BF0D230F4608BF84F838300146284640
:10150000164615F055FB002840F084809B4D94F85A
:101510003710284615F04CFB002840F01081984DFC
:1015200094F83710284615F043FB002840F0198145
:1015300094F834100023FF29236584F8213056D015
:10154000904A94F8355052F83100A06452F8355062
:1015500094F83810E56452F8315094F83710656407
:1015600052F83120226401210170E26C1370626C28
:101570001370226C137094F83400FF2801D01CF013
:10158000DFFA012194F835001CF0DAFA012194F811
:1015900038001CF0D5FA012194F837001CF0D0FA7D
:1015A00094F83600FF281AD001211CF0C9FA012155
:1015B00094F836001CF0B0FA64201CF0EBFA00211D
:1015C00094F836001CF0A8FA64201CF0E3FA94F8B2
:1015D000360001211CF0A0FAC8201CF0DBFA2FB164
:1015E00039462046BDE8F840FFF758BEF8BD94F8EC
:1015F0003510644AA36452F8310094F83810E0645E
:1016000052F8310094F83710606452F831202264A7
:101610001B70FFDE94F83810284615F0D7FA002822
:101620003FF474AF0021584A25654FF440532846D3
:1016300084F85410A2652366012384F8213094F8BD
:10164000371015F0F5FA94F83810206D15F042FBBC
:10165000206D15F02BFA16F0080F14BF4FF07053E1
:101660004FF06053720701D543F0007343F000431D
:1016700043F48033236394F8342094F83510206DBC
:1016800015F068FA0546A8B194F83410206D15F0ED
:10169000AFFA94F8351084F839000546206D15F03E
:1016A000A7FA0023284384F83A00A364236D5B68FB
:1016B000E36575E794F83510206D15F035FAB8B983
:1016C00094F8343084F83900FF2B84F83A0029D19B
:1016D0002C4D94F8350001211CF032FA94F8353085
:1016E00055F83320E2640023137084F82130DDE7DD
:1016F00084F8395094F83510206D15F079FA94F883
:10170000343084F83A00FF2BD0D0184601211CF069
:1017100017FA94F834201B4B53F83230A36401229B
:101720001A70C3E7184601211CF00AFA154D94F807
:10173000343055F83330A36401221A70C9E794F8A5
:101740003810284615F042FA00283FF4E8AE0F4A58
:10175000012100232565284684F85410A2652366DC
:101760006AE794F83810284615F030FA00283FF45C
:10177000DFAE0221064AECE79843FF1FD843FF1F64
:101780001844FF1F1CB9030000C0024000D00240F3
:1017900000C00A4070B500220D462F490446FFF7ED
:1017A00095FE8DB3012D3CD0042D49D0052D12D0CE
:1017B0002A492046FFF772FD29492046FFF76EFDB2
:1017C000022D18D0236884F8205020461B6B00217E
:1017D000BDE870401847A0225023A285E385214927
:1017E0002046FFF75BFD182200236284A3841C4976
:1017F0002046FFF753FD20463621FEF7CBFEC021E1
:101800002046FEF7EFFFDDE720461749FFF746FDCC
:10181000022201236284A38411492046FFF73EFD82
:10182000D0E78023A38511492046FFF737FD022228
:1018300003236284A3840A492046FFF72FFDC1E7F2
:101840008023A38509492046FFF728FD0022202395
:101850006284A384EFE700BF6C8B02004C8B020014
:10186000A88B0200E48A02005C8B0200D48A02008A
:1018700041B170B5456E044645B1012184F8681048
:10188000084670BD80F8681008467047B0F90A3005
:10189000B0F90C20102603FB0266760003FB02F36E
:1018A0000367304622F084FAE06650B100F120036D
:1018B00023F01F006066A6F12002294622F0ECFD0D
:1018C000DBE770BDF8B590F86830002B00F0908031
:1018D000036D002B2ED0D97A026BF9B172B6D97A8A
:1018E000CC0706D5494CD96825682940D9612160C3
:1018F000D97A8F0706D5464C19692568294019629F
:101900002160D97A4E0706D5424C5969256829408D
:1019100059622160D97A0D0770D462B61B68D96804
:10192000914207D03C4C1C603C49DA6042F0804454
:101930001C611960836C0BB100221A7004462A21C5
:1019400046898589FEF726FEE18C2046FFF77CF864
:10195000E18C0139314489B22046FFF775F82B211B
:101960002046FEF717FE218D2046FFF76DF8218DEA
:101970000139294489B22046FFF766F82C21204618
:10198000FEF708FE266F676E06F10046013E07EB84
:101990004606B7420DD23D4635F8021B2046FFF7FA
:1019A00053F8AE42F8D8FB431E4426F00106023637
:1019B000374439882046FFF75FF8A36C0BB101224A
:1019C0001A70236DA3B1DA7A92B1D40703D5144A01
:1019D000D9691160DA7A900703D5124A196A116041
:1019E000DA7A510705D4120702D50F4A9B6A1360B1
:1019F000F8BD0E4A596A1160DA7AF4E70C4C99691D
:101A0000256829409962216087E700BF80E100E0F6
:101A100084E100E088E100E001403F0000003F80F9
:101A200000E100E004E100E00CE100E008E100E09A
:101A30008CE100E00B4B10B403F5407403F140005F
:101A400003F1800103F1C00218621966C3F8A020F7
:101A500043F8203C03F58073A342EFD15DF8044BBB
:101A6000704700BF4060FF1F704700BF704700BF56
:101A7000704700BF00680B68C01A7047194BDFED54
:101A80001A7A93ED007ADFED195A06EE901AB8EE45
:101A9000C77AFAEEEF6AB7EE006A26EE877A67EE4B
:101AA000277A67EEA57AF4EEC67AF1EE10FA07DD32
:101AB0000F4B72B60F4A0021D361117662B67047A0
:101AC000BFEE007AF4EEC77AF1EE10FA08D49FED7B
:101AD0000A7A67EE877AFDEEE77A17EE903AE8E742
:101AE000064BE6E73843FF1FABAAAA3D00000039CA
:101AF0000000FF7F48DFFF1F00FEFF4E0000018057
:101B0000074B084A1B6801218B42117004BF064A2B
:101B1000D386064B1B68012B04BF054AD38670474A
:101B20006064FF1F14080020AC0600200C1B00207E
:101B300098030020014B00221A70704714080020FF
:101B4000474B484A196801290AD0474B1B68012BAB
:101B500006D01368172B00DD704701331360704700
:101B60001368172BF9DD70B4404B414C1B68D4ED62
:101B7000007ADFED406A4048404E414D83B0012974
:101B800001939DED017A0378B8EE477A83F0010363
:101B900077EE677A84ED007A86EEA77A0370C6ED59
:101BA000007A85ED007A08D02F4B1B68012B19D0E5
:101BB0000123136003B070BC7047324BD3ED007A41
:101BC00067EE277AF5EEC07AF1EE10FA1FD4DFED5A
:101BD0002E6AF4EEE67AF1EE10FA32DD2B492C4B48
:101BE000CB61E1E7274BD3ED007A27EE277AB5EEFC
:101BF000C07AF1EE10FA11D4DFED237AB4EEE77A71
:101C0000F1EE10FA0EDD2349214BCB61D0E7164BE4
:101C10001E491B680020012BC861C9D11D4B002142
:101C2000D961C5E7DFED1C7A19481A4927EE277AF2
:101C3000FCEEC77A17EE903A8342C1ED077AB7D926
:101C4000E2E7DFED156A1248104967EEA67AFCEE6E
:101C5000E77A17EE903A8342C1ED077AA4D9BEE73E
:101C60006064FF1F74DFFF1F0C1B0020F83600208C
:101C7000F0FEFF1F00007A44140800205C100020D2
:101C80005843FF1F8443FF1FA655AC46AC060020F7
:101C90000000FE7F980300204B24BE47704700BF22
:101CA00038B5054CA4F500652046103C1EF024F81C
:101CB000AC42F9D138BD00BF5873FF1F38B5054697
:101CC00040B100F59C440C34143C201D1EF014F867
:101CD000A542F9D1284638BD08B500201BF05EFBAF
:101CE000102888BF002008BD08B502201BF056FB55
:101CF000431EDBB20B2B84BF014B1868013808BDB3
:101D00003843FF1F08B503201BF048FB431EDBB21E
:101D1000092B12D807EE900AF8EEE77AB2EE047AB1
:101D2000C7EE876AB2EE047AFFEE007AE6EE877AB3
:101D3000FDEEE77A17EE900A08BD024BD3ED006A7C
:101D4000F0E700BFF042FF1F08B504201BF026FBA0
:101D500001289ABF00F0010080F00100002008BDBA
:101D600030B51B491B4C83B0054623F02DF908B94B
:101D7000002323601849284623F026F910B94FF0B4
:101D80007C5323602846154923F01EF978B94FF09B
:101D90007E53012023601BF001FB0224A04215D0DA
:101DA0002146012003B0BDE830401BF011BBD4ED4B
:101DB000007A77EEA77A0120FCEEE77ACDED017A82
:101DC0001BF0ECFA9DF80440A042E9D103B030BD0D
:101DD000CCA003008C43FF1FD4A00300DCA00300B1
:101DE00010B5044B044640F87C3B1DF0A9FC20468E
:101DF00010BD00BFFC8A020010B504461DF0A2FB16
:101E0000204610BD044A054B126882B00192019A27
:101E10001A6002B0704700BFF83600200C64FF1F44
:101E20002DE9F0412C4CDFF8BCE02C4FDEF80060CF
:101E3000D7F80080002582B020462246AC462B46CB
:101E400004E00133062B02F108020FD050F83310E2
:101E50000131F6D15168B142F3DA984601330125D8
:101E6000062B0E46AC4602F10802EFD1BCF1000F82
:101E70002ED155BB3868431C03D0013002B0BDE8F9
:101E8000F081174B1B68019300250199CEF80010D3
:101E90002E462B4662688A42BCBF0125184603F1D4
:101EA0000103ACBF0A462E46062B04F10804114676
:101EB000F0D12EB93DB93868013002B0BDE8F081EB
:101EC000CEF80020F6E73860F5E7C7F80080D1E7E4
:101ED000CEF80060CDE700BF0843FF1F0043FF1F9F
:101EE000F836002060D1FF1F10B521F0C5FE084B69
:101EF00001460220CCB219601BF050FA844205D092
:101F000021460220BDE810401BF062BA10BD00BFA0
:101F10003843FF1F10B582B021F0AEFE07EE900AE5
:101F2000F8EEE76AF2EE047A86EEA77A0C4B03200D
:101F300067EE277A83ED007AFCEEE77ACDED017A41
:101F40001BF02CFA9DF80440844206D02146032061
:101F500002B0BDE810401BF03BBA02B010BD00BF9C
:101F6000F042FF1F10B50D4923F02EF80C4B60B95D
:101F7000012404201C701BF011FA84420CD021466D
:101F80000420BDE810401BF023BA002404201C707C
:101F90001BF004FA8442F2D110BD00BFE4A003009C
:101FA000E042FF1F10B50F49044623F00DF868B951
:101FB0000D4B0446187000201BF0F0F9844210D03D
:101FC00021460020BDE810401BF002BA204621F057
:101FD00053FE054BC4B200201C701BF0DFF9844295
:101FE000EED110BDECA00300646BFF1F214B10B4B9
:101FF000D3F8E4201368506819780478507A137A7B
:10200000044201EA03011BD0937A03F0030309B1F0
:1020100043F0040343F008039910013B91720D2B28
:102020000BD8DFE803F021071B070A152121150A49
:10203000071B0721D368013BD3605DF8044B704751
:10204000937A03F003030029E6D043F00403E3E7A7
:10205000D3685DF8044B023BD3607047D3685DF8EA
:10206000044B0233D3607047D3685DF8044B0133EF
:10207000D360704788350020214B10B4D3F8E82096
:102080001368506819780478507A137A044201EA88
:1020900003011BD0937A03F0030309B143F0040357
:1020A00043F008039910013B91720D2B0BD8DFE828
:1020B00003F021071B070A152121150A071B072119
:1020C000D368013BD3605DF8044B7047937A03F00B
:1020D00003030029E6D043F00403E3E7D3685DF887
:1020E000044B023BD3607047D3685DF8044B023366
:1020F000D3607047D3685DF8044B0133D3607047F9
:1021000088350020214B10B4D3F8D42013685068D0
:1021100019780478507A137A044201EA03011BD03B
:10212000937A03F0030309B143F0040343F0080377
:102130009910013B91720D2B0BD8DFE803F02107BA
:102140001B070A152121150A071B0721D368013B2C
:10215000D3605DF8044B7047937A03F003030029C2
:10216000E6D043F00403E3E7D3685DF8044B023B99
:10217000D3607047D3685DF8044B0233D360704777
:10218000D3685DF8044B0133D36070478835002075
:10219000214B10B4D3F8D82013685068197804780C
:1021A000507A137A044201EA03011BD0937A03F0B8
:1021B000030309B143F0040343F008039910013B02
:1021C00091720D2B0BD8DFE803F021071B070A15CE
:1021D0002121150A071B0721D368013BD3605DF855
:1021E000044B7047937A03F003030029E6D043F0D1
:1021F0000403E3E7D3685DF8044B023BD360704708
:10220000D3685DF8044B0233D3607047D3685DF840
:10221000044B0133D360704788350020214B10B444
:10222000D3F8DC201368506819780478507A137A50
:10223000044201EA03011BD0937A03F0030309B1BE
:1022400043F0040343F008039910013B91720D2BF6
:102250000BD8DFE803F021071B070A152121150A17
:10226000071B0721D368013BD3605DF8044B70471F
:10227000937A03F003030029E6D043F00403E3E775
:10228000D3685DF8044B023BD3607047D3685DF8B8
:10229000044B0233D3607047D3685DF8044B0133BD
:1022A000D360704788350020214B10B4D3F8E0206C
:1022B0001368506819780478507A137A044201EA56
:1022C00003011BD0937A03F0030309B143F0040325
:1022D00043F008039910013B91720D2B0BD8DFE8F6
:1022E00003F021071B070A152121150A071B0721E7
:1022F000D368013BD3605DF8044B7047937A03F0D9
:1023000003030029E6D043F00403E3E7D3685DF854
:10231000044B023BD3607047D3685DF8044B023333
:10232000D3607047D3685DF8044B0133D3607047C6
:1023300088350020214B10B45A6913685068197809
:102340000478507A137A044201EA03011BD0937A8D
:1023500003F0030309B143F0040343F008039910A9
:10236000013B91720D2B0BD8DFE803F021071B070F
:102370000A152121150A071B0721D368013BD360E9
:102380005DF8044B7047937A03F003030029E6D00D
:1023900043F00403E3E7D3685DF8044B023BD360EA
:1023A0007047D3685DF8044B0233D3607047D3683D
:1023B0005DF8044B0133D360704700BF88350020BF
:1023C000214B10B49A691368506819780478507AD0
:1023D000137A044201EA03011BD0937A03F003034A
:1023E00009B143F0040343F008039910013B9172D3
:1023F0000D2B0BD8DFE803F021071B070A1521215D
:10240000150A071B0721D368013BD3605DF8044B15
:102410007047937A03F003030029E6D043F00403E6
:10242000E3E7D3685DF8044B023BD3607047D368A1
:102430005DF8044B0233D3607047D3685DF8044BFA
:102440000133D360704700BF88350020214B10B4A2
:10245000DA691368506819780478507A137A04425C
:1024600001EA03011BD0937A03F0030309B143F09F
:10247000040343F008039910013B91720D2B0BD814
:10248000DFE803F021071B070A152121150A071BA6
:102490000721D368013BD3605DF8044B7047937A02
:1024A00003F003030029E6D043F00403E3E7D36815
:1024B0005DF8044B023BD3607047D3685DF8044B72
:1024C0000233D3607047D3685DF8044B0133D360A7
:1024D000704700BF88350020214B10B41A6A13687A
:1024E000506819780478507A137A044201EA03019B
:1024F0001BD0937A03F0030309B143F0040343F0C4
:1025000008039910013B91720D2B0BD8DFE803F003
:1025100021071B070A152121150A071B0721D3686C
:10252000013BD3605DF8044B7047937A03F00303DB
:102530000029E6D043F00403E3E7D3685DF8044BD9
:10254000023BD3607047D3685DF8044B0233D3601D
:102550007047D3685DF8044B0133D360704700BF08
:1025600088350020214B10B45A6A136850681978D6
:102570000478507A137A044201EA03011BD0937A5B
:1025800003F0030309B143F0040343F00803991077
:10259000013B91720D2B0BD8DFE803F021071B07DD
:1025A0000A152121150A071B0721D368013BD360B7
:1025B0005DF8044B7047937A03F003030029E6D0DB
:1025C00043F00403E3E7D3685DF8044B023BD360B8
:1025D0007047D3685DF8044B0233D3607047D3680B
:1025E0005DF8044B0133D360704700BF883500208D
:1025F000214B10B49A6A1368506819780478507A9D
:10260000137A044201EA03011BD0937A03F0030317
:1026100009B143F0040343F008039910013B9172A0
:102620000D2B0BD8DFE803F021071B070A1521212A
:10263000150A071B0721D368013BD3605DF8044BE3
:102640007047937A03F003030029E6D043F00403B4
:10265000E3E7D3685DF8044B023BD3607047D3686F
:102660005DF8044B0233D3607047D3685DF8044BC8
:102670000133D360704700BF88350020214B10B470
:10268000DA6A1368506819780478507A137A044229
:1026900001EA03011BD0937A03F0030309B143F06D
:1026A000040343F008039910013B91720D2B0BD8E2
:1026B000DFE803F021071B070A152121150A071B74
:1026C0000721D368013BD3605DF8044B7047937AD0
:1026D00003F003030029E6D043F00403E3E7D368E3
:1026E0005DF8044B023BD3607047D3685DF8044B40
:1026F0000233D3607047D3685DF8044B0133D36075
:10270000704700BF88350020214B10B41A6B136846
:10271000506819780478507A137A044201EA030168
:102720001BD0937A03F0030309B143F0040343F091
:1027300008039910013B91720D2B0BD8DFE803F0D1
:1027400021071B070A152121150A071B0721D3683A
:10275000013BD3605DF8044B7047937A03F00303A9
:102760000029E6D043F00403E3E7D3685DF8044BA7
:10277000023BD3607047D3685DF8044B0233D360EB
:102780007047D3685DF8044B0133D360704700BFD6
:1027900088350020214B10B45A6B136850681978A3
:1027A0000478507A137A044201EA03011BD0937A29
:1027B00003F0030309B143F0040343F00803991045
:1027C000013B91720D2B0BD8DFE803F021071B07AB
:1027D0000A152121150A071B0721D368013BD36085
:1027E0005DF8044B7047937A03F003030029E6D0A9
:1027F00043F00403E3E7D3685DF8044B023BD36086
:102800007047D3685DF8044B0233D3607047D368D8
:102810005DF8044B0133D360704700BF883500205A
:10282000214B10B49A6B1368506819780478507A69
:10283000137A044201EA03011BD0937A03F00303E5
:1028400009B143F0040343F008039910013B91726E
:102850000D2B0BD8DFE803F021071B070A152121F8
:10286000150A071B0721D368013BD3605DF8044BB1
:102870007047937A03F003030029E6D043F0040382
:10288000E3E7D3685DF8044B023BD3607047D3683D
:102890005DF8044B0233D3607047D3685DF8044B96
:1028A0000133D360704700BF88350020214B10B43E
:1028B000DA6B1368506819780478507A137A0442F6
:1028C00001EA03011BD0937A03F0030309B143F03B
:1028D000040343F008039910013B91720D2B0BD8B0
:1028E000DFE803F021071B070A152121150A071B42
:1028F0000721D368013BD3605DF8044B7047937A9E
:1029000003F003030029E6D043F00403E3E7D368B0
:102910005DF8044B023BD3607047D3685DF8044B0D
:102920000233D3607047D3685DF8044B0133D36042
:10293000704700BF88350020214B10B41A6C136813
:10294000506819780478507A137A044201EA030136
:102950001BD0937A03F0030309B143F0040343F05F
:1029600008039910013B91720D2B0BD8DFE803F09F
:1029700021071B070A152121150A071B0721D36808
:10298000013BD3605DF8044B7047937A03F0030377
:102990000029E6D043F00403E3E7D3685DF8044B75
:1029A000023BD3607047D3685DF8044B0233D360B9
:1029B0007047D3685DF8044B0133D360704700BFA4
:1029C00088350020214B10B45A6C13685068197870
:1029D0000478507A137A044201EA03011BD0937AF7
:1029E00003F0030309B143F0040343F00803991013
:1029F000013B91720D2B0BD8DFE803F021071B0779
:102A00000A152121150A071B0721D368013BD36052
:102A10005DF8044B7047937A03F003030029E6D076
:102A200043F00403E3E7D3685DF8044B023BD36053
:102A30007047D3685DF8044B0233D3607047D368A6
:102A40005DF8044B0133D360704700BF8835002028
:102A5000214B10B49A6C1368506819780478507A36
:102A6000137A044201EA03011BD0937A03F00303B3
:102A700009B143F0040343F008039910013B91723C
:102A80000D2B0BD8DFE803F021071B070A152121C6
:102A9000150A071B0721D368013BD3605DF8044B7F
:102AA0007047937A03F003030029E6D043F0040350
:102AB000E3E7D3685DF8044B023BD3607047D3680B
:102AC0005DF8044B0233D3607047D3685DF8044B64
:102AD0000133D360704700BF88350020214B10B40C
:102AE000DA6C1368506819780478507A137A0442C3
:102AF00001EA03011BD0937A03F0030309B143F009
:102B0000040343F008039910013B91720D2B0BD87D
:102B1000DFE803F021071B070A152121150A071B0F
:102B20000721D368013BD3605DF8044B7047937A6B
:102B300003F003030029E6D043F00403E3E7D3687E
:102B40005DF8044B023BD3607047D3685DF8044BDB
:102B50000233D3607047D3685DF8044B0133D36010
:102B6000704700BF88350020214B10B41A6D1368E0
:102B7000506819780478507A137A044201EA030104
:102B80001BD0937A03F0030309B143F0040343F02D
:102B900008039910013B91720D2B0BD8DFE803F06D
:102BA00021071B070A152121150A071B0721D368D6
:102BB000013BD3605DF8044B7047937A03F0030345
:102BC0000029E6D043F00403E3E7D3685DF8044B43
:102BD000023BD3607047D3685DF8044B0233D36087
:102BE0007047D3685DF8044B0133D360704700BF72
:102BF00088350020214B10B4D3F8EC2013685068BE
:102C000019780478507A137A044201EA03011BD040
:102C1000937A03F0030309B143F0040343F008037C
:102C20009910013B91720D2B0BD8DFE803F02107BF
:102C30001B070A152121150A071B0721D368013B31
:102C4000D3605DF8044B7047937A03F003030029C7
:102C5000E6D043F00403E3E7D3685DF8044B023B9E
:102C6000D3607047D3685DF8044B0233D36070477C
:102C7000D3685DF8044B0133D3607047883500207A
:102C8000214B10B45A681368506819780478507A48
:102C9000137A044201EA03011BD0937A03F0030381
:102CA00009B143F0040343F008039910013B91720A
:102CB0000D2B0BD8DFE803F021071B070A15212194
:102CC000150A071B0721D368013BD3605DF8044B4D
:102CD0007047937A03F003030029E6D043F004031E
:102CE000E3E7D3685DF8044B023BD3607047D368D9
:102CF0005DF8044B0233D3607047D3685DF8044B32
:102D00000133D360704700BF88350020214B10B4D9
:102D10009A681368506819780478507A137A0442D4
:102D200001EA03011BD0937A03F0030309B143F0D6
:102D3000040343F008039910013B91720D2B0BD84B
:102D4000DFE803F021071B070A152121150A071BDD
:102D50000721D368013BD3605DF8044B7047937A39
:102D600003F003030029E6D043F00403E3E7D3684C
:102D70005DF8044B023BD3607047D3685DF8044BA9
:102D80000233D3607047D3685DF8044B0133D360DE
:102D9000704700BF88350020214B10B4DA681368F3
:102DA000506819780478507A137A044201EA0301D2
:102DB0001BD0937A03F0030309B143F0040343F0FB
:102DC00008039910013B91720D2B0BD8DFE803F03B
:102DD00021071B070A152121150A071B0721D368A4
:102DE000013BD3605DF8044B7047937A03F0030313
:102DF0000029E6D043F00403E3E7D3685DF8044B11
:102E0000023BD3607047D3685DF8044B0233D36054
:102E10007047D3685DF8044B0133D360704700BF3F
:102E200088350020214B10B41A691368506819784E
:102E30000478507A137A044201EA03011BD0937A92
:102E400003F0030309B143F0040343F008039910AE
:102E5000013B91720D2B0BD8DFE803F021071B0714
:102E60000A152121150A071B0721D368013BD360EE
:102E70005DF8044B7047937A03F003030029E6D012
:102E800043F00403E3E7D3685DF8044B023BD360EF
:102E90007047D3685DF8044B0233D3607047D36842
:102EA0005DF8044B0133D360704700BF88350020C4
:102EB000214B10B41A681368506819780478507A56
:102EC000137A044201EA03011BD0937A03F003034F
:102ED00009B143F0040343F008039910013B9172D8
:102EE0000D2B0BD8DFE803F021071B070A15212162
:102EF000150A071B0721D368013BD3605DF8044B1B
:102F00007047937A03F003030029E6D043F00403EB
:102F1000E3E7D3685DF8044B023BD3607047D368A6
:102F20005DF8044B0233D3607047D3685DF8044BFF
:102F30000133D360704700BF88350020214B10B4A7
:102F40005A6D1368506819780478507A137A0442DD
:102F500001EA03011BD0937A03F0030309B143F0A4
:102F6000040343F008039910013B91720D2B0BD819
:102F7000DFE803F021071B070A152121150A071BAB
:102F80000721D368013BD3605DF8044B7047937A07
:102F900003F003030029E6D043F00403E3E7D3681A
:102FA0005DF8044B023BD3607047D3685DF8044B77
:102FB0000233D3607047D3685DF8044B0133D360AC
:102FC000704700BF88350020214B10B49A6D1368FC
:102FD000506819780478507A137A044201EA0301A0
:102FE0001BD0937A03F0030309B143F0040343F0C9
:102FF00008039910013B91720D2B0BD8DFE803F009
:1030000021071B070A152121150A071B0721D36871
:10301000013BD3605DF8044B7047937A03F00303E0
:103020000029E6D043F00403E3E7D3685DF8044BDE
:10303000023BD3607047D3685DF8044B0233D36022
:103040007047D3685DF8044B0133D360704700BF0D
:1030500088350020214B10B4DA6D13685068197858
:103060000478507A137A044201EA03011BD0937A60
:1030700003F0030309B143F0040343F0080399107C
:10308000013B91720D2B0BD8DFE803F021071B07E2
:103090000A152121150A071B0721D368013BD360BC
:1030A0005DF8044B7047937A03F003030029E6D0E0
:1030B00043F00403E3E7D3685DF8044B023BD360BD
:1030C0007047D3685DF8044B0233D3607047D36810
:1030D0005DF8044B0133D360704700BF8835002092
:1030E000214B10B41A6E1368506819780478507A1E
:1030F000137A044201EA03011BD0937A03F003031D
:1031000009B143F0040343F008039910013B9172A5
:103110000D2B0BD8DFE803F021071B070A1521212F
:10312000150A071B0721D368013BD3605DF8044BE8
:103130007047937A03F003030029E6D043F00403B9
:10314000E3E7D3685DF8044B023BD3607047D36874
:103150005DF8044B0233D3607047D3685DF8044BCD
:103160000133D360704700BF88350020214B10B475
:103170005A6E1368506819780478507A137A0442AA
:1031800001EA03011BD0937A03F0030309B143F072
:10319000040343F008039910013B91720D2B0BD8E7
:1031A000DFE803F021071B070A152121150A071B79
:1031B0000721D368013BD3605DF8044B7047937AD5
:1031C00003F003030029E6D043F00403E3E7D368E8
:1031D0005DF8044B023BD3607047D3685DF8044B45
:1031E0000233D3607047D3685DF8044B0133D3607A
:1031F000704700BF88350020214B10B49A6E1368C9
:10320000506819780478507A137A044201EA03016D
:103210001BD0937A03F0030309B143F0040343F096
:1032200008039910013B91720D2B0BD8DFE803F0D6
:1032300021071B070A152121150A071B0721D3683F
:10324000013BD3605DF8044B7047937A03F00303AE
:103250000029E6D043F00403E3E7D3685DF8044BAC
:10326000023BD3607047D3685DF8044B0233D360F0
:103270007047D3685DF8044B0133D360704700BFDB
:1032800088350020214B10B4DA6E13685068197825
:103290000478507A137A044201EA03011BD0937A2E
:1032A00003F0030309B143F0040343F0080399104A
:1032B000013B91720D2B0BD8DFE803F021071B07B0
:1032C0000A152121150A071B0721D368013BD3608A
:1032D0005DF8044B7047937A03F003030029E6D0AE
:1032E00043F00403E3E7D3685DF8044B023BD3608B
:1032F0007047D3685DF8044B0233D3607047D368DE
:103300005DF8044B0133D360704700BF883500205F
:10331000214B10B41A6F1368506819780478507AEA
:10332000137A044201EA03011BD0937A03F00303EA
:1033300009B143F0040343F008039910013B917273
:103340000D2B0BD8DFE803F021071B070A152121FD
:10335000150A071B0721D368013BD3605DF8044BB6
:103360007047937A03F003030029E6D043F0040387
:10337000E3E7D3685DF8044B023BD3607047D36842
:103380005DF8044B0233D3607047D3685DF8044B9B
:103390000133D360704700BF88350020214B10B443
:1033A0005A6F1368506819780478507A137A044277
:1033B00001EA03011BD0937A03F0030309B143F040
:1033C000040343F008039910013B91720D2B0BD8B5
:1033D000DFE803F021071B070A152121150A071B47
:1033E0000721D368013BD3605DF8044B7047937AA3
:1033F00003F003030029E6D043F00403E3E7D368B6
:103400005DF8044B023BD3607047D3685DF8044B12
:103410000233D3607047D3685DF8044B0133D36047
:10342000704700BF88350020214B10B49A6F136895
:10343000506819780478507A137A044201EA03013B
:103440001BD0937A03F0030309B143F0040343F064
:1034500008039910013B91720D2B0BD8DFE803F0A4
:1034600021071B070A152121150A071B0721D3680D
:10347000013BD3605DF8044B7047937A03F003037C
:103480000029E6D043F00403E3E7D3685DF8044B7A
:10349000023BD3607047D3685DF8044B0233D360BE
:1034A0007047D3685DF8044B0133D360704700BFA9
:1034B00088350020214B10B4DA6F136850681978F2
:1034C0000478507A137A044201EA03011BD0937AFC
:1034D00003F0030309B143F0040343F00803991018
:1034E000013B91720D2B0BD8DFE803F021071B077E
:1034F0000A152121150A071B0721D368013BD36058
:103500005DF8044B7047937A03F003030029E6D07B
:1035100043F00403E3E7D3685DF8044B023BD36058
:103520007047D3685DF8044B0233D3607047D368AB
:103530005DF8044B0133D360704700BF883500202D
:10354000214B10B4D3F880201368506819780478A0
:10355000507A137A044201EA03011BD0937A03F0F4
:10356000030309B143F0040343F008039910013B3E
:1035700091720D2B0BD8DFE803F021071B070A150A
:103580002121150A071B0721D368013BD3605DF891
:10359000044B7047937A03F003030029E6D043F00D
:1035A0000403E3E7D3685DF8044B023BD360704744
:1035B000D3685DF8044B0233D3607047D3685DF87D
:1035C000044B0133D360704788350020214B10B481
:1035D000D3F884201368506819780478507A137AE5
:1035E000044201EA03011BD0937A03F0030309B1FB
:1035F00043F0040343F008039910013B91720D2B33
:103600000BD8DFE803F021071B070A152121150A53
:10361000071B0721D368013BD3605DF8044B70475B
:10362000937A03F003030029E6D043F00403E3E7B1
:10363000D3685DF8044B023BD3607047D3685DF8F4
:10364000044B0233D3607047D3685DF8044B0133F9
:10365000D360704788350020214B10B4D3F8882000
:103660001368506819780478507A137A044201EA92
:1036700003011BD0937A03F0030309B143F0040361
:1036800043F008039910013B91720D2B0BD8DFE832
:1036900003F021071B070A152121150A071B072123
:1036A000D368013BD3605DF8044B7047937A03F015
:1036B00003030029E6D043F00403E3E7D3685DF891
:1036C000044B023BD3607047D3685DF8044B023370
:1036D000D3607047D3685DF8044B0133D360704703
:1036E00088350020214B10B4D3F88C201368506823
:1036F00019780478507A137A044201EA03011BD046
:10370000937A03F0030309B143F0040343F0080381
:103710009910013B91720D2B0BD8DFE803F02107C4
:103720001B070A152121150A071B0721D368013B36
:10373000D3605DF8044B7047937A03F003030029CC
:10374000E6D043F00403E3E7D3685DF8044B023BA3
:10375000D3607047D3685DF8044B0233D360704781
:10376000D3685DF8044B0133D3607047883500207F
:10377000214B10B4D3F8902013685068197804785E
:10378000507A137A044201EA03011BD0937A03F0C2
:10379000030309B143F0040343F008039910013B0C
:1037A00091720D2B0BD8DFE803F021071B070A15D8
:1037B0002121150A071B0721D368013BD3605DF85F
:1037C000044B7047937A03F003030029E6D043F0DB
:1037D0000403E3E7D3685DF8044B023BD360704712
:1037E000D3685DF8044B0233D3607047D3685DF84B
:1037F000044B0133D360704788350020214B10B44F
:10380000D3F894201368506819780478507A137AA2
:10381000044201EA03011BD0937A03F0030309B1C8
:1038200043F0040343F008039910013B91720D2B00
:103830000BD8DFE803F021071B070A152121150A21
:10384000071B0721D368013BD3605DF8044B704729
:10385000937A03F003030029E6D043F00403E3E77F
:10386000D3685DF8044B023BD3607047D3685DF8C2
:10387000044B0233D3607047D3685DF8044B0133C7
:10388000D360704788350020214B10B4D3F89820BE
:103890001368506819780478507A137A044201EA60
:1038A00003011BD0937A03F0030309B143F004032F
:1038B00043F008039910013B91720D2B0BD8DFE800
:1038C00003F021071B070A152121150A071B0721F1
:1038D000D368013BD3605DF8044B7047937A03F0E3
:1038E00003030029E6D043F00403E3E7D3685DF85F
:1038F000044B023BD3607047D3685DF8044B02333E
:10390000D3607047D3685DF8044B0133D3607047D0
:1039100088350020214B10B4D3F89C2013685068E0
:1039200019780478507A137A044201EA03011BD013
:10393000937A03F0030309B143F0040343F008034F
:103940009910013B91720D2B0BD8DFE803F0210792
:103950001B070A152121150A071B0721D368013B04
:10396000D3605DF8044B7047937A03F0030300299A
:10397000E6D043F00403E3E7D3685DF8044B023B71
:10398000D3607047D3685DF8044B0233D36070474F
:10399000D3685DF8044B0133D3607047883500204D
:1039A000214B10B4D3F8A02013685068197804781C
:1039B000507A137A044201EA03011BD0937A03F090
:1039C000030309B143F0040343F008039910013BDA
:1039D00091720D2B0BD8DFE803F021071B070A15A6
:1039E0002121150A071B0721D368013BD3605DF82D
:1039F000044B7047937A03F003030029E6D043F0A9
:103A00000403E3E7D3685DF8044B023BD3607047DF
:103A1000D3685DF8044B0233D3607047D3685DF818
:103A2000044B0133D360704788350020214B10B41C
:103A3000D3F8A4201368506819780478507A137A60
:103A4000044201EA03011BD0937A03F0030309B196
:103A500043F0040343F008039910013B91720D2BCE
:103A60000BD8DFE803F021071B070A152121150AEF
:103A7000071B0721D368013BD3605DF8044B7047F7
:103A8000937A03F003030029E6D043F00403E3E74D
:103A9000D3685DF8044B023BD3607047D3685DF890
:103AA000044B0233D3607047D3685DF8044B013395
:103AB000D360704788350020214B10B4D3F8A8207C
:103AC0001368506819780478507A137A044201EA2E
:103AD00003011BD0937A03F0030309B143F00403FD
:103AE00043F008039910013B91720D2B0BD8DFE8CE
:103AF00003F021071B070A152121150A071B0721BF
:103B0000D368013BD3605DF8044B7047937A03F0B0
:103B100003030029E6D043F00403E3E7D3685DF82C
:103B2000044B023BD3607047D3685DF8044B02330B
:103B3000D3607047D3685DF8044B0133D36070479E
:103B400088350020214B10B4D3F8AC20136850689E
:103B500019780478507A137A044201EA03011BD0E1
:103B6000937A03F0030309B143F0040343F008031D
:103B70009910013B91720D2B0BD8DFE803F0210760
:103B80001B070A152121150A071B0721D368013BD2
:103B9000D3605DF8044B7047937A03F00303002968
:103BA000E6D043F00403E3E7D3685DF8044B023B3F
:103BB000D3607047D3685DF8044B0233D36070471D
:103BC000D3685DF8044B0133D3607047883500201B
:103BD000214B10B4D3F8B0201368506819780478DA
:103BE000507A137A044201EA03011BD0937A03F05E
:103BF000030309B143F0040343F008039910013BA8
:103C000091720D2B0BD8DFE803F021071B070A1573
:103C10002121150A071B0721D368013BD3605DF8FA
:103C2000044B7047937A03F003030029E6D043F076
:103C30000403E3E7D3685DF8044B023BD3607047AD
:103C4000D3685DF8044B0233D3607047D3685DF8E6
:103C5000044B0133D360704788350020214B10B4EA
:103C6000D3F8B4201368506819780478507A137A1E
:103C7000044201EA03011BD0937A03F0030309B164
:103C800043F0040343F008039910013B91720D2B9C
:103C90000BD8DFE803F021071B070A152121150ABD
:103CA000071B0721D368013BD3605DF8044B7047C5
:103CB000937A03F003030029E6D043F00403E3E71B
:103CC000D3685DF8044B023BD3607047D3685DF85E
:103CD000044B0233D3607047D3685DF8044B013363
:103CE000D360704788350020214B10B4D3F8B8203A
:103CF0001368506819780478507A137A044201EAFC
:103D000003011BD0937A03F0030309B143F00403CA
:103D100043F008039910013B91720D2B0BD8DFE89B
:103D200003F021071B070A152121150A071B07218C
:103D3000D368013BD3605DF8044B7047937A03F07E
:103D400003030029E6D043F00403E3E7D3685DF8FA
:103D5000044B023BD3607047D3685DF8044B0233D9
:103D6000D3607047D3685DF8044B0133D36070476C
:103D700088350020214B10B4D3F8BC20136850685C
:103D800019780478507A137A044201EA03011BD0AF
:103D9000937A03F0030309B143F0040343F00803EB
:103DA0009910013B91720D2B0BD8DFE803F021072E
:103DB0001B070A152121150A071B0721D368013BA0
:103DC000D3605DF8044B7047937A03F00303002936
:103DD000E6D043F00403E3E7D3685DF8044B023B0D
:103DE000D3607047D3685DF8044B0233D3607047EB
:103DF000D3685DF8044B0133D360704788350020E9
:103E0000214B10B4D3F8C020136850681978047897
:103E1000507A137A044201EA03011BD0937A03F02B
:103E2000030309B143F0040343F008039910013B75
:103E300091720D2B0BD8DFE803F021071B070A1541
:103E40002121150A071B0721D368013BD3605DF8C8
:103E5000044B7047937A03F003030029E6D043F044
:103E60000403E3E7D3685DF8044B023BD36070477B
:103E7000D3685DF8044B0233D3607047D3685DF8B4
:103E8000044B0133D360704788350020214B10B4B8
:103E9000D3F8C4201368506819780478507A137ADC
:103EA000044201EA03011BD0937A03F0030309B132
:103EB00043F0040343F008039910013B91720D2B6A
:103EC0000BD8DFE803F021071B070A152121150A8B
:103ED000071B0721D368013BD3605DF8044B704793
:103EE000937A03F003030029E6D043F00403E3E7E9
:103EF000D3685DF8044B023BD3607047D3685DF82C
:103F0000044B0233D3607047D3685DF8044B013330
:103F1000D360704788350020214B10B4D3F8C820F7
:103F20001368506819780478507A137A044201EAC9
:103F300003011BD0937A03F0030309B143F0040398
:103F400043F008039910013B91720D2B0BD8DFE869
:103F500003F021071B070A152121150A071B07215A
:103F6000D368013BD3605DF8044B7047937A03F04C
:103F700003030029E6D043F00403E3E7D3685DF8C8
:103F8000044B023BD3607047D3685DF8044B0233A7
:103F9000D3607047D3685DF8044B0133D36070473A
:103FA00088350020002310B4114C41720261046076
:103FB0000372C36041B1194600E0026942F8231060
:103FC000427A01339A42F8DC0A4B1A680AB90CE0CB
:103FD0001A465369002BFBD1506100234361838053
:103FE000C38083725DF8044B70471860F5E700BF2B
:103FF000DC8B02009838002014490A68002310B4B2
:10400000134C0460437203610372C3600AB91AE07F
:104010001A465369002BFBD1506100230D494361BF
:104020004FF080428380C38083728361C3610362E7
:104030004362C362038643868386C38601608262CD
:104040005DF8044B70470860E7E700BF9838002030
:10405000DC8B020060B0030000211C4B036010B435
:1040600000F1180202240B46447202610172C16021
:1040700000E0026942F82310427A01339A42F8DCE8
:10408000134B1A680AB91FE01A465369002BFBD17B
:10409000506100230F4943614FF400428380C38085
:1040A000837203624362C3620363A0F83432A0F8F0
:1040B000363280F8383280F83932A0F83A3201606E
:1040C00082625DF8044B70471860E2E7DC8B020007
:1040D000983800206CB00300F5EEC00AF1EE10FA3B
:1040E000F7EE007AB4EEE70A3FD9F1EE10FA1FDDE1
:1040F000444ADFED457A60EEA70AFDEEE07A17EE5E
:10410000903A63B372B6C1690262914259D030B439
:1041100081FAA2F4EFF300852D0130D494FBF3F380
:10412000002B37D043620123037662B630BC704760
:10413000BFEE007AB4EEC70AF1EE10FA45D4DFED17
:10414000326A60EEA60AFDEEE06A16EE903A002BA7
:1041500046D1B4EEE70AF1EE10FA38DD294A72B61C
:104160000023C261037662B67047F1EE10FA18DDE3
:10417000244B72B60022C361027662B670475D1CA2
:10418000022D91BF234692FBF3F491FBF3F3E31A64
:10419000002BC7D19142ACBF4FF0FF3201224262E7
:1041A000C1E7FFEE007AB4EEE70AF1EE10FA15D49B
:1041B000DFED167A20EE270AFDEEC07A17EE903A70
:1041C000D7E70023037662B67047114A91E7B4EE51
:1041D000C70AF1EE10FA0CD50D4AC0E70C4BC8E740
:1041E000DFED0A7A20EE270AFDEEC07A17EE902A5C
:1041F00088E7DFED067A20EE270AFDEEC07A17EE9B
:10420000902AACE70000FF7F7978304200FEFF4E35
:10421000000001802DE9F047884682B00646154629
:104220009A4601F1FF3900277C1CA54206D80023DD
:10423000384608F8073002B0BDE8F08701220DF1DA
:104240000701304612F04AFE0128F0D19DF8071010
:104250000D29EAD009F8011F504620F03FFE2746FD
:104260000028E1D0E3E700BF2DE9F041DFF88080CE
:104270001D4F8AB00C46054601F53C76284612F0E3
:104280008DFD10B90AB0BDE8F0811422A642174B8B
:104290000DEB02012846F5D0FFF7BCFF0AAA431E2A
:1042A000134400210028EDD013F8142C2C2A18D028
:1042B0000A2A284615D012F071FD0721002814BFE4
:1042C000404638461AF00AFF05A901A81BF054FD24
:1042D00001A920461BF0FCFD01A81BF00DFD1034C8
:1042E000CCE703F8141CEFE7F8A0030000A10300DB
:1042F000F0A0030030B5044689B00D461A482146A7
:1043000012F0C8FF58BB684613232246164912F024
:104310004DFF684612F0F6FD90B9192113481AF0C6
:10432000DDFE204621F02CF8014620461AF0D6FE8C
:104330000F481BF03BFC684612F0C4FD09B030BDCD
:10434000294668461BF00CFC68461BF02FFC6846AB
:1043500012F0CAFD684612F0B5FD09B030BD214625
:10436000014812F0A5FFCEE7C420002004A10300FD
:104370009047FF1F70B588B0064668460D461BF093
:104380000FFD05F1100405F53C75694604A81BF006
:1043900007FD104904A81BF019FE21461BF00EFE74
:1043A000014668461BF08CFD103404A81BF0A4FCE9
:1043B000AC42EAD1694604A81BF0F2FC04A93046DD
:1043C000FFF798FF04A81BF097FC68461BF094FCCD
:1043D00008B070BD20A1030010B501460446054891
:1043E00012F058FF00B910BD21460248BDE8104048
:1043F00012F05EBFC420002010B4036841681A7830
:104400000C78417A037A0C4202EA03021BD0837AC9
:1044100003F003030AB143F0040343F008039A10C6
:10442000013B82720D2B0BD8DFE803F021071B073D
:104430000A152121150A071B0721C368013BC36028
:104440005DF8044B7047837A03F00303002AE6D03B
:1044500043F00403E3E7C3685DF8044B023BC36029
:104460007047C3685DF8044B0233C3607047C3688C
:104470005DF8044B0133C360704700BF08B5034BC0
:10448000D3F8D000FFF7B8FF08BD00BF8835002083
:1044900008B5034BD3F8CC00FFF7AEFF08BD00BF53
:1044A0008835002008B50B463B2800F2C682DFE8BD
:1044B00010F0BB02B202A902A00297028E0285028E
:1044C0007C0273026A02610258024F0246023D02F8
:1044D00034022B022202190210020702AE01A501CA
:1044E0009C0193018A01810178016F0166015D01E0
:1044F00054014A01400136012C01220118010E012C
:104500000401FA00F000E600DC00D200C800BE00A2
:10451000B400AA00A00096008C00820078006E0013
:1045200064005A00500046003C00BD4ABD49C2F834
:10453000EC303B20042219F061FA012008BDB84A92
:10454000B949C2F8E8303A20042219F057FA01209C
:1045500008BDB34AB549C2F8E4303920042219F045
:104560004DFA012008BDAE4AB149C2F8E03038200A
:10457000042219F043FA012008BDA94AAD49C2F846
:10458000DC303720042219F039FA012008BDA44A92
:10459000A949C2F8D8303620042219F02FFA012098
:1045A00008BD9F4AA549C2F8D4303520042219F02D
:1045B00025FA012008BD9A4AA149C2F8D03034201A
:1045C000042219F01BFA012008BD954A9D49C2F842
:1045D000CC303320042219F011FA012008BD904A92
:1045E0009949C2F8C8303220042219F007FA012094
:1045F00008BD8B4A9549C2F8C4303120042219F015
:10460000FDF9012008BD864A9149C2F8C03030202A
:10461000042219F0F3F9012008BD814A8D49C2F83E
:10462000BC302F20042219F0E9F9012008BD7C4A92
:104630008949C2F8B8302E20042219F0DFF9012090
:1046400008BD774A8549C2F8B4302D20042219F0FC
:10465000D5F9012008BD724A8149C2F8B0302C203A
:10466000042219F0CBF9012008BD6D4A7D49C2F83A
:10467000AC302B20042219F0C1F9012008BD684A92
:104680007949C2F8A8302A20042219F0B7F901208C
:1046900008BD634A7549C2F8A4302920042219F0E4
:1046A000ADF9012008BD5E4A7149C2F8A03028204A
:1046B000042219F0A3F9012008BD594A6D49C2F836
:1046C0009C302720042219F099F9012008BD544A92
:1046D0006949C2F898302620042219F08FF9012088
:1046E00008BD4F4A6549C2F894302520042219F0CC
:1046F00085F9012008BD4A4A6149C2F8903024205A
:10470000042219F07BF9012008BD454A5D49C2F831
:104710008C302320042219F071F9012008BD404A91
:104720005949C2F888302220042219F067F9012083
:1047300008BD3B4A5549C2F884302120042219F0B3
:104740005DF9012008BD364A5149C2F88030202069
:10475000042219F053F9012008BD314A4D49D367AD
:104760001F20042219F04AF9012008BD2C4A4A49A9
:1047700093671E20042219F041F9012008BD284A40
:10478000464953671D20042219F038F9012008BD5D
:10479000234A434913671C20042219F02FF90120F2
:1047A00008BD1F4A3F49D3661B20042219F026F991
:1047B000012008BD1A4A3C4993661A20042219F0C8
:1047C0001DF9012008BD164A3849536619200422F4
:1047D00019F014F9012008BD114A35491366182053
:1047E000042219F00BF9012008BD0D4A3149D365A7
:1047F0001720042219F002F9012008BD084A2E49A9
:1048000093651620042219F0F9F8012008BD044A26
:104810002A4953651520042219F0F0F8012008BD3B
:1048200088350020F52B000079200000ED1F0000E6
:10483000A92200001D220000912100000521000096
:104840007D44000091440000193F00008D3E0000AF
:10485000013E0000753D0000E93C00005D3C0000A9
:10486000D13B0000453B0000B93A00002D3A000062
:10487000A13900001539000089380000FD3700001B
:1048800071370000E536000059360000CD350000D4
:1048900041350000B5340000293400009D3300008C
:1048A0001133000085320000F93100006D31000045
:1048B000E130000055300000C92F00003D2F0000FE
:1048C0005F4A604913651420042219F097F801200B
:1048D00008BD5B4A5C49D3641320042219F08EF8AA
:1048E000012008BD564A594993641220042219F048
:1048F00085F8012008BD524A55495364112004220D
:1049000019F07CF8012008BD4D4A5249136410206B
:10491000042219F073F8012008BD494A4E49D363B7
:104920000F20042219F06AF8012008BD444A4B49BF
:1049300093630E20042219F061F8012008BD404A5B
:10494000474953630D20042219F058F8012008BD8F
:104950003B4A444913630C20042219F04FF801200C
:1049600008BD374A4049D3620B20042219F046F8AB
:10497000012008BD324A3D4993620A20042219F001
:104980003DF8012008BD2E4A39495362092004220E
:1049900019F034F8012008BD294A3649136208206D
:1049A000042219F02BF8012008BD254A3249D361B1
:1049B0000720042219F022F8012008BD204A2F49BF
:1049C00093610620042219F019F8012008BD1C4A41
:1049D0002B4953610520042219F010F8012008BD6D
:1049E000174A284913610422104619F007F80120DC
:1049F00008BD134A2449D3600320042218F0FEFFA7
:104A0000012008BD0E4A214993600220042218F0BB
:104A1000F5FF012008BD0A4A1D4953600120042208
:104A200018F0ECFF012008BD054A1A491360002068
:104A3000042218F0E3FF012008BD002008BD00BFDC
:104A400088350020692B0000DD2A0000512A000073
:104A5000C529000039290000AD28000021280000E8
:104A600095270000092700007D260000F1250000A1
:104A700065250000D92400004D240000C12300005A
:104A800035230000252E0000992D00000D2D00007B
:104A9000812C0000B12E000008B501211C2019F066
:104AA0004FF801211B2019F04BF801211A2019F0B1
:104AB00047F80121192019F043F80221272019F0A5
:104AC0003FF802211E2019F03BF80221242019F0A2
:104AD00037F80221102019F033F80221112019F0C3
:104AE0002FF80221182019F02BF802210C2019F0C0
:104AF00027F802210A2019F023F80121222019F0B9
:104B00001FF80121232019F01BF80121252019F09D
:104B100017F801210E20BDE8084019F011B800BFB8
:104B200008B5012018F03AFC38B1012808D0022855
:104B300009D0064B93ED000A08BD9FED050A08BD9C
:104B4000B6EE000A08BDB7EE000A08BD8C43FF1F91
:104B50000000000008B5FFF7E3FFB5EE400AF1EEF4
:104B600010FA12D0F6EE007AB4EE670AF1EE10FAFF
:104B700009D0F7EE007AB4EE670AF1EE10FA14BF2E
:104B80000020022008BD012008BD002008BD00BF94
:104B900070B5394C82B04FF6FF7520460B260021C8
:104BA000FBF768FC2046019500962E231E222A2141
:104BB00017F0B0FD0195009620463D231E22582196
:104BC000FCF772F91F232D2220462C492382E28113
:104BD00018F05CF92046012118F050F90722284905
:104BE000A582204665821AF0A5FF20461AF0DEFF56
:104BF0005B26002309222349A382252520466382C0
:104C00002582E6811AF096FF20461AF0CFFF4FF674
:104C1000E07320461C49A382638218F037F94623CB
:104C20000522204601212382E28118F027F906227D
:104C3000164920461AF07EFF20461AF0B7FF4FF4BF
:104C4000784320461249A382638218F01FF9114B62
:104C50001D686E225F232846E281238220F090FBAC
:104C60002946024620461AF065FF204602B0BDE8FC
:104C700070401AF09BBF00BF500800205092020005
:104C800024A103002CA10300B894030038A1030061
:104C9000AC9403005C43FF1F2DE9F041984C82B0B7
:104CA00000212046FBF7E6FB2046964918F0EEF877
:104CB00005254FF6E0733522204601212282A3828A
:104CC0006382E58118F0DAF88F4920461AF048FF30
:104CD00020461AF06BFF002320468C49A382638292
:104CE00018F0D4F88A4B1B78002B40F0F180844EEA
:104CF000DFF844820C251F2730462B461C227321E7
:104D00008DE8A00017F006FD2B4630461C228221BC
:104D10008DE8A00017F0FEFC2B4630461C229121A6
:104D20008DE8A00017F0F6FC2B4630462B227321AD
:104D30008DE8A00017F0EEFC2B4630462B22822196
:104D40008DE8A00017F0E6FC2B468DE8A000304669
:104D50002B22912117F0DEFC98F80030002B40F058
:104D6000A28098F80130002B40F0878098F802303C
:104D7000002B6CD198F80330002B52D198F80430F6
:104D8000002B38D198F80530A3B10C231F220192D3
:104D900000932B2291215A48FCF786F8942533235F
:104DA00001225C495648E58123821AF0C3FE54482B
:104DB0001AF0FCFE638952484FF47842143B1BB250
:104DC00000920A213E22FBF76FFF53494C4818F02E
:104DD0005DF801254FF6FF735A2250494848E58196
:104DE0002282A38263821AF0BBFE454802B0BDE86E
:104DF000F0411AF0DBBE0C231F22019200932B22FC
:104E000082213F48FCF750F885253323012244498D
:104E10003B48E58123821AF08DFE39481AF0C6FE20
:104E2000B0E70C231F22019200932B2273213448F8
:104E3000FCF73AF87625332301223A493048E581D8
:104E400023821AF077FE2E481AF0B0FE96E70C2364
:104E50001F22019200931C2291212948FCF724F87B
:104E600094252423012230492548E58123821AF024
:104E700061FE23481AF09AFE7CE70C231F22019260
:104E800000931C2282211E48FCF70EF8852524235E
:104E9000012226491A48E58123821AF04BFE184860
:104EA0001AF084FE62E72B4630468DE8A0001C22F3
:104EB0007321FBF7F9FF78202423F08101221C499C
:104EC000338230461AF036FE30461AF06FFE48E75D
:104ED00007224FF47C438DE80C00204613231C224C
:104EE0005D21FBF7E1FF5E202123E08103221149D0
:104EF000238220461AF01EFE20461AF057FEF6E6E0
:104F0000500800205C9402008081FF1F5092020034
:104F10001408002058A10300B08E030038150020AB
:104F200054A1030050A103004CA1030048A10300B9
:104F300044A1030040A103008C82FF1F30B5F2EEB4
:104F40000E7A2DED028BF2EE0A8AE0EE287A85B019
:104F500040F2FF750095FDEEE77A4A22CDED037A27
:104F6000BDF90C301C486C21B0EE408AFBF79CFE6A
:104F7000DFED1A7A0095E8EE287A14234A221648C3
:104F8000FDEEE77ACDED037ABDF90C402146FBF743
:104F90009FFDF3EE007AE8EE687A214600955E22E6
:104FA000FDEEE77A0C48CDED037ABDF90C30FBF746
:104FB0007BFEB5EEC08AF1EE10FA00954FF01503B6
:104FC0004FF04A024CBF6C218A210348FBF780FD59
:104FD00005B0BDEC028B30BD500800200000F64249
:104FE000DFED127AB2EE0A7AF0B5E0EE077A85B01C
:104FF0000F4DFDEEE77A40F2FF77CDED037ABDF974
:105000000C4001974A262846234600965E226E21D0
:1050100017F030FB5E230093214601973246284665
:10502000882317F027FB05B0F0BD00BF0000F64253
:1050300050080020F0B52DED068BDFED348A344D9D
:10504000B2EE0E9AF0EE687AE0EE097A85B040F2A0
:10505000FF764A27FDEEE77AB0EE408ACDED027A80
:10506000BDF908400097F0EE60AA28462346019655
:105070005E226421B0EE41AAF0EE619A17F0FAFACE
:1050800038EE2A8ADFED237A0196B3EE047AE8EE51
:10509000098A3A462146EAEE477A2846BDEEE87A82
:1050A000FDEEE77A8DED027ACDED037ABDF9087059
:1050B000BDF90C4000943B4617F0DCFADFED167AA0
:1050C0000096E8EE497A394622462846FDEEE77A10
:1050D000CDED027ABDF90830FBF7E6FDDFED0F7A82
:1050E0000196B2EE0A7AE9EE877A5E2300932246B1
:1050F000FDEEE77A2846CDED027ABDF908308B2126
:1051000017F0B8FA05B0BDEC068BF0BD0000C84240
:10511000500800200000BC420000204200000B4369
:1051200030B53C4C83B000212046FBF7A3F9204664
:10513000394917F0ABFE00254FF6E07335222046C3
:1051400001212282A3826382E58117F097FE334911
:1051500020461AF005FD20461AF028FD63894FF419
:105160007842143B1BB2204600920A213E22FBF7F4
:105170009BFD01254FF6FF735A222949A382204641
:1051800063822282E5811AF0EBFC20461AF00EFDC4
:10519000244B1B68013B032B39D8DFE803F0302890
:1051A0001B02214B2149224A93ED000AD1ED001A3E
:1051B000DFED207AD2ED000A1F4B93ED001A61EE6D
:1051C000A71A60EEA70A20EE270A03B0BDE8304018
:1051D000FFF730BF194B1A491A4A93ED000AD1ED77
:1051E000001ADFED147AD2ED000A174BE5E7174BF2
:1051F00093ED000A03B0BDE83040FFF7F1BE134B5A
:1052000093ED000A03B0BDE83040FFF797BE03B04E
:1052100030BD00BF50080020B08E03008C7DFF1F02
:1052200034040020200900207043FF1FD042FF1FDC
:10523000D842FF1F17B7D1387843FF1F8043FF1FA5
:10524000DC42FF1FF442FF1FC442FF1F481B002027
:105250002DE9F047544C554F88B020460021FBF70C
:1052600009F92046524917F011FE4FF6E075352333
:105270000522204601212382E281A582658217F062
:10528000FDFD07224B4920461AF054FC20461AF037
:105290008DFC63894FF47842143B1BB22046009288
:1052A00044F610693C220A21FBF7FEFC20464249E5
:1052B00017F0ECFD57F80910A58251F8043B039351
:1052C0004FF000084E2604A8A4F80E8026826582BE
:1052D0001AF066FD039920461AF0B8FC20461AF031
:1052E00065FC04A81AF008FD57F80910268251F849
:1052F000043B03934FF6FF764FF0230904A8A4F86C
:105300000E90A68266821AF04BFD04A920461AF080
:1053100027FC20461AF04AFC04A81AF0EDFC44F6DB
:105320000C6A4FF4204E1722CDF804E0B4F90A308D
:105330000092414655222046FBF7B6FD57F80A1069
:10534000A4F80E8051F8043B03934FF0620804A8C0
:10535000A5826582A4F810801AF022FD03992046E8
:105360001AF074FC20461AF021FC04A81AF0C4FCC0
:1053700057F80A10A4F80E9051F8043B039304A8C0
:10538000A4F81080A68266821AF00AFD04A92046BD
:105390001AF0E6FB20461AF009FC04A81AF0ACFC4F
:1053A00008B0BDE8F08700BF500800209482FF1FBE
:1053B0005C9402005CA10300AC94030038B5154C6A
:1053C00000212046FBF756F82046134917F05EFDF2
:1053D00005254FF6E073352220460121A382638222
:1053E000E581228217F04AFD0A220C4920461AF074
:1053F000A1FB20461AF0DAFB0A255A232046072291
:105400000749E58123821AF095FB2046BDE8384024
:105410001AF0CCBB50080020B08E030064A103003A
:1054200070A1030038B5154C00212046FBF722F887
:105430002046134917F02AFD4FF6E073204601215C
:10544000A3826382052517F019FD35230D220D492E
:1054500023822046E5811AF06DFB20461AF0A6FB58
:105460005A2320460D220849E58123821AF062FB67
:105470002046BDE838401AF099BB00BF5008002014
:10548000B08E030078A1030088A1030030B51D4C45
:1054900083B020460021FAF7EDFF20461A4917F0A5
:1054A000F5FC4FF6E07320460121A38263820025BC
:1054B00017F0E4FC35230C22144923822046E581B1
:1054C0001AF038FB20461AF071FB63894FF47842DA
:1054D000143B204600921BB23E220A21FBF7E4FB5C
:1054E00005254FF6FF735A2220460949E58122829D
:1054F000A38263821AF034FB204603B0BDE830403B
:105500001AF054BB50080020B08E030098A103008D
:105510004480FF1F2DE9F043A1F1080385B0174E29
:1055200000F1080700F110080FFA81FE05B291465C
:105530003FB20FFA88F81AB20C463B468DE80401D8
:1055400029467246CDF808E03046CDF80C90A6F812
:1055500010E0F58117F048F9221D0C3412B224B284
:10556000CDF804803B462946CDF80C903046029297
:10557000009417F039F905B0BDE8F0835008002019
:10558000F0B52D4C2D4E83B020460021FAF772FF66
:1055900020462B4917F07AFC4FF6E0750121204692
:1055A000A582658217F06AFC264B1F68002235230E
:1055B00038462382E2811FF0E3FE39460246204648
:1055C0001AF0B8FA20461AF0F1FA3368082B2CD0FA
:1055D000638919484FF47842143B0A211BB20092A8
:1055E0003E22FBF761FB184B1F6805225A234FF63A
:1055F000FF7538462382E281A58265821FF0C0FED6
:10560000394602460C481AF095FA0B481AF0CEFAC1
:105610003368092B01D003B0F0BD2A4650218C20FD
:1056200003B0BDE8F040FFF775BF2A462A218C2061
:10563000FFF770FFCCE700BF500800208843FF1F32
:10564000B08E0300CC42FF1F3C43FF1F10B52DED71
:10565000028B0C4684B0B0EE408A01460E481AF028
:105660003FFCB0EE480A022168461AF0DFFB6946AB
:105670000A481AF02DFC68461AF03EFB084B09490F
:10568000094A1B6881ED008A14600BB9FCF7BAFB6C
:1056900004B0BDEC028B10BD8C7DFF1F34040020D4
:1056A0001064FF1F481B00202009002070B50D4C1E
:1056B0002368083B012B98BF00230E4601460A4889
:1056C00098BF236015461AF00BFC314607481AF0C4
:1056D000F7FB074923680D6003B170BDBDE870405A
:1056E000FCF790BB1064FF1F8C7DFF1F340400206B
:1056F0002009002010B584B0044668461AF050FB1B
:10570000204669460022FFF7D1FF68461AF0F4FAF6
:1057100004B010BD10B5104C82B001212046FCF73A
:10572000A7F820460021FCF735F820460321FBF7B7
:10573000A1F820460121FAF7A7FFFFF729FA204632
:10574000FCF7C0F8002200924FF0FF3303490448F1
:1057500016F084FD02B010BD5008002055DE000098
:10576000B036002008B51B480FF07AFC1A480FF03D
:1057700077FC1A480FF074FC19480FF071FC1948B7
:105780000FF06EFC18480FF06BFC18480FF068FC27
:1057900017480FF065FC17480FF062FC16480FF031
:1057A0005FFC16480FF05CFC15480FF059FC1549DA
:1057B000154B4FF0FF300022086088600861886157
:1057C000086288621A705A709A70DA701A715A7187
:1057D00008BD00BFE07EFF1FE4E8FF1F187FFF1F2A
:1057E0001CE9FF1F507FFF1F54E9FF1F887FFF1F29
:1057F0008CE9FF1FC07FFF1FC4E9FF1FF87FFF1F59
:10580000FCE9FF1F0843FF1F8C82FF1F00B5114BEF
:10581000114A1B6883B001930199104B11604FF03E
:10582000FF3290421A600CD00D49002351F833200A
:1058300090420BD00133062BF8D1012003B05DF864
:1058400004FBFCF7EDFA03B05DF804FB581C03B051
:105850005DF804FBF836002060D1FF1F0043FF1FF6
:105860000843FF1F00B5414B1B6883B043B1404B59
:105870001B688B420FD03F4B196003B05DF804FBEF
:105880000846FFF7C3FF01380528F6D8DFE800F027
:10589000192A3B4C5D080191FFF764FF0199EAE783
:1058A00035480FF0DDFB35480FF0DAFB304B31495E
:1058B000986A334A08604FF0FF30002198625171B6
:1058C000DBE730480FF0CCFB2F480FF0C9FB284B2B
:1058D000284918682A4A08604FF0FF3000211860F4
:1058E0001170CAE729480FF0BBFB29480FF0B8FB3D
:1058F0001F4B20499868224A08604FF0FF30002172
:1059000098605170B9E723480FF0AAFB22480FF0C6
:10591000A7FB174B17491869194A08604FF0FF3069
:10592000002118619170A8E71C480FF099FB1C48F2
:105930000FF096FB0E4B0F499869114A08604FF023
:10594000FF3000219861D17097E716480FF088FB6F
:1059500015480FF085FB064B0649186A084A08608F
:105960004FF0FF3000211862117186E7100400200B
:105970000843FF1F9443FF1FF87FFF1FFCE9FF1F31
:105980008C82FF1FE07EFF1FE4E8FF1F187FFF1FD0
:105990001CE9FF1F507FFF1F54E9FF1F887FFF1F77
:1059A0008CE9FF1FC07FFF1FC4E9FF1F7F4B1A68F0
:1059B000652AF0B500F09E807D4B1868652800F0E0
:1059C000B980662A7B4B7C4A1B68116800F0CC804A
:1059D0007A4D7B4C7B4E0B4466280DD132687A4859
:1059E0007A4F0A4480FB02E0A0EBE272013202EB44
:1059F000022207EB42022263754800EB8303D3EDDA
:105A0000007AF5EEC07AF1EE10FA00F18D809FED8C
:105A1000717AF4EEC77AF1EE10FA38DC9FED6E7A07
:105A20006E4A67EE877AFCEEE77A17EE903A934279
:105A3000C5ED097A2BD86A4B1B68012B2DD0326833
:105A4000684D8B1800EB8303D3ED007A95ED007A57
:105A500067EE877AF5EEC07AF1EE10FA67D49FED23
:105A60005D7AF4EEC77AF1EE10FA0DDC9FED5A7A0A
:105A70005A4A67EE877AFCEEE77A17EE903A93423D
:105A8000C4ED097A40F28180544B6362F0BD534B00
:105A90006B62534B1B68012BD1D1524A3368D2ED54
:105AA000007ADFED516AB7EE007A37EE677A0B4481
:105AB000E7EE267A00EB830393ED007A67EE877AB0
:105AC000F5EEC07AF1EE10FA31D49FED427AF4EEA1
:105AD000C77AF1EE10FAD7DC9FED3F7A3F4A67EEC6
