:1000000000000320D101000045F5010049F4010082
:1000100049F4010049F4010049F4010049F40100E8
:1000200049F4010049F4010049F4010045F50100DB
:1000300045F5010049F40100C5860100B5860100BF
:1000400045F5010045F5010045F5010045F50100C4
:1000500045F5010045F5010045F5010045F50100B4
:1000600045F5010045F5010045F5010045F50100A4
:1000700045F5010045F5010045F5010045F5010094
:1000800045F5010045F5010045F5010045F5010084
:1000900045F5010045F5010045F5010045F5010074
:1000A00015C4010009C4010045F5010045F5010032
:1000B00045F5010045F5010045F50100E56F01003A
:1000C00045F501000D6F010045F50100716E01005D
:1000D00045F50100956D010045F5010045F501006C
:1000E00045F5010045F5010045F5010045F5010024
:1000F00045F5010045F5010045F5010045F5010014
:100100008982010075820100618201004D82010037
:1001100045F50100BD70010045F5010045F5010000
:1001200045F5010045F5010045F5010045F50100E3
:1001300045F5010045F5010045F5010045F50100D3
:10014000FD86010045F50100F96C010045F501004F
:1001500045F5010045F5010045F5010045F50100B3
:1001600045F5010045F50100FDC3010045F501001D
:1001700045F5010045F5010045F5010045F5010093
:1001800045F5010045F5010045F5010045F5010083
:1001900045F5010045F50100596C010045F50100E8
:1001A00045F5010045F5010045F5010045F5010063
:1001B00045F5010045F5010045F5010045F5010053
:1001C00045F5010045F5010045F5010045F5010043
:1001D00008B5624B4CF220521A804DF628121A8054
:1001E00000BF00BF102223F80E2CA3F51F43DE3BF7
:1001F0004FF030621A605A4A9A605A4ADA605A4B93
:100200004FF470021A60594B594A1A60594B1A78C8
:10021000120703D51A7842F008021A70564B574954
:10022000AA221A70564A574B8B4204D252F8040F36
:1002300043F8040BF8E7544B544900228B4202D296
:1002400043F8042BFAE75249524A002352F823009C
:1002500041F823000133742BF8D14F4B4F4A8021D2
:1002600003F8011B9342FBD14D4B494A1A604D4B99
:100270008A221A70A3F5805324225A70A0221A7081
:100280009A799507FCD59A79D406FCD4464A937995
:1002900003F00C03082BFAD1444B60221A7002338E
:1002A0001A78802AFCD1404B00221A714E225A71D2
:1002B0009A799006FCD599793B4A4906FBD53C4B87
:1002C0003C4919600821596020231370937903F089
:1002D0000C030C2BFAD1384B384A1A60384A394C87
:1002E000136813F4807303D123604FF4A853136091
:1002F000354B364A1A60002507225D6043F8042C0E
:10030000334AC3F80C2D62B61FF020F922682D4B3A
:10031000D2070CD52F4A30491D60156042F8041CE5
:1003200010221A6003F5805308332C4A1A602C4BB4
:100330001B785B060ED52B4A284B1168994209D1D0
:1003400024492548002323600B6041F8040C102148
:100350002160136025F0ECFF07F00EF80E20054039
:10036000823F04000100002B88ED00E0002008E03F
:100370000300008502D0074000E00740904EFF1FB9
:10038000280E0400703DFF1F0050FF1FEC350020B9
:100390000002FF1F0000000000E400E064E400E051
:1003A00008ED00E0005006400040064001E0074034
:1003B000448004400000070304800440C01005008E
:1003C00010D0034014D0034014E000E07FA90300E4
:1003D0000000202004D00340E5B2205FA5C3945A5A
:1003E00000F007401CE00340FFFFFFFFFFFFFFFF9F
:1003F000FFFFFFFFFFFFFFFFFFFFFFFFFFFFFFFF0D
:10040000FFFFFFFFFFFFFFFFFFFFFFFFDEF9FFFF23
:1004100010B5054C237833B9044B13B10448AFF33E
:1004200000800123237010BD0050FF1F000000005A
:10043000240E0400084B10B51BB108490848AFF35F
:1004400000800848036803B910BD074B002BFBD0A0
:10045000BDE81040184700BF000000000450FF1F17
:10046000240E0400904EFF1F000000002DE980487C
:10047000484B9BB01B680993099A00E021DF454B6C
:100480001B680893089B9B1AB3F5FA6FF6DBDFF83D
:1004900018B1DFED419A9FED418ADFED418A414B72
:1004A0001B68092B01F26180DFE813F040020405AC
:1004B0008A0013000A00F203EE02A604D001D00164
:1004C00019F092FB9BF86820002AE8D023F024FF63
:1004D000E1E7BBF90C20009200221146BBF90A307B
:1004E00001923148314D324C0BF0B2FA4FF6E072C6
:1004F000012305203521CBF81C50ABF81420ABF8B4
:1005000012208BF816308BF81730ABF80E00ABF8D2
:100510001010254D14F8011B28461FF005FA254B35
:100520009C42F6D10D2128461FF0FEF90A212846EB
:100530001FF0FAF9204C05225A23EA812B821A4D2A
:1005400014F8011B28461FF0EFF91C4B9C42F6D112
:100550000D2128461FF0E8F90A2128461FF0E4F98A
:1005600095F868201AB123F0D7FE95F86820094B5A
:100570001B680B930B9900E021DF064B1B680A9365
:100580000A9B5B1AB3F57A7FF6DB064900230B6002
:100590009AE700BF800D002017B7D1380000C8428D
:1005A0000000BC42D01A002014FDFF1F14D402002A
:1005B00070F302007DF3020080F302008DF302006D
:1005C000BBF90C20009200221146BBF90A300192BF
:1005D0009448954D954C0BF03BFA4FF6E072012391
:1005E00005203521CBF81C50ABF80E00ABF81010ED
:1005F000ABF81420ABF812208BF816308BF81730BC
:10060000884D14F8011B28461FF08EF9884B9C4238
:10061000F6D10D2128461FF087F90A2128461FF040
:1006200083F96A89143A12B24FF478433C210A20C4
:1006300023F0A4FD7F4B1A887F4BEB61931E99B288
:100640004E204FF6E07300248A422882EC81AB8270
:100650006B827A4841F26B84794B1A68131A794A93
:100660009B1002FB0313784A83FB02455919DA17E2
:10067000C2EB612240F2E73101FB123303EB83034B
:1006800000EB8301043150F823300C930DA818F0CF
:100690001FFA0C9A002AC1F2568442F005803023DA
:1006A0008DF86530212111AB5D180ED02229C1F1E2
:1006B00021060AD02C4614F8011B5A481FF034F9C1
:1006C000C4F101033344DD42F5D10D2155481FF03B
:1006D0002BF90A2153481FF027F90D982CF0BCFD87
:1006E000544B56481A88931E99B22323ABF80E3008
:1006F0004E23ABF810308A424FF6FF73ABF814303C
:10070000ABF8123041F209844D4B1A68131A4D4A66
:100710009B1002FB03134C4A83FB02455919DA175D
:10072000C2EB612240F2E73101FB123303EB83039A
:1007300000EB8301043150F823300C930DA818F01E
:10074000C7F90F9B002B00F014874FF000091C46DF
:10075000A1459846CA46334E60D2C9EB0404202C0A
:100760000D9928BF20242246494411A82CF01EFED2
:100770001AAB1C4404F824AC4746202F28BF20277E
:1007800011ABB944C7EB08081D461F44BD423ED01B
:10079000DBF81C0015F8013B002800F0BA840A2B96
:1007A00000F066840D2BF1D0047AA342EED3427A96
:1007B0009A42EBD342681C1BE4B202EBC404A27859
:1007C000D2B1E178C1B1717E002940F00186B6F95D
:1007D0000E200492F07DB6F9102096F816C0049908
:1007E000BBF814E00390BBF81200CDF808C08DE808
:1007F00001400C4823F0F0F92179BBF80E309BF84A
:100800001620BD4201FB0233ABF80E30C0D1B8F167
:10081000000F00F0AE860F9CA1459ED38DF844A03A
:10082000AAE700BF14FDFF1F20D4020068F30200F6
:100830006DF30200CCFAFF1F3CFD0200B8ACFF1FB5
:10084000C4FAFF1FCDCCCCCC210534830024BBF9E6
:100850000C20BBF90A3000922146224601948248BE
:100860000BF0F6F8814BABF80E401D68804CCBF8CE
:100870001C404FF6E072012335212846ABF81420C6
:10088000ABF812208BF816308BF81730ABF810103D
:1008900029F0F6FA044630B115F8011B72481FF032
:1008A00043F8013CF8D1704C0D2120461FF03CF874
:1008B00020460A211FF038F86E4B1B68082B01F008
:1008C000CA86BBF80A20143A12B24FF478433E218C
:1008D0000A2023F053FC684B1D6805214FF6FF7377
:1008E0005A222846ABF81430ABF81230ABF80E1091
:1008F000ABF8102029F0C4FA044630B115F8011BFA
:1009000059481FF011F8013CF8D1574C0D212046F1
:100910001FF00AF820460A211FF006F8554B1B6805
:10092000092B01F03E8694F86820CDE5534B544ADC
:100930001B680793079B12689B1AB3F52F7F3FF63E
:10094000BFAD0024BBF90C20BBF90A300092214650
:100950002246454801940BF07BF84A4B4448D3F8B3
:100960000890ABF80E404FF6E07201233521CBF82A
:100970001C00ABF81010ABF81420ABF812208BF869
:1009800016308BF81730B9F1000F01F06884A046DB
:10099000A2464C46A045344F62D23A4BC8EB040401
:1009A0001968202C28BF20242246414411A82CF08D
:1009B000FDFC1AAB1C4404F824AC4E46202E28BF84
:1009C000202611ABB044C6EB09091D461E44B542B2
:1009D0003ED0DBF81C0015F8013B002800F06384D2
:1009E0000A2B00F056840D2BF1D0027A9342EED3FD
:1009F000417A9942EBD39A1A4168D2B201EBC20410
:100A0000A278D2B1E178C1B1797E002941F0678244
:100A1000B7F90E200492F87DB7F9102097F816C0A8
:100A20000499BBF814E00390BBF81200CDF808C09D
:100A30008DE801400C4823F0CFF82179BBF80E3047
:100A40009BF81620B54201FB0233ABF80E30C0D143
:100A5000B9F1000F01F003840A4B9C68A0459CD3B8
:100A60008DF844A0A9E700BF14FDFF1FD044FF1F6D
:100A700014D40200D844FF1FD444FF1F800D00206F
:100A8000D81A00209CFDFF1FBBF90C200092002209
:100A90001146BBF90A3001927748784D784C0AF03C
:100AA000D7FF4FF6E072012305203521CBF81C500B
:100AB000ABF80E00ABF81010ABF81420ABF8122016
:100AC0008BF816308BF817306B4D14F8011B284645
:100AD0001EF02AFF6B4B9C42F6D10D2128461EF0DA
:100AE00023FF0A2128461EF01FFF6A89143A12B21A
:100AF0004FF478433C210A2023F040FB624B1968F5
:100B0000624BEB6151F8043B0C934E224FF6E073BD
:100B100000242A820DA8EC81AB826B8217F0D8FFEB
:100B20000C9AA242C1F2738241F0868530238DF87F
:100B30006530212111AB5D180ED02229C1F12106AB
:100B40000AD02C4614F8011B4B481EF0EDFEC4F1F0
:100B500001033344DD42F5D10D2147481EF0E4FE88
:100B60000A2145481EF0E0FE0D982CF075FB464B1F
:100B7000196851F8043B0C9323234E22ABF80E3036
:100B80000DA84FF6FF73ABF81020ABF81430ABF89C
:100B9000123017F09DFFDDF83C90B9F1000F01F025
:100BA00021804FF000084C46A045C246324E60D22C
:100BB000C8EB0404202C0D9928BF20242246414470
:100BC00011A82CF0F3FB1AAB1C4404F824AC4F46DC
:100BD000202F28BF202711ABB844C7EB09091D46B9
:100BE0001F44AF423ED0DBF81C0015F8013B002843
:100BF00000F000830A2B00F032820D2BF1D0047A32
:100C0000A342EED3427A9A42EBD342681C1BE4B271
:100C100002EBC404A278D2B1E178C1B1717E00299F
:100C200040F09483B6F90E200492F07DB6F91020BE
:100C300096F816C00499BBF814E00390BBF81200B4
:100C4000CDF808C08DE801400B4822F0C5FF21799E
:100C5000BBF80E309BF81620AF4201FB0233ABF815
:100C60000E30C0D1B9F1000F00F0BC870F9CA04539
:100C70009ED38DF844A0AAE714FDFF1F20D40200E4
:100C8000A0F30200A7F30200C8FAFF1F3CFD020018
:100C90000025BBF90C20BBF90A30009229462A46F0
:100CA0007B4801950AF0D4FE7A4C7B48ABF80E5095
:100CB0004FF6E07201233521CBF81C00ABF814206D
:100CC000ABF812208BF816308BF81730ABF81010F9
:100CD0006F4E14F8011B30461EF026FE6F4B9C42EF
:100CE000F6D10D2130461EF01FFE0A2130461EF0BF
:100CF0001BFE7289143A12B24FF478433E210A2047
:100D000023F03CFA664B9B684FF6FF7205205A2190
:100D1000B2827282F0813182002B00F057874FF04F
:100D200000091C46A1459846CA4662D25C4BC9EBF5
:100D300004041968202C28BF20242246494411A805
:100D40002CF034FB1AAB1C4404F824AC4746202F8B
:100D500028BF202711ABB944C7EB08081D461F4424
:100D6000BD423ED0DBF81C0015F8013B002800F026
:100D70009B810A2B00F08F810D2BF1D0047AA342C6
:100D8000EED3427A9A42EBD342681C1BE4B202EBE8
:100D9000C404A278D2B1E178C1B1717E002940F0DB
:100DA0000183B6F90E200492F07DB6F9102096F872
:100DB00016C00499BBF814E00390BBF81200CDF8FC
:100DC00008C08DE80140324822F006FF2179BBF8C7
:100DD0000E309BF81620BD4201FB0233ABF80E30FB
:100DE000C0D1B8F1000F00F0F1862D4B9C68A145F1
:100DF0009CD38DF844A0A9E7BBF90C2000920022F7
:100E00001146BBF90A3001922148234D254C0AF0C6
:100E10001FFE4FF6E072012302203521CBF81C5053
:100E2000ABF80E00ABF81010ABF81420ABF81220A2
:100E30008BF816308BF81730154D14F8011B284627
:100E40001EF072FD184B9C42F6D10D2128461EF073
:100E50006BFD0A2128461EF067FD144C0A225A2316
:100E6000EA812B820A4D14F8011B28461EF05CFD16
:100E70000F4B9C42F6D10D2128461EF055FD0A214C
:100E800028461EF051FD95F86820FFF71DBB00BFF6
:100E900014FDFF1F90F3020014D402009CF3020023
:100EA000DCFDFF1FA8F30200B3F30200B4F302005D
:100EB000BBF302000024BBF90C20BBF90A300092FE
:100EC00021462246AE4801940AF0C2FDAD4BAE4920
:100ED0001B68ABF80E401A68CBF81C104FF6E07197
:100EE000ABF81410ABF812100CA92D208B420C9209
:100EF0000D940E940F948DF84040ABF8100005D07F
:100F0000DA6859680DA817F031FD0C9A002AC1F271
:100F10004C8041F0BB8330238DF86530212111AB2B
:100F20005D180ED02229C1F121060AD02C4614F8F2
:100F3000011B93481EF0F8FCC4F101033344DD4269
:100F4000F5D10D218E481EF0EFFC0A218C481EF0D1
:100F5000EBFC0D982CF080F98A4B196851F8043B92
:100F60000C9323232D22ABF80E300DA84FF6FF7300
:100F7000ABF81430ABF81230ABF8102017F0A8FD26
:100F80000F9B002B00F058844FF000091C46A14530
:100F90009846CA467A4E5FD2C9EB0404202C0D99BC
:100FA00028BF20242246494411A82CF0FFF91AAB8F
:100FB0001C4404F824AC4746202F28BF202711AB3F
:100FC000B944C7EB08081D461F44BD423DD0DBF8BD
:100FD0001C0015F8013B002800F0D8800A2B51D0E6
:100FE0000D2BF2D0047AA342EFD3427A9A42ECD38B
:100FF00042681C1BE4B202EBC404A278D2B1E178CF
:10100000C1B1717E002940F0B781B6F90E2004927B
:10101000F07DB6F9102096F816C00499BBF814E0DC
:101020000390BBF81200CDF808C08DE80140544889
:1010300022F0D2FD2179BBF80E309BF81620BD427C
:1010400001FB0233ABF80E30C1D1B8F1000F00F054
:10105000F3830F9CA1459FD38DF844A0ABE7A6F87E
:101060000EA0827A338AF17D01FB02333382B8E528
:10107000A6F80EA0827A338AF17D01FB0233338217
:10108000FFF784BBA6F80EA0827A338AF17D01FBBC
:101090000233338299E7A6F80EA0827A338AF17D73
:1010A00001FB023333825BE60A2B00F048810D2BF3
:1010B0003FF456AE727EB6F90E10002A00F0D480CE
:1010C00096F816E0B6F90A40062212FB0E12A2426A
:1010D00040F3A481328A96F817C0F08102EBCC026B
:1010E00012B201463282BBF81200BBF81440CDF8B0
:1010F0000CC08DE81140224822F06EFD9BF816309E
:10110000BBF80E2003EB430302EB4303ABF80E30B6
:1011100026E60A2B00F00B810D2B3FF437AB727ED5
:10112000B6F90E10002A00F0988096F816E0B6F98D
:101130000A40062212FB0E12A24240F36081328A5C
:1011400096F817C0F08102EBCC0212B2014632824F
:10115000BBF81200BBF81440CDF80CC08DE811406C
:10116000074822F039FD9BF81630BBF80E2003EB40
:10117000430302EB4303ABF80E30FFF707BB00BF9E
:1011800014FDFF1FC8FAFF1F3CFD02000A2B00F0F0
:10119000C7800D2B3FF419AF727EB6F90E10002AEE
:1011A00070D096F816E0B6F90A40062212FB0E122D
:1011B000A24240F32981328A96F817C0F08102EBEF
:1011C000CC0212B201463282BBF81200BBF81440C6
:1011D000CDF80CC08DE81140B24822F0FDFC9BF820
:1011E0001630BBF80E2003EB430302EB4303ABF8CE
:1011F0000E30EAE60A2B00F08C800D2B3FF4F1ACA8
:10120000727EB6F90E10B2B396F816E0B6F90A403F
:10121000062212FB0E12A24240F3FB80328A96F89D
:1012200017C0F08102EBCC0212B201463282BBF849
:101230001200BBF81440CDF80CC08DE8114099485D
:1012400022F0CAFC9BF81630BBF80E2003EB4303D8
:1012500002EB4303ABF80E30C3E4B6F9102096F866
:1012600017C096F816E073E7B6F9102096F817C085
:1012700096F816E037E7B6F9102096F817C096F8FA
:1012800016E0D4E7B6F9102096F817C096F816E0E5
:101290009AE7A7F80EA0827A3B8AF97D01FB023318
:1012A0003B82FFF794BB0A2B00F011860D2B3FF415
:1012B0008EAB7A7EB7F90E10002A00F0E58597F81C
:1012C00016E0B7F90A40062212FB0E12A24240F3C2
:1012D0001E863A8A97F817C0F88102EBCC0212B248
:1012E00001463A82BBF81200BBF81440CDF80CC09E
:1012F0008DE811406B4822F06FFC9BF81630BBF86C
:101300000E2003EB430302EB4303ABF80E30FFF771
:101310005EBB338AF27DF08103EBC203338260E46B
:10132000338AF27DF08103EBC20333824DE6338AC8
:10133000F27DF08103EBC2033382FFF727BA338AD1
:10134000F27DF08103EBC203338209E594F90510C5
:101350000591B6F90E100491059996F816C0B6F9E4
:101360000AE00A4404990CFB021272457ADC9BF8ED
:101370001700BBF910205EE494F905100591B6F949
:101380000E100491059996F816C0B6F90AE00A44C1
:1013900004990CFB0212724555DC9BF81700BBF94F
:1013A00010203BE694F905100591B6F90E10049152
:1013B000059996F816C0B6F90AE00A4404990CFBA0
:1013C000021272455EDC9BF81700BBF91020F1E4B5
:1013D00094F905100591B6F90E100491059996F847
:1013E00016C0B6F90AE00A4404990CFB02127245D1
:1013F00019DC9BF81700BBF91020FFF7F1B9B6F91B
:10140000102096F817C0A3E6B6F9102096F817C07A
:10141000DAE6B6F9102096F817C008E7B6F91020FA
:1014200096F817C05FE6ABF80EA0827ABBF81010F2
:101430009BF8170002FB001212B20021ABF810203B
:101440000491FFF7CDB9ABF80EA0827ABBF810106B
:101450009BF8170002FB001212B20021ABF810201B
:101460000491DBE5ABF80EA0827ABBF810109BF874
:10147000170002FB001212B20021ABF810200491F9
:10148000FFF7D9BBABF80EA0827ABBF810109BF81F
:10149000170002FB001212B20021ABF810200491D9
:1014A00088E400BF14FDFF1FCC4B93ED009ACC4B9A
:1014B00029EE299AF2EE0EAAF0EE487AE9EE2A7A9F
:1014C0005E21642093ED00AAC64BFDEEE77AD3EDD2
:1014D00000BACDED047ABDF91040C34B224693ED1E
:1014E00000BA4A231CF098FAABEEA99A20464A218A
:1014F000F3EE047AB0EE687AABEE677AF0EE487AF3
:10150000E9EE2A7ABDEEC77AFDEEE77A8DED057A2F
:10151000CDED047ABDF91440BDF9105023462A469A
:101520001CF07AFADFEDB17AE9EE6A7A28462146B4
:1015300040F2FF73FDEEE77A2AEE29AACDED047A98
:10154000BDF9102022F01AFEDFEDA97AB2EE0A7A78
:10155000EAEE077A21465E238B20FDEEE77ACDED99
:10156000047ABDF910201CF057FA9BF86820FEF7AA
:10157000ABBF0D219F481EF0D7F90A219D481EF0F0
:10158000D3F90D982BF068FE17214FF420428DE817
:101590000600BBF90A309748552200210AF058FA94
:1015A000954B196851F8043B0C9362224FF6E07397
:1015B00000240DA8ABF81020ABF80E40ABF81430A7
:1015C000ABF8123017F084FA0C9AA242C0F282856E
:1015D00041F0048030238DF86530212111AB5D1876
:1015E0000ED02229C1F121060AD02C4614F8011B85
:1015F00080481EF099F9C4F101033344DD42F5D16E
:101600000D217C481EF090F90A217A481EF08CF9D1
:101610000D982BF021FE784B196851F8043B0C9380
:1016200023236222ABF80E300DA84FF6FF73ABF800
:101630001020ABF81430ABF8123017F049FADDF88F
:101640003C90B9F1000F00F0D9804FF000084C46F3
:10165000A045C246674E5CD2C8EB0404202C0D990D
:1016600028BF20242246414411A82BF09FFE1AAB2C
:101670001C4404F824AC4F46202F28BF202711AB70
:10168000B844C7EB09091D461F44BD423BD0DBF8F7
:101690001C0015F8013B002847D00A2B3CD00D2B2D
:1016A000F3D0047AA342F0D3427A9A42EDD342684F
:1016B0001C1BE4B202EBC404A278CAB1E178B9B150
:1016C000717E00296FD1B6F90E200492F07DB6F933
:1016D000102096F816C00499BBF814E00390BBF8EC
:1016E0001200CDF808C08DE80140424822F074FA9B
:1016F0002179BBF80E309BF81620BD4201FB023366
:10170000ABF80E30C3D1B9F1000F77D00F9CA045D4
:10171000A2D38DF844A0AEE7A6F80EA0827A338A51
:10172000F17D01FB02333382AFE70A2B34D00D2B5E
:10173000ABD0727EB6F90E103AB396F816E0B6F951
:101740000A40062212FB0E12A24242DD328A96F8AD
:1017500017C0F08102EBCC0212B201463282BBF814
:101760001200BBF81440CDF80CC08DE811402148A0
:1017700022F032FA9BF81630BBF80E2003EB43033D
:1017800002EB4303ABF80E307FE7B6F9102096F872
:1017900017C096F816E0E2E7338AF27DF08103EB9A
:1017A000C203338271E794F905100591B6F90E1062
:1017B0000491059996F816C0B6F90AE00A4404990E
:1017C0000CFB0212724528DC9BF81700BBF91020B5
:1017D00082E7B6F9102096F817C0C0E70043FF1F54
:1017E0000C43FF1F0443FF1F0843FF1F000020425C
:1017F00000000B4314FDFF1FC8FAFF1F0D21B04866
:101800001EF092F80A21AE481EF08EF80D982BF0CB
:1018100023FD9BF86820FEF757BEABF80EA0827A36
:10182000BBF810109BF8170002FB001212B2002147
:10183000ABF8102004914FE70D21A1481EF074F879
:101840000A219F481EF070F80D982BF005FD172116
:101850004FF420428DE80600BBF90A309848382240
:1018600000210AF0F5F8974B196851F8043B0C93E6
:1018700048224FF6E07300240DA8ABF81020ABF817
:101880000E40ABF81430ABF8123017F021F90C9A77
:10189000A242C0F25B8440F0B18630238DF86530FF
:1018A000212111AB5D180ED02229C1F121060AD0E9
:1018B0002C4614F8011B82481EF036F8C4F10103CF
:1018C0003344DD42F5D10D217D481EF02DF80A216B
:1018D0007B481EF029F80D982BF0BEFC794B196857
:1018E00051F8043B0C9323234822ABF80E300DA88B
:1018F0004FF6FF73ABF81020ABF81430ABF8123092
:1019000017F0E6F8DDF83C90B9F1000F00F0DC804C
:101910004FF000084C46A045C246694E5CD2C8EB69
:101920000404202C0D9928BF20242246414411A8EC
:101930002BF03CFD1AAB1C4404F824AC4F46202F7E
:1019400028BF202711ABB844C7EB09091D461F4427
:10195000BD423BD0DBF81C0015F8013B002847D006
:101960000A2B3CD00D2BF3D0047AA342F0D3427A59
:101970009A42EDD342681C1BE4B202EBC404A27885
:10198000CAB1E178B9B1717E00296FD1B6F90E20E4
:101990000492F07DB6F9102096F816C00499BBF8B1
:1019A00014E00390BBF81200CDF808C08DE80140A8
:1019B000434822F011F92179BBF80E309BF816202C
:1019C000BD4201FB0233ABF80E30C3D1B9F1000FB9
:1019D0007AD00F9CA045A2D38DF844A0AEE7A6F81C
:1019E0000EA0827A338AF17D01FB02333382AFE7A6
:1019F0000A2B34D00D2BABD0727EB6F90E103AB351
:101A000096F816E0B6F90A40062212FB0E12A24220
:101A100042DD328A96F817C0F08102EBCC0212B296
:101A200001463282BBF81200BBF81440CDF80CC05E
:101A30008DE81140224822F0CFF89BF81630BBF811
:101A40000E2003EB430302EB4303ABF80E307FE7BA
:101A5000B6F9102096F817C096F816E0E2E7338A38
:101A6000F27DF08103EBC203338271E794F9051034
:101A70000591B6F90E100491059996F816C0B6F9BD
:101A80000AE00A4404990CFB0212724509DC9BF837
:101A90001700BBF9102082E7B6F9102096F817C09E
:101AA000C0E7ABF80EA0827ABBF810109BF81700C5
:101AB00002FB001212B20021ABF8102004916EE775
:101AC00014FDFF1FC4FAFF1F0D21B4481DF02CFFA9
:101AD0000A21B2481DF028FF0D982BF0BDFBB04B3A
:101AE000B0481A8862230024ABF81030012A4FF660
:101AF000E073ABF80E40ABF81430ABF8123040F2A4
:101B00005783A94BA94A1B681B1A9B1002FB03F3BE
:101B1000A74A013383FB0267D919DA17C2EB6122A6
:101B200040F2E73101FB123303EB830300EB830147
:101B3000043150F823300C930DA816F0C9FF0C9A0D
:101B4000A242C0F2548340F0BD8530238DF8653049
:101B500000260DF165052C4614F8011B8F481DF079
:101B6000E3FEC4F101033344DD42F5D10D218B487E
:101B70001DF0DAFE0A2189481DF0D6FE0D982BF0E3
:101B80006BFB874B854C1A8886482323ABF80E30B5
:101B90006223ABF81030012A4FF6FF73ABF8143014
:101BA000ABF8123000F27881824B196851F8043B8F
:101BB000119312A816F08CFF12A81BF029FB1298A3
:101BC0002BF04AFB94F86820FEF77EBC0D21734889
:101BD0001DF0AAFE0A2171481DF0A6FE9BF86820A0
:101BE000FEF772BC0D216D481DF09EFE0A216B4868
:101BF0001DF09AFE0D982BF02FFB17214FF4204279
:101C00008DE80600BBF90A3064485522002109F02E
:101C10001FFF654B196851F8043B0C9362224FF685
:101C2000E07300240DA8ABF81020ABF80E40ABF821
:101C30001430ABF8123016F04BFF0C9AA242C0F2EF
:101C4000188240F0EA8430238DF86530212111ABF1
:101C50005D180ED02229C1F121060AD02C4614F8B5
:101C6000011B4E481DF060FEC4F101033344DD4208
:101C7000F5D10D2149481DF057FE0A2147481DF0B6
:101C800053FE0D982BF0E8FA474B196851F8043BC6
:101C90000C9323236222ABF80E300DA84FF6FF738E
:101CA000ABF81430ABF81230ABF8102016F010FF80
:101CB0000F9B002B3FF4A2AD4FF000091C46A1453D
:101CC0009846CA46354E5DD2C9EB0404202C0D99C6
:101CD00028BF20242246494411A82BF067FB1AABE9
:101CE0001C4404F824AC4746202F28BF202711AB02
:101CF000B944C7EB08081D461F44BD423BD0DBF882
:101D00001C0015F8013B002856D00A2B3DD00D2BA6
:101D1000F3D0047AA342F0D3427A9A42EDD34268D8
:101D20001C1BE4B202EBC404A278CAB1E178B9B1D9
:101D3000717E00297ED1B6F90E200492F07DB6F9AD
:101D4000102096F816C00499BBF814E00390BBF875
:101D50001200CDF808C08DE80140104821F03CFF8A
:101D60002179BBF80E309BF81620BD4201FB0233EF
:101D7000ABF80E30C3D1B8F1000F3FF43FAD0F9C6C
:101D8000A145A1D38DF844A0ADE7A6F80EA0827AB4
:101D9000338AF17D01FB02333382AEE714FDFF1F6E
:101DA000CCFAFF1FB8ACFF1FC4FAFF1FCDCCCCCCC0
:101DB00021053483C8FAFF1F0A2B34D00D2B9CD089
:101DC000727EB6F90E103AB396F816E0B6F90A40EC
:101DD000062212FB0E12A24242DD328A96F817C08A
:101DE000F08102EBCC0212B201463282BBF8120043
:101DF000BBF81440CDF80CC08DE81140BE4821F06E
:101E0000EBFE9BF81630BBF80E2003EB430302EB0E
:101E10004303ABF80E3070E7B6F9102096F817C000
:101E200096F816E0E2E7338AF27DF08103EBC20315
:101E3000338262E794F905100591B6F90E1004910A
:101E4000059996F816C0B6F90AE00A4404990CFB05
:101E50000212724509DC9BF81700BBF9102073E7EA
:101E6000B6F9102096F817C0C0E7ABF80EA0827A3A
:101E7000BBF810109BF8170002FB001212B20021F1
:101E8000ABF8102004915FE7B7F9102097F817C05E
:101E900097F816E0FFF726BA984B994A1B681B1A69
:101EA0009B1002FB03F3974A013383FB0267D919A6
:101EB000DA17C2EB612240F2E73101FB123303EB88
:101EC000830300EB8301043150F8233070E63B8A32
:101ED000FA7DF88103EBC2033B82FEF778BD94F9EB
:101EE00005100591B7F90E100491059997F816C0E1
:101EF000B7F90AE00A4404990CFB0212724500F398
:101F000066819BF81700BBF91020FEF78ABDB7F970
:101F1000102097F817C0FFF7E5B97B4B19680DA89B
:101F200051F8043B0C9316F0D3FDFEF70ABC764B38
:101F300019680DA851F8043B0C9316F0C9FD0C9AD2
:101F4000002ABEF6AAAB6E4B5242A3FB0213DB087B
:101F500003EB8301A2EB410230328DF86520002BA8
:101F600000F0D5832D25212400E00C46644AA2FB15
:101F70000312D20802EB8200611EA3EB4003C9B238
:101F80001AA80844303300F8243C1346002AECD148
:101F9000002D3EF488ABA31EDBB219461AAA1344E7
:101FA0002D2203F8242CFEF77EBB554B5242A3FB97
:101FB0000213DB0803EB8301A2EB410230328DF800
:101FC0006520002B00F0AC832D25212400E00C4679
:101FD0004B4AA2FB0312D20802EB8200611EA3EB64
:101FE0004003C9B21AA80844303300F8243C134611
:101FF000002AECD1002D3EF492AFA31EDBB21946AD
:102000001AAA13442D2203F8242CFEF788BF3C4B58
:102010005242A3FB0213DB0803EB8301A2EB410254
:1020200030328DF86520002B00F06E832D252124A1
:1020300000E00C46324AA2FB0312D20802EB8200F7
:10204000611EA3EB4003C9B21AA80844303300F85C
:10205000243C1346002AECD1002D3EF46BADA31EA8
:10206000DBB219461AAA13442D2203F8242CFEF7DA
:1020700061BD234B5242A3FB0213DB0803EB830138
:10208000A2EB410230328DF86520002B00F04E8328
:102090002D25212400E00C46194AA2FB0312D20888
:1020A00002EB8200611EA3EB4003C9B21AA80844E8
:1020B000303300F8243C1346002AECD1002D3FF4C5
:1020C000C6ADA31EDBB219461AAA13442D2203F88B
:1020D000242CBCE50A4B5242A3FB0213DB0803EBA2
:1020E0008301A2EB410230328DF86520002B00F015
:1020F000F9822D2521240AE014FDFF1FC4FAFF1FD9
:10210000CDCCCCCC21053483C8FAFF1F0C46BE4A87
:10211000A2FB0312D20802EB8200611EA3EB400374
:10212000C9B21AA80844303300F8243C1346002AE8
:10213000ECD1002D3FF452AAA31EDBB219461AAA15
:1021400013442D2203F8242CFFF748BAAE4B524219
:10215000A3FB0213DB0803EB8301A2EB4102303245
:102160008DF86520002B00F0D8822D25212400E079
:102170000C46A54AA2FB0312D20802EB8200611EA4
:10218000A3EB4003C9B21AA80844303300F8243C3A
:102190001346002AECD1002D3FF483ABA31EDBB223
:1021A00019461AAA13442D2203F8242CFFF779BBF1
:1021B000964B196812A851F8043B119316F088FC4D
:1021C00011981FF017FE12982BF046F8D9E4ABF8DF
:1021D0000EA0827ABBF810109BF8170002FB0012C9
:1021E00012B20021ABF810200491FEF71ABC864B06
:1021F0005242A3FB0213DB0803EB8301A2EB410273
:1022000030328DF86520002B00F08D822D252124A1
:1022100000E00C467C4AA2FB0312D20802EB8200CB
:10222000611EA3EB4003C9B21AA80844303300F87A
:10223000243C1346002AECD13DB1A31EDBB2194663
:102240001AAA13442D2203F8242C11AB5D183FF475
:102250008DAC2229C1F121067FF47DAC86E40D21ED
:102260006B481DF061FB0A2169481DF05DFBBBF85E
:102270000A20143A12B24FF478433E210A2021F08A
:102280007DFF644B9B684FF6FF7201205A21ABF82B
:102290000E00ABF81010ABF81420ABF81220002B96
:1022A00000F0E4804FF000081C46A0459946C24665
:1022B000574F5FD2574BC8EB04041968202C28BF36
:1022C00020242246414411A82BF070F81AAB1C447C
:1022D00004F824AC4E46202E28BF202611ABB04473
:1022E000C6EB09091D461E44B5423BD0DBF81C0075
:1022F00015F8013B002849D00A2B3ED00D2BF3D016
:10230000027A9342F0D3417A9942EDD39A1A416806
:10231000D2B201EBC204A278CAB1E178B9B1797E38
:10232000002979D1B7F90E200492F87DB7F9102071
:1023300097F816C00499BBF814E00390BBF812009C
:10234000CDF808C08DE80140314821F045FC2179E5
:10235000BBF80E309BF81620B54201FB0233ABF8F8
:102360000E30C3D1B9F1000F00F08080294B9C687A
:10237000A0459FD38DF844A0ACE7A7F80EA0827AC1
:102380003B8AF97D01FB02333B82ADE70A2B34D057
:102390000D2BA9D07A7EB7F90E103AB397F816E054
:1023A000B7F90A40062212FB0E12A2424ADD3A8A0F
:1023B00097F817C0F88102EBCC0212B201463A82BC
:1023C000BBF81200BBF81440CDF80CC08DE81140EA
:1023D0000F4821F001FC9BF81630BBF80E2003EBF0
:1023E000430302EB4303ABF80E307DE7B7F910204F
:1023F00097F817C097F816E0E2E73B8AFA7DF88174
:1024000003EBC2033B826FE7CDCCCCCCC8FAFF1FF5
:1024100014FDFF1FACFDFF1F94F905100591B7F9DE
:102420000E100491059997F816C0B7F90AE00A440E
:1024300004990CFB0212724509DC9BF81700BBF9EA
:10244000102078E7B7F9102097F817C0B8E7ABF875
:102450000EA0827ABBF810109BF8170002FB001246
:1024600012B20021ABF81020049164E70D21B148AD
:102470001DF05AFA0A21AF481DF056FAAE4B1B6800
:10248000013B032B3FF671A801A252F823F000BFD5
:102490000F250000D1240000A1240000A914000091
:1024A000A64BD3ED001AA64BD3ED000AA54B93ED36
:1024B000000AA54B61EEA91A93ED001A60EEA90A75
:1024C00020EE290A17F026FB9BF86820FDF7FCBFD9
:1024D0009E4BDFED9F7AD3ED006AB2EE0A7AE6EE0C
:1024E000877A4A235E216E20FDEEE77ACDED047AED
:1024F000BDF9104022461BF08FFA882220465E2349
:102500004A211BF089FA9BF86820FDF7DDBF8F4B4D
:10251000884C93ED009AB2EE0AAAF2EE0E7AE9EE3A
:102520000A7A40F2FF734A216C20FDEEE77A1D46DD
:10253000CDED047ABDF9102021F020FEDFED847A84
:102540000095E9EE0A7A204614234A22FDEEE77A46
:10255000CDED047ABDF91060314609F04BFCF3EE85
:10256000007AE9EE4A7A5E2130462B46FDEEE77AA4
:10257000CDED047ABDF9102021F000FEB5EEC09A31
:10258000F1EE10FA4FF04A0200954FF015034CBFE0
:102590006C218A21204609F02DFC94F86820FDF773
:1025A00093BF8C2550264FF6FF789C270196CDF8D7
:1025B000088000972846314648239422E5812682E8
:1025C0001BF062FA5421CDF808800097284601914B
:1025D0005C2394221BF058FAFEF7A5B95D4BA3FBD0
:1025E0000213DB0803EB8301A2EB410230328DF8CA
:1025F0006520002B00F08E8025467BE5554BA3FB24
:102600000213DB0803EB8301A2EB410230328DF8A9
:102610006520002B6FD02546A8E54E4BA3FB021387
:10262000DB0803EB8301A2EB410230328DF8652019
:10263000002B5DD025462CE5464BA3FB0213DB089F
:1026400003EB8301A2EB410230328DF86520002BB1
:1026500054D02546EBE48C252A224FF6E0779C26C1
:102660000192029700962846114622822223E58194
:1026700094221BF009FA2E21029700962846019118
:10268000362394221BF000FAFEF71BB9314BA3FB53
:102690000213DB0803EB8301A2EB410230328DF819
:1026A000652073B3002590E42A4BA3FB0213DB08DB
:1026B00003EB8301A2EB410230328DF86520A3B118
:1026C000002550E4234BA3FB0213DB0803EB83013B
:1026D000A2EB410230328DF86520002B3FF438AA7E
:1026E000254694E520210B4629E52121FDF7DBBF96
:1026F0002121FFF7ACBA2121FFF7D3B82121FEF742
:1027000019BA2121FEF70BBC20210B46AAE4202197
:102710000B4643E42121FEF761BF20210B4640E533
:1027200020210B466CE420210B4689E520210B4635
:10273000CAE400BF14FDFF1FD41A0020FC42FF1F93
:10274000F442FF1FF042FF1FF842FF1F1C50FF1F03
:102750000000F642CDCCCCCC2DE9F04F2DED048B12
:10276000DFF8F893D14AD2499FEDD29ADFEDD28AB1
:1027700085B00024802348460A264FF4205789F864
:102780000430C9F8004023F06DF94FF4806321460E
:10279000202209F12000C9F80830C9F81440C9F80E
:1027A0001840C9F81C40C9F80C70C9F8106023F033
:1027B00001FEC0202AF048FD2146C022054623F034
:1027C000F9FDBE4BC5F8B440D96ABD4AC9F85C10E2
:1027D00005F10C03C9F844300123C5F8B430C9F839
:1027E0004830C9F85830B54BB648DB6BC5F8BC600B
:1027F000914208BFC9F85C40934208BF00232F6094
:102800006860C9F82050C9F84050AC4DC9F84C4038
:10281000AA48C9F86030AC4CAC4BEC634FF0020AEC
:102820000025AB49C9F86430AA4BC9F89430C1629D
:10283000C9F850609D4AA84989F86A50032689F86A
:102840008C5089F8985089F89A50C9F86CA0A34820
:10285000C9F8546023F006F9944A9F49A048A14C56
:1028600023F000F9914A9C499F4823F0FBF88F4AD6
:1028700099499E4823F0F6F88C4A97499C4823F0E2
:10288000F1F88A4A94499B4823F0ECF8874A924928
:10289000994823F0E7F8854A8F49984823F0E2F8F1
:1028A000824A8D49964823F0DDF8804A8A49954846
:1028B00023F0D8F87D4A8849934823F0D3F87B4A1F
:1028C0008549924823F0CEF8784A8349904823F00E
:1028D000C9F8764A80498F4823F0C4F8734A7E4984
:1028E0008D4823F0BFF8714A7B498C4823F0BAF831
:1028F0006E4A79498A4823F0B5F86C4A7649894886
:1029000023F0B0F8884A5146A2F1180009F072FE8F
:10291000704A8648C9F86C5102F1180329462A46C4
:1029200003F10C07A3F11806C9F84C31C9F870512E
:1029300009F060FE2A4629467D4889F88C51C9F87D
:102940009051C9F8747109F055FEB9F9CC21794B51
:102950007948C9F8C05102F1010C134406F130085E
:102960002A46294640F6CC46A9F8CCC189F8C4517C
:10297000C9F89C81C9F8B431C9F8B861C9F8BC611B
:1029800009F038FE6D4AB9F8F031C9F8E851013361
:1029900007F11806A2F12800042106F10C08A9F895
:1029A000F031C9F8EC31C9F8D0614FF4803609F044
:1029B00021FE6348C9F80C62C9F81062C9F81462B4
:1029C000C9F81862C9F8F4811FF0E6FD2A462946C5
:1029D0005C4809F00FFE2A4629465B48C9F8647234
:1029E00089F87C52C9F8805209F004FE574AC9F8A8
:1029F0008C72A2F11800012189F8A452C9F8A852DA
:102A000009F0F8FD4FF03A0EA9F8DEE24FF00E0E95
:102A10004F4AA9F8E0E207F130034FF0C10E4FF042
:102A20001C0BC9F8B432A9F8E2E24FF0005340F2AF
:102A3000776EA2F118000121A9F8DC52C9F8E4323E
:102A4000A9F8E8E2A9F8EAB289F8D05209F0D2FD73
:102A50004FF03A0EA9F816E34FF00E0E3D4AA9F8D2
:102A600018E34FF0C10E07F130014FF00053A9F801
:102A70001AE340F2776EC9F8EC12A2F118000121B6
:102A8000A9F81453C9F81C33A9F820E3A9F822B314
:102A900089F8085309F0AEFD4FF03A0EA9F84EE35D
:102AA0004FF00E0E2C4AA9F850E359E04C3EFF1FA0
:102AB00009370200390F8C3B08132F3D0002FF1F1E
:102AC00045F5010000D802203D2E02000320003809
:102AD000F52D0200C4F30200CDAC0100DC50FF1F55
:102AE000E450FF1F1072FF1FEC50FF1FF450FF1F38
:102AF000FC50FF1F0451FF1F0C51FF1F1451FF1FFB
:102B00001C51FF1F2451FF1F2C51FF1F3451FF1F69
:102B10003C51FF1F4451FF1F4C51FF1F5451FF1FD9
:102B20005C51FF1F6451FF1F8451FF1F9451FF1F11
:102B3000BC51FF1FF541ED5EF051FF1F3C52FF1FDE
:102B40004C52FF1F8452FF1FAC52FF1FEC52FF1F5D
:102B50002453FF1F5C53FF1F9453FF1F2050FF1F80
:102B60004FF0C10E07F130014FF00053A9F852E3C6
:102B700040F2776EC9F82413A2F118000121A9F8D8
:102B80004C53C9F85433A9F858E3A9F85AB389F853
:102B9000405309F02FFD4FF03A0EA9F886E34FF0AD
:102BA0000E0EEE4AA9F888E34FF0C10E07F130018E
:102BB0004FF00053A9F88AE340F2776EC9F85C132E
:102BC000A2F118000121A9F88453C9F88C33A9F89F
:102BD00090E3A9F892B389F8785309F00BFD4FF010
:102BE0003A0EA9F8BEE34FF00E0EDD4AA9F8C0E395
:102BF0004FF0C10E07F130014FF00053A9F8C2E3C6
:102C000040F2776EC9F89413A2F118000121A9F8D7
:102C1000BC53C9F8C433A9F8C8E3A9F8CAB389F802
:102C2000B05309F0E7FC4FF03A0EA9F8F6E34FF085
:102C30000E0ECC4AA9F8F8E34FF0C10E4FF0005346
:102C400007F13001A9F8FAE340F2776EC9F8FC33D6
:102C5000A9F800E4C9F8CC13A2F128000421A9F8CE
:102C6000F453A9F802B489F8E85309F0C3FCBE4A4A
:102C7000C9F81C64A2F128000421C9F82064C9F82D
:102C80002464C9F82864C9F8048409F0B3FCB74A7D
:102C9000C9F85464A2F128000421C9F85864C9F89D
:102CA0005C64C9F86064C9F83C8409F0A3FCB04ACC
:102CB000C9F88C64A2F128000421C9F89064C9F80D
:102CC0009464C9F89864C9F8748409F093FCA94A1B
:102CD000C9F8C464A2F128000421C9F8C864C9F87D
:102CE000CC64C9F8D064C9F8AC8409F083FCA24A6A
:102CF000C9F8FC64A2F128000421C9F80065C9F8EC
:102D00000465C9F80865C9F8E48409F073FC9B4AB6
:102D1000C9F83465A2F128000421C9F83865C9F85A
:102D20003C65C9F84065C9F81C8509F063FC944A04
:102D3000C9F86C65A2F128000421C9F87065C9F8CA
:102D40007465C9F87865C9F8548509F053FC8D4A53
:102D5000C9F8A465A2F128000421C9F8A865C9F83A
:102D6000AC65C9F8B065C9F88C8509F043FC864AA2
:102D7000C9F8DC65A2F128000421C9F8E065C9F8AA
:102D8000E465C9F8E865C9F8C48509F033FC7F4AF1
:102D9000C9F81466A2F128000421C9F81866C9F818
:102DA0001C66C9F82066C9F8FC8509F023FC784A3E
:102DB000C9F84C66A2F128000421C9F85066C9F888
:102DC0005466C9F85866C9F8348609F013FC71488E
:102DD000C9F88466C9F88866C9F88C66C9F890662F
:102DE000C9F86C861FF0D8FB2A4629466A4809F0C4
:102DF00001FC2A4629466948C9F8DC7689F8F45668
:102E0000C9F8F85609F0F6FB2A4629466448C9F87D
:102E1000047789F81C57C9F8205709F0EBFB2A46BC
:102E200029466048C9F82C7789F84457C9F84857AB
:102E300009F0E0FB2A4629465B48C9F8547789F82F
:102E40006C57C9F8705709F0D5FB2A4629465748F0
:102E5000C9F87C7789F89457C9F8985709F0CAFBE4
:102E60002A4629465248C9F8A47789F8BC57C9F8B8
:102E7000C05709F0BFFB4F48C9F8CC7789F8E45731
:102E8000C9F8E8571FF088FB2A4629464A4809F046
:102E9000B1FB2A4629464948C9F82C7889F8445894
:102EA000C9F8485809F0A6FB2A4629464448C9F8FB
:102EB000547889F86C58C9F8705809F09BFB2A4679
:102EC00029464048C9F87C7889F89458C9F8985838
:102ED00009F090FB2A4629463B48C9F8A47889F8AE
:102EE000BC58C9F8C05809F085FB2A46294637481E
:102EF000C9F8CC7889F8E458C9F8E85809F07AFBA1
:102F0000334AC9F8F478A2F12800042189F80C5951
:102F1000C9F8105909F06EFB2E4AC9F83469A2F1BC
:102F200028000421C9F83869C9F83C69C9F8406922
:102F3000C9F81C8909F05EFB274AC9F86C69A2F13F
:102F400028000421C9F87069C9F87469C9F878695A
:102F5000C9F8548909F04EFB40E000BFCC53FF1F75
:102F60000454FF1F4C54FF1F8454FF1FBC54FF1F09
:102F7000F454FF1F2C55FF1F6455FF1F9C55FF1F66
:102F8000D455FF1F0C56FF1F4456FF1F7C56FF1FD2
:102F9000B456FF1FC456FF1FFC56FF1F2457FF1FC8
:102FA0004C57FF1F7457FF1F9C57FF1FC457FF1F2D
:102FB000EC57FF1F1458FF1F4C58FF1F7458FF1F7A
:102FC0009C58FF1FC458FF1FEC58FF1F1459FF1FC8
:102FD0006459FF1F9C59FF1FD459FF1FF44AC9F8B9
:102FE000A469A2F128000421C9F8A869C9F8AC694C
:102FF000C9F8B069C9F88C8909F0FCFAED4AC9F83A
:10300000DC69A2F128000421C9F8E069C9F8E46983
:10301000C9F8E869C9F8C48909F0ECFAE64AC9F8C0
:10302000146AA2F128000421C9F8186AC9F81C6AB8
:10303000C9F8206AC9F8FC8909F0DCFADF4AC9F846
:103040004C6AA2F128000421C9F8506AC9F8546AF0
:10305000C9F8586AC9F8348A09F0CCFAD84AC9F8CC
:10306000846AA2F128000421C9F8886AC9F88C6A28
:10307000C9F8906AC9F86C8A09F0BCFAD14AC9F853
:10308000BC6AA2F128000421C9F8C06AC9F8C46A60
:10309000C9F8C86AC9F8A48A09F0ACFACA4AC9F8DA
:1030A000F46AA2F128000421C9F8F86AC9F8FC6A98
:1030B000C9F8006BC9F8DC8A09F09CFAC34AC9F860
:1030C0002C6BA2F128000421C9F8306BC9F8346BCD
:1030D000C9F8386BC9F8148B09F08CFABC4AC9F8E6
:1030E000646BA2F128000421C9F8686BC9F86C6B05
:1030F000C9F8706BC9F84C8B09F07CFAB54AC9F86D
:103100009C6BA2F128000421C9F8A06BC9F8A46B3C
:10311000C9F8A86BC9F8848B09F06CFAAE48C9F8F5
:10312000D46BC9F8D86BC9F8DC6BC9F8E06BC9F887
:10313000BC8B1FF04BFAA9481FF048FAA8481FF0B3
:1031400045FAA8481FF042FAA7481FF03FFAA748DF
:103150001FF03CFAA6481FF039FAA6481FF036FACD
:10316000A5481FF033FAA5481FF030FA04F15C00BF
:103170001FF02CFA04F526701FF028FA514604F5CA
:103180009E6204F2D44009F035FA3C37514604F20D
:10319000145204F59F60A4F8EC54C4F8D47409F0F8
:1031A00029FA514604F5A76204F21C50C4F8F874D9
:1031B000A4F8105509F01EFA514604F25C5204F5C9
:1031C000A860C4F81C75A4F8345509F013FA5146E8
:1031D00004F5B06204F26450C4F84075A4F8585580
:1031E00009F008FA514604F2A45204F5B160C4F89B
:1031F0006475A4F87C5509F0FDF904F2D452042159
:1032000004F2AC50C4F88875A4F8A05509F0F2F99E
:1032100004F20C62042104F2E450C4F8C465C4F85A
:10322000C865C4F8CC65C4F8D065C4F8AC8509F0AD
:10323000E1F904F24462042104F21C60C4F8FC6564
:10324000C4F80066C4F80466C4F80866C4F8E485E7
:1032500009F0D0F904F27C62042104F25460C4F84D
:103260003466C4F83866C4F83C66C4F84066C4F8EE
:103270001C8609F0BFF904F2B462042104F28C60E8
:10328000C4F86C66C4F87066C4F87466C4F87866EE
:10329000C4F8548609F0AEF904F2EC62042104F299
:1032A000C460C4F8A466C4F8A866C4F8AC66C4F8E0
:1032B000B066C4F88C8609F09DF904F224720421EA
:1032C00004F2FC60C4F8DC66C4F8E066C4F8E466A6
:1032D000C4F8E866C4F8C48609F08CF904F25C729C
:1032E000042104F23470C4F81467C4F81867C4F8F1
:1032F0001C67C4F82067C4F8FC8609F07BF904F267
:103300009472042104F26C70C4F84C67C4F85067DE
:10331000C4F85467C4F85867C4F8348709F06AF9E8
:1033200004F2CC72042104F2A470C4F88467C4F8D7
:103330008867C4F88C67C4F89067C4F86C8709F094
:1033400059F904F60402042104F2DC70C4F8BC67E5
:10335000C4F8C067C4F8C467C4F8C867C4F8A487D1
:1033600009F048F904F63C02042104F61400C4F8FC
:10337000F467C4F8F867C4F8FC67C4F80068C4F8D8
:10338000DC8709F037F9514604F5086204F64C0071
:10339000C4F82C68C4F83068C4F83468C4F83868D5
:1033A000C4F8148809F026F908F1240328E000BFC6
:1033B0000C5AFF1F445AFF1F7C5AFF1FB45AFF1FAD
:1033C000EC5AFF1F245BFF1F5C5BFF1F945BFF1F1A
:1033D000CC5BFF1F045CFF1F145CFF1F505EFF1FD0
:1033E0008C60FF1FC862FF1F0465FF1F4067FF1F3F
:1033F0007C69FF1FB86BFF1FF46DFF1F3070FF1F4C
:10340000C4F84C38F84BC4F86438A3F57C53183B27
:103410004FF48057C4F86838F44BC4F86C785146C0
:1034200004F6BC02C4F8703804F68800C4F8745876
:10343000C4F87858C4F87C5809F0DCF808F1240383
:10344000C4F88838E84BC4F8A038A3F57C53183B7F
:10345000C4F8A438E54BC4F8A878514604F6F8023D
:10346000C4F8AC3804F6C400C4F8B058C4F8B45872
:10347000C4F8B85809F0BEF808F12403C4F8C438F9
:10348000D94BC4F8DC38A3F57C53183BC4F8E038BA
:10349000D64BC4F8E478514604F63412C4F8E83840
:1034A00004F51060C4F8EC58C4F8F058C4F8F458A7
:1034B00009F0A0F808F12403C4F80039CA4BC4F895
:1034C0001839A3F57C53183BC4F81C39C74BC4F812
:1034D0002079514604F51762C4F8243904F63C10EB
:1034E000C4F82859C4F82C59C4F8305909F082F8A6
:1034F00008F12403C4F83C39BB4BC4F85439A3F594
:103500007C53183BC4F85839B84BC4F85C79514621
:1035100004F6AC12C4F8603904F67810C4F86459A3
:10352000C4F86859C4F86C5909F064F808F1240328
:10353000C4F87839AC4BC4F89039A3F57C53183BE8
:10354000C4F89439A94BC4F89C3904F6DC12042160
:10355000C4F8987904F6B410C4F8A059C4F8A45972
:10356000C4F8A85909F046F804F61422042104F618
:10357000EC10C4F8CC69C4F8D069C4F8D469C4F8B4
:10358000D869C4F8B48909F035F804F64C2204214E
:1035900004F62420C4F8046AC4F8086AC4F80C6A63
:1035A000C4F8106AC4F8EC8909F024F804F68422FF
:1035B000042104F65C20C4F83C6AC4F8406AC4F8EC
:1035C000446AC4F8486AC4F8248A09F013F804F677
:1035D000BC22042104F69420C4F8746AC4F8786A02
:1035E000C4F87C6AC4F8806AC4F85C8A09F002F8FE
:1035F00004F6F422042104F6CC20C4F8AC6AC4F822
:10360000B06AC4F8B46AC4F8B86AC4F8948A08F016
:10361000F1FF04F61C32012104F60430C4F8E46A18
:10362000C4F8E86AC4F8EC6AC4F8F06AC4F8CC8A52
:1036300008F0E0FF40F2776EA4F838EB4FF0C10ECF
:10364000A4F832EB4FF00E0E4FF00053A4F830EB1D
:103650004FF03A0E04F654320121A4F83ABBC4F8F4
:10366000343BA4F82EEB08F10C03A4F82C5B04F611
:103670003C30C4F8043B84F8205B08F0BBFF4FF0FB
:103680003A0EA4F866EB4FF00E0E08F10C03A4F806
:1036900068EB4FF0C10EC4F83C3BA4F86AEB4FF066
:1036A000005340F2776E04F68C320121A4F8645B7B
:1036B000C4F86C3BA4F870EBA4F872BB04F6743049
:1036C00084F8585B08F096FF4FF03A0EA4F89EEB92
:1036D0004FF00E0E08F10C03A4F8A0EB4FF0C10E52
:1036E000C4F8743BA4F8A2EB4FF0005340F2776E9D
:1036F00004F6C4320121A4F89C5BC4F8A43BA4F8EE
:10370000A8EBA4F8AABB04F6AC3084F8905B08F0F0
:1037100071FF4FF03A0EA4F8D6EB4FF00E0E08F101
:103720000C03A4F8D8EB4FF0C10EC4F8AC3BA4F8DE
:10373000DAEB4FF0005340F2776E04F6FC320121D1
:10374000A4F8D45BC4F8DC3BA4F8E0EBA4F8E2BB3B
:1037500004F6E43084F8C85B08F04CFF4FF03A0EF2
:10376000A4F80EEC4FF00E0E08F10C03A4F810ECC8
:103770004FF0C10EC4F8E43BA4F812EC4FF0005334
:1037800040F2776E04F634420121A4F80C5CC4F8D0
:10379000143CA4F818ECA4F81ABC04F61C4084F8F5
:1037A000005C08F027FF4FF03A0EA4F846EC4FF00B
:1037B0000E0E08F10C03A4F848EC4FF0C10EC4F84B
:1037C0001C3CA4F84AEC4FF0005340F2776EA4F88A
:1037D00050ECC4F84C3C04F67C420421A4F8445C50
:1037E000A4F852BC04E000BF00B28E0480F9855AF0
:1037F00004F6544084F8385C08F0FCFE04F6B44249
:10380000042104F68C40C4F86C6CC4F8706CC4F8E5
:10381000746CC4F8786CC4F8548C08F0EBFE04F6B1
:10382000EC42042104F6C440C4F8A46CC4F8A86CAB
:10383000C4F8AC6CC4F8B06CC4F88C8C08F0DAFE38
:10384000514604F55362C4F8DC6CC4F8E06CC4F86B
:10385000E46CC4F8E86C04F6FC4008F12406C4F8F3
:10386000C48C08F0C7FEC4F8FC6C674EC4F8146D35
:10387000A6F57C56183EC4F8186D644EC4F81C7D3D
:1038800004F555620121C4F8206D04F6385042F267
:10389000F406C4F8245DC4F8285DC4F82C5DC8277C
:1038A00008F0A8FE08F130032946C4F8383DA751B6
:1038B0004FF4006204F6545022F07CFD294640F695
:1038C0007C32534822F076FD42F2D4024FF400736A
:1038D000A35242F2D60242F2DA0CA3524FF0F502A2
:1038E00024F80C2042F2D80242F2D201A55242F250
:1038F000DE0242F2DC0EA55242F2E0026352A55211
:1039000042F2E2024FF4F573A55242F2E40242F2AF
:10391000D007A55242F2E80242F2E606A55242F270
:10392000EC0042F2EE0124F80E3042F2EA0242F2DA
:10393000F0034FF0000A4FF0000BE553A553A552DA
:1039400025526552E552019556465F46314D2CE0B1
:103950003046394622F092F827F03EFC019B25F8CC
:10396000020F01339BB240F2BE511AB28B42019258
:1039700058D007EE902AB8EEE78A68EE097A17EE7B
:10398000900A22F0D9F941EC100B27F04DFC68EEBB
:10399000287A57EC106B17EE900A22F0CDF941EC23
:1039A000100B27F041FC5BEC10AB3046394600228F
:1039B000194B22F065FA0022184B22F061FA00221E
:1039C00006460F46144B5046594622F059FA00223B
:1039D000134B22F07FFB02460B463046394622F05D
:1039E0004DF80022002306460F4627F0CBFB0022AD
:1039F0000A4B0028ACD10022084B3046394622F051
:103A00003BF827F0E9FBA9E700B28E0480F9855A5C
:103A10006487FF1F6287FF1F00805B400000E03F5C
:103A200000000840C74D42F2F20340F2BE56E65293
:103A3000A5F1D0020421A5F1F80008F0DBFD4FF458
:103A40008034A5F198020421A5F1C00045F8F88C56
:103A500045F8E04C45F8DC4C45F8D84C45F8D44CDA
:103A600008F0C8FDA5F170020221A5F1880045F813
:103A7000C08C45F8A84C45F8A44C45F8A04C45F836
:103A80009C4C08F0B7FDB04BB04845F8883C01218C
:103A900015F0CAFAAE4BAF491A68AF4842F400427B
:103AA0001A600A6842F002020A601A6842F00202D2
:103AB0001A60026800239A4245F8683C45F8643C65
:103AC00040DBA64B1B68002B3CDBA54A4FF0804334
:103AD00013601368002BFCDBA24CA348DFF800E363
:103AE000A249A34BA34AA44EA44F41F2540CC4F8DC
:103AF00000C0002404600120CEF80000DFF8E4E2FA
:103B0000C1F800E04FF4803119609D4B13609D4A6D
:103B100032603C609C4C3067DFF8CCE200F18E40B4
:103B2000206004F5DF34CEF8001004F5C074974827
:103B3000974947F8503C4FF4C063C6F88020236093
:103B400003600B60934AD9F8E430934993484FF4EB
:103B5000C0641460022219609A8099F8E810186114
:103B600001F1804101F5043140F20110A4F5006437
:103B7000D880DC609A604FF4807000228D24062685
:103B8000D8829A82D8839A619E8385480A700C7085
:103B900099F8E840704B15F8601C04704FF0807481
:103BA00080481C601860674B39B97F487F49012203
:103BB000D024047003F8602C0A6099F8E810DFF84C
:103BC0002CA205F85F2C4B119B0003F160430126EA
:103BD00001F1100003F5614301F01F027449754CB7
:103BE00041F8204006FA02F24FF0000B1A607248CA
:103BF00045F85CAC0AF5167345F8583C05F854BC1A
:103C000005F853BC45F850BC05F84CBC18F0AEF9AB
:103C10006A4A6B496848DFF8D89121F023FF0AF51A
:103C20000873684845F8443C45F848AC05F840BC82
:103C300005F83FBC45F83CBC05F838BC18F096F9CF
:103C40005E4A5F495F4821F00DFF0AF5D8735E4870
:103C500045F8303C45F834AC05F82CBC05F82BBCD5
:103C600045F828BC05F824BC18F080F9534A54499B
:103C7000554821F0F7FE0AF5F473544845F81C3C0A
:103C800045F820AC05F818BC05F817BC45F814BC7D
:103C900005F810BC18F06AF9484A49494B4821F028
:103CA000E1FE0AF1B8034A4845F80C3C0AF52473D2
:103CB00045F8083C05F804BC05F803BCC5F800B09D
:103CC00085F804B018F052F93C4A3D49404821F0CB
:103CD000C9FE0AF1B8033F48AB600AF53273EB60E6
:103CE00085F810B085F811B0C5F814B085F818B093
:103CF00018F03CF9314A3249364821F0B3FE0AF156
:103D0000B8033548EB610AF55C732B6285F824B083
:103D100085F825B0C5F828B085F82CB018F026F93C
:103D2000264A27492C4821F09DFE0AF1B8032B486A
:103D30002B630AF56A736B6385F838B085F839B080
:103D400058E000BF0094FF1F48F402000451FF1F19
:103D50003C8004404080044000F0024080F002407B
:103D600000F1024004F1024060F0024008F002401D
:103D70000CF0024010F0024014F00240E0F002406B
:103D80001B1F0100001F1F1F88F002400CB00440E1
:103D900018B0044004B00440E003FF1F22F00240CA
:103DA0001B8000400100009040E400E008E100E0DA
:103DB0000002FF1F4DAA0100A493FF1F4C3EFF1FEE
:103DC000C9B10000B893FF1FCC93FF1FE093FF1F02
:103DD000F493FF1F0894FF1F1C94FF1F3094FF1FD4
:103DE00004F00240010000078CF002409451FF1FD4
:103DF000987AFF1FC5F83CB085F840B018F0B6F8C7
:103E0000D54AD649D64821F02DFE0AF1B803D54847
:103E10006B640AF57873AB6485F84CB085F84DB0E7
:103E2000C5F850B085F854B018F0A0F8CA4ACB498C
:103E3000CC4821F017FE0AF1B803CB48AB650AF570
:103E400083630AF54E74EB6585F860B085F861B060
:103E5000C5F864B085F868B018F088F8BE4ABF4964
:103E6000C14821F0FFFDA4F52073C048EB662C6724
:103E700085F874B085F875B0C5F878B085F87CB071
:103E800018F074F8B44AB549B84821F0EBFDA4F530
:103E90002073B748C5F88030A4F13803C5F88430E2
:103EA00085F888B085F889B0C5F88CB085F890B0F1
:103EB00018F05CF8A84AA949AD4821F0D3FDA4F157
:103EC000A803AC48C5F89830A4F51273C5F894302F
:103ED00085F89CB085F89D60C5F8A0B085F8A4B0C1
:103EE00018F044F89C4A9D49A24821F0BBFDA4F576
:103EF0001273A148C5F8A83004F13803C5F8AC30F6
:103F000085F8B0B085F8B160C5F8B4B085F8B8B040
:103F100018F02CF8904A9149974821F0A3FDA4F598
:103F200012739648C5F8BC3004F1A803C5F8C03038
:103F300085F8C4B085F8C560C5F8C8B085F8CCB0C0
:103F400018F014F8844A85498C4821F08BFDA4F5BB
:103F500012738B48C5F8D030C5F8D44085F8D8B076
:103F600085F8D960C5F8DCB085F8E0B017F0FEFF41
:103F7000794A7A49824821F075FDA4F1700381489D
:103F8000C5F8E830A4F50873C5F8E43085F8ECB05E
:103F900085F8ED60C5F8F0B085F8F4B017F0E6FFED
:103FA0006D4A6E49774821F05DFDA4F508737648A7
:103FB000C5F8F83004F17003C5F8FC3085F800B19D
:103FC00085F80161C5F804B185F808B117F0CEFF96
:103FD000614A62496C4821F045FDA4F508736B48BD
:103FE000C5F80C3104F1E003C5F8103185F814B1BF
:103FF00085F81561C5F818B185F81CB117F0B6FF42
:10400000554A5649614821F02DFDA4F508736048D2
:10401000C5F82031A4F13803C5F8243185F828B15A
:1040200085F82961C5F82CB185F830B117F09EFFED
:104030004A49494A564821F015FD0AF5F5630AF543
:10404000A6625448C5F83831C5F8342185F83CB12A
:1040500085F83D61C5F840B185F844B117F086FF99
:104060003E493D4A4B4821F0FDFC04F58E630AF5BC
:10407000CB624948C5F84C31C5F8482185F850B1A4
:1040800085F851B1C5F854B185F858B117F06EFFF5
:10409000314A3249404821F0E5FC04F552733F486B
:1040A000C5F85C31A9F5C673C5F8603185F864B10F
:1040B00085F86561C5F868B185F86CB117F056FFF1
:1040C000254A2649354821F0CDFC04F55273344881
:1040D000C5F87031A9F5AA73C5F8743185F878B1BF
:1040E00085F87961C5F87CB185F880B117F03EFF9D
:1040F000194A1A492A4821F0B5FC04F55273294897
:10410000C5F88431A9F58E73C5F8883185F88CB16E
:1041100085F88D61C5F890B185F894B117F026FF48
:104120000D4A0E491F4821F09DFC04F552731E48AC
:10413000C5F89831A9F1E403C5F89C3185F8A0B120
:1041400085F8A161C5F8A4B185F8A8B117F00EFFF4
:104150000249014A2AE000BF4C3EFF1FC9B10000DE
:104160003094FF1F4494FF1F5894FF1F6C94FF1F4F
:104170008094FF1F9494FF1FA894FF1FBC94FF1FFF
:10418000D094FF1FE494FF1FF894FF1F0C95FF1FAE
:104190002095FF1F3495FF1F4895FF1F5C95FF1F5B
:1041A0007095FF1F8495FF1F9895FF1FD8484FF00B
:1041B000020821F057FCA9F5C6730AF5D762D54865
:1041C000C5F8B031C5F8AC2185F8B58185F8B4B132
:1041D000C5F8B8B185F8BCB117F0C8FECE49CF4AD2
:1041E000CC4821F03FFCA9F5AA730AF5DC62CC4863
:1041F000C5F8C43185F8C981C5F8C02185F8C8B1B2
:10420000C5F8CCB185F8D0B117F0B0FEC249C34AA9
:10421000C34821F027FCA9F58E730AF5E162C14875
:10422000C5F8D83185F8DD81C5F8D42185F8DCB131
:10423000C5F8E0B185F8E4B117F098FEB649B74A81
:10424000B84821F00FFCA9F1E4030AF5E662B6488C
:10425000C5F8EC3185F8F181C5F8E82185F8F0B1B1
:10426000C5F8F4B185F8F8B117F080FEAB4AAA4959
:10427000AD4821F0F7FBA9F53773AC48C5F800321B
:10428000A4F52E73C5F8FC3185F8058285F804B2D3
:10429000C5F808B285F80CB217F068FE9F4A9E492F
:1042A000A24821F0DFFBA4F52E73A148C5F8103217
:1042B000A9F52973C5F8143285F8198285F818B262
:1042C000C5F81CB285F820B217F050FE934A924907
:1042D000974821F0C7FBA4F52E739648C5F8243201
:1042E000A9F51B73C5F8283285F82D8285F82CB204
:1042F000C5F830B285F834B217F038FE874A8649DF
:104300008C4821F0AFFBA4F52E738B48C5F83832EA
:10431000A9F50D73C5F83C3285F8418285F840B2A5
:10432000C5F844B285F848B217F020FE7B4A7A49B6
:10433000814821F097FBA4F1A8038048C5F84C32CE
:1043400004F68413C5F8503285F854B285F85562E6
:10435000C5F858B285F85CB217F008FE6F4A6E498E
:10436000764821F07FFBA4F170037548C5F86032F0
:1043700004F5E963C5F8643285F868B285F86962C6
:10438000C5F86CB285F870B217F0F0FD634A624967
:104390006B4821F067FB04F1E0036A48C5F874320A
:1043A000694BC5F8783285F87CB285F87D62C5F82E
:1043B00080B285F884B217F0D9FD584A5649614851
:1043C00021F050FB04F58E636048C5F8883204F58F
:1043D0009563C5F88C3285F890B285F891B2C5F82E
:1043E00094B285F898B217F0C1FD4C4A4A49574833
:1043F00021F038FB04F58E635548C5F89C3204F56E
:104400009C63C5F8A03285F8A4B285F8A5B2C5F8BA
:10441000A8B285F8ACB217F0A9FD404A3E494C4815
:1044200021F020FB04F58E634A48C5F8B03204F54C
:10443000A363C5F8B43285F8B8B285F8B9B2C5F847
:10444000BCB285F8C0B217F091FD344A32494148F8
:1044500021F008FB04F58E633F48C5F8C43204F52B
:10446000AA63C5F8C83285F8CCB285F8CDB2C5F8D4
:10447000D0B285F8D4B217F079FD284A26493648DB
:1044800021F0F0FA04F58E633448C5F8D83204F50B
:10449000B163C5F8DC3285F8E0B285F8E1B2C5F861
:1044A000E4B285F8E8B217F061FD1C4A1A492B48BE
:1044B00021F0D8FA04F58E632948C5F8EC3204F5EA
:1044C000B863C5F8F03285F8F4B285F8F5B2C5F8EE
:1044D000F8B285F8FCB217F049FD104A0E492048A1
:1044E00021F0C0FA04F58E631E48C5F8003304F5C8
:1044F000BF63C5F8043385F808B385F809B3C5F878
:104500000CB385F810B317F031FD044A02492BE0D3
:104510009895FF1FAC95FF1FC9B100004C3EFF1FCF
:10452000C095FF1FD495FF1FE895FF1FFC95FF1F47
:104530001096FF1F2496FF1F3896FF1F4C96FF1FF3
:104540006096FF1F7496FF1FB86BFF1F8896FF1FB2
:104550009C96FF1FB096FF1FC496FF1FD896FF1FA3
:10456000EC96FF1F0097FF1FD24821F07BFA04F55D
:104570008E63D148C5F8143304F5C663C5F8183303
:1045800085F81CB385F81DB3C5F820B385F824B3AE
:1045900017F0ECFCC94ACA49C74821F063FAA4F1F4
:1045A0003803C848C5F82833C74BC5F82C3385F8FD
:1045B00030B385F83163C5F834B385F838B317F0F4
:1045C000D5FCBE4ABE49BF4821F04CFABF4BC0489B
:1045D000C5F84033C5F83C4385F844B385F84563D6
:1045E000C5F848B385F84CB317F0C0FCB34AB449DA
:1045F000B74821F037FA04F13803B648C5F850330C
:10460000B54BC5F8543385F858B385F85963C5F8E8
:104610005CB385F860B317F0A9FCA84AA849AD4877
:1046200021F020FA04F17003AC48C5F86433AC4BB8
:10463000C5F8683385F86CB385F86D63C5F870B359
:1046400085F874B317F092FC9C4A9D49A34821F069
:1046500009FA04F1A803A348C5F87833A24BC5F8BA
:104660007C3385F880B385F88163C5F884B385F819
:1046700088B317F07BFC914A91499A4821F0F2F9EE
:1046800004F5E9639948C5F88C33A9F53773C5F883
:10469000903385F894B385F89563C5F898B385F899
:1046A0009CB317F063FC854A8549904821F0DAF9FC
:1046B00004F5E9638E48C5F8A033A9F56D73C5F814
:1046C000A43385F8A8B385F8A963C5F8ACB385F819
:1046D000B0B317F04BFC794A7949854821F0C2F90B
:1046E00004F684138348C5F8B433A9F53773C5F8C5
:1046F000B83385F8BCB385F8BDB3C5F8C0B385F849
:10470000C4B317F033FC6D4A6D497A4821F0AAF919
:1047100004F684137848C5F8C833A9F56D73C5F855
:10472000CC3385F8D0B385F8D1B3C5F8D4B385F8C8
:10473000D8B317F01BFC614A61496F4821F092F928
:10474000674B6E48C5F8DC33A9F52973C5F8E0332B
:1047500085F8E4B385F8E563C5F8E8B385F8ECB30C
:1047600017F004FC554A5649644821F07BF95C4B2C
:104770006348C5F8F033A9F56473C5F8F43385F8D8
:10478000F8B385F8F963C5F8FCB385F800B417F001
:10479000EDFB4A4A4A495A4821F064F94B4B5948C3
:1047A000C5F80434A9F50D73C5F8083485F80CB4C0
:1047B00085F80DB4C5F810B485F814B417F0D6FB1D
:1047C0003E4A3F494F4821F04DF9404B4E48C5F80D
:1047D0001834A9F55B73C5F81C3485F820B485F846
:1047E00021B4C5F824B485F828B417F0BFFB334AC8
:1047F0003349454821F036F9374B4448C5F82C3445
:10480000A9F52973C5F8303485F834B485F835B482
:10481000C5F838B485F83CB417F0A8FB274A2849F6
:104820003A4821F01FF92C4B3948C5F84034A9F516
:104830006473C5F8443485F848B485F849B4C5F8BC
:104840004CB485F850B417F091FB1C4A1C49304811
:1048500021F008F91C4B2F48C5F85434A9F50D7305
:10486000C5F8583485F85CB485F85D64C5F860B463
:1048700085F864B417F07AFB104A1149254821F0F5
:10488000F1F8114B2448C5F86834A9F55B73C5F8F5
:104890006C3485F870B485F87164C5F874B485F823
:1048A00078B417F063FB054A05491B4821F0DAF894
:1048B00034E000BF0097FF1F1497FF1F4C3EFF1FFF
:1048C000C9B100002897FF1F4067FF1FC862FF1F84
:1048D0003C97FF1F5097FF1F0465FF1F6497FF1F42
:1048E0008C60FF1F7897FF1F7C69FF1F8C97FF1F4D
:1048F000A097FF1FB497FF1FC897FF1FDC97FF1FEC
:10490000F097FF1F0498FF1F1898FF1F2C98FF1F98
:104910004098FF1F5498FF1F6898FF1FE34BE4481F
:10492000C5F87C34A9F55273C5F8803485F884B491
:1049300085F885B4C5F888B485F88CB417F016FBF3
:10494000DC4ADD49DA4821F08DF8D84BDB48C5F860
:104950009034A9F51B73C5F8943485F898B485F89C
:1049600099B4C5F89CB485F8A0B417F0FFFAD14A01
:10497000D149D24821F076F8A9F55273D048C5F84C
:10498000A834D04BC5F8A43485F8ACB485F8AD6430
:10499000C5F8B0B485F8B4B417F0E8FAC54AC6490A
:1049A000C74821F05FF8A9F51B73C748C5F8BC34A8
:1049B000C44BC5F8B83485F8C0B485F8C164C5F8EF
:1049C000C4B485F8C8B417F0D1FABA4ABA49BE4897
:1049D00021F048F8A4F5C473BC48C5F8CC34A9F15B
:1049E000E403C5F8D03485F8D4B485F8D5B4C5F857
:1049F000D8B485F8DCB417F0B9FAAE4AAE49B3487A
:104A000021F030F8A4F5C473B148C5F8E034C5F816
:104A1000E44485F8E98485F8E8B4C5F8ECB485F891
:104A2000F0B417F0A3FAAA48A24AA349A0F5B467C4
:104A300021F018F8A4F1380307F2B450C5F8F8349F
:104A4000A4F5C473C5F8F43485F8FD8485F8FCB486
:104A5000C5F800B585F804B517F088FA954A964967
:104A600007F2B45020F0FEFFA4F5A87307F5B96073
:104A7000C5F80835A9F5C673C5F80C3585F810B525
:104A800085F811B5C5F814B585F818B517F06EFAA4
:104A9000884A894907F5B96020F0E4FFA4F1A8032A
:104AA00007F2DC50C5F82035A4F5A873C5F81C350D
:104AB00085F8258585F824B5C5F828B585F82CB581
:104AC00017F054FA7B4A7C4907F2DC5020F0CAFF09
:104AD000A4F1700307F5BE60C5F83435A4F5A873DA
:104AE000C5F8303585F8398585F838B5C5F83CB551
:104AF00085F840B517F03AFA6E4A6F4907F5BE607F
:104B000020F0B0FFA4F58C7307F20460C5F84435BB
:104B1000A9F58E73C5F8483585F84CB585F84DB5BF
:104B2000C5F850B585F854B517F020FA614A6249C6
:104B300007F2046020F096FF04F1A80307F5C360B4
:104B4000C5F85C35A4F58C73C5F8583585F86185D2
:104B500085F860B5C5F864B585F868B517F006FA4C
:104B6000544A554907F5C36020F07CFF04F1E00387
:104B700007F22C60C5F87035A4F58C73C5F86C3558
:104B800085F8758585F874B5C5F878B585F87CB570
:104B900017F0ECF9474A484907F22C6020F062FF11
:104BA000A4F1E00307F5C860C5F88035A9F5AA733C
:104BB000C5F8843585F888B585F889B5C5F88CB50C
:104BC00085F890B517F0D2F93A4A3B4907F5C86025
:104BD00020F048FF04F1380307F25460C5F8983517
:104BE000A4F1E003C5F8943585F89D8585F89CB55A
:104BF000C5F8A0B585F8A4B517F0B8F92D4A2E4927
:104C0000344C07F2546020F02DFF0AF56A7307F563
:104C1000CD60C5F8AC350AF51673C5F8A83585F82A
:104C2000B18585F8B0B5C5F8B4B585F8B8B517F055
:104C30009DF9204A204907F5CD6020F013FFA9F522
:104C40006D73C5F8BC35A9F5377307F27C60C5F8FC
:104C5000C0354FF0030385F8C53585F8C4B5C5F8F0
:104C6000C8B585F8CCB517F081F9124A124907F298
:104C70007C6020F0F7FEA9F56473C5F8D0354FF0DD
:104C8000030307F5D26085F8D935A9F52973C5F86E
:104C9000D43585F8D8B5C5F8DCB585F8E0B517F09A
:104CA00065F9044A044907F5D26015E07C69FF1FE5
:104CB0007C98FF1F4C3EFF1FC9B100009098FF1F5A
:104CC000A498FF1FB86BFF1FB898FF1FCC98FF1F59
:104CD000E098FF1FF8A4FF1F20F0C4FEA9F55B7346
:104CE000C5F8E4354FF0030307F2A46085F8ED350D
:104CF000A9F50D73C5F8E83585F8ECB5C5F8F0B53C
:104D000085F8F4B517F032F9EB4AEC4907F2A460E4
:104D100020F0A8FEA9F55273C5F8F8354FF003034B
:104D200007F5D76085F80136A9F51B73C5F8FC3582
:104D300085F800B6C5F804B685F808B617F016F978
:104D4000DD4ADE4907F5D76020F08CFEA9F5377300
:104D500007F2CC60C5F80C36C5F8109685F814B685
:104D600085F815B6C5F818B685F81CB617F0FEF824
:104D7000D14AD24907F2CC6020F074FEA9F529731C
:104D800007F5DC60C5F82036A9F13C03C5F82436E8
:104D900085F828B685F829B6C5F82CB685F830B65A
:104DA00017F0E4F8C44AC54907F5DC6020F05AFE64
:104DB000A9F5C67307F2F460C5F83436C5F838961D
:104DC00085F83CB685F83D66C5F840B685F844B62A
:104DD00017F0CCF8B84AB94907F2F46020F042FE67
:104DE000A9F51B7307F5E160C5F8483609F13C03E6
:104DF000C5F84C3685F850B685F851B6C5F854B6A6
:104E000085F858B617F0B2F8AB4AAC4907F5E1603F
:104E100020F028FEA9F5AA7307F21C70C5F85C36CD
:104E2000A9F13C03C5F8603685F864B685F8656677
:104E3000C5F868B685F86CB617F098F89E4A9F4991
:104E400007F21C7020F00EFEA9F58E7307F5E660E0
:104E5000C5F8703609F13C03C5F8743685F878B6A4
:104E600085F87966C5F87CB685F880B617F07EF8C7
:104E7000914A924907F5E66020F0F4FDA9F50D731B
:104E800007F24470C5F8843609F17803C5F888360E
:104E900085F88CB685F88DB6C5F890B685F894B6C9
:104EA00017F064F8844A854907F2447020F0DAFD6F
:104EB000A9F1E40307F5EB60C5F8983609F178032A
:104EC000C5F89C3685F8A0B685F8A166C5F8A4B6E5
:104ED00085F8A8B617F04AF8774A784907F5EB60E5
:104EE00020F0C0FDA9F13C0307F26C70C5F8AC36A8
:104EF00009F59673C5F8B03685F8B4B685F8B5B639
:104F0000C5F8B8B685F8BCB617F030F86A4A6B49F0
:104F100007F26C7020F0A6FDA9F13C0307F5F060E4
:104F2000C5F8C03609F59673C5F8C43685F8C86665
:104F300085F8C966C5F8CCB685F8D0B617F016F86E
:104F40005D4A5E4907F5F06020F08CFDA9F13C0355
:104F500007F29470C5F8D43609F59673C5F8D836BB
:104F600085F8DC8685F8DD86C5F8E0B685F8E4B618
:104F700016F0FCFF504A514907F2947020F072FD80
:104F800009F5CE7307F5F560C5F8EC36C5F8E89677
:104F900085F8F0B685F8F1B6C5F8F4B685F8F8B638
:104FA00016F0E4FF444A454907F5F56020F05AFD44
:104FB00009F5CE7307F2BC70C5F80037C5F8FC964A
:104FC00085F8046785F80567C5F808B785F80CB754
:104FD00016F0CCFF384A394907F2BC7020F042FD88
:104FE00009F5CE7307F5FA60C5F81437C5F81097C0
:104FF00085F8188785F81987C5F81CB785F820B794
:1050000016F0B4FF2C4A2D4907F5FA6020F02AFD6E
:1050100009F13C0307F2E470C5F8243709F5B273CF
:10502000C5F8283785F82CB785F82DB7C5F830B7FF
:1050300085F834B716F09AFF1F4A204907F2E4704A
:1050400020F010FD09F13C0307F5FF60C5F8383783
:1050500009F5B273C5F83C3785F8406785F84167B4
:10506000C5F844B785F848B716F080FF124A1349CF
:1050700007F5FF6020F0F6FC09F13C0307F60C0091
:10508000C5F84C3709F5B273C5F8503785F8548721
:1050900085F85587C5F858B785F85CB716F066FFF0
:1050A000054A064907F60C0020F0DCFC09F17803FC
:1050B00007F5026004E000BF4C3EFF1FC9B10000CD
:1050C000C5F8603709F5EA73C5F8643785F868B73D
:1050D00085F869B7C5F86CB785F870B716F046FF64
:1050E000EA4AEB4907F5026020F0BCFC09F17803BD
:1050F00007F63400C5F8743709F5EA73C5F8783750
:1051000085F87C6785F87D67C5F880B785F884B732
:1051100016F02CFFDD4ADE4907F6340020F0A2FC31
:1051200009F1780307F64800C5F8883709F5EA73EE
:10513000C5F88C3785F8908785F89187C5F894B7BE
:1051400085F898B716F012FFD04AD14907F6480003
:1051500020F088FC09F1B40307F65C00C5F89C3721
:1051600009F50373C5F8A03785F8A4B785F8A5B786
:10517000C5F8A8B785F8ACB716F0F8FEC34AC4491D
:1051800007F65C0020F06EFC09F1B40307F5076038
:10519000C5F8B03709F50373C5F8B43785F8B867B3
:1051A00085F8B967C5F8BCB785F8C0B716F0DEFE5C
:1051B000B64AB74907F5076020F054FC09F1B4037B
:1051C00007F68400C5F8C43709F50373C5F8C83776
:1051D00085F8CC8785F8CD87C5F8D0B785F8D4B7E2
:1051E00016F0C4FEA94AAA4907F6840020F03AFC4A
:1051F00009F1F00307F69800C5F8D83709F51173DF
:10520000C5F8DC3785F8E0B785F8E1B7C5F8E4B74D
:1052100085F8E8B716F0AAFE9C4A9D4907F6980063
:1052200020F020FC09F1F00307F6AC00C5F8EC37DC
:1052300009F51173C5F8F03785F8F46785F8F56757
:10524000C5F8F8B785F8FCB716F090FE8F4A90497C
:1052500007F6AC0020F006FC09F1F00307F50C603E
:10526000C5F8003809F51173C5F8043885F80888C1
:1052700085F80988C5F80CB885F810B816F076FEE0
:10528000824A834907F50C6020F0ECFB09F5967320
:1052900007F6D400C5F8143809F51F73C5F8183897
:1052A00085F824B8C5F820B885F81DB885F81CB86D
:1052B00016F05CFE754A764907F6D40020F0D2FB62
:1052C00009F5B27307F6E800C5F8283809F52D731B
:1052D000C5F82C3885F838B8C5F834B885F831B831
:1052E00085F830B816F042FE684A694907F6E800CA
:1052F00020F0B8FB09F5CE7307F6FC00C5F83C3882
:1053000009F54973C5F8403885F84CB8C5F848B870
:1053100085F845B885F844B816F028FE5B4A5C4924
:1053200007F6FC0020F09EFB09F5EA7307F5116013
:10533000C5F8503809F53B73C5F8543885F860B89E
:10534000C5F85CB885F859B885F858B816F00EFE5F
:105350004E4A4F4907F5116020F084FB09F50373AD
:1053600007F62410C5F8643809F55773C5F868388E
:1053700085F874B8C5F870B885F86DB885F86CB85C
:1053800016F0F4FD4249414A07F6241020F06AFB6A
:1053900009F5657309F5117207F63810C5F87C3800
:1053A0000193C5F8782885F888B8C5F884B885F8D9
:1053B00081B885F880B816F0D9FD344A344907F62B
:1053C000381020F04FFB09F51F7307F64C10C5F895
:1053D0008C3809F57373C5F8903885F89CB8C5F812
:1053E00098B885F8956885F894B816F0BFFD274AF7
:1053F000274907F64C1020F035FB09F52D7307F50A
:105400001660C5F8A03809F57373C5F8A43885F897
:10541000A98885F8B0B8C5F8ACB885F8A8B816F072
:10542000A5FD1A4A1A4907F5166020F01BFB09F57D
:105430003B7307F67410C5F8B43809F20443C5F895
:10544000B83885F8C4B8C5F8C0B885F8BDB885F8CF
:10545000BCB816F08BFD0D4A0D4907F6741020F00C
:1054600001FB09F5497307F68810C5F8C83809F536
:105470007373C5F8CC3885F8D8B8C5F8D4B885F8B2
:10548000D1B885F8D0B816F071FD03E04C3EFF1F8F
:10549000C9B10000E74AE84907F6881020F0E2FAAF
:1054A00009F5577307F69C10C5F8DC3809F2044378
:1054B000C5F8E03885F8ECB8C5F8E8B885F8E568CF
:1054C00085F8E4B816F052FDDA4ADB4907F69C107D
:1054D00020F0C8FA019BC5F8F03807F51B6009F207
:1054E0000443C5F8F43885F8F98885F800B9C5F89B
:1054F000FCB885F8F8B816F039FDCE4ACE4907F564
:105500001B6020F0AFFA09F2744307F6C41009F5E6
:105510009669C5F80439C5F8089985F80C8985F8A5
:1055200014B9C5F810B985F80DB916F01FFDC14AB8
:10553000C14907F6C41020F095FA07F6D810C5F84F
:105540001899C5F81C7985F828B9C5F824B985F8E3
:10555000216985F820B916F009FDB64AB64907F663
:10556000D81020F07FFA07F6EC10A0F62423C5F837
:105570003039C5F82C9985F83CB9C5F838B985F8A3
:10558000356985F8346916F0F1FCAA4AAA4907F68C
:10559000EC1020F067FAA9F13C0307F52060C5F88C
:1055A0004039C5F8447985F8488985F850B9C5F877
:1055B0004CB985F849B916F0D9FC9E4A9E4907F5C1
:1055C000206020F04FFA07F61420A9F13C03C5F83B
:1055D0005439A0F64C23C5F8583985F85C8985F80C
:1055E00064B9C5F860B985F85DB916F0BFFC914A99
:1055F000914907F6142020F035FA07F62820A0F587
:105600002663C5F86839AAF12803C5F86C3985F80E
:1056100078B9C5F874B985F8716985F870B916F06C
:10562000A5FC844A844907F6282020F01BFA07F6D7
:105630003C20A0F6742307F13809C5F87C39C5F879
:10564000809985F88CB9C5F888B985F8856985F899
:1056500084B916F08BFC774A774907F63C2020F096
:1056600001FA07F52560C5F89499C5F8907985F891
:10567000A0B9C5F89CB985F899B985F898B916F01C
:1056800075FC6C4A6C4907F5256020F0EBF9AAF12E
:10569000280307F66420C5F8A839C5F8A47985F869
:1056A000ACB985F8ADB9C5F8B0B985F8B4B916F09C
:1056B0005DFC604A604907F6642020F0D3F90AF6E1
:1056C000BC4307F67820C5F8BC390AF5FC63C5F879
:1056D000B83985F8C0B985F8C1B9C5F8C4B985F835
:1056E000C8B916F043FC534A534907F6782020F016
:1056F000B9F90AF5286307F68C20C5F8D0390AF6FF
:105700001803C5F8CC3985F8D4B985F8D5B9C5F8EA
:10571000D8B985F8DCB916F029FC464A464907F69F
:105720008C2020F09FF9454BC5F8E43907F52A6035
:105730000AF50563C5F8E03985F8E8B985F8E9B9EF
:10574000C5F8ECB985F8F0B916F010FC394A3A49B9
:1057500007F52A6020F086F9394BC5F8F83907F6C5
:10576000B4200AF68803C5F8F43985F8FCB985F841
:10577000FDB9C5F800BA85F804BA16F0F7FB2D4A52
:105780002D4907F6B42020F06DF92E4BC5F80C3AE0
:1057900007F6C8200AF50C63C5F8083A85F810BA70
:1057A00085F811BAC5F814BA85F818BA16F0DEFBF8
:1057B000204A214907F6C82020F054F9224BC5F8A9
:1057C000203A07F6DC200AF6F803C5F81C3A85F8FB
:1057D00024BA85F825BAC5F828BA85F82CBA16F087
:1057E000C5FB144A144907F6DC2020F03BF9174B9F
:1057F000C5F8343A07F52F600AF51363C5F8303A57
:1058000085F838BA85F839BAC5F83CBA85F840BA8F
:1058100016F0ACFB074A084907F52F6020F022F983
:105820000B4BC5F8483A07F604300AF66813C5F87A
:10583000443A0FE04C3EFF1FC9B100000465FF1F52
:105840008C60FF1F7C69FF1FB86BFF1FC862FF1FC2
:105850004067FF1F85F84CBA85F84DBAC5F850BAB5
:1058600085F854BA16F082FBEB4AEC4907F604308F
:1058700020F0F8F80AF5F47307F61830C5F8583A2E
:105880000AF5FC63C5F85C3A85F860BA85F8616A88
:10589000C5F864BA85F868BA16F068FBDE4ADF49D5
:1058A00007F6183020F0DEF80AF5F47307F62C300E
:1058B000C5F86C3A0AF61803C5F8703A85F874BA58
:1058C00085F8756AC5F878BA85F87CBA16F04EFB8B
:1058D000D14AD24907F62C3020F0C4F80AF51673E5
:1058E00007F53460C5F8803A0AF50563C5F8843ACF
:1058F00085F888BA85F8896AC5F88CBA85F890BAAF
:1059000016F034FBC44AC54907F5346020F0AAF804
:105910000AF5167307F65430C5F8943A0AF6880368
:10592000C5F8983A85F89CBA85F89D6AC5F8A0BA7A
:1059300085F8A4BA16F01AFBB74AB84907F65430EE
:1059400020F090F80AF5087307F66830C5F8A83A11
:105950000AF50C63C5F8AC3A85F8B0BA85F8B16AB7
:10596000C5F8B4BA85F8B8BA16F000FBAA4AAB4934
:1059700007F6683020F076F80AF5087307F67C30F1
:10598000C5F8BC3A0AF6F803C5F8C03A85F8C4BAB7
:1059900085F8C56AC5F8C8BA85F8CCBA16F0E6FA33
:1059A0009D4A9E4907F67C3020F05CF80AF5D873D2
:1059B00007F53960C5F8D03A0AF51363C5F8D43A4B
:1059C00085F8D8BA85F8D96AC5F8DCBA85F8E0BA9E
:1059D00016F0CCFA904A914907F5396020F042F868
:1059E0000AF5D87307F6A430C5F8E43A0AF6681346
:1059F000C5F8E83A85F8ECBA85F8ED6AC5F8F0BA6A
:105A000085F8F4BA16F0B2FA834A844907F6A4304E
:105A100020F028F80AF5AD690AF5FC6307F6B830FE
:105A2000C5F8FC3A85F8018BC5F8F89A85F800BBF3
:105A3000C5F804BB85F808BB16F098FA764A774992
:105A400007F6B83020F00EF809F52C7307F6CC30C5
:105A5000C5F8103BC5F80C9B85F8158B85F814BB71
:105A6000C5F818BB85F81CBB16F080FA6A4A6B496A
:105A700007F6CC301FF0F6FFA9F5B26303F6780302
:105A800009F1280907F53E60C5F8243B85F8298B04
:105A9000C5F8209B85F828BBC5F82CBB85F830BB22
:105AA00016F064FA5C4A5D4907F53E601FF0DAFFC4
:105AB00009F53E7307F6F430C5F8383BC5F8349B5A
:105AC00085F83D8B85F83CBBC5F840BB85F844BBE9
:105AD00016F04CFA504A514907F6F4301FF0C2FF55
