:1000000000000320D1010000FDF50100B5F501005D
:10001000B5F50100B5F50100B5F50100B5F5010034
:10002000B5F50100B5F50100B5F50100FDF50100DC
:10003000FDF50100B5F501008D1A0200911A0200CC
:10004000FDF50100FDF50100FDF50100FDF50100E4
:10005000FDF50100FDF50100FDF50100FDF50100D4
:10006000FDF50100FDF50100FDF50100FDF50100C4
:10007000FDF50100FDF50100FDF50100FDF50100B4
:10008000FDF50100FDF50100FDF50100FDF50100A4
:10009000FDF50100FDF50100FDF50100FDF5010094
:1000A0003999010045990100FDF50100FDF50100B8
:1000B000FDF50100FDF50100FDF50100FDF5010074
:1000C000FDF50100FDF50100FDF50100FDF5010064
:1000D000FDF50100112D0200FDF50100FDF5010007
:1000E000FDF50100FDF50100FDF50100FDF5010044
:1000F000FDF50100FDF50100FDF50100FDF5010034
:10010000491C02005D1C0200711C0200851C0200DB
:10011000FDF50100A9000200FDF50100FDF501005B
:10012000FDF50100FDF50100FDF50100FDF5010003
:10013000FDF50100FDF50100FDF50100FDF50100F3
:1001400041180200FDF50100FDF50100FDF501007B
:10015000FDF50100FDF50100FDF50100FDF50100D3
:10016000FDF50100FDF5010051990100FDF50100CB
:10017000FDF50100FDF50100FDF50100FDF50100B3
:10018000FDF50100FDF50100FDF50100FDF50100A3
:10019000FDF50100FDF50100FDF50100FDF5010093
:1001A000FDF50100FDF50100FDF50100FDF5010083
:1001B000FDF50100FDF50100FDF50100FDF5010073
:1001C000FDF50100FDF50100FDF50100FDF5010063
:1001D0005C4B4CF2205210B51A804DF628121A8052
:1001E00000BF00BF1FF00EFA574B4FF030621A608D
:1001F000564A9A60564ADA60564B4FF470021A60BB
:10020000554B564A1A60564B1A78110703D51A787F
:1002100042F008021A70534B5349AA221A70534AEB
:10022000534B8B4204D252F8040F43F8040BF8E707
:10023000504B514900228B4202D243F8042BFAE77B
:100240004E494F4A002352F8230041F8230001335E
:10025000742BF8D14B4B4C4A802103F8011B93427D
:10026000FBD14A4B454A1A60494B8A221A70A3F5C2
:10027000805324225A70A0221A709A799207FCD5D2
:100280009A79D406FCD4434A937903F00C03082BE3
:10029000FAD1414B60221A7002331A78802AFCD1BD
:1002A0003C4B01221A715D225A719A799006FCD555
:1002B0009979384A4906FBD5384B394919600021EC
:1002C000596020231370937903F00C030C2BFAD19F
:1002D000344B354A1A60354A354C136813F4807331
:1002E00003D123604FF4A8531360324B324A1A6093
:1002F00000225A60072243F8042C304AC3F80C2D20
:1003000062B61FF05DFD2368DA0705D52C481FF0A3
:10031000B5FC2C4B2C4A1A602C4B1B785B0609D57C
:10032000284C294B22689A4204D125481FF0A6FC8C
:100330000023236024F084F91FF06AF921F04CFFB8
:10034000FEE700BF0E20054030800440823F0400DD
:100350000100002B88ED00E0002008E0030000858C
:1003600002D0074000E00740F852FF1F103704009A
:10037000B041FF1F0060FF1F882B00200036FF1FC9
:100380000000000000E400E064E400E008ED00E0AC
:10039000005006400040064001E007404480044011
:1003A0000000060204800440C010070010D0034083
:1003B00014D0034014E000E01FBF02000000202022
:1003C000A23C73601CE00340A5C3945A00F00740B0
:1003D000FFFFFFFFFFFFFFFFFFFFFFFFFFFFFFFF2D
:1003E000FFFFFFFFFFFFFFFFFFFFFFFFFFFFFFFF1D
:1003F000FFFFFFFFFFFFFFFFFFFFFFFFFFFFFFFF0D
:10040000FFFFFFFFFFFFFFFFFFFFFFFFDEF9FFFF23
:1004100010B5054C237833B9044B13B10448AFF33E
:1004200000800123237010BD0060FF1F000000004A
:100430000C370400084B10B51BB108490848AFF34E
:1004400000800848036803B910BD074B002BFBD0A0
:10045000BDE81040184700BF000000000460FF1F07
:100460000C370400F852FF1F000000000020704706
:10047000704700BF10B582B0B0F90C20019101683F
:10048000009200220C6CB0F90A301146A04702B06D
:1004900010BD00BFC36C01221A70036D5BB11A68F6
:1004A00041F080514FF00043D3625163D36A002B77
:1004B000FCDA936B7047F0B54FEA112E08248025C3
:1004C0001EEA050F066C14BF012700273770466C23
:1004D0003270466C013C4FEA55053370F0D1036D24
:1004E000C9B24BB11A684FF00043D3625163D36A6B
:1004F000002BFCDA936BF0BD082280230127194200
:10050000056C14BF012600262E70456C2F70456CBB
:10051000013A4FEA53032C70F1D1F0BD2DE9F047B9
:100520000446894690468021A02200251F469DF85A
:1005300020609DF824A018F04BFA144A1449216059
:10054000226304F17C0084F8349084F8358084F8C8
:1005500036A084F8377084F8386084F82150256517
:1005600084F85450A565E5652566294621F0AAF969
:10057000A022802384F8685084F874506566E5668C
:10058000A285E3852046BDE8F08700BF0320003840
:10059000FC93020090F8213063B190F83A30826DFC
:1005A000006E41EA03415163D36A03F4704383420E
:1005B000FAD87047C26C1370036D4BB11A684FF0D4
:1005C0000043D3625163D36A002BFCDA936B70470C
:1005D000F0B408221C46012780231942056C14BF81
:1005E000012600262E70456C2F70456C013A4FEAAB
:1005F00053032C70F1D1F0BC704700BF90F821304C
:10060000FBB190F83A30826D41EA034343F0006356
:100610001168536302E013F0F00F10D1D36AD800D1
:10062000F9D54FF08053D3621160D36A13F0F00F05
:1006300029D0936BD36A13F0F00FFAD17047936B04
:10064000ECE7C26C1370036D4BB11A684FF00043B6
:10065000D3625163D36A002BFCDA936B7047F0B41A
:1006600008221C46012780231942056C14BF01266D
:1006700000262E70456C2F70456C013A4FEA5303EB
:100680002C70F1D1F0BC7047036D70B504467BB19E
:10069000D87A226B002836D11B68D868904207D0E0
:1006A0002C4D1D602C48DA6042F080451D611860B9
:1006B000A36C0BB100221A7000290CBF202121214C
:1006C0002046FFF79BFFA36C0BB101221A70236D2C
:1006D000C3B1DA7AB2B1D40703D5204AD96911601F
:1006E000DA7A900703D51E4A196A1160DA7A51073F
:1006F00003D51C4A596A1160DA7A120702D51A4AE0
:100700009B6A136070BD72B6D87AC60706D5174DBE
:10071000D8682E683040D8612860D87A850706D519
:10072000134D18692E68304018622860D87A460741
:1007300006D5104D58692E68304058622860D87A26
:10074000050705D50C4D98692E68304098622860E1
:1007500062B6A1E701403F0000003F8000E100E0F9
:1007600004E100E008E100E00CE100E080E100E0ED
:1007700084E100E088E100E08CE100E090F82130C5
:1007800063B190F83930826D006E41EA03415163E4
:10079000D36A03F470438342FAD87047C36C0122D2
:1007A0001A70036D4BB11A684FF00043D362516366
:1007B000D36A002BFCDA936B7047F0B415461C46E5
:1007C000082280231942066C14BF012700273770C6
:1007D000466C3570466C013A4FEA53033470F1D1E0
:1007E000F0BC704790F82130FBB190F83930826D41
:1007F00041EA034343F000631168536302E013F0DE
:10080000F00F10D1D36AD800F9D54FF08053D362DE
:100810001160D36A13F0F00F2AD0936BD36A13F0F0
:10082000F00FFAD17047936BECE7C36C01221A709A
:10083000036D4BB11A684FF00043D3625163D36A22
:10084000002BFCDA936B7047F0B415461C46082267
:1008500080231942066C14BF012700273770466CAD
:100860003570466C013A4FEA53033470F1D1F0BC55
:10087000704700BF036D70B504460D467BB1D97A51
:10088000026B002931D11B68D968914207D06448B6
:1008900018606449DA6042F0804018611960A36C06
:1008A0000BB100221A7036212046FFF773FE05F0C7
:1008B00003010229217694F8203065D003294CD019
:1008C000012939D0022B00F09780052B00F094808D
:1008D000C8212046FFF786FFE08DA18D628CA38C96
:1008E0006081A181E284238564E072B6D97AC80769
:1008F00006D54D48D96806683140D9610160D97A7A
:100900008E0706D5494819690668314019620160A9
:10091000D97A480706D54648596906683140596270
:100920000160D97A0E0705D54248996906683140B9
:100930009962016062B6A6E7022B6CD0052B6AD0E3
:10094000A8212046FFF74EFFE08DA18D628CA38C7D
:10095000A08161812285E3842CE0022B56D0052BF7
:1009600054D068212046FFF73DFFA38CA08DE18D78
:10097000628C608123F020039BB2003318BF0123F7
:10098000E384A181228515E0022B3AD0052B38D0D3
:1009900008212046FFF726FFA38CE08DA18D628CF5
:1009A000608123F020039BB2003318BF012323850D
:1009B000A181E284A36C227E62850BB101221A70B0
:1009C000236DC3B1DA7AB2B1D40703D51A4AD96913
:1009D0001160DA7A900703D5184A196A1160DA7A39
:1009E000510703D5164A596A1160DA7A120702D5FF
:1009F000144A9B6A136070BDC0212046FFF7F2FEC7
:100A00006AE700212046FFF7EDFEC5E7602120469A
:100A1000FFF7E8FEA9E7A0212046FFF7E3FE93E7F2
:100A200001403F0000003F8080E100E084E100E001
:100A300088E100E08CE100E000E100E004E100E09A
:100A400008E100E00CE100E090F8212092B110B440
:100A50000B4690F83910826D006E43EA014343F073
:100A600080535363D36A03F470439842FAD35DF81A
:100A7000044B7047FFF70EBD10B490F8214014B33B
:100A80000B4690F83910826D43EA014343F0C0539E
:100A90001168536302E013F0F00F12D1D36AD8004B
:100AA000F9D54FF08053D3621160D36A13F0F00F81
:100AB00004D0936BD36A13F0F00FFAD15DF8044BB6
:100AC0007047936BEAE75DF8044BFFF7E3BC00BFA8
:100AD0002DE9F0410C46B0F90A10BDF81860A142AA
:100AE00040F3AE801F46B0F90C309342054640F308
:100AF000A780D0199842C4BF9B1A1FB295F86830DE
:100B0000002B40F09F802B6D002B3DD0D87AD5F87C
:100B100030C048B372B6D87AC10709D5DFF874E19E
:100B2000D968DEF800000840D861CEF80000D87A15
:100B3000810709D5DFF860E11969DEF80000084097
:100B40001862CEF80000D87A410709D5DFF84CE1E9
:100B50005969DEF8000008405862CEF80000D87AE3
:100B6000010700F1838062B61B68D86860450BD02E
:100B7000DFF82CE1C3F800E04148C3F80CC04CF0AA
:100B8000804EC3F810E01860AB6C0BB100211970F7
:100B90002A2128461FFA84F894B2FFF7FBFCE98C5F
:100BA000414489B22846FFF74FFFE98C414489B29E
:100BB0002846FFF749FF2B212846FFF7EBFC298D3C
:100BC000214489B22846FFF73FFF2A8D013A22448B
:100BD000BCB2A11889B22846FFF736FF2C2128465F
:100BE000FFF7D8FC012F08DD013C31462846A4B2AE
:100BF000FFF72AFF23B2012BF6DC31462846FFF728
:100C00003BFFAB6C0BB101221A702B6DC3B1DA7ACA
:100C1000B2B1D40703D51B4AD9691160DA7A9007BB
:100C200003D5194A196A1160DA7A510703D5174AB0
:100C3000596A1160DA7A120702D5154A9B6A136065
:100C4000BDE8F081686E02FB0142791E00EB4202B2
:100C500009B2002FF4D016800139B5F90A3009B273
:100C6000481C02EB4302F6D1BDE8F081DFF834E026
:100C70009969DEF8000008409862CEF8000072E73B
:100C800000003F8000E100E004E100E008E100E056
:100C90000CE100E080E100E084E100E088E100E0B8
:100CA00001403F008CE100E02DE9F843B0F90A4033
:100CB000BDF820608C4240F3AB801F46B0F90C3089
:100CC0009342054640F3A480CB19A3421FFA81F951
:100CD00090F86830C4BFC9EB04073FB2002B40F066
:100CE0009980036D002B38D0D87A296B48B372B63F
:100CF000D87AC40709D5DFF8A0E1DC68DEF8000087
:100D00002040D861CEF80000D87A840709D5DFF8F2
:100D10008CE11C69DEF8000020401862CEF800006B
:100D2000D87A440709D5DFF878E15C69DEF800007D
:100D300020405862CEF80000D87A000700F1968073
:100D400062B61B68D868884207D04D4C1C604D487D
:100D5000D96041F080441C611860AB6C0BB100217C
:100D600019702A2128461FFA82F8FFF713FCE98C34
:100D7000494489B22846FFF767FEE98C01394944A6
:100D8000BCB2214489B22846FFF75EFE2B212846DB
:100D9000FFF700FC298D414489B22846FFF754FE35
:100DA000298D414489B22846FFF74EFE2C21284662
:100DB000FFF7F0FB012F08DD013C31462846A4B2C5
:100DC000FFF742FE23B2012BF6DC31462846FFF73F
:100DD00053FEAB6C0BB101221A702B6DC3B1DA7AE2
:100DE000B2B1D40703D5284AD9691160DA7A9007DD
:100DF00003D5264A196A1160DA7A510703D5244AC5
:100E0000596A1160DA7A120702D5224A9B6A136086
:100E1000BDE8F8831FFA87FE49EA0E0919F0010FB1
:100E200010D1436E04FB021103EB410146EA064672
:100E3000002FEDD0023F3FB241F8046B002FF9D1F3
:100E4000BDE8F883406E04FB02110EF1FF3E00EB9B
:100E500041021FFA8EFE002FDAD002EB4E01931EE4
:100E600023F8026F9942FBD1BDE8F883DFF834E044
:100E70009C69DEF8000020409862CEF800005FE731
:100E800001403F0000003F8000E100E004E100E09D
:100E900008E100E00CE100E080E100E084E100E036
:100EA00088E100E08CE100E02DE9F8430646B0F966
:100EB0000A00BDF92040BDF82450884240F3C480A8
:100EC0001F46B6F90C30934240F3BE8001EB070E8B
:100ED00086451FFA81F8C8BFC8EB000702EB040E75
:100EE000C8BF3FB29E45C4BF9B1A1CB296F868307B
:100EF000002B40F0AB80336D002B3DD0D97AD6F873
:100F000030C049B372B6D97AC80709D5DFF8E8E12D
:100F1000D868DEF800100140D961CEF80010D97A07
:100F2000880709D5DFF8D4E11869DEF80010014020
:100F30001962CEF80010D97A480709D5DFF8C0E168
:100F40005869DEF8001001405962CEF80010D97AD5
:100F5000090700F1BC8062B61B68D96861450BD0F7
:100F6000DFF8A0E1C3F800E05E49C3F80CC04CF024
:100F7000804EC3F810E01960B36C0BB100211970FA
:100F80002A2130461FFA82F9FFF704FBF18C414415
:100F900089B23046FFF758FDF18C0139414439449C
:100FA00089B23046FFF750FD2B213046FFF7F2FAA9
:100FB000318D494489B23046FFF746FD318D013904
:100FC0004944214489B23046FFF73EFD2C2130468A
:100FD000FFF7E0FA002CC8BFA04616DD012FC8BFFE
:100FE0003C4607DD013C2946304624B2FFF72CFD84
:100FF000012CF7D108F1FF3429463046A4B2FFF79F
:101000003BFD0FFA84F8002CE8D1B36C0BB1012240
:101010001A70336DC3B1DA7AB2B1D40703D5324A4C
:10102000D9691160DA7A900703D5304A196A1160DC
:10103000DA7A510703D52E4A596A1160DA7A120713
:1010400002D52C4A9B6A1360BDE8F88348EA07087A
:1010500018F0010F736E00FB02111ED107EBD7775A
:10106000002C03EB410E4FEA670645EA0545EBDD30
:1010700000EBD07149108900002E06DD7246002376
:101080000133B34242F8045BFAD1013CA3B28E446F
:101090001CB2002BF0D1BDE8F883002C03EB41011A
:1010A000D2DD4FEA470E002F08DD01EB0E020B46A2
:1010B00023F8025B9342FBD1B6F90A00013CA3B2CC
:1010C00001EB40011CB2002BEDD1BDE8F883DFF845
:1010D00038E09869DEF8001001409962CEF80010FF
:1010E00039E700BF00003F8000E100E004E100E0DC
:1010F00008E100E00CE100E080E100E084E100E0D4
:1011000088E100E001403F008CE100E00029C0F2EE
:10111000A680F8B5B0F90A40A14280F29980002A71
:10112000C0F29680B0F90C50954240F3918090F84F
:101130006850002D40F08D80046D002C37D0E67A89
:10114000056B46B372B6E67AF70709D5DFF83CE1DE
:10115000E768DEF800603E40E661CEF80060E67ABF
:10116000B70709D5DFF828E12769DEF800603E40BF
:101170002662CEF80060E67A770709D5DFF814E139
:101180006769DEF800603E406662CEF80060E67A8D
:10119000360765D462B62468E668AE4207D0354F9C
:1011A0002760354EE56045F0804727612660846CF6
:1011B0000CB10025257004460E462A211F4695B223
:1011C000FFF7E8F9E18CB6B2314489B22046FFF767
:1011D0003BFCE18C0131314489B22046FFF734FCFD
:1011E0002B212046FFF7D6F9218D294489B22046CC
:1011F000FFF72AFC218D0131294489B22046FFF7EF
:1012000023FC2C212046FFF7C5F939462046FFF77D
:1012100033FCA36C0BB101221A70236DC3B1DA7ACF
:10122000B2B1D40703D5154AD9691160DA7A9007AB
:1012300003D5134A196A1160DA7A510703D5114AA6
:10124000596A1160DA7A120702D50F4A9B6A136055
:10125000F8BD02FB0412416E21F81230F8BD704750
:10126000DFF834E0A769DEF800603E40A662CEF801
:1012700000608FE701403F0000003F8000E100E098
:1012800004E100E008E100E00CE100E080E100E0C2
:1012900084E100E088E100E08CE100E02DE9F84F16
:1012A000036D044683B1D87A226B002840F0D280C7
:1012B0001B68D868904207D07A4D1D607A48DA6082
:1012C00042F080451D611860A36C0BB100221A70BA
:1012D00091F800A04FF000094E1CCA45354600F0B9
:1012E00093802F46204617F8021BFFF787F96E7888
:1012F00026F07F0806F07F06012E5FFA88F840F29C
:10130000A480023EF6B2013507EB060B15F8011F6B
:101310002046FFF733FAAB45F8D101363744397828
:1013200020467D1CFFF75EFAB8F1000F67D02878E1
:10133000A36CFF2808BF4FF4FA7001350BB10122EE
:101340001A70236DC3B1DA7AB2B1D70703D5574A01
:10135000D9691160DA7A960703D5554A196A11607E
:10136000DA7A510703D553495A6A0A60DA7A1707BD
:1013700002D5514A9B6A13601EF0D0FC236D002BEE
:1013800039D0D97A226B002929D072B6D97ACE0702
:1013900007D54A490868D96801404848D9610160C1
:1013A000D97A880707D54649086819690140444831
:1013B00019620160D97A4F0707D54249086859690F
:1013C0000140404859620160D97A0E0706D53E496E
:1013D0000868996901403C489962016062B61B68DF
:1013E000D968914207D02F4818602F49DA6042F03F
:1013F000804018611960A36C0BB100221A7009F1CA
:101400000109CA457FF46DAFA36C0BB101221A70BC
:10141000236DC3B1DA7AB2B1D40703D5234AD969AF
:101420001160DA7A900703D5214A196A1160DA7AD5
:10143000510703D51F4A596A1160DA7A120702D59B
:101440001D4A9B6A1360BDE8F88F3D46002E3FF4AD
:101450006BAF64E772B6D87AC70706D5174DD86860
:101460002E683040D8612860D87A860706D5144D9A
:1014700018692E68304018622860D87A450706D56A
:10148000104D58692E68304058622860D87A00079D
:1014900005D50D4D98692E6830409862286062B677
:1014A00006E700BF01403F0000003F8000E100E090
:1014B00004E100E008E100E00CE100E080E100E090
:1014C00084E100E088E100E08CE100E0F8B504464A
:1014D00090F83700A74D0023FF28A3846384E3849A
:1014E000238594F8383004BF0B2084F83700FF2B95
:1014F00008BF0D230F4608BF84F838300146284640
:10150000164616F093FF002840F084809A4D94F818
:101510003710284616F08AFF002840F00E81974DBC
:1015200094F83710284616F081FF002840F0178104
:1015300094F834100023FF29236584F8213056D015
:101540008F4A94F8355052F83100A06452F8355063
:1015500094F83810E56452F8315094F83710656407
:1015600052F83120226401210170E26C1370626C28
:101570001370226C137094F83400FF2801D01EF011
:10158000A3FB012194F835001EF09EFB012194F885
:1015900038001EF099FB012194F837001EF094FBEF
:1015A00094F83600FF281AD001211EF08DFB01218E
:1015B00094F836001EF074FB64201EF0AFFB00218F
:1015C00094F836001EF06CFB64201EF0A7FB94F824
:1015D000360001211EF064FBC8201EF09FFB2FB1D6
:1015E00039462046BDE8F840FFF758BEF8BD94F8EC
:1015F0003510634AA36452F8310094F83810E0645F
:1016000052F8310094F83710606452F831202264A7
:101610001B70FFDE94F83810284616F015FF0028DE
:101620003FF474AF0021574A25654FF440532846D4
:1016300084F85410A2652366012384F8213094F8BD
:10164000371016F033FF94F83810206D16F080FF35
:10165000206D16F069FE16F0080F14BF4FF070539E
:101660004FF06053720701D543F0007343F000431D
:10167000236394F8342094F83510206D16F0A8FEFA
:101680000546A8B194F83410206D16F0EFFE94F8DA
:10169000351084F839000546206D16F0E7FE00236A
:1016A000284384F83A00A364236D5B68E36577E719
:1016B00094F83510206D16F075FEB8B994F83430F2
:1016C00084F83900FF2B84F83A0029D12C4D94F886
:1016D000350001211EF0F8FA94F8353055F8332022
:1016E000E2640023137084F82130DDE784F8395078
:1016F00094F83510206D16F0B9FE94F8343084F863
:101700003A00FF2BD0D0184601211EF0DDFA94F8E4
:1017100034201B4B53F83230A36401221A70C3E704
:10172000184601211EF0D0FA154D94F8343055F8C2
:101730003330A36401221A70C9E794F838102846A0
:1017400016F082FE00283FF4EAAE0F4A0121002382
:101750002565284684F85410A26523666CE794F842
:101760003810284616F070FE00283FF4E1AE022142
:10177000064AECE7B043FF1FF043FF1F3044FF1F52
:101780002C2C040000C0024000D0024000C00A40DF
:1017900070B500220D462F490446FFF797FE8DB322
:1017A000012D3CD0042D49D0052D12D02A492046C8
:1017B000FFF774FD29492046FFF770FD022D18D070
:1017C000236884F8205020461B6B0021BDE8704040
:1017D0001847A0225023A285E38521492046FFF720
:1017E0005DFD182200236284A3841C492046FFF774
:1017F00055FD20463621FEF7CDFEC0212046FEF7DE
:10180000F1FFDDE720461749FFF748FD02220123DB
:101810006284A38411492046FFF740FDD0E780236E
:10182000A38511492046FFF739FD02220323628474
:10183000A3840A492046FFF731FDC1E78023A38531
:1018400009492046FFF72AFD002220236284A38451
:10185000EFE700BF6C9402004C940200A8940200D1
:10186000E49302005C940200D493020041B170B58D
:10187000456E044645B1012184F86810084670BDE4
:1018800080F8681008467047B0F90A30B0F90C20AB
:10189000102603FB0266760003FB02F30367304663
:1018A00022F014FFE06650B100F1200323F01F0086
:1018B0006066A6F12002294623F07CFADBE770BDC2
:1018C000F8B590F86830002B00F09080036D002B85
:1018D0002ED0D97A026BF9B172B6D97ACC0706D577
:1018E000494CD96825682940D9612160D97A8F0788
:1018F00006D5464C19692568294019622160D97AB4
:101900004E0706D5424C5969256829405962216025
:10191000D97A0D0770D462B61B68D968914207D096
:101920003C4C1C603C49DA6042F080441C61196008
:10193000836C0BB100221A7004462A2146898589DE
:10194000FEF728FEE18C2046FFF77EF8E18C013996
:10195000314489B22046FFF777F82B212046FEF765
:1019600019FE218D2046FFF76FF8218D013929449A
:1019700089B22046FFF768F82C212046FEF70AFEC0
:10198000266F676E06F10046013E07EB4606B7423A
:101990000DD23D4635F8021B2046FFF755F8AE4202
:1019A000F8D8FB431E4426F0010602363744398836
:1019B0002046FFF761F8A36C0BB101221A70236D6A
:1019C000A3B1DA7A92B1D40703D5144AD969116068
:1019D000DA7A900703D5124A196A1160DA7A510748
:1019E00005D4120702D50F4A9B6A1360F8BD0E4A50
:1019F000596A1160DA7AF4E70C4C99692568294034
:101A00009962216087E700BF80E100E084E100E0A7
:101A100088E100E001403F0000003F8000E100E07D
:101A200004E100E00CE100E008E100E08CE100E00E
:101A30000B4B10B403F5407403F1400003F1800137
:101A400003F1C00218621966C3F8A02043F8203CD5
:101A500003F58073A342EFD15DF8044B704700BFDC
:101A60004060FF1F704700BF704700BF704700BF56
:101A700000680B68C01A7047014B1868704700BFB8
:101A8000F00700200E4BD3ED007AF5EE407AF1EE30
:101A900010FA12D0B6EE007AF4EE477AF1EE10FAB0
:101AA00009D0B7EE007AF4EE477AF1EE10FA14BFDF
:101AB000002002207047012070470020704700BFBF
:101AC000A443FF1F194BDFED1A7A93ED007ADFED87
:101AD000195A06EE901AB8EEC77AFAEEEF6AB7EE28
:101AE000006A26EE877A67EE277A67EEA57AF4EE2B
:101AF000C67AF1EE10FA07DD0F4B72B60F4A0021DD
:101B0000D361117662B67047BFEE007AF4EEC77A01
:101B1000F1EE10FA08D49FED0A7A67EE877AFDEEAF
:101B2000E77A17EE903AE8E7064BE6E7DC42FF1F5C
:101B3000ABAAAA3D000000390000FF7FB8E0FF1FFC
:101B400000FEFF4E00000180074B084A1B68012180
:101B50008B42117004BF064AD386064B1B68012BCB
:101B600004BF054AD38670476464FF1FD00100207C
:101B70001C000020C815002028FDFF1F014B00227B
:101B80001A707047D0010020474B484A1968012954
:101B90000AD0474B1B68012B06D01368172B00DDBA
:101BA00070470133136070471368172BF9DD70B469
:101BB000404B414C1B68D4ED007ADFED406A404851
:101BC000404E414D83B0012901939DED017A037888
:101BD000B8EE477A83F0010377EE677A84ED007AF6
:101BE00086EEA77A0370C6ED007A85ED007A08D0FC
:101BF0002F4B1B68012B19D00123136003B070BC5D
:101C00007047324BD3ED007A67EE277AF5EEC07A53
:101C1000F1EE10FA1FD4DFED2E6AF4EEE67AF1EE63
:101C200010FA32DD2B492C4BCB61E1E7274BD3ED8A
:101C3000007A27EE277AB5EEC07AF1EE10FA11D4C9
:101C4000DFED237AB4EEE77AF1EE10FA0EDD2349E8
:101C5000214BCB61D0E7164B1E491B680020012B9E
:101C6000C861C9D11D4B0021D961C5E7DFED1C7AE0
:101C700019481A4927EE277AFCEEC77A17EE903AF0
:101C80008342C1ED077AB7D9E2E7DFED156A124862
:101C9000104967EEA67AFCEEE77A17EE903A834297
:101CA000C1ED077AA4D9BEE76464FF1FE4E0FF1F1B
:101CB000C8150020F4260020F4F7FF1F00007A4426
:101CC000D0010020480800207043FF1FA043FF1FE1
:101CD000A655AC461C0000200000FE7F28FDFF1F1B
:101CE0004B24BE47704700BF38B5054CA4F50065CE
:101CF0002046103C20F0B2F8AC42F9D138BD00BF0C
:101D00002873FF1F38B5054640B100F59C440C34DC
:101D1000143C201D20F0A2F8A542F9D1284638BD78
:101D200008B500201DF0FEFB102888BF002008BD6C
:101D300008B502201DF0F6FB431EDBB20B2B84BF5F
:101D4000014B1868013808BDDC42FF1F08B50320AD
:101D50001DF0E8FB431EDBB2092B12D807EE900AF8
:101D6000F8EEE77AB2EE047AC7EE876AB2EE047A4A
:101D7000FFEE007AE6EE877AFDEEE77A17EE900A3C
:101D800008BD024BD3ED006AF0E700BFF442FF1F2D
:101D900008B508201DF0C6FB024B1B78102B88BF2E
:101DA000002008BD186BFF1F08B504201DF0BAFB0A
:101DB00001289ABF00F0010080F00100002008BD5A
:101DC00008B506201DF0AEFB012888BF002008BD25
:101DD00008B505201DF0A6FB012888BF002008BD1E
:101DE00008B507201DF09EFB012888BF002008BD14
:101DF00008B509201DF096FB012888BF002008BD0A
:101E000010B50D49044623F06FFD10B90B4B0022AD
:101E10001A600B49204623F067FD18B9074B4FF0B5
:101E20007C521A602046074923F05EFD18B9034B27
:101E30004FF07E521A6010BD40AC0300A443FF1F58
:101E400048AC030050AC030010B5044B044640F806
:101E50007C3B1FF09DFD204610BD00BFFC9302009F
:101E600010B504461FF096FC204610BD10B505497C
:101E7000044623F039FD10B1204622F08BFB024BC3
:101E8000186010BD58AC0300F0070020044A054B51
:101E9000126882B00192019A1A6002B0704700BFC6
:101EA000F4260020FC63FF1FF0B5DFF8A4E0254F07
:101EB000254CDEF80050D7F800C0002083B0234640
:101EC00006460246197A31B95968A94203DA012057
:101ED0000D46064694460132062A03F10C03F1D161
:101EE00066BB40BB3868431C02D0013003B0F0BD74
:101EF000164B1B68019300250199CEF800102E4661
:101F00002B4662688A42BCBF0125184603F10103D3
:101F1000ACBF0A462E46062B04F10C041146F0D144
:101F200026B935B93868013003B0F0BDCEF80020CD
:101F3000F7E73860F6E7C7F800C0D3E7CEF80050FF
:101F4000CFE700BF0443FF1F0C43FF1FF426002010
:101F50002CD1FF1F10B522F01DFB084B01460220BB
:101F6000CCB219601DF0DEFA844205D02146022071
:101F7000BDE810401DF0F0BA10BD00BFDC42FF1FED
:101F800010B582B022F006FB07EE900AF8EEE76A81
:101F9000F2EE047A86EEA77A0C4B032067EE277ADE
:101FA00083ED007AFCEEE77ACDED017A1DF0BAFA06
:101FB0009DF80440844206D02146032002B0BDE8CB
:101FC00010401DF0C9BA02B010BD00BFF442FF1F9F
:101FD00010B50B4923F088FC0A4B68B9187006202D
:101FE0001C781DF09FFAE4B2844208D021460620F6
:101FF000BDE810401DF0B0BA01221A70EFE710BD25
:1020000058AC03005815002010B50D4923F06CFCA6
:102010000C4B60B9012404201C701DF083FA84422B
:102020000CD021460420BDE810401DF095BA0024D4
:1020300004201C701DF076FA8442F2D110BD00BF5E
:102040005CAC0300E442FF1F10B50F49044623F0C7
:102050004BFC68B90D4B0446187000201DF062FA65
:10206000844210D021460020BDE810401DF074BA13
:10207000204622F08FFA054BC4B200201C701DF0E0
:1020800051FA8442EED110BD64AC0300346BFF1FE3
:1020900010B50F49044623F027FC68B90D4B0446E0
:1020A000187008201DF03EFA844210D02146082006
:1020B000BDE810401DF050BA204622F06BFA054BE7
:1020C000C4B208201C701DF02DFA8442EED110BD60
:1020D00058AC0300186BFF1F10B5114923F004FC26
:1020E00070B1104814F094FC05201DF01BFA012873
:1020F00005D001210520BDE810401DF02DBA10BD0E
:102100000446084814F08EFC05201DF00BFA002848
:10211000F5D021460520BDE810401DF01DBA00BFD6
:1021200058AC0300407EFF1F10B5124923F0DCFBC2
:1021300080B172B6104B114ADA6162B607201DF009
:10214000F1F9012805D001210720BDE810401DF05C
:1021500003BA10BD044672B6074BD86162B60720B9
:102160001DF0E0F90028F4D021460720BDE810401A
:102170001DF0F2B958AC0300D0F4FF1F0C02002090
:1021800010B50D4923F0B0FB68B10C4B01240920B8
:102190001C701DF0C7F9A0420DD021460920BDE8F2
:1021A00010401DF0D9B9054B044609201C701DF0E4
:1021B000B9F90028F1D110BD58AC0300607DFF1FB4
:1021C000214B10B4D3F8EC201368506819780478C8
:1021D000507A137A044201EA03011BD0937A03F088
:1021E000030309B143F0040343F008039910013BD2
:1021F00091720D2B0BD8DFE803F021071B070A159E
:102200002121150A071B0721D368013BD3605DF824
:10221000044B7047937A03F003030029E6D043F0A0
:102220000403E3E7D3685DF8044B023BD3607047D7
:10223000D3685DF8044B0233D3607047D3685DF810
:10224000044B0133D360704788250020214B10B424
:10225000D3F8DC201368506819780478507A137A20
:10226000044201EA03011BD0937A03F0030309B18E
:1022700043F0040343F008039910013B91720D2BC6
:102280000BD8DFE803F021071B070A152121150AE7
:10229000071B0721D368013BD3605DF8044B7047EF
:1022A000937A03F003030029E6D043F00403E3E745
:1022B000D3685DF8044B023BD3607047D3685DF888
:1022C000044B0233D3607047D3685DF8044B01338D
:1022D000D360704788250020214B10B4D3F8E0204C
:1022E0001368506819780478507A137A044201EA26
:1022F00003011BD0937A03F0030309B143F00403F5
:1023000043F008039910013B91720D2B0BD8DFE8C5
:1023100003F021071B070A152121150A071B0721B6
:10232000D368013BD3605DF8044B7047937A03F0A8
:1023300003030029E6D043F00403E3E7D3685DF824
:10234000044B023BD3607047D3685DF8044B023303
:10235000D3607047D3685DF8044B0133D360704796
:1023600088250020214B10B4D3F8E420136850686E
:1023700019780478507A137A044201EA03011BD0D9
:10238000937A03F0030309B143F0040343F0080315
:102390009910013B91720D2B0BD8DFE803F0210758
:1023A0001B070A152121150A071B0721D368013BCA
:1023B000D3605DF8044B7047937A03F00303002960
:1023C000E6D043F00403E3E7D3685DF8044B023B37
:1023D000D3607047D3685DF8044B0233D360704715
:1023E000D3685DF8044B0133D36070478825002023
:1023F000214B10B4D3F8E82013685068197804789A
:10240000507A137A044201EA03011BD0937A03F055
:10241000030309B143F0040343F008039910013B9F
:1024200091720D2B0BD8DFE803F021071B070A156B
:102430002121150A071B0721D368013BD3605DF8F2
:10244000044B7047937A03F003030029E6D043F06E
:102450000403E3E7D3685DF8044B023BD3607047A5
:10246000D3685DF8044B0233D3607047D3685DF8DE
:10247000044B0133D360704788250020214B10B4F2
:102480001A681368506819780478507A137A0442ED
:1024900001EA03011BD0937A03F0030309B143F06F
:1024A000040343F008039910013B91720D2B0BD8E4
:1024B000DFE803F021071B070A152121150A071B76
:1024C0000721D368013BD3605DF8044B7047937AD2
:1024D00003F003030029E6D043F00403E3E7D368E5
:1024E0005DF8044B023BD3607047D3685DF8044B42
:1024F0000233D3607047D3685DF8044B0133D36077
:10250000704700BF88250020214B10B45A6813681B
:10251000506819780478507A137A044201EA03016A
:102520001BD0937A03F0030309B143F0040343F093
:1025300008039910013B91720D2B0BD8DFE803F0D3
:1025400021071B070A152121150A071B0721D3683C
:10255000013BD3605DF8044B7047937A03F00303AB
:102560000029E6D043F00403E3E7D3685DF8044BA9
:10257000023BD3607047D3685DF8044B0233D360ED
:102580007047D3685DF8044B0133D360704700BFD8
:1025900088250020214B10B49A6813685068197878
:1025A0000478507A137A044201EA03011BD0937A2B
:1025B00003F0030309B143F0040343F00803991047
:1025C000013B91720D2B0BD8DFE803F021071B07AD
:1025D0000A152121150A071B0721D368013BD36087
:1025E0005DF8044B7047937A03F003030029E6D0AB
:1025F00043F00403E3E7D3685DF8044B023BD36088
:102600007047D3685DF8044B0233D3607047D368DA
:102610005DF8044B0133D360704700BF882500206C
:10262000214B10B4DA681368506819780478507A2E
:10263000137A044201EA03011BD0937A03F00303E7
:1026400009B143F0040343F008039910013B917270
:102650000D2B0BD8DFE803F021071B070A152121FA
:10266000150A071B0721D368013BD3605DF8044BB3
:102670007047937A03F003030029E6D043F0040384
:10268000E3E7D3685DF8044B023BD3607047D3683F
:102690005DF8044B0233D3607047D3685DF8044B98
:1026A0000133D360704700BF88250020214B10B450
:1026B0001A691368506819780478507A137A0442BA
:1026C00001EA03011BD0937A03F0030309B143F03D
:1026D000040343F008039910013B91720D2B0BD8B2
:1026E000DFE803F021071B070A152121150A071B44
:1026F0000721D368013BD3605DF8044B7047937AA0
:1027000003F003030029E6D043F00403E3E7D368B2
:102710005DF8044B023BD3607047D3685DF8044B0F
:102720000233D3607047D3685DF8044B0133D36044
:10273000704700BF88250020214B10B45A691368E8
:10274000506819780478507A137A044201EA030138
:102750001BD0937A03F0030309B143F0040343F061
:1027600008039910013B91720D2B0BD8DFE803F0A1
:1027700021071B070A152121150A071B0721D3680A
:10278000013BD3605DF8044B7047937A03F0030379
:102790000029E6D043F00403E3E7D3685DF8044B77
:1027A000023BD3607047D3685DF8044B0233D360BB
:1027B0007047D3685DF8044B0133D360704700BFA6
:1027C00088250020214B10B49A6913685068197845
:1027D0000478507A137A044201EA03011BD0937AF9
:1027E00003F0030309B143F0040343F00803991015
:1027F000013B91720D2B0BD8DFE803F021071B077B
:102800000A152121150A071B0721D368013BD36054
:102810005DF8044B7047937A03F003030029E6D078
:1028200043F00403E3E7D3685DF8044B023BD36055
:102830007047D3685DF8044B0233D3607047D368A8
:102840005DF8044B0133D360704700BF882500203A
:10285000214B10B4D3F89C20136850681978047881
:10286000507A137A044201EA03011BD0937A03F0F1
:10287000030309B143F0040343F008039910013B3B
:1028800091720D2B0BD8DFE803F021071B070A1507
:102890002121150A071B0721D368013BD3605DF88E
:1028A000044B7047937A03F003030029E6D043F00A
:1028B0000403E3E7D3685DF8044B023BD360704741
:1028C000D3685DF8044B0233D3607047D3685DF87A
:1028D000044B0133D360704788250020214B10B48E
:1028E000D3F8A0201368506819780478507A137AC6
:1028F000044201EA03011BD0937A03F0030309B1F8
:1029000043F0040343F008039910013B91720D2B2F
:102910000BD8DFE803F021071B070A152121150A50
:10292000071B0721D368013BD3605DF8044B704758
:10293000937A03F003030029E6D043F00403E3E7AE
:10294000D3685DF8044B023BD3607047D3685DF8F1
:10295000044B0233D3607047D3685DF8044B0133F6
:10296000D360704788250020214B10B4D3F8A420F1
:102970001368506819780478507A137A044201EA8F
:1029800003011BD0937A03F0030309B143F004035E
:1029900043F008039910013B91720D2B0BD8DFE82F
:1029A00003F021071B070A152121150A071B072120
:1029B000D368013BD3605DF8044B7047937A03F012
:1029C00003030029E6D043F00403E3E7D3685DF88E
:1029D000044B023BD3607047D3685DF8044B02336D
:1029E000D3607047D3685DF8044B0133D360704700
:1029F00088250020214B10B4D3F8A8201368506814
:102A000019780478507A137A044201EA03011BD042
:102A1000937A03F0030309B143F0040343F008037E
:102A20009910013B91720D2B0BD8DFE803F02107C1
:102A30001B070A152121150A071B0721D368013B33
:102A4000D3605DF8044B7047937A03F003030029C9
:102A5000E6D043F00403E3E7D3685DF8044B023BA0
:102A6000D3607047D3685DF8044B0233D36070477E
:102A7000D3685DF8044B0133D3607047882500208C
:102A8000214B10B4D3F8AC2013685068197804783F
:102A9000507A137A044201EA03011BD0937A03F0BF
:102AA000030309B143F0040343F008039910013B09
:102AB00091720D2B0BD8DFE803F021071B070A15D5
:102AC0002121150A071B0721D368013BD3605DF85C
:102AD000044B7047937A03F003030029E6D043F0D8
:102AE0000403E3E7D3685DF8044B023BD36070470F
:102AF000D3685DF8044B0233D3607047D3685DF848
:102B0000044B0133D360704788250020214B10B45B
:102B1000D3F8B0201368506819780478507A137A83
:102B2000044201EA03011BD0937A03F0030309B1C5
:102B300043F0040343F008039910013B91720D2BFD
:102B40000BD8DFE803F021071B070A152121150A1E
:102B5000071B0721D368013BD3605DF8044B704726
:102B6000937A03F003030029E6D043F00403E3E77C
:102B7000D3685DF8044B023BD3607047D3685DF8BF
:102B8000044B0233D3607047D3685DF8044B0133C4
:102B9000D360704788250020214B10B4D3F8B420AF
:102BA0001368506819780478507A137A044201EA5D
:102BB00003011BD0937A03F0030309B143F004032C
:102BC00043F008039910013B91720D2B0BD8DFE8FD
:102BD00003F021071B070A152121150A071B0721EE
:102BE000D368013BD3605DF8044B7047937A03F0E0
:102BF00003030029E6D043F00403E3E7D3685DF85C
:102C0000044B023BD3607047D3685DF8044B02333A
:102C1000D3607047D3685DF8044B0133D3607047CD
:102C200088250020214B10B4D3F8B82013685068D1
:102C300019780478507A137A044201EA03011BD010
:102C4000937A03F0030309B143F0040343F008034C
:102C50009910013B91720D2B0BD8DFE803F021078F
:102C60001B070A152121150A071B0721D368013B01
:102C7000D3605DF8044B7047937A03F00303002997
:102C8000E6D043F00403E3E7D3685DF8044B023B6E
:102C9000D3607047D3685DF8044B0233D36070474C
:102CA000D3685DF8044B0133D3607047882500205A
:102CB000214B10B4D3F8BC201368506819780478FD
:102CC000507A137A044201EA03011BD0937A03F08D
:102CD000030309B143F0040343F008039910013BD7
:102CE00091720D2B0BD8DFE803F021071B070A15A3
:102CF0002121150A071B0721D368013BD3605DF82A
:102D0000044B7047937A03F003030029E6D043F0A5
:102D10000403E3E7D3685DF8044B023BD3607047DC
:102D2000D3685DF8044B0233D3607047D3685DF815
:102D3000044B0133D360704788250020214B10B429
:102D4000D3F8C0201368506819780478507A137A41
:102D5000044201EA03011BD0937A03F0030309B193
:102D600043F0040343F008039910013B91720D2BCB
:102D70000BD8DFE803F021071B070A152121150AEC
:102D8000071B0721D368013BD3605DF8044B7047F4
:102D9000937A03F003030029E6D043F00403E3E74A
:102DA000D3685DF8044B023BD3607047D3685DF88D
:102DB000044B0233D3607047D3685DF8044B013392
:102DC000D360704788250020214B10B4D3F8C4206D
:102DD0001368506819780478507A137A044201EA2B
:102DE00003011BD0937A03F0030309B143F00403FA
:102DF00043F008039910013B91720D2B0BD8DFE8CB
:102E000003F021071B070A152121150A071B0721BB
:102E1000D368013BD3605DF8044B7047937A03F0AD
:102E200003030029E6D043F00403E3E7D3685DF829
:102E3000044B023BD3607047D3685DF8044B023308
:102E4000D3607047D3685DF8044B0133D36070479B
:102E500088250020214B10B4D3F8C820136850688F
:102E600019780478507A137A044201EA03011BD0DE
:102E7000937A03F0030309B143F0040343F008031A
:102E80009910013B91720D2B0BD8DFE803F021075D
:102E90001B070A152121150A071B0721D368013BCF
:102EA000D3605DF8044B7047937A03F00303002965
:102EB000E6D043F00403E3E7D3685DF8044B023B3C
:102EC000D3607047D3685DF8044B0233D36070471A
:102ED000D3685DF8044B0133D36070478825002028
:102EE000214B10B4D3F8CC201368506819780478BB
:102EF000507A137A044201EA03011BD0937A03F05B
:102F0000030309B143F0040343F008039910013BA4
:102F100091720D2B0BD8DFE803F021071B070A1570
:102F20002121150A071B0721D368013BD3605DF8F7
:102F3000044B7047937A03F003030029E6D043F073
:102F40000403E3E7D3685DF8044B023BD3607047AA
:102F5000D3685DF8044B0233D3607047D3685DF8E3
:102F6000044B0133D360704788250020214B10B4F7
:102F7000D3F8D0201368506819780478507A137AFF
:102F8000044201EA03011BD0937A03F0030309B161
:102F900043F0040343F008039910013B91720D2B99
:102FA0000BD8DFE803F021071B070A152121150ABA
:102FB000071B0721D368013BD3605DF8044B7047C2
:102FC000937A03F003030029E6D043F00403E3E718
:102FD000D3685DF8044B023BD3607047D3685DF85B
:102FE000044B0233D3607047D3685DF8044B013360
:102FF000D360704788250020214B10B4D3F8D4202B
:103000001368506819780478507A137A044201EAF8
:1030100003011BD0937A03F0030309B143F00403C7
:1030200043F008039910013B91720D2B0BD8DFE898
:1030300003F021071B070A152121150A071B072189
:10304000D368013BD3605DF8044B7047937A03F07B
:1030500003030029E6D043F00403E3E7D3685DF8F7
:10306000044B023BD3607047D3685DF8044B0233D6
:10307000D3607047D3685DF8044B0133D360704769
:1030800088250020214B10B4D3F8D820136850684D
:1030900019780478507A137A044201EA03011BD0AC
:1030A000937A03F0030309B143F0040343F00803E8
:1030B0009910013B91720D2B0BD8DFE803F021072B
:1030C0001B070A152121150A071B0721D368013B9D
:1030D000D3605DF8044B7047937A03F00303002933
:1030E000E6D043F00403E3E7D3685DF8044B023B0A
:1030F000D3607047D3685DF8044B0233D3607047E8
:10310000D3685DF8044B0133D360704788250020F5
:10311000214B10B4DA691368506819780478507A32
:10312000137A044201EA03011BD0937A03F00303EC
:1031300009B143F0040343F008039910013B917275
:103140000D2B0BD8DFE803F021071B070A152121FF
:10315000150A071B0721D368013BD3605DF8044BB8
:103160007047937A03F003030029E6D043F0040389
:10317000E3E7D3685DF8044B023BD3607047D36844
:103180005DF8044B0233D3607047D3685DF8044B9D
:103190000133D360704700BF88250020214B10B455
:1031A0001A6A1368506819780478507A137A0442BE
:1031B00001EA03011BD0937A03F0030309B143F042
:1031C000040343F008039910013B91720D2B0BD8B7
:1031D000DFE803F021071B070A152121150A071B49
:1031E0000721D368013BD3605DF8044B7047937AA5
:1031F00003F003030029E6D043F00403E3E7D368B8
:103200005DF8044B023BD3607047D3685DF8044B14
:103210000233D3607047D3685DF8044B0133D36049
:10322000704700BF88250020214B10B45A6A1368EC
:10323000506819780478507A137A044201EA03013D
:103240001BD0937A03F0030309B143F0040343F066
:1032500008039910013B91720D2B0BD8DFE803F0A6
:1032600021071B070A152121150A071B0721D3680F
:10327000013BD3605DF8044B7047937A03F003037E
:103280000029E6D043F00403E3E7D3685DF8044B7C
:10329000023BD3607047D3685DF8044B0233D360C0
:1032A0007047D3685DF8044B0133D360704700BFAB
:1032B00088250020214B10B49A6A13685068197849
:1032C0000478507A137A044201EA03011BD0937AFE
:1032D00003F0030309B143F0040343F0080399101A
:1032E000013B91720D2B0BD8DFE803F021071B0780
:1032F0000A152121150A071B0721D368013BD3605A
:103300005DF8044B7047937A03F003030029E6D07D
:1033100043F00403E3E7D3685DF8044B023BD3605A
:103320007047D3685DF8044B0233D3607047D368AD
:103330005DF8044B0133D360704700BF882500203F
:10334000214B10B4DA6A1368506819780478507AFF
:10335000137A044201EA03011BD0937A03F00303BA
:1033600009B143F0040343F008039910013B917243
:103370000D2B0BD8DFE803F021071B070A152121CD
:10338000150A071B0721D368013BD3605DF8044B86
:103390007047937A03F003030029E6D043F0040357
:1033A000E3E7D3685DF8044B023BD3607047D36812
:1033B0005DF8044B0233D3607047D3685DF8044B6B
:1033C0000133D360704700BF88250020214B10B423
:1033D0001A6B1368506819780478507A137A04428B
:1033E00001EA03011BD0937A03F0030309B143F010
:1033F000040343F008039910013B91720D2B0BD885
:10340000DFE803F021071B070A152121150A071B16
:103410000721D368013BD3605DF8044B7047937A72
:1034200003F003030029E6D043F00403E3E7D36885
:103430005DF8044B023BD3607047D3685DF8044BE2
:103440000233D3607047D3685DF8044B0133D36017
:10345000704700BF88250020214B10B45A6B1368B9
:10346000506819780478507A137A044201EA03010B
:103470001BD0937A03F0030309B143F0040343F034
:1034800008039910013B91720D2B0BD8DFE803F074
:1034900021071B070A152121150A071B0721D368DD
:1034A000013BD3605DF8044B7047937A03F003034C
:1034B0000029E6D043F00403E3E7D3685DF8044B4A
:1034C000023BD3607047D3685DF8044B0233D3608E
:1034D0007047D3685DF8044B0133D360704700BF79
:1034E00088250020214B10B49A6B13685068197816
:1034F0000478507A137A044201EA03011BD0937ACC
:1035000003F0030309B143F0040343F008039910E7
:10351000013B91720D2B0BD8DFE803F021071B074D
:103520000A152121150A071B0721D368013BD36027
:103530005DF8044B7047937A03F003030029E6D04B
:1035400043F00403E3E7D3685DF8044B023BD36028
:103550007047D3685DF8044B0233D3607047D3687B
:103560005DF8044B0133D360704700BF882500200D
:10357000214B10B4DA6B1368506819780478507ACC
:10358000137A044201EA03011BD0937A03F0030388
:1035900009B143F0040343F008039910013B917211
:1035A0000D2B0BD8DFE803F021071B070A1521219B
:1035B000150A071B0721D368013BD3605DF8044B54
:1035C0007047937A03F003030029E6D043F0040325
:1035D000E3E7D3685DF8044B023BD3607047D368E0
:1035E0005DF8044B0233D3607047D3685DF8044B39
:1035F0000133D360704700BF88250020214B10B4F1
:103600001A6C1368506819780478507A137A044257
:1036100001EA03011BD0937A03F0030309B143F0DD
:10362000040343F008039910013B91720D2B0BD852
:10363000DFE803F021071B070A152121150A071BE4
:103640000721D368013BD3605DF8044B7047937A40
:1036500003F003030029E6D043F00403E3E7D36853
:103660005DF8044B023BD3607047D3685DF8044BB0
:103670000233D3607047D3685DF8044B0133D360E5
:10368000704700BF88250020214B10B45A6C136886
:10369000506819780478507A137A044201EA0301D9
:1036A0001BD0937A03F0030309B143F0040343F002
:1036B00008039910013B91720D2B0BD8DFE803F042
:1036C00021071B070A152121150A071B0721D368AB
:1036D000013BD3605DF8044B7047937A03F003031A
:1036E0000029E6D043F00403E3E7D3685DF8044B18
:1036F000023BD3607047D3685DF8044B0233D3605C
:103700007047D3685DF8044B0133D360704700BF46
:1037100088250020214B10B49A6C136850681978E2
:103720000478507A137A044201EA03011BD0937A99
:1037300003F0030309B143F0040343F008039910B5
:10374000013B91720D2B0BD8DFE803F021071B071B
:103750000A152121150A071B0721D368013BD360F5
:103760005DF8044B7047937A03F003030029E6D019
:1037700043F00403E3E7D3685DF8044B023BD360F6
:103780007047D3685DF8044B0233D3607047D36849
:103790005DF8044B0133D360704700BF88250020DB
:1037A000214B10B4DA6C1368506819780478507A99
:1037B000137A044201EA03011BD0937A03F0030356
:1037C00009B143F0040343F008039910013B9172DF
:1037D0000D2B0BD8DFE803F021071B070A15212169
:1037E000150A071B0721D368013BD3605DF8044B22
:1037F0007047937A03F003030029E6D043F00403F3
:10380000E3E7D3685DF8044B023BD3607047D368AD
:103810005DF8044B0233D3607047D3685DF8044B06
:103820000133D360704700BF88250020214B10B4BE
:103830001A6D1368506819780478507A137A044224
:1038400001EA03011BD0937A03F0030309B143F0AB
:10385000040343F008039910013B91720D2B0BD820
:10386000DFE803F021071B070A152121150A071BB2
:103870000721D368013BD3605DF8044B7047937A0E
:1038800003F003030029E6D043F00403E3E7D36821
:103890005DF8044B023BD3607047D3685DF8044B7E
:1038A0000233D3607047D3685DF8044B0133D360B3
:1038B000704700BF88250020214B10B45A6D136853
:1038C000506819780478507A137A044201EA0301A7
:1038D0001BD0937A03F0030309B143F0040343F0D0
:1038E00008039910013B91720D2B0BD8DFE803F010
:1038F00021071B070A152121150A071B0721D36879
:10390000013BD3605DF8044B7047937A03F00303E7
:103910000029E6D043F00403E3E7D3685DF8044BE5
:10392000023BD3607047D3685DF8044B0233D36029
:103930007047D3685DF8044B0133D360704700BF14
:1039400088250020214B10B49A6D136850681978AF
:103950000478507A137A044201EA03011BD0937A67
:1039600003F0030309B143F0040343F00803991083
:10397000013B91720D2B0BD8DFE803F021071B07E9
:103980000A152121150A071B0721D368013BD360C3
:103990005DF8044B7047937A03F003030029E6D0E7
:1039A00043F00403E3E7D3685DF8044B023BD360C4
:1039B0007047D3685DF8044B0233D3607047D36817
:1039C0005DF8044B0133D360704700BF88250020A9
:1039D000214B10B4DA6D1368506819780478507A66
:1039E000137A044201EA03011BD0937A03F0030324
:1039F00009B143F0040343F008039910013B9172AD
:103A00000D2B0BD8DFE803F021071B070A15212136
:103A1000150A071B0721D368013BD3605DF8044BEF
:103A20007047937A03F003030029E6D043F00403C0
:103A3000E3E7D3685DF8044B023BD3607047D3687B
:103A40005DF8044B0233D3607047D3685DF8044BD4
:103A50000133D360704700BF88250020214B10B48C
:103A60001A6E1368506819780478507A137A0442F1
:103A700001EA03011BD0937A03F0030309B143F079
:103A8000040343F008039910013B91720D2B0BD8EE
:103A9000DFE803F021071B070A152121150A071B80
:103AA0000721D368013BD3605DF8044B7047937ADC
:103AB00003F003030029E6D043F00403E3E7D368EF
:103AC0005DF8044B023BD3607047D3685DF8044B4C
:103AD0000233D3607047D3685DF8044B0133D36081
:103AE000704700BF88250020214B10B45A6E136820
:103AF000506819780478507A137A044201EA030175
:103B00001BD0937A03F0030309B143F0040343F09D
:103B100008039910013B91720D2B0BD8DFE803F0DD
:103B200021071B070A152121150A071B0721D36846
:103B3000013BD3605DF8044B7047937A03F00303B5
:103B40000029E6D043F00403E3E7D3685DF8044BB3
:103B5000023BD3607047D3685DF8044B0233D360F7
:103B60007047D3685DF8044B0133D360704700BFE2
:103B700088250020214B10B49A6E1368506819787C
:103B80000478507A137A044201EA03011BD0937A35
:103B900003F0030309B143F0040343F00803991051
:103BA000013B91720D2B0BD8DFE803F021071B07B7
:103BB0000A152121150A071B0721D368013BD36091
:103BC0005DF8044B7047937A03F003030029E6D0B5
:103BD00043F00403E3E7D3685DF8044B023BD36092
:103BE0007047D3685DF8044B0233D3607047D368E5
:103BF0005DF8044B0133D360704700BF8825002077
:103C0000214B10B4DA6E1368506819780478507A32
:103C1000137A044201EA03011BD0937A03F00303F1
:103C200009B143F0040343F008039910013B91727A
:103C30000D2B0BD8DFE803F021071B070A15212104
:103C4000150A071B0721D368013BD3605DF8044BBD
:103C50007047937A03F003030029E6D043F004038E
:103C6000E3E7D3685DF8044B023BD3607047D36849
:103C70005DF8044B0233D3607047D3685DF8044BA2
:103C80000133D360704700BF88250020214B10B45A
:103C90001A6F1368506819780478507A137A0442BE
:103CA00001EA03011BD0937A03F0030309B143F047
:103CB000040343F008039910013B91720D2B0BD8BC
:103CC000DFE803F021071B070A152121150A071B4E
:103CD0000721D368013BD3605DF8044B7047937AAA
:103CE00003F003030029E6D043F00403E3E7D368BD
:103CF0005DF8044B023BD3607047D3685DF8044B1A
:103D00000233D3607047D3685DF8044B0133D3604E
:103D1000704700BF88250020214B10B45A6F1368EC
:103D2000506819780478507A137A044201EA030142
:103D30001BD0937A03F0030309B143F0040343F06B
:103D400008039910013B91720D2B0BD8DFE803F0AB
:103D500021071B070A152121150A071B0721D36814
:103D6000013BD3605DF8044B7047937A03F0030383
:103D70000029E6D043F00403E3E7D3685DF8044B81
:103D8000023BD3607047D3685DF8044B0233D360C5
:103D90007047D3685DF8044B0133D360704700BFB0
:103DA00088250020214B10B49A6F13685068197849
:103DB0000478507A137A044201EA03011BD0937A03
:103DC00003F0030309B143F0040343F0080399101F
:103DD000013B91720D2B0BD8DFE803F021071B0785
:103DE0000A152121150A071B0721D368013BD3605F
:103DF0005DF8044B7047937A03F003030029E6D083
:103E000043F00403E3E7D3685DF8044B023BD3605F
:103E10007047D3685DF8044B0233D3607047D368B2
:103E20005DF8044B0133D360704700BF8825002044
:103E3000214B10B4DA6F1368506819780478507AFF
:103E4000137A044201EA03011BD0937A03F00303BF
:103E500009B143F0040343F008039910013B917248
:103E60000D2B0BD8DFE803F021071B070A152121D2
:103E7000150A071B0721D368013BD3605DF8044B8B
:103E80007047937A03F003030029E6D043F004035C
:103E9000E3E7D3685DF8044B023BD3607047D36817
:103EA0005DF8044B0233D3607047D3685DF8044B70
:103EB0000133D360704700BF88250020214B10B428
:103EC000D3F880201368506819780478507A137AF0
:103ED000044201EA03011BD0937A03F0030309B102
:103EE00043F0040343F008039910013B91720D2B3A
:103EF0000BD8DFE803F021071B070A152121150A5B
:103F0000071B0721D368013BD3605DF8044B704762
:103F1000937A03F003030029E6D043F00403E3E7B8
:103F2000D3685DF8044B023BD3607047D3685DF8FB
:103F3000044B0233D3607047D3685DF8044B013300
:103F4000D360704788250020214B10B4D3F884201B
:103F50001368506819780478507A137A044201EA99
:103F600003011BD0937A03F0030309B143F0040368
:103F700043F008039910013B91720D2B0BD8DFE839
:103F800003F021071B070A152121150A071B07212A
:103F9000D368013BD3605DF8044B7047937A03F01C
:103FA00003030029E6D043F00403E3E7D3685DF898
:103FB000044B023BD3607047D3685DF8044B023377
:103FC000D3607047D3685DF8044B0133D36070470A
:103FD00088250020214B10B4D3F88820136850683E
:103FE00019780478507A137A044201EA03011BD04D
:103FF000937A03F0030309B143F0040343F0080389
:104000009910013B91720D2B0BD8DFE803F02107CB
:104010001B070A152121150A071B0721D368013B3D
:10402000D3605DF8044B7047937A03F003030029D3
:10403000E6D043F00403E3E7D3685DF8044B023BAA
:10404000D3607047D3685DF8044B0233D360704788
:10405000D3685DF8044B0133D36070478825002096
:10406000214B10B4D3F88C20136850681978047869
:10407000507A137A044201EA03011BD0937A03F0C9
:10408000030309B143F0040343F008039910013B13
:1040900091720D2B0BD8DFE803F021071B070A15DF
:1040A0002121150A071B0721D368013BD3605DF866
:1040B000044B7047937A03F003030029E6D043F0E2
:1040C0000403E3E7D3685DF8044B023BD360704719
:1040D000D3685DF8044B0233D3607047D3685DF852
:1040E000044B0133D360704788250020214B10B466
:1040F000D3F890201368506819780478507A137AAE
:10410000044201EA03011BD0937A03F0030309B1CF
:1041100043F0040343F008039910013B91720D2B07
:104120000BD8DFE803F021071B070A152121150A28
:10413000071B0721D368013BD3605DF8044B704730
:10414000937A03F003030029E6D043F00403E3E786
:10415000D3685DF8044B023BD3607047D3685DF8C9
:10416000044B0233D3607047D3685DF8044B0133CE
:10417000D360704788250020214B10B4D3F89420D9
:104180001368506819780478507A137A044201EA67
:1041900003011BD0937A03F0030309B143F0040336
:1041A00043F008039910013B91720D2B0BD8DFE807
:1041B00003F021071B070A152121150A071B0721F8
:1041C000D368013BD3605DF8044B7047937A03F0EA
:1041D00003030029E6D043F00403E3E7D3685DF866
:1041E000044B023BD3607047D3685DF8044B023345
:1041F000D3607047D3685DF8044B0133D3607047D8
:1042000088250020214B10B4D3F8982013685068FB
:1042100019780478507A137A044201EA03011BD01A
:10422000937A03F0030309B143F0040343F0080356
:104230009910013B91720D2B0BD8DFE803F0210799
:104240001B070A152121150A071B0721D368013B0B
:10425000D3605DF8044B7047937A03F003030029A1
:10426000E6D043F00403E3E7D3685DF8044B023B78
:10427000D3607047D3685DF8044B0233D360704756
:10428000D3685DF8044B0133D36070478825002064
:10429000002310B4114C4172026104600372C360C8
:1042A00041B1194600E0026942F82310427A013315
:1042B0009A42F8DC0A4B1A680AB90CE01A465369AC
:1042C000002BFBD15061002343618380C380837244
:1042D0005DF8044B70471860F5E700BFDC940200FE
:1042E0009828002014490A68002310B4134C046075
:1042F000437203610372C3600AB91AE01A46536934
:10430000002BFBD1506100230D4943614FF08042E7
:104310008380C38083728361C36103624362C3622B
:10432000038643868386C386016082625DF8044B00
:1043300070470860E7E700BF98280020DC9402007F
:10434000AC1D040000211C4B036010B400F11802E6
:1043500002240B46447202610172C16000E00269EE
:1043600042F82310427A01339A42F8DC134B1A6860
:104370000AB91FE01A465369002BFBD15061002394
:104380000F4943614FF400428380C380837203620C
:104390004362C3620363A0F83432A0F8363280F877
:1043A000383280F83932A0F83A32016082625DF822
:1043B000044B70471860E2E7DC9402009828002064
:1043C000B81D0400F5EEC00AF1EE10FAF7EE007A1F
:1043D000B4EEE70A3FD9F1EE10FA1FDD444ADFEDF3
:1043E000457A60EEA70AFDEEE07A17EE903A63B3E5
:1043F00072B6C1690262914259D030B481FAA2F416
:10440000EFF300852D0130D494FBF3F3002B37D06C
:1044100043620123037662B630BC7047BFEE007A78
:10442000B4EEC70AF1EE10FA45D4DFED326A60EE61
:10443000A60AFDEEE06A16EE903A002B46D1B4EEE5
:10444000E70AF1EE10FA38DD294A72B60023C2619C
:10445000037662B67047F1EE10FA18DD244B72B69F
:104460000022C361027662B670475D1C022D91BFC7
:10447000234692FBF3F491FBF3F3E31A002BC7D12D
:104480009142ACBF4FF0FF3201224262C1E7FFEE22
:10449000007AB4EEE70AF1EE10FA15D4DFED167AE1
:1044A00020EE270AFDEEC07A17EE903AD7E70023F8
:1044B000037662B67047114A91E7B4EEC70AF1EE8F
:1044C00010FA0CD50D4AC0E70C4BC8E7DFED0A7AAD
:1044D00020EE270AFDEEC07A17EE902A88E7DFED7E
:1044E000067A20EE270AFDEEC07A17EE902AACE796
:1044F0000000FF7F7978304200FEFF4E000001800F
:104500002DE9F84F804672B600252E4629464FF019
:10451000C80B0CE0B3F92020002A05DDB3F92220F6
:10452000002A05F101050BDB0135FF2D3BD808EB17
:1045300045030029EED0013505F1100338F91320A9
:10454000D8F81C001949A2F5FF427F3A0BFB02F292
:10455000B7B281FB021408EB4606016807F10F09A8
:104560000FFA89F94FEAE27E00231444D1F810A033
:10457000B6F920224946AEEBE434D047D8F81C0007
:10458000263C036824B249462246D3F810900135F0
:104590004FF4F663C8470137FF2DA6F820424FF0CD
:1045A00001013EB2C3D962B6BDE8F88F0180008038
:1045B00038B572B6D0F8205305F110025200931EA0
:1045C00002F1FE0403448A1E044432F9021F23F858
:1045D000021FA342F9D105F18003FF2BC0F820335D
:1045E00004D90023C0F82033FFF78AFF62B638BD34
:1045F000C2697AB138B5002104461DF069F8054654
:1046000048B12046291DFFF7D3FF2846BDE83840B2
:104610001DF01AB8704738BD2DE9F047884682B0C2
:10462000064615469A4601F1FF3900277C1CA54233
:1046300006D80023384608F8073002B0BDE8F087F6
:1046400001220DF10701304615F034FA0128F0D1AE
:104650009DF807100D29EAD009F8011F504621F0F6
:10466000CBF827460028E1D0E3E700BF2DE9F04171
:10467000DFF880801D4F8AB00C46054601F5407674
:10468000284615F077F910B90AB0BDE8F081142278
:10469000A642174B0DEB02012846F5D0FFF7BCFFF1
:1046A0000AAA431E134400210028EDD013F8142C4D
:1046B0002C2A18D00A2A284615D015F05BF90721B4
:1046C000002814BF404638461CF030FE05A901A85A
:1046D0001DF004FC01A920461DF0ACFC01A81DF052
:1046E000BDFB1034CCE703F8141CEFE770AC0300FB
:1046F00078AC030068AC030030B5044689B00D46C1
:104700001A48214615F0BCFB58BB684613232246C5
:10471000164915F041FB684615F0E0F990B91921EA
:1047200013481CF003FE204621F0AAFA0146204659
:104730001CF0FCFD0F481DF0EBFA684615F0AEF9D1
:1047400009B030BD294668461DF0BCFA68461DF028
:10475000DFFA684615F0B4F9684615F09FF909B01C
:1047600030BD2146014815F099FBCEE7741B0020AF
:104770007CAC0300B047FF1F70B588B006466846A2
:104780000D461DF0BFFB05F1100405F540756946A7
:1047900004A81DF0B7FB104904A81DF0C9FC214670
:1047A0001DF0BEFC014668461DF03CFC103404A818
:1047B0001DF054FBAC42EAD1694604A81DF0A2FBEF
:1047C00004A93046FFF798FF04A81DF047FB684690
:1047D0001DF044FB08B070BD98AC030010B5014655
:1047E0000446054815F04CFB00B910BD21460248AF
:1047F000BDE8104015F052BB741B002008B50B46F5
:104800003B2800F2C682DFE810F0BB02B202A90228
:10481000A00297028E0285027C0273026A02610284
:1048200058024F0246023D0234022B0222021902B4
:1048300010020702AE01A5019C0193018A018101CA
:1048400078016F0166015D0154014A0140013601A2
:104850002C01220118010E010401FA00F000E6000B
:10486000DC00D200C800BE00B400AA00A000960080
:104870008C00820078006E0064005A0050004600F0
:104880003C00BD4ABD49C2F8EC303B2004221BF07D
:1048900079F9012008BDB84AB949C2F8E8303A2090
:1048A00004221BF06FF9012008BDB34AB549C2F8D4
:1048B000E430392004221BF065F9012008BDAE4A1E
:1048C000B149C2F8E030382004221BF05BF9012026
:1048D00008BDA94AAD49C2F8DC30372004221BF0DC
:1048E00051F9012008BDA44AA949C2F8D8303620A0
:1048F00004221BF047F9012008BD9F4AA549C2F8D0
:10490000D430352004221BF03DF9012008BD9A4A1D
:10491000A149C2F8D030342004221BF033F9012021
:1049200008BD954A9D49C2F8CC30332004221BF0C3
:1049300029F9012008BD904A9949C2F8C8303220AF
:1049400004221BF01FF9012008BD8B4A9549C2F8CB
:10495000C430312004221BF015F9012008BD864A1D
:104960009149C2F8C030302004221BF00BF901201D
:1049700008BD814A8D49C2F8BC302F2004221BF0AB
:1049800001F9012008BD7C4A8949C2F8B8302E20BF
:1049900004221BF0F7F8012008BD774A8549C2F8C8
:1049A000B4302D2004221BF0EDF8012008BD724A1E
:1049B0008149C2F8B0302C2004221BF0E3F801201A
:1049C00008BD6D4A7D49C2F8AC302B2004221BF093
:1049D000D9F8012008BD684A7949C2F8A8302A20D0
:1049E00004221BF0CFF8012008BD634A7549C2F8C4
:1049F000A430292004221BF0C5F8012008BD5E4A1E
:104A00007149C2F8A030282004221BF0BBF8012015
:104A100008BD594A6D49C2F89C30272004221BF07A
:104A2000B1F8012008BD544A6949C2F898302620DF
:104A300004221BF0A7F8012008BD4F4A6549C2F8BF
:104A40009430252004221BF09DF8012008BD4A4A1D
:104A50006149C2F89030242004221BF093F8012011
:104A600008BD454A5D49C2F88C30232004221BF062
:104A700089F8012008BD404A5949C2F888302220EF
:104A800004221BF07FF8012008BD3B4A5549C2F8BB
:104A90008430212004221BF075F8012008BD364A1D
:104AA0005149C2F88030202004221BF06BF801200D
:104AB00008BD314A4D49D3671F2004221BF062F81C
:104AC000012008BD2C4A4A4993671E2004221BF08E
:104AD00059F8012008BD284A464953671D20042281
:104AE0001BF050F8012008BD234A434913671C20DE
:104AF00004221BF047F8012008BD1F4A3F49D36636
:104B00001B2004221BF03EF8012008BD1A4A3C4934
:104B100093661A2004221BF035F8012008BD164ABE
:104B200038495366192004221BF02CF8012008BDD7
:104B3000114A35491366182004221BF023F801207E
:104B400008BD0D4A3149D365172004221BF01AF81D
:104B5000012008BD084A2E499365162004221BF047
:104B600011F8012008BD044A2A4953651520042282
:104B70001BF008F8012008BD88250020C121000095
:104B8000F123000065230000D92200004D2200001F
:104B900085300000F92F00006D2F0000E12E00008D
:104BA000552E0000C92D00003D2D0000B12C000045
:104BB000252C0000992B00000D2B0000812A0000FD
:104BC000F529000069290000DD28000051280000B7
:104BD0000542000079410000ED4000006140000006
:104BE000D53F0000493F0000BD3E0000313E0000BF
:104BF000A53D0000193D00008D3C0000013C000077
:104C0000753B0000E93A00005D3A0000D139000030
:104C100045390000B93800005F4A60491365142027
:104C200004221AF0AFFF012008BD5B4A5C49D3643F
:104C3000132004221AF0A6FF012008BD564A594944
:104C40009364122004221AF09DFF012008BD524AED
:104C500055495364112004221AF094FF012008BD25
:104C60004D4A52491364102004221AF08BFF012090
:104C700008BD494A4E49D3630F2004221AF082FF2F
:104C8000012008BD444A4B4993630E2004221AF0C8
:104C900079FF012008BD404A474953630D20042293
:104CA0001AF070FF012008BD3B4A444913630C20F1
:104CB00004221AF067FF012008BD374A4049D36239
:104CC0000B2004221AF05EFF012008BD324A3D4944
:104CD00093620A2004221AF055FF012008BD2E4AD3
:104CE00039495362092004221AF04CFF012008BD03
:104CF000294A36491362082004221AF043FF012092
:104D000008BD254A3249D361072004221AF03AFF30
:104D1000012008BD204A2F499361062004221AF081
:104D200031FF012008BD1C4A2B4953610520042294
:104D30001AF028FF012008BD174A284913610422F0
:104D400010461AF01FFF012008BD134A2449D36002
:104D5000032004221AF016FF012008BD0E4A214943
:104D60009360022004221AF00DFF012008BD0A4AB8
:104D70001D495360012004221AF004FF012008BDE0
:104D8000054A1A491360002004221AF0FBFE012094
:104D900008BD002008BD00BF882500202D38000078
:104DA000A13700001537000089360000FD350000EE
:104DB00071350000E534000059340000CD330000A7
:104DC00041330000B5320000293200009D3100005F
:104DD00011310000C527000039270000AD26000072
:104DE0002126000095250000092500007D240000F3
:104DF00010B5374C23681021D86F19F0B9FD23681E
:104E00000C21D86F19F048FE23680021D86F19F0E3
:104E1000F3FC23680221D86F19F08EFE236810215D
:104E2000D3F8800019F0A4FD23680C21D3F880008A
:104E300019F032FE23680021D3F8800019F0DCFC61
:104E400023680221D3F8800019F076FE01211C208E
:104E50001AF03AFF01211B201AF036FF01211A2017
:104E60001AF032FF012119201AF02EFF022127200B
:104E70001AF02AFF02211E201AF026FF0221242008
:104E80001AF022FF022110201AF01EFF0221112029
:104E90001AF01AFF022118201AF016FF02210C2026
:104EA0001AF012FF02210A201AF00EFF012122201F
:104EB0001AF00AFF012123201AF006FF0121252004
:104EC0001AF002FF01210E20BDE810401AF0FCBECE
:104ED000EC6AFF1F70B5394C82B04FF6FF75204663
:104EE0000B260021FBF7C6FA2046019500962E23DB
:104EF0001E222A2113F01CFD0195009620463D2319
:104F00001E225821FBF7D0FF1F232D2220462C49BB
:104F10002382E28114F0B4F92046012114F0A8F9AB
:104F200007222849A582204665821CF0B5FE20464E
:104F30001CF0EEFE5B26002309222349A3822525CF
:104F4000204663822582E6811CF0A6FE20461CF0E6
:104F5000DFFE4FF6E07320461C49A382638214F003
:104F60008FF946230522204601212382E28114F095
:104F70007FF90622164920461CF08EFE20461CF0C2
:104F8000C7FE4FF4784320461249A382638214F08F
:104F900077F9114B1D686E225F232846E281238238
:104FA00020F06EFE2946024620461CF075FE204683
:104FB00002B0BDE870401CF0ABBE00BF0C02002088
:104FC000A49B020040AD030048AD030028A00300ED
:104FD00054AD030018A003007443FF1F2A4B1B7835
:104FE000002B50D072B629490B7F03F0FF020BB1A2
:104FF00000230B7762B6002A45D070B584B072B634
:1050000047F6FF744FF40040B1F91E30B1F920208B
:10501000CC83088462B683EAE371A1EBE37182EA90
:10502000E273A3EBE2738B42B8BF0B4607EE903AF4
:105030009FED176ADFED176A1748F8EEE77A9E21B1
:1050400087EE867A67EE267AFDEEE77ACDED037A73
:10505000BDF80C30BDF90C40482BC3F167068CBF7E
:105060004FF478454FF4FC6536B22346324600953E
:10507000FBF72EFD0095234632469F210648FBF79D
:1050800027FD04B070BD7047607DFF1FD400002075
:1050900000FEFF46000096420C0200202DE9F04180
:1050A000994C82B000212046FBF7E4F9204697494D
:1050B00014F0E6F805254FF6E0733522204601216D
:1050C0002282A3826382E58114F0D2F890492046BF
:1050D0001CF0F8FD20461CF01BFE002320468D49E5
:1050E000A382638214F0CCF88B4B1B78002B40F02A
:1050F000F380854EDFF848820C251F27FFF76EFFEF
:1051000030462B461C2273218DE8A00013F010FCC2
:105110002B4630461C2282218DE8A00013F008FCAB
:105120002B4630461C2291218DE8A00013F000FC94
:105130002B4630462B2273218DE8A00013F0F8FB9C
:105140002B4630462B2282218DE8A00013F0F0FB85
:105150002B468DE8A00030462B22912113F0E8FB6E
:1051600098F80830002B40F0A28098F81430002BFB
:1051700040F0878098F82030002B6CD198F82C30C4
:10518000002B52D198F83830002B38D198F84430A1
:10519000A3B10C231F22019200932B2291215A4884
:1051A000FBF782FE9425332301225C495648E581B2
:1051B00023821CF071FD54481CF0AAFD63895248FB
:1051C0004FF47842143B1BB200920A213E22FBF7B7
:1051D0006BFD53494C4814F053F801254FF6FF730B
:1051E0005A2250494848E5812282A38263821CF0FA
:1051F00069FD454802B0BDE8F0411CF089BD0C23B3
:105200001F22019200932B2282213F48FBF74CFE84
:1052100085253323012244493B48E58123821CF044
:105220003BFD39481CF074FDB0E70C231F220192AE
:1052300000932B2273213448FBF736FE7625332367
:1052400001223A493048E58123821CF025FD2E4891
:105250001CF05EFD96E70C231F22019200931C2296
:1052600091212948FBF720FE94252423012230496F
:105270002548E58123821CF00FFD23481CF048FDE2
:105280007CE70C231F22019200931C2282211E48DE
:10529000FBF70AFE85252423012226491A48E581C9
:1052A00023821CF0F9FC18481CF032FD62E72B4603
:1052B00030468DE8A0001C227321FBF7F5FD782015
:1052C0002423F08101221C49338230461CF0E4FC87
:1052D00030461CF01DFD48E707224FF47C438DE863
:1052E0000C00204613231C225D21FBF7DDFD5E2010
:1052F0002123E08103221149238220461CF0CCFCAB
:1053000020461CF005FDF4E60C020020B49D0200CE
:105310005481FF1FA49B0200D00100206CAD03004C
:10532000189A0300900F002068AD030044B40300F6
:1053300064AD03005CB4030060AD03005CAD03002A
:105340000C43FF1F30B5F2EE0E7A2DED028BF2EE1C
:105350000A8AE0EE287A85B040F2FF750095FDEEEE
:10536000E77A4A22CDED037ABDF90C301C486C2156
:10537000B0EE408AFBF798FCDFED1A7A0095E8EE74
:10538000287A14234A221648FDEEE77ACDED037AF7
:10539000BDF90C402146FBF79BFBF3EE007AE8EEEB
:1053A000687A214600955E22FDEEE77A0C48CDED45
:1053B000037ABDF90C30FBF777FCB5EEC08AF1EE4D
:1053C00010FA00954FF015034FF04A024CBF6C21C4
:1053D0008A210348FBF77CFB05B0BDEC028B30BD96
:1053E0000C0200200000F642DFED127AB2EE0A7ADB
:1053F000F0B5E0EE077A85B00F4DFDEEE77A40F2AA
:10540000FF77CDED037ABDF90C4001974A26284677
:10541000234600965E226E2113F03AFA5E23009333
:105420002146019732462846882313F031FA05B009
:10543000F0BD00BF0000F6420C020020F0B52DEDDB
:10544000068BDFED348A344DB2EE0E9AF0EE687AB8
:10545000E0EE097A85B040F2FF764A27FDEEE77A62
:10546000B0EE408ACDED027ABDF908400097F0EE2B
:1054700060AA2846234601965E226421B0EE41AA26
:10548000F0EE619A13F004FA38EE2A8ADFED237AFF
:105490000196B3EE047AE8EE098A3A462146EAEE2E
:1054A000477A2846BDEEE87AFDEEE77A8DED027A7E
:1054B000CDED037ABDF90870BDF90C4000943B4670
:1054C00013F0E6F9DFED167A0096E8EE497A3946F0
:1054D00022462846FDEEE77ACDED027ABDF9083086
:1054E000FBF7E2FBDFED0F7A0196B2EE0A7AE9EE06
:1054F000877A5E2300932246FDEEE77A2846CDEDBB
:10550000027ABDF908308B2113F0C2F905B0BDEC69
:10551000068BF0BD0000C8420C0200200000BC4217
:105520000000204200000B4330B5464C83B0002100
:105530002046FAF79FFF2046434913F0A1FE0025BD
:105540004FF6E0733522204601212282A382638236
:10555000E58113F08DFE3D4920461CF0B3FB20464B
:105560001CF0D6FB63894FF47842143B1BB22046F3
:1055700000920A213E22FBF797FB4FF6FF755A2354
:105580000122334923822046E281A58265821CF0F4
:1055900099FB20461CF0BCFB2E4B1B78002B3ED108
:1055A0002D4B1B68013B032B4AD8DFE803F0302862
:1055B0001B022A4B2A492B4A93ED000AD1ED001A0F
:1055C000DFED297AD2ED000A284B93ED001A61EE47
:1055D000A71A60EEA70A20EE270A03B0BDE8304004
:1055E000FFF72CBF224B2349234A93ED000AD1ED4C
:1055F000001ADFED1D7AD2ED000A204BE5E7204BC3
:1056000093ED000A03B0BDE83040FFF7EDBE1C4B40
:1056100093ED000A03B0BDE83040FFF793BE42F2BD
:1056200022230093204605234622962113F098FA60
:1056300000952046042346229221FBF735FBAFE775
:1056400003B030BD0C020020189A0300507DFF1FEC
:10565000F4FDFF1F80ECFF1F040300208C43FF1F9D
:10566000D042FF1FD842FF1F17B7D1389443FF1F06
:105670009C43FF1FE042FF1FF842FF1FC442FF1F71
:10568000081600202DE9F047544C554F88B02046AD
:105690000021FAF7EFFE2046524913F0F1FD4FF6D4
:1056A000E07535230522204601212382E281A5826F
:1056B000658213F0DDFD07224B4920461CF0ECFA11
:1056C00020461CF025FB63894FF47842143B1BB243
:1056D0002046009244F610693C220A21FBF7E4FAC6
:1056E0002046424913F0CCFD57F80910A58251F825
:1056F000043B03934FF000084E2604A8A4F80E8044
:10570000268265821CF0FEFB039920461CF050FBAC
:1057100020461CF0FDFA04A81CF0A0FB57F8091065
:10572000268251F8043B03934FF6FF764FF023098E
:1057300004A8A4F80E90A68266821CF0E3FB04A9DC
:1057400020461CF0BFFA20461CF0E2FA04A81CF028
:1057500085FB44F60C6A4FF4204E1722CDF804E086
:10576000B4F90A300092414655222046FBF79CFBD3
:1057700057F80A10A4F80E8051F8043B03934FF039
:10578000620804A8A5826582A4F810801CF0BAFB08
:10579000039920461CF00CFB20461CF0B9FA04A823
:1057A0001CF05CFB57F80A10A4F80E9051F8043B6B
:1057B000039304A8A4F81080A68266821CF0A2FBC2
:1057C00004A920461CF07EFA20461CF0A1FA04A889
:1057D0001CF044FB08B0BDE8F08700BF0C020020BD
:1057E0006082FF1FB49D020070AD030018A003008B
:1057F00038B5154C00212046FAF73CFE20461349E7
:1058000013F03EFD02254FF6E073352220460121BC
:10581000A3826382E581228213F02AFD0B220C49C8
:1058200020461CF039FA20461CF072FA0A255A2349
:10583000204607220749E58123821CF02DFA2046E5
:10584000BDE838401CF064BA0C020020189A03002E
:1058500078AD030084AD030038B5154C0021204617
:10586000FAF708FE2046134913F00AFD4FF6E073DD
:1058700020460121A3826382052513F0F9FC35231C
:105880000D220D4923822046E5811CF005FA2046B1
:105890001CF03EFA5A2320460D220849E581238256
:1058A0001CF0FAF92046BDE838401CF031BA00BFC0
:1058B0000C020020189A03008CAD03009CAD03007D
:1058C00030B51D4C83B020460021FAF7D3FD2046A9
:1058D0001A4913F0D5FC4FF6E07320460121A3824C
:1058E0006382002513F0C4FC35230C221449238263
:1058F0002046E5811CF0D0F920461CF009FA6389A6
:105900004FF47842143B204600921BB23E220A21FB
:10591000FBF7CAF905254FF6FF735A2220460949BD
:10592000E5812282A38263821CF0CCF9204603B079
:10593000BDE830401CF0ECB90C020020189A0300BE
:10594000ACAD0300E07FFF1F2DE9F043A1F1080398
:1059500085B0174E00F1080700F110080FFA81FE1C
:1059600005B291463FB20FFA88F81AB20C463B4690
:105970008DE8040129467246CDF808E03046CDF89E
:105980000C90A6F810E0F58113F028F9221D0C34D4
:1059900012B224B2CDF804803B462946CDF80C90D3
:1059A00030460292009413F019F905B0BDE8F08377
:1059B0000C020020F0B52D4C2D4E83B02046002166
:1059C000FAF758FD20462B4913F05AFC4FF6E075C4
:1059D00001212046A582658213F04AFC264B1F68F0
:1059E0000022352338462382E28120F049F93946E6
:1059F000024620461CF050F920461CF089F9336815
:105A0000082B2CD0638919484FF47842143B0A21A3
:105A10001BB200923E22FBF747F9184B1F68052284
:105A20005A234FF6FF7538462382E281A5826582AC
:105A300020F026F9394602460C481CF02DF90B4897
:105A40001CF066F93368092B01D003B0F0BD2A467B
:105A500050218C2003B0BDE8F040FFF775BF2A4607
:105A60002A218C20FFF770FFCCE700BF0C0200203A
:105A70007C43FF1F189A0300CC42FF1F5443FF1FB3
:105A800010B52DED028B0C4684B0B0EE408A014675
:105A90000E481CF0D7FAB0EE480A022168461CF006
:105AA00077FA69460A481CF0C5FA68461CF0D6F930
:105AB000084B0949094A1B6881ED008A14600BB93B
:105AC000FCF7E4F904B0BDEC028B10BD507DFF1F64
:105AD000F4FDFF1F0064FF1F0816002004030020D0
