:1000000000000320D1010000B9F6010071F60100E3
:1000100071F6010071F6010071F6010071F6010040
:1000200071F6010071F6010071F60100B9F60100E8
:10003000B9F6010071F60100491B02004D1B0200D8
:10004000B9F60100B9F60100B9F60100B9F60100F0
:10005000B9F60100B9F60100B9F60100B9F60100E0
:10006000B9F60100B9F60100B9F60100B9F60100D0
:10007000B9F60100B9F60100B9F60100B9F60100C0
:10008000B9F60100B9F60100B9F60100B9F60100B0
:10009000B9F60100B9F60100B9F60100B9F60100A0
:1000A000F5990100019A0100B9F60100B9F60100C5
:1000B000B9F60100B9F60100B9F60100B9F6010080
:1000C000B9F60100B9F60100B9F60100B9F6010070
:1000D000B9F60100CD2D0200B9F60100B9F6010014
:1000E000B9F60100B9F60100B9F60100B9F6010050
:1000F000B9F60100B9F60100B9F60100B9F6010040
:10010000051D0200191D02002D1D0200411D0200E7
:10011000B9F6010065010200B9F60100B9F6010067
:10012000B9F60100B9F60100B9F60100B9F601000F
:10013000B9F60100B9F60100B9F60100B9F60100FF
:10014000FD180200B9F60100B9F60100B9F6010088
:10015000B9F60100B9F60100B9F60100B9F60100DF
:10016000B9F60100B9F601000D9A0100B9F60100D7
:10017000B9F60100B9F60100B9F60100B9F60100BF
:10018000B9F60100B9F60100B9F60100B9F60100AF
:10019000B9F60100B9F60100B9F60100B9F601009F
:1001A000B9F60100B9F60100B9F60100B9F601008F
:1001B000B9F60100B9F60100B9F60100B9F601007F
:1001C000B9F60100B9F60100B9F60100B9F601006F
:1001D0005C4B4CF2205210B51A804DF628121A8052
:1001E00000BF00BF1FF06CFA574B4FF030621A602F
:1001F000564A9A60564ADA60564B4FF470021A60BB
:10020000554B564A1A60564B1A78110703D51A787F
:1002100042F008021A70534B5349AA221A70534AEB
:10022000534B8B4204D252F8040F43F8040BF8E707
:10023000504B514900228B4202D243F8042BFAE77B
:100240004E494F4A002352F8230041F8230001335E
:10025000742BF8D14B4B4C4A802103F8011B93427D
:10026000FBD14A4B454A1A60494B8A221A70A3F5C2
:10027000805324225A70A0221A709A799207FCD5D2
:100280009A79D406FCD4434A937903F00C03082BE3
:10029000FAD1414B60221A7002331A78802AFCD1BD
:1002A0003C4B01221A715D225A719A799006FCD555
:1002B0009979384A4906FBD5384B394919600021EC
:1002C000596020231370937903F00C030C2BFAD19F
:1002D000344B354A1A60354A354C136813F4807331
:1002E00003D123604FF4A8531360324B324A1A6093
:1002F00000225A60072243F8042C304AC3F80C2D20
:1003000062B61FF0BBFD2368DA0705D52C481FF045
:1003100013FD2C4B2C4A1A602C4B1B785B0609D51D
:10032000284C294B22689A4204D125481FF004FD2D
:100330000023236025F082FB1FF0C8F921F0AAFFFB
:10034000FEE700BF0E20054030800440823F0400DD
:100350000100002B88ED00E0002008E0030000858C
:1003600002D0074000E00740F852FF1F08F10300E9
:10037000B041FF1F0060FF1F883B00200036FF1FB9
:100380000000000000E400E064E400E008ED00E0AC
:10039000005006400040064001E007404480044011
:1003A0000000060204800440C010070010D0034083
:1003B00014D0034014E000E01FBF02000000202022
:1003C000FACD635F1CE00340A5C3945A00F00740D8
:1003D000FFFFFFFFFFFFFFFFFFFFFFFFFFFFFFFF2D
:1003E000FFFFFFFFFFFFFFFFFFFFFFFFFFFFFFFF1D
:1003F000FFFFFFFFFFFFFFFFFFFFFFFFFFFFFFFF0D
:10040000FFFFFFFFFFFFFFFFFFFFFFFFDEF9FFFF23
:1004100010B5054C237833B9044B13B10448AFF33E
:1004200000800123237010BD0060FF1F000000004A
:1004300004F10300084B10B51BB108490848AFF39D
:1004400000800848036803B910BD074B002BFBD0A0
:10045000BDE81040184700BF000000000460FF1F07
:1004600004F10300F852FF1F000000000020704755
:10047000704700BF10B582B0B0F90C20019101683F
:10048000009200220C6CB0F90A301146A04702B06D
:1004900010BD00BFC36C01221A70036D5BB11A68F6
:1004A00041F080514FF00043D3625163D36A002B77
:1004B000FCDA936B7047F0B54FEA112E08248025C3
:1004C0001EEA050F066C14BF012700273770466C23
:1004D0003270466C013C4FEA55053370F0D1036D24
:1004E000C9B24BB11A684FF00043D3625163D36A6B
:1004F000002BFCDA936BF0BD082280230127194200
:10050000056C14BF012600262E70456C2F70456CBB
:10051000013A4FEA53032C70F1D1F0BD2DE9F047B9
:100520000446894690468021A02200251F469DF85A
:1005300020609DF824A018F0A9FA144A14492160FB
:10054000226304F17C0084F8349084F8358084F8C8
:1005500036A084F8377084F8386084F82150256517
:1005600084F85450A565E5652566294621F008FA0A
:10057000A022802384F8685084F874506566E5668C
:10058000A285E3852046BDE8F08700BF0320003840
:10059000FCA7020090F8213063B190F83A30826DE8
:1005A000006E41EA03415163D36A03F4704383420E
:1005B000FAD87047C26C1370036D4BB11A684FF0D4
:1005C0000043D3625163D36A002BFCDA936B70470C
:1005D000F0B408221C46012780231942056C14BF81
:1005E000012600262E70456C2F70456C013A4FEAAB
:1005F00053032C70F1D1F0BC704700BF90F821304C
:10060000FBB190F83A30826D41EA034343F0006356
:100610001168536302E013F0F00F10D1D36AD800D1
:10062000F9D54FF08053D3621160D36A13F0F00F05
:1006300029D0936BD36A13F0F00FFAD17047936B04
:10064000ECE7C26C1370036D4BB11A684FF00043B6
:10065000D3625163D36A002BFCDA936B7047F0B41A
:1006600008221C46012780231942056C14BF01266D
:1006700000262E70456C2F70456C013A4FEA5303EB
:100680002C70F1D1F0BC7047036D70B504467BB19E
:10069000D87A226B002836D11B68D868904207D0E0
:1006A0002C4D1D602C48DA6042F080451D611860B9
:1006B000A36C0BB100221A7000290CBF202121214C
:1006C0002046FFF79BFFA36C0BB101221A70236D2C
:1006D000C3B1DA7AB2B1D40703D5204AD96911601F
:1006E000DA7A900703D51E4A196A1160DA7A51073F
:1006F00003D51C4A596A1160DA7A120702D51A4AE0
:100700009B6A136070BD72B6D87AC60706D5174DBE
:10071000D8682E683040D8612860D87A850706D519
:10072000134D18692E68304018622860D87A460741
:1007300006D5104D58692E68304058622860D87A26
:10074000050705D50C4D98692E68304098622860E1
:1007500062B6A1E701403F0000003F8000E100E0F9
:1007600004E100E008E100E00CE100E080E100E0ED
:1007700084E100E088E100E08CE100E090F82130C5
:1007800063B190F83930826D006E41EA03415163E4
:10079000D36A03F470438342FAD87047C36C0122D2
:1007A0001A70036D4BB11A684FF00043D362516366
:1007B000D36A002BFCDA936B7047F0B415461C46E5
:1007C000082280231942066C14BF012700273770C6
:1007D000466C3570466C013A4FEA53033470F1D1E0
:1007E000F0BC704790F82130FBB190F83930826D41
:1007F00041EA034343F000631168536302E013F0DE
:10080000F00F10D1D36AD800F9D54FF08053D362DE
:100810001160D36A13F0F00F2AD0936BD36A13F0F0
:10082000F00FFAD17047936BECE7C36C01221A709A
:10083000036D4BB11A684FF00043D3625163D36A22
:10084000002BFCDA936B7047F0B415461C46082267
:1008500080231942066C14BF012700273770466CAD
:100860003570466C013A4FEA53033470F1D1F0BC55
:10087000704700BF036D70B504460D467BB1D97A51
:10088000026B002931D11B68D968914207D06448B6
:1008900018606449DA6042F0804018611960A36C06
:1008A0000BB100221A7036212046FFF773FE05F0C7
:1008B00003010229217694F8203065D003294CD019
:1008C000012939D0022B00F09780052B00F094808D
:1008D000C8212046FFF786FFE08DA18D628CA38C96
:1008E0006081A181E284238564E072B6D97AC80769
:1008F00006D54D48D96806683140D9610160D97A7A
:100900008E0706D5494819690668314019620160A9
:10091000D97A480706D54648596906683140596270
:100920000160D97A0E0705D54248996906683140B9
:100930009962016062B6A6E7022B6CD0052B6AD0E3
:10094000A8212046FFF74EFFE08DA18D628CA38C7D
:10095000A08161812285E3842CE0022B56D0052BF7
:1009600054D068212046FFF73DFFA38CA08DE18D78
:10097000628C608123F020039BB2003318BF0123F7
:10098000E384A181228515E0022B3AD0052B38D0D3
:1009900008212046FFF726FFA38CE08DA18D628CF5
:1009A000608123F020039BB2003318BF012323850D
:1009B000A181E284A36C227E62850BB101221A70B0
:1009C000236DC3B1DA7AB2B1D40703D51A4AD96913
:1009D0001160DA7A900703D5184A196A1160DA7A39
:1009E000510703D5164A596A1160DA7A120702D5FF
:1009F000144A9B6A136070BDC0212046FFF7F2FEC7
:100A00006AE700212046FFF7EDFEC5E7602120469A
:100A1000FFF7E8FEA9E7A0212046FFF7E3FE93E7F2
:100A200001403F0000003F8080E100E084E100E001
:100A300088E100E08CE100E000E100E004E100E09A
:100A400008E100E00CE100E090F8212092B110B440
:100A50000B4690F83910826D006E43EA014343F073
:100A600080535363D36A03F470439842FAD35DF81A
:100A7000044B7047FFF70EBD10B490F8214014B33B
:100A80000B4690F83910826D43EA014343F0C0539E
:100A90001168536302E013F0F00F12D1D36AD8004B
:100AA000F9D54FF08053D3621160D36A13F0F00F81
:100AB00004D0936BD36A13F0F00FFAD15DF8044BB6
:100AC0007047936BEAE75DF8044BFFF7E3BC00BFA8
:100AD0002DE9F0410C46B0F90A10BDF81860A142AA
:100AE00040F3AE801F46B0F90C309342054640F308
:100AF000A780D0199842C4BF9B1A1FB295F86830DE
:100B0000002B40F09F802B6D002B3DD0D87AD5F87C
:100B100030C048B372B6D87AC10709D5DFF874E19E
:100B2000D968DEF800000840D861CEF80000D87A15
:100B3000810709D5DFF860E11969DEF80000084097
:100B40001862CEF80000D87A410709D5DFF84CE1E9
:100B50005969DEF8000008405862CEF80000D87AE3
:100B6000010700F1838062B61B68D86860450BD02E
:100B7000DFF82CE1C3F800E04148C3F80CC04CF0AA
:100B8000804EC3F810E01860AB6C0BB100211970F7
:100B90002A2128461FFA84F894B2FFF7FBFCE98C5F
:100BA000414489B22846FFF74FFFE98C414489B29E
:100BB0002846FFF749FF2B212846FFF7EBFC298D3C
:100BC000214489B22846FFF73FFF2A8D013A22448B
:100BD000BCB2A11889B22846FFF736FF2C2128465F
:100BE000FFF7D8FC012F08DD013C31462846A4B2AE
:100BF000FFF72AFF23B2012BF6DC31462846FFF728
:100C00003BFFAB6C0BB101221A702B6DC3B1DA7ACA
:100C1000B2B1D40703D51B4AD9691160DA7A9007BB
:100C200003D5194A196A1160DA7A510703D5174AB0
:100C3000596A1160DA7A120702D5154A9B6A136065
:100C4000BDE8F081686E02FB0142791E00EB4202B2
:100C500009B2002FF4D016800139B5F90A3009B273
:100C6000481C02EB4302F6D1BDE8F081DFF834E026
:100C70009969DEF8000008409862CEF8000072E73B
:100C800000003F8000E100E004E100E008E100E056
:100C90000CE100E080E100E084E100E088E100E0B8
:100CA00001403F008CE100E02DE9F843B0F90A4033
:100CB000BDF820608C4240F3AB801F46B0F90C3089
:100CC0009342054640F3A480CB19A3421FFA81F951
:100CD00090F86830C4BFC9EB04073FB2002B40F066
:100CE0009980036D002B38D0D87A296B48B372B63F
:100CF000D87AC40709D5DFF8A0E1DC68DEF8000087
:100D00002040D861CEF80000D87A840709D5DFF8F2
:100D10008CE11C69DEF8000020401862CEF800006B
:100D2000D87A440709D5DFF878E15C69DEF800007D
:100D300020405862CEF80000D87A000700F1968073
:100D400062B61B68D868884207D04D4C1C604D487D
:100D5000D96041F080441C611860AB6C0BB100217C
:100D600019702A2128461FFA82F8FFF713FCE98C34
:100D7000494489B22846FFF767FEE98C01394944A6
:100D8000BCB2214489B22846FFF75EFE2B212846DB
:100D9000FFF700FC298D414489B22846FFF754FE35
:100DA000298D414489B22846FFF74EFE2C21284662
:100DB000FFF7F0FB012F08DD013C31462846A4B2C5
:100DC000FFF742FE23B2012BF6DC31462846FFF73F
:100DD00053FEAB6C0BB101221A702B6DC3B1DA7AE2
:100DE000B2B1D40703D5284AD9691160DA7A9007DD
:100DF00003D5264A196A1160DA7A510703D5244AC5
:100E0000596A1160DA7A120702D5224A9B6A136086
:100E1000BDE8F8831FFA87FE49EA0E0919F0010FB1
:100E200010D1436E04FB021103EB410146EA064672
:100E3000002FEDD0023F3FB241F8046B002FF9D1F3
:100E4000BDE8F883406E04FB02110EF1FF3E00EB9B
:100E500041021FFA8EFE002FDAD002EB4E01931EE4
:100E600023F8026F9942FBD1BDE8F883DFF834E044
:100E70009C69DEF8000020409862CEF800005FE731
:100E800001403F0000003F8000E100E004E100E09D
:100E900008E100E00CE100E080E100E084E100E036
:100EA00088E100E08CE100E02DE9F8430646B0F966
:100EB0000A00BDF92040BDF82450884240F3C480A8
:100EC0001F46B6F90C30934240F3BE8001EB070E8B
:100ED00086451FFA81F8C8BFC8EB000702EB040E75
:100EE000C8BF3FB29E45C4BF9B1A1CB296F868307B
:100EF000002B40F0AB80336D002B3DD0D97AD6F873
:100F000030C049B372B6D97AC80709D5DFF8E8E12D
:100F1000D868DEF800100140D961CEF80010D97A07
:100F2000880709D5DFF8D4E11869DEF80010014020
:100F30001962CEF80010D97A480709D5DFF8C0E168
:100F40005869DEF8001001405962CEF80010D97AD5
:100F5000090700F1BC8062B61B68D96861450BD0F7
:100F6000DFF8A0E1C3F800E05E49C3F80CC04CF024
:100F7000804EC3F810E01960B36C0BB100211970FA
:100F80002A2130461FFA82F9FFF704FBF18C414415
:100F900089B23046FFF758FDF18C0139414439449C
:100FA00089B23046FFF750FD2B213046FFF7F2FAA9
:100FB000318D494489B23046FFF746FD318D013904
:100FC0004944214489B23046FFF73EFD2C2130468A
:100FD000FFF7E0FA002CC8BFA04616DD012FC8BFFE
:100FE0003C4607DD013C2946304624B2FFF72CFD84
:100FF000012CF7D108F1FF3429463046A4B2FFF79F
:101000003BFD0FFA84F8002CE8D1B36C0BB1012240
:101010001A70336DC3B1DA7AB2B1D40703D5324A4C
:10102000D9691160DA7A900703D5304A196A1160DC
:10103000DA7A510703D52E4A596A1160DA7A120713
:1010400002D52C4A9B6A1360BDE8F88348EA07087A
:1010500018F0010F736E00FB02111ED107EBD7775A
:10106000002C03EB410E4FEA670645EA0545EBDD30
:1010700000EBD07149108900002E06DD7246002376
:101080000133B34242F8045BFAD1013CA3B28E446F
:101090001CB2002BF0D1BDE8F883002C03EB41011A
:1010A000D2DD4FEA470E002F08DD01EB0E020B46A2
:1010B00023F8025B9342FBD1B6F90A00013CA3B2CC
:1010C00001EB40011CB2002BEDD1BDE8F883DFF845
:1010D00038E09869DEF8001001409962CEF80010FF
:1010E00039E700BF00003F8000E100E004E100E0DC
:1010F00008E100E00CE100E080E100E084E100E0D4
:1011000088E100E001403F008CE100E00029C0F2EE
:10111000A680F8B5B0F90A40A14280F29980002A71
:10112000C0F29680B0F90C50954240F3918090F84F
:101130006850002D40F08D80046D002C37D0E67A89
:10114000056B46B372B6E67AF70709D5DFF83CE1DE
:10115000E768DEF800603E40E661CEF80060E67ABF
:10116000B70709D5DFF828E12769DEF800603E40BF
:101170002662CEF80060E67A770709D5DFF814E139
:101180006769DEF800603E406662CEF80060E67A8D
:10119000360765D462B62468E668AE4207D0354F9C
:1011A0002760354EE56045F0804727612660846CF6
:1011B0000CB10025257004460E462A211F4695B223
:1011C000FFF7E8F9E18CB6B2314489B22046FFF767
:1011D0003BFCE18C0131314489B22046FFF734FCFD
:1011E0002B212046FFF7D6F9218D294489B22046CC
:1011F000FFF72AFC218D0131294489B22046FFF7EF
:1012000023FC2C212046FFF7C5F939462046FFF77D
:1012100033FCA36C0BB101221A70236DC3B1DA7ACF
:10122000B2B1D40703D5154AD9691160DA7A9007AB
:1012300003D5134A196A1160DA7A510703D5114AA6
:10124000596A1160DA7A120702D50F4A9B6A136055
:10125000F8BD02FB0412416E21F81230F8BD704750
:10126000DFF834E0A769DEF800603E40A662CEF801
:1012700000608FE701403F0000003F8000E100E098
:1012800004E100E008E100E00CE100E080E100E0C2
:1012900084E100E088E100E08CE100E02DE9F84F16
:1012A000036D044683B1D87A226B002840F0D280C7
:1012B0001B68D868904207D07A4D1D607A48DA6082
:1012C00042F080451D611860A36C0BB100221A70BA
:1012D00091F800A04FF000094E1CCA45354600F0B9
:1012E00093802F46204617F8021BFFF787F96E7888
:1012F00026F07F0806F07F06012E5FFA88F840F29C
:10130000A480023EF6B2013507EB060B15F8011F6B
:101310002046FFF733FAAB45F8D101363744397828
:1013200020467D1CFFF75EFAB8F1000F67D02878E1
:10133000A36CFF2808BF4FF4FA7001350BB10122EE
:101340001A70236DC3B1DA7AB2B1D70703D5574A01
:10135000D9691160DA7A960703D5554A196A11607E
:10136000DA7A510703D553495A6A0A60DA7A1707BD
:1013700002D5514A9B6A13601EF02EFD236D002B8F
:1013800039D0D97A226B002929D072B6D97ACE0702
:1013900007D54A490868D96801404848D9610160C1
:1013A000D97A880707D54649086819690140444831
:1013B00019620160D97A4F0707D54249086859690F
:1013C0000140404859620160D97A0E0706D53E496E
:1013D0000868996901403C489962016062B61B68DF
:1013E000D968914207D02F4818602F49DA6042F03F
:1013F000804018611960A36C0BB100221A7009F1CA
:101400000109CA457FF46DAFA36C0BB101221A70BC
:10141000236DC3B1DA7AB2B1D40703D5234AD969AF
:101420001160DA7A900703D5214A196A1160DA7AD5
:10143000510703D51F4A596A1160DA7A120702D59B
:101440001D4A9B6A1360BDE8F88F3D46002E3FF4AD
:101450006BAF64E772B6D87AC70706D5174DD86860
:101460002E683040D8612860D87A860706D5144D9A
:1014700018692E68304018622860D87A450706D56A
:10148000104D58692E68304058622860D87A00079D
:1014900005D50D4D98692E6830409862286062B677
:1014A00006E700BF01403F0000003F8000E100E090
:1014B00004E100E008E100E00CE100E080E100E090
:1014C00084E100E088E100E08CE100E0F8B504464A
:1014D00090F83700A84D0023FF28A3846384E38499
:1014E000238594F8383004BF0B2084F83700FF2B95
:1014F00008BF0D230F4608BF84F838300146284640
:10150000164616F0F1FF002840F084809B4D94F8B9
:101510003710284616F0E8FF002840F01081984D5B
:1015200094F83710284616F0DFFF002840F01981A4
:1015300094F834100023FF29236584F8213056D015
:10154000904A94F8355052F83100A06452F8355062
:1015500094F83810E56452F8315094F83710656407
:1015600052F83120226401210170E26C1370626C28
:101570001370226C137094F83400FF2801D01EF011
:1015800001FC012194F835001EF0FCFB012194F8C8
:1015900038001EF0F7FB012194F837001EF0F2FB33
:1015A00094F83600FF281AD001211EF0EBFB012130
:1015B00094F836001EF0D2FB64201EF00DFC0021D2
:1015C00094F836001EF0CAFB64201EF005FC94F867
:1015D000360001211EF0C2FBC8201EF0FDFB2FB11A
:1015E00039462046BDE8F840FFF758BEF8BD94F8EC
:1015F0003510644AA36452F8310094F83810E0645E
:1016000052F8310094F83710606452F831202264A7
:101610001B70FFDE94F83810284616F073FF002880
:101620003FF474AF0021584A25654FF440532846D3
:1016300084F85410A2652366012384F8213094F8BD
:10164000371016F091FF94F83810206D16F0DEFF79
:10165000206D16F0C7FE16F0080F14BF4FF0705340
:101660004FF06053720701D543F0007343F000431D
:1016700043F48033236394F8342094F83510206DBC
:1016800016F004FF0546A8B194F83410206D16F04A
:101690004BFF94F8351084F839000546206D16F09C
:1016A00043FF0023284384F83A00A364236D5B685A
:1016B000E36575E794F83510206D16F0D1FEB8B9E2
:1016C00094F8343084F83900FF2B84F83A0029D19B
:1016D0002C4D94F8350001211EF054FB94F8353060
:1016E00055F83320E2640023137084F82130DDE7DD
:1016F00084F8395094F83510206D16F015FF94F8E1
:10170000343084F83A00FF2BD0D0184601211EF067
:1017100039FB94F834201B4B53F83230A364012278
:101720001A70C3E7184601211EF02CFB154D94F8E2
:10173000343055F83330A36401221A70C9E794F8A5
:101740003810284616F0DEFE00283FF4E8AE0F4AB7
:10175000012100232565284684F85410A2652366DC
:101760006AE794F83810284616F0CCFE00283FF4BB
:10177000DFAE0221064AECE7B043FF1FF043FF1F34
:101780003044FF1F4CE4030000C0024000D0024080
:1017900000C00A4070B500220D462F490446FFF7ED
:1017A00095FE8DB3012D3CD0042D49D0052D12D0CE
:1017B0002A492046FFF772FD29492046FFF76EFDB2
:1017C000022D18D0236884F8205020461B6B00217E
:1017D000BDE870401847A0225023A285E385214927
:1017E0002046FFF75BFD182200236284A3841C4976
:1017F0002046FFF753FD20463621FEF7CBFEC021E1
:101800002046FEF7EFFFDDE720461749FFF746FDCC
:10181000022201236284A38411492046FFF73EFD82
:10182000D0E78023A38511492046FFF737FD022228
:1018300003236284A3840A492046FFF72FFDC1E7F2
:101840008023A38509492046FFF728FD0022202395
:101850006284A384EFE700BF6CA802004CA80200DA
:10186000A8A80200E4A702005CA80200D4A7020016
:1018700041B170B5456E044645B1012184F8681048
:10188000084670BD80F8681008467047B0F90A3005
:10189000B0F90C20102603FB0266760003FB02F36E
:1018A0000367304624F010F9E06650B100F12003E0
:1018B00023F01F006066A6F12002294624F078FC80
:1018C000DBE770BDF8B590F86830002B00F0908031
:1018D000036D002B2ED0D97A026BF9B172B6D97A8A
:1018E000CC0706D5494CD96825682940D9612160C3
:1018F000D97A8F0706D5464C19692568294019629F
:101900002160D97A4E0706D5424C5969256829408D
:1019100059622160D97A0D0770D462B61B68D96804
:10192000914207D03C4C1C603C49DA6042F0804454
:101930001C611960836C0BB100221A7004462A21C5
:1019400046898589FEF726FEE18C2046FFF77CF864
:10195000E18C0139314489B22046FFF775F82B211B
:101960002046FEF717FE218D2046FFF76DF8218DEA
:101970000139294489B22046FFF766F82C21204618
:10198000FEF708FE266F676E06F10046013E07EB84
:101990004606B7420DD23D4635F8021B2046FFF7FA
:1019A00053F8AE42F8D8FB431E4426F00106023637
:1019B000374439882046FFF75FF8A36C0BB101224A
:1019C0001A70236DA3B1DA7A92B1D40703D5144A01
:1019D000D9691160DA7A900703D5124A196A116041
:1019E000DA7A510705D4120702D50F4A9B6A1360B1
:1019F000F8BD0E4A596A1160DA7AF4E70C4C99691D
:101A0000256829409962216087E700BF80E100E0F6
:101A100084E100E088E100E001403F0000003F80F9
:101A200000E100E004E100E00CE100E008E100E09A
:101A30008CE100E00B4B10B403F5407403F140005F
:101A400003F1800103F1C00218621966C3F8A020F7
:101A500043F8203C03F58073A342EFD15DF8044BBB
:101A6000704700BF4060FF1F704700BF704700BF56
:101A7000704700BF00680B68C01A7047014B1868B8
:101A8000704700BF281300200E4BD3ED007AF5EE0F
:101A9000407AF1EE10FA12D0B6EE007AF4EE477A00
:101AA000F1EE10FA09D0B7EE007AF4EE477AF1EED3
:101AB00010FA14BF00200220704701207047002058
:101AC000704700BFA443FF1F194BDFED1A7A93ED57
:101AD000007ADFED195A06EE901AB8EEC77AFAEEE0
:101AE000EF6AB7EE006A26EE877A67EE277A67EE2E
:101AF000A57AF4EEC67AF1EE10FA07DD0F4B72B656
:101B00000F4A0021D361117662B67047BFEE007AAA
:101B1000F4EEC77AF1EE10FA08D49FED0A7A67EE78
:101B2000877AFDEEE77A17EE903AE8E7064BE6E7AC
:101B3000DC42FF1FABAAAA3D000000390000FF7F76
:101B400078E0FF1F00FEFF4E00000180074B084AAF
:101B50001B6801218B42117004BF064AD386064BD5
:101B60001B68012B04BF054AD38670476464FF1FBE
:101B7000080D0020540B0020F820002098080020B9
:101B8000014B00221A707047080D0020474B484A4D
:101B9000196801290AD0474B1B68012B06D013682E
:101BA000172B00DD70470133136070471368172B44
:101BB000F9DD70B4404B414C1B68D4ED007ADFED89
:101BC000406A4048404E414D83B0012901939DED4C
:101BD000017A0378B8EE477A83F0010377EE677AEB
:101BE00084ED007A86EEA77A0370C6ED007A85ED63
:101BF000007A08D02F4B1B68012B19D001231360EA
:101C000003B070BC7047324BD3ED007A67EE277A91
:101C1000F5EEC07AF1EE10FA1FD4DFED2E6AF4EE85
:101C2000E67AF1EE10FA32DD2B492C4BCB61E1E77D
:101C3000274BD3ED007A27EE277AB5EEC07AF1EE86
:101C400010FA11D4DFED237AB4EEE77AF1EE10FA50
:101C50000EDD2349214BCB61D0E7164B1E491B6893
:101C60000020012BC861C9D11D4B0021D961C5E7F6
:101C7000DFED1C7A19481A4927EE277AFCEEC77A5D
:101C800017EE903A8342C1ED077AB7D9E2E7DFED6C
:101C9000156A1248104967EEA67AFCEEE77A17EE4D
:101CA000903A8342C1ED077AA4D9BEE76464FF1F6E
:101CB000A4E0FF1FF8200020F436002028030020B5
:101CC00000007A44080D00207C1300207043FF1FA1
:101CD000A043FF1FA655AC46540B00200000FE7F1A
:101CE000980800204B24BE47704700BF38B5054C0C
:101CF000A4F500652046103C20F00EF9AC42F9D165
:101D000038BD00BF2873FF1F38B5054640B100F548
:101D10009C440C34143C201D20F0FEF8A542F9D15F
:101D2000284638BD08B500201DF05AFC102888BF91
:101D3000002008BD08B502201DF052FC431EDBB296
:101D40000B2B84BF014B1868013808BDDC42FF1F14
:101D500008B503201DF044FC431EDBB2092B12D84A
:101D600007EE900AF8EEE77AB2EE047AC7EE876AD9
:101D7000B2EE047AFFEE007AE6EE877AFDEEE77ABD
:101D800017EE900A08BD024BD3ED006AF0E700BFE2
:101D9000F442FF1F08B508201DF022FC024B1B78FF
:101DA000102B88BF002008BD186BFF1F08B504204A
:101DB0001DF016FC01289ABF00F0010080F0010020
:101DC000002008BD08B506201DF00AFC012888BFC8
:101DD000002008BD08B505201DF002FC012888BFC1
:101DE000002008BD08B507201DF0FAFB012888BFB8
:101DF000002008BD08B509201DF0F2FB012888BFAE
:101E0000002008BD10B50D49044624F06DFF10B93F
:101E10000B4B00221A600B49204624F065FF18B9CD
:101E2000074B4FF07C521A602046074924F05CFFB4
:101E300018B9034B4FF07E521A6010BD40C003002A
:101E4000A443FF1F48C0030050C0030010B5044B5B
:101E5000044640F87C3B1FF0F9FD204610BD00BF52
:101E6000FCA7020010B504461FF0F2FC204610BD8E
:101E700010B50549044624F037FF10B1204623F081
:101E800087FD024B186010BD58C0030028130020C6
:101E9000044A054B126882B00192019A1A6002B09E
:101EA000704700BFF4360020FC63FF1FF0B5DFF879
:101EB000A4E0254F254CDEF80050D7F800C00020E4
:101EC00083B0234606460246197A31B95968A942B9
:101ED00003DA01200D46064694460132062A03F134
:101EE0000C03F1D166BB40BB3868431C02D0013003
:101EF00003B0F0BD164B1B68019300250199CEF885
:101F000000102E462B4662688A42BCBF0125184647
:101F100003F10103ACBF0A462E46062B04F10C0464
:101F20001146F0D126B935B93868013003B0F0BD9B
:101F3000CEF80020F7E73860F6E7C7F800C0D3E72F
:101F4000CEF80050CFE700BF0443FF1F0C43FF1F34
:101F5000F4360020F4D0FF1F10B523F019FD084B14
:101F600001460220CCB219601DF03AFB844205D034
:101F700021460220BDE810401DF04CBB10BD00BF43
:101F8000DC42FF1F10B582B023F002FD07EE900A7D
:101F9000F8EEE76AF2EE047A86EEA77A0C4B03209D
:101FA00067EE277A83ED007AFCEEE77ACDED017AD1
:101FB0001DF016FB9DF80440844206D02146032004
:101FC00002B0BDE810401DF025BB02B010BD00BF3F
:101FD000F442FF1F10B50B4924F086FE0A4B68B986
:101FE000187006201C781DF0FBFAE4B2844208D079
:101FF00021460620BDE810401DF00CBB01221A70DE
:10200000EFE710BD58C003008820002010B50D492F
:1020100024F06AFE0C4B60B9012404201C701DF0F2
:10202000DFFA84420CD021460420BDE810401DF0A8
:10203000F1BA002404201C701DF0D2FA8442F2D1BF
:1020400010BD00BF5CC00300E442FF1F10B50F4984
:10205000044624F049FE68B90D4B04461870002070
:102060001DF0BEFA844210D021460020BDE8104089
:102070001DF0D0BA204623F08BFC054BC4B20020E3
:102080001C701DF0ADFA8442EED110BD64C0030097
:10209000346BFF1F10B50F49044624F025FE68B9C4
:1020A0000D4B0446187008201DF09AFA844210D097
:1020B00021460820BDE810401DF0ACBA204623F0B0
:1020C00067FC054BC4B208201C701DF089FA8442DD
:1020D000EED110BD58C00300186BFF1F10B5114999
:1020E00024F002FE70B1104814F0F0FC05201DF041
:1020F00077FA012805D001210520BDE810401DF028
:1021000089BA10BD0446084814F0EAFC05201DF009
:1021100067FA0028F5D021460520BDE810401DF0E3
:1021200079BA00BF58C00300407EFF1F10B51249A6
:1021300024F0DAFD80B172B6104B114ADA6162B652
:1021400007201DF04DFA012805D001210720BDE828
:1021500010401DF05FBA10BD044672B6074BD8613F
:1021600062B607201DF03CFA0028F4D02146072073
:10217000BDE810401DF04EBA58C003000400002016
:10218000440D002010B50D4924F0AEFD68B10C4B94
:10219000012409201C701DF023FAA0420DD0214615
:1021A0000920BDE810401DF035BA054B0446092052
:1021B0001C701DF015FA0028F1D110BD58C00300A5
:1021C000607DFF1F214B10B4D3F8EC2013685068DA
:1021D00019780478507A137A044201EA03011BD07B
:1021E000937A03F0030309B143F0040343F00803B7
:1021F0009910013B91720D2B0BD8DFE803F02107FA
:102200001B070A152121150A071B0721D368013B6B
:10221000D3605DF8044B7047937A03F00303002901
:10222000E6D043F00403E3E7D3685DF8044B023BD8
:10223000D3607047D3685DF8044B0233D3607047B6
:10224000D3685DF8044B0133D360704788350020B4
:10225000214B10B4D3F8DC20136850681978047847
:10226000507A137A044201EA03011BD0937A03F0F7
:10227000030309B143F0040343F008039910013B41
:1022800091720D2B0BD8DFE803F021071B070A150D
:102290002121150A071B0721D368013BD3605DF894
:1022A000044B7047937A03F003030029E6D043F010
:1022B0000403E3E7D3685DF8044B023BD360704747
:1022C000D3685DF8044B0233D3607047D3685DF880
:1022D000044B0133D360704788350020214B10B484
:1022E000D3F8E0201368506819780478507A137A8C
:1022F000044201EA03011BD0937A03F0030309B1FE
:1023000043F0040343F008039910013B91720D2B35
:102310000BD8DFE803F021071B070A152121150A56
:10232000071B0721D368013BD3605DF8044B70475E
:10233000937A03F003030029E6D043F00403E3E7B4
:10234000D3685DF8044B023BD3607047D3685DF8F7
:10235000044B0233D3607047D3685DF8044B0133FC
:10236000D360704788350020214B10B4D3F8E420A7
:102370001368506819780478507A137A044201EA95
:1023800003011BD0937A03F0030309B143F0040364
:1023900043F008039910013B91720D2B0BD8DFE835
:1023A00003F021071B070A152121150A071B072126
:1023B000D368013BD3605DF8044B7047937A03F018
:1023C00003030029E6D043F00403E3E7D3685DF894
:1023D000044B023BD3607047D3685DF8044B023373
:1023E000D3607047D3685DF8044B0133D360704706
:1023F00088350020214B10B4D3F8E82013685068CA
:1024000019780478507A137A044201EA03011BD048
:10241000937A03F0030309B143F0040343F0080384
:102420009910013B91720D2B0BD8DFE803F02107C7
:102430001B070A152121150A071B0721D368013B39
:10244000D3605DF8044B7047937A03F003030029CF
:10245000E6D043F00403E3E7D3685DF8044B023BA6
:10246000D3607047D3685DF8044B0233D360704784
:10247000D3685DF8044B0133D36070478835002082
:10248000214B10B41A681368506819780478507A90
:10249000137A044201EA03011BD0937A03F0030389
:1024A00009B143F0040343F008039910013B917212
:1024B0000D2B0BD8DFE803F021071B070A1521219C
:1024C000150A071B0721D368013BD3605DF8044B55
:1024D0007047937A03F003030029E6D043F0040326
:1024E000E3E7D3685DF8044B023BD3607047D368E1
:1024F0005DF8044B0233D3607047D3685DF8044B3A
:102500000133D360704700BF88350020214B10B4E1
:102510005A681368506819780478507A137A04421C
:1025200001EA03011BD0937A03F0030309B143F0DE
:10253000040343F008039910013B91720D2B0BD853
:10254000DFE803F021071B070A152121150A071BE5
:102550000721D368013BD3605DF8044B7047937A41
:1025600003F003030029E6D043F00403E3E7D36854
:102570005DF8044B023BD3607047D3685DF8044BB1
:102580000233D3607047D3685DF8044B0133D360E6
:10259000704700BF88350020214B10B49A6813683B
:1025A000506819780478507A137A044201EA0301DA
:1025B0001BD0937A03F0030309B143F0040343F003
:1025C00008039910013B91720D2B0BD8DFE803F043
:1025D00021071B070A152121150A071B0721D368AC
:1025E000013BD3605DF8044B7047937A03F003031B
:1025F0000029E6D043F00403E3E7D3685DF8044B19
:10260000023BD3607047D3685DF8044B0233D3605C
:102610007047D3685DF8044B0133D360704700BF47
:1026200088350020214B10B4DA6813685068197897
:102630000478507A137A044201EA03011BD0937A9A
:1026400003F0030309B143F0040343F008039910B6
:10265000013B91720D2B0BD8DFE803F021071B071C
:102660000A152121150A071B0721D368013BD360F6
:102670005DF8044B7047937A03F003030029E6D01A
:1026800043F00403E3E7D3685DF8044B023BD360F7
:102690007047D3685DF8044B0233D3607047D3684A
:1026A0005DF8044B0133D360704700BF88350020CC
:1026B000214B10B41A691368506819780478507A5D
:1026C000137A044201EA03011BD0937A03F0030357
:1026D00009B143F0040343F008039910013B9172E0
:1026E0000D2B0BD8DFE803F021071B070A1521216A
:1026F000150A071B0721D368013BD3605DF8044B23
:102700007047937A03F003030029E6D043F00403F3
:10271000E3E7D3685DF8044B023BD3607047D368AE
:102720005DF8044B0233D3607047D3685DF8044B07
:102730000133D360704700BF88350020214B10B4AF
:102740005A691368506819780478507A137A0442E9
:1027500001EA03011BD0937A03F0030309B143F0AC
:10276000040343F008039910013B91720D2B0BD821
:10277000DFE803F021071B070A152121150A071BB3
:102780000721D368013BD3605DF8044B7047937A0F
:1027900003F003030029E6D043F00403E3E7D36822
:1027A0005DF8044B023BD3607047D3685DF8044B7F
:1027B0000233D3607047D3685DF8044B0133D360B4
:1027C000704700BF88350020214B10B49A69136808
:1027D000506819780478507A137A044201EA0301A8
:1027E0001BD0937A03F0030309B143F0040343F0D1
:1027F00008039910013B91720D2B0BD8DFE803F011
:1028000021071B070A152121150A071B0721D36879
:10281000013BD3605DF8044B7047937A03F00303E8
:102820000029E6D043F00403E3E7D3685DF8044BE6
:10283000023BD3607047D3685DF8044B0233D3602A
:102840007047D3685DF8044B0133D360704700BF15
:1028500088350020214B10B4D3F89C2013685068B1
:1028600019780478507A137A044201EA03011BD0E4
:10287000937A03F0030309B143F0040343F0080320
:102880009910013B91720D2B0BD8DFE803F0210763
:102890001B070A152121150A071B0721D368013BD5
:1028A000D3605DF8044B7047937A03F0030300296B
:1028B000E6D043F00403E3E7D3685DF8044B023B42
:1028C000D3607047D3685DF8044B0233D360704720
:1028D000D3685DF8044B0133D3607047883500201E
:1028E000214B10B4D3F8A0201368506819780478ED
:1028F000507A137A044201EA03011BD0937A03F061
:10290000030309B143F0040343F008039910013BAA
:1029100091720D2B0BD8DFE803F021071B070A1576
:102920002121150A071B0721D368013BD3605DF8FD
:10293000044B7047937A03F003030029E6D043F079
:102940000403E3E7D3685DF8044B023BD3607047B0
:10295000D3685DF8044B0233D3607047D3685DF8E9
:10296000044B0133D360704788350020214B10B4ED
:10297000D3F8A4201368506819780478507A137A31
:10298000044201EA03011BD0937A03F0030309B167
:1029900043F0040343F008039910013B91720D2B9F
:1029A0000BD8DFE803F021071B070A152121150AC0
:1029B000071B0721D368013BD3605DF8044B7047C8
:1029C000937A03F003030029E6D043F00403E3E71E
:1029D000D3685DF8044B023BD3607047D3685DF861
:1029E000044B0233D3607047D3685DF8044B013366
:1029F000D360704788350020214B10B4D3F8A8204D
:102A00001368506819780478507A137A044201EAFE
:102A100003011BD0937A03F0030309B143F00403CD
:102A200043F008039910013B91720D2B0BD8DFE89E
:102A300003F021071B070A152121150A071B07218F
:102A4000D368013BD3605DF8044B7047937A03F081
:102A500003030029E6D043F00403E3E7D3685DF8FD
:102A6000044B023BD3607047D3685DF8044B0233DC
:102A7000D3607047D3685DF8044B0133D36070476F
:102A800088350020214B10B4D3F8AC20136850686F
:102A900019780478507A137A044201EA03011BD0B2
:102AA000937A03F0030309B143F0040343F00803EE
:102AB0009910013B91720D2B0BD8DFE803F0210731
:102AC0001B070A152121150A071B0721D368013BA3
:102AD000D3605DF8044B7047937A03F00303002939
:102AE000E6D043F00403E3E7D3685DF8044B023B10
:102AF000D3607047D3685DF8044B0233D3607047EE
:102B0000D3685DF8044B0133D360704788350020EB
:102B1000214B10B4D3F8B0201368506819780478AA
:102B2000507A137A044201EA03011BD0937A03F02E
:102B3000030309B143F0040343F008039910013B78
:102B400091720D2B0BD8DFE803F021071B070A1544
:102B50002121150A071B0721D368013BD3605DF8CB
:102B6000044B7047937A03F003030029E6D043F047
:102B70000403E3E7D3685DF8044B023BD36070477E
:102B8000D3685DF8044B0233D3607047D3685DF8B7
:102B9000044B0133D360704788350020214B10B4BB
:102BA000D3F8B4201368506819780478507A137AEF
:102BB000044201EA03011BD0937A03F0030309B135
:102BC00043F0040343F008039910013B91720D2B6D
:102BD0000BD8DFE803F021071B070A152121150A8E
:102BE000071B0721D368013BD3605DF8044B704796
:102BF000937A03F003030029E6D043F00403E3E7EC
:102C0000D3685DF8044B023BD3607047D3685DF82E
:102C1000044B0233D3607047D3685DF8044B013333
:102C2000D360704788350020214B10B4D3F8B8200A
:102C30001368506819780478507A137A044201EACC
:102C400003011BD0937A03F0030309B143F004039B
:102C500043F008039910013B91720D2B0BD8DFE86C
:102C600003F021071B070A152121150A071B07215D
:102C7000D368013BD3605DF8044B7047937A03F04F
:102C800003030029E6D043F00403E3E7D3685DF8CB
:102C9000044B023BD3607047D3685DF8044B0233AA
:102CA000D3607047D3685DF8044B0133D36070473D
:102CB00088350020214B10B4D3F8BC20136850682D
:102CC00019780478507A137A044201EA03011BD080
:102CD000937A03F0030309B143F0040343F00803BC
:102CE0009910013B91720D2B0BD8DFE803F02107FF
:102CF0001B070A152121150A071B0721D368013B71
:102D0000D3605DF8044B7047937A03F00303002906
:102D1000E6D043F00403E3E7D3685DF8044B023BDD
:102D2000D3607047D3685DF8044B0233D3607047BB
:102D3000D3685DF8044B0133D360704788350020B9
:102D4000214B10B4D3F8C020136850681978047868
:102D5000507A137A044201EA03011BD0937A03F0FC
:102D6000030309B143F0040343F008039910013B46
:102D700091720D2B0BD8DFE803F021071B070A1512
:102D80002121150A071B0721D368013BD3605DF899
:102D9000044B7047937A03F003030029E6D043F015
:102DA0000403E3E7D3685DF8044B023BD36070474C
:102DB000D3685DF8044B0233D3607047D3685DF885
:102DC000044B0133D360704788350020214B10B489
:102DD000D3F8C4201368506819780478507A137AAD
:102DE000044201EA03011BD0937A03F0030309B103
:102DF00043F0040343F008039910013B91720D2B3B
:102E00000BD8DFE803F021071B070A152121150A5B
:102E1000071B0721D368013BD3605DF8044B704763
:102E2000937A03F003030029E6D043F00403E3E7B9
:102E3000D3685DF8044B023BD3607047D3685DF8FC
:102E4000044B0233D3607047D3685DF8044B013301
:102E5000D360704788350020214B10B4D3F8C820C8
:102E60001368506819780478507A137A044201EA9A
:102E700003011BD0937A03F0030309B143F0040369
:102E800043F008039910013B91720D2B0BD8DFE83A
:102E900003F021071B070A152121150A071B07212B
:102EA000D368013BD3605DF8044B7047937A03F01D
:102EB00003030029E6D043F00403E3E7D3685DF899
:102EC000044B023BD3607047D3685DF8044B023378
:102ED000D3607047D3685DF8044B0133D36070470B
:102EE00088350020214B10B4D3F8CC2013685068EB
:102EF00019780478507A137A044201EA03011BD04E
:102F0000937A03F0030309B143F0040343F0080389
:102F10009910013B91720D2B0BD8DFE803F02107CC
:102F20001B070A152121150A071B0721D368013B3E
:102F3000D3605DF8044B7047937A03F003030029D4
:102F4000E6D043F00403E3E7D3685DF8044B023BAB
:102F5000D3607047D3685DF8044B0233D360704789
:102F6000D3685DF8044B0133D36070478835002087
:102F7000214B10B4D3F8D020136850681978047826
:102F8000507A137A044201EA03011BD0937A03F0CA
:102F9000030309B143F0040343F008039910013B14
:102FA00091720D2B0BD8DFE803F021071B070A15E0
:102FB0002121150A071B0721D368013BD3605DF867
:102FC000044B7047937A03F003030029E6D043F0E3
:102FD0000403E3E7D3685DF8044B023BD36070471A
:102FE000D3685DF8044B0233D3607047D3685DF853
:102FF000044B0133D360704788350020214B10B457
:10300000D3F8D4201368506819780478507A137A6A
:10301000044201EA03011BD0937A03F0030309B1D0
:1030200043F0040343F008039910013B91720D2B08
:103030000BD8DFE803F021071B070A152121150A29
:10304000071B0721D368013BD3605DF8044B704731
:10305000937A03F003030029E6D043F00403E3E787
:10306000D3685DF8044B023BD3607047D3685DF8CA
:10307000044B0233D3607047D3685DF8044B0133CF
:10308000D360704788350020214B10B4D3F8D82086
:103090001368506819780478507A137A044201EA68
:1030A00003011BD0937A03F0030309B143F0040337
:1030B00043F008039910013B91720D2B0BD8DFE808
:1030C00003F021071B070A152121150A071B0721F9
:1030D000D368013BD3605DF8044B7047937A03F0EB
:1030E00003030029E6D043F00403E3E7D3685DF867
:1030F000044B023BD3607047D3685DF8044B023346
:10310000D3607047D3685DF8044B0133D3607047D8
:1031100088350020214B10B4DA691368506819789B
:103120000478507A137A044201EA03011BD0937A9F
:1031300003F0030309B143F0040343F008039910BB
:10314000013B91720D2B0BD8DFE803F021071B0721
:103150000A152121150A071B0721D368013BD360FB
:103160005DF8044B7047937A03F003030029E6D01F
:1031700043F00403E3E7D3685DF8044B023BD360FC
:103180007047D3685DF8044B0233D3607047D3684F
:103190005DF8044B0133D360704700BF88350020D1
:1031A000214B10B41A6A1368506819780478507A61
:1031B000137A044201EA03011BD0937A03F003035C
:1031C00009B143F0040343F008039910013B9172E5
:1031D0000D2B0BD8DFE803F021071B070A1521216F
:1031E000150A071B0721D368013BD3605DF8044B28
:1031F0007047937A03F003030029E6D043F00403F9
:10320000E3E7D3685DF8044B023BD3607047D368B3
:103210005DF8044B0233D3607047D3685DF8044B0C
:103220000133D360704700BF88350020214B10B4B4
:103230005A6A1368506819780478507A137A0442ED
:1032400001EA03011BD0937A03F0030309B143F0B1
:10325000040343F008039910013B91720D2B0BD826
:10326000DFE803F021071B070A152121150A071BB8
:103270000721D368013BD3605DF8044B7047937A14
:1032800003F003030029E6D043F00403E3E7D36827
:103290005DF8044B023BD3607047D3685DF8044B84
:1032A0000233D3607047D3685DF8044B0133D360B9
:1032B000704700BF88350020214B10B49A6A13680C
:1032C000506819780478507A137A044201EA0301AD
:1032D0001BD0937A03F0030309B143F0040343F0D6
:1032E00008039910013B91720D2B0BD8DFE803F016
:1032F00021071B070A152121150A071B0721D3687F
:10330000013BD3605DF8044B7047937A03F00303ED
:103310000029E6D043F00403E3E7D3685DF8044BEB
:10332000023BD3607047D3685DF8044B0233D3602F
:103330007047D3685DF8044B0133D360704700BF1A
:1033400088350020214B10B4DA6A13685068197868
:103350000478507A137A044201EA03011BD0937A6D
:1033600003F0030309B143F0040343F00803991089
:10337000013B91720D2B0BD8DFE803F021071B07EF
:103380000A152121150A071B0721D368013BD360C9
:103390005DF8044B7047937A03F003030029E6D0ED
:1033A00043F00403E3E7D3685DF8044B023BD360CA
:1033B0007047D3685DF8044B0233D3607047D3681D
:1033C0005DF8044B0133D360704700BF883500209F
:1033D000214B10B41A6B1368506819780478507A2E
:1033E000137A044201EA03011BD0937A03F003032A
:1033F00009B143F0040343F008039910013B9172B3
:103400000D2B0BD8DFE803F021071B070A1521213C
:10341000150A071B0721D368013BD3605DF8044BF5
:103420007047937A03F003030029E6D043F00403C6
:10343000E3E7D3685DF8044B023BD3607047D36881
:103440005DF8044B0233D3607047D3685DF8044BDA
:103450000133D360704700BF88350020214B10B482
:103460005A6B1368506819780478507A137A0442BA
:1034700001EA03011BD0937A03F0030309B143F07F
:10348000040343F008039910013B91720D2B0BD8F4
:10349000DFE803F021071B070A152121150A071B86
:1034A0000721D368013BD3605DF8044B7047937AE2
:1034B00003F003030029E6D043F00403E3E7D368F5
:1034C0005DF8044B023BD3607047D3685DF8044B52
:1034D0000233D3607047D3685DF8044B0133D36087
:1034E000704700BF88350020214B10B49A6B1368D9
:1034F000506819780478507A137A044201EA03017B
:103500001BD0937A03F0030309B143F0040343F0A3
:1035100008039910013B91720D2B0BD8DFE803F0E3
:1035200021071B070A152121150A071B0721D3684C
:10353000013BD3605DF8044B7047937A03F00303BB
:103540000029E6D043F00403E3E7D3685DF8044BB9
:10355000023BD3607047D3685DF8044B0233D360FD
:103560007047D3685DF8044B0133D360704700BFE8
:1035700088350020214B10B4DA6B13685068197835
:103580000478507A137A044201EA03011BD0937A3B
:1035900003F0030309B143F0040343F00803991057
:1035A000013B91720D2B0BD8DFE803F021071B07BD
:1035B0000A152121150A071B0721D368013BD36097
:1035C0005DF8044B7047937A03F003030029E6D0BB
:1035D00043F00403E3E7D3685DF8044B023BD36098
:1035E0007047D3685DF8044B0233D3607047D368EB
:1035F0005DF8044B0133D360704700BF883500206D
:10360000214B10B41A6C1368506819780478507AFA
:10361000137A044201EA03011BD0937A03F00303F7
:1036200009B143F0040343F008039910013B917280
:103630000D2B0BD8DFE803F021071B070A1521210A
:10364000150A071B0721D368013BD3605DF8044BC3
:103650007047937A03F003030029E6D043F0040394
:10366000E3E7D3685DF8044B023BD3607047D3684F
:103670005DF8044B0233D3607047D3685DF8044BA8
:103680000133D360704700BF88350020214B10B450
:103690005A6C1368506819780478507A137A044287
:1036A00001EA03011BD0937A03F0030309B143F04D
:1036B000040343F008039910013B91720D2B0BD8C2
:1036C000DFE803F021071B070A152121150A071B54
:1036D0000721D368013BD3605DF8044B7047937AB0
:1036E00003F003030029E6D043F00403E3E7D368C3
:1036F0005DF8044B023BD3607047D3685DF8044B20
:103700000233D3607047D3685DF8044B0133D36054
:10371000704700BF88350020214B10B49A6C1368A5
:10372000506819780478507A137A044201EA030148
:103730001BD0937A03F0030309B143F0040343F071
:1037400008039910013B91720D2B0BD8DFE803F0B1
:1037500021071B070A152121150A071B0721D3681A
:10376000013BD3605DF8044B7047937A03F0030389
:103770000029E6D043F00403E3E7D3685DF8044B87
:10378000023BD3607047D3685DF8044B0233D360CB
:103790007047D3685DF8044B0133D360704700BFB6
:1037A00088350020214B10B4DA6C13685068197802
:1037B0000478507A137A044201EA03011BD0937A09
:1037C00003F0030309B143F0040343F00803991025
:1037D000013B91720D2B0BD8DFE803F021071B078B
:1037E0000A152121150A071B0721D368013BD36065
:1037F0005DF8044B7047937A03F003030029E6D089
:1038000043F00403E3E7D3685DF8044B023BD36065
:103810007047D3685DF8044B0233D3607047D368B8
:103820005DF8044B0133D360704700BF883500203A
:10383000214B10B41A6D1368506819780478507AC7
:10384000137A044201EA03011BD0937A03F00303C5
:1038500009B143F0040343F008039910013B91724E
:103860000D2B0BD8DFE803F021071B070A152121D8
:10387000150A071B0721D368013BD3605DF8044B91
:103880007047937A03F003030029E6D043F0040362
:10389000E3E7D3685DF8044B023BD3607047D3681D
:1038A0005DF8044B0233D3607047D3685DF8044B76
:1038B0000133D360704700BF88350020214B10B41E
:1038C0005A6D1368506819780478507A137A044254
:1038D00001EA03011BD0937A03F0030309B143F01B
:1038E000040343F008039910013B91720D2B0BD890
:1038F000DFE803F021071B070A152121150A071B22
:103900000721D368013BD3605DF8044B7047937A7D
:1039100003F003030029E6D043F00403E3E7D36890
:103920005DF8044B023BD3607047D3685DF8044BED
:103930000233D3607047D3685DF8044B0133D36022
:10394000704700BF88350020214B10B49A6D136872
:10395000506819780478507A137A044201EA030116
:103960001BD0937A03F0030309B143F0040343F03F
:1039700008039910013B91720D2B0BD8DFE803F07F
:1039800021071B070A152121150A071B0721D368E8
:10399000013BD3605DF8044B7047937A03F0030357
:1039A0000029E6D043F00403E3E7D3685DF8044B55
:1039B000023BD3607047D3685DF8044B0233D36099
:1039C0007047D3685DF8044B0133D360704700BF84
:1039D00088350020214B10B4DA6D136850681978CF
:1039E0000478507A137A044201EA03011BD0937AD7
:1039F00003F0030309B143F0040343F008039910F3
:103A0000013B91720D2B0BD8DFE803F021071B0758
:103A10000A152121150A071B0721D368013BD36032
:103A20005DF8044B7047937A03F003030029E6D056
:103A300043F00403E3E7D3685DF8044B023BD36033
:103A40007047D3685DF8044B0233D3607047D36886
:103A50005DF8044B0133D360704700BF8835002008
:103A6000214B10B41A6E1368506819780478507A94
:103A7000137A044201EA03011BD0937A03F0030393
:103A800009B143F0040343F008039910013B91721C
:103A90000D2B0BD8DFE803F021071B070A152121A6
:103AA000150A071B0721D368013BD3605DF8044B5F
:103AB0007047937A03F003030029E6D043F0040330
:103AC000E3E7D3685DF8044B023BD3607047D368EB
:103AD0005DF8044B0233D3607047D3685DF8044B44
:103AE0000133D360704700BF88350020214B10B4EC
:103AF0005A6E1368506819780478507A137A044221
:103B000001EA03011BD0937A03F0030309B143F0E8
:103B1000040343F008039910013B91720D2B0BD85D
:103B2000DFE803F021071B070A152121150A071BEF
:103B30000721D368013BD3605DF8044B7047937A4B
:103B400003F003030029E6D043F00403E3E7D3685E
:103B50005DF8044B023BD3607047D3685DF8044BBB
:103B60000233D3607047D3685DF8044B0133D360F0
:103B7000704700BF88350020214B10B49A6E13683F
:103B8000506819780478507A137A044201EA0301E4
:103B90001BD0937A03F0030309B143F0040343F00D
:103BA00008039910013B91720D2B0BD8DFE803F04D
:103BB00021071B070A152121150A071B0721D368B6
:103BC000013BD3605DF8044B7047937A03F0030325
:103BD0000029E6D043F00403E3E7D3685DF8044B23
:103BE000023BD3607047D3685DF8044B0233D36067
:103BF0007047D3685DF8044B0133D360704700BF52
:103C000088350020214B10B4DA6E1368506819789B
:103C10000478507A137A044201EA03011BD0937AA4
:103C200003F0030309B143F0040343F008039910C0
:103C3000013B91720D2B0BD8DFE803F021071B0726
:103C40000A152121150A071B0721D368013BD36000
:103C50005DF8044B7047937A03F003030029E6D024
:103C600043F00403E3E7D3685DF8044B023BD36001
:103C70007047D3685DF8044B0233D3607047D36854
:103C80005DF8044B0133D360704700BF88350020D6
:103C9000214B10B41A6F1368506819780478507A61
:103CA000137A044201EA03011BD0937A03F0030361
:103CB00009B143F0040343F008039910013B9172EA
:103CC0000D2B0BD8DFE803F021071B070A15212174
:103CD000150A071B0721D368013BD3605DF8044B2D
:103CE0007047937A03F003030029E6D043F00403FE
:103CF000E3E7D3685DF8044B023BD3607047D368B9
:103D00005DF8044B0233D3607047D3685DF8044B11
:103D10000133D360704700BF88350020214B10B4B9
:103D20005A6F1368506819780478507A137A0442ED
:103D300001EA03011BD0937A03F0030309B143F0B6
:103D4000040343F008039910013B91720D2B0BD82B
:103D5000DFE803F021071B070A152121150A071BBD
:103D60000721D368013BD3605DF8044B7047937A19
:103D700003F003030029E6D043F00403E3E7D3682C
:103D80005DF8044B023BD3607047D3685DF8044B89
:103D90000233D3607047D3685DF8044B0133D360BE
:103DA000704700BF88350020214B10B49A6F13680C
:103DB000506819780478507A137A044201EA0301B2
:103DC0001BD0937A03F0030309B143F0040343F0DB
:103DD00008039910013B91720D2B0BD8DFE803F01B
:103DE00021071B070A152121150A071B0721D36884
:103DF000013BD3605DF8044B7047937A03F00303F3
:103E00000029E6D043F00403E3E7D3685DF8044BF0
:103E1000023BD3607047D3685DF8044B0233D36034
:103E20007047D3685DF8044B0133D360704700BF1F
:103E300088350020214B10B4DA6F13685068197868
:103E40000478507A137A044201EA03011BD0937A72
:103E500003F0030309B143F0040343F0080399108E
:103E6000013B91720D2B0BD8DFE803F021071B07F4
:103E70000A152121150A071B0721D368013BD360CE
:103E80005DF8044B7047937A03F003030029E6D0F2
:103E900043F00403E3E7D3685DF8044B023BD360CF
:103EA0007047D3685DF8044B0233D3607047D36822
:103EB0005DF8044B0133D360704700BF88350020A4
:103EC000214B10B4D3F88020136850681978047817
:103ED000507A137A044201EA03011BD0937A03F06B
:103EE000030309B143F0040343F008039910013BB5
:103EF00091720D2B0BD8DFE803F021071B070A1581
:103F00002121150A071B0721D368013BD3605DF807
:103F1000044B7047937A03F003030029E6D043F083
:103F20000403E3E7D3685DF8044B023BD3607047BA
:103F3000D3685DF8044B0233D3607047D3685DF8F3
:103F4000044B0133D360704788350020214B10B4F7
:103F5000D3F884201368506819780478507A137A5B
:103F6000044201EA03011BD0937A03F0030309B171
:103F700043F0040343F008039910013B91720D2BA9
:103F80000BD8DFE803F021071B070A152121150ACA
:103F9000071B0721D368013BD3605DF8044B7047D2
:103FA000937A03F003030029E6D043F00403E3E728
:103FB000D3685DF8044B023BD3607047D3685DF86B
:103FC000044B0233D3607047D3685DF8044B013370
:103FD000D360704788350020214B10B4D3F8882077
:103FE0001368506819780478507A137A044201EA09
:103FF00003011BD0937A03F0030309B143F00403D8
:1040000043F008039910013B91720D2B0BD8DFE8A8
:1040100003F021071B070A152121150A071B072199
:10402000D368013BD3605DF8044B7047937A03F08B
:1040300003030029E6D043F00403E3E7D3685DF807
:10404000044B023BD3607047D3685DF8044B0233E6
:10405000D3607047D3685DF8044B0133D360704779
:1040600088350020214B10B4D3F88C201368506899
:1040700019780478507A137A044201EA03011BD0BC
:10408000937A03F0030309B143F0040343F00803F8
:104090009910013B91720D2B0BD8DFE803F021073B
:1040A0001B070A152121150A071B0721D368013BAD
:1040B000D3605DF8044B7047937A03F00303002943
:1040C000E6D043F00403E3E7D3685DF8044B023B1A
:1040D000D3607047D3685DF8044B0233D3607047F8
:1040E000D3685DF8044B0133D360704788350020F6
:1040F000214B10B4D3F890201368506819780478D5
:10410000507A137A044201EA03011BD0937A03F038
:10411000030309B143F0040343F008039910013B82
:1041200091720D2B0BD8DFE803F021071B070A154E
:104130002121150A071B0721D368013BD3605DF8D5
:10414000044B7047937A03F003030029E6D043F051
:104150000403E3E7D3685DF8044B023BD360704788
:10416000D3685DF8044B0233D3607047D3685DF8C1
:10417000044B0133D360704788350020214B10B4C5
:10418000D3F894201368506819780478507A137A19
:10419000044201EA03011BD0937A03F0030309B13F
:1041A00043F0040343F008039910013B91720D2B77
:1041B0000BD8DFE803F021071B070A152121150A98
:1041C000071B0721D368013BD3605DF8044B7047A0
:1041D000937A03F003030029E6D043F00403E3E7F6
:1041E000D3685DF8044B023BD3607047D3685DF839
:1041F000044B0233D3607047D3685DF8044B01333E
:10420000D360704788350020214B10B4D3F8982034
:104210001368506819780478507A137A044201EAD6
:1042200003011BD0937A03F0030309B143F00403A5
:1042300043F008039910013B91720D2B0BD8DFE876
:1042400003F021071B070A152121150A071B072167
:10425000D368013BD3605DF8044B7047937A03F059
:1042600003030029E6D043F00403E3E7D3685DF8D5
:10427000044B023BD3607047D3685DF8044B0233B4
:10428000D3607047D3685DF8044B0133D360704747
:1042900088350020002310B4114C41720261046083
:1042A0000372C36041B1194600E0026942F823106D
:1042B000427A01339A42F8DC0A4B1A680AB90CE0D8
:1042C0001A465369002BFBD1506100234361838060
:1042D000C38083725DF8044B70471860F5E700BF38
:1042E000DCA802009838002014490A68002310B4A2
:1042F000134C0460437203610372C3600AB91AE08D
:104300001A465369002BFBD1506100230D494361CC
:104310004FF080428380C38083728361C3610362F4
:104320004362C362038643868386C38601608262DA
:104330005DF8044B70470860E7E700BF983800203D
:10434000DCA80200CCD5030000211C4B036010B494
:1043500000F1180202240B46447202610172C1602E
:1043600000E0026942F82310427A01339A42F8DCF5
:10437000134B1A680AB91FE01A465369002BFBD188
:10438000506100230F4943614FF400428380C38092
:10439000837203624362C3620363A0F83432A0F8FD
:1043A000363280F8383280F83932A0F83A3201607B
:1043B00082625DF8044B70471860E2E7DCA80200F7
:1043C00098380020D8D50300F5EEC00AF1EE10FAB7
:1043D000F7EE007AB4EEE70A3FD9F1EE10FA1FDDEE
:1043E000444ADFED457A60EEA70AFDEEE07A17EE6B
:1043F000903A63B372B6C1690262914259D030B447
:1044000081FAA2F4EFF300852D0130D494FBF3F38D
:10441000002B37D043620123037662B630BC70476D
:10442000BFEE007AB4EEC70AF1EE10FA45D4DFED24
:10443000326A60EEA60AFDEEE06A16EE903A002BB4
:1044400046D1B4EEE70AF1EE10FA38DD294A72B629
:104450000023C261037662B67047F1EE10FA18DDF0
:10446000244B72B60022C361027662B670475D1CAF
:10447000022D91BF234692FBF3F491FBF3F3E31A71
:10448000002BC7D19142ACBF4FF0FF3201224262F4
:10449000C1E7FFEE007AB4EEE70AF1EE10FA15D4A8
:1044A000DFED167A20EE270AFDEEC07A17EE903A7D
:1044B000D7E70023037662B67047114A91E7B4EE5E
:1044C000C70AF1EE10FA0CD50D4AC0E70C4BC8E74D
:1044D000DFED0A7A20EE270AFDEEC07A17EE902A69
:1044E00088E7DFED067A20EE270AFDEEC07A17EEA8
:1044F000902AACE70000FF7F7978304200FEFF4E43
:10450000000001802DE9F84F804672B600252E4646
:1045100029464FF0C80B0CE0B3F92020002A05DD36
:10452000B3F92220002A05F101050BDB0135FF2D2F
:104530003BD808EB45030029EED0013505F1100307
:1045400038F91320D8F81C001949A2F5FF427F3A28
:104550000BFB02F2B7B281FB021408EB46060168BE
:1045600007F10F090FFA89F94FEAE27E002314449C
:10457000D1F810A0B6F920224946AEEBE434D0477A
:10458000D8F81C00263C036824B249462246D3F8DA
:10459000109001354FF4F663C8470137FF2DA6F898
:1045A00020424FF001013EB2C3D962B6BDE8F88F98
:1045B0000180008038B572B6D0F8205305F11002A2
:1045C0005200931E02F1FE0403448A1E044432F991
:1045D000021F23F8021FA342F9D105F18003FF2B2C
:1045E000C0F8203304D90023C0F82033FFF78AFF36
:1045F00062B638BDC2697AB138B5002104461DF0F3
:10460000C5F8054648B12046291DFFF7D3FF2846C7
:10461000BDE838401DF076B8704738BD2DE9F04749
:10462000884682B0064615469A4601F1FF390027B2
:104630007C1CA54206D80023384608F8073002B093
:10464000BDE8F08701220DF10701304615F090FA20
:104650000128F0D19DF807100D29EAD009F8011FB3
:10466000504622F0C7FA27460028E1D0E3E700BF12
:104670002DE9F041DFF880801D4F8AB00C460546D9
:1046800001F54076284615F0D3F910B90AB0BDE817
:10469000F0811422A642174B0DEB02012846F5D0FB
:1046A000FFF7BCFF0AAA431E134400210028EDD0E7
:1046B00013F8142C2C2A18D00A2A284615D015F0E5
:1046C000B7F90721002814BF404638461CF08CFE7D
:1046D00005A901A81DF060FC01A920461DF008FDF8
:1046E00001A81DF019FC1034CCE703F8141CEFE707
:1046F00070C0030078C0030068C0030030B50446F2
:1047000089B00D461A48214615F018FC58BB68467A
:1047100013232246164915F09DFB684615F03CFA16
:1047200090B9192113481CF05FFE204622F0A8FC26
:10473000014620461CF058FE0F481DF047FB684616
:1047400015F00AFA09B030BD294668461DF018FB7D
:1047500068461DF03BFB684615F010FA684615F0F8
:10476000FBF909B030BD2146014815F0F5FBCEE755
:10477000902600207CC00300B047FF1F70B588B0B2
:10478000064668460D461DF01BFC05F1100405F5B4
:104790004075694604A81DF013FC104904A81DF0DB
:1047A00025FD21461DF01AFD014668461DF098FCC6
:1047B000103404A81DF0B0FBAC42EAD1694604A84D
:1047C0001DF0FEFB04A93046FFF798FF04A81DF07A
:1047D000A3FB68461DF0A0FB08B070BD98C00300A5
:1047E00010B501460446054815F0A8FB00B910BDF8
:1047F00021460248BDE8104015F0AEBB90260020CF
:1048000008B50B463B2800F2C682DFE810F0BB0279
:10481000B202A902A00297028E0285027C027302F4
:104820006A02610258024F0246023D0234022B0224
:104830002202190210020702AE01A5019C01930198
:104840008A01810178016F0166015D0154014A010D
:10485000400136012C01220118010E010401FA0069
:10486000F000E600DC00D200C800BE00B400AA00E0
:10487000A00096008C00820078006E0064005A0050
:10488000500046003C00BD4ABD49C2F8EC303B2018
:1048900004221BF0D5F9012008BDB84AB949C2F875
:1048A000E8303A2004221BF0CBF9012008BDB34ABE
:1048B000B549C2F8E430392004221BF0C1F90120C7
:1048C00008BDAE4AB149C2F8E030382004221BF0DE
:1048D000B7F9012008BDA94AAD49C2F8DC3037203C
:1048E00004221BF0ADF9012008BDA44AA949C2F871
:1048F000D830362004221BF0A3F9012008BD9F4ABE
:10490000A549C2F8D430352004221BF099F90120C2
:1049100008BD9A4AA149C2F8D030342004221BF0C5
:104920008FF9012008BD954A9D49C2F8CC3033204B
:1049300004221BF085F9012008BD904A9949C2F86C
:10494000C830322004221BF07BF9012008BD8B4ABD
:104950009549C2F8C430312004221BF071F90120BE
:1049600008BD864A9149C2F8C030302004221BF0AD
:1049700067F9012008BD814A8D49C2F8BC302F205B
:1049800004221BF05DF9012008BD7C4A8949C2F868
:10499000B8302E2004221BF053F9012008BD774ABD
:1049A0008549C2F8B4302D2004221BF049F90120BA
:1049B00008BD724A8149C2F8B0302C2004221BF095
:1049C0003FF9012008BD6D4A7D49C2F8AC302B206B
:1049D00004221BF035F9012008BD684A7949C2F864
:1049E000A8302A2004221BF02BF9012008BD634ABD
:1049F0007549C2F8A430292004221BF021F90120B6
:104A000008BD5E4A7149C2F8A030282004221BF07C
:104A100017F9012008BD594A6D49C2F89C3027207A
:104A200004221BF00DF9012008BD544A6949C2F85F
:104A30009830262004221BF003F9012008BD4F4ABC
:104A40006549C2F89430252004221BF0F9F80120B2
:104A500008BD4A4A6149C2F89030242004221BF064
:104A6000EFF8012008BD454A5D49C2F88C3023208B
:104A700004221BF0E5F8012008BD404A5949C2F85C
:104A80008830222004221BF0DBF8012008BD3B4ABD
:104A90005549C2F88430212004221BF0D1F80120AE
:104AA00008BD364A5149C2F88030202004221BF04C
:104AB000C7F8012008BD314A4D49D3671F200422A1
:104AC0001BF0BEF8012008BD2C4A4A4993671E20FE
:104AD00004221BF0B5F8012008BD284A4649536757
:104AE0001D2004221BF0ACF8012008BD234A4349D5
:104AF00013671C2004221BF0A3F8012008BD1F4AE5
:104B00003F49D3661B2004221BF09AF8012008BD00
:104B10001A4A3C4993661A2004221BF091F801209E
:104B200008BD164A38495366192004221BF088F83C
:104B3000012008BD114A35491366182004221BF0D4
:104B40007FF8012008BD0D4A3149D36517200422A2
:104B50001BF076F8012008BD084A2E4993651620FF
:104B600004221BF06DF8012008BD044A2A49536550
:104B7000152004221BF064F8012008BD88350020B0
:104B8000C5210000F523000069230000DD2200009C
:104B90005122000089300000FD2F0000712F00001D
:104BA000E52E0000592E0000CD2D0000412D000003
:104BB000B52C0000292C00009D2B0000112B0000BB
:104BC000852A0000F92900006D290000E128000075
:104BD00055280000094200007D410000F14000001E
:104BE00065400000D93F00004D3F0000C13E00007D
:104BF000353E0000A93D00001D3D0000913C000035
:104C0000053C0000793B0000ED3A0000613A0000ED
:104C1000D539000049390000BD3800005F4A6049BD
:104C20001365142004221BF00BF8012008BD5B4A19
:104C30005C49D364132004221BF002F8012008BD54
:104C4000564A59499364122004221AF0F9FF0120B0
:104C500008BD524A55495364112004221AF0F0FF4E
:104C6000012008BD4D4A52491364102004221AF055
:104C7000E7FF012008BD494A4E49D3630F200422B3
:104C80001AF0DEFF012008BD444A4B4993630E2011
:104C900004221AF0D5FF012008BD404A474953635A
:104CA0000D2004221AF0CCFF012008BD3B4A4449E4
:104CB00013630C2004221AF0C3FF012008BD374AF9
:104CC0004049D3620B2004221AF0BAFF012008BD2C
:104CD000324A3D4993620A2004221AF0B1FF0120B2
:104CE00008BD2E4A39495362092004221AF0A8FF50
:104CF000012008BD294A36491362082004221AF00F
:104D00009FFF012008BD254A3249D36107200422B4
:104D10001AF096FF012008BD204A2F499361062012
:104D200004221AF08DFF012008BD1C4A2B49536153
:104D3000052004221AF084FF012008BD174A2849E3
:104D40001361042210461AF07BFF012008BD134AAC
:104D50002449D360032004221AF072FF012008BD09
:104D60000E4A21499360022004221AF069FF0120B3
:104D700008BD0A4A1D495360012004221AF060FF51
:104D8000012008BD054A1A491360002004221AF0C8
:104D900057FF012008BD002008BD00BF8835002056
:104DA00031380000A5370000193700008D360000AB
:104DB0000136000075350000E93400005D34000064
:104DC000D133000045330000B93200002D3200001D
:104DD000A131000015310000C92700003D27000067
:104DE000B126000025260000992500000D250000B1
:104DF0008124000010B5374C23681021D86F19F0BA
:104E000015FE23680A21D86F19F0A4FE236800213B
:104E1000D86F19F04FFD23680221D86F19F0EAFE10
:104E200023681021D3F8800019F000FE23680A21BE
:104E3000D3F8800019F08EFE23680021D3F880009B
:104E400019F038FD23680221D3F8800019F0D2FE52
:104E500001211C201AF096FF01211B201AF092FF5D
:104E600001211A201AF08EFF012119201AF08AFF61
:104E7000022127201AF086FF02211E201AF082FF4D
:104E8000022124201AF07EFF022110201AF07AFF5E
:104E9000022111201AF076FF022118201AF072FF69
:104EA00002210C201AF06EFF02210A201AF06AFF7C
:104EB000012122201AF066FF012123201AF062FF4F
:104EC000012125201AF05EFF01210E20BDE81040CF
:104ED0001AF058BFEC6AFF1F70B5394C82B04FF61C
:104EE000FF7520460B260021FBF7C4FA20460195EA
:104EF00000962E231E222A2113F078FD019500969C
:104F000020463D231E225821FBF7CEFF1F232D22D2
:104F100020462C492382E28114F010FA2046012118
:104F200014F004FA07222849A582204665821CF065
:104F300011FF20461CF04AFF5B260023092223496B
:104F4000A3822525204663822582E6811CF002FF8C
:104F500020461CF03BFF4FF6E07320461C49A3821D
:104F6000638214F0EBF946230522204601212382B7
:104F7000E28114F0DBF90622164920461CF0EAFE15
:104F800020461CF023FF4FF4784320461249A382A9
:104F9000638214F0D3F9114B1D686E225F232846FB
:104FA000E281238222F06CF82946024620461CF05A
:104FB000D1FE204602B0BDE870401CF007BF00BF24
:104FC000440D0020A4AF020040C1030048C103000B
:104FD00028B4030054C1030018B403007443FF1F36
:104FE0002A4B1B78002B50D072B629490B7F03F057
:104FF000FF020BB100230B7762B6002A45D070B5D3
:1050000084B072B647F6FF744FF40040B1F91E3019
:10501000B1F92020CC83088462B683EAE371A1EB66
:10502000E37182EAE273A3EBE2738B42B8BF0B46F3
:1050300007EE903A9FED176ADFED176A1748F8EE12
:10504000E77A9E2187EE867A67EE267AFDEEE77A8A
:10505000CDED037ABDF80C30BDF90C40482BC3F1FF
:1050600067068CBF4FF478454FF4FC6536B2234693
:1050700032460095FBF72CFD0095234632469F21D2
:105080000648FBF725FD04B070BD7047607DFF1F2B
:105090000C0C002000FEFF4600009642440D00204C
:1050A0002DE9F041994C82B000212046FBF7E2F94E
:1050B0002046974914F042F905254FF6E073352252
:1050C000204601212282A3826382E58114F02EF919
:1050D000904920461CF054FE20461CF077FE002329
:1050E00020468D49A382638214F028F98B4B1B78EC
:1050F000002B40F0F380854EDFF848820C251F27F7
:10510000FFF76EFF30462B461C2273218DE8A0006E
:1051100013F06CFC2B4630461C2282218DE8A00047
:1051200013F064FC2B4630461C2291218DE8A00030
:1051300013F05CFC2B4630462B2273218DE8A00037
:1051400013F054FC2B4630462B2282218DE8A00020
:1051500013F04CFC2B468DE8A00030462B22912109
:1051600013F044FC98F80830002B40F0A28098F827
:105170001430002B40F0878098F82030002B6CD141
:1051800098F82C30002B52D198F83830002B38D1B9
:1051900098F84430A3B10C231F22019200932B22D4
:1051A00091215A48FBF780FE9425332301225C4964
:1051B0005648E58123821CF0CDFD54481CF006FEC4
:1051C000638952484FF47842143B1BB200920A2183
:1051D0003E22FBF769FD53494C4814F0AFF8012516
:1051E0004FF6FF735A2250494848E5812282A38234
:1051F00063821CF0C5FD454802B0BDE8F0411CF0DB
:10520000E5BD0C231F22019200932B2282213F48EF
:10521000FBF74AFE85253323012244493B48E581BB
:1052200023821CF097FD39481CF0D0FDB0E70C2319
:105230001F22019200932B2273213448FBF734FE86
:105240007625332301223A493048E58123821CF038
:1052500081FD2E481CF0BAFD96E70C231F22019217
:1052600000931C2291212948FBF71EFE942524233C
:10527000012230492548E58123821CF06BFD23483B
:105280001CF0A4FD7CE70C231F22019200931C223A
:1052900082211E48FBF708FE85252423012226498A
:1052A0001A48E58123821CF055FD18481CF08EFD3C
:1052B00062E72B4630468DE8A0001C227321FBF7E5
:1052C000F3FD78202423F08101221C4933823046EB
:1052D0001CF040FD30461CF079FD48E707224FF4F2
:1052E0007C438DE80C00204613231C225D21FBF734
:1052F000DBFD5E202123E081032211492382204629
:105300001CF028FD20461CF061FDF4E6440D002051
:10531000B4B102001C81FF1FA4AF0200080D0020E1
:10532000B0C8030018AE0300C01A002068C1030013
:1053300044C8030064C103005CC8030060C10300EB
:105340005CC103000C43FF1F30B5F2EE0E7A2DED69
:10535000028BF2EE0A8AE0EE287A85B040F2FF7501
:105360000095FDEEE77A4A22CDED037ABDF90C30C7
:105370001C486C21B0EE408AFBF796FCDFED1A7AF0
:105380000095E8EE287A14234A221648FDEEE77AC3
:10539000CDED037ABDF90C402146FBF799FBF3EE06
:1053A000007AE8EE687A214600955E22FDEEE77A03
:1053B0000C48CDED037ABDF90C30FBF775FCB5EE6A
:1053C000C08AF1EE10FA00954FF015034FF04A0233
:1053D0004CBF6C218A210348FBF77AFB05B0BDEC7A
:1053E000028B30BD440D00200000F642DFED127A42
:1053F000B2EE0A7AF0B5E0EE077A85B00F4DFDEE19
:10540000E77A40F2FF77CDED037ABDF90C400197C2
:105410004A262846234600965E226E2113F096FA0D
:105420005E2300932146019732462846882313F0D5
:105430008DFA05B0F0BD00BF0000F642440D00201B
:10544000F0B52DED068BDFED348A344DB2EE0E9AB9
:10545000F0EE687AE0EE097A85B040F2FF764A27EE
:10546000FDEEE77AB0EE408ACDED027ABDF9084054
:105470000097F0EE60AA2846234601965E2264213A
:10548000B0EE41AAF0EE619A13F060FA38EE2A8A83
:10549000DFED237A0196B3EE047AE8EE098A3A4604
:1054A0002146EAEE477A2846BDEEE87AFDEEE77A35
:1054B0008DED027ACDED037ABDF90870BDF90C408F
:1054C00000943B4613F042FADFED167A0096E8EEC0
:1054D000497A394622462846FDEEE77ACDED027A32
:1054E000BDF90830FBF7E0FBDFED0F7A0196B2EE75
:1054F0000A7AE9EE877A5E2300932246FDEEE77A88
:105500002846CDED027ABDF908308B2113F01EFA42
:1055100005B0BDEC068BF0BD0000C842440D002074
:105520000000BC420000204200000B4330B5464C56
:1055300083B000212046FAF79DFF2046434913F02F
:10554000FDFE00254FF6E073352220460121228220
:10555000A3826382E58113F0E9FE3D4920461CF0F9
:105560000FFC20461CF032FC63894FF47842143B58
:105570001BB2204600920A213E22FBF795FB4FF614
:10558000FF755A230122334923822046E281A582F6
:1055900065821CF0F5FB20461CF018FC2E4B1B7896
:1055A000002B3ED12D4B1B68013B032B4AD8DFE873
:1055B00003F030281B022A4B2A492B4A93ED000A9C
:1055C000D1ED001ADFED297AD2ED000A284B93EDD8
:1055D000001A61EEA71A60EEA70A20EE270A03B0B0
:1055E000BDE83040FFF72CBF224B2349234A93EDFF
:1055F000000AD1ED001ADFED1D7AD2ED000A204B32
:10560000E5E7204B93ED000A03B0BDE83040FFF71B
:10561000EDBE1C4B93ED000A03B0BDE83040FFF730
:1056200093BE42F222230093204605234622962170
:1056300013F0F4FA00952046042346229221FBF74A
:1056400033FBAFE703B030BD440D002018AE0300BC
:10565000507DFF1F6409002040ECFF1F140E002046
:105660008C43FF1FD042FF1FD842FF1F17B7D1380E
:105670009443FF1F9C43FF1FE042FF1FF842FF1FA0
:10568000C442FF1F382100202DE9F047544C554FEC
:1056900088B020460021FAF7EDFE2046524913F06B
:1056A0004DFE4FF6E0753523052220460121238269
:1056B000E281A582658213F039FE07224B4920461C
:1056C0001CF048FB20461CF081FB63894FF47842B4
:1056D000143B1BB22046009244F610693C220A217A
:1056E000FBF7E2FA2046424913F028FE57F809106A
:1056F000A58251F8043B03934FF000084E2604A8FE
:10570000A4F80E80268265821CF05AFC039920467C
:105710001CF0ACFB20461CF059FB04A81CF0FCFB61
:1057200057F80910268251F8043B03934FF6FF7691
:105730004FF0230904A8A4F80E90A68266821CF0FC
:105740003FFC04A920461CF01BFB20461CF03EFB3E
:1057500004A81CF0E1FB44F60C6A4FF4204E17221B
:10576000CDF804E0B4F90A300092414655222046B3
:10577000FBF79AFB57F80A10A4F80E8051F8043B87
:1057800003934FF0620804A8A5826582A4F81080F4
:105790001CF016FC039920461CF068FB20461CF008
:1057A00015FB04A81CF0B8FB57F80A10A4F80E90DB
:1057B00051F8043B039304A8A4F81080A6826682E3
:1057C0001CF0FEFB04A920461CF0DAFA20461CF06F
:1057D000FDFA04A81CF0A0FB08B0BDE8F08700BFEC
:1057E000440D00202882FF1FB4B102006CC10300E9
:1057F00018B4030038B5154C00212046FAF73AFEDC
:105800002046134913F09AFD02254FF6E073352226
:1058100020460121A3826382E581228213F086FD66
:105820000B220C4920461CF095FA20461CF0CEFABB
:105830000A255A23204607220749E58123821CF0C6
:1058400089FA2046BDE838401CF0C0BA440D00205B
:1058500018AE030074C1030080C1030038B5154CB5
:1058600000212046FAF706FE2046134913F066FD94
:105870004FF6E07320460121A3826382052513F0D1
:1058800055FD35230D220D4923822046E5811CF06C
:1058900061FA20461CF09AFA5A2320460D22084944
:1058A000E58123821CF056FA2046BDE838401CF002
:1058B0008DBA00BF440D002018AE030088C103005C
:1058C00098C1030030B51D4C83B020460021FAF783
:1058D000D1FD20461A4913F031FD4FF6E073204602
:1058E0000121A3826382002513F020FD35230C22C1
:1058F000144923822046E5811CF02CFA20461CF036
:1059000065FA63894FF47842143B204600921BB23B
:105910003E220A21FBF7C8F905254FF6FF735A22EC
:1059200020460949E5812282A38263821CF028FA7D
:10593000204603B0BDE830401CF048BA440D0020BA
:1059400018AE0300A8C10300CC7FFF1F2DE9F04370
:10595000A1F1080385B0174E00F1080700F1100807
:105960000FFA81FE05B291463FB20FFA88F81AB2DB
:105970000C463B468DE8040129467246CDF808E006
:105980003046CDF80C90A6F810E0F58113F084F9BC
:10599000221D0C3412B224B2CDF804803B462946B5
:1059A000CDF80C9030460292009413F075F905B0D2
:1059B000BDE8F083440D0020F0B52D4C2D4E83B092
:1059C00020460021FAF756FD20462B4913F0B6FC7D
:1059D0004FF6E07501212046A582658213F0A6FCF2
:1059E000264B1F680022352338462382E28121F0AE
:1059F00047FB3946024620461CF0ACF920461CF015
:105A0000E5F93368082B2CD0638919484FF47842A4
:105A1000143B0A211BB200923E22FBF745F9184BBA
:105A20001F6805225A234FF6FF7538462382E2810C
:105A3000A582658221F024FB394602460C481CF001
:105A400089F90B481CF0C2F93368092B01D003B067
:105A5000F0BD2A4650218C2003B0BDE8F040FFF78E
:105A600075BF2A462A218C20FFF770FFCCE700BFC4
:105A7000440D00207C43FF1F18AE0300CC42FF1FE3
:105A80005443FF1F10B52DED028B0C4684B0B0EED1
:105A9000408A01460E481CF033FBB0EE480A022152
:105AA00068461CF0D3FA69460A481CF021FB684698
:105AB0001CF032FA084B0949094A1B6881ED008A3B
:105AC00014600BB9FCF7E4F904B0BDEC028B10BD17
:105AD000507DFF1F640900200064FF1F3821002053
