:1000000000000320D1010000B1EB010069EB010009
:1000100069EB010069EB010069EB010069EB01008C
:1000200069EB010069EB010069EB0100B1EB010034
:10003000B1EB010069EB0100A50F0200A90F02005E
:10004000B1EB0100B1EB0100B1EB0100B1EB01003C
:10005000B1EB0100B1EB0100B1EB0100B1EB01002C
:10006000B1EB0100B1EB0100B1EB0100B1EB01001C
:10007000B1EB0100B1EB0100B1EB0100B1EB01000C
:10008000B1EB0100B1EB0100B1EB0100B1EB0100FC
:10009000B1EB0100B1EB0100B1EB0100B1EB0100EC
:1000A000E9930100F5930100B1EB0100B1EB010010
:1000B000B1EB0100B1EB0100B1EB0100B1EB0100CC
:1000C000B1EB0100B1EB0100B1EB0100B1EB0100BC
:1000D000B1EB010029220200B1EB0100B1EB0100FC
:1000E000B1EB0100B1EB0100B1EB0100B1EB01009C
:1000F000B1EB0100B1EB0100B1EB0100B1EB01008C
:100100006111020075110200891102009D110200A7
:10011000B1EB01005DF60100B1EB0100B1EB0100B4
:10012000B1EB0100B1EB0100B1EB0100B1EB01005B
:10013000B1EB0100B1EB0100B1EB0100B1EB01004B
:10014000590D0200B1EB0100B1EB0100B1EB010070
:10015000B1EB0100B1EB0100B1EB0100B1EB01002B
:10016000B1EB0100B1EB010001940100B1EB010022
:10017000B1EB0100B1EB0100B1EB0100B1EB01000B
:10018000B1EB0100B1EB0100B1EB0100B1EB0100FB
:10019000B1EB0100B1EB0100B1EB0100B1EB0100EB
:1001A000B1EB0100B1EB0100B1EB0100B1EB0100DB
:1001B000B1EB0100B1EB0100B1EB0100B1EB0100CB
:1001C000B1EB0100B1EB0100B1EB0100B1EB0100BB
:1001D0005C4B4CF2205210B51A804DF628121A8052
:1001E00000BF00BF1EF0E8FC574B4FF030621A60B2
:1001F000564A9A60564ADA60564B4FF470021A60BB
:10020000554B564A1A60564B1A78110703D51A787F
:1002100042F008021A70534B5349AA221A70534AEB
:10022000534B8B4204D252F8040F43F8040BF8E707
:10023000504B514900228B4202D243F8042BFAE77B
:100240004E494F4A002352F8230041F8230001335E
:10025000742BF8D14B4B4C4A802103F8011B93427D
:10026000FBD14A4B454A1A60494B8A221A70A3F5C2
:10027000805324225A70A0221A709A799207FCD5D2
:100280009A79D406FCD4434A937903F00C03082BE3
:10029000FAD1414B60221A7002331A78802AFCD1BD
:1002A0003C4B01221A715D225A719A799006FCD555
:1002B0009979384A4906FBD5384B394919600021EC
:1002C000596020231370937903F00C030C2BFAD19F
:1002D000344B354A1A60354A354C136813F4807331
:1002E00003D123604FF4A8531360324B324A1A6093
:1002F00000225A60072243F8042C304AC3F80C2D20
:1003000062B61FF037F82368DA0705D52C481EF0CF
:100310008FFF2C4B2C4A1A602C4B1B785B0609D59F
:10032000284C294B22689A4204D125481EF080FFB0
:100330000023236024F0B2FD1EF044FC21F0D8F924
:10034000FEE700BF0E20054030800440823F0400DD
:100350000100002B88ED00E0002008E0030000858C
:1003600002D0074000E00740F84EFF1FA8E103005D
:10037000B03DFF1F0050FF1F882B00200032FF1FE1
:100380000000000000E400E064E400E008ED00E0AC
:10039000005006400040064001E007404480044011
:1003A0000000060204800440C010070010D0034083
:1003B00014D0034014E000E01FBF02000000202022
:1003C00000F6485F1CE00340A5C3945A00F00740C4
:1003D000FFFFFFFFFFFFFFFFFFFFFFFFFFFFFFFF2D
:1003E000FFFFFFFFFFFFFFFFFFFFFFFFFFFFFFFF1D
:1003F000FFFFFFFFFFFFFFFFFFFFFFFFFFFFFFFF0D
:10040000FFFFFFFFFFFFFFFFFFFFFFFFDEF9FFFF23
:1004100010B5054C237833B9044B13B10448AFF33E
:1004200000800123237010BD0050FF1F000000005A
:10043000A4E10300084B10B51BB108490848AFF30D
:1004400000800848036803B910BD074B002BFBD0A0
:10045000BDE81040184700BF000000000450FF1F17
:10046000A4E10300F84EFF1F0000000000207047C9
:10047000704700BF10B582B0B0F90C20019101683F
:10048000009200220C6CB0F90A301146A04702B06D
:1004900010BD00BFC36C01221A70036D5BB11A68F6
:1004A00041F080514FF00043D3625163D36A002B77
:1004B000FCDA936B7047F0B54FEA112E08248025C3
:1004C0001EEA050F066C14BF012700273770466C23
:1004D0003270466C013C4FEA55053370F0D1036D24
:1004E000C9B24BB11A684FF00043D3625163D36A6B
:1004F000002BFCDA936BF0BD082280230127194200
:10050000056C14BF012600262E70456C2F70456CBB
:10051000013A4FEA53032C70F1D1F0BD2DE9F047B9
:100520000446894690468021A02200251F469DF85A
:1005300020609DF824A017F0A3FF144A14492160FD
:10054000226304F17C0084F8349084F8358084F8C8
:1005500036A084F8377084F8386084F82150256517
:1005600084F85450A565E5652566294620F036FCDB
:10057000A022802384F8685084F874506566E5668C
:10058000A285E3852046BDE8F08700BF0320003840
:100590007C9C020090F8213063B190F83A30826D73
:1005A000006E41EA03415163D36A03F4704383420E
:1005B000FAD87047C26C1370036D4BB11A684FF0D4
:1005C0000043D3625163D36A002BFCDA936B70470C
:1005D000F0B408221C46012780231942056C14BF81
:1005E000012600262E70456C2F70456C013A4FEAAB
:1005F00053032C70F1D1F0BC704700BF90F821304C
:10060000FBB190F83A30826D41EA034343F0006356
:100610001168536302E013F0F00F10D1D36AD800D1
:10062000F9D54FF08053D3621160D36A13F0F00F05
:1006300029D0936BD36A13F0F00FFAD17047936B04
:10064000ECE7C26C1370036D4BB11A684FF00043B6
:10065000D3625163D36A002BFCDA936B7047F0B41A
:1006600008221C46012780231942056C14BF01266D
:1006700000262E70456C2F70456C013A4FEA5303EB
:100680002C70F1D1F0BC7047036D70B504467BB19E
:10069000D87A226B002836D11B68D868904207D0E0
:1006A0002C4D1D602C48DA6042F080451D611860B9
:1006B000A36C0BB100221A7000290CBF202121214C
:1006C0002046FFF79BFFA36C0BB101221A70236D2C
:1006D000C3B1DA7AB2B1D40703D5204AD96911601F
:1006E000DA7A900703D51E4A196A1160DA7A51073F
:1006F00003D51C4A596A1160DA7A120702D51A4AE0
:100700009B6A136070BD72B6D87AC60706D5174DBE
:10071000D8682E683040D8612860D87A850706D519
:10072000134D18692E68304018622860D87A460741
:1007300006D5104D58692E68304058622860D87A26
:10074000050705D50C4D98692E68304098622860E1
:1007500062B6A1E701403F0000003F8000E100E0F9
:1007600004E100E008E100E00CE100E080E100E0ED
:1007700084E100E088E100E08CE100E090F82130C5
:1007800063B190F83930826D006E41EA03415163E4
:10079000D36A03F470438342FAD87047C36C0122D2
:1007A0001A70036D4BB11A684FF00043D362516366
:1007B000D36A002BFCDA936B7047F0B415461C46E5
:1007C000082280231942066C14BF012700273770C6
:1007D000466C3570466C013A4FEA53033470F1D1E0
:1007E000F0BC704790F82130FBB190F83930826D41
:1007F00041EA034343F000631168536302E013F0DE
:10080000F00F10D1D36AD800F9D54FF08053D362DE
:100810001160D36A13F0F00F2AD0936BD36A13F0F0
:10082000F00FFAD17047936BECE7C36C01221A709A
:10083000036D4BB11A684FF00043D3625163D36A22
:10084000002BFCDA936B7047F0B415461C46082267
:1008500080231942066C14BF012700273770466CAD
:100860003570466C013A4FEA53033470F1D1F0BC55
:10087000704700BF036D70B504460D467BB1D97A51
:10088000026B002931D11B68D968914207D06448B6
:1008900018606449DA6042F0804018611960A36C06
:1008A0000BB100221A7036212046FFF773FE05F0C7
:1008B00003010229217694F8203065D003294CD019
:1008C000012939D0022B00F09780052B00F094808D
:1008D000C8212046FFF786FFE08DA18D628CA38C96
:1008E0006081A181E284238564E072B6D97AC80769
:1008F00006D54D48D96806683140D9610160D97A7A
:100900008E0706D5494819690668314019620160A9
:10091000D97A480706D54648596906683140596270
:100920000160D97A0E0705D54248996906683140B9
:100930009962016062B6A6E7022B6CD0052B6AD0E3
:10094000A8212046FFF74EFFE08DA18D628CA38C7D
:10095000A08161812285E3842CE0022B56D0052BF7
:1009600054D068212046FFF73DFFA38CA08DE18D78
:10097000628C608123F020039BB2003318BF0123F7
:10098000E384A181228515E0022B3AD0052B38D0D3
:1009900008212046FFF726FFA38CE08DA18D628CF5
:1009A000608123F020039BB2003318BF012323850D
:1009B000A181E284A36C227E62850BB101221A70B0
:1009C000236DC3B1DA7AB2B1D40703D51A4AD96913
:1009D0001160DA7A900703D5184A196A1160DA7A39
:1009E000510703D5164A596A1160DA7A120702D5FF
:1009F000144A9B6A136070BDC0212046FFF7F2FEC7
:100A00006AE700212046FFF7EDFEC5E7602120469A
:100A1000FFF7E8FEA9E7A0212046FFF7E3FE93E7F2
:100A200001403F0000003F8080E100E084E100E001
:100A300088E100E08CE100E000E100E004E100E09A
:100A400008E100E00CE100E090F8212092B110B440
:100A50000B4690F83910826D006E43EA014343F073
:100A600080535363D36A03F470439842FAD35DF81A
:100A7000044B7047FFF70EBD10B490F8214014B33B
:100A80000B4690F83910826D43EA014343F0C0539E
:100A90001168536302E013F0F00F12D1D36AD8004B
:100AA000F9D54FF08053D3621160D36A13F0F00F81
:100AB00004D0936BD36A13F0F00FFAD15DF8044BB6
:100AC0007047936BEAE75DF8044BFFF7E3BC00BFA8
:100AD0002DE9F0410C46B0F90A10BDF81860A142AA
:100AE00040F3AE801F46B0F90C309342054640F308
:100AF000A780D0199842C4BF9B1A1FB295F86830DE
:100B0000002B40F09F802B6D002B3DD0D87AD5F87C
:100B100030C048B372B6D87AC10709D5DFF874E19E
:100B2000D968DEF800000840D861CEF80000D87A15
:100B3000810709D5DFF860E11969DEF80000084097
:100B40001862CEF80000D87A410709D5DFF84CE1E9
:100B50005969DEF8000008405862CEF80000D87AE3
:100B6000010700F1838062B61B68D86860450BD02E
:100B7000DFF82CE1C3F800E04148C3F80CC04CF0AA
:100B8000804EC3F810E01860AB6C0BB100211970F7
:100B90002A2128461FFA84F894B2FFF7FBFCE98C5F
:100BA000414489B22846FFF74FFFE98C414489B29E
:100BB0002846FFF749FF2B212846FFF7EBFC298D3C
:100BC000214489B22846FFF73FFF2A8D013A22448B
:100BD000BCB2A11889B22846FFF736FF2C2128465F
:100BE000FFF7D8FC012F08DD013C31462846A4B2AE
:100BF000FFF72AFF23B2012BF6DC31462846FFF728
:100C00003BFFAB6C0BB101221A702B6DC3B1DA7ACA
:100C1000B2B1D40703D51B4AD9691160DA7A9007BB
:100C200003D5194A196A1160DA7A510703D5174AB0
:100C3000596A1160DA7A120702D5154A9B6A136065
:100C4000BDE8F081686E02FB0142791E00EB4202B2
:100C500009B2002FF4D016800139B5F90A3009B273
:100C6000481C02EB4302F6D1BDE8F081DFF834E026
:100C70009969DEF8000008409862CEF8000072E73B
:100C800000003F8000E100E004E100E008E100E056
:100C90000CE100E080E100E084E100E088E100E0B8
:100CA00001403F008CE100E02DE9F843B0F90A4033
:100CB000BDF820608C4240F3AB801F46B0F90C3089
:100CC0009342054640F3A480CB19A3421FFA81F951
:100CD00090F86830C4BFC9EB04073FB2002B40F066
:100CE0009980036D002B38D0D87A296B48B372B63F
:100CF000D87AC40709D5DFF8A0E1DC68DEF8000087
:100D00002040D861CEF80000D87A840709D5DFF8F2
:100D10008CE11C69DEF8000020401862CEF800006B
:100D2000D87A440709D5DFF878E15C69DEF800007D
:100D300020405862CEF80000D87A000700F1968073
:100D400062B61B68D868884207D04D4C1C604D487D
:100D5000D96041F080441C611860AB6C0BB100217C
:100D600019702A2128461FFA82F8FFF713FCE98C34
:100D7000494489B22846FFF767FEE98C01394944A6
:100D8000BCB2214489B22846FFF75EFE2B212846DB
:100D9000FFF700FC298D414489B22846FFF754FE35
:100DA000298D414489B22846FFF74EFE2C21284662
:100DB000FFF7F0FB012F08DD013C31462846A4B2C5
:100DC000FFF742FE23B2012BF6DC31462846FFF73F
:100DD00053FEAB6C0BB101221A702B6DC3B1DA7AE2
:100DE000B2B1D40703D5284AD9691160DA7A9007DD
:100DF00003D5264A196A1160DA7A510703D5244AC5
:100E0000596A1160DA7A120702D5224A9B6A136086
:100E1000BDE8F8831FFA87FE49EA0E0919F0010FB1
:100E200010D1436E04FB021103EB410146EA064672
:100E3000002FEDD0023F3FB241F8046B002FF9D1F3
:100E4000BDE8F883406E04FB02110EF1FF3E00EB9B
:100E500041021FFA8EFE002FDAD002EB4E01931EE4
:100E600023F8026F9942FBD1BDE8F883DFF834E044
:100E70009C69DEF8000020409862CEF800005FE731
:100E800001403F0000003F8000E100E004E100E09D
:100E900008E100E00CE100E080E100E084E100E036
:100EA00088E100E08CE100E02DE9F8430646B0F966
:100EB0000A00BDF92040BDF82450884240F3C480A8
:100EC0001F46B6F90C30934240F3BE8001EB070E8B
:100ED00086451FFA81F8C8BFC8EB000702EB040E75
:100EE000C8BF3FB29E45C4BF9B1A1CB296F868307B
:100EF000002B40F0AB80336D002B3DD0D97AD6F873
:100F000030C049B372B6D97AC80709D5DFF8E8E12D
:100F1000D868DEF800100140D961CEF80010D97A07
:100F2000880709D5DFF8D4E11869DEF80010014020
:100F30001962CEF80010D97A480709D5DFF8C0E168
:100F40005869DEF8001001405962CEF80010D97AD5
:100F5000090700F1BC8062B61B68D96861450BD0F7
:100F6000DFF8A0E1C3F800E05E49C3F80CC04CF024
:100F7000804EC3F810E01960B36C0BB100211970FA
:100F80002A2130461FFA82F9FFF704FBF18C414415
:100F900089B23046FFF758FDF18C0139414439449C
:100FA00089B23046FFF750FD2B213046FFF7F2FAA9
:100FB000318D494489B23046FFF746FD318D013904
:100FC0004944214489B23046FFF73EFD2C2130468A
:100FD000FFF7E0FA002CC8BFA04616DD012FC8BFFE
:100FE0003C4607DD013C2946304624B2FFF72CFD84
:100FF000012CF7D108F1FF3429463046A4B2FFF79F
:101000003BFD0FFA84F8002CE8D1B36C0BB1012240
:101010001A70336DC3B1DA7AB2B1D40703D5324A4C
:10102000D9691160DA7A900703D5304A196A1160DC
:10103000DA7A510703D52E4A596A1160DA7A120713
:1010400002D52C4A9B6A1360BDE8F88348EA07087A
:1010500018F0010F736E00FB02111ED107EBD7775A
:10106000002C03EB410E4FEA670645EA0545EBDD30
:1010700000EBD07149108900002E06DD7246002376
:101080000133B34242F8045BFAD1013CA3B28E446F
:101090001CB2002BF0D1BDE8F883002C03EB41011A
:1010A000D2DD4FEA470E002F08DD01EB0E020B46A2
:1010B00023F8025B9342FBD1B6F90A00013CA3B2CC
:1010C00001EB40011CB2002BEDD1BDE8F883DFF845
:1010D00038E09869DEF8001001409962CEF80010FF
:1010E00039E700BF00003F8000E100E004E100E0DC
:1010F00008E100E00CE100E080E100E084E100E0D4
:1011000088E100E001403F008CE100E00029C0F2EE
:10111000A680F8B5B0F90A40A14280F29980002A71
:10112000C0F29680B0F90C50954240F3918090F84F
:101130006850002D40F08D80046D002C37D0E67A89
:10114000056B46B372B6E67AF70709D5DFF83CE1DE
:10115000E768DEF800603E40E661CEF80060E67ABF
:10116000B70709D5DFF828E12769DEF800603E40BF
:101170002662CEF80060E67A770709D5DFF814E139
:101180006769DEF800603E406662CEF80060E67A8D
:10119000360765D462B62468E668AE4207D0354F9C
:1011A0002760354EE56045F0804727612660846CF6
:1011B0000CB10025257004460E462A211F4695B223
:1011C000FFF7E8F9E18CB6B2314489B22046FFF767
:1011D0003BFCE18C0131314489B22046FFF734FCFD
:1011E0002B212046FFF7D6F9218D294489B22046CC
:1011F000FFF72AFC218D0131294489B22046FFF7EF
:1012000023FC2C212046FFF7C5F939462046FFF77D
:1012100033FCA36C0BB101221A70236DC3B1DA7ACF
:10122000B2B1D40703D5154AD9691160DA7A9007AB
:1012300003D5134A196A1160DA7A510703D5114AA6
:10124000596A1160DA7A120702D50F4A9B6A136055
:10125000F8BD02FB0412416E21F81230F8BD704750
:10126000DFF834E0A769DEF800603E40A662CEF801
:1012700000608FE701403F0000003F8000E100E098
:1012800004E100E008E100E00CE100E080E100E0C2
:1012900084E100E088E100E08CE100E02DE9F84F16
:1012A000036D044683B1D87A226B002840F0D280C7
:1012B0001B68D868904207D07A4D1D607A48DA6082
:1012C00042F080451D611860A36C0BB100221A70BA
:1012D00091F800A04FF000094E1CCA45354600F0B9
:1012E00093802F46204617F8021BFFF787F96E7888
:1012F00026F07F0806F07F06012E5FFA88F840F29C
:10130000A480023EF6B2013507EB060B15F8011F6B
:101310002046FFF733FAAB45F8D101363744397828
:1013200020467D1CFFF75EFAB8F1000F67D02878E1
:10133000A36CFF2808BF4FF4FA7001350BB10122EE
:101340001A70236DC3B1DA7AB2B1D70703D5574A01
:10135000D9691160DA7A960703D5554A196A11607E
:10136000DA7A510703D553495A6A0A60DA7A1707BD
:1013700002D5514A9B6A13601DF0AAFF236D002B12
:1013800039D0D97A226B002929D072B6D97ACE0702
:1013900007D54A490868D96801404848D9610160C1
:1013A000D97A880707D54649086819690140444831
:1013B00019620160D97A4F0707D54249086859690F
:1013C0000140404859620160D97A0E0706D53E496E
:1013D0000868996901403C489962016062B61B68DF
:1013E000D968914207D02F4818602F49DA6042F03F
:1013F000804018611960A36C0BB100221A7009F1CA
:101400000109CA457FF46DAFA36C0BB101221A70BC
:10141000236DC3B1DA7AB2B1D40703D5234AD969AF
:101420001160DA7A900703D5214A196A1160DA7AD5
:10143000510703D51F4A596A1160DA7A120702D59B
:101440001D4A9B6A1360BDE8F88F3D46002E3FF4AD
:101450006BAF64E772B6D87AC70706D5174DD86860
:101460002E683040D8612860D87A860706D5144D9A
:1014700018692E68304018622860D87A450706D56A
:10148000104D58692E68304058622860D87A00079D
:1014900005D50D4D98692E6830409862286062B677
:1014A00006E700BF01403F0000003F8000E100E090
:1014B00004E100E008E100E00CE100E080E100E090
:1014C00084E100E088E100E08CE100E0F8B504464A
:1014D00090F83700A84D0023FF28A3846384E38499
:1014E000238594F8383004BF0B2084F83700FF2B95
:1014F00008BF0D230F4608BF84F838300146284640
:10150000164616F0EBFC002840F084809B4D94F8C2
:101510003710284616F0E2FC002840F01081984D64
:1015200094F83710284616F0D9FC002840F01981AD
:1015300094F834100023FF29236584F8213056D015
:10154000904A94F8355052F83100A06452F8355062
:1015500094F83810E56452F8315094F83710656407
:1015600052F83120226401210170E26C1370626C28
:101570001370226C137094F83400FF2801D01DF012
:101580007DFE012194F835001DF078FE012194F8CC
:1015900038001DF073FE012194F837001DF06EFE37
:1015A00094F83600FF281AD001211DF067FE0121B2
:1015B00094F836001DF04EFE64201DF089FE0021D7
:1015C00094F836001DF046FE64201DF081FE94F86C
:1015D000360001211DF03EFEC8201DF079FE2FB11E
:1015E00039462046BDE8F840FFF758BEF8BD94F8EC
:1015F0003510644AA36452F8310094F83810E0645E
:1016000052F8310094F83710606452F831202264A7
:101610001B70FFDE94F83810284616F06DFC002889
:101620003FF474AF0021584A25654FF440532846D3
:1016300084F85410A2652366012384F8213094F8BD
:10164000371016F08BFC94F83810206D16F0D8FC8B
:10165000206D16F0C1FB16F0080F14BF4FF0705349
:101660004FF06053720701D543F0007343F000431D
:1016700043F48033236394F8342094F83510206DBC
:1016800016F0FEFB0546A8B194F83410206D16F054
:1016900045FC94F8351084F839000546206D16F0A5
:1016A0003DFC0023284384F83A00A364236D5B6863
:1016B000E36575E794F83510206D16F0CBFBB8B9EB
:1016C00094F8343084F83900FF2B84F83A0029D19B
:1016D0002C4D94F8350001211DF0D0FD94F83530E3
:1016E00055F83320E2640023137084F82130DDE7DD
:1016F00084F8395094F83510206D16F00FFC94F8EA
:10170000343084F83A00FF2BD0D0184601211DF068
:10171000B5FD94F834201B4B53F83230A3640122FA
:101720001A70C3E7184601211DF0A8FD154D94F865
:10173000343055F83330A36401221A70C9E794F8A5
:101740003810284616F0D8FB00283FF4E8AE0F4AC0
:10175000012100232565284684F85410A2652366DC
:101760006AE794F83810284616F0C6FB00283FF4C4
:10177000DFAE0221064AECE7B03FFF1FF03FFF1F3C
:101780003040FF1FE8D4030000C0024000D00240F8
:1017900000C00A4070B500220D462F490446FFF7ED
:1017A00095FE8DB3012D3CD0042D49D0052D12D0CE
:1017B0002A492046FFF772FD29492046FFF76EFDB2
:1017C000022D18D0236884F8205020461B6B00217E
:1017D000BDE870401847A0225023A285E385214927
:1017E0002046FFF75BFD182200236284A3841C4976
:1017F0002046FFF753FD20463621FEF7CBFEC021E1
:101800002046FEF7EFFFDDE720461749FFF746FDCC
:10181000022201236284A38411492046FFF73EFD82
:10182000D0E78023A38511492046FFF737FD022228
:1018300003236284A3840A492046FFF72FFDC1E7F2
:101840008023A38509492046FFF728FD0022202395
:101850006284A384EFE700BFEC9C0200CC9C0200F2
:10186000289D0200649C0200DC9C0200549C020043
:1018700041B170B5456E044645B1012184F8681048
:10188000084670BD80F8681008467047B0F90A3005
:10189000B0F90C20102603FB0266760003FB02F36E
:1018A0000367304623F040FBE06650B100F12003AF
:1018B00023F01F006066A6F12002294623F0A8FE4F
:1018C000DBE770BDF8B590F86830002B00F0908031
:1018D000036D002B2ED0D97A026BF9B172B6D97A8A
:1018E000CC0706D5494CD96825682940D9612160C3
:1018F000D97A8F0706D5464C19692568294019629F
:101900002160D97A4E0706D5424C5969256829408D
:1019100059622160D97A0D0770D462B61B68D96804
:10192000914207D03C4C1C603C49DA6042F0804454
:101930001C611960836C0BB100221A7004462A21C5
:1019400046898589FEF726FEE18C2046FFF77CF864
:10195000E18C0139314489B22046FFF775F82B211B
:101960002046FEF717FE218D2046FFF76DF8218DEA
:101970000139294489B22046FFF766F82C21204618
:10198000FEF708FE266F676E06F10046013E07EB84
:101990004606B7420DD23D4635F8021B2046FFF7FA
:1019A00053F8AE42F8D8FB431E4426F00106023637
:1019B000374439882046FFF75FF8A36C0BB101224A
:1019C0001A70236DA3B1DA7A92B1D40703D5144A01
:1019D000D9691160DA7A900703D5124A196A116041
:1019E000DA7A510705D4120702D50F4A9B6A1360B1
:1019F000F8BD0E4A596A1160DA7AF4E70C4C99691D
:101A0000256829409962216087E700BF80E100E0F6
:101A100084E100E088E100E001403F0000003F80F9
:101A200000E100E004E100E00CE100E008E100E09A
:101A30008CE100E00B4B10B403F5407403F140005F
:101A400003F1800103F1C00218621966C3F8A020F7
:101A500043F8203C03F58073A342EFD15DF8044BBB
:101A6000704700BF4050FF1F704700BF704700BF66
:101A7000704700BF00680B68C01A7047014B1868B8
:101A8000704700BF64020020194BDFED1A7A93ED16
:101A9000007ADFED195A06EE901AB8EEC77AFAEE20
:101AA000EF6AB7EE006A26EE877A67EE277A67EE6E
:101AB000A57AF4EEC67AF1EE10FA07DD0F4B72B696
:101AC0000F4A0021D361117662B67047BFEE007AEB
:101AD000F4EEC77AF1EE10FA08D49FED0A7A67EEB9
:101AE000877AFDEEE77A17EE903AE8E7064BE6E7ED
:101AF000DC3EFF1FABAAAA3D000000390000FF7FBB
:101B000030D0FF1F00FEFF4E00000180074B084A47
:101B10001B6801218B42117004BF064AD386064B15
:101B20001B68012B04BF054AD38670475054FF1F22
:101B300058FCFF1FDCFAFF1FE80F0020E4F7FF1F2F
:101B4000014B00221A70704758FCFF1F474B484A50
:101B5000196801290AD0474B1B68012B06D013686E
:101B6000172B00DD70470133136070471368172B84
:101B7000F9DD70B4404B414C1B68D4ED007ADFEDC9
:101B8000406A4048404E414D83B0012901939DED8C
:101B9000017A0378B8EE477A83F0010377EE677A2B
:101BA00084ED007A86EEA77A0370C6ED007A85EDA3
:101BB000007A08D02F4B1B68012B19D0012313602A
:101BC00003B070BC7047324BD3ED007A67EE277AD2
:101BD000F5EEC07AF1EE10FA1FD4DFED2E6AF4EEC6
:101BE000E67AF1EE10FA32DD2B492C4BCB61E1E7BE
:101BF000274BD3ED007A27EE277AB5EEC07AF1EEC7
:101C000010FA11D4DFED237AB4EEE77AF1EE10FA90
:101C10000EDD2349214BCB61D0E7164B1E491B68D3
:101C20000020012BC861C9D11D4B0021D961C5E736
:101C3000DFED1C7A19481A4927EE277AFCEEC77A9D
:101C400017EE903A8342C1ED077AB7D9E2E7DFEDAC
:101C5000156A1248104967EEA67AFCEEE77A17EE8D
:101C6000903A8342C1ED077AA4D9BEE75054FF1FD2
:101C70005CD0FF1FE80F0020F8260020C8F2FF1FED
:101C800000007A4458FCFF1FA8020020703FFF1F8D
:101C9000A03FFF1FA655AC46DCFAFF1F0000FE7FE9
:101CA000E4F7FF1F4B24BE47704700BF38B5054C13
:101CB000A4F500652046103C1FF05CFBAC42F9D156
:101CC00038BD00BF3463FF1F38B5054640B100F58D
:101CD0009C440C34143C201D1FF04CFBA542F9D150
:101CE000284638BD08B500201CF0F6FE102888BF35
:101CF000002008BD08B502201CF0EEFE431EDBB23A
:101D00000B2B84BF014B1868013808BDDC3EFF1F58
:101D100008B503201CF0E0FE431EDBB2092B12D8ED
:101D200007EE900AF8EEE77AB2EE047AC7EE876A19
:101D3000B2EE047AFFEE007AE6EE877AFDEEE77AFD
:101D400017EE900A08BD024BD3ED006AF0E700BF22
:101D5000F43EFF1F08B504201CF0BEFE01289ABF08
:101D600000F0010080F00100002008BD08B5062049
:101D70001CF0B2FE012888BF002008BD08B5052070
:101D80001CF0AAFE012888BF002008BD08B5072066
:101D90001CF0A2FE012888BF002008BD10B5044B2E
:101DA000044640F87C3B1FF07FF8204610BD00BF82
:101DB0007C9C020010B504461EF078FF204610BD42
:101DC00010B50549044624F0BFF910B1204623F0B0
:101DD0000FF8024B186010BD6CB2030064020020C3
:101DE000044A054B126882B00192019A1A6002B04F
:101DF000704700BFF8260020FC53FF1FF0B5DFF846
:101E0000A4E0254F254CDEF80050D7F800C0002094
:101E100083B0234606460246197A31B95968A94269
:101E200003DA01200D46064694460132062A03F1E4
:101E30000C03F1D166BB40BB3868431C02D00130B3
:101E400003B0F0BD164B1B68019300250199CEF835
:101E500000102E462B4662688A42BCBF01251846F8
:101E600003F10103ACBF0A462E46062B04F10C0415
:101E70001146F0D126B935B93868013003B0F0BD4C
:101E8000CEF80020F7E73860F6E7C7F800C0D3E7E0
:101E9000CEF80050CFE700BF043FFF1F0C3FFF1FED
:101EA000F82600204CC1FF1F10B522F0A1FF084BFF
:101EB00001460220CCB219601CF00EFE844205D00F
:101EC00021460220BDE810401CF020BE10BD00BF1E
:101ED000DC3EFF1F10B582B022F08AFF07EE900AA9
:101EE000F8EEE76AF2EE047A86EEA77A0C4B03204E
:101EF00067EE277A83ED007AFCEEE77ACDED017A82
:101F00001CF0EAFD9DF80440844206D021460320DF
:101F100002B0BDE810401CF0F9BD02B010BD00BF1A
:101F2000F43EFF1F10B50B4924F00EF90A4B68B9B7
:101F3000187006201C781CF0CFFDE4B2844208D053
:101F400021460620BDE810401CF0E0BD01221A70B9
:101F5000EFE710BD6CB20300780F002010B50D49FB
:101F600024F0F2F80C4B60B9012404201C701CF022
:101F7000B3FD84420CD021460420BDE810401CF083
:101F8000C5BD002404201C701CF0A6FD8442F2D1C3
:101F900010BD00BF70B20300E43EFF1F10B50F4933
:101FA000044624F0D1F868B90D4B0446187000209F
:101FB0001CF092FD844210D021460020BDE8104064
:101FC0001CF0A4BD204622F013FF054BC4B2002034
:101FD0001C701CF081FD8442EED110BD78B203006C
:101FE000405BFF1F10B5114924F0AEF870B11048E6
:101FF00014F066FA05201CF06FFD012805D00121C0
:102000000520BDE810401CF081BD10BD0446084805
:1020100014F060FA05201CF05FFD0028F5D0214681
:102020000520BDE810401CF071BD00BF6CB203007C
:10203000846EFF1F30B51B491B4C83B0054624F04E
:1020400083F808B9002323601849284624F07CF857
:1020500010B94FF07C5323602846154924F074F8DA
:1020600078B94FF07E53012023601CF035FD022427
:10207000A04215D02146012003B0BDE830401CF03D
:1020800045BDD4ED007A77EEA77A0120FCEEE77A21
:10209000CDED017A1CF020FD9DF80440A042E9D16D
:1020A00003B030BD7CB20300A43FFF1F84B2030025
:1020B0008CB2030010B5124924F046F880B172B614
:1020C000104B114ADA6162B607201CF005FD0128A9
:1020D00005D001210720BDE810401CF017BD10BD40
:1020E000044672B6074BD86162B607201CF0F4FCB8
:1020F0000028F4D021460720BDE810401CF006BDA2
:102100006CB20300A4EFFF1F94FCFF1F214B10B41F
:10211000D3F8E8201368506819780478507A137A55
:10212000044201EA03011BD0937A03F0030309B1CF
:1021300043F0040343F008039910013B91720D2B07
:102140000BD8DFE803F021071B070A152121150A28
:10215000071B0721D368013BD3605DF8044B704730
:10216000937A03F003030029E6D043F00403E3E786
:10217000D3685DF8044B023BD3607047D3685DF8C9
:10218000044B0233D3607047D3685DF8044B0133CE
:10219000D360704788250020214B10B4D3F8EC2081
:1021A0001368506819780478507A137A044201EA67
:1021B00003011BD0937A03F0030309B143F0040336
:1021C00043F008039910013B91720D2B0BD8DFE807
:1021D00003F021071B070A152121150A071B0721F8
:1021E000D368013BD3605DF8044B7047937A03F0EA
:1021F00003030029E6D043F00403E3E7D3685DF866
:10220000044B023BD3607047D3685DF8044B023344
:10221000D3607047D3685DF8044B0133D3607047D7
:1022200088250020214B10B41A681368506819786B
:102230000478507A137A044201EA03011BD0937A9E
:1022400003F0030309B143F0040343F008039910BA
:10225000013B91720D2B0BD8DFE803F021071B0720
:102260000A152121150A071B0721D368013BD360FA
:102270005DF8044B7047937A03F003030029E6D01E
:1022800043F00403E3E7D3685DF8044B023BD360FB
:102290007047D3685DF8044B0233D3607047D3684E
:1022A0005DF8044B0133D360704700BF88250020E0
:1022B000214B10B45A681368506819780478507A22
:1022C000137A044201EA03011BD0937A03F003035B
:1022D00009B143F0040343F008039910013B9172E4
:1022E0000D2B0BD8DFE803F021071B070A1521216E
:1022F000150A071B0721D368013BD3605DF8044B27
:102300007047937A03F003030029E6D043F00403F7
:10231000E3E7D3685DF8044B023BD3607047D368B2
:102320005DF8044B0233D3607047D3685DF8044B0B
:102330000133D360704700BF88250020214B10B4C3
:10234000D3F8C8201368506819780478507A137A43
:10235000044201EA03011BD0937A03F0030309B19D
:1023600043F0040343F008039910013B91720D2BD5
:102370000BD8DFE803F021071B070A152121150AF6
:10238000071B0721D368013BD3605DF8044B7047FE
:10239000937A03F003030029E6D043F00403E3E754
:1023A000D3685DF8044B023BD3607047D3685DF897
:1023B000044B0233D3607047D3685DF8044B01339C
:1023C000D360704788250020214B10B4D3F8CC206F
:1023D0001368506819780478507A137A044201EA35
:1023E00003011BD0937A03F0030309B143F0040304
:1023F00043F008039910013B91720D2B0BD8DFE8D5
:1024000003F021071B070A152121150A071B0721C5
:10241000D368013BD3605DF8044B7047937A03F0B7
:1024200003030029E6D043F00403E3E7D3685DF833
:10243000044B023BD3607047D3685DF8044B023312
:10244000D3607047D3685DF8044B0133D3607047A5
:1024500088250020214B10B4D3F8D0201368506891
:1024600019780478507A137A044201EA03011BD0E8
:10247000937A03F0030309B143F0040343F0080324
:102480009910013B91720D2B0BD8DFE803F0210767
:102490001B070A152121150A071B0721D368013BD9
:1024A000D3605DF8044B7047937A03F0030300296F
:1024B000E6D043F00403E3E7D3685DF8044B023B46
:1024C000D3607047D3685DF8044B0233D360704724
:1024D000D3685DF8044B0133D36070478825002032
:1024E000214B10B4D3F8D4201368506819780478BD
:1024F000507A137A044201EA03011BD0937A03F065
:10250000030309B143F0040343F008039910013BAE
:1025100091720D2B0BD8DFE803F021071B070A157A
:102520002121150A071B0721D368013BD3605DF801
:10253000044B7047937A03F003030029E6D043F07D
:102540000403E3E7D3685DF8044B023BD3607047B4
:10255000D3685DF8044B0233D3607047D3685DF8ED
:10256000044B0133D360704788250020214B10B401
:10257000D3F8D8201368506819780478507A137A01
:10258000044201EA03011BD0937A03F0030309B16B
:1025900043F0040343F008039910013B91720D2BA3
:1025A0000BD8DFE803F021071B070A152121150AC4
:1025B000071B0721D368013BD3605DF8044B7047CC
:1025C000937A03F003030029E6D043F00403E3E722
:1025D000D3685DF8044B023BD3607047D3685DF865
:1025E000044B0233D3607047D3685DF8044B01336A
:1025F000D360704788250020214B10B4D3F8DC202D
:102600001368506819780478507A137A044201EA02
:1026100003011BD0937A03F0030309B143F00403D1
:1026200043F008039910013B91720D2B0BD8DFE8A2
:1026300003F021071B070A152121150A071B072193
:10264000D368013BD3605DF8044B7047937A03F085
:1026500003030029E6D043F00403E3E7D3685DF801
:10266000044B023BD3607047D3685DF8044B0233E0
:10267000D3607047D3685DF8044B0133D360704773
:1026800088250020214B10B4D3F8E020136850684F
:1026900019780478507A137A044201EA03011BD0B6
:1026A000937A03F0030309B143F0040343F00803F2
:1026B0009910013B91720D2B0BD8DFE803F0210735
:1026C0001B070A152121150A071B0721D368013BA7
:1026D000D3605DF8044B7047937A03F0030300293D
:1026E000E6D043F00403E3E7D3685DF8044B023B14
:1026F000D3607047D3685DF8044B0233D3607047F2
:10270000D3685DF8044B0133D360704788250020FF
:10271000214B10B4D3F8E42013685068197804787A
:10272000507A137A044201EA03011BD0937A03F032
:10273000030309B143F0040343F008039910013B7C
:1027400091720D2B0BD8DFE803F021071B070A1548
:102750002121150A071B0721D368013BD3605DF8CF
:10276000044B7047937A03F003030029E6D043F04B
:102770000403E3E7D3685DF8044B023BD360704782
:10278000D3685DF8044B0233D3607047D3685DF8BB
:10279000044B0133D360704788250020214B10B4CF
:1027A000D3F888201368506819780478507A137A1F
:1027B000044201EA03011BD0937A03F0030309B139
:1027C00043F0040343F008039910013B91720D2B71
:1027D0000BD8DFE803F021071B070A152121150A92
:1027E000071B0721D368013BD3605DF8044B70479A
:1027F000937A03F003030029E6D043F00403E3E7F0
:10280000D3685DF8044B023BD3607047D3685DF832
:10281000044B0233D3607047D3685DF8044B013337
:10282000D360704788250020214B10B4D3F88C204A
:102830001368506819780478507A137A044201EAD0
:1028400003011BD0937A03F0030309B143F004039F
:1028500043F008039910013B91720D2B0BD8DFE870
:1028600003F021071B070A152121150A071B072161
:10287000D368013BD3605DF8044B7047937A03F053
:1028800003030029E6D043F00403E3E7D3685DF8CF
:10289000044B023BD3607047D3685DF8044B0233AE
:1028A000D3607047D3685DF8044B0133D360704741
:1028B00088250020214B10B4D3F89020136850686D
:1028C00019780478507A137A044201EA03011BD084
:1028D000937A03F0030309B143F0040343F00803C0
:1028E0009910013B91720D2B0BD8DFE803F0210703
:1028F0001B070A152121150A071B0721D368013B75
:10290000D3605DF8044B7047937A03F0030300290A
:10291000E6D043F00403E3E7D3685DF8044B023BE1
:10292000D3607047D3685DF8044B0233D3607047BF
:10293000D3685DF8044B0133D360704788250020CD
:10294000214B10B4D3F89420136850681978047898
:10295000507A137A044201EA03011BD0937A03F000
:10296000030309B143F0040343F008039910013B4A
:1029700091720D2B0BD8DFE803F021071B070A1516
:102980002121150A071B0721D368013BD3605DF89D
:10299000044B7047937A03F003030029E6D043F019
:1029A0000403E3E7D3685DF8044B023BD360704750
:1029B000D3685DF8044B0233D3607047D3685DF889
:1029C000044B0133D360704788250020214B10B49D
:1029D000D3F898201368506819780478507A137ADD
:1029E000044201EA03011BD0937A03F0030309B107
:1029F00043F0040343F008039910013B91720D2B3F
:102A00000BD8DFE803F021071B070A152121150A5F
:102A1000071B0721D368013BD3605DF8044B704767
:102A2000937A03F003030029E6D043F00403E3E7BD
:102A3000D3685DF8044B023BD3607047D3685DF800
:102A4000044B0233D3607047D3685DF8044B013305
:102A5000D360704788250020214B10B4D3F89C2008
:102A60001368506819780478507A137A044201EA9E
:102A700003011BD0937A03F0030309B143F004036D
:102A800043F008039910013B91720D2B0BD8DFE83E
:102A900003F021071B070A152121150A071B07212F
:102AA000D368013BD3605DF8044B7047937A03F021
:102AB00003030029E6D043F00403E3E7D3685DF89D
:102AC000044B023BD3607047D3685DF8044B02337C
:102AD000D3607047D3685DF8044B0133D36070470F
:102AE00088250020214B10B4D3F8A020136850682B
:102AF00019780478507A137A044201EA03011BD052
:102B0000937A03F0030309B143F0040343F008038D
:102B10009910013B91720D2B0BD8DFE803F02107D0
:102B20001B070A152121150A071B0721D368013B42
:102B3000D3605DF8044B7047937A03F003030029D8
:102B4000E6D043F00403E3E7D3685DF8044B023BAF
:102B5000D3607047D3685DF8044B0233D36070478D
:102B6000D3685DF8044B0133D3607047882500209B
:102B7000214B10B4D3F8A420136850681978047856
:102B8000507A137A044201EA03011BD0937A03F0CE
:102B9000030309B143F0040343F008039910013B18
:102BA00091720D2B0BD8DFE803F021071B070A15E4
:102BB0002121150A071B0721D368013BD3605DF86B
:102BC000044B7047937A03F003030029E6D043F0E7
:102BD0000403E3E7D3685DF8044B023BD36070471E
:102BE000D3685DF8044B0233D3607047D3685DF857
:102BF000044B0133D360704788250020214B10B46B
:102C0000D3F8A8201368506819780478507A137A9A
:102C1000044201EA03011BD0937A03F0030309B1D4
:102C200043F0040343F008039910013B91720D2B0C
:102C30000BD8DFE803F021071B070A152121150A2D
:102C4000071B0721D368013BD3605DF8044B704735
:102C5000937A03F003030029E6D043F00403E3E78B
:102C6000D3685DF8044B023BD3607047D3685DF8CE
:102C7000044B0233D3607047D3685DF8044B0133D3
:102C8000D360704788250020214B10B4D3F8AC20C6
:102C90001368506819780478507A137A044201EA6C
:102CA00003011BD0937A03F0030309B143F004033B
:102CB00043F008039910013B91720D2B0BD8DFE80C
:102CC00003F021071B070A152121150A071B0721FD
:102CD000D368013BD3605DF8044B7047937A03F0EF
:102CE00003030029E6D043F00403E3E7D3685DF86B
:102CF000044B023BD3607047D3685DF8044B02334A
:102D0000D3607047D3685DF8044B0133D3607047DC
:102D100088250020214B10B4D3F8B02013685068E8
:102D200019780478507A137A044201EA03011BD01F
:102D3000937A03F0030309B143F0040343F008035B
:102D40009910013B91720D2B0BD8DFE803F021079E
:102D50001B070A152121150A071B0721D368013B10
:102D6000D3605DF8044B7047937A03F003030029A6
:102D7000E6D043F00403E3E7D3685DF8044B023B7D
:102D8000D3607047D3685DF8044B0233D36070475B
:102D9000D3685DF8044B0133D36070478825002069
:102DA000214B10B4D3F8B420136850681978047814
:102DB000507A137A044201EA03011BD0937A03F09C
:102DC000030309B143F0040343F008039910013BE6
:102DD00091720D2B0BD8DFE803F021071B070A15B2
:102DE0002121150A071B0721D368013BD3605DF839
:102DF000044B7047937A03F003030029E6D043F0B5
:102E00000403E3E7D3685DF8044B023BD3607047EB
:102E1000D3685DF8044B0233D3607047D3685DF824
:102E2000044B0133D360704788250020214B10B438
:102E3000D3F8B8201368506819780478507A137A58
:102E4000044201EA03011BD0937A03F0030309B1A2
:102E500043F0040343F008039910013B91720D2BDA
:102E60000BD8DFE803F021071B070A152121150AFB
:102E7000071B0721D368013BD3605DF8044B704703
:102E8000937A03F003030029E6D043F00403E3E759
:102E9000D3685DF8044B023BD3607047D3685DF89C
:102EA000044B0233D3607047D3685DF8044B0133A1
:102EB000D360704788250020214B10B4D3F8BC2084
:102EC0001368506819780478507A137A044201EA3A
:102ED00003011BD0937A03F0030309B143F0040309
:102EE00043F008039910013B91720D2B0BD8DFE8DA
:102EF00003F021071B070A152121150A071B0721CB
:102F0000D368013BD3605DF8044B7047937A03F0BC
:102F100003030029E6D043F00403E3E7D3685DF838
:102F2000044B023BD3607047D3685DF8044B023317
:102F3000D3607047D3685DF8044B0133D3607047AA
:102F400088250020214B10B4D3F8C02013685068A6
:102F500019780478507A137A044201EA03011BD0ED
:102F6000937A03F0030309B143F0040343F0080329
:102F70009910013B91720D2B0BD8DFE803F021076C
:102F80001B070A152121150A071B0721D368013BDE
:102F9000D3605DF8044B7047937A03F00303002974
:102FA000E6D043F00403E3E7D3685DF8044B023B4B
:102FB000D3607047D3685DF8044B0233D360704729
:102FC000D3685DF8044B0133D36070478825002037
:102FD000214B10B4D3F8C4201368506819780478D2
:102FE000507A137A044201EA03011BD0937A03F06A
:102FF000030309B143F0040343F008039910013BB4
:1030000091720D2B0BD8DFE803F021071B070A157F
:103010002121150A071B0721D368013BD3605DF806
:10302000044B7047937A03F003030029E6D043F082
:103030000403E3E7D3685DF8044B023BD3607047B9
:10304000D3685DF8044B0233D3607047D3685DF8F2
:10305000044B0133D360704788250020214B10B406
:103060009A681368506819780478507A137A044281
:1030700001EA03011BD0937A03F0030309B143F083
:10308000040343F008039910013B91720D2B0BD8F8
:10309000DFE803F021071B070A152121150A071B8A
:1030A0000721D368013BD3605DF8044B7047937AE6
:1030B00003F003030029E6D043F00403E3E7D368F9
:1030C0005DF8044B023BD3607047D3685DF8044B56
:1030D0000233D3607047D3685DF8044B0133D3608B
:1030E000704700BF88250020214B10B4DA681368B0
:1030F000506819780478507A137A044201EA03017F
:103100001BD0937A03F0030309B143F0040343F0A7
:1031100008039910013B91720D2B0BD8DFE803F0E7
:1031200021071B070A152121150A071B0721D36850
:10313000013BD3605DF8044B7047937A03F00303BF
:103140000029E6D043F00403E3E7D3685DF8044BBD
:10315000023BD3607047D3685DF8044B0233D36001
:103160007047D3685DF8044B0133D360704700BFEC
:1031700088250020214B10B41A691368506819780B
:103180000478507A137A044201EA03011BD0937A3F
:1031900003F0030309B143F0040343F0080399105B
:1031A000013B91720D2B0BD8DFE803F021071B07C1
:1031B0000A152121150A071B0721D368013BD3609B
:1031C0005DF8044B7047937A03F003030029E6D0BF
:1031D00043F00403E3E7D3685DF8044B023BD3609C
:1031E0007047D3685DF8044B0233D3607047D368EF
:1031F0005DF8044B0133D360704700BF8825002081
:10320000214B10B45A691368506819780478507AC1
:10321000137A044201EA03011BD0937A03F00303FB
:1032200009B143F0040343F008039910013B917284
:103230000D2B0BD8DFE803F021071B070A1521210E
:10324000150A071B0721D368013BD3605DF8044BC7
:103250007047937A03F003030029E6D043F0040398
:10326000E3E7D3685DF8044B023BD3607047D36853
:103270005DF8044B0233D3607047D3685DF8044BAC
:103280000133D360704700BF88250020214B10B464
:103290009A691368506819780478507A137A04424E
:1032A00001EA03011BD0937A03F0030309B143F051
:1032B000040343F008039910013B91720D2B0BD8C6
:1032C000DFE803F021071B070A152121150A071B58
:1032D0000721D368013BD3605DF8044B7047937AB4
:1032E00003F003030029E6D043F00403E3E7D368C7
:1032F0005DF8044B023BD3607047D3685DF8044B24
:103300000233D3607047D3685DF8044B0133D36058
:10331000704700BF88250020214B10B4DA6913687C
:10332000506819780478507A137A044201EA03014C
:103330001BD0937A03F0030309B143F0040343F075
:1033400008039910013B91720D2B0BD8DFE803F0B5
:1033500021071B070A152121150A071B0721D3681E
:10336000013BD3605DF8044B7047937A03F003038D
:103370000029E6D043F00403E3E7D3685DF8044B8B
:10338000023BD3607047D3685DF8044B0233D360CF
:103390007047D3685DF8044B0133D360704700BFBA
:1033A00088250020214B10B41A6A136850681978D8
:1033B0000478507A137A044201EA03011BD0937A0D
:1033C00003F0030309B143F0040343F00803991029
:1033D000013B91720D2B0BD8DFE803F021071B078F
:1033E0000A152121150A071B0721D368013BD36069
:1033F0005DF8044B7047937A03F003030029E6D08D
:1034000043F00403E3E7D3685DF8044B023BD36069
:103410007047D3685DF8044B0233D3607047D368BC
:103420005DF8044B0133D360704700BF882500204E
:10343000214B10B45A6A1368506819780478507A8E
:10344000137A044201EA03011BD0937A03F00303C9
:1034500009B143F0040343F008039910013B917252
:103460000D2B0BD8DFE803F021071B070A152121DC
:10347000150A071B0721D368013BD3605DF8044B95
:103480007047937A03F003030029E6D043F0040366
:10349000E3E7D3685DF8044B023BD3607047D36821
:1034A0005DF8044B0233D3607047D3685DF8044B7A
:1034B0000133D360704700BF88250020214B10B432
:1034C0009A6A1368506819780478507A137A04421B
:1034D00001EA03011BD0937A03F0030309B143F01F
:1034E000040343F008039910013B91720D2B0BD894
:1034F000DFE803F021071B070A152121150A071B26
:103500000721D368013BD3605DF8044B7047937A81
:1035100003F003030029E6D043F00403E3E7D36894
:103520005DF8044B023BD3607047D3685DF8044BF1
:103530000233D3607047D3685DF8044B0133D36026
:10354000704700BF88250020214B10B4DA6A136849
:10355000506819780478507A137A044201EA03011A
:103560001BD0937A03F0030309B143F0040343F043
:1035700008039910013B91720D2B0BD8DFE803F083
:1035800021071B070A152121150A071B0721D368EC
:10359000013BD3605DF8044B7047937A03F003035B
:1035A0000029E6D043F00403E3E7D3685DF8044B59
:1035B000023BD3607047D3685DF8044B0233D3609D
:1035C0007047D3685DF8044B0133D360704700BF88
:1035D00088250020214B10B41A6B136850681978A5
:1035E0000478507A137A044201EA03011BD0937ADB
:1035F00003F0030309B143F0040343F008039910F7
:10360000013B91720D2B0BD8DFE803F021071B075C
:103610000A152121150A071B0721D368013BD36036
:103620005DF8044B7047937A03F003030029E6D05A
:1036300043F00403E3E7D3685DF8044B023BD36037
:103640007047D3685DF8044B0233D3607047D3688A
:103650005DF8044B0133D360704700BF882500201C
:10366000214B10B45A6B1368506819780478507A5B
:10367000137A044201EA03011BD0937A03F0030397
:1036800009B143F0040343F008039910013B917220
:103690000D2B0BD8DFE803F021071B070A152121AA
:1036A000150A071B0721D368013BD3605DF8044B63
:1036B0007047937A03F003030029E6D043F0040334
:1036C000E3E7D3685DF8044B023BD3607047D368EF
:1036D0005DF8044B0233D3607047D3685DF8044B48
:1036E0000133D360704700BF88250020214B10B400
:1036F0009A6B1368506819780478507A137A0442E8
:1037000001EA03011BD0937A03F0030309B143F0EC
:10371000040343F008039910013B91720D2B0BD861
:10372000DFE803F021071B070A152121150A071BF3
:103730000721D368013BD3605DF8044B7047937A4F
:1037400003F003030029E6D043F00403E3E7D36862
:103750005DF8044B023BD3607047D3685DF8044BBF
:103760000233D3607047D3685DF8044B0133D360F4
:10377000704700BF88250020214B10B4DA6B136816
:10378000506819780478507A137A044201EA0301E8
:103790001BD0937A03F0030309B143F0040343F011
:1037A00008039910013B91720D2B0BD8DFE803F051
:1037B00021071B070A152121150A071B0721D368BA
:1037C000013BD3605DF8044B7047937A03F0030329
:1037D0000029E6D043F00403E3E7D3685DF8044B27
:1037E000023BD3607047D3685DF8044B0233D3606B
:1037F0007047D3685DF8044B0133D360704700BF56
:1038000088250020214B10B41A6C13685068197871
:103810000478507A137A044201EA03011BD0937AA8
:1038200003F0030309B143F0040343F008039910C4
:10383000013B91720D2B0BD8DFE803F021071B072A
:103840000A152121150A071B0721D368013BD36004
:103850005DF8044B7047937A03F003030029E6D028
:1038600043F00403E3E7D3685DF8044B023BD36005
:103870007047D3685DF8044B0233D3607047D36858
:103880005DF8044B0133D360704700BF88250020EA
:10389000214B10B45A6C1368506819780478507A28
:1038A000137A044201EA03011BD0937A03F0030365
:1038B00009B143F0040343F008039910013B9172EE
:1038C0000D2B0BD8DFE803F021071B070A15212178
:1038D000150A071B0721D368013BD3605DF8044B31
:1038E0007047937A03F003030029E6D043F0040302
:1038F000E3E7D3685DF8044B023BD3607047D368BD
:103900005DF8044B0233D3607047D3685DF8044B15
:103910000133D360704700BF88250020214B10B4CD
:103920009A6C1368506819780478507A137A0442B4
:1039300001EA03011BD0937A03F0030309B143F0BA
:10394000040343F008039910013B91720D2B0BD82F
:10395000DFE803F021071B070A152121150A071BC1
:103960000721D368013BD3605DF8044B7047937A1D
:1039700003F003030029E6D043F00403E3E7D36830
:103980005DF8044B023BD3607047D3685DF8044B8D
:103990000233D3607047D3685DF8044B0133D360C2
:1039A000704700BF88250020214B10B4DA6C1368E3
:1039B000506819780478507A137A044201EA0301B6
:1039C0001BD0937A03F0030309B143F0040343F0DF
:1039D00008039910013B91720D2B0BD8DFE803F01F
:1039E00021071B070A152121150A071B0721D36888
:1039F000013BD3605DF8044B7047937A03F00303F7
:103A00000029E6D043F00403E3E7D3685DF8044BF4
:103A1000023BD3607047D3685DF8044B0233D36038
:103A20007047D3685DF8044B0133D360704700BF23
:103A300088250020214B10B41A6D1368506819783E
:103A40000478507A137A044201EA03011BD0937A76
:103A500003F0030309B143F0040343F00803991092
:103A6000013B91720D2B0BD8DFE803F021071B07F8
:103A70000A152121150A071B0721D368013BD360D2
:103A80005DF8044B7047937A03F003030029E6D0F6
:103A900043F00403E3E7D3685DF8044B023BD360D3
:103AA0007047D3685DF8044B0233D3607047D36826
:103AB0005DF8044B0133D360704700BF88250020B8
:103AC000214B10B45A6D1368506819780478507AF5
:103AD000137A044201EA03011BD0937A03F0030333
:103AE00009B143F0040343F008039910013B9172BC
:103AF0000D2B0BD8DFE803F021071B070A15212146
:103B0000150A071B0721D368013BD3605DF8044BFE
:103B10007047937A03F003030029E6D043F00403CF
:103B2000E3E7D3685DF8044B023BD3607047D3688A
:103B30005DF8044B0233D3607047D3685DF8044BE3
:103B40000133D360704700BF88250020214B10B49B
:103B50009A6D1368506819780478507A137A044281
:103B600001EA03011BD0937A03F0030309B143F088
:103B7000040343F008039910013B91720D2B0BD8FD
:103B8000DFE803F021071B070A152121150A071B8F
:103B90000721D368013BD3605DF8044B7047937AEB
:103BA00003F003030029E6D043F00403E3E7D368FE
:103BB0005DF8044B023BD3607047D3685DF8044B5B
:103BC0000233D3607047D3685DF8044B0133D36090
:103BD000704700BF88250020214B10B4DA6D1368B0
:103BE000506819780478507A137A044201EA030184
:103BF0001BD0937A03F0030309B143F0040343F0AD
:103C000008039910013B91720D2B0BD8DFE803F0EC
:103C100021071B070A152121150A071B0721D36855
:103C2000013BD3605DF8044B7047937A03F00303C4
:103C30000029E6D043F00403E3E7D3685DF8044BC2
:103C4000023BD3607047D3685DF8044B0233D36006
:103C50007047D3685DF8044B0133D360704700BFF1
:103C600088250020214B10B41A6E1368506819780B
:103C70000478507A137A044201EA03011BD0937A44
:103C800003F0030309B143F0040343F00803991060
:103C9000013B91720D2B0BD8DFE803F021071B07C6
:103CA0000A152121150A071B0721D368013BD360A0
:103CB0005DF8044B7047937A03F003030029E6D0C4
:103CC00043F00403E3E7D3685DF8044B023BD360A1
:103CD0007047D3685DF8044B0233D3607047D368F4
:103CE0005DF8044B0133D360704700BF8825002086
:103CF000214B10B45A6E1368506819780478507AC2
:103D0000137A044201EA03011BD0937A03F0030300
:103D100009B143F0040343F008039910013B917289
:103D20000D2B0BD8DFE803F021071B070A15212113
:103D3000150A071B0721D368013BD3605DF8044BCC
:103D40007047937A03F003030029E6D043F004039D
:103D5000E3E7D3685DF8044B023BD3607047D36858
:103D60005DF8044B0233D3607047D3685DF8044BB1
:103D70000133D360704700BF88250020214B10B469
:103D80009A6E1368506819780478507A137A04424E
:103D900001EA03011BD0937A03F0030309B143F056
:103DA000040343F008039910013B91720D2B0BD8CB
:103DB000DFE803F021071B070A152121150A071B5D
:103DC0000721D368013BD3605DF8044B7047937AB9
:103DD00003F003030029E6D043F00403E3E7D368CC
:103DE0005DF8044B023BD3607047D3685DF8044B29
:103DF0000233D3607047D3685DF8044B0133D3605E
:103E0000704700BF88250020214B10B4DA6E13687C
:103E1000506819780478507A137A044201EA030151
:103E20001BD0937A03F0030309B143F0040343F07A
:103E300008039910013B91720D2B0BD8DFE803F0BA
:103E400021071B070A152121150A071B0721D36823
:103E5000013BD3605DF8044B7047937A03F0030392
:103E60000029E6D043F00403E3E7D3685DF8044B90
:103E7000023BD3607047D3685DF8044B0233D360D4
:103E80007047D3685DF8044B0133D360704700BFBF
:103E900088250020214B10B41A6F136850681978D8
:103EA0000478507A137A044201EA03011BD0937A12
:103EB00003F0030309B143F0040343F0080399102E
:103EC000013B91720D2B0BD8DFE803F021071B0794
:103ED0000A152121150A071B0721D368013BD3606E
:103EE0005DF8044B7047937A03F003030029E6D092
:103EF00043F00403E3E7D3685DF8044B023BD3606F
:103F00007047D3685DF8044B0233D3607047D368C1
:103F10005DF8044B0133D360704700BF8825002053
:103F2000214B10B45A6F1368506819780478507A8E
:103F3000137A044201EA03011BD0937A03F00303CE
:103F400009B143F0040343F008039910013B917257
:103F50000D2B0BD8DFE803F021071B070A152121E1
:103F6000150A071B0721D368013BD3605DF8044B9A
:103F70007047937A03F003030029E6D043F004036B
:103F8000E3E7D3685DF8044B023BD3607047D36826
:103F90005DF8044B0233D3607047D3685DF8044B7F
:103FA0000133D360704700BF88250020214B10B437
:103FB0009A6F1368506819780478507A137A04421B
:103FC00001EA03011BD0937A03F0030309B143F024
:103FD000040343F008039910013B91720D2B0BD899
:103FE000DFE803F021071B070A152121150A071B2B
:103FF0000721D368013BD3605DF8044B7047937A87
:1040000003F003030029E6D043F00403E3E7D36899
:104010005DF8044B023BD3607047D3685DF8044BF6
:104020000233D3607047D3685DF8044B0133D3602B
:10403000704700BF88250020214B10B4DA6F136849
:10404000506819780478507A137A044201EA03011F
:104050001BD0937A03F0030309B143F0040343F048
:1040600008039910013B91720D2B0BD8DFE803F088
:1040700021071B070A152121150A071B0721D368F1
:10408000013BD3605DF8044B7047937A03F0030360
:104090000029E6D043F00403E3E7D3685DF8044B5E
:1040A000023BD3607047D3685DF8044B0233D360A2
:1040B0007047D3685DF8044B0133D360704700BF8D
:1040C00088250020214B10B4D3F880201368506855
:1040D00019780478507A137A044201EA03011BD05C
:1040E000937A03F0030309B143F0040343F0080398
:1040F0009910013B91720D2B0BD8DFE803F02107DB
:104100001B070A152121150A071B0721D368013B4C
:10411000D3605DF8044B7047937A03F003030029E2
:10412000E6D043F00403E3E7D3685DF8044B023BB9
:10413000D3607047D3685DF8044B0233D360704797
:10414000D3685DF8044B0133D360704788250020A5
:10415000214B10B4D3F88420136850681978047880
:10416000507A137A044201EA03011BD0937A03F0D8
:10417000030309B143F0040343F008039910013B22
:1041800091720D2B0BD8DFE803F021071B070A15EE
:104190002121150A071B0721D368013BD3605DF875
:1041A000044B7047937A03F003030029E6D043F0F1
:1041B0000403E3E7D3685DF8044B023BD360704728
:1041C000D3685DF8044B0233D3607047D3685DF861
:1041D000044B0133D360704788250020002310B4BE
:1041E000114C4172026104600372C36041B119460F
:1041F00000E0026942F82310427A01339A42F8DC67
:104200000A4B1A680AB90CE01A465369002BFBD115
:104210005061002343618380C38083725DF8044B47
:1042200070471860F5E700BF5C9D020098280020E9
:1042300014490A68002310B4134C046043720361EC
:104240000372C3600AB91AE01A465369002BFBD106
:10425000506100230D4943614FF080428380C38049
:1042600083728361C36103624362C36203864386D0
:104270008386C386016082625DF8044B70470860E4
:10428000E7E700BF982800205C9D0200B8C6030045
:1042900000211C4B036010B400F1180202240B46ED
:1042A000447202610172C16000E0026942F82310A9
:1042B000427A01339A42F8DC134B1A680AB91FE0BC
:1042C0001A465369002BFBD1506100230F4943610B
:1042D0004FF400428380C380837203624362C362EF
:1042E0000363A0F83432A0F8363280F8383280F810
:1042F0003932A0F83A32016082625DF8044B7047AF
:104300001860E2E75C9D020098280020C4C6030004
:10431000F5EEC00AF1EE10FAF7EE007AB4EEE70A15
:104320003FD9F1EE10FA1FDD444ADFED457A60EE29
:10433000A70AFDEEE07A17EE903A63B372B6C16950
:104340000262914259D030B481FAA2F4EFF30085B1
:104350002D0130D494FBF3F3002B37D043620123BB
:10436000037662B630BC7047BFEE007AB4EEC70A7F
:10437000F1EE10FA45D4DFED326A60EEA60AFDEEEA
:10438000E06A16EE903A002B46D1B4EEE70AF1EE61
:1043900010FA38DD294A72B60023C261037662B68C
:1043A0007047F1EE10FA18DD244B72B60022C3619B
:1043B000027662B670475D1C022D91BF234692FBC8
:1043C000F3F491FBF3F3E31A002BC7D19142ACBF96
:1043D0004FF0FF3201224262C1E7FFEE007AB4EEF5
:1043E000E70AF1EE10FA15D4DFED167A20EE270A6F
:1043F000FDEEC07A17EE903AD7E70023037662B657
:104400007047114A91E7B4EEC70AF1EE10FA0CD5E5
:104410000D4AC0E70C4BC8E7DFED0A7A20EE270A09
:10442000FDEEC07A17EE902A88E7DFED067A20EEDF
:10443000270AFDEEC07A17EE902AACE70000FF7F56
:104440007978304200FEFF4E000001802DE9F84FE0
:10445000804672B600252E4629464FF0C80B0CE068
:10446000B3F92020002A05DDB3F92220002A05F146
:1044700001050BDB0135FF2D3BD808EB4503002977
:10448000EED0013505F1100338F91320D8F81C00DF
:104490001949A2F5FF427F3A0BFB02F2B7B281FB4A
:1044A000021408EB4606016807F10F090FFA89F9B3
:1044B0004FEAE27E00231444D1F810A0B6F920227E
:1044C0004946AEEBE434D047D8F81C00263C0368DC
:1044D00024B249462246D3F8109001354FF4F663D2
:1044E000C8470137FF2DA6F820424FF001013EB228
:1044F000C3D962B6BDE8F88F0180008038B572B6C6
:10450000D0F8205305F110025200931E02F1FE0470
:1045100003448A1E044432F9021F23F8021FA342F7
:10452000F9D105F18003FF2BC0F8203304D9002313
:10453000C0F82033FFF78AFF62B638BDC2697AB18E
:1045400038B5002104461CF04FFB054648B1204613
:10455000291DFFF7D3FF2846BDE838401CF000BBFB
:10456000704738BD2DE9F047884682B006461546AB
:104570009A4601F1FF3900277C1CA54206D800238A
:10458000384608F8073002B0BDE8F08701220DF187
:104590000701304614F0E6FF0128F0D19DF807101E
:1045A0000D29EAD009F8011F504621F053FD274696
:1045B0000028E1D0E3E700BF2DE9F041DFF880807B
:1045C0001D4F8AB00C46054601F54076284614F08A
:1045D00029FF10B90AB0BDE8F0811422A642174B9A
:1045E0000DEB02012846F5D0FFF7BCFF0AAA431ED7
:1045F000134400210028EDD013F8142C2C2A18D0D5
:104600000A2A284615D014F00DFF0721002814BFF0
:10461000404638461CF016F905A901A81CF0EAFE30
:1046200001A920461CF092FF01A81CF0A3FE103443
:10463000CCE703F8141CEFE79CB20300A4B203001C
:1046400094B2030030B5044689B00D461A4821469D
:1046500015F06EF958BB684613232246164915F02B
:10466000F3F8684614F092FF90B9192113481CF032
:10467000E9F8204621F044FF014620461CF0E2F80C
:104680000F481CF0D1FD684614F060FF09B030BD42
:10469000294668461CF0A2FD68461CF0C5FD684628
:1046A00014F066FF684614F051FF09B030BD214692
:1046B000014815F04BF9CEE7B8150020A8B2030069
:1046C000B043FF1F70B588B0064668460D461CF023
:1046D000A5FE05F1100405F54075694604A81CF017
:1046E0009DFE104904A81CF0AFFF21461CF0A4FF5A
:1046F000014668461CF022FF103404A81CF03AFE64
:10470000AC42EAD1694604A81CF088FE04A93046F0
:10471000FFF798FF04A81CF02DFE68461CF02AFE47
:1047200008B070BDC4B2030010B501460446054888
:1047300015F0FEF800B910BD21460248BDE8104052
:1047400015F004B9B815002008B50B463B2800F257
:10475000C682DFE810F0BB02B202A902A0029702F3
:104760008E0285027C0273026A02610258024F02C5
:1047700046023D0234022B022202190210020702F5
:10478000AE01A5019C0193018A01810178016F01AD
:1047900066015D0154014A01400136012C012201EC
:1047A00018010E010401FA00F000E600DC00D2005E
:1047B000C800BE00B400AA00A00096008C008200D1
:1047C00078006E0064005A00500046003C00BD4A6C
:1047D000BD49C2F8EC303B2004221AF0ADFC0120A8
:1047E00008BDB84AB949C2F8E8303A2004221AF0A4
:1047F000A3FC012008BDB34AB549C2F8E430392012
:1048000004221AF099FC012008BDAE4AB149C2F851
:10481000E030382004221AF08FFC012008BDA94A9C
:10482000AD49C2F8DC30372004221AF085FC0120A3
:1048300008BDA44AA949C2F8D830362004221AF08B
:104840007BFC012008BD9F4AA549C2F8D430352021
:1048500004221AF071FC012008BD9A4AA149C2F84D
:10486000D030342004221AF067FC012008BD954A9C
:104870009D49C2F8CC30332004221AF05DFC01209F
:1048800008BD904A9949C2F8C830322004221AF073
:1048900053FC012008BD8B4A9549C2F8C430312031
:1048A00004221AF049FC012008BD864A9149C2F849
:1048B000C030302004221AF03FFC012008BD814A9C
:1048C0008D49C2F8BC302F2004221AF035FC01209B
:1048D00008BD7C4A8949C2F8B8302E2004221AF05B
:1048E0002BFC012008BD774A8549C2F8B4302D2041
:1048F00004221AF021FC012008BD724A8149C2F845
:10490000B0302C2004221AF017FC012008BD6D4A9B
:104910007D49C2F8AC302B2004221AF00DFC012096
:1049200008BD684A7949C2F8A8302A2004221AF042
:1049300003FC012008BD634A7549C2F8A430292050
:1049400004221AF0F9FB012008BD5E4A7149C2F841
:10495000A030282004221AF0EFFB012008BD594A9C
:104960006D49C2F89C30272004221AF0E5FB012093
:1049700008BD544A6949C2F89830262004221AF02A
:10498000DBFB012008BD4F4A6549C2F89430252061
:1049900004221AF0D1FB012008BD4A4A6149C2F83D
:1049A0009030242004221AF0C7FB012008BD454A9C
:1049B0005D49C2F88C30232004221AF0BDFB01208F
:1049C00008BD404A5949C2F88830222004221AF012
:1049D000B3FB012008BD3B4A5549C2F88430212071
:1049E00004221AF0A9FB012008BD364A5149C2F839
:1049F0008030202004221AF09FFB012008BD314A9C
:104A00004D49D3671F2004221AF096FB012008BDF0
:104A10002C4A4A4993671E2004221AF08DFB01207C
:104A200008BD284A464953671D2004221AF084FB1A
:104A3000012008BD234A434913671C2004221AF0B1
:104A40007BFB012008BD1F4A3F49D3661B2004227F
:104A50001AF072FB012008BD1A4A3C4993661A20DD
:104A600004221AF069FB012008BD164A3849536632
:104A7000192004221AF060FB012008BD114A3549B3
:104A80001366182004221AF057FB012008BD0D4AB6
:104A90003149D365172004221AF04EFB012008BDCE
:104AA000084A2E499365162004221AF045FB01207E
:104AB00008BD044A2A495365152004221AF03CFB1C
:104AC000012008BD88250020992100000D2100004B
:104AD0001127000085260000F92500006D25000043
:104AE000E124000055240000C92300003D230000FC
:104AF000D12F0000452F0000B92E00002D2E000000
:104B0000A12D0000152D0000892C0000FD2B0000B8
:104B1000712B0000E52A0000592A0000CD29000071
:104B200041290000B5280000292800009D27000029
:104B300051410000C540000039400000AD3F000079
:104B4000213F0000953E0000093E00007D3D000031
:104B5000F13C0000653C0000D93B00004D3B0000EB
:104B6000C13A00005F4A60491365142004221AF01C
:104B7000E3FA012008BD5B4A5C49D3641320042298
:104B80001AF0DAFA012008BD564A594993641220F6
:104B900004221AF0D1FA012008BD524A5549536443
:104BA000112004221AF0C8FA012008BD4D4A5249CA
:104BB0001364102004221AF0BFFA012008BD494AEC
:104BC0004E49D3630F2004221AF0B6FA012008BD23
:104BD000444A4B4993630E2004221AF0ADFA012097
:104BE00008BD404A474953630D2004221AF0A4FA35
:104BF000012008BD3B4A444913630C2004221AF0EB
:104C00009BFA012008BD374A4049D3620B20042299
:104C10001AF092FA012008BD324A3D4993620A20F7
:104C200004221AF089FA012008BD2E4A394953623C
:104C3000092004221AF080FA012008BD294A3649C9
:104C40001362082004221AF077FA012008BD254AD1
:104C50003249D361072004221AF06EFA012008BD00
:104C6000204A2F499361062004221AF065FA012098
:104C700008BD1C4A2B495361052004221AF05CFA36
:104C8000012008BD174A28491361042210461AF072
:104C900053FA012008BD134A2449D360032004229B
:104CA0001AF04AFA012008BD0E4A214993600220F9
:104CB00004221AF041FA012008BD0A4A1D49536036
:104CC000012004221AF038FA012008BD054A1A49C9
:104CD0001360002004221AF02FFA012008BD0020E2
:104CE00008BD00BF88250020353A0000A939000022
:104CF0001D390000913800000538000079370000A8
:104D0000ED36000061360000D53500004935000061
:104D1000BD34000031340000A53300001933000019
:104D20008D3200000132000075310000E9300000D2
:104D30005D300000B12200002522000008B50121ED
:104D40001C201AF09BFA01211B201AF097FA01216E
:104D50001A201AF093FA012119201AF08FFA022171
:104D600027201AF08BFA02211E201AF087FA02215E
:104D700024201AF083FA022110201AF07FFA02216F
:104D800011201AF07BFA022118201AF077FA02217A
:104D90000C201AF073FA02210A201AF06FFA01218E
:104DA00022201AF06BFA012123201AF067FA012160
:104DB00025201AF063FA01210E20BDE808401AF000
:104DC0005DBA00BF08B5012019F086FE38B1012890
:104DD00008D0022809D0064B93ED000A08BD9FEDCC
:104DE000050A08BDB6EE000A08BDB7EE000A08BD08
:104DF000A43FFF1F0000000008B5FFF7E3FFB5EE7A
:104E0000400AF1EE10FA12D0F6EE007AB4EE670A1C
:104E1000F1EE10FA09D0F7EE007AB4EE670AF1EE7F
:104E200010FA14BF0020022008BD012008BD002098
:104E300008BD00BF70B5394C82B04FF6FF752046F3
:104E40000B260021FBF716FB2046019500962E232A
:104E50001E222A2113F0C4FA0195009620463D2314
:104E60001E225821FCF720F81F232D2220462C4912
:104E70002382E28113F05CFF2046012113F050FFF2
:104E800007222849A582204665821CF091F9204618
:104E90001CF0CAF95B26002309222349A382252599
:104EA000204663822582E6811CF082F920461CF0B0
:104EB000BBF94FF6E07320461C49A382638213F0CE
:104EC00037FF46230522204601212382E28113F089
:104ED00027FF0622164920461CF06AF920461CF0DE
:104EE000A3F94FF4784320461249A382638213F05A
:104EF0001FFF114B1D686E225F232846E28123822B
:104F000021F0FEFA2946024620461CF051F92046BF
:104F100002B0BDE870401CF087B900BF94FCFF1FD1
:104F2000D0A30200C8B20300D0B2030054A603000D
:104F3000DCB2030038A60300743FFF1F2DE9F041E7
:104F4000984C82B000212046FBF794FA20469649FF
:104F500013F0EEFE05254FF6E073352220460121C1
:104F60002282A3826382E58113F0DAFE8F49204614
:104F70001CF034F920461CF057F9002320468C49D8
:104F8000A382638213F0D4FE8A4B1B78002B40F07F
:104F9000F180844EDFF844820C251F2730462B46D3
:104FA0001C2273218DE8A00013F01AFA2B4630461C
:104FB0001C2282218DE8A00013F012FA2B46304605
:104FC0001C2291218DE8A00013F00AFA2B463046EE
:104FD0002B2273218DE8A00013F002FA2B463046F5
:104FE0002B2282218DE8A00013F0FAF92B468DE8E0
:104FF000A00030462B22912113F0F2F998F80830E6
:10500000002B40F0A28098F81430002B40F08780ED
:1050100098F82030002B6CD198F82C30002B52D10E
:1050200098F83830002B38D198F84430A3B10C23CD
:105030001F22019200932B2291215A48FBF734FF43
:105040009425332301225C495648E58123821CF0D4
:10505000AFF854481CF0E8F8638952484FF478429E
:10506000143B1BB200920A213E22FBF71DFE53495E
:105070004C4813F05DFE01254FF6FF735A2250494C
:105080004848E5812282A38263821CF0A7F8454844
:1050900002B0BDE8F0411CF0C7B80C231F220192FA
:1050A00000932B2282213F48FBF7FEFE8525332308
:1050B000012244493B48E58123821CF079F83948B4
:1050C0001CF0B2F8B0E70C231F22019200932B22B0
:1050D00073213448FBF7E8FE7625332301223A4951
:1050E0003048E58123821CF063F82E481CF09CF8C0
:1050F00096E70C231F22019200931C22912129483C
:10510000FBF7D2FE94252423012230492548E5816E
:1051100023821CF04DF823481CF086F87CE70C2312
:105120001F22019200931C2282211E48FBF7BCFE25
:1051300085252423012226491A48E58123821CF073
:1051400037F818481CF070F862E72B4630468DE8B7
:10515000A0001C227321FBF7A7FE78202423F081F6
:1051600001221C49338230461CF022F830461CF0E4
:105170005BF848E707224FF47C438DE80C0020469B
:1051800013231C225D21FBF78FFE5E202123E0818B
:1051900003221149238220461CF00AF820461CF005
:1051A00043F8F6E694FCFF1FE0A502007471FF1FB0
:1051B000D0A3020058FCFF1FF8B2030038A0030080
:1051C000C4090020F4B20300F0B20300ECB2030003
:1051D0009CB90300E8B20300E4B203000C3FFF1FD8
:1051E00030B5F2EE0E7A2DED028BF2EE0A8AE0EE89
:1051F000287A85B040F2FF750095FDEEE77A4A22E5
:10520000CDED037ABDF90C301C486C21B0EE408A1C
:10521000FBF74AFDDFED1A7A0095E8EE287A1423B1
:105220004A221648FDEEE77ACDED037ABDF90C402F
:105230002146FBF74DFCF3EE007AE8EE687A214652
:1052400000955E22FDEEE77A0C48CDED037ABDF9BC
:105250000C30FBF729FDB5EEC08AF1EE10FA00958F
:105260004FF015034FF04A024CBF6C218A210348CE
:10527000FBF72EFC05B0BDEC028B30BD94FCFF1F8C
:105280000000F642DFED127AB2EE0A7AF0B5E0EEF7
:10529000077A85B00F4DFDEEE77A40F2FF77CDED4E
:1052A000037ABDF90C4001974A262846234600960A
:1052B0005E226E2113F044F85E230093214601978D
:1052C00032462846882313F03BF805B0F0BD00BFF6
:1052D0000000F64294FCFF1FF0B52DED068BDFEDCC
:1052E000348A344DB2EE0E9AF0EE687AE0EE097A26
:1052F00085B040F2FF764A27FDEEE77AB0EE408AAD
:10530000CDED027ABDF908400097F0EE60AA28467C
:10531000234601965E226421B0EE41AAF0EE619A26
:1053200013F00EF838EE2A8ADFED237A0196B3EEF9
:10533000047AE8EE098A3A462146EAEE477A284698
:10534000BDEEE87AFDEEE77A8DED027ACDED037AD7
:10535000BDF90870BDF90C4000943B4612F0F0FF17
:10536000DFED167A0096E8EE497A3946224628465D
:10537000FDEEE77ACDED027ABDF90830FBF794FC3B
:10538000DFED0F7A0196B2EE0A7AE9EE877A5E23B4
:1053900000932246FDEEE77A2846CDED027ABDF96C
:1053A00008308B2112F0CCFF05B0BDEC068BF0BDB0
:1053B0000000C84294FCFF1F0000BC4200002042D5
:1053C00000000B4330B5464C83B000212046FBF76C
:1053D00051F82046434913F0ABFC00254FF6E0732B
:1053E0003522204601212282A3826382E58113F0C7
:1053F00097FC3D4920461BF0F1FE20461BF014FFB0
:1054000063894FF47842143B1BB2204600920A2174
:105410003E22FBF749FC4FF6FF755A230122334920
:1054200023822046E281A58265821BF0D7FE2046BA
:105430001BF0FAFE2E4B1B78002B3ED12D4B1B6828
:10544000013B032B4AD8DFE803F030281B022A4B2C
:105450002A492B4A93ED000AD1ED001ADFED297A93
:10546000D2ED000A284B93ED001A61EEA71A60EE08
:10547000A70A20EE270A03B0BDE83040FFF72CBF93
:10548000224B2349234A93ED000AD1ED001ADFEDA8
:105490001D7AD2ED000A204BE5E7204B93ED000A80
:1054A00003B0BDE83040FFF7EDBE1C4B93ED000AA2
:1054B00003B0BDE83040FFF793BE42F222230093D1
:1054C000204605234622962113F0A2F80095204697
:1054D000042346229221FBF7E7FBAFE703B030BD80
:1054E00094FCFF1F38A00300706DFF1F78F8FF1FAA
:1054F000E0DBFF1F64FDFF1F8C3FFF1FD03EFF1F3F
:10550000D83EFF1F17B7D138943FFF1F9C3FFF1FA6
:10551000E03EFF1FF83EFF1FC43EFF1F2810002083
:105520002DE9F047544C554F88B020460021FAF73A
:10553000A1FF2046524913F0FBFB4FF6E0753523DF
:105540000522204601212382E281A582658213F093
:10555000E7FB07224B4920461BF02AFE20461BF0A2
:1055600063FE63894FF47842143B1BB220460092DD
:1055700044F610693C220A21FBF796FB204642497B
:1055800013F0D6FB57F80910A58251F8043B03939A
:105590004FF000084E2604A8A4F80E8026826582EB
:1055A0001BF03CFF039920461BF08EFE20461BF0AB
:1055B0003BFE04A81BF0DEFE57F80910268251F8C6
:1055C000043B03934FF6FF764FF0230904A8A4F899
:1055D0000E90A68266821BF021FF04A920461BF0D4
:1055E000FDFD20461BF020FE04A81BF0C3FE44F680
:1055F0000C6A4FF4204E1722CDF804E0B4F90A30BB
:105600000092414655222046FBF74EFC57F80A10FF
:10561000A4F80E8051F8043B03934FF0620804A8ED
:10562000A5826582A4F810801BF0F8FE039920463D
:105630001BF04AFE20461BF0F7FD04A81BF09AFE63
:1056400057F80A10A4F80E9051F8043B039304A8ED
:10565000A4F81080A68266821BF0E0FE04A9204612
:105660001BF0BCFD20461BF0DFFD04A81BF082FEF2
:1056700008B0BDE8F08700BF94FCFF1F8072FF1FD9
:10568000E0A50200FCB2030038A6030038B5154CB3
:1056900000212046FAF7EEFE2046134913F048FB9E
:1056A00002254FF6E073352220460121A382638252
:1056B000E581228213F034FB0B220C4920461BF0BB
:1056C00077FD20461BF0B0FD0A255A23204607220D
:1056D0000749E58123821BF06BFD2046BDE8384079
:1056E0001BF0A2BD94FCFF1F38A0030004B303000D
:1056F00010B3030038B5154C00212046FAF7BAFE66
:105700002046134913F014FB4FF6E07320460121A5
:10571000A3826382052513F003FB35230D220D4977
:1057200023822046E5811BF043FD20461BF07CFDD3
:105730005A2320460D220849E58123821BF038FDBB
:105740002046BDE838401BF06FBD00BF94FCFF1F32
:1057500038A0030018B3030028B3030030B51D4C74
:1057600083B020460021FAF785FE20461A4913F03F
:10577000DFFA4FF6E07320460121A3826382002501
:1057800013F0CEFA35230C22144923822046E581FA
:105790001BF00EFD20461BF047FD63894FF4784255
:1057A000143B204600921BB23E220A21FBF77CFAF2
:1057B00005254FF6FF735A2220460949E5812282CA
:1057C000A38263821BF00AFD204603B0BDE830408F
:1057D0001BF02ABD94FCFF1F38A0030038B3030060
:1057E0002470FF1F2DE9F043A1F1080385B0174E87
:1057F00000F1080700F110080FFA81FE05B291468A
:105800003FB20FFA88F81AB20C463B468DE8040105
:1058100029467246CDF808E03046CDF80C90A6F83F
:1058200010E0F58112F032FF221D0C3412B224B2C6
:10583000CDF804803B462946CDF80C9030460292C4
:10584000009412F023FF05B0BDE8F08394FCFF1F25
:10585000F0B52D4C2D4E83B020460021FAF70AFEFC
:1058600020462B4913F064FA4FF6E07501212046DB
:10587000A582658213F054FA264B1F680022352357
:1058800038462382E28120F03BFE3946024620461C
:105890001BF08EFC20461BF0C7FC3368082B2CD075
:1058A000638919484FF47842143B0A211BB20092D5
:1058B0003E22FBF7F9F9184B1F6805225A234FF6D1
:1058C000FF7538462382E281A582658220F018FEAA
:1058D000394602460C481BF06BFC0B481BF0A4FC3D
:1058E0003368092B01D003B0F0BD2A4650218C202B
:1058F00003B0BDE8F040FFF775BF2A462A218C208F
:10590000FFF770FFCCE700BF94FCFF1F7C3FFF1F39
:1059100038A00300CC3EFF1F543FFF1F10B52DEDF4
:10592000028B0C4684B0B0EE408A01460E481BF054
:1059300015FEB0EE480A022168461BF0B5FD694627
:105940000A481BF003FE68461BF014FD084B09498A
:10595000094A1B6881ED008A14600BB9FCF740FA14
:1059600004B0BDEC028B10BD706DFF1F78F8FF1FF7
:105970000054FF1F2810002064FDFF1F70B50D4C60
:105980002368083B012B98BF00230E4601460A48B6
:1059900098BF236015461BF0E1FD314607481BF018
:1059A000CDFD074923680D6003B170BDBDE87040AF
:1059B000FCF716BA0054FF1F706DFF1F78F8FF1F29
:1059C00064FDFF1F10B584B0044668461BF026FD39
:1059D000204669460022FFF7D1FF68461BF0CAFC4B
:1059E00004B010BD10B5104C82B001212046FBF769
:1059F0003FFF20460021FBF7CDFE20460321FAF7AA
:105A000039FF20460121FAF73FFEFFF713FA20463F
:105A1000FBF758FF002200924FF0FF330349044880
:105A200018F020FD02B010BD94FCFF1F21EA000019
:105A3000B026002008B5184811F046F8174811F0B4
:105A400043F8174811F040F8164811F03DF8164891
:105A500011F03AF8154811F037F8154811F034F8FC
:105A6000144811F031F8144811F02EF8134811F0D1
:105A70002BF8134811F028F8124811F025F8124BB2
:105A800000221A721A7583F8202083F82C2083F8DC
:105A9000382083F8442008BDC06EFF1F70D9FF1F57
:105AA000F86EFF1FA8D9FF1F306FFF1FE0D9FF1F3F
:105AB000686FFF1F18DAFF1FA06FFF1F50DAFF1F6C
:105AC000D86FFF1F88DAFF1F0C3FFF1F00B5134B75
:105AD000134A1B6883B001930199124B11604FF078
