:1000000000000320D101000031F6010035F50100A8
:1000100035F5010035F5010035F5010035F5010034
:1000200035F5010035F5010035F5010031F6010027
:1000300031F6010035F50100B1870100A18701000B
:1000400031F6010031F6010031F6010031F6010010
:1000500031F6010031F6010031F6010031F6010000
:1000600031F6010031F6010031F6010031F60100F0
:1000700031F6010031F6010031F6010031F60100E0
:1000800031F6010031F6010031F6010031F60100D0
:1000900031F6010031F6010031F6010031F60100C0
:1000A00001C50100F5C4010031F6010031F601007F
:1000B00031F6010031F6010031F60100D170010086
:1000C00031F60100F96F010031F601005D6F0100AA
:1000D00031F60100816E010031F6010031F60100B8
:1000E00031F6010031F6010031F6010031F6010070
:1000F00031F6010031F6010031F6010031F6010060
:1001000075830100618301004D8301003983010083
:1001100031F60100A971010031F6010031F601004C
:1001200031F6010031F6010031F6010031F601002F
:1001300031F6010031F6010031F6010031F601001F
:10014000E987010031F60100E56D010031F601009B
:1001500031F6010031F6010031F6010031F60100FF
:1001600031F6010031F60100E9C4010031F6010069
:1001700031F6010031F6010031F6010031F60100DF
:1001800031F6010031F6010031F6010031F60100CF
:1001900031F6010031F60100456D010031F6010034
:1001A00031F6010031F6010031F6010031F60100AF
:1001B00031F6010031F6010031F6010031F601009F
:1001C00031F6010031F6010031F6010031F601008F
:1001D00008B5624B4CF220521A804DF628121A8054
:1001E00000BF00BF102223F80E2CA3F51F43DE3BF7
:1001F0004FF030621A605A4A9A605A4ADA605A4B93
:100200004FF470021A60594B594A1A60594B1A78C8
:10021000120703D51A7842F008021A70564B574954
:10022000AA221A70564A574B8B4204D252F8040F36
:1002300043F8040BF8E7544B544900228B4202D296
:1002400043F8042BFAE75249524A002352F823009C
:1002500041F823000133742BF8D14F4B4F4A8021D2
:1002600003F8011B9342FBD14D4B494A1A604D4B99
:100270008A221A70A3F5805324225A70A0221A7081
:100280009A799507FCD59A79D406FCD4464A937995
:1002900003F00C03082BFAD1444B60221A7002338E
:1002A0001A78802AFCD1404B00221A714E225A71D2
:1002B0009A799006FCD599793B4A4906FBD53C4B87
:1002C0003C4919600821596020231370937903F089
:1002D0000C030C2BFAD1384B384A1A60384A394C87
:1002E000136813F4807303D123604FF4A853136091
:1002F000354B364A1A60002507225D6043F8042C0E
:10030000334AC3F80C2D62B61FF096F922682D4BC4
:10031000D2070CD52F4A30491D60156042F8041CE5
:1003200010221A6003F5805308332C4A1A602C4BB4
:100330001B785B060ED52B4A284B1168994209D1D0
:1003400024492548002323600B6041F8040C102148
:100350002160136026F062F807F03EF80E20054099
:10036000823F04000100002B88ED00E0002008E03F
:100370000300008502D0074000E00740904EFF1FB9
:10038000280F0400703DFF1F0050FF1FEC350020B8
:100390000002FF1F0000000000E400E064E400E051
:1003A00008ED00E0005006400040064001E0074034
:1003B000448004400000070304800440C01005008E
:1003C00010D0034014D0034014E000E07FA90300E4
:1003D0000000202004D003407A08285FA5C3945A67
:1003E00000F007401CE00340FFFFFFFFFFFFFFFF9F
:1003F000FFFFFFFFFFFFFFFFFFFFFFFFFFFFFFFF0D
:10040000FFFFFFFFFFFFFFFFFFFFFFFFDEF9FFFF23
:1004100010B5054C237833B9044B13B10448AFF33E
:1004200000800123237010BD0050FF1F000000005A
:10043000240F0400084B10B51BB108490848AFF35E
:1004400000800848036803B910BD074B002BFBD0A0
:10045000BDE81040184700BF000000000450FF1F17
:10046000240F0400904EFF1F000000002DE980487B
:10047000484B9BB01B680993099A00E021DF454B6C
:100480001B680893089B9B1AB3F5FA6FF6DBDFF83D
:1004900018B1DFED419A9FED418ADFED418A414B72
:1004A0001B68092B01F25480DFE813F040020405B9
:1004B0008A0013000A00F203EE02A604D001D00164
:1004C00019F008FC9BF86820002AE8D023F09AFF76
:1004D000E1E7BBF90C20009200221146BBF90A307B
:1004E00001923148314D324C0BF0E2FA4FF6E07296
:1004F000012305203521CBF81C50ABF81420ABF8B4
:1005000012208BF816308BF81730ABF80E00ABF8D2
:100510001010254D14F8011B28461FF07BFA254BBF
:100520009C42F6D10D2128461FF074FA0A21284674
:100530001FF070FA204C05225A23EA812B821A4DB3
:1005400014F8011B28461FF065FA1C4B9C42F6D19B
:100550000D2128461FF05EFA0A2128461FF05AFA9C
:1005600095F868201AB123F04DFF95F86820094BE3
:100570001B680B930B9900E021DF064B1B680A9365
:100580000A9B5B1AB3F57A7FF6DB064900230B6002
:100590009AE700BF800D002017B7D1380000C8428D
:1005A0000000BC42D01A002014FDFF1F14D5020029
:1005B00070F402007DF4020080F402008DF4020069
:1005C000BBF90C20009200221146BBF90A300192BF
:1005D0009448954D954C0BF06BFA4FF6E072012361
:1005E00005203521CBF81C50ABF80E00ABF81010ED
:1005F000ABF81420ABF812208BF816308BF81730BC
:10060000884D14F8011B28461FF004FA884B9C42C1
:10061000F6D10D2128461FF0FDF90A2128461FF0CA
:10062000F9F96A89143A12B24FF478433C210A204E
:1006300023F01AFE7F4B1A887F4BEB61931E99B211
:100640004E204FF6E07300248A422882EC81AB8270
:100650006B827A4841F26D84794B1A68131A794A91
:100660009B1002FB0313784A83FB02455919DA17E2
:10067000C2EB612240F2E73101FB123303EB83034B
:1006800000EB8301043150F823300C930DA818F0CF
:1006900095FA0C9A002AC1F2588442F00680302361
:1006A0008DF86530212111AB5D180ED02229C1F1E2
:1006B00021060AD02C4614F8011B5A481FF0AAF94B
:1006C000C4F101033344DD42F5D10D2155481FF03B
:1006D000A1F90A2153481FF09DF90D982CF03CFE1A
:1006E000544B56481A88931E99B22323ABF80E3008
:1006F0004E23ABF810308A424FF6FF73ABF814303C
:10070000ABF8123041F20B844D4B1A68131A4D4A64
:100710009B1002FB03134C4A83FB02455919DA175D
:10072000C2EB612240F2E73101FB123303EB83039A
:1007300000EB8301043150F823300C930DA818F01E
:100740003DFA0F9B002B00F015874FF000091C4667
:10075000A1459846CA46334E60D2C9EB0404202C0A
:100760000D9928BF20242246494411A82CF09EFE52
:100770001AAB1C4404F824AC4746202F28BF20277E
:1007800011ABB944C7EB08081D461F44BD423ED01B
:10079000DBF81C0015F8013B002800F0B1840A2B9F
:1007A00000F05D840D2BF1D0047AA342EED3427A9F
:1007B0009A42EBD342681C1BE4B202EBC404A27859
:1007C000D2B1E178C1B1717E002940F0F785B6F968
:1007D0000E200492F07DB6F9102096F816C0049908
:1007E000BBF814E00390BBF81200CDF808C08DE808
:1007F00001400C4823F066FA2179BBF80E309BF8D3
:100800001620BD4201FB0233ABF80E30C0D1B8F167
:10081000000F00F0AF860F9CA1459ED38DF844A039
:10082000AAE700BF14FDFF1F20D5020068F40200F4
:100830006DF40200CCFAFF1F3CFE0200B8ACFF1FB3
:10084000C4FAFF1FCDCCCCCC210534830024BBF9E6
:100850000C20BBF90A3000922146224601948248BE
:100860000BF026F9814BABF80E401D68804CCBF89D
:100870001C404FF6E072012335212846ABF81420C6
:10088000ABF812208BF816308BF81730ABF810103D
:1008900029F076FB044630B115F8011B72481FF0B1
:1008A000B9F8013CF8D1704C0D2120461FF0B2F888
:1008B00020460A211FF0AEF86E4B1B68082B01F092
:1008C000CB86BBF80A20143A12B24FF478433E218B
:1008D0000A2023F0C9FC684B1D6805214FF6FF7301
:1008E0005A222846ABF81430ABF81230ABF80E1091
:1008F000ABF8102029F044FB044630B115F8011B79
:1009000059481FF087F8013CF8D1574C0D2120467B
:100910001FF080F820460A211FF07CF8554B1B6819
:10092000092B01F0408694F86820CDE5534B544ADA
:100930001B680793079B12689B1AB3F52F7F3FF63E
:10094000BFAD0024BBF90C20BBF90A300092214650
:100950002246454801940BF0ABF84A4B4448D3F883
:100960000890ABF80E404FF6E07201233521CBF82A
:100970001C00ABF81010ABF81420ABF812208BF869
:1009800016308BF81730B9F1000F01F06A84A046D9
:10099000A2464C46A045344F62D23A4BC8EB040401
:1009A0001968202C28BF20242246414411A82CF08D
:1009B0007DFD1AAB1C4404F824AC4E46202E28BF03
:1009C000202611ABB044C6EB09091D461E44B542B2
:1009D0003ED0DBF81C0015F8013B002800F05984DC
:1009E0000A2B00F04C840D2BF1D0027A9342EED307
:1009F000417A9942EBD39A1A4168D2B201EBC20410
:100A0000A278D2B1E178C1B1797E002941F0698242
:100A1000B7F90E200492F87DB7F9102097F816C0A8
:100A20000499BBF814E00390BBF81200CDF808C09D
:100A30008DE801400C4823F045F92179BBF80E30D0
:100A40009BF81620B54201FB0233ABF80E30C0D143
:100A5000B9F1000F01F005840A4B9C68A0459CD3B6
:100A60008DF844A0A9E700BF14FDFF1FD044FF1F6D
:100A700014D50200D844FF1FD444FF1F800D00206E
:100A8000D81A00209CFDFF1FBBF90C200092002209
:100A90001146BBF90A3001927748784D784C0BF03B
:100AA00007F84FF6E072012305203521CBF81C50E2
:100AB000ABF80E00ABF81010ABF81420ABF8122016
:100AC0008BF816308BF817306B4D14F8011B284645
:100AD0001EF0A0FF6B4B9C42F6D10D2128461EF064
:100AE00099FF0A2128461EF095FF6A89143A12B22E
:100AF0004FF478433C210A2023F0B6FB624B19687F
:100B0000624BEB6151F8043B0C934E224FF6E073BD
:100B100000242A820DA8EC81AB826B8218F04EF87B
:100B20000C9AA242C1F2748241F0878530238DF87D
:100B30006530212111AB5D180ED02229C1F12106AB
:100B40000AD02C4614F8011B4B481EF063FFC4F179
:100B500001033344DD42F5D10D2147481EF05AFF11
:100B60000A2145481EF056FF0D982CF0F5FB464B28
:100B7000196851F8043B0C9323234E22ABF80E3036
:100B80000DA84FF6FF73ABF81020ABF81430ABF89C
:100B9000123018F013F8DDF83C90B9F1000F01F0B5
:100BA00021804FF000084C46A045C246324E60D22C
:100BB000C8EB0404202C0D9928BF20242246414470
:100BC00011A82CF073FC1AAB1C4404F824AC4F465B
:100BD000202F28BF202711ABB844C7EB09091D46B9
:100BE0001F44AF423ED0DBF81C0015F8013B002843
:100BF00000F0F6820A2B00F029820D2BF1D0047A46
:100C0000A342EED3427A9A42EBD342681C1BE4B271
:100C100002EBC404A278D2B1E178C1B1717E00299F
:100C200040F08A83B6F90E200492F07DB6F91020C8
:100C300096F816C00499BBF814E00390BBF81200B4
:100C4000CDF808C08DE801400B4823F03BF821792E
:100C5000BBF80E309BF81620AF4201FB0233ABF815
:100C60000E30C0D1B9F1000F00F0BC870F9CA04539
:100C70009ED38DF844A0AAE714FDFF1F20D50200E3
:100C8000A0F40200A7F40200C8FAFF1F3CFE020015
:100C90000025BBF90C20BBF90A30009229462A46F0
:100CA0007B4801950AF004FF7A4C7B48ABF80E5064
:100CB0004FF6E07201233521CBF81C00ABF814206D
:100CC000ABF812208BF816308BF81730ABF81010F9
:100CD0006F4E14F8011B30461EF09CFE6F4B9C4279
:100CE000F6D10D2130461EF095FE0A2130461EF049
:100CF00091FE7289143A12B24FF478433E210A20D1
:100D000023F0B2FA664B9B684FF6FF7205205A211A
:100D1000B2827282F0813182002B00F057874FF04F
:100D200000091C46A1459846CA4662D25C4BC9EBF5
:100D300004041968202C28BF20242246494411A805
:100D40002CF0B4FB1AAB1C4404F824AC4746202F0B
:100D500028BF202711ABB944C7EB08081D461F4424
:100D6000BD423ED0DBF81C0015F8013B002800F026
:100D700092810A2B00F086810D2BF1D0047AA342D8
:100D8000EED3427A9A42EBD342681C1BE4B202EBE8
:100D9000C404A278D2B1E178C1B1717E002940F0DB
:100DA000F782B6F90E200492F07DB6F9102096F87D
:100DB00016C00499BBF814E00390BBF81200CDF8FC
:100DC00008C08DE80140324822F07CFF2179BBF851
:100DD0000E309BF81620BD4201FB0233ABF80E30FB
:100DE000C0D1B8F1000F00F0F1862D4B9C68A145F1
:100DF0009CD38DF844A0A9E7BBF90C2000920022F7
:100E00001146BBF90A3001922148234D254C0AF0C6
:100E10004FFE4FF6E072012302203521CBF81C5023
:100E2000ABF80E00ABF81010ABF81420ABF81220A2
:100E30008BF816308BF81730154D14F8011B284627
:100E40001EF0E8FD184B9C42F6D10D2128461EF0FD
:100E5000E1FD0A2128461EF0DDFD144C0A225A232A
:100E6000EA812B820A4D14F8011B28461EF0D2FDA0
:100E70000F4B9C42F6D10D2128461EF0CBFD0A21D6
:100E800028461EF0C7FD95F86820FFF71DBB00BF80
:100E900014FDFF1F90F4020014D502009CF4020020
:100EA000DCFDFF1FA8F40200B3F40200B4F402005A
:100EB000BBF402000024BBF90C20BBF90A300092FD
:100EC00021462246C34801940AF0F2FDC24BABF81A
:100ED0000E401968C14B51F8042BCBF81C302D255E
:100EE0004FF6E0730DA80C92ABF81050ABF814302D
:100EF000ABF8123017F062FE0C9AA242C1F2578092
:100F000041F0C58330238DF86530212111AB5D1888
:100F10000ED02229C1F121060AD02C4614F8011B5B
:100F2000AC481EF077FDC4F101033344DD42F5D136
:100F30000D21A8481EF06EFD0A21A6481EF06AFD8C
:100F40000D982CF009FAA44B196851F8043B0C9346
:100F500023232D22ABF80E300DA84FF6FF73ABF80C
:100F60001430ABF81230ABF8102017F027FE0F9BAF
:100F7000002B00F061844FF000091C46A145984603
:100F8000CA46944E5FD2C9EB0404202C0D9928BFA9
:100F900020242246494411A82CF088FA1AAB1C449C
:100FA00004F824AC4746202F28BF202711ABB944B2
:100FB000C7EB08081D461F44BD423DD0DBF81C00AE
:100FC00015F8013B002800F0D1800A2B51D00D2BE1
:100FD000F2D0047AA342EFD3427A9A42ECD3426829
:100FE0001C1BE4B202EBC404A278D2B1E178C1B117
:100FF000717E002940F0B681B6F90E200492F07D92
:10100000B6F9102096F816C00499BBF814E00390C6
:10101000BBF81200CDF808C08DE801406D4822F001
:1010200051FE2179BBF80E309BF81620BD4201FB22
:101030000233ABF80E30C1D1B8F1000F00F0FC83E1
:101040000F9CA1459FD38DF844A0ABE7A6F80EA056
:10105000827A338AF17D01FB02333382C1E5A6F83F
:101060000EA0827A338AF17D01FB02333382FFF7CF
:101070008DBBA6F80EA0827A338AF17D01FB023384
:10108000338299E7A6F80EA0827A338AF17D01FBBC
:101090000233338264E60A2B00F047810D2B3FF4C4
:1010A0005FAE727EB6F90E10002A00F0D38096F87B
:1010B00016E0B6F90A40062212FB0E12A24240F3D5
:1010C000A381328A96F817C0F08102EBCC0212B2EB
:1010D00001463282BBF81200BBF81440CDF80CC0B8
:1010E0008DE811403B4822F0EDFD9BF81630BBF82F
:1010F0000E2003EB430302EB4303ABF80E302FE665
:101100000A2B00F00A810D2B3FF440AB727EB6F93A
:101110000E10002A00F0978096F816E0B6F90A4003
:10112000062212FB0E12A24240F35F81328A96F829
:1011300017C0F08102EBCC0212B201463282BBF83A
:101140001200BBF81440CDF80CC08DE811402148C6
:1011500022F0B8FD9BF81630BBF80E2003EB4303DA
:1011600002EB4303ABF80E30FFF710BB0A2B00F085
:10117000CD800D2B3FF420AF727EB6F90E10002A01
:1011800076D096F816E0B6F90A40062212FB0E1247
:10119000A24240F32F81328A96F817C0F08102EB09
:1011A000CC0212B201463282BBF81200BBF81440E6
:1011B000CDF80CC08DE81140064822F083FD9BF865
:1011C0001630BBF80E2003EB430302EB4303ABF8EE
:1011D0000E30F1E614FDFF1FC8FAFF1F3CFE0200AF
:1011E0000A2B00F08C800D2B3FF4FBAC727EB6F91D
:1011F0000E10B2B396F816E0B6F90A40062212FBBA
:101200000E12A24240F3FB80328A96F817C0F0819A
:1012100002EBCC0212B201463282BBF81200BBF8DC
:101220001440CDF80CC08DE81140CB4822F04AFDA7
:101230009BF81630BBF80E2003EB430302EB43038D
:10124000ABF80E30CDE4B6F9102096F817C096F83A
:1012500016E074E7B6F9102096F817C096F816E075
:1012600038E7B6F9102096F817C096F816E0D4E7DC
:10127000B6F9102096F817C096F816E094E7A7F88C
:101280000EA0827A3B8AF97D01FB02333B82FFF795
:101290009EBB0A2B00F01D860D2B3FF498AB7A7E87
:1012A000B7F90E10002A00F0F18597F816E0B7F9AB
:1012B0000A40062212FB0E12A24240F32A863A8A04
:1012C00097F817C0F88102EBCC0212B201463A82BD
:1012D000BBF81200BBF81440CDF80CC08DE81140EB
:1012E0009D4822F0EFFC9BF81630BBF80E2003EB74
:1012F000430302EB4303ABF80E30FFF768BB338ABE
:10130000F27DF08103EBC20333826AE4338AF27D1B
:10131000F08103EBC20333824EE6338AF27DF08123
:1013200003EBC2033382FFF731BA338AF27DF081D7
:1013300003EBC203338213E594F905100591B6F966
:101340000E100491059996F816C0B6F90AE00A4401
:1013500004990CFB021272457ADC9BF81700BBF96A
:10136000102068E494F905100591B6F90E10049167
:10137000059996F816C0B6F90AE00A4404990CFBE0
:101380000212724555DC9BF81700BBF910203CE6B1
:1013900094F905100591B6F90E100491059996F887
:1013A00016C0B6F90AE00A4404990CFB0212724511
:1013B0005EDC9BF81700BBF91020FBE494F90510E4
:1013C0000591B6F90E100491059996F816C0B6F974
:1013D0000AE00A4404990CFB0212724519DC9BF8DE
:1013E0001700BBF91020FFF7FBB9B6F9102096F8EB
:1013F00017C0A4E6B6F9102096F817C0D4E6B6F9DF
:10140000102096F817C008E7B6F9102096F817C014
:1014100060E6ABF80EA0827ABBF810109BF81700BC
:1014200002FB001212B20021ABF810200491FFF76A
:10143000D7B9ABF80EA0827ABBF810109BF8170052
:1014400002FB001212B20021ABF810200491DCE57F
:10145000ABF80EA0827ABBF810109BF8170002FBC5
:10146000001212B20021ABF810200491FFF7E3BB89
:10147000ABF80EA0827ABBF810109BF8170002FBA5
:10148000001212B20021ABF81020049192E4334B09
:1014900093ED009A324B29EE299AF2EE0EAAF0EE65
:1014A000487AE9EE2A7A5E21642093ED00AA2D4B5A
:1014B000FDEEE77AD3ED00BACDED047ABDF9104028
:1014C000294B224693ED00BA4A231CF01BFBABEEDE
:1014D000A99A20464A21F3EE047AB0EE687AABEE80
:1014E000677AF0EE487AE9EE2A7ABDEEC77AFDEE29
:1014F000E77A8DED057ACDED047ABDF91440BDF99A
:10150000105023462A461CF0FDFADFED187AE9EE6A
:101510006A7A2846214640F2FF73FDEEE77A2AEE0A
:1015200029AACDED047ABDF9102022F09DFEDFED51
:10153000107AB2EE0A7AEAEE077A21465E238B2011
:10154000FDEEE77ACDED047ABDF910201CF0DAFA51
:101550009BF86820FEF7B8BF14FDFF1F0043FF1F74
:101560000C43FF1F0443FF1F0843FF1F00002042DE
:1015700000000B430D21AE481EF04CFA0A21AC4886
:101580001EF048FA0D982BF0E7FE17214FF4204289
:101590008DE80600BBF90A30A548552200210AF063
:1015A00087FAA44B196851F8043B0C9362224FF65A
:1015B000E07300240DA8ABF81020ABF80E40ABF898
:1015C0001430ABF8123017F0F9FA0C9AA242C0F2BC
:1015D000828541F0058030238DF86530212111ABE3
:1015E0005D180ED02229C1F121060AD02C4614F82C
:1015F000011B8F481EF00EFAC4F101033344DD4293
:10160000F5D10D218A481EF005FA0A2188481EF0FE
:1016100001FA0D982BF0A0FE864B1B681A680C92FD
:101620002322ABF80E204FF6FF72ABF81420ABF874
:1016300012200CAA002462219342ABF810100D94E2
:101640000E940F948DF8404000F0D380DA6859680A
:101650000DA817F001FADDF83C90B9F1000F00F089
:10166000C880A046A2464C46A045714E5CD2C8EB4D
:101670000404202C0D9928BF20242246414411A89F
:101680002BF014FF1AAB1C4404F824AC4F46202F57
:1016900028BF202711ABB844C7EB09091D461F44DA
:1016A000BD423BD0DBF81C0015F8013B002847D0B9
:1016B0000A2B3CD00D2BF3D0047AA342F0D3427A0C
:1016C0009A42EDD342681C1BE4B202EBC404A27838
:1016D000CAB1E178B9B1717E00296FD1B6F90E2097
:1016E0000492F07DB6F9102096F816C00499BBF864
:1016F00014E00390BBF81200CDF808C08DE801405B
:101700004B4822F0DFFA2179BBF80E309BF8162007
:10171000BD4201FB0233ABF80E30C3D1B9F1000F6B
:1017200067D00F9CA045A2D38DF844A0AEE7A6F8E1
:101730000EA0827A338AF17D01FB02333382AFE758
:101740000A2B34D00D2BABD0727EB6F90E103AB303
:1017500096F816E0B6F90A40062212FB0E12A242D3
:1017600042DD328A96F817C0F08102EBCC0212B249
:1017700001463282BBF81200BBF81440CDF80CC011
:101780008DE811402A4822F09DFA9BF81630BBF8EC
:101790000E2003EB430302EB4303ABF80E307FE76D
:1017A000B6F9102096F817C096F816E0E2E7338AEB
:1017B000F27DF08103EBC203338271E794F90510E7
:1017C0000591B6F90E100491059996F816C0B6F970
:1017D0000AE00A4404990CFB0212724518DC9BF8DB
:1017E0001700BBF9102082E7B6F9102096F817C051
:1017F000C0E70D210E481EF00DF90A210C481EF01D
:1018000009F90D982BF0A8FD9BF86820FEF75CBE47
:10181000ABF80EA0827ABBF810109BF8170002FB01
:10182000001212B20021ABF8102004915FE700BF54
:1018300014FDFF1FC8FAFF1F0D21A1481EF0EAF892
:101840000A219F481EF0E6F80D982BF085FD172120
:101850004FF420428DE80600BBF90A309848382240
:1018600000210AF025F9974B196851F8043B0C93B5
:1018700048224FF6E07300240DA8ABF81020ABF817
:101880000E40ABF81430ABF8123017F097F90C9A01
:10189000A242C0F25D8440F0B28630238DF86530FC
:1018A000212111AB5D180ED02229C1F121060AD0E9
:1018B0002C4614F8011B82481EF0ACF8C4F1010359
:1018C0003344DD42F5D10D217D481EF0A3F80A21F5
:1018D0007B481EF09FF80D982BF03EFD794B196860
:1018E00051F8043B0C9323234822ABF80E300DA88B
:1018F0004FF6FF73ABF81020ABF81430ABF8123092
:1019000017F05CF9DDF83C90B9F1000F00F0DC80D5
:101910004FF000084C46A045C246694E5CD2C8EB69
:101920000404202C0D9928BF20242246414411A8EC
:101930002BF0BCFD1AAB1C4404F824AC4F46202FFE
:1019400028BF202711ABB844C7EB09091D461F4427
:10195000BD423BD0DBF81C0015F8013B002847D006
:101960000A2B3CD00D2BF3D0047AA342F0D3427A59
:101970009A42EDD342681C1BE4B202EBC404A27885
:10198000CAB1E178B9B1717E00296FD1B6F90E20E4
:101990000492F07DB6F9102096F816C00499BBF8B1
:1019A00014E00390BBF81200CDF808C08DE80140A8
:1019B000434822F087F92179BBF80E309BF81620B6
:1019C000BD4201FB0233ABF80E30C3D1B9F1000FB9
:1019D0007AD00F9CA045A2D38DF844A0AEE7A6F81C
:1019E0000EA0827A338AF17D01FB02333382AFE7A6
:1019F0000A2B34D00D2BABD0727EB6F90E103AB351
:101A000096F816E0B6F90A40062212FB0E12A24220
:101A100042DD328A96F817C0F08102EBCC0212B296
:101A200001463282BBF81200BBF81440CDF80CC05E
:101A30008DE81140224822F045F99BF81630BBF89A
:101A40000E2003EB430302EB4303ABF80E307FE7BA
:101A5000B6F9102096F817C096F816E0E2E7338A38
:101A6000F27DF08103EBC203338271E794F9051034
:101A70000591B6F90E100491059996F816C0B6F9BD
:101A80000AE00A4404990CFB0212724509DC9BF837
:101A90001700BBF9102082E7B6F9102096F817C09E
:101AA000C0E7ABF80EA0827ABBF810109BF81700C5
:101AB00002FB001212B20021ABF8102004916EE775
:101AC00014FDFF1FC4FAFF1F0D21B5481DF0A2FF32
:101AD0000A21B3481DF09EFF0D982BF03DFCB14B41
:101AE000B1481A8862230024ABF81030012A4FF65F
:101AF000E073ABF80E40ABF81430ABF8123040F2A4
:101B00005983AA4BAA4A1B681B1A9B1002FB03F3BA
:101B1000A84A013383FB0267D919DA17C2EB6122A5
:101B200040F2E73101FB123303EB830300EB830147
:101B3000043150F823300C930DA817F03FF80C9A9D
:101B4000A242C0F2568340F0BE8530238DF8653046
:101B500000260DF165052C4614F8011B90481DF078
:101B600059FFC4F101033344DD42F5D10D218C4806
:101B70001DF050FF0A218A481DF04CFF0D982BF0F4
:101B8000EBFB884B864C1A8887482323ABF80E3032
:101B90006223ABF81030012A4FF6FF73ABF8143014
:101BA000ABF8123000F27A81834B196851F8043B8C
:101BB000119312A817F002F812A81BF09FFB1298BD
:101BC0002BF0CAFB94F86820FEF77EBC0D21744808
:101BD0001DF020FF0A2172481DF01CFF9BF86820B1
:101BE000FEF772BC0D216E481DF014FF0A216C48EF
:101BF0001DF010FF0D982BF0AFFB17214FF4204282
:101C00008DE80600BBF90A3065485522002109F02D
:101C10004FFF664B196851F8043B0C9362224FF654
:101C2000E07300240DA8ABF81020ABF80E40ABF821
:101C30001430ABF8123016F0C1FF0C9AA242C0F279
:101C4000198240F0EB8430238DF86530212111ABEF
:101C50005D180ED02229C1F121060AD02C4614F8B5
:101C6000011B4F481DF0D6FEC4F101033344DD4291
:101C7000F5D10D214A481DF0CDFE0A2148481DF03E
:101C8000C9FE0D982BF068FB484B196851F8043BCE
:101C90000C9323236222ABF80E300DA84FF6FF738E
:101CA000ABF81020ABF81430ABF8123016F086FF0A
:101CB000DDF83C90B9F1000F3FF49BAD4FF0000808
:101CC0004C46A045C246364E5DD2C8EB0404202CDB
:101CD0000D9928BF20242246414411A82BF0E6FB91
:101CE0001AAB1C4404F824AC4F46202F28BF2027F1
:101CF00011ABB844C7EB09091D461F44BD423BD098
:101D0000DBF81C0015F8013B002857D00A2B3DD00A
:101D10000D2BF3D0047AA342F0D3427A9A42EDD34A
:101D200042681C1BE4B202EBC404A278CAB1E17899
:101D3000B9B1717E00297FD1B6F90E200492F07DF1
:101D4000B6F9102096F816C00499BBF814E0039079
:101D5000BBF81200CDF808C08DE80140104821F012
:101D6000B1FF2179BBF80E309BF81620BD4201FB74
:101D70000233ABF80E30C3D1B9F1000F3FF439ADE7
:101D80000F9CA045A1D38DF844A0ADE7A6F80EA006
:101D9000827A338AF17D01FB02333382AEE700BFE2
:101DA00014FDFF1FCCFAFF1FB8ACFF1FC4FAFF1FC2
:101DB000CDCCCCCC21053483C8FAFF1F0A2B34D0FC
:101DC0000D2B9BD0727EB6F90E103AB396F816E042
:101DD000B6F90A40062212FB0E12A24242DD328AF6
:101DE00096F817C0F08102EBCC0212B201463282A3
:101DF000BBF81200BBF81440CDF80CC08DE81140C0
:101E0000BE4821F05FFF9BF81630BBF80E2003EBB5
:101E1000430302EB4303ABF80E306FE7B6F9102033
:101E200096F817C096F816E0E2E7338AF27DF08163
:101E300003EBC203338261E794F905100591B6F90B
:101E40000E100491059996F816C0B6F90AE00A44F6
:101E500004990CFB0212724509DC9BF81700BBF9D0
:101E6000102072E7B6F9102096F817C0C0E7ABF85B
:101E70000EA0827ABBF810109BF8170002FB00122C
:101E800012B20021ABF8102004915EE7B7F91020E0
:101E900097F817C097F816E0FFF71ABA984B994AC7
:101EA0001B681B1A9B1002FB03F3974A013383FB49
:101EB0000267D919DA17C2EB612240F2E73101FB60
:101EC000123303EB830300EB8301043150F823301A
:101ED0006EE63B8AFA7DF88103EBC2033B82FEF794
:101EE00076BD94F905100591B7F90E100491059986
:101EF00097F816C0B7F90AE00A4404990CFB0212DD
:101F0000724500F366819BF81700BBF91020FEF7BD
:101F100088BDB7F9102097F817C0FFF7D9B97B4BE8
:101F200019680DA851F8043B0C9316F047FEFEF714
:101F300008BC764B19680DA851F8043B0C9316F0B9
:101F40003DFE0C9A002ABEF6A8AB6E4B5242A3FB94
:101F50000213DB0803EB8301A2EB410230328DF860
:101F60006520002B00F0D4832D25212400E00C46B1
:101F7000644AA2FB0312D20802EB8200611EA3EBAB
:101F80004003C9B21AA80844303300F8243C134671
:101F9000002AECD1002D3EF486ABA31EDBB219461D
:101FA0001AAA13442D2203F8242CFEF77CBB554BB0
:101FB0005242A3FB0213DB0803EB8301A2EB4102B5
:101FC00030328DF86520002B00F0AB83212400E037
:101FD0000C464C4AA2FB0312D20802EB8200611E9F
:101FE000A3EB4003C9B21AA80844303300F8243CDC
:101FF0001346002AECD1002D3EF488AFA31EDBB2BD
:1020000019461AAA13442D2203F8242CFEF77EBF8A
:102010003C4B5242A3FB0213DB0803EB8301A2EB10
:10202000410230328DF86520002B00F06E832D25A3
:10203000212400E00C46334AA2FB0312D20802EB33
:102040008200611EA3EB4003C9B21AA808443033D2
:1020500000F8243C1346002AECD1002D3EF46AAD72
:10206000A31EDBB219461AAA13442D2203F8242C0E
:10207000FEF760BD234B5242A3FB0213DB0803EBC8
:102080008301A2EB410230328DF86520002B00F075
:102090004E832D25212400E00C461A4AA2FB031290
:1020A000D20802EB8200611EA3EB4003C9B21AA85A
:1020B0000844303300F8243C1346002AECD1002DAC
:1020C0003FF4C5ADA31EDBB219461AAA13442D2254
:1020D00003F8242CBBE50B4B5242A3FB0213DB0895
:1020E00003EB8301A2EB410230328DF86520002B17
:1020F00000F011832D2521240BE000BF14FDFF1FEC
:10210000C4FAFF1FCDCCCCCC21053483C8FAFF1F05
:102110000C46BE4AA2FB0312D20802EB8200611EEB
:10212000A3EB4003C9B21AA80844303300F8243C9A
:102130001346002AECD1002D3FF451AAA31EDBB2B6
:1021400019461AAA13442D2203F8242CFFF747BA84
:10215000AE4B5242A3FB0213DB0803EB8301A2EB5D
:10216000410230328DF86520002B00F0D7822D25FA
:10217000212400E00C46A54AA2FB0312D20802EB80
:102180008200611EA3EB4003C9B21AA80844303391
:1021900000F8243C1346002AECD1002D3FF481AB1B
:1021A000A31EDBB219461AAA13442D2203F8242CCD
:1021B000FFF777BB964B196812A851F8043B1193AF
:1021C00016F0FCFC11981FF08BFE12982BF0C4F84F
:1021D000D7E4ABF80EA0827ABBF810109BF817007A
:1021E00002FB001212B20021ABF810200491FEF79E
:1021F00018BC864B5242A3FB0213DB0803EB83019E
:10220000A2EB410230328DF86520002B00F08C8269
:102210002D25212400E00C467C4AA2FB0312D208A3
:1022200002EB8200611EA3EB4003C9B21AA8084466
:10223000303300F8243C1346002AECD13DB1A31EF4
:10224000DBB219461AAA13442D2203F8242C11AB31
:102250005D183FF48BAC2229C1F121067FF47BACE1
:1022600084E40D216B481DF0D5FB0A2169481DF05F
:10227000D1FBBBF80A20143A12B24FF478433E2146
:102280000A2021F0F1FF644B9B684FF6FF7201209A
:102290005A21ABF80E00ABF81010ABF81420ABF8D5
:1022A0001220002B00F0E4804FF000081C46A045EF
:1022B0009946C246574F5FD2574BC8EB0404196882
:1022C000202C28BF20242246414411A82BF0EEF8F0
:1022D0001AAB1C4404F824AC4E46202E28BF2026FE
:1022E00011ABB044C6EB09091D461E44B5423BD0B4
:1022F000DBF81C0015F8013B002849D00A2B3ED022
:102300000D2BF3D0027A9342F0D3417A9942EDD368
:102310009A1A4168D2B201EBC204A278CAB1E1783C
:10232000B9B1797E002979D1B7F90E200492F87DF0
:10233000B7F9102097F816C00499BBF814E0039081
:10234000BBF81200CDF808C08DE80140314821F0FB
:10235000B9FC2179BBF80E309BF81620B54201FB81
:102360000233ABF80E30C3D1B9F1000F00F080801A
:10237000294B9C68A0459FD38DF844A0ACE7A7F8F3
:102380000EA0827A3B8AF97D01FB02333B82ADE7E6
:102390000A2B34D00D2BA9D07A7EB7F90E103AB3A0
:1023A00097F816E0B7F90A40062212FB0E12A24275
:1023B0004ADD3A8A97F817C0F88102EBCC0212B2D4
:1023C00001463A82BBF81200BBF81440CDF80CC0AD
:1023D0008DE811400F4821F075FC9BF81630BBF8D2
:1023E0000E2003EB430302EB4303ABF80E307DE713
:1023F000B7F9102097F817C097F816E0E2E73B8A84
:10240000FA7DF88103EBC2033B826FE7CDCCCCCCE5
:10241000C8FAFF1F14FDFF1FACFDFF1F94F9051044
:102420000591B7F90E100491059997F816C0B7F900
:102430000AE00A4404990CFB0212724509DC9BF87D
:102440001700BBF9102078E7B7F9102097F817C0EC
:10245000B8E7ABF80EA0827ABBF810109BF8170013
:1024600002FB001212B20021ABF81020049164E7C5
:102470000D21B0481DF0CEFA0A21AE481DF0CAFA6F
:10248000AD4B1B68013B032B3FF662A801A252F83B
:1024900023F000BF13250000D5240000A524000070
:1024A0008F140000A54BD3ED001AA54BD3ED000A05
:1024B000A44B93ED000AA44B61EEA91A93ED001A08
:1024C00060EEA90A20EE290A17F09AFB9BF8682013
:1024D000FDF7FABF9D4BDFED9E7AD3ED006AB2EEB9
:1024E0000A7AE6EE877A4A235E216E20FDEEE77ACD
:1024F000CDED047ABDF9104022461BF003FB882283
:1025000020465E234A211BF0FDFA9BF86820FDF768
:10251000DBBF8E4B874C93ED009AB2EE0AAAF2EE27
:102520000E7AE9EE0A7A40F2FF734A216C20FDEE42
:10253000E77A1D46CDED047ABDF9102021F094FE16
:10254000DFED837A0095E9EE0A7A204614234A22C9
:10255000FDEEE77ACDED047ABDF91060314609F061
:1025600079FCF3EE007AE9EE4A7A5E2130462B469A
:10257000FDEEE77ACDED047ABDF9102021F074FE6E
:10258000B5EEC09AF1EE10FA4FF04A0200954FF006
:1025900015034CBF6C218A21204609F05BFC94F89E
:1025A0006820FDF791BF8C2550264FF6FF789C27B9
:1025B0000196CDF80880009728463146482394229A
:1025C000E58126821BF0D6FA5421CDF808800097C9
:1025D000284601915C2394221BF0CCFAFEF7A3B9A4
:1025E0005C4BA3FB0213DB0803EB8301A2EB41026C
:1025F00030328DF86520002B75D025467BE5554B94
:10260000A3FB0213DB0803EB8301A2EB4102303290
:102610008DF86520002B6FD02546A9E54D4BA3FB17
:102620000213DB0803EB8301A2EB410230328DF889
:102630006520002B5DD025462CE5464BA3FB0213FD
:10264000DB0803EB8301A2EB410230328DF86520F9
:10265000002B54D02546EBE48C252A224FF6E07758
:102660009C26019202970096284611462282222338
:10267000E58194221BF07EFA2E21029700962846CF
:102680000191362394221BF075FAFEF71AB9314BEB
:10269000A3FB0213DB0803EB8301A2EB4102303200
:1026A0008DF8652073B3254690E42A4BA3FB0213F3
:1026B000DB0803EB8301A2EB410230328DF8652089
:1026C000A3B1002551E4234BA3FB0213DB0803EB6A
:1026D0008301A2EB410230328DF86520002B3FF4DC
:1026E00037AA254695E52121FEF779BF2121FDF77F
:1026F000DABF2121FFF7ABBA2121FFF7D2B82121A0
:10270000FEF718BA2121FEF701BC20210B46AAE4EE
:1027100020210B4644E420210B4612E520210B46E4
:1027200041E520210B466CE420210B468AE520215F
:102730000B46CAE414FDFF1FD41A0020FC42FF1F01
:10274000F442FF1FF042FF1FF842FF1F1C50FF1F03
:102750000000F642CDCCCCCC2DE9F04F2DED048B12
:10276000DFF8F0A3D14AD249DFF8EC939FEDD19A7C
:10277000DFEDD18A85B00024802350460A264FF42D
:1027800020578AF80430CAF8004023F0E1F94FF4EA
:102790008063214620220AF12000CAF80830CAF8D6
:1027A0001440CAF81840CAF81C40CAF80C70CAF89D
:1027B000106023F075FEC0202AF0C6FD2146C0221D
:1027C000054623F06DFEBD4BC5F8B440D96ABC4A3E
:1027D000CAF85C1005F10C03CAF844300123C5F8AF
:1027E000B430CAF84830CAF85830B44BB548DB6B3F
:1027F000C5F8BC60914208BFCAF85C40934208BF6C
:1028000000232F606860CAF82050CAF84050AB4DD2
:10281000CAF84C40A948CAF86030AB4CAB4BEC63EB
:10282000AB49CAF864300024AA4BCAF89430022598
:10283000C162CAF850609D4AA749CAF86C50032685
:10284000A6488AF86A408AF88C408AF898408AF844
:102850009A40CAF8546023F07BF9944A9E49A048F4
:1028600023F076F9914A9C499E4823F071F98F4AEA
:1028700099499D4823F06CF98C4A97499B4823F06D
:1028800067F98A4A94499A4823F062F9874A92493B
:10289000984823F05DF9854A8F49974823F058F905
:1028A000824A8D49954823F053F9804A8A499448D1
:1028B00023F04EF97D4A8849924823F049F97B4A32
:1028C0008549914823F044F9784A83498F4823F099
:1028D0003FF9764A80498E4823F03AF9734A7E4997
:1028E0008C4823F035F9714A7B498B4823F030F945
:1028F0006E4A7949894823F02BF96C4A7649884811
:1029000023F026F922462146864809F0A3FE714BA2
:1029100085488AF8644103F1180722462146CAF81F
:102920004C71CAF8684109F095FEBAF9A4217F4BB1
:102930007F48CAF8984107F10C0C02F1010E1344CC
:1029400040F6CC4622462146CAF874C1AAF8A4E152
:10295000CAF88C31CAF89061CAF894618AF89C412F
:1029600009F078FE734ABAF8C831CAF8C041013399
:1029700007F11806A2F12800042106F10C08AAF8B4
:10298000C831CAF8C431CAF8A8614FF4803609F0DA
:1029900061FE6948CAF8E461CAF8E861CAF8EC6106
:1029A000CAF8F061CAF8CC811FF06CFE22462146BD
:1029B000624809F04FFE224621466148CAF83C723F
:1029C0008AF85442CAF8584209F044FE5D4ACAF8EF
:1029D0006472A2F1180001218AF87C42CAF8804290
:1029E00009F038FE07F13003CAF88C324FF03A0391
:1029F000AAF8B6324FF00E03AAF8B8324FF0C1036E
:102A0000514AAAF8BA324FF000534FF01C0BCAF8E3
:102A1000BC3240F27763A2F118000121AAF8C0325B
:102A2000AAF8C2B2AAF8B4428AF8A84209F012FE83
:102A300007F13003CAF8C4324FF03A03AAF8EE3275
:102A40004FF00E03AAF8F0324FF0C1033F4AAAF844
:102A5000F2324FF00053CAF8F43240F27763A2F139
:102A600018000121AAF8F832AAF8FAB2AAF8EC4242
:102A70008AF8E04209F0EEFD07F13003CAF8FC32B3
:102A80004FF03A03AAF826334FF00E03AAF8283382
:102A90004FF0C1032E4AAAF82A334FF00053CAF868
:102AA0002C3340F27763A2F1180057E04C3EFF1F31
:102AB000F5370200390F8C3B08132F3D0002FF1F32
:102AC00031F6010000D80220292F0200032000382F
:102AD000E12E0200C4F40200B9AD0100DC50FF1F7A
:102AE000E450FF1FEC50FF1FF450FF1FFC50FF1F6E
:102AF0000451FF1F0C51FF1F1451FF1F1C51FF1FDA
:102B00002451FF1F2C51FF1F3451FF1F3C51FF1F49
:102B10004451FF1F4C51FF1F5451FF1F5C51FF1FB9
:102B20006451FF1F6C51FF1F9451FF1FF541ED5E73
:102B3000C851FF1F1452FF1F2452FF1F5C52FF1F7A
:102B40008452FF1FC452FF1FFC52FF1F3453FF1F4C
:102B50006C53FF1F2050FF1F1072FF1F0121AAF8A6
:102B60003033AAF832B3AAF824438AF8184309F09C
:102B700071FD07F13003CAF834334FF03A03AAF875
:102B80005E334FF00E03AAF860334FF0C103ED4AF5
:102B9000AAF862334FF00053CAF8643340F2776307
:102BA000A2F118000121AAF86833AAF86AB3AAF8BA
:102BB0005C438AF8504309F04DFD07F13003CAF831
:102BC0006C334FF03A03AAF896334FF00E03AAF88D
:102BD00098334FF0C103DC4AAAF89A334FF0005300
:102BE000CAF89C3340F27763A2F118000121AAF8D9
:102BF000A033AAF8A2B3AAF894438AF8884309F04C
:102C000029FD07F13003CAF8A4334FF03A03AAF8BC
:102C1000CE334FF00E03AAF8D0334FF0C103CB4AA6
:102C2000AAF8D2334FF00053CAF8D43340F2776396
:102C3000AAF8D833A2F128000421AAF8DAB3AAF836
:102C4000CC438AF8C04309F005FDC14ACAF8F463D1
:102C5000A2F128000421CAF8F863CAF8FC63CAF894
:102C60000064CAF8DC8309F0F5FCBA4ACAF82C649F
:102C7000A2F128000421CAF83064CAF83464CAF802
:102C80003864CAF8148409F0E5FCB34ACAF86464ED
:102C9000A2F128000421CAF86864CAF86C64CAF872
:102CA0007064CAF84C8409F0D5FCAC4ACAF89C643C
:102CB000A2F128000421CAF8A064CAF8A464CAF8E2
:102CC000A864CAF8848409F0C5FCA54ACAF8D4648B
:102CD000A2F128000421CAF8D864CAF8DC64CAF852
:102CE000E064CAF8BC8409F0B5FC9E4ACAF80C65D9
:102CF000A2F128000421CAF81065CAF81465CAF8C0
:102D00001865CAF8F48409F0A5FC974ACAF8446526
:102D1000A2F128000421CAF84865CAF84C65CAF82F
:102D20005065CAF82C8509F095FC904ACAF87C6574
:102D3000A2F128000421CAF88065CAF88465CAF89F
:102D40008865CAF8648509F085FC894ACAF8B465C3
:102D5000A2F128000421CAF8B865CAF8BC65CAF80F
:102D6000C065CAF89C8509F075FC824ACAF8EC6512
:102D7000A2F128000421CAF8F065CAF8F465CAF87F
:102D8000F865CAF8D48509F065FC7B4ACAF8246660
:102D9000A2F128000421CAF82866CAF82C66CAF8ED
:102DA0003066CAF80C8609F055FC7448CAF85C66AF
:102DB000CAF86066CAF86466CAF86866CAF84486E3
:102DC0001FF060FC224621466D4809F043FC224674
:102DD00021466C48CAF8B4768AF8CC46CAF8D04680
:102DE00009F038FC224621466748CAF8DC768AF8A2
:102DF000F446CAF8F84609F02DFC224621466348FD
:102E0000CAF804778AF81C47CAF8204709F022FC60
:102E1000224621465E48CAF82C778AF84447CAF809
:102E2000484709F017FC224621465A48CAF8547709
:102E30008AF86C47CAF8704709F00CFC2246214614
:102E40005548CAF87C778AF89447CAF8984709F039
:102E500001FC5248CAF8A4778AF8BC47CAF8C047B0
:102E60001FF010FC224621464D4809F0F3FB224694
:102E700021464C48CAF804788AF81C48CAF8204809
:102E800009F0E8FB224621464748CAF82C788AF820
:102E90004448CAF8484809F0DDFB22462146434829
:102EA000CAF854788AF86C48CAF8704809F0D2FB1E
:102EB000224621463E48CAF87C788AF89448CAF8E7
:102EC000984809F0C7FB224621463A48CAF8A47838
:102ED0008AF8BC48CAF8C04809F0BCFB364ACAF8B0
:102EE000CC78A2F1280004218AF8E448CAF8E8481E
:102EF00009F0B0FB314ACAF80C69A2F1280004219C
:102F0000CAF81069CAF81469CAF81869CAF8F488C6
:102F100009F0A0FB2A4ACAF84469A2F1280004215A
:102F2000CAF84869CAF84C69CAF85069CAF82C89C5
:102F300009F090FB234ACAF87C69A2F12800042119
:102F400042E000BFA453FF1FDC53FF1F2454FF1FA8
:102F50005C54FF1F9454FF1FCC54FF1F0455FF1FE8
:102F60003C55FF1F7455FF1FAC55FF1FE455FF1F55
:102F70001C56FF1F5456FF1F8C56FF1F9C56FF1FE9
:102F8000D456FF1FFC56FF1F2457FF1F4C57FF1F2F
:102F90007457FF1F9C57FF1FC457FF1FEC57FF1F9D
:102FA0002458FF1F4C58FF1F7458FF1F9C58FF1FC9
:102FB000C458FF1FEC58FF1F3C59FF1F7459FF1FD7
:102FC000AC59FF1FE459FF1FCAF88069CAF8846929
:102FD000CAF88869CAF8648909F03CFBF24ACAF861
:102FE000B469A2F128000421CAF8B869CAF8BC691A
:102FF000CAF8C069CAF89C8909F02CFBEB4ACAF8E8
:10300000EC69A2F128000421CAF8F069CAF8F46951
:10301000CAF8F869CAF8D48909F01CFBE44ACAF86E
:10302000246AA2F128000421CAF8286ACAF82C6A86
:10303000CAF8306ACAF80C8A09F00CFBDD4ACAF8F3
:103040005C6AA2F128000421CAF8606ACAF8646ABE
:10305000CAF8686ACAF8448A09F0FCFAD64ACAF87B
:10306000946AA2F128000421CAF8986ACAF89C6AF6
:10307000CAF8A06ACAF87C8A09F0ECFACF4ACAF802
:10308000CC6AA2F128000421CAF8D06ACAF8D46A2E
:10309000CAF8D86ACAF8B48A09F0DCFAC84ACAF889
:1030A000046BA2F128000421CAF8086BCAF80C6B63
:1030B000CAF8106BCAF8EC8A09F0CCFAC14ACAF80F
:1030C0003C6BA2F128000421CAF8406BCAF8446B9B
:1030D000CAF8486BCAF8248B09F0BCFABA4ACAF895
:1030E000746BA2F128000421CAF8786BCAF87C6BD3
:1030F000CAF8806BCAF85C8B09F0ACFAB348CAF81E
:10310000AC6BCAF8B06BCAF8B46BCAF8B86BCAF843
:10311000948B1FF0D1FAAE481FF0CEFAAD481FF0E5
:10312000CBFAAD481FF0C8FAAC481FF0C5FAAC485E
:103130001FF0C2FAAB481FF0BFFAAB481FF0BCFA51
:10314000AA481FF0B9FAAA481FF0B6FA09F13400EC
:103150001FF0B2FA09F51C701FF0AEFA294609F506
:10316000996209F2AC4009F075FA3C37294609F238
:10317000EC4209F59A60C9F8AC74A9F8C44409F0A6
:1031800069FA294609F5A26209F2F440C9F8D07437
:10319000A9F8E84409F05EFA294609F2345209F523
:1031A000A360C9F8F474A9F80C4509F053FA29464C
:1031B00009F5AB6209F23C50C9F81875A9F8304519
:1031C00009F048FA294609F27C5209F5AC60C9F8C1
:1031D0003C75A9F8544509F03DFA09F2AC520421B6
:1031E00009F28450C9F86075A9F8784509F032FAF7
:1031F00009F2E452042109F2BC50C9F89C65C9F8EF
:10320000A065C9F8A465C9F8A865C9F8848509F05E
:1032100021FA09F21C62042109F2F450C9F8D465BC
:10322000C9F8D865C9F8DC65C9F8E065C9F8BC8596
:1032300009F010FA09F25462042109F22C60C9F86D
:103240000C66C9F81066C9F81466C9F81866C9F89A
:10325000F48509F0FFF909F28C62042109F2646037
:10326000C9F84466C9F84866C9F84C66C9F850669A
:10327000C9F82C8609F0EEF909F2C462042109F2BA
:103280009C60C9F87C66C9F88066C9F88466C9F88C
:103290008866C9F8648609F0DDF909F2FC62042148
:1032A00009F2D460C9F8B466C9F8B866C9F8BC6652
:1032B000C9F8C066C9F89C8609F0CCF909F23472E5
:1032C000042109F20C70C9F8EC66C9F8F066C9F877
:1032D000F466C9F8F866C9F8D48609F0BBF909F2B2
:1032E0006C72042109F24470C9F82467C9F8286790
:1032F000C9F82C67C9F83067C9F80C8709F0AAF932
:1033000009F2A472042109F27C70C9F85C67C9F85B
:103310006067C9F86467C9F86867C9F8448709F045
:1033200099F909F2DC72042109F2B470C9F89467C2
:10333000C9F89867C9F89C67C9F8A067C9F87C877D
:1033400009F088F909F61402042109F2EC70C9F8B1
:10335000CC67C9F8D067C9F8D467C9F8D867C9F885
:10336000B48709F077F9294609F6580209F62400CE
:10337000C9F80468C9F80868C9F80C68C9F8106881
:10338000C9F8EC8709F066F908F12403C9F8243874
:10339000184BC9F83C38A3F57C53183B4FF48057C1
:1033A000C9F8403828E000BF1C5AFF1F545AFF1FBD
:1033B0008C5AFF1FC45AFF1FFC5AFF1F345BFF1FAC
:1033C0006C5BFF1FA45BFF1FDC5BFF1FEC5BFF1F41
:1033D000285EFF1F6460FF1FA062FF1FDC64FF1FE9
:1033E0001867FF1F5469FF1F906BFF1FCC6DFF1FF5
:1033F0000870FF1F00B28E04F74BC9F844782946C5
:1034000009F69402C9F8483809F50660C9F84C482D
:10341000C9F85048C9F8544809F01CF908F12403C8
:10342000C9F86038ED4BC9F87838A3F57C53183BE0
:10343000C9F87C38E84BC9F88078294609F50D624F
:10344000C9F8843809F69C00C9F88848C9F88C483E
:10345000C9F8904809F0FEF808F12403C9F89C382F
:10346000DE4BC9F8B438A3F57C53183BC9F8B8381B
:10347000D94BC9F8BC78294609F60C12C9F8C038EE
:1034800009F6D800C9F8C448C9F8C848C9F8CC48F2
:1034900009F0E0F808F12403C9F8D838CF4BC9F88F
:1034A000F038A3F57C53183BC9F8F438CA4BC9F877
:1034B000F878294609F64812C9F8FC3809F61410BC
:1034C000C9F80049C9F80449C9F8084909F0C2F81F
:1034D00008F12403C9F81439C04BC9F82C39A3F5F5
:1034E0007C53183BC9F83039BB4BC9F834792946AD
:1034F00009F68412C9F8383909F51560C9F83C494C
:10350000C9F84049C9F8444909F0A4F808F124036E
:10351000C9F85039B14BC9F86839A3F57C53183B49
:10352000C9F86C39AC4BC9F8743909F6B4120421E6
:10353000C9F8707909F68C10C9F87849C9F87C493E
:10354000C9F8804909F086F809F6EC12042109F659
:10355000C410C9F8A469C9F8A869C9F8AC69C9F860
:10356000B069C9F88C8909F075F809F6242204219C
:1035700009F6FC10C9F8DC69C9F8E069C9F8E46922
:10358000C9F8E869C9F8C48909F064F809F65C2249
:10359000042109F63420C9F8146AC9F8186AC9F870
:1035A0001C6AC9F8206AC9F8FC8909F053F809F6C1
:1035B0009422042109F66C20C9F84C6AC9F8506AB3
:1035C000C9F8546AC9F8586AC9F8348A09F042F847
:1035D00009F6CC22042109F6A420C9F8846AC9F8A6
:1035E000886AC9F88C6AC9F8906AC9F86C8A09F0C7
:1035F00031F809F6F422012109F6DC20C9F8BC6A89
:10360000C9F8C06AC9F8C46AC9F8C86AC9F8A48AFE
:1036100009F020F840F27763A9F8103B4FF000530F
:10362000C9F80C3B4FF0C103A9F80A3B4FF00E0359
:10363000A9F8083B4FF03A0309F62C320121A9F80A
:1036400012BBA9F8063B09F6143008F10C03A9F8DF
:10365000044BC9F8DC3A89F8F84A08F0FBFF08F196
:103660000C03C9F8143B4FF03A03A9F83E3B4FF066
:103670000E03A9F8403B4FF0C103A9F8423B4FF0BD
:103680000053C9F8443B40F2776309F664320121E4
:10369000A9F8483BA9F84ABB09F64C30A9F83C4BBD
:1036A00089F8304B08F0D6FF08F10C03C9F84C3B01
:1036B0004FF03A03A9F8763B4FF00E03A9F8783B98
:1036C0004FF0C103A9F87A3B4FF00053C9F87C3B97
:1036D00040F2776309F69C320121A9F8803BA9F8F2
:1036E00082BB09F68430A9F8744B89F8684B08F05E
:1036F000B1FF08F10C03C9F8843B4FF03A03A9F875
:10370000AE3B4FF00E03A9F8B03B4FF0C103A9F850
:10371000B23B4FF00053C9F8B43B40F2776309F66F
:10372000D4320121A9F8B83BA9F8BABB09F6BC30DC
:10373000A9F8AC4B89F8A04B08F08CFF08F10C03FA
:10374000C9F8BC3B4FF03A03A9F8E63B4FF00E0333
:10375000A9F8E83B4FF0C103A9F8EA3B4FF000534A
:10376000C9F8EC3B40F2776309F60C420121A9F855
:10377000F03BA9F8F2BB09F6F430A9F8E44B89F85C
:10378000D84B08F067FF08F10C03C9F8F43B4FF081
:103790003A03A9F81E3C4FF00E03A9F8203C4FF065
:1037A000C103A9F8223C4FF00053C9F8243C40F271
:1037B0007763A9F8283C09F654420421A9F82ABCE9
:1037C00009F62C40A9F81C4C89F8104C08F042FF6F
:1037D00009F68C42042103E080F9855A00B28E0478
:1037E00009F66440C9F8446CC9F8486CC9F84C6CD7
:1037F000C9F8506CC9F82C8C08F02CFF09F6C442AB
:10380000042109F69C40C9F87C6CC9F8806CC9F8A1
:10381000846CC9F8886CC9F8648C08F01BFF2946D1
:1038200009F6085209F6D440C9F8B46CC9F8B86C66
:10383000C9F8BC6CC9F8C06CC9F89C8C08F00AFFC8
:1038400008F12403C9F8D43C6F4BC9F8EC3CA3F54C
:103850007C53183BC9F8F03C6C4BC9F8F47C09F672
:1038600028520121C9F8F83C09F5516042F2CC0513
:10387000C9F8FC4CC9F8004DC9F8044D08F0EAFE3F
:103880009FED5F7B08F13003C826C9F8103D49F869
:10389000056021464FF4006209F62C508DED007B47
:1038A00022F0FEFD214640F67C32594822F0F8FD18
:1038B00042F2AC0742F2AA0C42F2AE054FF400739A
:1038C00029F80C3029F8073029F8053042F2A8030E
:1038D00042F2B40629F8034042F2B60342F2B00BBA
:1038E00029F8034042F2B80309F5035529F80340CB
:1038F00042F2BA0342F2B20E29F8034042F2BC038C
:1039000042F2C40029F8034042F2BE0342F2C6016B
:1039100029F8034042F2C80242F2C2034FF4F5779D
:103920004FF0F50C29F8067029F80B402C8029F887
:103930000EC029F8034029F8004029F8014029F871
:10394000024000260027A5F6963540F2BE5B28E02F
:103950003046394622F008F927F0BEFC0134A3B204
:103960005B4525F8020F1CB25AD007EE904AB8EE1C
:10397000E78A68EE097A17EE900A22F053FA41ECD2
:10398000100B27F0D1FC68EE287A57EC106B17EE7D
:10399000900A22F047FA41EC100B27F0C5FC8DEDA0
:1039A000000B3046394600221A4B22F0DFFA002283
:1039B000194B22F0DBFA002206460F46154BDDE9D3
:1039C000000122F0D3FA0022144B22F0F9FB024648
:1039D0000B463046394622F0C7F80022002306463F
:1039E0000F4627F04FFC00220B4B0028B0D10022DD
:1039F000094B3046394622F0B5F827F06DFCADE7AB
:103A0000000000000000000000B28E0480F9855A1A
:103A10003C87FF1F00805B400000E03F0000084043
:103A2000CD4ECE4C42F2CA0306F5805229F803B0BF
:103A3000042106F6D87008F00DFE4FF48035A4F18D
:103A4000C0020421A4F1E800C6F8D88FC6F8F05FE0
:103A5000C6F8F45FC6F8F85FC6F8FC5F08F0FAFD38
:103A6000A4F198020221A4F1B00044F8E88C44F8D3
:103A7000D05C44F8CC5C44F8C85C44F8C45C08F002
:103A8000E9FDB74BB74844F8B03C012115F042FBC3
:103A9000B54BB6491A68B64842F400421A600A6843
:103AA00042F002020A601A6842F002021A600268DA
:103AB00000239A4244F8903C44F88C3C40DBAD4BE8
:103AC0001B68002B3CDBAC4A4FF08043136013684B
:103AD000002BFCDBA94DAA48DFF804E3A949AA4B57
:103AE000AA4AAB4EAB4F41F2540CC5F800C00025BA
:103AF00005600120CEF80000DFF8E8E2C1F800E040
:103B00004FF480311960A44B1360A44A32603D60C9
:103B1000A34D3067DFF8D0E200F18E40286005F554
:103B2000DF35CEF8001005F5C0759E489E4947F870
:103B3000503C4FF4C063C6F880202B6003600B60DC
:103B40009A4ADAF8E4309A499A484FF4C065156009
:103B5000022219609A809AF8E810186101F18041F8
:103B600001F5043140F20110A5F50065D880DD6053
:103B70009A604FF4807000228D250626D8829A82A2
:103B8000D8839A619E838C480A700D709AF8E85029
:103B9000774B14F8881C05704FF0807587481D60BE
:103BA00018606E4B39B9864886490122D0250570C8
:103BB00003F8882C0A609AF8E810834D04F8872CE3
:103BC0004B119B0003F16043012703F5614301F1B1
:103BD00010027E4EDFF814A27D4846F8220001F064
:103BE0001F0107FA01F105F11802196028460221A8
:103BF0004FF0000B08F02EFD0AF5167305F12800B2
:103C0000744A44F8583C44F8842C44F85CAC44F8BA
:103C100064BC44F860BC04F854BC04F853BC44F8D9
:103C200050BC04F84CBC18F017FA6B4A6B4905F10C
:103C3000280021F08DFF0AF5087305F13C0044F8D7
:103C4000443C44F848AC04F840BC04F83FBC44F899
:103C50003CBC04F838BC18F0FFF95F4A5F4905F135
:103C60003C0021F075FF0AF5D87305F1500044F8C7
:103C7000303C44F834AC04F82CBC04F82BBC44F8B9
:103C800028BC04F824BC18F0E7F9534A534905F15D
:103C9000500021F05DFF0AF5F47305F1640044F86B
:103CA0001C3C44F820AC04F818BC04F817BC44F8D9
:103CB00014BC04F810BC18F0CFF9474A474905F185
:103CC000640021F045FF0AF1B80305F1780044F8DB
:103CD0000C3C0AF5247344F8083C04F804BC04F8CE
:103CE00003BCC4F800B084F804B018F0B5F93A4A3F
:103CF0003A4905F1780021F02BFF0AF1B80305F1EC
:103D00008C00A3600AF53273E36084F810B084F885
:103D100011B0C4F814B084F818B018F09DF92E4A08
:103D20002E4905F18C0021F013FF0AF1B80305F1CB
:103D3000A000E3610AF55C73236284F824B084F880
:103D400025B0C4F828B084F82CB018F085F9224AC0
:103D5000224905F1A0004BE00883FF1F0094FF1FDC
:103D60003CF502000451FF1F3C80044040800440A9
:103D700000F0024080F0024000F1024004F10240F5
:103D800060F0024008F002400CF0024010F00240E7
:103D900014F00240E0F002401B1F0100001F1F1F33
:103DA00088F002400CB0044018B0044004B0044055
:103DB000E003FF1F22F002401B8000400100009042
:103DC00040E400E008E100E07C93FF1F0002FF1FD9
:103DD00039AB010048F502004C3EFF1F29B200003C
:103DE00004F00240010000078CF002406C51FF1FFC
:103DF00021F0AEFE0AF1B80305F1B40023630AF521
:103E00006A73636384F838B084F839B0C4F83CB09E
:103E100084F840B018F020F9E44AE54905F1B4000F
:103E200021F096FE0AF1B80305F1C80063640AF5B3
:103E30007873A36484F84CB084F84DB0C4F850B0E3
:103E400084F854B018F008F9D84AD94905F1C800E7
:103E500021F07EFE0AF1B80305F1DC00A3650AF546
:103E600083630AF54E76E36584F860B084F861B048
:103E7000C4F864B084F868B018F0EEF8CB4ACC49C6
:103E800005F1DC0021F064FEA6F5207305F1F000D9
:103E9000E366266784F874B084F875B0C4F878B027
:103EA00084F87CB018F0D8F8C04AC14905F1F00098
:103EB00021F04EFEA6F5207305F58270C4F880301F
:103EC000A6F13803C4F8843084F888B084F889B047
:103ED000C4F88CB084F890B018F0BEF8B34AB44976
:103EE00005F5827021F034FEA6F1A80305F58C706B
:103EF000C4F89830A6F51273C4F8943084F89CB0D6
:103F000084F89D70C4F8A0B084F8A4B018F0A4F8A8
:103F1000A64AA74905F58C7021F01AFEA6F5127382
:103F200005F59670C4F8A83006F13803C4F8AC3033
:103F300084F8B0B084F8B170C4F8B4B084F8B8B004
:103F400018F08AF8994A9A4905F5967021F000FE12
:103F5000A6F5127305F5A070C4F8BC3006F1A803ED
:103F6000C4F8C03084F8C4B084F8C570C4F8C8B0D0
:103F700084F8CCB018F070F88C4A8D4905F5A07023
:103F800021F0E6FDA6F5127305F5AA70C4F8D0304D
:103F9000C4F8D46084F8D8B084F8D970C4F8DCB020
:103FA00084F8E0B018F058F8804A814905F5AA7005
:103FB00021F0CEFDA6F1700305F5B470C4F8E83029
:103FC000A6F50873C4F8E43084F8ECB084F8ED701A
:103FD000C4F8F0B084F8F4B018F03EF8734A7449AD
:103FE00005F5B47021F0B4FD06F1700305F5BE705F
:103FF000C4F8FC30A6F50873C4F8F83084F800B1B2
:1040000084F80171C4F804B184F808B118F024F8F8
:10401000664A674905F5BE7021F09AFDA6F508735A
:1040200005F5C870C4F80C3106F1E003C4F810318E
:1040300084F814B184F81571C4F818B184F81CB16F
:1040400018F00AF8594A5A4905F5C87021F080FD60
:10405000A6F5087305F5D270C4F82031A6F138032F
:10406000C4F8243184F828B184F82971C4F82CB13B
:1040700084F830B117F0F0FF4D494C4A05F5D27085
:1040800021F066FD0AF5F5630AF5A66205F5DC7018
:10409000C4F83831C4F8342184F83CB184F83D7157
:1040A000C4F840B184F844B117F0D6FF40493F4A04
:1040B00005F5DC7021F04CFD0AF5F5630AF5CB62DD
:1040C00005F5E670C4F84C31C4F8482184F850B1C5
:1040D00084F851B1C4F854B184F858B117F0BCFF5A
:1040E000324A334905F5E67021F032FD06F5527388
:1040F00005F5F070C4F85C312E4BC4F8603184F8DB
:1041000064B184F86571C4F868B184F86CB117F0D3
:10411000A3FF264A264905F5F07021F019FD06F5A2
:10412000527305F5FA70C4F87031234BC4F874313A
:1041300084F878B184F87971C4F87CB184F880B1DE
:1041400017F08AFF194A1A4905F5FA7021F000FDA7
:1041500006F5527305F50270C4F88431174BC4F8A4
:10416000883184F88CB184F88D71C4F890B184F8EA
:1041700094B117F071FF0D4A0D4905F5027021F059
:10418000E7FC06F5527305F50770C4F898310C4B3F
:10419000C4F89C3184F8A0B184F8A171C4F8A4B12A
:1041A00084F8A8B117F058FF01490BE04C3EFF1FFF
:1041B00029B20000E478FF1F1C79FF1F5479FF1F0C
:1041C0008C79FF1FE64A05F507704FF0020921F0D0
:1041D000BFFCE44BC4F8B0310AF5D76205F50C70AA
:1041E000C4F8AC2184F8B59184F8B4B1C4F8B8B17E
:1041F00084F8BCB117F030FFDB49D94A05F50C70E3
:1042000021F0A6FCD94BC4F8C4310AF5DC6205F5EF
:10421000117084F8C991C4F8C02184F8C8B1C4F8F9
:10422000CCB184F8D0B117F017FFCF49CC4A05F5CF
:10423000117021F08DFCCE4BC4F8D8310AF5E16243
:1042400005F5167084F8DD91C4F8D42184F8DCB14A
:10425000C4F8E0B184F8E4B117F0FEFEC249C04AE8
:1042600005F5167021F074FCC24BC4F8EC310AF568
:10427000E66205F51B7084F8F191C4F8E82184F832
:10428000F0B1C4F8F4B184F8F8B117F0E5FEB44A1F
:10429000B54905F51B7021F05BFCA6F52E7305F5FD
:1042A0002070C4F8FC31B44BC4F8003284F8059295
:1042B00084F804B2C4F808B284F80CB217F0CCFE4B
:1042C000A74AA94905F5207021F042FCA6F52E73F6
:1042D00005F52570C4F81032A84BC4F8143284F8E0
:1042E000199284F818B2C4F81CB284F820B217F0FE
:1042F000B3FE9B4A9C4905F5257021F029FCA6F5E3
:104300002E7305F52A70C4F824329D4BC4F8283268
:1043100084F82D9284F82CB2C4F830B284F834B208
:1043200017F09AFE8E4A904905F52A7021F010FC8C
:10433000A6F52E7305F52F70C4F83832914BC4F8EA
:104340003C3284F8419284F840B2C4F844B284F814
:1043500048B217F081FE824A834905F52F7021F09B
:10436000F7FBA6F1A80305F53470C4F84C3206F645
:104370008413C4F8503284F854B284F85572C4F8E7
:1043800058B284F85CB217F067FE754A764905F5B5
:10439000347021F0DDFBA6F1700305F53970C4F827
:1043A000603206F5E963C4F8643284F868B284F8D0
:1043B0006972C4F86CB284F870B217F04DFE684AA6
:1043C000694905F5397021F0C3FB06F1E00305F5F5
:1043D0003E70C4F874326C4BC4F8783284F87CB206
:1043E00084F87D72C4F880B284F884B217F034FE89
:1043F0005B4A5D4905F53E7021F0AAFB06F58E6328
:1044000005F54370C4F8883206F59563C4F88C321C
:1044100084F890B284F891B2C4F894B284F898B257
:1044200017F01AFE4E4A504905F5437021F090FBF3
:1044300006F58E6305F54870C4F89C3206F59C635A
:10444000C4F8A03284F8A4B284F8A5B2C4F8A8B223
:1044500084F8ACB217F000FE414A434905F54870B4
:1044600021F076FB06F58E6305F54D70C4F8B03289
:1044700006F5A363C4F8B43284F8B8B284F8B9B2CC
:10448000C4F8BCB284F8C0B217F0E6FD344A36492D
:1044900005F54D7021F05CFB06F58E6305F5527055
:1044A000C4F8C43206F5AA63C4F8C83284F8CCB2A2
:1044B00084F8CDB2C4F8D0B284F8D4B217F0CCFDF1
:1044C000274A294905F5527021F042FB06F58E6313
:1044D00005F55770C4F8D83206F5B163C4F8DC327C
:1044E00084F8E0B284F8E1B2C4F8E4B284F8E8B247
:1044F00017F0B2FD1A4A1C4905F5577021F028FB48
:1045000006F58E6305F55C70C4F8EC3206F5B86309
:10451000C4F8F03284F8F4B284F8F5B2C4F8F8B212
:1045200084F8FCB217F098FD0D4A0F4905F55C7050
:1045300021F00EFB06F58E6305F56170C4F80033BB
:1045400006F5BF63C4F8043384F808B384F809B3EC
:10455000C4F80CB384F810B317F07EFD16E000BF6A
:104560004C3EFF1FE478FF1F29B200001C79FF1F9B
:104570005479FF1F8C79FF1F9477FF1FCC77FF1FA3
:104580000478FF1F3C78FF1F906BFF1FDD4ADE4958
:1045900005F5617021F0DCFA06F58E6305F56670AD
:1045A000C4F8143306F5C663C4F8183384F81CB392
:1045B00084F81DB3C4F820B384F824B317F04CFD7D
:1045C000D04AD14905F5667021F0C2FAA6F1380348
:1045D00005F56B70C4F82833CC4BC4F82C3384F841
:1045E00030B384F83173C4F834B384F838B317F0B7
:1045F00033FDC44AC44905F56B7021F0A9FAC44BD8
:10460000C4F8403305F57070C4F83C6384F844B3D3
:1046100084F84573C4F848B384F84CB317F01CFD14
:10462000B84AB94905F5707021F092FAB94BC4F84F
:10463000543305F5757006F13803C4F8503384F827
:1046400058B384F85973C4F85CB384F860B317F0B6
:1046500003FDAC4AAC4905F5757021F079FAAE4B13
:10466000C4F8683305F57A7006F17003C4F8643352
:1046700084F86CB384F86D73C4F870B384F874B3C1
:1046800017F0EAFC9F4AA04905F57A7021F060FA1C
:10469000A24BC4F87C3305F57F7006F1A803C4F87B
:1046A000783384F880B384F88173C4F884B384F8D1
:1046B00088B317F0D1FC934A934905F57F7021F038
:1046C00047FA06F5E96305F58260C4F88C33944B2C
:1046D000C4F8903384F894B384F89573C4F898B30D
:1046E00084F89CB317F0B8FC864A874905F58260C8
:1046F00021F02EFA06F5E96305F22440C4F8A03350
:10470000884BC4F8A43384F8A8B384F8A973C4F818
:10471000ACB384F8B0B317F09FFC7A4A7A4905F23B
:10472000244021F015FA06F6841305F58760C4F8D5
:10473000B4337B4BC4F8B83384F8BCB384F8BDB34E
:10474000C4F8C0B384F8C4B317F086FC6D4A6E4950
:1047500005F5876021F0FCF906F6841305F24C405C
:10476000C4F8C8336F4BC4F8CC3384F8D0B384F8A2
:10477000D1B3C4F8D4B384F8D8B317F06DFC614A50
:10478000614905F24C4021F0E3F9634BC4F8DC3396
:1047900005F58C60644BC4F8E03384F8E4B384F826
:1047A000E573C4F8E8B384F8ECB317F055FC554A48
:1047B000554905F58C6021F0CBF9574BC4F8F0331F
:1047C00005F27440594BC4F8F43384F8F8B384F814
:1047D000F973C4F8FCB384F800B417F03DFC494AFF
:1047E000494905F2744021F0B3F9494BC4F8043447
:1047F00005F591604E4BC4F8083484F814B4C4F83D
:1048000010B484F80DB484F80CB417F025FC3D4ABC
:104810003D4905F5916021F09BF93D4BC4F81834F2
:1048200005F29C40434BC4F81C3484F828B4C4F807
:1048300024B484F821B484F820B417F00DFC314A74
:10484000314905F29C4021F083F9324BC4F82C34F5
:1048500005F59660344BC4F8303484F83CB4C4F8A1
:1048600038B484F835B484F834B417F0F5FB254A2D
:10487000254905F5966021F06BF9264BC4F84034C4
:1048800005F2C440294BC4F8443484F850B4C4F849
:104890004CB484F849B484F848B417F0DDFB194AE5
:1048A000194905F2C44021F053F9184BC4F85434A7
:1048B00005F59B601E4BC4F8583484F85CB484F84A
:1048C0005D74C4F860B484F864B417F0C5FB0D4A95
:1048D0000D4905F59B6021F03BF90C4BC4F8683499
:1048E00005F2EC40134BC4F86C3484F870B484F8CF
:1048F0007174C4F874B484F878B417F0ADFB014A4D
:104900001AE000BF4C3EFF1F29B200001867FF1FCE
:10491000A062FF1FDC64FF1F6460FF1F5469FF1F5C
:104920009477FF1FBC76FF1FCC77FF1FE076FF1F39
:104930003C78FF1F0477FF1FE34905F2EC4021F0AC
:1049400007F9E24BC4F87C3405F5A060E04BC4F8ED
:10495000803484F884B484F885B4C4F888B484F8C6
:104960008CB417F079FBDB4AD74905F5A06021F03C
:10497000EFF8D64BC4F8903405F21450D64BC4F877
:10498000943484F898B484F899B4C4F89CB484F846
:10499000A0B417F061FBCF4ACB4905F2145021F0C7
:1049A000D7F8CB4BC4F8A83405F5A560CB4BC4F8B9
:1049B000A43484F8ACB484F8AD74C4F8B0B484F80A
:1049C000B4B417F049FBC34ABF4905F5A56021F00F
:1049D000BFF8C14BC4F8BC3405F23C50BF4BC4F81F
:1049E000B83484F8C0B484F8C174C4F8C4B484F88A
:1049F000C8B417F031FBB74AB34905F23C5021F077
:104A0000A7F8A6F5C47305F5AA60C4F8CC34B44B76
:104A1000C4F8D03484F8D4B484F8D5B4C4F8D8B485
:104A200084F8DCB417F018FBAA4AA74905F5AA6078
:104A300021F08EF8A6F5C47305F26450C4F8E03492
:104A4000C4F8E46484F8E99484F8E8B4C4F8ECB4F5
:104A500084F8F0B417F000FB05F264509D4A9A49BF
:104A6000A0F5B96821F074F8A6F1380305F5AF6038
:104A7000C4F8F834A6F5C473C4F8F43484F8FD948B
:104A800084F8FCB4C4F800B584F804B517F0E4FA6F
:104A9000904A8D4905F5AF6021F05AF8A6F5A87344
:104AA00005F28C50C4F808358E4BC4F80C3584F8E8
:104AB00010B584F811B5C4F814B584F818B517F01A
:104AC000CBFA844A804905F28C5021F041F8A6F1D6
:104AD000A80305F5B460C4F82035A6F5A873C4F89A
:104AE0001C3584F8259584F824B5C4F828B584F8D5
:104AF0002CB517F0B1FA774A734905F5B46021F087
:104B000027F8A6F1700305F2B450C4F83435A6F5C1
:104B1000A873C4F8303584F8399584F838B5C4F8EA
:104B20003CB584F840B517F097FA6A4A664905F231
:104B3000B45021F00DF8A6F58C7305F5B960C4F8F2
:104B40004435694BC4F8483584F84CB584F84DB504
:104B5000C4F850B584F854B517F07EFA5D4A5A4946
:104B600005F5B96020F0F4FF06F1A80305F2DC506A
:104B7000C4F85C35A6F58C73C4F8583584F8619593
:104B800084F860B5C4F864B584F868B517F064FAC1
:104B9000504A4D4905F2DC5020F0DAFF06F1E003FF
:104BA00005F5BE60C4F87035A6F58C73C4F86C3595
:104BB00084F8759584F874B5C4F878B584F87CB534
:104BC00017F04AFA434A404905F5BE6020F0C0FF9D
:104BD000A6F1E00305F20460C4F88035434BC4F845
:104BE000843584F888B584F889B5C4F88CB584F820
:104BF00090B517F031FA374A334905F2046020F0D6
:104C0000A7FF06F1380305F5C360C4F89835A6F18F
:104C1000E003C4F8943584F89D9584F89CB5C4F8F5
:104C2000A0B584F8A4B517F017FA2A4A264905F565
:104C3000C36020F08DFF06F1700305F22C60C4F80C
:104C4000AC35A6F1E003C4F8A83584F8B19584F832
:104C5000B0B5C4F8B4B584F8B8B517F0FDF91D4A7D
:104C60001949234E05F22C6020F072FF214BC4F845
:104C7000BC35D83305F5C860C4F8C0354FF0030320
:104C800084F8C53584F8C4B5C4F8C8B584F8CCB583
:104C900017F0E2F90F4A0C4905F5C86020F058FFFB
:104CA000154BC4F8D0354FF0030305F2546084F877
:104CB000D935124BC4F8D43584F8D8B5C4F8DCB56E
:104CC00084F8E0B51CE000BF29B200005469FF1F62
:104CD0002877FF1F4C3EFF1F0478FF1F906BFF1FBC
:104CE0008C79FF1FE478FF1F5479FF1F1C79FF1F89
:104CF000F8A4FF1FBC76FF1FE076FF1FCC77FF1FD5
:104D000017F0AAF9E14AE24905F2546020F020FFC9
:104D1000E04BC4F8E4354FF0030305F5CD6084F8AB
:104D2000ED35DD4BC4F8E83584F8ECB5C4F8F0B5E2
:104D300084F8F4B517F090F9D44AD54905F5CD605B
:104D400020F006FFD54BC4F8F8354FF0030305F209
:104D50007C6084F80136D24BC4F8FC3584F800B688
:104D6000C4F804B684F808B617F076F9C74AC849FB
:104D700005F27C6020F0ECFECA4BC4F80C3605F559
:104D8000D26003F53773C4F8103684F814B684F88B
:104D900015B6C4F818B684F81CB617F05DF9BB4A0E
:104DA000BB4905F5D26020F0D3FEBF4BC4F82036D6
:104DB00005F2A46003F51A73C4F8243684F828B603
:104DC00084F829B6C4F82CB684F830B617F044F944
:104DD000AE4AAF4905F2A46020F0BAFEB34BC4F866
:104DE000343605F5D76003F5C673C4F8383684F851
:104DF0003CB684F83D76C4F840B684F844B617F063
:104E00002BF9A24AA24905F5D76020F0A1FEA44BD8
:104E1000C4F8483605F2CC6003F52A73C4F84C3662
:104E200084F850B684F851B6C4F854B684F858B62D
:104E300017F012F9954A964905F2CC6020F088FEE9
:104E40009B4BC4F85C3605F5DC6003F58C73C4F845
:104E5000603684F864B684F86576C4F868B684F879
:104E60006CB617F0F9F8894A894905F5DC6020F03D
:104E70006FFE904BC4F8703605F2F46003F5AC7326
:104E8000C4F8743684F878B684F87976C4F87CB6B9
:104E900084F880B617F0E0F87C4A7D4905F2F460AA
:104EA00020F056FE7C4BC4F8843605F5E16003F52E
:104EB0002B73C4F8883684F88CB684F88DB6C4F8A1
:104EC00090B684F894B617F0C7F8704A704905F5A3
:104ED000E16020F03DFE784BC4F8983605F21C7076
:104EE00003F5AE73C4F89C3684F8A0B684F8A176B6
:104EF000C4F8A4B684F8A8B617F0AEF8634A6449BB
:104F000005F21C7020F024FE6C4BC4F8AC3605F59D
:104F1000E66003F5B473C4F8B03684F8B4B684F828
:104F2000B5B6C4F8B8B684F8BCB617F095F8574AC9
:104F3000574905F5E66020F00BFE604BC4F8C0361B
:104F400005F2447003F5B473C4F8C43684F8C87627
:104F500084F8C976C4F8CCB684F8D0B617F07CF8DB
:104F60004A4A4B4905F2447020F0F2FD534BC4F815
:104F7000D43605F5EB6003F5B473C4F8D83684F87D
:104F8000DC9684F8DD96C4F8E0B684F8E4B617F051
:104F900063F83E4A3E4905F5EB6020F0D9FD484BE9
:104FA000C4F8EC3605F26C70A3F5CE73C4F8E8369D
:104FB00084F8F0B684F8F1B6C4F8F4B684F8F8B61C
:104FC00017F04AF8314A324905F26C7020F0C0FD02
:104FD0003B4BC4F8003705F5F060A3F5CE73C4F879
:104FE000FC3684F8047784F80577C4F808B784F8A9
:104FF0000CB717F031F8254A254905F5F06020F087
:10500000A7FD2F4BC4F8143705F29470A3F5CE73A7
:10501000C4F8103784F8189784F81997C4F81CB7A7
:1050200084F820B717F018F8184A194905F2947057
:1050300020F08EFD234BC4F8243705F5F56003F509
:105040009473C4F8283784F82CB784F82DB7C4F8C3
:1050500030B784F834B716F0FFFF0C4A0C4905F559
:10506000F56020F075FD174BC4F8383705F2BC70B9
:1050700003F59473C4F83C3784F8407784F841779B
:10508000C4F844B784F848B71EE000BF4C3EFF1F89
:1050900029B200000477FF1F3C78FF1F2877FF1F0D
:1050A0000478FF1F9477FF1FCC77FF1FE478FF1F62
:1050B0001C79FF1F5479FF1F8C79FF1F347AFF1F63
:1050C0000C7CFF1FAC7AFF1F16F0C6FFE14AE249D5
:1050D00005F2BC7020F03CFDE04BC4F84C3705F500
:1050E000FA6003F59473C4F8503784F8549784F841
:1050F0005597C4F858B784F85CB716F0ADFFD54A99
:10510000D54905F5FA6020F023FDD54BC4F860378A
:1051100005F2E47003F5AE73C4F8643784F868B739
:1051200084F869B7C4F86CB784F870B716F094FFC8
:10513000C84AC94905F2E47020F00AFDC84BC4F81A
:10514000743705F5FF6003F5AE73C4F8783784F85B
:105150007C7784F87D77C4F880B784F884B716F03C
:105160007BFFBC4ABC4905F5FF6020F0F1FCBC4B5D
:10517000C4F8883705F60C0003F5AE73C4F88C3715
:1051800084F8909784F89197C4F894B784F898B706
:1051900016F062FFAF4AB04905F60C0020F0D8FCCB
:1051A000B04BC4F89C3705F5026003F5AC73C4F846
:1051B000A03784F8A4B784F8A5B7C4F8A8B784F8D2
:1051C000ACB716F049FFA34AA34905F5026020F0E9
:1051D000BFFCA44BC4F8B03705F6340003F5AC733C
:1051E000C4F8B43784F8B87784F8B977C4F8BCB792
:1051F00084F8C0B716F030FF964A974905F6340098
:1052000020F0A6FC974BC4F8C43705F6480003F518
:10521000AC73C4F8C83784F8CC9784F8CD97C4F839
:10522000D0B784F8D4B716F017FF8A4A8A4905F632
:10523000480020F08DFC8C4BC4F8D83705F65C0094
:1052400003F5AA73C4F8DC3784F8E0B784F8E1B753
:10525000C4F8E4B784F8E8B716F0FEFE7D4A7E494C
:1052600005F65C0020F074FC7F4BC4F8EC3705F5C4
:10527000076003F5AA73C4F8F03784F8F47784F86C
:10528000F577C4F8F8B784F8FCB716F0E5FE714A74
:10529000714905F5076020F05BFC734BC4F80038DA
:1052A00005F6840003F5AA73C4F8043884F8089856
:1052B00084F80998C4F80CB884F810B816F0CCFE3D
:1052C000644A654905F6840020F042FC674BC4F847
:1052D000143805F6980003F5A873C4F8183884F854
:1052E00024B8C4F820B884F81DB884F81CB816F0A7
:1052F000B3FE584A584905F6980020F029FC5C4B4B
:10530000C4F8283805F6AC0003F5A873C4F82C38A7
:1053100084F838B8C4F834B884F831B884F830B8B0
:1053200016F09AFE4B4A4C4905F6AC0020F010FCF2
:10533000504BC4F83C3805F50C6003F5C473C4F851
:10534000403884F84CB8C4F848B884F845B884F8B4
:1053500044B816F081FE3F4A3F4905F50C6020F045
:10536000F7FB454BC4F8503805F6D40003F58C73B1
:10537000C4F8543884F860B8C4F85CB884F859B8F4
:1053800084F858B816F068FE324A334905F6D4005E
:1053900020F0DEFB394BC4F8643805F6E80003F56D
:1053A000A873C4F8683884F874B8C4F870B884F87E
:1053B0006DB884F86CB816F04FFE2749254A05F6FB
:1053C000E80020F0C5FB2E4B84F888B803F5117275
:1053D00005F6FC0003F56573C4F87C380093C4F847
:1053E0007828C4F884B884F881B884F880B816F0B6
:1053F00033FE184A184905F6FC0020F0A9FB214BA2
:10540000C4F88C3805F5116003F5A873C4F890381A
:1054100084F89CB8C4F898B884F8957884F894B85F
:1054200016F01AFE0B4A0C4905F5116020F090FBAE
:10543000154BC4F8A03805F6241003F58C73C4F896
:10544000A43884F8A99884F8B0B8C4F8ACB884F843
:10545000A8B81BE04C3EFF1F29B20000AC7AFF1F2A
:10546000E87AFF1F247BFF1F607BFF1F9C7BFF1FD1
:10547000D47BFF1F0C7CFF1F447CFF1F7C7CFF1F25
:10548000707AFF1FEC7CFF1F247DFF1F16F0E4FDE8
:10549000DF4AE04905F6241020F05AFBDE4BC4F841
:1054A000B43805F6381003F58C73C4F8B83884F8AE
:1054B000C4B8C4F8C0B884F8BDB884F8BCB816F055
:1054C000CBFDD34AD34905F6381020F041FBD34B2E
:1054D000C4F8C83805F64C10A833C4F8CC3884F8A2
:1054E000D8B8C4F8D4B884F8D1B884F8D0B816F0D5
:1054F000B3FDC74AC74905F64C1020F029FBC84B3D
:10550000C4F8DC3805F51660A833C4F8E03884F830
:10551000ECB8C4F8E8B884F8E57884F8E4B816F094
:105520009BFDBB4ABB4905F5166020F011FB009BB3
:10553000C4F8F03805F67410BA4BC4F8F43884F89F
:10554000F99884F800B9C4F8FCB884F8F8B816F0F3
:1055500083FDB54BAF49AE4A03F5966305F674106B
:10556000009320F0F5FA009BB04AC4F8083905F61C
:105570008810C4F8042984F80C9984F814B9C4F884
:1055800010B984F80DB916F067FDA14AA14905F6D6
:10559000881020F0DDFA009BC4F8183908F5206067
:1055A000C4F81C8984F828B9C4F824B984F821798E
:1055B00084F820B916F050FD954A964908F5206008
:1055C00020F0C6FA009BC4F82C3908F61420984B3A
:1055D000C4F8303984F83CB9C4F838B984F835795E
:1055E00084F8347916F038FD894A8A4908F614207F
:1055F00020F0AEFA8D4BC4F8403908F62820C4F8E4
:10560000448984F8489984F850B9C4F84CB984F8AE
:1056100049B916F021FD7E4A7E4908F6282020F07F
:1056200097FA824BC4F8543908F63C20804BC4F8F2
:10563000583984F85C9984F864B9C4F860B984F87E
:105640005DB916F009FD724A724908F63C2020F057
:105650007FFA774BC4F8683908F52560C4F86C59AF
:1056600084F878B9C4F874B984F8717984F870B999
:1056700016F0F2FC6749664A08F5256020F068FAE2
:1056800008F1380308F66420694AC4F880390093A9
:10569000C4F87C2984F88CB9C4F888B984F8857971
:1056A00084F884B916F0D8FC594A5A4908F664209F
:1056B00020F04EFA009BC4F8943908F67820C4F81C
:1056C000908984F898B984F899B9C4F89CB984F899
:1056D000A0B916F0C1FC4E4A4E4908F6782020F0D9
:1056E00037FA08F68C20C4F8A859C4F8A48984F8BD
:1056F000ACB984F8ADB9C4F8B0B984F8B4B916F04F
:10570000ABFC434A434908F68C2020F021FA0AF604
:10571000BC4308F52A60C4F8BC390AF5FC63C4F838
:10572000B83984F8C0B984F8C1B9C4F8C4B984F8E8
:10573000C8B916F091FC364A364908F52A6020F0BF
:1057400007FA0AF5286308F6B420C4F8D0390AF637
:105750001803C4F8CC3984F8D4B984F8D5B9C4F89E
:10576000D8B984F8DCB916F077FC294A294908F63B
:10577000B42020F0EDF92F4BC4F8E43908F6C82026
:105780000AF50563C4F8E03984F8E8B984F8E9B9A2
:10579000C4F8ECB984F8F0B916F05EFC1C4A1D4957
:1057A00008F6C82020F0D4F9234BC4F8F83908F6DD
:1057B000DC200AF68803C4F8F43984F8FCB984F8CC
:1057C000FDB9C4F800BA84F804BA16F045FC104AD2
:1057D000104908F6DC2020F0BBF9184BC4F80C3A4D
:1057E00008F52F600AF50C63C4F8083A84F810BA7B
:1057F00084F811BAC4F814BA84F818BA16F02CFC5C
:10580000034A044908F52F6020F0A2F918E000BF10
:105810004C3EFF1F29B200005C7DFF1F947DFF1FDF
:10582000CC7DFF1F747EFF1F707AFF1FE47EFF1F79
:10583000E092FF1FDC64FF1F6460FF1F5469FF1FBD
:10584000E94BC4F8203A08F604300AF6F803C4F825
:105850001C3A84F824BA84F825BAC4F828BA84F823
:105860002CBA16F0F9FBE14AE14908F6043020F0C1
:105870006FF9E04BC4F8343A08F618300AF51363B0
:10588000C4F8303A84F838BA84F839BAC4F83CBA63
:1058900084F840BA16F0E0FBD44AD54908F618302F
:1058A00020F056F9D44BC4F8483A08F62C300AF6E2
:1058B0006813C4F8443A84F84CBA84F84DBAC4F872
:1058C00050BA84F854BA16F0C7FBC84AC84908F65B
:1058D0002C3020F03DF90AF5F47308F53460C4F873
:1058E000583A0AF5FC63C4F85C3A84F860BA84F864
:1058F000617AC4F864BA84F868BA16F0ADFBBB4AA2
:10590000BB4908F5346020F023F90AF5F47308F672
:105910005430C4F86C3A0AF61803C4F8703A84F8A4
:1059200074BA84F8757AC4F878BA84F87CBA16F038
:1059300093FBAE4AAE4908F6543020F009F90AF557
:10594000167308F66830C4F8803A0AF50563C4F89F
:10595000843A84F888BA84F8897AC4F88CBA84F8CE
:1059600090BA16F079FBA14AA14908F6683020F0F8
:10597000EFF80AF5167308F67C30C4F8943A0AF684
:105980008803C4F8983A84F89CBA84F89D7AC4F8DD
:10599000A0BA84F8A4BA16F05FFB944A944908F6BA
:1059A0007C3020F0D5F80AF5087308F53960C4F8A2
:1059B000A83A0AF50C63C4F8AC3A84F8B0BA84F893
:1059C000B17AC4F8B4BA84F8B8BA16F045FB874A7D
:1059D000874908F5396020F0BBF80AF5087308F626
:1059E000A430C4F8BC3A0AF6F803C4F8C03A84F804
:1059F000C4BA84F8C57AC4F8C8BA84F8CCBA16F028
:105A00002BFB7A4A7A4908F6A43020F0A1F80AF56F
:105A1000D87308F6B830C4F8D03A0AF51363C4F85E
:105A2000D43A84F8D8BA84F8D97AC4F8DCBA84F8BD
:105A3000E0BA16F011FB6D4A6D4908F6B83020F057
:105A400087F80AF5D87308F6CC30C4F8E43A0AF6B9
:105A50006813C4F8E83A84F8ECBA84F8ED7AC4F82C
:105A6000F0BA84F8F4BA16F0F7FA604A604908F61A
:105A7000CC3020F06DF80AF5FC6308F53E60C4F800
:105A8000FC3A0AF5AD63C4F8F83A84F8019B84F84F
:105A900000BBC4F804BB84F808BB16F0DDFA534A17
:105AA000534908F53E6020F053F80AF6180308F64B
:105AB000F430C4F8103B0AF5AD63C4F80C3B84F82D
:105AC000159B84F814BBC4F818BB84F81CBB16F0F3
:105AD000C3FA464A464908F6F43020F039F80AF588
