:1000000000000320D1010000D5ED0100D9EC010072
:10001000D9EC0100D9EC0100D9EC0100D9EC0100C8
:10002000D9EC0100D9EC0100D9EC0100D5ED0100BB
:10003000D5ED0100D9EC010075520200FD5002001F
:10004000D5ED0100D5ED0100D5ED0100D5ED0100A4
:10005000D5ED0100D5ED0100D5ED0100D5ED010094
:10006000D5ED0100D5ED0100D5ED0100D5ED010084
:10007000D5ED0100D5ED0100D5ED0100D5ED010074
:10008000D5ED0100D5ED0100D5ED0100D5ED010064
:10009000D5ED0100D5ED0100D5ED0100D5ED010054
:1000A000D5950100C9950100D5ED0100D5ED010000
:1000B000D5ED0100D5ED0100D5ED01002944010089
:1000C000D5ED010049430100D5ED0100A942010031
:1000D000D5ED0100CD410100D5ED0100D5ED0100C8
:1000E000D5ED0100D5ED0100D5ED0100D5ED010004
:1000F000D5ED0100D5ED0100D5ED0100D5ED0100F4
:1001000085F8010071F801005DF8010049F801006F
:10011000D5ED010009450100D5ED0100D5ED010047
:10012000D5ED0100D5ED0100D5ED0100D5ED0100C3
:10013000D5ED0100D5ED0100D5ED0100D5ED0100B3
:10014000AD520200D5ED01002D410100D5ED0100B9
:10015000D5ED0100D5ED0100D5ED0100D5ED010093
:10016000D5ED0100D5ED0100BD950100D5ED0100F3
:10017000D5ED0100D5ED0100D5ED0100D5ED010073
:10018000D5ED0100D5ED0100D5ED0100D5ED010063
:10019000D5ED0100D5ED010081400100D5ED010054
:1001A000D5ED0100D5ED0100D5ED0100D5ED010043
:1001B000D5ED0100D5ED0100D5ED0100D5ED010033
:1001C000D5ED0100D5ED0100D5ED0100D5ED010023
:1001D00008B5624B4CF220521A804DF628121A8054
:1001E00000BF00BF102223F80E2CA3F51F43DE3BF7
:1001F0004FF030621A605A4A9A605A4ADA605A4B93
:100200004FF470021A60594B594A1A60594B1A78C8
:10021000120703D51A7842F008021A70564B574954
:10022000AA221A70564A574B8B4204D252F8040F36
:1002300043F8040BF8E7544B544900228B4202D296
:1002400043F8042BFAE75249524A002352F823009C
:1002500041F823000133742BF8D14F4B4F4A8021D2
:1002600003F8011B9342FBD14D4B494A1A604D4B99
:100270008A221A70A3F5805324225A70A0221A7081
:100280009A799507FCD59A79D406FCD4464A937995
:1002900003F00C03082BFAD1444B60221A7002338E
:1002A0001A78802AFCD1404B00221A7150225A71D0
:1002B0009A799006FCD599793B4A4906FBD53C4B87
:1002C0003C4919600021596020231370937903F091
:1002D0000C030C2BFAD1384B384A1A60384A394C87
:1002E000136813F4807303D123604FF4A853136091
:1002F000354B364A1A60002507225D6043F8042C0E
:10030000334AC3F80C2D62B61EF068FD22682D4BEF
:10031000D2070CD52F4A30491D60156042F8041CE5
:1003200010221A6003F5805308332C4A1A602C4BB4
:100330001B785B060ED52B4A284B1168994209D1D0
:1003400024492548002323600B6041F8040C102148
:100350002160136026F010F807F002F80E20054027
:10036000823F04000100002B88ED00E0002008E03F
:100370000300008502D0074000E00740704EFF1FD9
:10038000600E0400703DFF1F0050FF1F4C36002020
:100390000002FF1F0000000000E400E064E400E051
:1003A00008ED00E0005006400040064001E0074034
:1003B000448004400000070304800440C01007008C
:1003C00010D0034014D0034014E000E0FFE7030026
:1003D0000000202004D003401E87F85EA5C3945A75
:1003E00000F007401CE00340FFFFFFFFFFFFFFFF9F
:1003F000FFFFFFFFFFFFFFFFFFFFFFFFFFFFFFFF0D
:10040000FFFFFFFFFFFFFFFFFFFFFFFFDEF9FFFF23
:1004100010B5054C237833B9044B13B10448AFF33E
:1004200000800123237010BD0050FF1F000000005A
:10043000640E0400084B10B51BB108490848AFF31F
:1004400000800848036803B910BD074B002BFBD0A0
:10045000BDE81040184700BF000000000450FF1F17
:10046000640E0400704EFF1F000000002DE980485C
:10047000484B9BB01B680993099A00E021DF454B6C
:100480001B680893089B9B1AB3F5FA6FF6DBDFF83D
:1004900018B1DFED419A9FED418ADFED418A414B72
:1004A0001B68092B01F25680DFE813F040020405B7
:1004B0008A0013000A00F203EE02A704D001D00163
:1004C00015F01AFE9BF86820002AE8D024F00AFAFA
:1004D000E1E7BBF90C20009200221146BBF90A307B
:1004E00001923148314D324C09F03AFD4FF6E0723D
:1004F000012305203521CBF81C50ABF81420ABF8B4
:1005000012208BF816308BF81730ABF80E00ABF8D2
:100510001010254D14F8011B28461EF04DFE254BEA
:100520009C42F6D10D2128461EF046FE0A2128469F
:100530001EF042FE204C05225A23EA812B821A4DDE
:1005400014F8011B28461EF037FE1C4B9C42F6D1C6
:100550000D2128461EF030FE0A2128461EF02CFEF2
:1005600095F868201AB124F0BDF995F86820094B78
:100570001B680B930B9900E021DF064B1B680A9365
:100580000A9B5B1AB3F57A7FF6DB064900230B6002
:100590009AE700BF580D002017B7D1380000C842B5
:1005A0000000BC42041A002014FDFF1F54D40200B6
:1005B000B0F30200BDF30200C0F30200CDF302006D
:1005C000BBF90C20009200221146BBF90A300192BF
:1005D0009448954D954C09F0C3FC4FF6E072012309
:1005E00005203521CBF81C50ABF80E00ABF81010ED
:1005F000ABF81420ABF812208BF816308BF81730BC
:10060000884D14F8011B28461EF0D6FD884B9C42ED
:10061000F6D10D2128461EF0CFFD0A2128461EF0F6
:10062000CBFD6A89143A12B24FF478433C210A2078
:1006300024F08AF87F4B1A887F4BEB61931E99B2A6
:100640004E204FF6E07300248A422882EC81AB8270
:100650006B827A4841F26D84794B1A68131A794A91
:100660009B1002FB0313784A83FB02455919DA17E2
:10067000C2EB612240F2E73101FB123303EB83034B
:1006800000EB8301043150F823300C930DA81FF0C8
:1006900097FC0C9A002AC1F2588442F0078030235C
:1006A0008DF86530212111AB5D180ED02229C1F1E2
:1006B00021060AD02C4614F8011B5A481EF07CFD76
:1006C000C4F101033344DD42F5D10D2155481EF03C
:1006D00073FD0A2153481EF06FFD0D982CF0DCFDD0
:1006E000544B56481A88931E99B22323ABF80E3008
:1006F0004E23ABF810308A424FF6FF73ABF814303C
:10070000ABF8123041F20B844D4B1A68131A4D4A64
:100710009B1002FB03134C4A83FB02455919DA175D
:10072000C2EB612240F2E73101FB123303EB83039A
:1007300000EB8301043150F823300C930DA81FF017
:100740003FFCDDF83C90B9F1000F00F015874FF049
:1007500000084C46A045C246324E60D2C8EB0404A5
:10076000202C0D9928BF20242246414411A82CF0AA
:100770003DFE1AAB1C4404F824AC4F46202F28BF82
:10078000202711ABB844C7EB09091D461F44BD42E1
:100790003ED0DBF81C0015F8013B002800F0B184C6
:1007A0000A2B00F05D840D2BF1D0047AA342EED326
:1007B000427A9A42EBD342681C1BE4B202EBC404B7
:1007C000A278D2B1E178C1B1717E002940F0F885FC
:1007D000B6F90E200492F07DB6F9102096F816C0F6
:1007E0000499BBF814E00390BBF81200CDF808C0E0
:1007F0008DE801400B4823F001F92179BBF80E3058
:100800009BF81620BD4201FB0233ABF80E30C0D17D
:10081000B9F1000F00F0B0860F9CA0459ED38DF873
:1008200044A0AAE714FDFF1F60D40200A8F3020051
:10083000ADF30200CCFAFF1FBCFD0200B8ACFF1FF5
:10084000C4FAFF1FCDCCCCCC210534830024BBF9E6
:100850000C20BBF90A3000922146224601948248BE
:1008600009F07EFB814BABF80E401D68804CCBF845
:100870001C404FF6E072012335212846ABF81420C6
:10088000ABF812208BF816308BF81730ABF810103D
:1008900029F016FB044630B115F8011B72481EF012
:1008A0008BFC013CF8D1704C0D2120461EF084FCDD
:1008B00020460A211EF080FC6E4B1B68082B01F0BD
:1008C000CC86BBF80A20143A12B24FF478433E218A
:1008D0000A2023F039FF684B1D6805214FF6FF738E
:1008E0005A222846ABF81430ABF81230ABF80E1091
:1008F000ABF8102029F0E4FA044630B115F8011BDA
:1009000059481EF059FC013CF8D1574C0D212046A6
:100910001EF052FC20460A211EF04EFC554B1B686F
:10092000092B01F0408694F86820CDE5534B544ADA
:100930001B680793079B12689B1AB3F52F7F3FF63E
:10094000BFAD0024BBF90C20BBF90A300092214650
:1009500022464548019409F003FB4A4B4448D3F82A
:100960000890ABF80E404FF6E07201233521CBF82A
:100970001C00ABF81010ABF81420ABF812208BF869
:1009800016308BF81730B9F1000F01F06A84A046D9
:10099000A2464C46A045344F62D23A4BC8EB040401
:1009A0001968202C28BF20242246414411A82CF08D
:1009B0001DFD1AAB1C4404F824AC4E46202E28BF63
:1009C000202611ABB044C6EB09091D461E44B542B2
:1009D0003ED0DBF81C0015F8013B002800F05B84DA
:1009E0000A2B00F04E840D2BF1D0027A9342EED305
:1009F000417A9942EBD39A1A4168D2B201EBC20410
:100A0000A278D2B1E178C1B1797E002941F0698242
:100A1000B7F90E200492F87DB7F9102097F816C0A8
:100A20000499BBF814E00390BBF81200CDF808C09D
:100A30008DE801400C4822F0E1FF2179BBF80E302F
:100A40009BF81620B54201FB0233ABF80E30C0D143
:100A5000B9F1000F01F005840A4B9C68A0459CD3B6
:100A60008DF844A0A9E700BF14FDFF1FB044FF1F8D
:100A700054D40200B844FF1FB444FF1F580D002097
:100A80000C1A00209CFDFF1FBBF90C2000920022D5
:100A90001146BBF90A3001927748784D784C09F03D
:100AA0005FFA4FF6E072012305203521CBF81C5088
:100AB000ABF80E00ABF81010ABF81420ABF8122016
:100AC0008BF816308BF817306B4D14F8011B284645
:100AD0001EF072FB6B4B9C42F6D10D2128461EF096
:100AE0006BFB0A2128461EF067FB6A89143A12B292
:100AF0004FF478433C210A2023F026FE624B19680C
:100B0000624BEB6151F8043B0C934E224FF6E073BD
:100B100000242A820DA8EC81AB826B821FF050FA70
:100B20000C9AA242C1F2748241F0888530238DF87C
:100B30006530212111AB5D180ED02229C1F12106AB
:100B40000AD02C4614F8011B4B481EF035FBC4F1AB
:100B500001033344DD42F5D10D2147481EF02CFB43
:100B60000A2145481EF028FB0D982CF095FB464BBA
:100B7000196851F8043B0C9323234E22ABF80E3036
:100B80000DA84FF6FF73ABF81020ABF81430ABF89C
:100B900012301FF015FADDF83C90B9F1000F01F0AA
:100BA00021804FF000084C46A045C246324E60D22C
:100BB000C8EB0404202C0D9928BF20242246414470
:100BC00011A82CF013FC1AAB1C4404F824AC4F46BB
:100BD000202F28BF202711ABB844C7EB09091D46B9
:100BE0001F44AF423ED0DBF81C0015F8013B002843
:100BF00000F0F8820A2B00F02A820D2BF1D0047A43
:100C0000A342EED3427A9A42EBD342681C1BE4B271
:100C100002EBC404A278D2B1E178C1B1717E00299F
:100C200040F08C83B6F90E200492F07DB6F91020C6
:100C300096F816C00499BBF814E00390BBF81200B4
:100C4000CDF808C08DE801400B4822F0D7FE21798D
:100C5000BBF80E309BF81620AF4201FB0233ABF815
:100C60000E30C0D1B9F1000F00F0BC870F9CA04539
:100C70009ED38DF844A0AAE714FDFF1F60D40200A4
:100C8000E0F30200E7F30200C8FAFF1FBCFD020018
:100C90000025BBF90C20BBF90A30009229462A46F0
:100CA0007B48019509F05CF97A4C7B48ABF80E5013
:100CB0004FF6E07201233521CBF81C00ABF814206D
:100CC000ABF812208BF816308BF81730ABF81010F9
:100CD0006F4E14F8011B30461EF06EFA6F4B9C42AB
:100CE000F6D10D2130461EF067FA0A2130461EF07B
:100CF00063FA7289143A12B24FF478433E210A2003
:100D000023F022FD664BD3F8089005214FF6FF73C0
:100D10005A22B3827382F1813282B9F1000F00F05E
:100D200055874FF000084C46A045C24662D25C4B46
:100D3000C8EB04041968202C28BF20242246414413
:100D400011A82CF053FB1AAB1C4404F824AC4F46FA
:100D5000202F28BF202711ABB844C7EB09091D4637
:100D60001F44BD423ED0DBF81C0015F8013B0028B3
:100D700000F092810A2B00F086810D2BF1D0047ACD
:100D8000A342EED3427A9A42EBD342681C1BE4B2F0
:100D900002EBC404A278D2B1E178C1B1717E00291E
:100DA00040F0F882B6F90E200492F07DB6F91020DA
:100DB00096F816C00499BBF814E00390BBF8120033
:100DC000CDF808C08DE80140314822F017FE2179A6
:100DD000BBF80E309BF81620BD4201FB0233ABF886
:100DE0000E30C0D1B9F1000F00F0F0862C4B9C689A
:100DF000A0459CD38DF844A0A9E7BBF90C20009234
:100E000000221146BBF90A3001922148224D254C9F
:100E100009F0A6F84FF6E072012302203521CBF845
:100E20001C50ABF80E00ABF81010ABF81420ABF868
:100E300012208BF816308BF81730154D14F8011B63
:100E400028461EF0B9F9184B9C42F6D10D212846D0
:100E50001EF0B2F90A2128461EF0AEF9134C0A2200
:100E60005A23EA812B820A4D14F8011B28461EF0F2
:100E7000A3F90F4B9C42F6D10D2128461EF09CF998
:100E80000A2128461EF098F995F86820FFF71CBB48
:100E900014FDFF1FD0F3020054D40200DCF3020063
:100EA000DCFDFF1FE8F30200F3F30200F4F302009D
:100EB000FBF302000024BBF90C20BBF90A300092BE
:100EC00021462246C448019409F04AF8C34BABF8C6
:100ED0000E401968C24B51F8042BCBF81C302D255D
:100EE0004FF6E0730DA80C92ABF81050ABF814302D
:100EF000ABF812301FF064F80C9AA242C1F257808E
:100F000041F0C68330238DF86530212111AB5D1887
:100F10000ED02229C1F121060AD02C4614F8011B5B
:100F2000AD481EF049F9C4F101033344DD42F5D167
:100F30000D21A9481EF040F90A21A7481EF03CF9EE
:100F40000D982CF0A9F9A54B196851F8043B0C93A6
:100F500023232D22ABF80E300DA84FF6FF73ABF80C
:100F60001020ABF81430ABF812301FF029F8DDF880
:100F70003C90B9F1000F00F055844FF000084C464A
:100F8000A045C246944E5FD2C8EB0404202C0D99B4
:100F900028BF20242246414411A82CF027FA1AAB7E
:100FA0001C4404F824AC4F46202F28BF202711AB47
:100FB000B844C7EB09091D461F44BD423DD0DBF8CC
:100FC0001C0015F8013B002800F0D1800A2B51D0FD
:100FD0000D2BF2D0047AA342EFD3427A9A42ECD39B
:100FE00042681C1BE4B202EBC404A278D2B1E178DF
:100FF000C1B1717E002940F0B781B6F90E2004928C
:10100000F07DB6F9102096F816C00499BBF814E0EC
:101010000390BBF81200CDF808C08DE801406E487F
:1010200022F0ECFC2179BBF80E309BF81620BD4273
:1010300001FB0233ABF80E30C1D1B9F1000F00F063
:10104000F1830F9CA0459FD38DF844A0ABE7A6F891
:101050000EA0827A338AF17D01FB02333382C0E530
:10106000A6F80EA0827A338AF17D01FB0233338227
:10107000FFF78DBBA6F80EA0827A338AF17D01FBC3
:101080000233338299E7A6F80EA0827A338AF17D83
:1010900001FB0233338264E60A2B00F048810D2BFA
:1010A0003FF45FAE727EB6F90E10002A00F0D480D5
:1010B00096F816E0B6F90A40062212FB0E12A2427A
:1010C00040F3A481328A96F817C0F08102EBCC027B
:1010D00012B201463282BBF81200BBF81440CDF8C0
:1010E0000CC08DE811403C4822F088FC9BF816307B
:1010F000BBF80E2003EB430302EB4303ABF80E30C7
:101100002FE60A2B00F00B810D2B3FF440AB727ED3
:10111000B6F90E10002A00F0988096F816E0B6F99D
:101120000A40062212FB0E12A24240F36081328A6C
:1011300096F817C0F08102EBCC0212B2014632825F
:10114000BBF81200BBF81440CDF80CC08DE811407C
:10115000214822F053FC9BF81630BBF80E2003EB1D
:10116000430302EB4303ABF80E30FFF710BB0A2B2F
:1011700000F0CE800D2B3FF420AF727EB6F90E103A
:10118000002A77D096F816E0B6F90A40062212FB3C
:101190000E12A24240F33081328A96F817C0F081D5
:1011A00002EBCC0212B201463282BBF81200BBF84D
:1011B0001440CDF80CC08DE81140074822F01EFC09
:1011C0009BF81630BBF80E2003EB430302EB4303FE
:1011D000ABF80E30F1E600BF14FDFF1FC8FAFF1F89
:1011E000BCFD02000A2B00F08C800D2B3FF4F9AC03
:1011F000727EB6F90E10B2B396F816E0B6F90A4050
:10120000062212FB0E12A24240F3FB80328A96F8AD
:1012100017C0F08102EBCC0212B201463282BBF859
:101220001200BBF81440CDF80CC08DE81140CB483B
:1012300022F0E4FB9BF81630BBF80E2003EB4303CF
:1012400002EB4303ABF80E30CBE4B6F9102096F86E
:1012500017C096F816E073E7B6F9102096F817C095
:1012600096F816E037E7B6F9102096F817C096F80A
:1012700016E0D4E7B6F9102096F817C096F816E0F5
:1012800093E7A7F80EA0827A3B8AF97D01FB02332F
:101290003B82FFF79CBB0A2B00F01B860D2B3FF413
:1012A00096AB7A7EB7F90E10002A00F0EF8597F81A
:1012B00016E0B7F90A40062212FB0E12A24240F3D2
:1012C00028863A8A97F817C0F88102EBCC0212B24E
:1012D00001463A82BBF81200BBF81440CDF80CC0AE
:1012E0008DE811409D4822F089FB9BF81630BBF831
:1012F0000E2003EB430302EB4303ABF80E30FFF782
:1013000066BB338AF27DF08103EBC203338268E46B
:10131000338AF27DF08103EBC20333824DE6338AD8
:10132000F27DF08103EBC2033382FFF730BA338AD8
:10133000F27DF08103EBC203338212E594F90510CC
:101340000591B6F90E100491059996F816C0B6F9F4
:101350000AE00A4404990CFB021272457ADC9BF8FD
:101360001700BBF9102066E494F905100591B6F951
:101370000E100491059996F816C0B6F90AE00A44D1
:1013800004990CFB0212724555DC9BF81700BBF95F
:1013900010203BE694F905100591B6F90E10049162
:1013A000059996F816C0B6F90AE00A4404990CFBB0
:1013B000021272455EDC9BF81700BBF91020FAE4BC
:1013C00094F905100591B6F90E100491059996F857
:1013D00016C0B6F90AE00A4404990CFB02127245E1
:1013E00019DC9BF81700BBF91020FFF7FAB9B6F922
:1013F000102096F817C0A3E6B6F9102096F817C08B
:10140000D3E6B6F9102096F817C008E7B6F9102011
:1014100096F817C05FE6ABF80EA0827ABBF8101002
:101420009BF8170002FB001212B20021ABF810204B
:101430000491FFF7D6B9ABF80EA0827ABBF8101072
:101440009BF8170002FB001212B20021ABF810202B
:101450000491DBE5ABF80EA0827ABBF810109BF884
:10146000170002FB001212B20021ABF81020049109
:10147000FFF7E1BBABF80EA0827ABBF810109BF827
:10148000170002FB001212B20021ABF810200491E9
:1014900091E4334B93ED009A324B29EE299AF2EE08
:1014A0000EAAF0EE487AE9EE2A7A5E21642093EDE6
:1014B00000AA2D4BFDEEE77AD3ED00BACDED047A0C
:1014C000BDF91040294B224693ED00BA4A231BF088
:1014D000EBFEABEEA99A20464A21F3EE047AB0EE79
:1014E000687AABEE677AF0EE487AE9EE2A7ABDEEDA
:1014F000C77AFDEEE77A8DED057ACDED047ABDF978
:101500001440BDF9105023462A461BF0CDFEDFEDF6
:10151000187AE9EE6A7A2846214640F2FF73FDEE1A
:10152000E77A2AEE29AACDED047ABDF9102023F03E
:101530000BF9DFED107AB2EE0A7AEAEE077A21466D
:101540005E238B20FDEEE77ACDED047ABDF9102005
:101550001BF0AAFE9BF86820FEF7B6BF14FDFF1F24
:10156000E042FF1FEC42FF1FE442FF1FE842FF1F63
:101570000000204200000B430D21A8481DF01CFE76
:101580000A21A6481DF018FE0D982BF085FE1721A4
:101590004FF420428DE80600BBF90A309F485522DF
:1015A000002108F0DDFC9E4B196851F8043B0C93B8
:1015B00062224FF6E07300240DA8ABF81020ABF8C0
:1015C0000E40ABF81430ABF812301EF0F9FC0C9A58
:1015D000A242C0F2808541F0038030238DF865304F
:1015E000212111AB5D180ED02229C1F121060AD0AC
:1015F0002C4614F8011B89481DF0DEFDC4F10103DF
:101600003344DD42F5D10D2184481DF0D5FD0A217A
:1016100082481DF0D1FD0D982BF03EFE804B1968DD
:1016200051F8043B0C9323236222ABF80E300DA833
:101630004FF6FF73ABF81430ABF81230ABF8102054
:101640001EF0BEFC0F9B002B00F0CA804FF000097B
:101650001C46A1459846CA46704E5CD2C9EB0404AC
:10166000202C0D9928BF20242246494411A82BF094
:10167000BDFE1AAB1C4404F824AC4746202F28BFFB
:10168000202711ABB944C7EB08081D461F44BD42D3
:101690003BD0DBF81C0015F8013B002847D00A2B93
:1016A0003CD00D2BF3D0047AA342F0D3427A9A4275
:1016B000EDD342681C1BE4B202EBC404A278CAB1A9
:1016C000E178B9B1717E00296FD1B6F90E2004928C
:1016D000F07DB6F9102096F816C00499BBF814E016
:1016E0000390BBF81200CDF808C08DE801404B48CC
:1016F00022F084F92179BBF80E309BF81620BD4208
:1017000001FB0233ABF80E30C3D1B8F1000F67D044
:101710000F9CA145A2D38DF844A0AEE7A6F80EA079
:10172000827A338AF17D01FB02333382AFE70A2BE1
:1017300034D00D2BABD0727EB6F90E103AB396F8BA
:1017400016E0B6F90A40062212FB0E12A24242DD52
:10175000328A96F817C0F08102EBCC0212B2014631
:101760003282BBF81200BBF81440CDF80CC08DE8F3
:1017700011402A4822F042F99BF81630BBF80E209F
:1017800003EB430302EB4303ABF80E307FE7B6F9FC
:10179000102096F817C096F816E0E2E7338AF27D3B
:1017A000F08103EBC203338271E794F905100591D0
:1017B000B6F90E100491059996F816C0B6F90AE02C
:1017C0000A4404990CFB0212724518DC9BF81700BE
:1017D000BBF9102082E7B6F9102096F817C0C0E7D1
:1017E0000D210E481DF0E8FC0A210C481DF0E4FC18
:1017F0000D982BF051FD9BF86820FEF765BEABF805
:101800000EA0827ABBF810109BF8170002FB0012A2
:1018100012B20021ABF8102004915FE714FDFF1F06
:10182000C8FAFF1F0D21A6481DF0C6FC0A21A448D6
:101830001DF0C2FC0D982BF02FFD17214FF4204214
:101840008DE80600BBF90A309D483822002108F0D7
:1018500087FB9C4B196851F8043B0C9348224FF6C8
:10186000E07300240DA8ABF81020ABF80E40ABF8E5
:101870001430ABF812301EF0A3FB0C9AA242C0F257
:10188000678440F0BD8630238DF86530212111AB8F
:101890005D180ED02229C1F121060AD02C4614F879
:1018A000011B87481DF088FCC4F101033344DD426D
:1018B000F5D10D2182481DF07FFC0A2180481DF0E2
:1018C0007BFC0D982BF0E8FC7E4B1B681A680C9291
:1018D0002322ABF80E204FF6FF72ABF81420ABF8C2
:1018E00012200CAA002448219342ABF810100D944A
:1018F0000E940F948DF8404000F0E680DA68596845
:101900000DA81EF0ABFADDF83C90B9F1000F00F025
:10191000DB80A046A2464C46A045694E5CD2C8EB8F
:101920000404202C0D9928BF20242246414411A8EC
:101930002BF05CFD1AAB1C4404F824AC4F46202F5E
:1019400028BF202711ABB844C7EB09091D461F4427
:10195000BD423BD0DBF81C0015F8013B002847D006
:101960000A2B3CD00D2BF3D0047AA342F0D3427A59
:101970009A42EDD342681C1BE4B202EBC404A27885
:10198000CAB1E178B9B1717E00296FD1B6F90E20E4
:101990000492F07DB6F9102096F816C00499BBF8B1
:1019A00014E00390BBF81200CDF808C08DE80140A8
:1019B000434822F023F82179BBF80E309BF816201B
:1019C000BD4201FB0233ABF80E30C3D1B9F1000FB9
:1019D0007AD00F9CA045A2D38DF844A0AEE7A6F81C
:1019E0000EA0827A338AF17D01FB02333382AFE7A6
:1019F0000A2B34D00D2BABD0727EB6F90E103AB351
:101A000096F816E0B6F90A40062212FB0E12A24220
:101A100042DD328A96F817C0F08102EBCC0212B296
:101A200001463282BBF81200BBF81440CDF80CC05E
:101A30008DE81140224821F0E1FF9BF81630BBF8F9
:101A40000E2003EB430302EB4303ABF80E307FE7BA
:101A5000B6F9102096F817C096F816E0E2E7338A38
:101A6000F27DF08103EBC203338271E794F9051034
:101A70000591B6F90E100491059996F816C0B6F9BD
:101A80000AE00A4404990CFB0212724509DC9BF837
:101A90001700BBF9102082E7B6F9102096F817C09E
:101AA000C0E7ABF80EA0827ABBF810109BF81700C5
:101AB00002FB001212B20021ABF8102004916EE775
:101AC00014FDFF1FC4FAFF1F0D21B5481DF074FB64
:101AD0000A21B3481DF070FB0D982BF0DDFBB14BD4
:101AE000B1481A8862230024ABF81030012A4FF65F
:101AF000E073ABF80E40ABF81430ABF8123040F2A4
:101B00005983AA4BAA4A1B681B1A9B1002FB03F3BA
:101B1000A84A013383FB0267D919DA17C2EB6122A5
:101B200040F2E73101FB123303EB830300EB830147
:101B3000043150F823300C930DA81EF041FA0C9A92
:101B4000A242C0F2568340F0BF8530238DF8653045
:101B500000260DF165052C4614F8011B90481DF078
:101B60002BFBC4F101033344DD42F5D10D218C4838
:101B70001DF022FB0A218A481DF01EFB0D982BF058
:101B80008BFB884B864C1A8887482323ABF80E3092
:101B90006223ABF81030012A4FF6FF73ABF8143014
:101BA000ABF8123000F27A81834B196851F8043B8C
:101BB000119312A81EF004FA12A820F021F812982E
:101BC0002BF06AFB94F86820FEF77EBC0D21744868
:101BD0001DF0F2FA0A2172481DF0EEFA9BF8682017
:101BE000FEF772BC0D216E481DF0E6FA0A216C4822
:101BF0001DF0E2FA0D982BF04FFB17214FF4204215
:101C00008DE80600BBF90A3065485522002108F02E
:101C1000A7F9664B196851F8043B0C9362224FF602
:101C2000E07300240DA8ABF81020ABF80E40ABF821
:101C30001430ABF812301EF0C3F90C9AA242C0F275
:101C4000198240F0EC8430238DF86530212111ABEE
:101C50005D180ED02229C1F121060AD02C4614F8B5
:101C6000011B4F481DF0A8FAC4F101033344DD42C3
:101C7000F5D10D214A481DF09FFA0A2148481DF070
:101C80009BFA0D982BF008FB484B196851F8043B60
:101C90000C9323236222ABF80E300DA84FF6FF738E
:101CA000ABF81020ABF81430ABF812301EF088F906
:101CB000DDF83C90B9F1000F3FF492AD4FF0000811
:101CC0004C46A045C246364E5DD2C8EB0404202CDB
:101CD0000D9928BF20242246414411A82BF086FBF1
:101CE0001AAB1C4404F824AC4F46202F28BF2027F1
:101CF00011ABB844C7EB09091D461F44BD423BD098
:101D0000DBF81C0015F8013B002857D00A2B3DD00A
:101D10000D2BF3D0047AA342F0D3427A9A42EDD34A
:101D200042681C1BE4B202EBC404A278CAB1E17899
:101D3000B9B1717E00297FD1B6F90E200492F07DF1
:101D4000B6F9102096F816C00499BBF814E0039079
:101D5000BBF81200CDF808C08DE80140104821F012
:101D60004DFE2179BBF80E309BF81620BD4201FBD9
:101D70000233ABF80E30C3D1B9F1000F3FF430ADF0
:101D80000F9CA045A1D38DF844A0ADE7A6F80EA006
:101D9000827A338AF17D01FB02333382AEE700BFE2
:101DA00014FDFF1FCCFAFF1FB8ACFF1FC4FAFF1FC2
:101DB000CDCCCCCC21053483C8FAFF1F0A2B34D0FC
:101DC0000D2B9BD0727EB6F90E103AB396F816E042
:101DD000B6F90A40062212FB0E12A24242DD328AF6
:101DE00096F817C0F08102EBCC0212B201463282A3
:101DF000BBF81200BBF81440CDF80CC08DE81140C0
:101E0000BE4821F0FBFD9BF81630BBF80E2003EB1B
:101E1000430302EB4303ABF80E306FE7B6F9102033
:101E200096F817C096F816E0E2E7338AF27DF08163
:101E300003EBC203338261E794F905100591B6F90B
:101E40000E100491059996F816C0B6F90AE00A44F6
:101E500004990CFB0212724509DC9BF81700BBF9D0
:101E6000102072E7B6F9102096F817C0C0E7ABF85B
:101E70000EA0827ABBF810109BF8170002FB00122C
:101E800012B20021ABF8102004915EE7B7F91020E0
:101E900097F817C097F816E0FFF71CBA984B994AC5
:101EA0001B681B1A9B1002FB03F3974A013383FB49
:101EB0000267D919DA17C2EB612240F2E73101FB60
:101EC000123303EB830300EB8301043150F823301A
:101ED0006EE63B8AFA7DF88103EBC2033B82FEF794
:101EE00076BD94F905100591B7F90E100491059986
:101EF00097F816C0B7F90AE00A4404990CFB0212DD
:101F0000724500F366819BF81700BBF91020FEF7BD
:101F100088BDB7F9102097F817C0FFF7DBB97B4BE6
:101F200019680DA851F8043B0C931EF049F8FEF710
:101F300008BC764B19680DA851F8043B0C931EF0B1
:101F40003FF80C9A002ABEF6A8AB6E4B5242A3FB98
:101F50000213DB0803EB8301A2EB410230328DF860
:101F60006520002B00F0D5832D25212400E00C46B0
:101F7000644AA2FB0312D20802EB8200611EA3EBAB
:101F80004003C9B21AA80844303300F8243C134671
:101F9000002AECD1002D3EF486ABA31EDBB219461D
:101FA0001AAA13442D2203F8242CFEF77CBB554BB0
:101FB0005242A3FB0213DB0803EB8301A2EB4102B5
:101FC00030328DF86520002B00F0AC83212400E036
:101FD0000C464C4AA2FB0312D20802EB8200611E9F
:101FE000A3EB4003C9B21AA80844303300F8243CDC
:101FF0001346002AECD1002D3EF488AFA31EDBB2BD
:1020000019461AAA13442D2203F8242CFEF77EBF8A
:102010003C4B5242A3FB0213DB0803EB8301A2EB10
:10202000410230328DF86520002B00F06F832D25A2
:10203000212400E00C46334AA2FB0312D20802EB33
:102040008200611EA3EB4003C9B21AA808443033D2
:1020500000F8243C1346002AECD1002D3EF46AAD72
:10206000A31EDBB219461AAA13442D2203F8242C0E
:10207000FEF760BD234B5242A3FB0213DB0803EBC8
:102080008301A2EB410230328DF86520002B00F075
:102090004F832D25212400E00C461A4AA2FB03128F
:1020A000D20802EB8200611EA3EB4003C9B21AA85A
:1020B0000844303300F8243C1346002AECD1002DAC
:1020C0003FF4C5ADA31EDBB219461AAA13442D2254
:1020D00003F8242CBBE50B4B5242A3FB0213DB0895
:1020E00003EB8301A2EB410230328DF86520002B17
:1020F00000F0FA822D2521240BE000BF14FDFF1F04
:10210000C4FAFF1FCDCCCCCC21053483C8FAFF1F05
:102110000C46BE4AA2FB0312D20802EB8200611EEB
:10212000A3EB4003C9B21AA80844303300F8243C9A
:102130001346002AECD1002D3FF453AAA31EDBB2B4
:1021400019461AAA13442D2203F8242CFFF749BA82
:10215000AE4B5242A3FB0213DB0803EB8301A2EB5D
:10216000410230328DF86520002B00F0D8822D25F9
:10217000212400E00C46A54AA2FB0312D20802EB80
:102180008200611EA3EB4003C9B21AA80844303391
:1021900000F8243C1346002AECD1002D3FF477AB25
:1021A000A31EDBB219461AAA13442D2203F8242CCD
:1021B000FFF76DBB964B196812A851F8043B1193B9
:1021C0001DF0FEFE119821F0FDFD12982BF064F831
:1021D000D7E4ABF80EA0827ABBF810109BF817007A
:1021E00002FB001212B20021ABF810200491FEF79E
:1021F00018BC864B5242A3FB0213DB0803EB83019E
:10220000A2EB410230328DF86520002B00F08D8268
:102210002D25212400E00C467C4AA2FB0312D208A3
:1022200002EB8200611EA3EB4003C9B21AA8084466
:10223000303300F8243C1346002AECD13DB1A31EF4
:10224000DBB219461AAA13442D2203F8242C11AB31
:102250005D183FF48BAC2229C1F121067FF47BACE1
:1022600084E40D216B481CF0A7FF0A2169481CF08B
:10227000A3FFBBF80A20143A12B24FF478433E2170
:102280000A2022F061FA644B9B684FF6FF7201202E
:102290005A21ABF80E00ABF81010ABF81420ABF8D5
:1022A0001220002B00F0E4804FF000081C46A045EF
:1022B0009946C246574F5FD2574BC8EB0404196882
:1022C000202C28BF20242246414411A82BF08EF850
:1022D0001AAB1C4404F824AC4E46202E28BF2026FE
:1022E00011ABB044C6EB09091D461E44B5423BD0B4
:1022F000DBF81C0015F8013B002849D00A2B3ED022
:102300000D2BF3D0027A9342F0D3417A9942EDD368
:102310009A1A4168D2B201EBC204A278CAB1E1783C
:10232000B9B1797E002979D1B7F90E200492F87DF0
:10233000B7F9102097F816C00499BBF814E0039081
:10234000BBF81200CDF808C08DE80140314821F0FB
:1023500055FB2179BBF80E309BF81620B54201FBE6
:102360000233ABF80E30C3D1B9F1000F00F080801A
:10237000294B9C68A0459FD38DF844A0ACE7A7F8F3
:102380000EA0827A3B8AF97D01FB02333B82ADE7E6
:102390000A2B34D00D2BA9D07A7EB7F90E103AB3A0
:1023A00097F816E0B7F90A40062212FB0E12A24275
:1023B0004ADD3A8A97F817C0F88102EBCC0212B2D4
:1023C00001463A82BBF81200BBF81440CDF80CC0AD
:1023D0008DE811400F4821F011FB9BF81630BBF837
:1023E0000E2003EB430302EB4303ABF80E307DE713
:1023F000B7F9102097F817C097F816E0E2E73B8A84
:10240000FA7DF88103EBC2033B826FE7CDCCCCCCE5
:10241000C8FAFF1F14FDFF1FACFDFF1F94F9051044
:102420000591B7F90E100491059997F816C0B7F900
:102430000AE00A4404990CFB0212724509DC9BF87D
:102440001700BBF9102078E7B7F9102097F817C0EC
:10245000B8E7ABF80EA0827ABBF810109BF8170013
:1024600002FB001212B20021ABF81020049164E7C5
:102470000D21B1481CF0A0FE0A21AF481CF09CFEC3
:10248000AE4B1B68013B032B3FF664A801A252F838
:1024900023F000BF13250000D5240000A524000070
:1024A00093140000A64BD3ED001AA64BD3ED000AFF
:1024B000A54B93ED000AA54B61EEA91A93ED001A06
:1024C00060EEA90A20EE290A13F0ACFD9BF8682003
:1024D000FDF7FABF9E4BDFED9F7AD3ED006AB2EEB7
:1024E0000A7AE6EE877A4A235E216E20FDEEE77ACD
:1024F000CDED047ABDF9104022461AF0D5FE8822AF
:1025000020465E234A211AF0CFFE9BF86820FDF793
:10251000DBBF8F4B884C93ED009AB2EE0AAAF2EE25
:102520000E7AE9EE0A7A40F2FF734A216C20FDEE42
:10253000E77A1D46CDED047ABDF9102022F004F9AA
:10254000DFED847A0095E9EE0A7A204614234A22C8
:10255000FDEEE77ACDED047ABDF91060314607F063
:10256000D1FEF3EE007AE9EE4A7A5E2130462B4640
:10257000FDEEE77ACDED047ABDF9102022F0E4F803
:10258000B5EEC09AF1EE10FA4FF04A0200954FF006
:1025900015034CBF6C218A21204607F0B3FE94F846
:1025A0006820FDF791BF8C2550264FF6FF789C27B9
:1025B0000196CDF80880009728463146482394229A
:1025C000E58126821AF0A8FE5421CDF808800097F4
:1025D000284601915C2394221AF09EFEFEF7A3B9CF
:1025E0005D4BA3FB0213DB0803EB8301A2EB41026B
:1025F00030328DF86520002B00F08E8025467AE57C
:10260000554BA3FB0213DB0803EB8301A2EB410252
:1026100030328DF86520002B6FD02546A8E54E4B53
:10262000A3FB0213DB0803EB8301A2EB4102303270
:102630008DF86520002B5DD025462BE5464BA3FB8E
:102640000213DB0803EB8301A2EB410230328DF869
:102650006520002B54D02546EAE48C252A224FF62B
:10266000E0779C2601920297009628461146228226
:102670002223E58194221AF04FFE2E210297009624
:1026800028460191362394221AF046FEFEF719B926
:10269000314BA3FB0213DB0803EB8301A2EB4102E6
:1026A00030328DF8652073B325468FE42A4BA3FBA7
:1026B0000213DB0803EB8301A2EB410230328DF8F9
:1026C0006520A3B1002550E4234BA3FB0213DB08D4
:1026D00003EB8301A2EB410230328DF86520002B21
:1026E0003FF436AA254694E520210B4629E5212111
:1026F000FDF7D9BF2121FFF7AABA2121FFF7C7B8FB
:102700002121FEF717BA2121FEF700BC20210B463C
:10271000A9E420210B4643E42121FEF762BF2021DA
:102720000B4640E520210B466BE420210B4689E552
:1027300020210B46C9E400BF14FDFF1F081A00202A
:10274000DC42FF1FD442FF1FD042FF1FD842FF1FB1
:102750001C50FF1F0000F642CDCCCCCCFFFFFFFF8A
:102760002DE9F04F2DED048BDFF8F0A3D14AD249CB
:10277000DFF8EC939FEDD19ADFEDD18A85B000248C
:10278000802350460A264FF420578AF80430CAF8AE
:10279000004023F0C5FD4FF48063214620220AF15A
:1027A0002000CAF80830CAF81440CAF81840CAF81D
:1027B0001C40CAF80C70CAF8106023F01FFEC0203D
:1027C0002AF062FD2146C022054623F017FEBD4BCC
:1027D000C5F8B440D96ABC4ACAF85C1005F10C03CC
:1027E000CAF844300123C5F8B430CAF84830CAF8F2
:1027F0005830B44BB548DB6BC5F8BC60914208BF9C
:10280000CAF85C40934208BF00232F606860CAF892
:102810002050CAF84050AB4DCAF84C40A948CAF8FD
:102820006030AB4CAB4BEC63AB49CAF8643000246E
:10283000AA4BCAF894300225C162CAF850609D4A7A
:10284000A749CAF86C500326A6488AF86A408AF855
:102850008C408AF898408AF89A40CAF8546023F06D
:102860005FFD944A9E49A04823F05AFD914A9C4935
:102870009E4823F055FD8F4A99499D4823F050FD0D
:102880008C4A97499B4823F04BFD8A4A94499A48C1
:1028900023F046FD874A9249984823F041FD854A36
:1028A0008F49974823F03CFD824A8D49954823F093
:1028B00037FD804A8A49944823F032FD7D4A884991
:1028C000924823F02DFD7B4A8549914823F028FD4D
:1028D000784A83498F4823F023FD764A80498E4801
:1028E00023F01EFD734A7E498C4823F019FD714A7E
:1028F0007B498B4823F014FD6E4A7949894823F0BF
:102900000FFD6C4A7649884823F00AFD224621468D
:10291000864808F0F7F8714B85488AF8644103F15E
:10292000180722462146CAF84C71CAF8684108F0D7
:10293000E9F8BAF9A4217F4B7F48CAF8984107F11A
:102940000C0C02F1010E134440F6CC4622462146FF
:10295000CAF874C1AAF8A4E1CAF88C31CAF8906127
:10296000CAF894618AF89C4108F0CCF8734ABAF826
:10297000C831CAF8C041013307F11806A2F1280096
:10298000042106F10C08AAF8C831CAF8C431CAF803
:10299000A8614FF4803608F0B5F86948CAF8E461D8
:1029A000CAF8E861CAF8EC61CAF8F061CAF8CC81EB
:1029B00021F0DAFD22462146624808F0A3F82246BB
:1029C00021466148CAF83C728AF85442CAF8584213
:1029D00008F098F85D4ACAF86472A2F11800012163
:1029E0008AF87C42CAF8804208F08CF807F130037C
:1029F000CAF88C324FF03A03AAF8B6324FF00E0301
:102A0000AAF8B8324FF0C103514AAAF8BA324FF0CF
:102A100000534FF01C0BCAF8BC3240F27763A2F1AE
:102A200018000121AAF8C032AAF8C2B2AAF8B4422A
:102A30008AF8A84208F066F807F13003CAF8C432F1
:102A40004FF03A03AAF8EE324FF00E03AAF8F03234
:102A50004FF0C1033F4AAAF8F2324FF00053CAF8D0
:102A6000F43240F27763A2F118000121AAF8F8329B
:102A7000AAF8FAB2AAF8EC428AF8E04208F042F862
:102A800007F13003CAF8FC324FF03A03AAF82633B4
:102A90004FF00E03AAF828334FF0C1032E4AAAF8CC
:102AA0002A334FF00053CAF82C3340F27763A2F177
:102AB000180057E04C3EFF1F51350200390F8C3B88
:102AC00008132F3D0002FF1FD5ED010000D80220A2
:102AD000852C0200032000383D2C020004F4020083
:102AE000C18A0100DC50FF1FE450FF1FEC50FF1FA4
:102AF000F450FF1FFC50FF1F0451FF1F0C51FF1F1C
:102B00001451FF1F1C51FF1F2451FF1F2C51FF1F89
:102B10003451FF1F3C51FF1F4451FF1F4C51FF1FF9
:102B20005451FF1F5C51FF1F6451FF1F6C51FF1F69
:102B30009451FF1FF541ED5EC851FF1F1452FF1F56
:102B40002452FF1F5C52FF1F8452FF1FC452FF1FFD
:102B5000FC52FF1F3453FF1F6C53FF1F2050FF1FF9
:102B60001072FF1F0121AAF83033AAF832B3AAF875
:102B700024438AF8184307F0C5FF07F13003CAF869
:102B800034334FF03A03AAF85E334FF00E03AAF83D
:102B900060334FF0C103ED4AAAF862334FF000539F
:102BA000CAF8643340F27763A2F118000121AAF851
:102BB0006833AAF86AB3AAF85C438AF8504307F06E
:102BC000A1FF07F13003CAF86C334FF03A03AAF8BB
:102BD00096334FF00E03AAF898334FF0C103DC4A46
:102BE000AAF89A334FF00053CAF89C3340F2776347
:102BF000A2F118000121AAF8A033AAF8A2B3AAF8FA
:102C000094438AF8884307F07DFF07F13003CAF840
:102C1000A4334FF03A03AAF8CE334FF00E03AAF8CC
:102C2000D0334FF0C103CB4AAAF8D2334FF0005350
:102C3000CAF8D43340F27763AAF8D833A2F1280057
:102C40000421AAF8DAB3AAF8CC438AF8C04307F003
:102C500059FFC14ACAF8F463A2F128000421CAF856
:102C6000F863CAF8FC63CAF80064CAF8DC8307F0AA
:102C700049FFBA4ACAF82C64A2F128000421CAF814
:102C80003064CAF83464CAF83864CAF8148407F0A7
:102C900039FFB34ACAF86464A2F128000421CAF8D3
:102CA0006864CAF86C64CAF87064CAF84C8407F0A7
:102CB00029FFAC4ACAF89C64A2F128000421CAF892
:102CC000A064CAF8A464CAF8A864CAF8848407F0A7
:102CD00019FFA54ACAF8D464A2F128000421CAF851
:102CE000D864CAF8DC64CAF8E064CAF8BC8407F0A7
:102CF00009FF9E4ACAF80C65A2F128000421CAF80F
:102D00001065CAF81465CAF81865CAF8F48407F0A3
:102D1000F9FE974ACAF84465A2F128000421CAF8CE
:102D20004865CAF84C65CAF85065CAF82C8507F0A2
:102D3000E9FE904ACAF87C65A2F128000421CAF88D
:102D40008065CAF88465CAF88865CAF8648507F0A2
:102D5000D9FE894ACAF8B465A2F128000421CAF84C
:102D6000B865CAF8BC65CAF8C065CAF89C8507F0A2
:102D7000C9FE824ACAF8EC65A2F128000421CAF80B
:102D8000F065CAF8F465CAF8F865CAF8D48507F0A2
:102D9000B9FE7B4ACAF82466A2F128000421CAF8C9
:102DA0002866CAF82C66CAF83066CAF80C8607F09E
:102DB000A9FE7448CAF85C66CAF86066CAF8646618
:102DC000CAF86866CAF8448621F0CEFB224621463E
:102DD0006D4807F097FE224621466C48CAF8B47643
:102DE0008AF8CC46CAF8D04607F08CFE2246214627
:102DF0006748CAF8DC768AF8F446CAF8F84607F05D
:102E000081FE224621466348CAF804778AF81C47A7
:102E1000CAF8204707F076FE224621465E48CAF8E7
:102E20002C778AF84447CAF8484707F06BFE2246D9
:102E300021465A48CAF854778AF86C47CAF870474E
:102E400007F060FE224621465548CAF87C778AF88A
:102E50009447CAF8984707F055FE5248CAF8A47735
:102E60008AF8BC47CAF8C04721F07EFB22462146BB
:102E70004D4807F047FE224621464C48CAF80478E0
:102E80008AF81C48CAF8204807F03CFE2246214632
:102E90004748CAF82C788AF84448CAF8484807F0E6
:102EA00031FE224621464348CAF854788AF86C48D5
:102EB000CAF8704807F026FE224621463E48CAF866
:102EC0007C788AF89448CAF8984807F01BFE224696
:102ED00021463A48CAF8A4788AF8BC48CAF8C048DB
:102EE00007F010FE364ACAF8CC78A2F12800042177
:102EF0008AF8E448CAF8E84807F004FE314ACAF8FC
:102F00000C69A2F128000421CAF81069CAF81469F2
:102F1000CAF81869CAF8F48807F0F4FD2A4ACAF812
:102F20004469A2F128000421CAF84869CAF84C692A
:102F3000CAF85069CAF82C8907F0E4FD234ACAF898
:102F40007C69A2F12800042142E000BFA453FF1FC6
:102F5000DC53FF1F2454FF1F5C54FF1F9454FF1FBA
:102F6000CC54FF1F0455FF1F3C55FF1F7455FF1F16
:102F7000AC55FF1FE455FF1F1C56FF1F5456FF1F83
:102F80008C56FF1F9C56FF1FD456FF1FFC56FF1F79
:102F90002457FF1F4C57FF1F7457FF1F9C57FF1FDD
:102FA000C457FF1FEC57FF1F2458FF1F4C58FF1F2B
:102FB0007458FF1F9C58FF1FC458FF1FEC58FF1F79
:102FC0003C59FF1F7459FF1FAC59FF1FE459FF1FE5
:102FD000CAF88069CAF88469CAF88869CAF8648935
:102FE00007F090FDF24ACAF8B469A2F12800042162
:102FF000CAF8B869CAF8BC69CAF8C069CAF89C8935
:1030000007F080FDEB4ACAF8EC69A2F12800042120
:10301000CAF8F069CAF8F469CAF8F869CAF8D48934
:1030200007F070FDE44ACAF8246AA2F128000421DE
:10303000CAF8286ACAF82C6ACAF8306ACAF80C8A30
:1030400007F060FDDD4ACAF85C6AA2F1280004219D
:10305000CAF8606ACAF8646ACAF8686ACAF8448A30
:1030600007F050FDD64ACAF8946AA2F1280004215C
:10307000CAF8986ACAF89C6ACAF8A06ACAF87C8A30
:1030800007F040FDCF4ACAF8CC6AA2F1280004211B
:10309000CAF8D06ACAF8D46ACAF8D86ACAF8B48A30
:1030A00007F030FDC84ACAF8046BA2F128000421D9
:1030B000CAF8086BCAF80C6BCAF8106BCAF8EC8A2D
:1030C00007F020FDC14ACAF83C6BA2F12800042198
:1030D000CAF8406BCAF8446BCAF8486BCAF8248B2C
:1030E00007F010FDBA4ACAF8746BA2F12800042157
:1030F000CAF8786BCAF87C6BCAF8806BCAF85C8B2C
:1031000007F000FDB348CAF8AC6BCAF8B06BCAF858
:10311000B46BCAF8B86BCAF8948B21F03FFAAE488A
:1031200021F03CFAAD4821F039FAAD4821F036FAE9
:10313000AC4821F033FAAC4821F030FAAB4821F02A
:103140002DFAAB4821F02AFAAA4821F027FAAA481A
:1031500021F024FA09F1340021F020FA09F51C705D
:1031600021F01CFA294609F5996209F2AC4007F0F2
:10317000C9FC3C37294609F2EC4209F59A60C9F8C6
:10318000AC74A9F8C44407F0BDFC294609F5A26255
:1031900009F2F440C9F8D074A9F8E84407F0B2FC89
:1031A000294609F2345209F5A360C9F8F474A9F864
:1031B0000C4507F0A7FC294609F5AB6209F23C5023
:1031C000C9F81875A9F8304507F09CFC294609F2A2
:1031D0007C5209F5AC60C9F83C75A9F8544507F074
:1031E00091FC09F2AC52042109F28450C9F86075CF
:1031F000A9F8784507F086FC09F2E452042109F2A7
:10320000BC50C9F89C65C9F8A065C9F8A465C9F89F
:10321000A865C9F8848507F075FC09F21C620421D1
:1032200009F2F450C9F8D465C9F8D865C9F8DC6565
:10323000C9F8E065C9F8BC8507F064FC09F254627E
:10324000042109F22C60C9F80C66C9F81066C9F8A7
:103250001466C9F81866C9F8F48507F053FC09F23A
:103260008C62042109F26460C9F84466C9F84866B2
:10327000C9F84C66C9F85066C9F82C8607F042FCBC
:1032800009F2C462042109F29C60C9F87C66C9F89D
:103290008066C9F88466C9F88866C9F8648607F04C
:1032A00031FC09F2FC62042109F2D460C9F8B46669
:1032B000C9F8B866C9F8BC66C9F8C066C9F89C8682
:1032C00007F020FC09F23472042109F20C70C9F8ED
:1032D000EC66C9F8F066C9F8F466C9F8F866C9F88A
:1032E000D48607F00FFC09F26C72042109F24470D5
:1032F000C9F82467C9F82867C9F82C67C9F8306786
:10330000C9F80C8707F0FEFB09F2A472042109F248
:103310007C70C9F85C67C9F86067C9F86467C9F868
:103320006867C9F8448707F0EDFB09F2DC720421F5
:1033300009F2B470C9F89467C9F89867C9F89C672E
:10334000C9F8A067C9F87C8707F0DCFB09F614020E
:10335000042109F2EC70C9F8CC67C9F8D067C9F844
:10336000D467C9F8D867C9F8B48707F0CBFB2946FA
:1033700009F6580209F62400C9F80468C9F8086873
:10338000C9F80C68C9F81068C9F8EC8707F0BAFBEF
:1033900008F12403C9F82438184BC9F83C38A3F5C0
:1033A0007C53183B4FF48057C9F8403828E000BFE1
:1033B0001C5AFF1F545AFF1F8C5AFF1FC45AFF1F6D
:1033C000FC5AFF1F345BFF1F6C5BFF1FA45BFF1FDA
:1033D000DC5BFF1FEC5BFF1F285EFF1F6460FF1FAD
:1033E000A062FF1FDC64FF1F1867FF1F5469FF1FE7
:1033F000906BFF1FCC6DFF1F0870FF1F00B28E0483
:10340000F74BC9F84478294609F69402C9F84838B8
:1034100009F50660C9F84C48C9F85048C9F854483D
:1034200007F070FB08F12403C9F86038ED4BC9F8C8
:103430007838A3F57C53183BC9F87C38E84BC9F8B9
:103440008078294609F50D62C9F8843809F69C0090
:10345000C9F88848C9F88C48C9F8904807F052FB69
:1034600008F12403C9F89C38DE4BC9F8B438A3F539
:103470007C53183BC9F8B838D94BC9F8BC782946F1
:1034800009F60C12C9F8C03809F6D800C9F8C448C2
:10349000C9F8C848C9F8CC4807F034FB08F1240340
:1034A000C9F8D838CF4BC9F8F038A3F57C53183B8E
:1034B000C9F8F438CA4BC9F8F878294609F6481211
:1034C000C9F8FC3809F61410C9F80049C9F80449CC
:1034D000C9F8084907F016FB08F12403C9F81439A4
:1034E000C04BC9F82C39A3F57C53183BC9F83039C7
:1034F000BB4BC9F83479294609F68412C9F8383922
:1035000009F51560C9F83C49C9F84049C9F844496A
:1035100007F0F8FA08F12403C9F85039B14BC9F89B
:103520006839A3F57C53183BC9F86C39AC4BC9F822
:10353000743909F6B4120421C9F8707909F68C10AF
:10354000C9F87849C9F87C49C9F8804907F0DAFA1E
:1035500009F6EC12042109F6C410C9F8A469C9F8E7
:10356000A869C9F8AC69C9F8B069C9F88C8907F0CD
:10357000C9FA09F62422042109F6FC10C9F8DC690D
:10358000C9F8E069C9F8E469C9F8E869C9F8C48903
:1035900007F0B8FA09F65C22042109F63420C9F8CC
:1035A000146AC9F8186AC9F81C6AC9F8206AC9F807
:1035B000FC8907F0A7FA09F69422042109F66C2089
:1035C000C9F84C6AC9F8506AC9F8546AC9F8586A07
:1035D000C9F8348A07F096FA09F6CC22042109F6D4
:1035E000A420C9F8846AC9F8886AC9F88C6AC9F83D
:1035F000906AC9F86C8A07F085FA09F6F42201216D
:1036000009F6DC20C9F8BC6AC9F8C06AC9F8C46AFE
:10361000C9F8C86AC9F8A48A07F074FA40F2776357
:10362000A9F8103B4FF00053C9F80C3B4FF0C10311
:10363000A9F80A3B4FF00E03A9F8083B4FF03A03F4
:1036400009F62C320121A9F812BBA9F8063B09F6AC
:10365000143008F10C03A9F8044BC9F8DC3A89F8D6
:10366000F84A07F04FFA08F10C03C9F8143B4FF081
:103670003A03A9F83E3B4FF00E03A9F8403B4FF048
:10368000C103A9F8423B4FF00053C9F8443B40F254
:10369000776309F664320121A9F8483BA9F84ABBCF
:1036A00009F64C30A9F83C4B89F8304B07F02AFA60
:1036B00008F10C03C9F84C3B4FF03A03A9F8763BEC
:1036C0004FF00E03A9F8783B4FF0C103A9F87A3BFD
:1036D0004FF00053C9F87C3B40F2776309F69C3207
:1036E0000121A9F8803BA9F882BB09F68430A9F82A
:1036F000744B89F8684B07F005FA08F10C03C9F818
:10370000843B4FF03A03A9F8AE3B4FF00E03A9F803
:10371000B03B4FF0C103A9F8B23B4FF00053C9F8DA
:10372000B43B40F2776309F6D4320121A9F8B83BE3
:10373000A9F8BABB09F6BC30A9F8AC4B89F8A04B84
:1037400007F0E0F908F10C03C9F8BC3B4FF03A036D
:10375000A9F8E63B4FF00E03A9F8E83B4FF0C10390
:10376000A9F8EA3B4FF00053C9F8EC3B40F277630D
:1037700009F60C420121A9F8F03BA9F8F2BB09F6C1
:10378000F430A9F8E44B89F8D84B07F0BBF908F1FD
:103790000C03C9F8F43B4FF03A03A9F81E3C4FF074
:1037A0000E03A9F8203C4FF0C103A9F8223C4FF0CA
:1037B0000053C9F8243C40F27763A9F8283C09F685
:1037C00054420421A9F82ABC09F62C40A9F81C4C43
:1037D00089F8104C07F096F909F68C42042103E0B1
:1037E00080F9855A00B28E0409F66440C9F8446C29
:1037F000C9F8486CC9F84C6CC9F8506CC9F82C8CE5
:1038000007F080F909F6C442042109F69C40C9F882
:103810007C6CC9F8806CC9F8846CC9F8886CC9F8EC
:10382000648C07F06FF9294609F6085209F6D4406E
:10383000C9F8B46CC9F8B86CC9F8BC6CC9F8C06CEC
:10384000C9F89C8C07F05EF908F12403C9F8D43C50
:103850006F4BC9F8EC3CA3F57C53183BC9F8F03C1E
:103860006C4BC9F8F47C09F628520121C9F8F83CE0
:1038700009F5516042F2CC05C9F8FC4CC9F8004D7D
:10388000C9F8044D07F03EF99FED5F7B08F1300366
:10389000C826C9F8103D49F8056021464FF400627A
:1038A00009F62C508DED007B22F0A8FD214640F654
:1038B0007C32594822F0A2FD42F2AC0742F2AA0C37
:1038C00042F2AE054FF4007329F80C3029F80730A6
:1038D00029F8053042F2A80342F2B40629F8034061
:1038E00042F2B60342F2B00B29F8034042F2B803A9
:1038F00009F5035529F8034042F2BA0342F2B20E29
:1039000029F8034042F2BC0342F2C40029F8034004
:1039100042F2BE0342F2C60129F8034042F2C80255
:1039200042F2C2034FF4F5774FF0F50C29F8067018
:1039300029F80B402C8029F80EC029F8034029F8FB
:10394000004029F8014029F8024000260027A5F68A
:10395000963540F2BE5B28E03046394622F0ACF89E
:1039600027F05AFC0134A3B25B4525F8020F1CB2C4
:103970005AD007EE904AB8EEE78A68EE097A17EE59
:10398000900A22F0F7F941EC100B27F06DFC68EE7D
:10399000287A57EC106B17EE900A22F0EBF941EC05
:1039A000100B27F061FC8DED000B304639460022EC
:1039B0001A4B22F083FA0022194B22F07FFA0022E0
:1039C00006460F46154BDDE9000122F077FA00228A
:1039D000144B22F09DFB02460B463046394622F03E
:1039E0006BF80022002306460F4627F0EBFB00226F
:1039F0000B4B0028B0D10022094B3046394622F04B
:103A000059F827F009FCADE70000000000000000B5
:103A100000B28E0480F9855A3C87FF1F00805B400E
:103A20000000E03F00000840C74EC84C42F2CA0305
:103A300006F5805229F803B006F6D870042107F085
:103A400061F84FF48035A4F1C0020421A4F1E8002C
:103A5000C6F8F05FC6F8F45FC6F8F85FC6F8FC5F1A
:103A6000C6F8D88F07F04EF8B94E44F8D05CA4F1F0
:103A700098020221A4F1B00044F8CC5C44F8C85C80
:103A800044F8C45C44F8E88C002507F03BF8A4F146
:103A900070020221A4F1880044F8B06C44F8905CF4
:103AA00044F88C5C0C3607F02DF80121A94844F845
:103AB000886C21F08BFEA84BA8491A6844F8685C12
:103AC00042F400421A600A6844F8645C42F0020260
:103AD0000A601A68A24842F002021A600368AB4208
:103AE00040DBA04B1B68AB423CDB9F4A4FF082435C
:103AF00013601368002BFCDB9C4D9D48DFF8E4E26B
:103B00009C499D4B9D4A9E4E9E4F4BF2100CC5F812
:103B100000C0002505600120CEF80000DFF8C8E2F3
:103B2000C1F800E04FF480311960974B1360974A59
:103B300032603D60964D3067DFF8B0E200F18E40B4
:103B4000286005F5DF35CEF8001005F5C075914801
:103B5000914947F8503C4FF4C063C6F880202B6071
:103B600003600B608D4ADAF8E4308D498D484FF4DC
:103B7000C0651560022219609A809AF8E8101861F1
:103B800001F1804101F5043140F20110A5F5006515
:103B9000D880DD609A604FF4807000228D25062663
:103BA000D8829A82D8839A619E837F480A700D706A
:103BB0009AF8E8506A4B14F8601C05704FF0807555
:103BC0007A481D601860614B39B9794879490122FA
:103BD000D025057003F8602C0A609AF8E81004F804
:103BE0005F2C4B119B0003F160430126DFF800A21C
:103BF000714DDFF8009201F1100003F5614301F00F
:103C00001F026E4906FA02F24FF0000B41F82050F5
:103C10001A606B4844F85CAC0AF5167344F8583CDB
:103C200004F854BC04F853BC44F850BC04F84CBC31
:103C300013F0F0FF634A6449614822F071FB0AF512
:103C40000873624844F8443C44F848AC04F840BC6B
:103C500004F83FBC44F83CBC04F838BC13F0DAFF6D
:103C6000584A5949594822F05BFB0AF5D87358481D
:103C700044F8303C44F834AC04F82CBC04F82BBCB9
:103C800044F828BC04F824BC13F0C4FF4D4A4E4944
:103C90004F4822F045FB0AF5F4734E4844F81C3CAB
:103CA00044F820AC04F818BC04F817BC44F814BC61
:103CB00004F810BC13F0AEFF424A4349454822F0D5
:103CC0002FFB0AF1B803444844F80C3C0AF524736E
:103CD00044F8083C04F804BC04F803BCC4F800B081
:103CE00084F804B013F096FF364A37493A4822F078
:103CF00017FB0AF1B8033948A3600AF53273E36091
:103D000084F810B084F811B0C4F814B084F818B076
:103D100013F080FF2B4A2C49304822F001FB0AF1B6
:103D2000B8032F48E3610AF55C73236284F824B07A
:103D300084F825B0C4F828B084F82CB013F06AFFDA
:103D4000204A214958E000BF0883FF1F0094FF1F4D
:103D50007CF402000451FF1F3C800440408004407A
:103D600000F0024080F0024000F1024004F1024005
:103D700060F0024008F002400CF0024010F00240F7
:103D800014F00240E0F002401B1F0100001F1F1F43
:103D900088F002400CB0044018B0044004B0044065
:103DA000E003FF1F22F002401B8000400100009052
:103DB00040E400E008E100E0418801000002FF1F4C
:103DC000A493FF1F4C3EFF1FD9960000B893FF1F1E
:103DD000CC93FF1FE093FF1FF493FF1F0894FF1F76
:103DE0001C94FF1F04F00240010000078CF0024009
:103DF0006C51FF1F707AFF1FD44822F091FA0AF12C
:103E0000B803D34823630AF56A73636384F838B050
:103E100084F839B0C4F83CB084F840B013F0FAFE2E
:103E2000CC4ACD49CA4822F07BFA0AF1B803CB4804
:103E300063640AF57873A36484F84CB084F84DB0D9
:103E4000C4F850B084F854B013F0E4FEC14AC2493B
:103E5000C24822F065FA0AF1B803C148A3650AF521
:103E600083630AF54E75E36584F860B084F861B049
:103E7000C4F864B084F868B013F0CCFEB54AB64913
:103E8000B74822F04DFAA5F52073B648E3662567DA
:103E900084F874B084F875B0C4F878B084F87CB055
:103EA00013F0B8FEAB4AAC49AE4822F039FAA5F59A
:103EB0002073AD48C4F88030A5F13803C4F88430CD
:103EC00084F888B084F889B0C4F88CB084F890B0D5
:103ED00013F0A0FE9F4AA049A34822F021FAA5F1C1
:103EE000A803A248C4F89830A5F51273C4F894301A
:103EF00084F89CB084F89D60C4F8A0B084F8A4B0A5
:103F000013F088FE934A9449984822F009FAA5F5DF
:103F100012739748C4F8A83005F13803C4F8AC30E0
:103F200084F8B0B084F8B160C4F8B4B084F8B8B024
:103F300013F070FE874A88498D4822F0F1F9A5F503
:103F400012738C48C4F8BC3005F1A803C4F8C03023
:103F500084F8C4B084F8C560C4F8C8B084F8CCB0A4
:103F600013F058FE7B4A7C49824822F0D9F9A5F526
:103F700012738148C4F8D030C4F8D45084F8D8B053
:103F800084F8D960C4F8DCB084F8E0B013F042FEE5
:103F9000704A7149784822F0C3F9A5F17003774857
:103FA000C4F8E830A5F50873C4F8E43084F8ECB040
:103FB00084F8ED60C4F8F0B084F8F4B013F02AFE91
:103FC000644A65496D4822F0ABF9A5F508736C4861
:103FD000C4F8F83005F17003C4F8FC3084F800B17F
:103FE00084F80161C4F804B184F808B113F012FE3A
:103FF000584A5949624822F093F9A5F50873614877
:10400000C4F80C3105F1E003C4F8103184F814B1A0
:1040100084F81561C4F818B184F81CB113F0FAFDE6
:104020004C4A4D49574822F07BF9A5F5087356488C
:10403000C4F82031A5F13803C4F8243184F828B13C
:1040400084F82961C4F82CB184F830B113F0E2FD92
:104050004149404A4C4822F063F90AF5F5630AF5F4
:10406000A6624A48C4F83831C4F8342184F83CB117
:1040700084F83D61C4F840B184F844B113F0CAFD3E
:104080003549344A414822F04BF905F58E630AF56B
:10409000CB623F48C4F84C31C4F8482184F850B191
:1040A00084F851B1C4F854B184F858B113F0B2FD9A
:1040B000284A2949364822F033F905F55273354824
:1040C000C4F85C31A9F5C673C4F8603184F864B1F2
:1040D00084F86561C4F868B184F86CB113F09AFD96
:1040E0001C4A1D492B4822F01BF905F552732A483A
:1040F000C4F87031A9F5AA73C4F8743184F878B1A2
:1041000084F87961C4F87CB184F880B113F082FD41
:10411000104A1149204822F003F905F552731F484F
:10412000C4F88431A9F58E73C4F8883184F88CB151
:1041300084F88D61C4F890B184F894B113F06AFDED
:10414000044A0549154822F0EBF829E01C94FF1FAA
:104150003094FF1F4C3EFF1FD99600004494FF1F70
:104160005894FF1F6C94FF1F8094FF1F9494FF1FAF
:10417000A894FF1FBC94FF1FD094FF1FE494FF1F5F
:10418000F894FF1F0C95FF1F2095FF1F3495FF1F0C
:104190004895FF1F5C95FF1F7095FF1F8495FF1FBB
:1041A00005F55273D848C4F89831A9F1E403C4F86E
:1041B0009C3184F8A0B184F8A161C4F8A4B184F85A
:1041C000A8B113F027FDD149D14ACF484FF00208DA
:1041D00022F0A6F8A9F5C6730AF5D762CD48C4F84F
:1041E000B031C4F8AC2184F8B58184F8B4B1C4F816
:1041F000B8B184F8BCB113F00DFDC449C44AC54838
:1042000022F08EF8A9F5AA730AF5DC62C248C4F858
:10421000C43184F8C981C4F8C02184F8C8B1C4F895
:10422000CCB184F8D0B113F0F5FCB849B84ABA481B
:1042300022F076F8A9F58E730AF5E162B748C4F862
:10424000D83184F8DD81C4F8D42184F8DCB1C4F815
:10425000E0B184F8E4B113F0DDFCAC49AC4AAF48FE
:1042600022F05EF8A9F1E4030AF5E662AC48C4F86E
:10427000EC3184F8F181C4F8E82184F8F0B1C4F895
:10428000F4B184F8F8B113F0C5FCA14A9F49A448E1
:1042900022F046F8A9F53773A248C4F80032A5F514
:1042A0002E73C4F8FC3184F8058284F804B2C4F893
:1042B00008B284F80CB213F0ADFC954A93499948C2
:1042C00022F02EF8A5F52E739748C4F81032A9F500
:1042D0002973C4F8143284F8198284F818B2C4F827
:1042E0001CB284F820B213F095FC894A87498E48A5
:1042F00022F016F8A5F52E738C48C4F82432A9F5DF
:104300001B73C4F8283284F82D8284F82CB2C4F8C8
:1043100030B284F834B213F07DFC7D4A7B49834887
:1043200021F0FEFFA5F52E738148C4F83832A9F5B7
:104330000D73C4F83C3284F8418284F840B2C4F86A
:1043400044B284F848B213F065FC714A6F4978486A
:1043500021F0E6FFA5F1A8037648C4F84C3205F633
:104360008413C4F8503284F854B284F85562C4F807
:1043700058B284F85CB213F04DFC654A63496D484D
:1043800021F0CEFFA5F170036B48C4F8603205F54B
:10439000E963C4F8643284F868B284F86962C4F8E6
:1043A0006CB284F870B213F035FC594A5749624830
:1043B00021F0B6FF05F1E0036048C4F87432604BA9
:1043C000C4F8783284F87CB284F87D62C4F880B294
:1043D00084F884B213F01EFC4D4A4C49574821F032
:1043E0009FFF05F58E635748C4F8883205F595633D
:1043F000C4F88C3284F890B284F891B2C4F894B2C4
:1044000084F898B213F006FC414A40494D4821F027
:1044100087FF05F58E634C48C4F89C3205F59C6314
:10442000C4F8A03284F8A4B284F8A5B2C4F8A8B243
:1044300084F8ACB213F0EEFB354A3449424821F01F
:104440006FFF05F58E634148C4F8B03205F5A363EC
:10445000C4F8B43284F8B8B284F8B9B2C4F8BCB2C3
:1044600084F8C0B213F0D6FB294A2849374821F016
:1044700057FF05F58E633648C4F8C43205F5AA63C4
:10448000C4F8C83284F8CCB284F8CDB2C4F8D0B243
:1044900084F8D4B213F0BEFB1D4A1C492C4821F00D
:1044A0003FFF05F58E632B48C4F8D83205F5B1639C
:1044B000C4F8DC3284F8E0B284F8E1B2C4F8E4B2C3
:1044C00084F8E8B213F0A6FB114A1049214821F004
:1044D00027FF05F58E632048C4F8EC3205F5B86374
:1044E000C4F8F03284F8F4B284F8F5B2C4F8F8B243
:1044F00084F8FCB213F08EFB054A0449164821F0FB
:104500000FFF05F58E6329E09895FF1FD9960000EF
:104510004C3EFF1FAC95FF1FC095FF1FD495FF1F9A
:10452000E895FF1FFC95FF1F1096FF1F2496FF1FA5
:104530003896FF1F4C96FF1F6096FF1F7496FF1F53
:10454000906BFF1F8896FF1F9C96FF1FB096FF1F62
:10455000C496FF1FD896FF1FEC96FF1FD248C4F8E1
:10456000003305F5BF63C4F8043384F808B384F856
:1045700009B3C4F80CB384F810B313F04BFBCB4A67
:10458000CB49C94821F0CCFE05F58E63C948C4F873
:10459000143305F5C663C4F8183384F81CB384F8E3
:1045A0001DB3C4F820B384F824B313F033FBBF4A1F
:1045B000BF49C04821F0B4FEA5F13803BE48C4F895
:1045C0002833BE4BC4F82C3384F830B384F83163FD
:1045D000C4F834B384F838B313F01CFBB34AB449BD
:1045E000B54821F09DFEB64BB648C4F84033C4F838
:1045F0003C5384F844B384F84563C4F848B384F862
:104600004CB313F007FBA94AA949AE4821F088FE34
:1046100005F13803AC48C4F85033AC4BC4F85433FC
:1046200084F858B384F85963C4F85CB384F860B371
:1046300013F0F0FA9D4A9E49A34821F071FE05F15E
:104640007003A348C4F86433A24BC4F8683384F8F9
:104650006CB384F86D63C4F870B384F874B313F06A
:10466000D9FA924A92499A4821F05AFE05F1A803D4
:104670009948C4F87833994BC4F87C3384F880B3F4
:1046800084F88163C4F884B384F888B313F0C2FA61
:10469000864A8749904821F043FE05F5E963904832
:1046A000C4F88C33A9F53773C4F8903384F894B305
:1046B00084F89563C4F898B384F89CB313F0AAFA0D
:1046C0007A4A7B49864821F02BFE05F5E963854847
:1046D000C4F8A033A9F56D73C4F8A43384F8A8B363
:1046E00084F8A963C4F8ACB384F8B0B313F092FAB9
:1046F0006E4A6F497B4821F013FE05F684137A4811
:10470000C4F8B433A9F53773C4F8B83384F8BCB32C
:1047100084F8BDB3C4F8C0B384F8C4B313F07AFA14
:10472000624A6349704821F0FBFD05F684136F4827
:10473000C4F8C833A9F56D73C4F8CC3384F8D0B38A
:1047400084F8D1B3C4F8D4B384F8D8B313F062FAC0
:10475000564A5749654821F0E3FD5E4B6448C4F86A
:10476000DC33A9F52973C4F8E03384F8E4B384F8A2
:10477000E563C4F8E8B384F8ECB313F04BFA4B4AA2
:104780004B495B4821F0CCFD524B5A48C4F8F033FA
:10479000A9F56473C4F8F43384F8F8B384F8F963C2
:1047A000C4F8FCB384F800B413F034FA3F4A40492B
:1047B000504821F0B5FD424B4F48C4F80434A9F5E8
:1047C0000D73C4F8083484F80CB484F80DB4C4F83C
:1047D00010B484F814B413F01DFA344A344946482E
:1047E00021F09EFD364B4548C4F81834A9F55B739B
:1047F000C4F81C3484F820B484F821B4C4F824B478
:1048000084F828B413F006FA284A29493B4821F0D5
:1048100087FD2E4B3A48C4F82C34A9F52973C4F807
:10482000303484F834B484F835B4C4F838B484F837
:104830003CB413F0EFF91D4A1D49314821F070FDD9
:10484000224B3048C4F84034A9F56473C4F84434AA
:1048500084F848B484F849B4C4F84CB484F850B42B
:1048600013F0D8F9114A1249264821F059FD134B8B
:104870002548C4F85434A9F50D73C4F8583484F8A5
:104880005CB484F85D64C4F860B484F864B413F074
:10489000C1F9064A06491C4821F042FD074B1B4856
:1048A000C4F8683434E000BF0097FF1F4C3EFF1F80
:1048B000D99600001497FF1F2897FF1F1867FF1F46
:1048C000A062FF1F3C97FF1F5097FF1FDC64FF1F74
:1048D0006497FF1F6460FF1F7897FF1F5469FF1FD5
:1048E0008C97FF1FA097FF1FB497FF1FC897FF1F4C
:1048F000DC97FF1FF097FF1F0498FF1F1898FF1FFA
:104900002C98FF1F4098FF1F5498FF1F6898FF1FA7
:10491000A9F55B73C4F86C3484F870B484F87164DE
:10492000C4F874B484F878B413F074F9E24AE34933
:10493000E34821F0F5FCE34BE348C4F87C34A9F5E7
:104940005273C4F8803484F884B484F885B4C4F80D
:1049500088B484F88CB413F05DF9D74AD749DA48A3
:1049600021F0DEFCD74BD948C4F89034A9F51B736D
:10497000C4F8943484F898B484F899B4C4F89CB416
:1049800084F8A0B413F046F9CB4ACC49CF4821F0C3
:10499000C7FCA9F55273CE48C4F8A834CD4BC4F86F
:1049A000A43484F8ACB484F8AD64C4F8B0B484F82A
:1049B000B4B413F02FF9C04AC049C54821F0B0FC87
:1049C000A9F51B73C448C4F8BC34C24BC4F8B8344E
:1049D00084F8C0B484F8C164C4F8C4B484F8C8B41A
:1049E00013F018F9B44AB549BB4821F099FCA5F574
:1049F000C473BA48C4F8CC34A9F1E403C4F8D03481
:104A000084F8D4B484F8D5B4C4F8D8B484F8DCB449
:104A100013F000F9A84AA949B04821F081FCA5F596
:104A2000C473AF48C4F8E034C4F8E45484F8E984AB
:104A300084F8E8B4C4F8ECB484F8F0B413F0EAF8FD
:104A4000A7489D4A9D49A0F5B96721F069FCA5F1E9
:104A5000380307F2DC50C4F8F834A5F5C473C4F881
:104A6000F43484F8FD8484F8FCB4C4F800B584F808
:104A700004B513F0CFF8904A904907F2DC5021F0CA
:104A80004FFCA5F5A87307F5BE60C4F80835A9F575
:104A9000C673C4F80C3584F810B584F811B5C4F8A1
:104AA00014B584F818B513F0B5F8834A834907F5AF
:104AB000BE6021F035FCA5F1A80307F20460C4F83C
:104AC0002035A5F5A873C4F81C3584F8258584F82D
:104AD00024B5C4F828B584F82CB513F09BF8764AB1
:104AE000764907F2046021F01BFCA5F1700307F57D
:104AF000C360C4F83435A5F5A873C4F8303584F81C
:104B0000398584F838B5C4F83CB584F840B513F05D
:104B100081F8694A694907F5C36021F001FCA5F5F0
:104B20008C7307F22C60C4F84435A9F58E73C4F871
:104B3000483584F84CB584F84DB5C4F850B584F8C0
:104B400054B513F067F85C4A5C4907F22C6021F019
:104B5000E7FB05F1A80307F5C860C4F85C35A5F5C7
:104B60008C73C4F8583584F8618584F860B5C4F84E
:104B700064B584F868B513F04DF84F4A4F4907F50E
:104B8000C86021F0CDFB05F1E00307F25460C4F8E2
:104B90007035A5F58C73C4F86C3584F8758584F888
:104BA00074B5C4F878B584F87CB513F033F8424A8C
:104BB000424907F2546021F0B3FBA5F1E00307F589
:104BC000CD60C4F88035A9F5AA73C4F8843584F89B
:104BD00088B584F889B5C4F88CB584F890B513F01D
:104BE00019F8354A354907F5CD6021F099FB05F1F3
:104BF000380307F27C60C4F89835A5F1E003C4F8E7
:104C0000943584F89D8584F89CB5C4F8A0B584F8E3
:104C1000A4B512F0FFFF284A284907F27C6021F072
:104C20007FFB05F1700307F5D260C4F8AC35A5F140
:104C3000E003C4F8A83584F8B18584F8B0B5C4F8A9
:104C4000B4B584F8B8B512F0E5FF1B4A1B49254DF1
:104C500007F5D26021F064FBA9F56D73C4F8BC358B
:104C6000A9F5377307F2A460C4F8C0354FF0030309
:104C700084F8C53584F8C4B5C4F8C8B584F8CCB593
:104C800012F0C8FF0C4A0D4907F2A46021F048FB5E
:104C9000A9F56473C4F8D0354FF0030307F5D76066
:104CA00084F8D935A9F52973C4F8D43584F8D8B572
:104CB000C4F8DCB518E000BF4C3EFF1FD9960000D9
:104CC0006898FF1F5469FF1F7C98FF1F9098FF1F73
:104CD000A498FF1F906BFF1FB898FF1FCC98FF1F71
:104CE000E098FF1FF8A4FF1F84F8E0B512F092FFD0
:104CF000EA4AEB4907F5D76021F012FBA9F55B738F
:104D0000C4F8E4354FF0030307F2CC6084F8ED35C6
:104D1000A9F50D73C4F8E83584F8ECB5C4F8F0B51E
:104D200084F8F4B512F076FFDC4ADD4907F2CC6076
:104D300021F0F6FAA9F55273C4F8F8354FF00303E1
:104D400007F5DC6084F80136A9F51B73C4F8FC355F
:104D500084F800B6C4F804B684F808B612F05AFF16
:104D6000CE4ACF4907F5DC6021F0DAFAA9F53773AE
:104D700007F2F460C4F80C36C4F8109684F814B640
:104D800084F815B6C4F818B684F81CB612F042FFC1
:104D9000C24AC34907F2F46021F0C2FAA9F52973A7
:104DA00007F5E160C4F82036A9F13C03C4F82436C5
:104DB00084F828B684F829B6C4F82CB684F830B63E
:104DC00012F028FFB54AB64907F5E16021F0A8FACC
:104DD000A9F5C67307F21C70C4F83436C4F83896C7
:104DE00084F83CB684F83D66C4F840B684F844B60E
:104DF00012F010FFA94AAA4907F21C7021F090FA9C
:104E0000A9F51B7307F5E660C4F8483609F13C03C1
:104E1000C4F84C3684F850B684F851B6C4F854B689
:104E200084F858B612F0F6FE9C4A9D4907F5E660F4
:104E300021F076FAA9F5AA7307F24470C4F85C363B
:104E4000A9F13C03C4F8603684F864B684F865665A
:104E5000C4F868B684F86CB612F0DCFE8F4A90494C
:104E600007F2447021F05CFAA9F58E7307F5EB6048
:104E7000C4F8703609F13C03C4F8743684F878B687
:104E800084F87966C4F87CB684F880B612F0C2FE65
:104E9000824A834907F5EB6021F042FAA9F50D73C8
:104EA00007F26C70C4F8843609F17803C4F88836C8
:104EB00084F88CB684F88DB6C4F890B684F894B6AD
:104EC00012F0A8FE754A764907F26C7021F028FAB4
:104ED000A9F1E40307F5F060C4F8983609F1780306
:104EE000C4F89C3684F8A0B684F8A166C4F8A4B6C9
:104EF00084F8A8B612F08EFE684A694907F5F0609A
:104F000021F00EFAA9F13C0307F29470C4F8AC3614
:104F100009F59673C4F8B03684F8B4B684F8B5B61B
:104F2000C4F8B8B684F8BCB612F074FE5B4A5C49AB
:104F300007F2947021F0F4F9A9F13C0307F5F5604C
:104F4000C4F8C03609F59673C4F8C43684F8C86648
:104F500084F8C966C4F8CCB684F8D0B612F05AFE0C
:104F60004E4A4F4907F5F56021F0DAF9A9F13C0303
:104F700007F2BC70C4F8D43609F59673C4F8D83675
:104F800084F8DC8684F8DD86C4F8E0B684F8E4B6FC
:104F900012F040FE414A424907F2BC7021F0C0F9CC
:104FA00009F5CE7307F5FA60C4F8EC36C4F8E89654
:104FB00084F8F0B684F8F1B6C4F8F4B684F8F8B61C
:104FC00012F028FE354A364907F5FA6021F0A8F9B3
:104FD00009F5CE7307F2E470C4F80037C4F8FC9604
:104FE00084F8046784F80567C4F808B784F80CB738
:104FF00012F010FE294A2A4907F2E47021F090F9D4
:1050000009F5CE7307F5FF60C4F81437C4F810979C
:1050100084F8188784F81987C4F81CB784F820B777
:1050200012F0F8FD1D4A1E4907F5FF6021F078F9DE
:1050300009F13C0307F60C00C4F8243709F5B273F4
:10504000C4F8283784F82CB784F82DB7C4F830B7E3
:1050500084F834B712F0DEFD104A114907F60C004F
:1050600021F05EF909F13C0307F50260C4F8383716
:1050700009F5B273C4F83C3784F8406784F8416797
:10508000C4F844B784F848B712F0C4FD034A044991
:1050900007F5026021F044F904E000BF4C3EFF1F19
:1050A000D996000009F13C0307F63400C4F84C37E8
:1050B00009F5B273C4F8503784F8548784F85587DB
:1050C000C4F858B784F85CB712F0A4FDEA4AEB497B
:1050D00007F6340021F024F909F1780307F64800B7
:1050E000C4F8603709F5EA73C4F8643784F868B720
:1050F00084F869B7C4F86CB784F870B712F08AFD09
:10510000DD4ADE4907F6480021F00AF909F1780383
:1051100007F65C00C4F8743709F5EA73C4F8783709
:1051200084F87C6784F87D67C4F880B784F884B716
:1051300012F070FDD04AD14907F65C0021F0F0F87A
:1051400009F1780307F50760C4F8883709F5EA73B1
:10515000C4F88C3784F8908784F89187C4F894B7A2
:1051600084F898B712F056FDC34AC44907F50760A2
:1051700021F0D6F809F1B40307F68400C4F89C378F
:1051800009F50373C4F8A03784F8A4B784F8A5B769
:10519000C4F8A8B784F8ACB712F03CFDB64AB749DA
:1051A00007F6840021F0BCF809F1B40307F6980073
:1051B000C4F8B03709F50373C4F8B43784F8B86796
:1051C00084F8B967C4F8BCB784F8C0B712F022FD00
:1051D000A94AAA4907F6980021F0A2F809F1B403F8
:1051E00007F6AC00C4F8C43709F50373C4F8C83730
:1051F00084F8CC8784F8CD87C4F8D0B784F8D4B7C6
:1052000012F008FD9C4A9D4907F6AC0021F088F891
:1052100009F1F00307F50C60C4F8D83709F51173EC
:10522000C4F8DC3784F8E0B784F8E1B7C4F8E4B731
:1052300084F8E8B712F0EEFC8F4A904907F50C604D
:1052400021F06EF809F1F00307F6D400C4F8EC374A
:1052500009F51173C4F8F03784F8F46784F8F5673A
:10526000C4F8F8B784F8FCB712F0D4FC824A83493A
:1052700007F6D40021F054F809F1F00307F6E8002E
:10528000C4F8003809F51173C4F8043884F80888A4
:1052900084F80988C4F80CB884F810B812F0BAFC85
:1052A000754A764907F6E80021F03AF809F5967351
:1052B00007F6FC00C4F8143809F51F73C4F8183851
:1052C00084F824B8C4F820B884F81DB884F81CB851
:1052D00012F0A0FC684A694907F6FC0021F020F8AA
:1052E00009F5B27307F51160C4F8283809F52D7374
:1052F000C4F82C3884F838B8C4F834B884F831B815
:1053000084F830B812F086FC5B4A5C4907F51160FE
:1053100021F006F809F5CE7307F62410C4F83C38DE
:1053200009F54973C4F8403884F84CB8C4F848B853
:1053300084F845B884F844B812F06CFC4E4A4F49E2
:1053400007F6241020F0ECFF09F5EA7307F6381091
:10535000C4F8503809F53B73C4F8543884F860B881
:10536000C4F85CB884F859B884F858B812F052FC04
:10537000414A424907F6381020F0D2FF09F503737D
:1053800007F64C10C4F8643809F55773C4F8683848
:1053900084F874B8C4F870B884F86DB884F86CB840
:1053A00012F038FC3549344A07F64C1020F0B8FFAB
:1053B00009F5657309F5117207F51660C4F87C38B4
:1053C0000093C4F8782884F888B8C4F884B884F8BE
:1053D00081B884F880B812F01DFC274A274907F5E8
:1053E000166020F09DFF09F51F7307F67410C4F8CE
:1053F0008C3809F57373C4F8903884F89CB8C4F8F5
:1054000098B884F8956884F894B812F003FC1A4AA6
:105410001A4907F6741020F083FF09F52D7307F67B
:105420008810C4F8A03809F57373C4F8A43884F858
:10543000A98884F8B0B8C4F8ACB884F8A8B812F059
:10544000E9FB0D4A0D4907F6881020F069FF09F5C0
:105450003B7307F69C10C4F8B43809F20443C4F84F
:10546000B83884F8C4B8C4F8C0B884F8BDB884F8B3
:10547000BCB812F0CFFB03E04C3EFF1FD9960000F2
:10548000E44AE54907F69C1020F04AFF09F5497304
:1054900007F51B60C4F8C83809F57373C4F8CC3835
:1054A00084F8D8B8C4F8D4B884F8D1B884F8D0B89F
:1054B00012F0B0FBD74AD84907F51B6020F030FF47
:1054C00009F5577307F6C410C4F8DC3809F2044331
:1054D000C4F8E03884F8ECB8C4F8E8B884F8E568B3
:1054E00084F8E4B812F096FBCA4ACB4907F6C41018
:1054F00020F016FF009BC4F8F03807F6D81009F228
:105500000443C4F8F43884F8F98884F800B9C4F87E
:10551000FCB884F8F8B812F07DFBBE4ABE4907F625
:10552000D81020F0FDFE09F2744307F6EC1009F5DF
:105530009669C4F80439C4F8089984F80C8984F889
:1055400014B9C4F810B984F80DB912F063FBB14A6C
:10555000B14907F6EC1020F0E3FE07F52060C4F82F
:105560001899C4F81C7984F828B9C4F824B984F8C7
:10557000216984F820B912F04DFBA64AA64907F527
:10558000206020F0CDFEA54BC4F8303907F614207A
:10559000C4F82C9984F83CB9C4F838B984F8356952
:1055A00084F8346912F036FB9A4A9B4907F61420B6
:1055B00020F0B6FEA9F13C0307F62820C4F84039D4
:1055C000C4F8447984F8488984F850B9C4F84CB9CF
:1055D00084F849B912F01EFB8E4A8F4907F628203D
:1055E00020F09EFEA9F13C0307F63C20C4F8543994
:1055F0008A4BC4F8583984F85C8984F864B9C4F8D3
:1056000060B984F85DB912F005FB824A824907F659
:105610003C2020F085FE07F13809804BC4F868393A
:1056200007F52560C4F86C9984F878B9C4F874B9A2
:1056300084F8716984F870B912F0ECFA7649754A09
:1056400007F5256020F06CFE07F1600307F6642083
:10565000724AC4F880390093C4F87C2984F88CB964
:10566000C4F888B984F8856984F884B912F0D2FA4C
:10567000684A694907F6642020F052FE009BC4F88E
:10568000943907F67820C4F8907984F898B984F8AA
:1056900099B9C4F89CB984F8A0B912F0BBFA5D4A74
:1056A0005D4907F6782020F03BFE07F68C20C4F811
:1056B000A899C4F8A47984F8ACB984F8ADB9C4F851
:1056C000B0B984F8B4B912F0A5FA524A524907F6B3
:1056D0008C2020F025FE0AF6BC4307F52A60C4F8AA
:1056E000BC390AF5FC63C4F8B83984F8C0B984F849
:1056F000C1B9C4F8C4B984F8C8B912F08BFA454AE4
:10570000454907F52A6020F00BFE0AF5286307F6E5
:10571000B420C4F8D0390AF61803C4F8CC3984F898
:10572000D4B984F8D5B9C4F8D8B984F8DCB912F082
:1057300071FA384A384907F6B42020F0F1FD384BA9
:10574000C4F8E43907F6C8200AF50563C4F8E0395F
:1057500084F8E8B984F8E9B9C4F8ECB984F8F0B988
:1057600012F058FA2B4A2C4907F6C82020F0D8FD31
:105770002C4BC4F8F83907F6DC200AF68803C4F885
:10578000F43984F8FCB984F8FDB9C4F800BA84F897
:1057900004BA12F03FFA1F4A1F4907F6DC2020F036
:1057A000BFFD214BC4F80C3A07F52F600AF50C63D6
:1057B000C4F8083A84F810BA84F811BAC4F814BAD4
:1057C00084F818BA12F026FA124A134907F52F6026
:1057D00020F0A6FD154BC4F8203A07F604300AF66F
:1057E000F803C4F81C3A84F824BA84F825BAC4F83B
:1057F00028BA84F82CBA12F00DFA064A064907F6C0
:10580000043020F08DFD0A4BC4F8343A07F6183006
:1058100010E000BF4C3EFF1FD9960000E092FF1F32
:10582000DC64FF1F6460FF1F5469FF1F906BFF1F44
:10583000A062FF1F0AF51363C4F8303A84F838BA3F
:1058400084F839BAC4F83CBA84F840BA12F0E2F9E4
:10585000E94AEA4907F6183020F062FDE84BC4F83F
:10586000483A07F62C300AF66813C4F8443A84F82C
:105870004CBA84F84DBAC4F850BA84F854BA12F04D
:10588000C9F9DD4ADD4907F62C3020F049FD0AF55B
:10589000F47307F53460C4F8583A0AF5FC63C4F8A9
:1058A0005C3A84F860BA84F8616AC4F864BA84F82F
:1058B00068BA12F0AFF9D04AD04907F5346020F049
:1058C0002FFD0AF5F47307F65430C4F86C3A0AF663
:1058D0001803C4F8703A84F874BA84F8756AC4F886
:1058E00078BA84F87CBA12F095F9C34AC34907F62E
:1058F000543020F015FD0AF5167307F66830C4F829
:10590000803A0AF50563C4F8843A84F888BA84F8C2
:10591000896AC4F88CBA84F890BA12F07BF9B64A56
:10592000B64907F6683020F0FBFC0AF5167307F657
:105930007C30C4F8943A0AF68803C4F8983A84F89C
:105940009CBA84F89D6AC4F8A0BA84F8A4BA12F08C
:1059500061F9A94AA94907F67C3020F0E1FC0AF573
:10596000087307F53960C4F8A83A0AF50C63C4F85F
:10597000AC3A84F8B0BA84F8B16AC4F8B4BA84F81E
:10598000B8BA12F047F99C4A9C4907F5396020F0F3
:10599000C7FC0AF5087307F6A430C4F8BC3A0AF647
:1059A000F803C4F8C03A84F8C4BA84F8C56AC4F8E5
:1059B000C8BA84F8CCBA12F02DF98F4A8F4907F68D
:1059C000A43020F0ADFC0AF5D87307F6B830C4F85F
:1059D000D03A0AF51363C4F8D43A84F8D8BA84F8F4
:1059E000D96AC4F8DCBA84F8E0BA12F013F9824A32
:1059F000824907F6B83020F093FC0AF5D87307F611
:105A0000CC30C4F8E43A0AF66813C4F8E83A84F8EB
:105A1000ECBA84F8ED6AC4F8F0BA84F8F4BA12F07B
:105A2000F9F8754A754907F6CC3020F079FC0AF58B
:105A3000FC6307F53E60C4F8FC3A0AF5AD63C4F8B0
:105A4000F83A84F8018B84F800BBC4F804BB84F8EE
:105A500008BB12F0DFF8684A684907F53E6020F09D
:105A60005FFC0AF6180307F6F430C4F8103B0AF599
:105A7000AD63C4F80C3B84F8158B84F814BBC4F8F0
:105A800018BB84F81CBB12F0C5F85B4A5B4907F6EB
:105A9000F43020F045FC0AF5B2690AF5056307F613
:105AA0000840C4F8243B84F8298BC4F8209B84F870
:105AB00028BBC4F82CBB84F830BB12F0ABF84E4ABC
:105AC0004E4907F6084020F02BFC09F53E7307F617
:105AD0001C40C4F8383BC4F8349B84F83D8B84F8F0
